{
  "contractName": "ChainIdMixin",
  "abi": [
    {
      "constant": true,
      "inputs": [],
      "name": "networkId",
      "outputs": [
        {
          "internalType": "bytes",
          "name": "",
          "type": "bytes"
        }
      ],
      "payable": false,
      "stateMutability": "view",
      "type": "function"
    },
    {
      "constant": true,
      "inputs": [],
      "name": "CHAINID",
      "outputs": [
        {
          "internalType": "uint256",
          "name": "",
          "type": "uint256"
        }
      ],
      "payable": false,
      "stateMutability": "view",
      "type": "function"
    }
  ],
  "bytecode": "0x608060405234801561001057600080fd5b50610120806100206000396000f3fe6080604052348015600f57600080fd5b506004361060325760003560e01c80639025e64c146037578063cc79f97b1460af575b600080fd5b603d60c7565b6040805160208082528351818301528351919283929083019185019080838360005b838110156075578181015183820152602001605f565b50505050905090810190601f16801560a15780820380516001836020036101000a031916815260200191505b509250505060405180910390f35b60b560e5565b60408051918252519081900360200190f35b6040518060400160405280600281526020016103eb60f11b81525081565b6107d68156fea265627a7a7231582006192385a82848e49c393d1f981a4ed5f04b528f1b1f8ac4799678c319011ebe64736f6c634300050b0032",
  "source": "pragma solidity ^0.5.2;\n\ncontract ChainIdMixin {\n  bytes constant public networkId = hex\"07D6\";\n  uint256 constant public CHAINID = 2006;\n}\n",
  "sourcePath": "/Users/arth/Documents/Projects/contracts/contracts/common/mixin/ChainIdMixin.sol",
  "compiler": {
    "name": "solc",
    "version": "0.5.11+commit.c082d0b4.Emscripten.clang"
  },
  "schemaVersion": "3.0.14",
  "updatedAt": "2020-04-11T06:23:12.638Z",
  "devdoc": {
    "methods": {}
  },
  "userdoc": {
    "methods": {}
  }
}