{
  "contractName": "Lockable",
  "abi": [
    {
      "constant": true,
      "inputs": [],
      "name": "governance",
      "outputs": [
        {
          "internalType": "contract IGovernance",
          "name": "",
          "type": "address"
        }
      ],
      "payable": false,
      "stateMutability": "view",
      "type": "function"
    },
    {
      "constant": true,
      "inputs": [],
      "name": "locked",
      "outputs": [
        {
          "internalType": "bool",
          "name": "",
          "type": "bool"
        }
      ],
      "payable": false,
      "stateMutability": "view",
      "type": "function"
    },
    {
      "inputs": [
        {
          "internalType": "address",
          "name": "_governance",
          "type": "address"
        }
      ],
      "payable": false,
      "stateMutability": "nonpayable",
      "type": "constructor"
    },
    {
      "constant": false,
      "inputs": [],
      "name": "lock",
      "outputs": [],
      "payable": false,
      "stateMutability": "nonpayable",
      "type": "function"
    },
    {
      "constant": false,
      "inputs": [],
      "name": "unlock",
      "outputs": [],
      "payable": false,
      "stateMutability": "nonpayable",
      "type": "function"
    }
  ],
  "bytecode": "0x608060405234801561001057600080fd5b506040516102383803806102388339818101604052602081101561003357600080fd5b5051600080546001600160a01b039092166001600160a01b03199092169190911790556101d3806100656000396000f3fe608060405234801561001057600080fd5b506004361061004c5760003560e01c80635aa6e67514610051578063a69df4b514610075578063cf3090121461007f578063f83d08ba1461009b575b600080fd5b6100596100a3565b604080516001600160a01b039092168252519081900360200190f35b61007d6100b2565b005b61008761010a565b604080519115158252519081900360200190f35b61007d61011a565b6000546001600160a01b031681565b6000546001600160a01b031633146100fb5760405162461bcd60e51b81526004018080602001828103825260268152602001806101796026913960400191505060405180910390fd5b6000805460ff60a01b19169055565b600054600160a01b900460ff1681565b6000546001600160a01b031633146101635760405162461bcd60e51b81526004018080602001828103825260268152602001806101796026913960400191505060405180910390fd5b6000805460ff60a01b1916600160a01b17905556fe4f6e6c7920676f7665726e616e636520636f6e747261637420697320617574686f72697a6564a265627a7a723158208b5a89748da907c338fcffaeec6b419a1ec40ed043cd6d2b4a09d9110733dc2f64736f6c634300050b0032",
  "source": "pragma solidity ^0.5.2;\n\nimport {Governable} from \"../governance/Governable.sol\";\n\ncontract Lockable is Governable {\n    bool public locked;\n\n    modifier onlyWhenUnlocked() {\n        require(!locked, \"Is Locked\");\n        _;\n    }\n\n    constructor(address _governance) public Governable(_governance) {}\n\n    function lock() external onlyGovernance {\n        locked = true;\n    }\n\n    function unlock() external onlyGovernance {\n        locked = false;\n    }\n}\n",
  "sourcePath": "/Users/arth/Documents/Projects/contracts/contracts/common/mixin/Lockable.sol",
  "compiler": {
    "name": "solc",
    "version": "0.5.11+commit.c082d0b4.Emscripten.clang"
  },
  "schemaVersion": "3.0.14",
  "updatedAt": "2020-04-11T06:23:12.638Z",
  "devdoc": {
    "methods": {}
  },
  "userdoc": {
    "methods": {}
  }
}