{
  "contractName": "StakingInfo",
  "abi": [
    {
      "constant": true,
      "inputs": [],
      "name": "registry",
      "outputs": [
        {
          "internalType": "contract Registry",
          "name": "",
          "type": "address"
        }
      ],
      "payable": false,
      "stateMutability": "view",
      "type": "function"
    },
    {
      "inputs": [
        {
          "internalType": "address",
          "name": "_registry",
          "type": "address"
        }
      ],
      "payable": false,
      "stateMutability": "nonpayable",
      "type": "constructor"
    },
    {
      "anonymous": false,
      "inputs": [
        {
          "indexed": true,
          "internalType": "address",
          "name": "signer",
          "type": "address"
        },
        {
          "indexed": true,
          "internalType": "uint256",
          "name": "validatorId",
          "type": "uint256"
        },
        {
          "indexed": true,
          "internalType": "uint256",
          "name": "activationEpoch",
          "type": "uint256"
        },
        {
          "indexed": false,
          "internalType": "uint256",
          "name": "amount",
          "type": "uint256"
        },
        {
          "indexed": false,
          "internalType": "uint256",
          "name": "total",
          "type": "uint256"
        },
        {
          "indexed": false,
          "internalType": "bytes",
          "name": "signerPubkey",
          "type": "bytes"
        }
      ],
      "name": "Staked",
      "type": "event"
    },
    {
      "anonymous": false,
      "inputs": [
        {
          "indexed": true,
          "internalType": "address",
          "name": "user",
          "type": "address"
        },
        {
          "indexed": true,
          "internalType": "uint256",
          "name": "validatorId",
          "type": "uint256"
        },
        {
          "indexed": false,
          "internalType": "uint256",
          "name": "amount",
          "type": "uint256"
        },
        {
          "indexed": false,
          "internalType": "uint256",
          "name": "total",
          "type": "uint256"
        }
      ],
      "name": "Unstaked",
      "type": "event"
    },
    {
      "anonymous": false,
      "inputs": [
        {
          "indexed": true,
          "internalType": "address",
          "name": "user",
          "type": "address"
        },
        {
          "indexed": true,
          "internalType": "uint256",
          "name": "validatorId",
          "type": "uint256"
        },
        {
          "indexed": false,
          "internalType": "uint256",
          "name": "deactivationEpoch",
          "type": "uint256"
        },
        {
          "indexed": true,
          "internalType": "uint256",
          "name": "amount",
          "type": "uint256"
        }
      ],
      "name": "UnstakeInit",
      "type": "event"
    },
    {
      "anonymous": false,
      "inputs": [
        {
          "indexed": true,
          "internalType": "uint256",
          "name": "validatorId",
          "type": "uint256"
        },
        {
          "indexed": true,
          "internalType": "address",
          "name": "oldSigner",
          "type": "address"
        },
        {
          "indexed": true,
          "internalType": "address",
          "name": "newSigner",
          "type": "address"
        },
        {
          "indexed": false,
          "internalType": "bytes",
          "name": "signerPubkey",
          "type": "bytes"
        }
      ],
      "name": "SignerChange",
      "type": "event"
    },
    {
      "anonymous": false,
      "inputs": [
        {
          "indexed": true,
          "internalType": "uint256",
          "name": "validatorId",
          "type": "uint256"
        },
        {
          "indexed": false,
          "internalType": "uint256",
          "name": "amount",
          "type": "uint256"
        },
        {
          "indexed": false,
          "internalType": "uint256",
          "name": "total",
          "type": "uint256"
        }
      ],
      "name": "ReStaked",
      "type": "event"
    },
    {
      "anonymous": false,
      "inputs": [
        {
          "indexed": true,
          "internalType": "uint256",
          "name": "validatorId",
          "type": "uint256"
        },
        {
          "indexed": true,
          "internalType": "uint256",
          "name": "exitEpoch",
          "type": "uint256"
        }
      ],
      "name": "Jailed",
      "type": "event"
    },
    {
      "anonymous": false,
      "inputs": [
        {
          "indexed": false,
          "internalType": "uint256",
          "name": "newThreshold",
          "type": "uint256"
        },
        {
          "indexed": false,
          "internalType": "uint256",
          "name": "oldThreshold",
          "type": "uint256"
        }
      ],
      "name": "ThresholdChange",
      "type": "event"
    },
    {
      "anonymous": false,
      "inputs": [
        {
          "indexed": false,
          "internalType": "uint256",
          "name": "newDynasty",
          "type": "uint256"
        },
        {
          "indexed": false,
          "internalType": "uint256",
          "name": "oldDynasty",
          "type": "uint256"
        }
      ],
      "name": "DynastyValueChange",
      "type": "event"
    },
    {
      "anonymous": false,
      "inputs": [
        {
          "indexed": false,
          "internalType": "uint256",
          "name": "newReward",
          "type": "uint256"
        },
        {
          "indexed": false,
          "internalType": "uint256",
          "name": "oldReward",
          "type": "uint256"
        }
      ],
      "name": "RewardUpdate",
      "type": "event"
    },
    {
      "anonymous": false,
      "inputs": [
        {
          "indexed": true,
          "internalType": "uint256",
          "name": "validatorId",
          "type": "uint256"
        },
        {
          "indexed": true,
          "internalType": "uint256",
          "name": "newAmount",
          "type": "uint256"
        }
      ],
      "name": "StakeUpdate",
      "type": "event"
    },
    {
      "anonymous": false,
      "inputs": [
        {
          "indexed": true,
          "internalType": "uint256",
          "name": "validatorId",
          "type": "uint256"
        },
        {
          "indexed": true,
          "internalType": "uint256",
          "name": "amount",
          "type": "uint256"
        },
        {
          "indexed": true,
          "internalType": "uint256",
          "name": "totalAmount",
          "type": "uint256"
        }
      ],
      "name": "ClaimRewards",
      "type": "event"
    },
    {
      "anonymous": false,
      "inputs": [
        {
          "indexed": true,
          "internalType": "uint256",
          "name": "validatorId",
          "type": "uint256"
        },
        {
          "indexed": true,
          "internalType": "uint256",
          "name": "amount",
          "type": "uint256"
        },
        {
          "indexed": true,
          "internalType": "uint256",
          "name": "auctionAmount",
          "type": "uint256"
        }
      ],
      "name": "StartAuction",
      "type": "event"
    },
    {
      "anonymous": false,
      "inputs": [
        {
          "indexed": true,
          "internalType": "uint256",
          "name": "newValidatorId",
          "type": "uint256"
        },
        {
          "indexed": true,
          "internalType": "uint256",
          "name": "oldValidatorId",
          "type": "uint256"
        },
        {
          "indexed": true,
          "internalType": "uint256",
          "name": "amount",
          "type": "uint256"
        }
      ],
      "name": "ConfirmAuction",
      "type": "event"
    },
    {
      "anonymous": false,
      "inputs": [
        {
          "indexed": true,
          "internalType": "uint256",
          "name": "validatorId",
          "type": "uint256"
        },
        {
          "indexed": true,
          "internalType": "address",
          "name": "signer",
          "type": "address"
        },
        {
          "indexed": true,
          "internalType": "uint256",
          "name": "fee",
          "type": "uint256"
        }
      ],
      "name": "TopUpFee",
      "type": "event"
    },
    {
      "anonymous": false,
      "inputs": [
        {
          "indexed": true,
          "internalType": "uint256",
          "name": "validatorId",
          "type": "uint256"
        },
        {
          "indexed": true,
          "internalType": "address",
          "name": "signer",
          "type": "address"
        },
        {
          "indexed": true,
          "internalType": "uint256",
          "name": "fee",
          "type": "uint256"
        }
      ],
      "name": "ClaimFee",
      "type": "event"
    },
    {
      "anonymous": false,
      "inputs": [
        {
          "indexed": true,
          "internalType": "uint256",
          "name": "validatorId",
          "type": "uint256"
        },
        {
          "indexed": true,
          "internalType": "address",
          "name": "user",
          "type": "address"
        },
        {
          "indexed": true,
          "internalType": "uint256",
          "name": "amount",
          "type": "uint256"
        },
        {
          "indexed": false,
          "internalType": "uint256",
          "name": "tokens",
          "type": "uint256"
        }
      ],
      "name": "ShareMinted",
      "type": "event"
    },
    {
      "anonymous": false,
      "inputs": [
        {
          "indexed": true,
          "internalType": "uint256",
          "name": "validatorId",
          "type": "uint256"
        },
        {
          "indexed": true,
          "internalType": "address",
          "name": "user",
          "type": "address"
        },
        {
          "indexed": true,
          "internalType": "uint256",
          "name": "amount",
          "type": "uint256"
        },
        {
          "indexed": false,
          "internalType": "uint256",
          "name": "tokens",
          "type": "uint256"
        }
      ],
      "name": "ShareBurned",
      "type": "event"
    },
    {
      "anonymous": false,
      "inputs": [
        {
          "indexed": true,
          "internalType": "uint256",
          "name": "validatorId",
          "type": "uint256"
        },
        {
          "indexed": true,
          "internalType": "address",
          "name": "user",
          "type": "address"
        },
        {
          "indexed": true,
          "internalType": "uint256",
          "name": "rewards",
          "type": "uint256"
        },
        {
          "indexed": false,
          "internalType": "uint256",
          "name": "tokens",
          "type": "uint256"
        }
      ],
      "name": "DelClaimRewards",
      "type": "event"
    },
    {
      "anonymous": false,
      "inputs": [
        {
          "indexed": true,
          "internalType": "uint256",
          "name": "validatorId",
          "type": "uint256"
        },
        {
          "indexed": true,
          "internalType": "address",
          "name": "user",
          "type": "address"
        },
        {
          "indexed": true,
          "internalType": "uint256",
          "name": "totalStaked",
          "type": "uint256"
        }
      ],
      "name": "DelReStaked",
      "type": "event"
    },
    {
      "anonymous": false,
      "inputs": [
        {
          "indexed": true,
          "internalType": "uint256",
          "name": "validatorId",
          "type": "uint256"
        },
        {
          "indexed": true,
          "internalType": "address",
          "name": "user",
          "type": "address"
        },
        {
          "indexed": false,
          "internalType": "uint256",
          "name": "amount",
          "type": "uint256"
        }
      ],
      "name": "DelUnstaked",
      "type": "event"
    },
    {
      "anonymous": false,
      "inputs": [
        {
          "indexed": true,
          "internalType": "uint256",
          "name": "validatorId",
          "type": "uint256"
        },
        {
          "indexed": true,
          "internalType": "uint256",
          "name": "newCommissionRate",
          "type": "uint256"
        },
        {
          "indexed": true,
          "internalType": "uint256",
          "name": "oldCommissionRate",
          "type": "uint256"
        }
      ],
      "name": "UpdateCommissionRate",
      "type": "event"
    },
    {
      "constant": false,
      "inputs": [
        {
          "internalType": "address",
          "name": "signer",
          "type": "address"
        },
        {
          "internalType": "bytes",
          "name": "signerPubkey",
          "type": "bytes"
        },
        {
          "internalType": "uint256",
          "name": "validatorId",
          "type": "uint256"
        },
        {
          "internalType": "uint256",
          "name": "activationEpoch",
          "type": "uint256"
        },
        {
          "internalType": "uint256",
          "name": "amount",
          "type": "uint256"
        },
        {
          "internalType": "uint256",
          "name": "total",
          "type": "uint256"
        }
      ],
      "name": "logStaked",
      "outputs": [],
      "payable": false,
      "stateMutability": "nonpayable",
      "type": "function"
    },
    {
      "constant": false,
      "inputs": [
        {
          "internalType": "address",
          "name": "user",
          "type": "address"
        },
        {
          "internalType": "uint256",
          "name": "validatorId",
          "type": "uint256"
        },
        {
          "internalType": "uint256",
          "name": "amount",
          "type": "uint256"
        },
        {
          "internalType": "uint256",
          "name": "total",
          "type": "uint256"
        }
      ],
      "name": "logUnstaked",
      "outputs": [],
      "payable": false,
      "stateMutability": "nonpayable",
      "type": "function"
    },
    {
      "constant": false,
      "inputs": [
        {
          "internalType": "address",
          "name": "user",
          "type": "address"
        },
        {
          "internalType": "uint256",
          "name": "validatorId",
          "type": "uint256"
        },
        {
          "internalType": "uint256",
          "name": "deactivationEpoch",
          "type": "uint256"
        },
        {
          "internalType": "uint256",
          "name": "amount",
          "type": "uint256"
        }
      ],
      "name": "logUnstakeInit",
      "outputs": [],
      "payable": false,
      "stateMutability": "nonpayable",
      "type": "function"
    },
    {
      "constant": false,
      "inputs": [
        {
          "internalType": "uint256",
          "name": "validatorId",
          "type": "uint256"
        },
        {
          "internalType": "address",
          "name": "oldSigner",
          "type": "address"
        },
        {
          "internalType": "address",
          "name": "newSigner",
          "type": "address"
        },
        {
          "internalType": "bytes",
          "name": "signerPubkey",
          "type": "bytes"
        }
      ],
      "name": "logSignerChange",
      "outputs": [],
      "payable": false,
      "stateMutability": "nonpayable",
      "type": "function"
    },
    {
      "constant": false,
      "inputs": [
        {
          "internalType": "uint256",
          "name": "validatorId",
          "type": "uint256"
        },
        {
          "internalType": "uint256",
          "name": "amount",
          "type": "uint256"
        },
        {
          "internalType": "uint256",
          "name": "total",
          "type": "uint256"
        }
      ],
      "name": "logReStaked",
      "outputs": [],
      "payable": false,
      "stateMutability": "nonpayable",
      "type": "function"
    },
    {
      "constant": false,
      "inputs": [
        {
          "internalType": "uint256",
          "name": "validatorId",
          "type": "uint256"
        },
        {
          "internalType": "uint256",
          "name": "exitEpoch",
          "type": "uint256"
        }
      ],
      "name": "logJailed",
      "outputs": [],
      "payable": false,
      "stateMutability": "nonpayable",
      "type": "function"
    },
    {
      "constant": false,
      "inputs": [
        {
          "internalType": "uint256",
          "name": "newThreshold",
          "type": "uint256"
        },
        {
          "internalType": "uint256",
          "name": "oldThreshold",
          "type": "uint256"
        }
      ],
      "name": "logThresholdChange",
      "outputs": [],
      "payable": false,
      "stateMutability": "nonpayable",
      "type": "function"
    },
    {
      "constant": false,
      "inputs": [
        {
          "internalType": "uint256",
          "name": "newDynasty",
          "type": "uint256"
        },
        {
          "internalType": "uint256",
          "name": "oldDynasty",
          "type": "uint256"
        }
      ],
      "name": "logDynastyValueChange",
      "outputs": [],
      "payable": false,
      "stateMutability": "nonpayable",
      "type": "function"
    },
    {
      "constant": false,
      "inputs": [
        {
          "internalType": "uint256",
          "name": "newReward",
          "type": "uint256"
        },
        {
          "internalType": "uint256",
          "name": "oldReward",
          "type": "uint256"
        }
      ],
      "name": "logRewardUpdate",
      "outputs": [],
      "payable": false,
      "stateMutability": "nonpayable",
      "type": "function"
    },
    {
      "constant": false,
      "inputs": [
        {
          "internalType": "uint256",
          "name": "validatorId",
          "type": "uint256"
        }
      ],
      "name": "logStakeUpdate",
      "outputs": [],
      "payable": false,
      "stateMutability": "nonpayable",
      "type": "function"
    },
    {
      "constant": false,
      "inputs": [
        {
          "internalType": "uint256",
          "name": "validatorId",
          "type": "uint256"
        },
        {
          "internalType": "uint256",
          "name": "amount",
          "type": "uint256"
        },
        {
          "internalType": "uint256",
          "name": "totalAmount",
          "type": "uint256"
        }
      ],
      "name": "logClaimRewards",
      "outputs": [],
      "payable": false,
      "stateMutability": "nonpayable",
      "type": "function"
    },
    {
      "constant": false,
      "inputs": [
        {
          "internalType": "uint256",
          "name": "validatorId",
          "type": "uint256"
        },
        {
          "internalType": "uint256",
          "name": "amount",
          "type": "uint256"
        },
        {
          "internalType": "uint256",
          "name": "auctionAmount",
          "type": "uint256"
        }
      ],
      "name": "logStartAuction",
      "outputs": [],
      "payable": false,
      "stateMutability": "nonpayable",
      "type": "function"
    },
    {
      "constant": false,
      "inputs": [
        {
          "internalType": "uint256",
          "name": "newValidatorId",
          "type": "uint256"
        },
        {
          "internalType": "uint256",
          "name": "oldValidatorId",
          "type": "uint256"
        },
        {
          "internalType": "uint256",
          "name": "amount",
          "type": "uint256"
        }
      ],
      "name": "logConfirmAuction",
      "outputs": [],
      "payable": false,
      "stateMutability": "nonpayable",
      "type": "function"
    },
    {
      "constant": false,
      "inputs": [
        {
          "internalType": "uint256",
          "name": "validatorId",
          "type": "uint256"
        },
        {
          "internalType": "address",
          "name": "signer",
          "type": "address"
        },
        {
          "internalType": "uint256",
          "name": "fee",
          "type": "uint256"
        }
      ],
      "name": "logTopUpFee",
      "outputs": [],
      "payable": false,
      "stateMutability": "nonpayable",
      "type": "function"
    },
    {
      "constant": false,
      "inputs": [
        {
          "internalType": "uint256",
          "name": "validatorId",
          "type": "uint256"
        },
        {
          "internalType": "address",
          "name": "signer",
          "type": "address"
        },
        {
          "internalType": "uint256",
          "name": "fee",
          "type": "uint256"
        }
      ],
      "name": "logClaimFee",
      "outputs": [],
      "payable": false,
      "stateMutability": "nonpayable",
      "type": "function"
    },
    {
      "constant": true,
      "inputs": [
        {
          "internalType": "uint256",
          "name": "validatorId",
          "type": "uint256"
        }
      ],
      "name": "getStakerDetails",
      "outputs": [
        {
          "internalType": "uint256",
          "name": "amount",
          "type": "uint256"
        },
        {
          "internalType": "uint256",
          "name": "reward",
          "type": "uint256"
        },
        {
          "internalType": "uint256",
          "name": "activationEpoch",
          "type": "uint256"
        },
        {
          "internalType": "uint256",
          "name": "deactivationEpoch",
          "type": "uint256"
        },
        {
          "internalType": "address",
          "name": "signer",
          "type": "address"
        },
        {
          "internalType": "uint256",
          "name": "_status",
          "type": "uint256"
        }
      ],
      "payable": false,
      "stateMutability": "view",
      "type": "function"
    },
    {
      "constant": true,
      "inputs": [
        {
          "internalType": "uint256",
          "name": "validatorId",
          "type": "uint256"
        }
      ],
      "name": "totalValidatorStake",
      "outputs": [
        {
          "internalType": "uint256",
          "name": "validatorStake",
          "type": "uint256"
        }
      ],
      "payable": false,
      "stateMutability": "view",
      "type": "function"
    },
    {
      "constant": true,
      "inputs": [],
      "name": "getAccountStateRoot",
      "outputs": [
        {
          "internalType": "bytes32",
          "name": "accountStateRoot",
          "type": "bytes32"
        }
      ],
      "payable": false,
      "stateMutability": "view",
      "type": "function"
    },
    {
      "constant": true,
      "inputs": [
        {
          "internalType": "uint256",
          "name": "validatorId",
          "type": "uint256"
        }
      ],
      "name": "getValidatorContractAddress",
      "outputs": [
        {
          "internalType": "address",
          "name": "ValidatorContract",
          "type": "address"
        }
      ],
      "payable": false,
      "stateMutability": "view",
      "type": "function"
    },
    {
      "constant": false,
      "inputs": [
        {
          "internalType": "uint256",
          "name": "validatorId",
          "type": "uint256"
        },
        {
          "internalType": "address",
          "name": "user",
          "type": "address"
        },
        {
          "internalType": "uint256",
          "name": "amount",
          "type": "uint256"
        },
        {
          "internalType": "uint256",
          "name": "tokens",
          "type": "uint256"
        }
      ],
      "name": "logShareMinted",
      "outputs": [],
      "payable": false,
      "stateMutability": "nonpayable",
      "type": "function"
    },
    {
      "constant": false,
      "inputs": [
        {
          "internalType": "uint256",
          "name": "validatorId",
          "type": "uint256"
        },
        {
          "internalType": "address",
          "name": "user",
          "type": "address"
        },
        {
          "internalType": "uint256",
          "name": "amount",
          "type": "uint256"
        },
        {
          "internalType": "uint256",
          "name": "tokens",
          "type": "uint256"
        }
      ],
      "name": "logShareBurned",
      "outputs": [],
      "payable": false,
      "stateMutability": "nonpayable",
      "type": "function"
    },
    {
      "constant": false,
      "inputs": [
        {
          "internalType": "uint256",
          "name": "validatorId",
          "type": "uint256"
        },
        {
          "internalType": "address",
          "name": "user",
          "type": "address"
        },
        {
          "internalType": "uint256",
          "name": "rewards",
          "type": "uint256"
        },
        {
          "internalType": "uint256",
          "name": "tokens",
          "type": "uint256"
        }
      ],
      "name": "logDelClaimRewards",
      "outputs": [],
      "payable": false,
      "stateMutability": "nonpayable",
      "type": "function"
    },
    {
      "constant": false,
      "inputs": [
        {
          "internalType": "uint256",
          "name": "validatorId",
          "type": "uint256"
        },
        {
          "internalType": "address",
          "name": "user",
          "type": "address"
        },
        {
          "internalType": "uint256",
          "name": "totalStaked",
          "type": "uint256"
        }
      ],
      "name": "logDelReStaked",
      "outputs": [],
      "payable": false,
      "stateMutability": "nonpayable",
      "type": "function"
    },
    {
      "constant": false,
      "inputs": [
        {
          "internalType": "uint256",
          "name": "validatorId",
          "type": "uint256"
        },
        {
          "internalType": "address",
          "name": "user",
          "type": "address"
        },
        {
          "internalType": "uint256",
          "name": "amount",
          "type": "uint256"
        }
      ],
      "name": "logDelUnstaked",
      "outputs": [],
      "payable": false,
      "stateMutability": "nonpayable",
      "type": "function"
    },
    {
      "constant": false,
      "inputs": [
        {
          "internalType": "uint256",
          "name": "validatorId",
          "type": "uint256"
        },
        {
          "internalType": "uint256",
          "name": "newCommissionRate",
          "type": "uint256"
        },
        {
          "internalType": "uint256",
          "name": "oldCommissionRate",
          "type": "uint256"
        }
      ],
      "name": "logUpdateCommissionRate",
      "outputs": [],
      "payable": false,
      "stateMutability": "nonpayable",
      "type": "function"
    }
  ],
  "bytecode": "0x608060405234801561001057600080fd5b506040516121cc3803806121cc8339818101604052602081101561003357600080fd5b5051600080546001600160a01b039092166001600160a01b0319909216919091179055612167806100656000396000f3fe608060405234801561001057600080fd5b506004361061018d5760003560e01c8063a0e300a6116100de578063c69d057311610097578063dfc007ae11610071578063dfc007ae14610692578063e12ab1af146106c4578063f1382b53146106ed578063f1980a50146107255761018d565b8063c69d057314610614578063c98cc0021461064c578063ca7d34b6146106755761018d565b8063a0e300a61461046f578063ae2e26b114610492578063af4cdabf146104ca578063b685b26a14610502578063b6fa74c41461052b578063b80fbce51461054e5761018d565b80632f7e08611161014b578063532e19a911610125578063532e19a9146103b95780635e04d483146103d657806378daaf691461040e5780637b103999146104675761018d565b80632f7e0861146102a657806333a8383c146102d85780634b6b87ce1461039f5761018d565b8062d2d380146101925780630934a6df146101c65780630974955a146101ef578063178d46aa146102125780631ace9d8b1461024b578063242c1b991461027d575b600080fd5b6101c4600480360360608110156101a857600080fd5b508035906001600160a01b036020820135169060400135610748565b005b6101c4600480360360608110156101dc57600080fd5b508035906020810135906040013561088a565b6101c46004803603604081101561020557600080fd5b5080359060200135610941565b61022f6004803603602081101561022857600080fd5b50356109f5565b604080516001600160a01b039092168252519081900360200190f35b6101c46004803603606081101561026157600080fd5b508035906001600160a01b036020820135169060400135610af0565b6101c46004803603606081101561029357600080fd5b5080359060208101359060400135610bb0565b6101c4600480360360608110156102bc57600080fd5b508035906001600160a01b036020820135169060400135610c72565b6101c4600480360360c08110156102ee57600080fd5b6001600160a01b03823516919081019060408101602082013564010000000081111561031957600080fd5b82018360208201111561032b57600080fd5b8035906020019184600183028401116401000000008311171561034d57600080fd5b91908080601f0160208091040260200160405190810160405280939291908181526020018383808284376000920191909152509295505082359350505060208101359060408101359060600135610d32565b6103a7610e72565b60408051918252519081900360200190f35b6101c4600480360360208110156103cf57600080fd5b5035610f60565b6101c4600480360360808110156103ec57600080fd5b506001600160a01b0381351690602081013590604081013590606001356110bd565b61042b6004803603602081101561042457600080fd5b5035611189565b6040805196875260208701959095528585019390935260608501919091526001600160a01b0316608084015260a0830152519081900360c00190f35b61022f611384565b6101c46004803603604081101561048557600080fd5b5080359060200135611393565b6101c4600480360360808110156104a857600080fd5b506001600160a01b038135169060208101359060408101359060600135611455565b6101c4600480360360808110156104e057600080fd5b508035906001600160a01b036020820135169060408101359060600135611528565b6101c46004803603606081101561051857600080fd5b5080359060208101359060400135611676565b6101c46004803603604081101561054157600080fd5b508035906020013561172d565b6101c46004803603608081101561056457600080fd5b8135916001600160a01b0360208201358116926040830135909116919081019060808101606082013564010000000081111561059f57600080fd5b8201836020820111156105b157600080fd5b803590602001918460018302840111640100000000831117156105d357600080fd5b91908080601f0160208091040260200160405190810160405280939291908181526020018383808284376000920191909152509295506117ef945050505050565b6101c46004803603608081101561062a57600080fd5b508035906001600160a01b036020820135169060408101359060600135611926565b6101c46004803603606081101561066257600080fd5b5080359060208101359060400135611a74565b6103a76004803603602081101561068b57600080fd5b5035611bad565b6101c4600480360360608110156106a857600080fd5b508035906001600160a01b036020820135169060400135611d21565b6101c4600480360360608110156106da57600080fd5b5080359060208101359060400135611e6b565b6101c46004803603608081101561070357600080fd5b508035906001600160a01b036020820135169060408101359060600135611f22565b6101c46004803603604081101561073b57600080fd5b5080359060200135612070565b6000805460408051630a1ef8f960e21b815290518693926001600160a01b03169163287be3e4916004808301926020929190829003018186803b15801561078e57600080fd5b505afa1580156107a2573d6000803e3d6000fd5b505050506040513d60208110156107b857600080fd5b505160408051630d6a8b9160e21b81526004810185905290516001600160a01b03909216916335aa2e449160248082019261010092909190829003018186803b15801561080457600080fd5b505afa158015610818573d6000803e3d6000fd5b505050506040513d61010081101561082f57600080fd5b5060c0015190506001600160a01b038116331461084b57600080fd5b82846001600160a01b0316867f6af042714f1fb2ecc9f4ea59df701c71414555a1f52c207a2d73fc33df3f0f8760405160405180910390a45050505050565b60005460408051630a1ef8f960e21b8152905133926001600160a01b03169163287be3e4916004808301926020929190829003018186803b1580156108ce57600080fd5b505afa1580156108e2573d6000803e3d6000fd5b505050506040513d60208110156108f857600080fd5b50516001600160a01b03161461090d57600080fd5b8082847f683d0f47c7fa11331f4e9563b3f5a7fdc3d3c5b75c600357a91d991f5a13a43760405160405180910390a4505050565b60005460408051630a1ef8f960e21b8152905133926001600160a01b03169163287be3e4916004808301926020929190829003018186803b15801561098557600080fd5b505afa158015610999573d6000803e3d6000fd5b505050506040513d60208110156109af57600080fd5b50516001600160a01b0316146109c457600080fd5b604051819083907fa1735a3843d9467dd849a217582720a8af66b9d034712e0b21b0f5ece80670cd90600090a35050565b60008060009054906101000a90046001600160a01b03166001600160a01b031663287be3e46040518163ffffffff1660e01b815260040160206040518083038186803b158015610a4457600080fd5b505afa158015610a58573d6000803e3d6000fd5b505050506040513d6020811015610a6e57600080fd5b505160408051630d6a8b9160e21b81526004810185905290516001600160a01b03909216916335aa2e449160248082019261010092909190829003018186803b158015610aba57600080fd5b505afa158015610ace573d6000803e3d6000fd5b505050506040513d610100811015610ae557600080fd5b5060c0015192915050565b60005460408051630a1ef8f960e21b8152905133926001600160a01b03169163287be3e4916004808301926020929190829003018186803b158015610b3457600080fd5b505afa158015610b48573d6000803e3d6000fd5b505050506040513d6020811015610b5e57600080fd5b50516001600160a01b031614610b7357600080fd5b80826001600160a01b0316847fc970ee1564cdc7a9beeae09b65b33aeb17b67d0e4a620e62e6b9b82a6430927d60405160405180910390a4505050565b60005460408051630a1ef8f960e21b8152905133926001600160a01b03169163287be3e4916004808301926020929190829003018186803b158015610bf457600080fd5b505afa158015610c08573d6000803e3d6000fd5b505050506040513d6020811015610c1e57600080fd5b50516001600160a01b031614610c3357600080fd5b6040805183815260208101839052815185927f9cc0e589f20d3310eb2ad571b23529003bd46048d0d1af29277dcf0aa3c398ce928290030190a2505050565b60005460408051630a1ef8f960e21b8152905133926001600160a01b03169163287be3e4916004808301926020929190829003018186803b158015610cb657600080fd5b505afa158015610cca573d6000803e3d6000fd5b505050506040513d6020811015610ce057600080fd5b50516001600160a01b031614610cf557600080fd5b80826001600160a01b0316847f4a83a8cc14c510291ef5a72ae016304a3132c29fad2238eaa29d5b959136f32f60405160405180910390a4505050565b60005460408051630a1ef8f960e21b8152905133926001600160a01b03169163287be3e4916004808301926020929190829003018186803b158015610d7657600080fd5b505afa158015610d8a573d6000803e3d6000fd5b505050506040513d6020811015610da057600080fd5b50516001600160a01b031614610db557600080fd5b8284876001600160a01b03167f070462f09e1fcdd39ee7dbe9165c6a369557b03057a6d820c84a600208b9b26d85858a6040518084815260200183815260200180602001828103825283818151815260200191508051906020019080838360005b83811015610e2e578181015183820152602001610e16565b50505050905090810190601f168015610e5b5780820380516001836020036101000a031916815260200191505b5094505050505060405180910390a4505050505050565b60008060009054906101000a90046001600160a01b03166001600160a01b031663287be3e46040518163ffffffff1660e01b815260040160206040518083038186803b158015610ec157600080fd5b505afa158015610ed5573d6000803e3d6000fd5b505050506040513d6020811015610eeb57600080fd5b50516040805163017c2b9160e41b815290516001600160a01b03909216916317c2b91091600480820192602092909190829003018186803b158015610f2f57600080fd5b505afa158015610f43573d6000803e3d6000fd5b505050506040513d6020811015610f5957600080fd5b5051919050565b806000806000809054906101000a90046001600160a01b03166001600160a01b031663287be3e46040518163ffffffff1660e01b815260040160206040518083038186803b158015610fb157600080fd5b505afa158015610fc5573d6000803e3d6000fd5b505050506040513d6020811015610fdb57600080fd5b505160408051630d6a8b9160e21b81526004810186905290519192506001600160a01b038316916335aa2e449160248082019261010092909190829003018186803b15801561102957600080fd5b505afa15801561103d573d6000803e3d6000fd5b505050506040513d61010081101561105457600080fd5b5060c0015191506001600160a01b03821633148061107a57506001600160a01b03811633145b61108357600080fd5b61108c84611bad565b60405185907f8a9fd81e4de0eb5b1f4055c5b30b562c02c95613ea0c5259c23033a90d1de4b490600090a350505050565b60005460408051630a1ef8f960e21b8152905133926001600160a01b03169163287be3e4916004808301926020929190829003018186803b15801561110157600080fd5b505afa158015611115573d6000803e3d6000fd5b505050506040513d602081101561112b57600080fd5b50516001600160a01b03161461114057600080fd5b8083856001600160a01b03167f51ff6d8ad000896362d1a3c9de9ad835adb6da92ec3ddee44018ef64f3c8b561856040518082815260200191505060405180910390a450505050565b60008060008060008060008060009054906101000a90046001600160a01b03166001600160a01b031663287be3e46040518163ffffffff1660e01b815260040160206040518083038186803b1580156111e157600080fd5b505afa1580156111f5573d6000803e3d6000fd5b505050506040513d602081101561120b57600080fd5b505160408051630d6a8b9160e21b8152600481018b9052905191925060009182916001600160a01b038516916335aa2e449160248082019261010092909190829003018186803b15801561125e57600080fd5b505afa158015611272573d6000803e3d6000fd5b505050506040513d61010081101561128957600080fd5b81019080805190602001909291908051906020019092919080519060200190929190805190602001909291908051906020019092919080519060200190929190805190602001909291908051906020019092919050505090919250809750819850829b50839c50849d50859e50869f5050505050505050816001600160a01b0316635d1e36166040518163ffffffff1660e01b815260040160206040518083038186803b15801561133957600080fd5b505afa15801561134d573d6000803e3d6000fd5b505050506040513d602081101561136357600080fd5b5051979097019680600381111561137657fe5b935050505091939550919395565b6000546001600160a01b031681565b60005460408051630a1ef8f960e21b8152905133926001600160a01b03169163287be3e4916004808301926020929190829003018186803b1580156113d757600080fd5b505afa1580156113eb573d6000803e3d6000fd5b505050506040513d602081101561140157600080fd5b50516001600160a01b03161461141657600080fd5b604080518381526020810183905281517f9444bfcfa6aed72a15da73de1220dcc07d7864119c44abfec0037bbcacefda98929181900390910190a15050565b60005460408051630a1ef8f960e21b8152905133926001600160a01b03169163287be3e4916004808301926020929190829003018186803b15801561149957600080fd5b505afa1580156114ad573d6000803e3d6000fd5b505050506040513d60208110156114c357600080fd5b50516001600160a01b0316146114d857600080fd5b82846001600160a01b03167f204fccf0d92ed8d48f204adb39b2e81e92bad0dedb93f5716ca9478cfb57de008484604051808381526020018281526020019250505060405180910390a350505050565b6000805460408051630a1ef8f960e21b815290518793926001600160a01b03169163287be3e4916004808301926020929190829003018186803b15801561156e57600080fd5b505afa158015611582573d6000803e3d6000fd5b505050506040513d602081101561159857600080fd5b505160408051630d6a8b9160e21b81526004810185905290516001600160a01b03909216916335aa2e449160248082019261010092909190829003018186803b1580156115e457600080fd5b505afa1580156115f8573d6000803e3d6000fd5b505050506040513d61010081101561160f57600080fd5b5060c0015190506001600160a01b038116331461162b57600080fd5b83856001600160a01b0316877f8df3db2462011d9f79ea35850218e22b9fc11eca880b4b674d6a2e36e52faf90866040518082815260200191505060405180910390a4505050505050565b60005460408051630a1ef8f960e21b8152905133926001600160a01b03169163287be3e4916004808301926020929190829003018186803b1580156116ba57600080fd5b505afa1580156116ce573d6000803e3d6000fd5b505050506040513d60208110156116e457600080fd5b50516001600160a01b0316146116f957600080fd5b8082847f41e5e4590cfcde2f03ee9281c54d03acad8adffb83f8310d66b894532470ba3560405160405180910390a4505050565b60005460408051630a1ef8f960e21b8152905133926001600160a01b03169163287be3e4916004808301926020929190829003018186803b15801561177157600080fd5b505afa158015611785573d6000803e3d6000fd5b505050506040513d602081101561179b57600080fd5b50516001600160a01b0316146117b057600080fd5b604080518381526020810183905281517ff67f33e8589d3ea0356303c0f9a8e764873692159f777ff79e4fc523d389dfcd929181900390910190a15050565b60005460408051630a1ef8f960e21b8152905133926001600160a01b03169163287be3e4916004808301926020929190829003018186803b15801561183357600080fd5b505afa158015611847573d6000803e3d6000fd5b505050506040513d602081101561185d57600080fd5b50516001600160a01b03161461187257600080fd5b816001600160a01b0316836001600160a01b0316857f5874441d8074b80a111ecc9f1ee791ffba81acd3e77d4f17cf2594df2658ace0846040518080602001828103825283818151815260200191508051906020019080838360005b838110156118e65781810151838201526020016118ce565b50505050905090810190601f1680156119135780820380516001836020036101000a031916815260200191505b509250505060405180910390a450505050565b6000805460408051630a1ef8f960e21b815290518793926001600160a01b03169163287be3e4916004808301926020929190829003018186803b15801561196c57600080fd5b505afa158015611980573d6000803e3d6000fd5b505050506040513d602081101561199657600080fd5b505160408051630d6a8b9160e21b81526004810185905290516001600160a01b03909216916335aa2e449160248082019261010092909190829003018186803b1580156119e257600080fd5b505afa1580156119f6573d6000803e3d6000fd5b505050506040513d610100811015611a0d57600080fd5b5060c0015190506001600160a01b0381163314611a2957600080fd5b83856001600160a01b0316877fc9afff0972d33d68c8d330fe0ebd0e9f54491ad8c59ae17330a9206f280f0865866040518082815260200191505060405180910390a4505050505050565b6000805460408051630a1ef8f960e21b815290518693926001600160a01b03169163287be3e4916004808301926020929190829003018186803b158015611aba57600080fd5b505afa158015611ace573d6000803e3d6000fd5b505050506040513d6020811015611ae457600080fd5b505160408051630d6a8b9160e21b81526004810185905290516001600160a01b03909216916335aa2e449160248082019261010092909190829003018186803b158015611b3057600080fd5b505afa158015611b44573d6000803e3d6000fd5b505050506040513d610100811015611b5b57600080fd5b5060c0015190506001600160a01b0381163314611b7757600080fd5b8284867f7d5da5ece9d43013d62ab966f4704ca376b92be29ca6fbb958154baf1c0dc17e60405160405180910390a45050505050565b6000805460408051630a1ef8f960e21b8152905183926001600160a01b03169163287be3e4916004808301926020929190829003018186803b158015611bf257600080fd5b505afa158015611c06573d6000803e3d6000fd5b505050506040513d6020811015611c1c57600080fd5b505160408051630d6a8b9160e21b81526004810186905290516001600160a01b03909216916335aa2e449160248082019261010092909190829003018186803b158015611c6857600080fd5b505afa158015611c7c573d6000803e3d6000fd5b505050506040513d610100811015611c9357600080fd5b50805160c09091015190925090506001600160a01b03811615611d1b57806001600160a01b0316633a09bf446040518163ffffffff1660e01b815260040160206040518083038186803b158015611ce957600080fd5b505afa158015611cfd573d6000803e3d6000fd5b505050506040513d6020811015611d1357600080fd5b505191909101905b50919050565b6000805460408051630a1ef8f960e21b815290518693926001600160a01b03169163287be3e4916004808301926020929190829003018186803b158015611d6757600080fd5b505afa158015611d7b573d6000803e3d6000fd5b505050506040513d6020811015611d9157600080fd5b505160408051630d6a8b9160e21b81526004810185905290516001600160a01b03909216916335aa2e449160248082019261010092909190829003018186803b158015611ddd57600080fd5b505afa158015611df1573d6000803e3d6000fd5b505050506040513d610100811015611e0857600080fd5b5060c0015190506001600160a01b0381163314611e2457600080fd5b6040805184815290516001600160a01b0386169187917f896207683bb844057e9f07d8ed9deb90f4440260772ab61ac8675f430a0e230a9181900360200190a35050505050565b60005460408051630a1ef8f960e21b8152905133926001600160a01b03169163287be3e4916004808301926020929190829003018186803b158015611eaf57600080fd5b505afa158015611ec3573d6000803e3d6000fd5b505050506040513d6020811015611ed957600080fd5b50516001600160a01b031614611eee57600080fd5b8082847f1002381ecf76700f6f0ab4c90b9f523e39df7b0482b71ec63cf62cf85412047060405160405180910390a4505050565b6000805460408051630a1ef8f960e21b815290518793926001600160a01b03169163287be3e4916004808301926020929190829003018186803b158015611f6857600080fd5b505afa158015611f7c573d6000803e3d6000fd5b505050506040513d6020811015611f9257600080fd5b505160408051630d6a8b9160e21b81526004810185905290516001600160a01b03909216916335aa2e449160248082019261010092909190829003018186803b158015611fde57600080fd5b505afa158015611ff2573d6000803e3d6000fd5b505050506040513d61010081101561200957600080fd5b5060c0015190506001600160a01b038116331461202557600080fd5b83856001600160a01b0316877f7e86625aa6e668407f095af342e0cc237809c4c5086b4d665a0067de122980a9866040518082815260200191505060405180910390a4505050505050565b60005460408051630a1ef8f960e21b8152905133926001600160a01b03169163287be3e4916004808301926020929190829003018186803b1580156120b457600080fd5b505afa1580156120c8573d6000803e3d6000fd5b505050506040513d60208110156120de57600080fd5b50516001600160a01b0316146120f357600080fd5b604080518381526020810183905281517f5d16a900896e1160c2033bc940e6b072d3dc3b6a996fefb9b3b9b9678841824c929181900390910190a1505056fea265627a7a72315820cdd2428365c4e9af90496b4dd441d83b9f5012b01788c5be0e5a2ea432c185bc64736f6c634300050b0032",
  "source": "pragma solidity ^0.5.2;\n\nimport {Registry} from \"../common/Registry.sol\";\n\n// dummy interface to avoid cyclic dependency\ncontract IStakeManager {\n    enum Status {Inactive, Active, Locked, Unstaked}\n\n    struct Validator {\n        uint256 amount;\n        uint256 reward;\n        uint256 activationEpoch;\n        uint256 deactivationEpoch;\n        uint256 jailTime;\n        address signer;\n        address contractAddress;\n        Status status;\n    }\n\n    mapping(uint256 => Validator) public validators;\n    bytes32 public accountStateRoot;\n    uint256 public activeAmount; // delegation amount from validator contract\n    uint256 public validatorRewards;\n}\n\ncontract StakingInfo {\n    event Staked(\n        address indexed signer,\n        uint256 indexed validatorId,\n        uint256 indexed activationEpoch,\n        uint256 amount,\n        uint256 total,\n        bytes signerPubkey\n    );\n    event Unstaked(\n        address indexed user,\n        uint256 indexed validatorId,\n        uint256 amount,\n        uint256 total\n    );\n    // event to ack unstaking which will start at deactivationEpoch\n    event UnstakeInit(\n        address indexed user,\n        uint256 indexed validatorId,\n        uint256 deactivationEpoch,\n        uint256 indexed amount\n    );\n\n    event SignerChange(\n        uint256 indexed validatorId,\n        address indexed oldSigner,\n        address indexed newSigner,\n        bytes signerPubkey\n    );\n    event ReStaked(uint256 indexed validatorId, uint256 amount, uint256 total);\n    event Jailed(uint256 indexed validatorId, uint256 indexed exitEpoch);\n    event ThresholdChange(uint256 newThreshold, uint256 oldThreshold);\n    event DynastyValueChange(uint256 newDynasty, uint256 oldDynasty);\n    event RewardUpdate(uint256 newReward, uint256 oldReward);\n    event StakeUpdate(uint256 indexed validatorId, uint256 indexed newAmount);\n    event ClaimRewards(\n        uint256 indexed validatorId,\n        uint256 indexed amount,\n        uint256 indexed totalAmount\n    );\n    event StartAuction(\n        uint256 indexed validatorId,\n        uint256 indexed amount,\n        uint256 indexed auctionAmount\n    );\n    event ConfirmAuction(\n        uint256 indexed newValidatorId,\n        uint256 indexed oldValidatorId,\n        uint256 indexed amount\n    );\n    event TopUpFee(\n        uint256 indexed validatorId,\n        address indexed signer,\n        uint256 indexed fee\n    );\n    event ClaimFee(\n        uint256 indexed validatorId,\n        address indexed signer,\n        uint256 indexed fee\n    );\n    // Delegator events\n    event ShareMinted(\n        uint256 indexed validatorId,\n        address indexed user,\n        uint256 indexed amount,\n        uint256 tokens\n    );\n    event ShareBurned(\n        uint256 indexed validatorId,\n        address indexed user,\n        uint256 indexed amount,\n        uint256 tokens\n    );\n    event DelClaimRewards(\n        uint256 indexed validatorId,\n        address indexed user,\n        uint256 indexed rewards,\n        uint256 tokens\n    );\n    event DelReStaked(\n        uint256 indexed validatorId,\n        address indexed user,\n        uint256 indexed totalStaked\n    );\n    event DelUnstaked(\n        uint256 indexed validatorId,\n        address indexed user,\n        uint256 amount\n    );\n    event UpdateCommissionRate(\n        uint256 indexed validatorId,\n        uint256 indexed newCommissionRate,\n        uint256 indexed oldCommissionRate\n    );\n\n    Registry public registry;\n\n    modifier onlyValidatorContract(uint256 validatorId) {\n        address _contract;\n        (, , , , , , _contract, ) = IStakeManager(\n            registry.getStakeManagerAddress()\n        )\n            .validators(validatorId);\n        require(_contract == msg.sender);\n        _;\n    }\n\n    modifier StakeManagerOrValidatorContract(uint256 validatorId) {\n        address _contract;\n        address _stakeManager = registry.getStakeManagerAddress();\n        (, , , , , , _contract, ) = IStakeManager(_stakeManager).validators(\n            validatorId\n        );\n        require(_contract == msg.sender || _stakeManager == msg.sender);\n        _;\n    }\n\n    modifier onlyStakeManager() {\n        require(registry.getStakeManagerAddress() == msg.sender);\n        _;\n    }\n\n    constructor(address _registry) public {\n        registry = Registry(_registry);\n    }\n\n    function logStaked(\n        address signer,\n        bytes memory signerPubkey,\n        uint256 validatorId,\n        uint256 activationEpoch,\n        uint256 amount,\n        uint256 total\n    ) public onlyStakeManager {\n        emit Staked(\n            signer,\n            validatorId,\n            activationEpoch,\n            amount,\n            total,\n            signerPubkey\n        );\n    }\n\n    function logUnstaked(\n        address user,\n        uint256 validatorId,\n        uint256 amount,\n        uint256 total\n    ) public onlyStakeManager {\n        emit Unstaked(user, validatorId, amount, total);\n    }\n\n    function logUnstakeInit(\n        address user,\n        uint256 validatorId,\n        uint256 deactivationEpoch,\n        uint256 amount\n    ) public onlyStakeManager {\n        emit UnstakeInit(user, validatorId, deactivationEpoch, amount);\n    }\n\n    function logSignerChange(\n        uint256 validatorId,\n        address oldSigner,\n        address newSigner,\n        bytes memory signerPubkey\n    ) public onlyStakeManager {\n        emit SignerChange(validatorId, oldSigner, newSigner, signerPubkey);\n    }\n\n    function logReStaked(uint256 validatorId, uint256 amount, uint256 total)\n        public\n        onlyStakeManager\n    {\n        emit ReStaked(validatorId, amount, total);\n    }\n\n    function logJailed(uint256 validatorId, uint256 exitEpoch)\n        public\n        onlyStakeManager\n    {\n        emit Jailed(validatorId, exitEpoch);\n    }\n\n    function logThresholdChange(uint256 newThreshold, uint256 oldThreshold)\n        public\n        onlyStakeManager\n    {\n        emit ThresholdChange(newThreshold, oldThreshold);\n    }\n\n    function logDynastyValueChange(uint256 newDynasty, uint256 oldDynasty)\n        public\n        onlyStakeManager\n    {\n        emit DynastyValueChange(newDynasty, oldDynasty);\n    }\n\n    function logRewardUpdate(uint256 newReward, uint256 oldReward)\n        public\n        onlyStakeManager\n    {\n        emit RewardUpdate(newReward, oldReward);\n    }\n\n    function logStakeUpdate(uint256 validatorId)\n        public\n        StakeManagerOrValidatorContract(validatorId)\n    {\n        emit StakeUpdate(validatorId, totalValidatorStake(validatorId));\n    }\n\n    function logClaimRewards(\n        uint256 validatorId,\n        uint256 amount,\n        uint256 totalAmount\n    ) public onlyStakeManager {\n        emit ClaimRewards(validatorId, amount, totalAmount);\n    }\n\n    function logStartAuction(\n        uint256 validatorId,\n        uint256 amount,\n        uint256 auctionAmount\n    ) public onlyStakeManager {\n        emit StartAuction(validatorId, amount, auctionAmount);\n    }\n\n    function logConfirmAuction(\n        uint256 newValidatorId,\n        uint256 oldValidatorId,\n        uint256 amount\n    ) public onlyStakeManager {\n        emit ConfirmAuction(newValidatorId, oldValidatorId, amount);\n    }\n\n    function logTopUpFee(uint256 validatorId, address signer, uint256 fee)\n        public\n        onlyStakeManager\n    {\n        emit TopUpFee(validatorId, signer, fee);\n    }\n\n    function logClaimFee(uint256 validatorId, address signer, uint256 fee)\n        public\n        onlyStakeManager\n    {\n        emit ClaimFee(validatorId, signer, fee);\n    }\n\n    function getStakerDetails(uint256 validatorId)\n        public\n        view\n        returns (\n            uint256 amount,\n            uint256 reward,\n            uint256 activationEpoch,\n            uint256 deactivationEpoch,\n            address signer,\n            uint256 _status\n        )\n    {\n        IStakeManager stakeManager = IStakeManager(\n            registry.getStakeManagerAddress()\n        );\n        address _contract;\n        IStakeManager.Status status;\n        (\n            amount,\n            reward,\n            activationEpoch,\n            deactivationEpoch,\n            ,\n            signer,\n            _contract,\n            status\n        ) = stakeManager.validators(validatorId);\n        reward += IStakeManager(_contract).validatorRewards();\n        _status = uint256(status);\n    }\n\n    function totalValidatorStake(uint256 validatorId)\n        public\n        view\n        returns (uint256 validatorStake)\n    {\n        address contractAddress;\n        (validatorStake, , , , , , contractAddress, ) = IStakeManager(\n            registry.getStakeManagerAddress()\n        )\n            .validators(validatorId);\n        if (contractAddress != address(0x0)) {\n            validatorStake += IStakeManager(contractAddress).activeAmount();\n        }\n    }\n\n    function getAccountStateRoot()\n        public\n        view\n        returns (bytes32 accountStateRoot)\n    {\n        accountStateRoot = IStakeManager(registry.getStakeManagerAddress())\n            .accountStateRoot();\n    }\n\n    function getValidatorContractAddress(uint256 validatorId)\n        public\n        view\n        returns (address ValidatorContract)\n    {\n        (, , , , , , ValidatorContract, ) = IStakeManager(\n            registry.getStakeManagerAddress()\n        )\n            .validators(validatorId);\n    }\n\n    // validator Share contract logging func\n    function logShareMinted(\n        uint256 validatorId,\n        address user,\n        uint256 amount,\n        uint256 tokens\n    ) public onlyValidatorContract(validatorId) {\n        emit ShareMinted(validatorId, user, amount, tokens);\n    }\n\n    function logShareBurned(\n        uint256 validatorId,\n        address user,\n        uint256 amount,\n        uint256 tokens\n    ) public onlyValidatorContract(validatorId) {\n        emit ShareBurned(validatorId, user, amount, tokens);\n    }\n\n    function logDelClaimRewards(\n        uint256 validatorId,\n        address user,\n        uint256 rewards,\n        uint256 tokens\n    ) public onlyValidatorContract(validatorId) {\n        emit DelClaimRewards(validatorId, user, rewards, tokens);\n    }\n\n    function logDelReStaked(\n        uint256 validatorId,\n        address user,\n        uint256 totalStaked\n    ) public onlyValidatorContract(validatorId) {\n        emit DelReStaked(validatorId, user, totalStaked);\n    }\n\n    function logDelUnstaked(uint256 validatorId, address user, uint256 amount)\n        public\n        onlyValidatorContract(validatorId)\n    {\n        emit DelUnstaked(validatorId, user, amount);\n    }\n\n    function logUpdateCommissionRate(\n        uint256 validatorId,\n        uint256 newCommissionRate,\n        uint256 oldCommissionRate\n    ) public onlyValidatorContract(validatorId) {\n        emit UpdateCommissionRate(\n            validatorId,\n            newCommissionRate,\n            oldCommissionRate\n        );\n    }\n\n}\n",
  "sourcePath": "/Users/arth/Documents/Projects/contracts/contracts/staking/StakingInfo.sol",
  "compiler": {
    "name": "solc",
    "version": "0.5.11+commit.c082d0b4.Emscripten.clang"
  },
  "schemaVersion": "3.0.14",
  "updatedAt": "2020-04-11T06:23:12.774Z",
  "devdoc": {
    "methods": {}
  },
  "userdoc": {
    "methods": {}
  }
}