{
  "contractName": "StakeManager",
  "abi": [
    {
      "constant": true,
      "inputs": [],
      "name": "auctionPeriod",
      "outputs": [
        {
          "internalType": "uint256",
          "name": "",
          "type": "uint256"
        }
      ],
      "payable": false,
      "stateMutability": "view",
      "type": "function"
    },
    {
      "constant": true,
      "inputs": [],
      "name": "totalRewards",
      "outputs": [
        {
          "internalType": "uint256",
          "name": "",
          "type": "uint256"
        }
      ],
      "payable": false,
      "stateMutability": "view",
      "type": "function"
    },
    {
      "constant": true,
      "inputs": [],
      "name": "WITHDRAWAL_DELAY",
      "outputs": [
        {
          "internalType": "uint256",
          "name": "",
          "type": "uint256"
        }
      ],
      "payable": false,
      "stateMutability": "view",
      "type": "function"
    },
    {
      "constant": true,
      "inputs": [],
      "name": "accountStateRoot",
      "outputs": [
        {
          "internalType": "bytes32",
          "name": "",
          "type": "bytes32"
        }
      ],
      "payable": false,
      "stateMutability": "view",
      "type": "function"
    },
    {
      "constant": true,
      "inputs": [],
      "name": "checkPointBlockInterval",
      "outputs": [
        {
          "internalType": "uint256",
          "name": "",
          "type": "uint256"
        }
      ],
      "payable": false,
      "stateMutability": "view",
      "type": "function"
    },
    {
      "constant": true,
      "inputs": [],
      "name": "NFTContract",
      "outputs": [
        {
          "internalType": "contract StakingNFT",
          "name": "",
          "type": "address"
        }
      ],
      "payable": false,
      "stateMutability": "view",
      "type": "function"
    },
    {
      "constant": true,
      "inputs": [
        {
          "internalType": "uint256",
          "name": "",
          "type": "uint256"
        }
      ],
      "name": "validators",
      "outputs": [
        {
          "internalType": "uint256",
          "name": "amount",
          "type": "uint256"
        },
        {
          "internalType": "uint256",
          "name": "reward",
          "type": "uint256"
        },
        {
          "internalType": "uint256",
          "name": "activationEpoch",
          "type": "uint256"
        },
        {
          "internalType": "uint256",
          "name": "deactivationEpoch",
          "type": "uint256"
        },
        {
          "internalType": "uint256",
          "name": "jailTime",
          "type": "uint256"
        },
        {
          "internalType": "address",
          "name": "signer",
          "type": "address"
        },
        {
          "internalType": "address",
          "name": "contractAddress",
          "type": "address"
        },
        {
          "internalType": "enum StakeManagerStorage.Status",
          "name": "status",
          "type": "uint8"
        }
      ],
      "payable": false,
      "stateMutability": "view",
      "type": "function"
    },
    {
      "constant": true,
      "inputs": [
        {
          "internalType": "address",
          "name": "",
          "type": "address"
        }
      ],
      "name": "signerToValidator",
      "outputs": [
        {
          "internalType": "uint256",
          "name": "",
          "type": "uint256"
        }
      ],
      "payable": false,
      "stateMutability": "view",
      "type": "function"
    },
    {
      "constant": true,
      "inputs": [],
      "name": "minDeposit",
      "outputs": [
        {
          "internalType": "uint256",
          "name": "",
          "type": "uint256"
        }
      ],
      "payable": false,
      "stateMutability": "view",
      "type": "function"
    },
    {
      "constant": true,
      "inputs": [],
      "name": "validatorThreshold",
      "outputs": [
        {
          "internalType": "uint256",
          "name": "",
          "type": "uint256"
        }
      ],
      "payable": false,
      "stateMutability": "view",
      "type": "function"
    },
    {
      "constant": true,
      "inputs": [
        {
          "internalType": "uint256",
          "name": "",
          "type": "uint256"
        }
      ],
      "name": "validatorAuction",
      "outputs": [
        {
          "internalType": "uint256",
          "name": "amount",
          "type": "uint256"
        },
        {
          "internalType": "uint256",
          "name": "startEpoch",
          "type": "uint256"
        },
        {
          "internalType": "address",
          "name": "user",
          "type": "address"
        }
      ],
      "payable": false,
      "stateMutability": "view",
      "type": "function"
    },
    {
      "constant": true,
      "inputs": [],
      "name": "NFTCounter",
      "outputs": [
        {
          "internalType": "uint256",
          "name": "",
          "type": "uint256"
        }
      ],
      "payable": false,
      "stateMutability": "view",
      "type": "function"
    },
    {
      "constant": true,
      "inputs": [],
      "name": "governance",
      "outputs": [
        {
          "internalType": "contract IGovernance",
          "name": "",
          "type": "address"
        }
      ],
      "payable": false,
      "stateMutability": "view",
      "type": "function"
    },
    {
      "constant": true,
      "inputs": [
        {
          "internalType": "uint256",
          "name": "",
          "type": "uint256"
        }
      ],
      "name": "validatorState",
      "outputs": [
        {
          "internalType": "int256",
          "name": "amount",
          "type": "int256"
        },
        {
          "internalType": "int256",
          "name": "stakerCount",
          "type": "int256"
        }
      ],
      "payable": false,
      "stateMutability": "view",
      "type": "function"
    },
    {
      "constant": true,
      "inputs": [],
      "name": "dynasty",
      "outputs": [
        {
          "internalType": "uint256",
          "name": "",
          "type": "uint256"
        }
      ],
      "payable": false,
      "stateMutability": "view",
      "type": "function"
    },
    {
      "constant": false,
      "inputs": [],
      "name": "renounceOwnership",
      "outputs": [],
      "payable": false,
      "stateMutability": "nonpayable",
      "type": "function"
    },
    {
      "constant": true,
      "inputs": [],
      "name": "currentEpoch",
      "outputs": [
        {
          "internalType": "uint256",
          "name": "",
          "type": "uint256"
        }
      ],
      "payable": false,
      "stateMutability": "view",
      "type": "function"
    },
    {
      "constant": true,
      "inputs": [],
      "name": "registry",
      "outputs": [
        {
          "internalType": "address",
          "name": "",
          "type": "address"
        }
      ],
      "payable": false,
      "stateMutability": "view",
      "type": "function"
    },
    {
      "constant": true,
      "inputs": [],
      "name": "CHECKPOINT_REWARD",
      "outputs": [
        {
          "internalType": "uint256",
          "name": "",
          "type": "uint256"
        }
      ],
      "payable": false,
      "stateMutability": "view",
      "type": "function"
    },
    {
      "constant": true,
      "inputs": [],
      "name": "totalStaked",
      "outputs": [
        {
          "internalType": "uint256",
          "name": "",
          "type": "uint256"
        }
      ],
      "payable": false,
      "stateMutability": "view",
      "type": "function"
    },
    {
      "constant": true,
      "inputs": [],
      "name": "owner",
      "outputs": [
        {
          "internalType": "address",
          "name": "",
          "type": "address"
        }
      ],
      "payable": false,
      "stateMutability": "view",
      "type": "function"
    },
    {
      "constant": true,
      "inputs": [],
      "name": "isOwner",
      "outputs": [
        {
          "internalType": "bool",
          "name": "",
          "type": "bool"
        }
      ],
      "payable": false,
      "stateMutability": "view",
      "type": "function"
    },
    {
      "constant": true,
      "inputs": [
        {
          "internalType": "uint256",
          "name": "",
          "type": "uint256"
        }
      ],
      "name": "validatorFeeExit",
      "outputs": [
        {
          "internalType": "uint256",
          "name": "",
          "type": "uint256"
        }
      ],
      "payable": false,
      "stateMutability": "view",
      "type": "function"
    },
    {
      "constant": true,
      "inputs": [],
      "name": "rootChain",
      "outputs": [
        {
          "internalType": "address",
          "name": "",
          "type": "address"
        }
      ],
      "payable": false,
      "stateMutability": "view",
      "type": "function"
    },
    {
      "constant": true,
      "inputs": [],
      "name": "totalHeimdallFee",
      "outputs": [
        {
          "internalType": "uint256",
          "name": "",
          "type": "uint256"
        }
      ],
      "payable": false,
      "stateMutability": "view",
      "type": "function"
    },
    {
      "constant": false,
      "inputs": [],
      "name": "unlock",
      "outputs": [],
      "payable": false,
      "stateMutability": "nonpayable",
      "type": "function"
    },
    {
      "constant": true,
      "inputs": [],
      "name": "factory",
      "outputs": [
        {
          "internalType": "contract ValidatorShareFactory",
          "name": "",
          "type": "address"
        }
      ],
      "payable": false,
      "stateMutability": "view",
      "type": "function"
    },
    {
      "constant": true,
      "inputs": [],
      "name": "totalRewardsLiquidated",
      "outputs": [
        {
          "internalType": "uint256",
          "name": "",
          "type": "uint256"
        }
      ],
      "payable": false,
      "stateMutability": "view",
      "type": "function"
    },
    {
      "constant": true,
      "inputs": [],
      "name": "locked",
      "outputs": [
        {
          "internalType": "bool",
          "name": "",
          "type": "bool"
        }
      ],
      "payable": false,
      "stateMutability": "view",
      "type": "function"
    },
    {
      "constant": false,
      "inputs": [
        {
          "internalType": "address",
          "name": "newRootChain",
          "type": "address"
        }
      ],
      "name": "changeRootChain",
      "outputs": [],
      "payable": false,
      "stateMutability": "nonpayable",
      "type": "function"
    },
    {
      "constant": true,
      "inputs": [],
      "name": "logger",
      "outputs": [
        {
          "internalType": "contract StakingInfo",
          "name": "",
          "type": "address"
        }
      ],
      "payable": false,
      "stateMutability": "view",
      "type": "function"
    },
    {
      "constant": false,
      "inputs": [
        {
          "internalType": "address",
          "name": "newOwner",
          "type": "address"
        }
      ],
      "name": "transferOwnership",
      "outputs": [],
      "payable": false,
      "stateMutability": "nonpayable",
      "type": "function"
    },
    {
      "constant": false,
      "inputs": [],
      "name": "lock",
      "outputs": [],
      "payable": false,
      "stateMutability": "nonpayable",
      "type": "function"
    },
    {
      "constant": true,
      "inputs": [],
      "name": "minHeimdallFee",
      "outputs": [
        {
          "internalType": "uint256",
          "name": "",
          "type": "uint256"
        }
      ],
      "payable": false,
      "stateMutability": "view",
      "type": "function"
    },
    {
      "constant": true,
      "inputs": [],
      "name": "token",
      "outputs": [
        {
          "internalType": "contract IERC20",
          "name": "",
          "type": "address"
        }
      ],
      "payable": false,
      "stateMutability": "view",
      "type": "function"
    },
    {
      "inputs": [],
      "payable": false,
      "stateMutability": "nonpayable",
      "type": "constructor"
    },
    {
      "anonymous": false,
      "inputs": [
        {
          "indexed": true,
          "internalType": "address",
          "name": "previousRootChain",
          "type": "address"
        },
        {
          "indexed": true,
          "internalType": "address",
          "name": "newRootChain",
          "type": "address"
        }
      ],
      "name": "RootChainChanged",
      "type": "event"
    },
    {
      "anonymous": false,
      "inputs": [
        {
          "indexed": true,
          "internalType": "address",
          "name": "previousOwner",
          "type": "address"
        },
        {
          "indexed": true,
          "internalType": "address",
          "name": "newOwner",
          "type": "address"
        }
      ],
      "name": "OwnershipTransferred",
      "type": "event"
    },
    {
      "constant": false,
      "inputs": [
        {
          "internalType": "uint256",
          "name": "validatorId",
          "type": "uint256"
        },
        {
          "internalType": "uint256",
          "name": "heimdallFee",
          "type": "uint256"
        }
      ],
      "name": "topUpForFee",
      "outputs": [],
      "payable": false,
      "stateMutability": "nonpayable",
      "type": "function"
    },
    {
      "constant": true,
      "inputs": [
        {
          "internalType": "uint256",
          "name": "tokenId",
          "type": "uint256"
        }
      ],
      "name": "ownerOf",
      "outputs": [
        {
          "internalType": "address",
          "name": "",
          "type": "address"
        }
      ],
      "payable": false,
      "stateMutability": "view",
      "type": "function"
    },
    {
      "constant": false,
      "inputs": [
        {
          "internalType": "uint256",
          "name": "validatorId",
          "type": "uint256"
        },
        {
          "internalType": "uint256",
          "name": "accumSlashedAmount",
          "type": "uint256"
        },
        {
          "internalType": "uint256",
          "name": "accumFeeAmount",
          "type": "uint256"
        },
        {
          "internalType": "uint256",
          "name": "index",
          "type": "uint256"
        },
        {
          "internalType": "bytes",
          "name": "proof",
          "type": "bytes"
        }
      ],
      "name": "claimFee",
      "outputs": [],
      "payable": false,
      "stateMutability": "nonpayable",
      "type": "function"
    },
    {
      "constant": false,
      "inputs": [
        {
          "internalType": "uint256",
          "name": "amount",
          "type": "uint256"
        },
        {
          "internalType": "uint256",
          "name": "heimdallFee",
          "type": "uint256"
        },
        {
          "internalType": "bool",
          "name": "acceptDelegation",
          "type": "bool"
        },
        {
          "internalType": "bytes",
          "name": "signerPubkey",
          "type": "bytes"
        }
      ],
      "name": "stake",
      "outputs": [],
      "payable": false,
      "stateMutability": "nonpayable",
      "type": "function"
    },
    {
      "constant": true,
      "inputs": [
        {
          "internalType": "address",
          "name": "user",
          "type": "address"
        }
      ],
      "name": "totalStakedFor",
      "outputs": [
        {
          "internalType": "uint256",
          "name": "",
          "type": "uint256"
        }
      ],
      "payable": false,
      "stateMutability": "view",
      "type": "function"
    },
    {
      "constant": true,
      "inputs": [],
      "name": "supportsHistory",
      "outputs": [
        {
          "internalType": "bool",
          "name": "",
          "type": "bool"
        }
      ],
      "payable": false,
      "stateMutability": "pure",
      "type": "function"
    },
    {
      "constant": false,
      "inputs": [
        {
          "internalType": "uint256",
          "name": "validatorId",
          "type": "uint256"
        },
        {
          "internalType": "uint256",
          "name": "amount",
          "type": "uint256"
        }
      ],
      "name": "startAuction",
      "outputs": [],
      "payable": false,
      "stateMutability": "nonpayable",
      "type": "function"
    },
    {
      "constant": false,
      "inputs": [
        {
          "internalType": "uint256",
          "name": "validatorId",
          "type": "uint256"
        },
        {
          "internalType": "uint256",
          "name": "heimdallFee",
          "type": "uint256"
        },
        {
          "internalType": "bool",
          "name": "acceptDelegation",
          "type": "bool"
        },
        {
          "internalType": "bytes",
          "name": "signerPubkey",
          "type": "bytes"
        }
      ],
      "name": "confirmAuctionBid",
      "outputs": [],
      "payable": false,
      "stateMutability": "nonpayable",
      "type": "function"
    },
    {
      "constant": false,
      "inputs": [
        {
          "internalType": "uint256",
          "name": "validatorId",
          "type": "uint256"
        }
      ],
      "name": "unstake",
      "outputs": [],
      "payable": false,
      "stateMutability": "nonpayable",
      "type": "function"
    },
    {
      "constant": false,
      "inputs": [
        {
          "internalType": "uint256",
          "name": "validatorId",
          "type": "uint256"
        }
      ],
      "name": "forceUnstake",
      "outputs": [],
      "payable": false,
      "stateMutability": "nonpayable",
      "type": "function"
    },
    {
      "constant": false,
      "inputs": [
        {
          "internalType": "address",
          "name": "_registry",
          "type": "address"
        },
        {
          "internalType": "address",
          "name": "_rootchain",
          "type": "address"
        },
        {
          "internalType": "address",
          "name": "_NFTContract",
          "type": "address"
        },
        {
          "internalType": "address",
          "name": "_stakingLogger",
          "type": "address"
        },
        {
          "internalType": "address",
          "name": "_ValidatorShareFactory",
          "type": "address"
        }
      ],
      "name": "updateConstructor",
      "outputs": [],
      "payable": false,
      "stateMutability": "nonpayable",
      "type": "function"
    },
    {
      "constant": false,
      "inputs": [
        {
          "internalType": "uint256",
          "name": "validatorId",
          "type": "uint256"
        },
        {
          "internalType": "uint256",
          "name": "amount",
          "type": "uint256"
        },
        {
          "internalType": "address",
          "name": "delegator",
          "type": "address"
        }
      ],
      "name": "delegationTransfer",
      "outputs": [
        {
          "internalType": "bool",
          "name": "",
          "type": "bool"
        }
      ],
      "payable": false,
      "stateMutability": "nonpayable",
      "type": "function"
    },
    {
      "constant": false,
      "inputs": [
        {
          "internalType": "uint256",
          "name": "validatorId",
          "type": "uint256"
        },
        {
          "internalType": "uint256",
          "name": "amount",
          "type": "uint256"
        },
        {
          "internalType": "address",
          "name": "delegator",
          "type": "address"
        }
      ],
      "name": "delegationDeposit",
      "outputs": [
        {
          "internalType": "bool",
          "name": "",
          "type": "bool"
        }
      ],
      "payable": false,
      "stateMutability": "nonpayable",
      "type": "function"
    },
    {
      "constant": false,
      "inputs": [
        {
          "internalType": "address",
          "name": "user",
          "type": "address"
        },
        {
          "internalType": "uint256",
          "name": "amount",
          "type": "uint256"
        },
        {
          "internalType": "uint256",
          "name": "heimdallFee",
          "type": "uint256"
        },
        {
          "internalType": "bool",
          "name": "acceptDelegation",
          "type": "bool"
        },
        {
          "internalType": "bytes",
          "name": "signerPubkey",
          "type": "bytes"
        }
      ],
      "name": "stakeFor",
      "outputs": [],
      "payable": false,
      "stateMutability": "nonpayable",
      "type": "function"
    },
    {
      "constant": true,
      "inputs": [
        {
          "internalType": "uint256",
          "name": "validatorId",
          "type": "uint256"
        }
      ],
      "name": "perceivedStakeFactor",
      "outputs": [
        {
          "internalType": "uint256",
          "name": "",
          "type": "uint256"
        }
      ],
      "payable": false,
      "stateMutability": "view",
      "type": "function"
    },
    {
      "constant": false,
      "inputs": [
        {
          "internalType": "uint256",
          "name": "validatorId",
          "type": "uint256"
        }
      ],
      "name": "unstakeClaim",
      "outputs": [],
      "payable": false,
      "stateMutability": "nonpayable",
      "type": "function"
    },
    {
      "constant": false,
      "inputs": [
        {
          "internalType": "uint256",
          "name": "validatorId",
          "type": "uint256"
        },
        {
          "internalType": "uint256",
          "name": "amount",
          "type": "uint256"
        },
        {
          "internalType": "bool",
          "name": "stakeRewards",
          "type": "bool"
        }
      ],
      "name": "restake",
      "outputs": [],
      "payable": false,
      "stateMutability": "nonpayable",
      "type": "function"
    },
    {
      "constant": false,
      "inputs": [
        {
          "internalType": "uint256",
          "name": "validatorId",
          "type": "uint256"
        }
      ],
      "name": "withdrawRewards",
      "outputs": [],
      "payable": false,
      "stateMutability": "nonpayable",
      "type": "function"
    },
    {
      "constant": false,
      "inputs": [
        {
          "internalType": "uint256",
          "name": "validatorId",
          "type": "uint256"
        },
        {
          "internalType": "uint256",
          "name": "slashingRate",
          "type": "uint256"
        },
        {
          "internalType": "uint256",
          "name": "jailCheckpoints",
          "type": "uint256"
        }
      ],
      "name": "slash",
      "outputs": [],
      "payable": false,
      "stateMutability": "nonpayable",
      "type": "function"
    },
    {
      "constant": false,
      "inputs": [
        {
          "internalType": "uint256",
          "name": "validatorId",
          "type": "uint256"
        }
      ],
      "name": "unJail",
      "outputs": [],
      "payable": false,
      "stateMutability": "nonpayable",
      "type": "function"
    },
    {
      "constant": false,
      "inputs": [
        {
          "internalType": "uint256",
          "name": "validatorId",
          "type": "uint256"
        },
        {
          "internalType": "uint256",
          "name": "jailCheckpoints",
          "type": "uint256"
        }
      ],
      "name": "jail",
      "outputs": [],
      "payable": false,
      "stateMutability": "nonpayable",
      "type": "function"
    },
    {
      "constant": true,
      "inputs": [],
      "name": "getCurrentValidatorSet",
      "outputs": [
        {
          "internalType": "uint256[]",
          "name": "",
          "type": "uint256[]"
        }
      ],
      "payable": false,
      "stateMutability": "view",
      "type": "function"
    },
    {
      "constant": true,
      "inputs": [
        {
          "internalType": "address",
          "name": "user",
          "type": "address"
        }
      ],
      "name": "getValidatorId",
      "outputs": [
        {
          "internalType": "uint256",
          "name": "",
          "type": "uint256"
        }
      ],
      "payable": false,
      "stateMutability": "view",
      "type": "function"
    },
    {
      "constant": false,
      "inputs": [
        {
          "internalType": "address",
          "name": "_token",
          "type": "address"
        }
      ],
      "name": "setToken",
      "outputs": [],
      "payable": false,
      "stateMutability": "nonpayable",
      "type": "function"
    },
    {
      "constant": false,
      "inputs": [
        {
          "internalType": "uint256",
          "name": "newThreshold",
          "type": "uint256"
        }
      ],
      "name": "updateValidatorThreshold",
      "outputs": [],
      "payable": false,
      "stateMutability": "nonpayable",
      "type": "function"
    },
    {
      "constant": false,
      "inputs": [
        {
          "internalType": "uint256",
          "name": "_blocks",
          "type": "uint256"
        }
      ],
      "name": "updateCheckPointBlockInterval",
      "outputs": [],
      "payable": false,
      "stateMutability": "nonpayable",
      "type": "function"
    },
    {
      "constant": false,
      "inputs": [
        {
          "internalType": "uint256",
          "name": "newReward",
          "type": "uint256"
        }
      ],
      "name": "updateCheckpointReward",
      "outputs": [],
      "payable": false,
      "stateMutability": "nonpayable",
      "type": "function"
    },
    {
      "constant": false,
      "inputs": [
        {
          "internalType": "uint256",
          "name": "validatorId",
          "type": "uint256"
        },
        {
          "internalType": "int256",
          "name": "amount",
          "type": "int256"
        }
      ],
      "name": "updateValidatorState",
      "outputs": [],
      "payable": false,
      "stateMutability": "nonpayable",
      "type": "function"
    },
    {
      "constant": false,
      "inputs": [
        {
          "internalType": "uint256",
          "name": "newDynasty",
          "type": "uint256"
        }
      ],
      "name": "updateDynastyValue",
      "outputs": [],
      "payable": false,
      "stateMutability": "nonpayable",
      "type": "function"
    },
    {
      "constant": false,
      "inputs": [
        {
          "internalType": "uint256",
          "name": "_minDeposit",
          "type": "uint256"
        },
        {
          "internalType": "uint256",
          "name": "_minHeimdallFee",
          "type": "uint256"
        }
      ],
      "name": "updateMinAmounts",
      "outputs": [],
      "payable": false,
      "stateMutability": "nonpayable",
      "type": "function"
    },
    {
      "constant": false,
      "inputs": [
        {
          "internalType": "uint256",
          "name": "validatorId",
          "type": "uint256"
        },
        {
          "internalType": "bytes",
          "name": "signerPubkey",
          "type": "bytes"
        }
      ],
      "name": "updateSigner",
      "outputs": [],
      "payable": false,
      "stateMutability": "nonpayable",
      "type": "function"
    },
    {
      "constant": true,
      "inputs": [],
      "name": "currentValidatorSetSize",
      "outputs": [
        {
          "internalType": "uint256",
          "name": "",
          "type": "uint256"
        }
      ],
      "payable": false,
      "stateMutability": "view",
      "type": "function"
    },
    {
      "constant": true,
      "inputs": [],
      "name": "currentValidatorSetTotalStake",
      "outputs": [
        {
          "internalType": "uint256",
          "name": "",
          "type": "uint256"
        }
      ],
      "payable": false,
      "stateMutability": "view",
      "type": "function"
    },
    {
      "constant": true,
      "inputs": [
        {
          "internalType": "uint256",
          "name": "validatorId",
          "type": "uint256"
        }
      ],
      "name": "getValidatorContract",
      "outputs": [
        {
          "internalType": "address",
          "name": "",
          "type": "address"
        }
      ],
      "payable": false,
      "stateMutability": "view",
      "type": "function"
    },
    {
      "constant": true,
      "inputs": [
        {
          "internalType": "uint256",
          "name": "validatorId",
          "type": "uint256"
        }
      ],
      "name": "isValidator",
      "outputs": [
        {
          "internalType": "bool",
          "name": "",
          "type": "bool"
        }
      ],
      "payable": false,
      "stateMutability": "view",
      "type": "function"
    },
    {
      "constant": false,
      "inputs": [
        {
          "internalType": "uint256",
          "name": "blockInterval",
          "type": "uint256"
        },
        {
          "internalType": "bytes32",
          "name": "voteHash",
          "type": "bytes32"
        },
        {
          "internalType": "bytes32",
          "name": "stateRoot",
          "type": "bytes32"
        },
        {
          "internalType": "bytes",
          "name": "sigs",
          "type": "bytes"
        }
      ],
      "name": "checkSignatures",
      "outputs": [
        {
          "internalType": "uint256",
          "name": "",
          "type": "uint256"
        }
      ],
      "payable": false,
      "stateMutability": "nonpayable",
      "type": "function"
    },
    {
      "constant": false,
      "inputs": [
        {
          "internalType": "bytes",
          "name": "checkpointTx",
          "type": "bytes"
        }
      ],
      "name": "challangeStateRootUpdate",
      "outputs": [],
      "payable": false,
      "stateMutability": "nonpayable",
      "type": "function"
    },
    {
      "constant": true,
      "inputs": [
        {
          "internalType": "bytes",
          "name": "pub",
          "type": "bytes"
        }
      ],
      "name": "pubToAddress",
      "outputs": [
        {
          "internalType": "address",
          "name": "",
          "type": "address"
        }
      ],
      "payable": false,
      "stateMutability": "pure",
      "type": "function"
    }
  ],
  "bytecode": "0x60806040526120006009556001600a55612000600b5569021e19e0c9bab2400000600c55670de0b6b3a7640000600d55670de0b6b3a7640000600e5560ff600f55600a60105560016012556004600b548161005657fe5b0460155534801561006657600080fd5b50600080546001600160a01b031916331780825560405182916001600160a01b03169082907f8be0079c531659141344cd1fd0a4f28419497f9722a3daafe3b4186f6b6457e0908290a3600280546001600160a01b0319166001600160a01b039290921691909117905550614c0180620000e16000396000f3fe608060405234801561001057600080fd5b50600436106104335760003560e01c8063715018a611610236578063ac5862921161013b578063d2203766116100c3578063f2fde38b11610087578063f2fde38b14610f4f578063f41a964214610f75578063f83d08ba14611020578063fba58f3414611028578063fc0c546a1461103057610433565b8063d220376614610ec4578063d86d53e714610ee7578063e6692f4914610f04578063e8afa8e814610f21578063f24ccbfe14610f4757610433565b8063c8b194a21161010a578063c8b194a214610d70578063cbf383d514610df3578063cd6b838814610e10578063cf30901214610e18578063d011027414610e2057610433565b8063ac58629214610c66578063b1d23f0214610c89578063c344e76614610cac578063c45a015514610d6857610433565b806390a42f16116101be5780639a8a62431161018d5780639a8a624314610c0e5780639ff1150014610c16578063a440ab1e14610c39578063a476907114610c56578063a69df4b514610c5e57610433565b806390a42f1614610baf5780639146014914610bcc5780639342c8f414610be9578063987ab9db14610c0657610433565b80637f5da718116102055780637f5da71814610aeb5780637f952d9514610b8f578063817b1cd214610b975780638da5cb5b14610b9f5780638f32d59b14610ba757610433565b8063715018a614610acb5780637667180814610ad35780637b10399914610adb5780637d66975214610ae357610433565b80633d02455b1161033c57806356342d8c116102c45780636352211e116102935780636352211e14610a435780636901b25314610a605780636cbb605014610a925780637033e4a614610abb5780637060054d14610ac357610433565b806356342d8c146109315780635aa6e6751461094e5780635aac52f5146109565780635c24885514610a0d57610433565b80634fd101d71161030b5780634fd101d7146107f35780634fdd20f1146107fb5780634fee13fc146108c25780635325e144146108e55780635508d8e11461092957610433565b80633d02455b1461077657806341b3d185146107935780634777fb421461079b5780634b341aed146107cd57610433565b806317c2b910116103bf5780632e17de781161038e5780632e17de781461065c57806331c2273b14610679578063357e6ff81461069d57806335aa2e44146106ba5780633862da0b1461075057610433565b806317c2b910146105f057806325316411146105f85780632649263a1461060057806328cc4e411461063157610433565b80630ebb172a116104065780630ebb172a14610537578063118bdec91461053f578063144fa6d71461058757806316827b1b146105ad578063174e6832146105ca57610433565b80630209fdd014610438578063028c4c67146104905780630cccfc58146105155780630e15561a1461052f575b600080fd5b610440611038565b60408051602080825283518183015283519192839290830191858101910280838360005b8381101561047c578181015183820152602001610464565b505050509050019250505060405180910390f35b610513600480360360808110156104a657600080fd5b813591602081013591604082013515159190810190608081016060820135600160201b8111156104d557600080fd5b8201836020820111156104e757600080fd5b803590602001918460018302840111600160201b8311171561050857600080fd5b5090925090506111ae565b005b61051d6111f8565b60408051918252519081900360200190f35b61051d6111fe565b61051d611204565b610513600480360360a081101561055557600080fd5b506001600160a01b0381358116916020810135821691604082013581169160608101358216916080909101351661120a565b6105136004803603602081101561059d57600080fd5b50356001600160a01b031661127a565b610513600480360360208110156105c357600080fd5b50356112c0565b61051d600480360360208110156105e057600080fd5b50356001600160a01b0316611355565b61051d6113df565b61051d6113e5565b61061d6004803603602081101561061657600080fd5b50356113eb565b604080519115158252519081900360200190f35b6105136004803603606081101561064757600080fd5b508035906020810135906040013515156114a5565b6105136004803603602081101561067257600080fd5b503561187a565b6106816119fd565b604080516001600160a01b039092168252519081900360200190f35b61051d600480360360208110156106b357600080fd5b5035611a0c565b6106d7600480360360208110156106d057600080fd5b5035611a12565b60405180898152602001888152602001878152602001868152602001858152602001846001600160a01b03166001600160a01b03168152602001836001600160a01b03166001600160a01b0316815260200182600381111561073557fe5b60ff1681526020019850505050505050505060405180910390f35b61051d6004803603602081101561076657600080fd5b50356001600160a01b0316611a68565b6105136004803603602081101561078c57600080fd5b5035611a7a565b61051d611cec565b61061d600480360360608110156107b157600080fd5b50803590602081013590604001356001600160a01b0316611cf2565b61051d600480360360208110156107e357600080fd5b50356001600160a01b0316611da6565b61051d611edd565b610513600480360360a081101561081157600080fd5b6001600160a01b0382351691602081013591604082013591606081013515159181019060a081016080820135600160201b81111561084e57600080fd5b82018360208201111561086057600080fd5b803590602001918460018302840111600160201b8311171561088157600080fd5b91908080601f016020809104026020016040519081016040528093929190818152602001838380828437600092019190915250929550611ee3945050505050565b610513600480360360408110156108d857600080fd5b508035906020013561207b565b610902600480360360208110156108fb57600080fd5b5035612407565b6040805193845260208401929092526001600160a01b031682820152519081900360600190f35b61051d612431565b6106816004803603602081101561094757600080fd5b5035612437565b610681612455565b61051d6004803603608081101561096c57600080fd5b81359160208101359160408201359190810190608081016060820135600160201b81111561099957600080fd5b8201836020820111156109ab57600080fd5b803590602001918460018302840111600160201b831117156109cc57600080fd5b91908080601f016020809104026020016040519081016040528093929190818152602001838380828437600092019190915250929550612464945050505050565b610a2a60048036036020811015610a2357600080fd5b50356124e7565b6040805192835260208301919091528051918290030190f35b61068160048036036020811015610a5957600080fd5b5035612500565b61061d60048036036060811015610a7657600080fd5b50803590602081013590604001356001600160a01b031661254c565b61051360048036036060811015610aa857600080fd5b50803590602081013590604001356125d2565b61061d612719565b61051d61271e565b610513612724565b61051d61277f565b610681612785565b61051d612794565b61051360048036036020811015610b0157600080fd5b810190602081018135600160201b811115610b1b57600080fd5b820183602082011115610b2d57600080fd5b803590602001918460018302840111600160201b83111715610b4e57600080fd5b91908080601f01602080910402602001604051908101604052809392919081815260200183838082843760009201919091525092955061279a945050505050565b61051d61279d565b61051d6127b5565b6106816127bb565b61061d6127ca565b61051d60048036036020811015610bc557600080fd5b50356127db565b61051360048036036020811015610be257600080fd5b50356127ed565b61051360048036036020811015610bff57600080fd5b503561280a565b610681612a8d565b61051d612a9c565b61051360048036036040811015610c2c57600080fd5b5080359060200135612aa2565b61051360048036036020811015610c4f57600080fd5b5035612ae3565b61051d612b4e565b610513612b63565b61051360048036036040811015610c7c57600080fd5b5080359060200135612bbb565b61051360048036036040811015610c9f57600080fd5b5080359060200135612cf0565b610513600480360360a0811015610cc257600080fd5b81359160208101359160408201359160608101359181019060a081016080820135600160201b811115610cf457600080fd5b820183602082011115610d0657600080fd5b803590602001918460018302840111600160201b83111715610d2757600080fd5b91908080601f016020809104026020016040519081016040528093929190818152602001838380828437600092019190915250929550612d0c945050505050565b610681612fdd565b61051360048036036080811015610d8657600080fd5b813591602081013591604082013515159190810190608081016060820135600160201b811115610db557600080fd5b820183602082011115610dc757600080fd5b803590602001918460018302840111600160201b83111715610de857600080fd5b509092509050612fec565b61051360048036036020811015610e0957600080fd5b5035613510565b61051d6135a5565b61061d6135ab565b61068160048036036020811015610e3657600080fd5b810190602081018135600160201b811115610e5057600080fd5b820183602082011115610e6257600080fd5b803590602001918460018302840111600160201b83111715610e8357600080fd5b91908080601f0160208091040260200160405190810160405280939291908181526020018383808284376000920191909152509295506135bb945050505050565b61051360048036036040811015610eda57600080fd5b5080359060200135613610565b61051360048036036020811015610efd57600080fd5b5035613876565b61051360048036036020811015610f1a57600080fd5b5035613bb4565b61051360048036036020811015610f3757600080fd5b50356001600160a01b0316613c79565b610681613cf9565b61051360048036036020811015610f6557600080fd5b50356001600160a01b0316613d08565b61051360048036036040811015610f8b57600080fd5b81359190810190604081016020820135600160201b811115610fac57600080fd5b820183602082011115610fbe57600080fd5b803590602001918460018302840111600160201b83111715610fdf57600080fd5b91908080601f016020809104026020016040519081016040528093929190818152602001838380828437600092019190915250929550613d22945050505050565b610513613f47565b61051d613fa5565b610681613fab565b60608061104361279d565b60405190808252806020026020018201604052801561106c578160200160208202803883390190505b509050600080805b600760009054906101000a90046001600160a01b03166001600160a01b03166318160ddd6040518163ffffffff1660e01b815260040160206040518083038186803b1580156110c257600080fd5b505afa1580156110d6573d6000803e3d6000fd5b505050506040513d60208110156110ec57600080fd5b50518110156111a55760075460408051634f6ccce760e01b81526004810184905290516001600160a01b0390921691634f6ccce791602480820192602092909190829003018186803b15801561114157600080fd5b505afa158015611155573d6000803e3d6000fd5b505050506040513d602081101561116b57600080fd5b50519250611178836113eb565b1561119d578284838060010194508151811061119057fe5b6020026020010181815250505b600101611074565b50919250505090565b6111f13386868686868080601f016020809104026020016040519081016040528093929190818152602001838380828437600092019190915250611ee392505050565b5050505050565b60155481565b60135481565b60095481565b6112126127ca565b61121b57600080fd5b600580546001600160a01b03199081166001600160a01b03978816179091556003805482169587169590951790945560078054851693861693909317909255600680548416918516919091179055600880549092169216919091179055565b6112826127ca565b61128b57600080fd5b6001600160a01b03811661129e57600080fd5b600480546001600160a01b0319166001600160a01b0392909216919091179055565b6112c86127ca565b6112d157600080fd5b600081116112de57600080fd5b60065460105460408051630f1980a560e41b8152600481018590526024810192909252516001600160a01b039092169163f1980a509160448082019260009290919082900301818387803b15801561133557600080fd5b505af1158015611349573d6000803e3d6000fd5b50505060109190915550565b60075460408051632f745c5960e01b81526001600160a01b038481166004830152600060248301819052925192931691632f745c5991604480820192602092909190829003018186803b1580156113ab57600080fd5b505afa1580156113bf573d6000803e3d6000fd5b505050506040513d60208110156113d557600080fd5b505190505b919050565b60165481565b600f5481565b600081815260186020526040812054158015906114365750600082815260186020526040902060020154158015906114365750600a5460008381526018602052604090206002015411155b801561146d5750600082815260186020526040902060030154158061146d5750600a54600083815260186020526040902060030154115b801561149f57506001600083815260186020526040902060060154600160a01b900460ff16600381111561149d57fe5b145b92915050565b600754604080516331a9108f60e11b8152600481018690529051859233926001600160a01b0390911691636352211e91602480820192602092909190829003018186803b1580156114f557600080fd5b505afa158015611509573d6000803e3d6000fd5b505050506040513d602081101561151f57600080fd5b50516001600160a01b03161461153457600080fd5b600a5460008581526018602052604090206003015410611591576040805162461bcd60e51b81526020600482015260136024820152724e6f20757365206f662072657374616b696e6760681b604482015290519081900360640190fd5b82156116605760048054604080516323b872dd60e01b8152339381019390935230602484015260448301869052516001600160a01b03909116916323b872dd9160648083019260209291908290030181600087803b1580156115f257600080fd5b505af1158015611606573d6000803e3d6000fd5b505050506040513d602081101561161c57600080fd5b5051611660576040805162461bcd60e51b815260206004820152600e60248201526d5472616e73666572207374616b6560901b604482015290519081900360640190fd5b811561173b5760008481526018602052604090206001015461168990849063ffffffff613fba16565b6000858152601860205260409020600601549093506001600160a01b0316801561172757611724816001600160a01b03166332ba2e536040518163ffffffff1660e01b8152600401602060405180830381600087803b1580156116eb57600080fd5b505af11580156116ff573d6000803e3d6000fd5b505050506040513d602081101561171557600080fd5b5051859063ffffffff613fba16565b93505b506000848152601860205260408120600101555b60115461174e908463ffffffff613fba16565b601155600084815260186020526040902054611770908463ffffffff613fba16565b600085815260186020908152604080832093909355600a548252601a9052818120805486019055600654825163532e19a960e01b81526004810188905292516001600160a01b039091169263532e19a992602480830193919282900301818387803b1580156117de57600080fd5b505af11580156117f2573d6000803e3d6000fd5b505060065460008781526018602052604080822054601154825163242c1b9960e01b8152600481018c90526024810192909252604482015290516001600160a01b03909316945063242c1b9993506064808201939182900301818387803b15801561185c57600080fd5b505af1158015611870573d6000803e3d6000fd5b5050505050505050565b600754604080516331a9108f60e11b8152600481018490529051839233926001600160a01b0390911691636352211e91602480820192602092909190829003018186803b1580156118ca57600080fd5b505afa1580156118de573d6000803e3d6000fd5b505050506040513d60208110156118f457600080fd5b50516001600160a01b03161461190957600080fd5b6000828152601c60205260409020541561196a576040805162461bcd60e51b815260206004820152601b60248201527f5761697420666f722061756374696f6e20636f6d706c6574696f6e0000000000604482015290519081900360640190fd5b600a5460009061198190600163ffffffff613fba16565b600084815260186020526040902060020154909150158015906119b35750600083815260186020526040902060030154155b80156119e557506001600084815260186020526040902060060154600160a01b900460ff1660038111156119e357fe5b145b6119ee57600080fd5b6119f88382613fd3565b505050565b6007546001600160a01b031681565b50600190565b6018602052600090815260409020805460018201546002830154600384015460048501546005860154600690960154949593949293919290916001600160a01b039081169190811690600160a01b900460ff1688565b60196020526000908152604090205481565b600754604080516331a9108f60e11b8152600481018490529051839233926001600160a01b0390911691636352211e91602480820192602092909190829003018186803b158015611aca57600080fd5b505afa158015611ade573d6000803e3d6000fd5b505050506040513d6020811015611af457600080fd5b50516001600160a01b031614611b0957600080fd5b600a54600083815260186020526040902060030154118015611b3e5750600a5460008381526018602052604090206004015411155b8015611b7057506002600083815260186020526040902060060154600160a01b900460ff166003811115611b6e57fe5b145b611b7957600080fd5b600082815260186020526040902054600d54811015611b9757600080fd5b600083815260186020526040812060038101546006909101549091906001600160a01b031615611caa57600085815260186020908152604091829020600601548251630e826fd160e21b815292516001600160a01b0390911692633a09bf44926004808301939192829003018186803b158015611c1357600080fd5b505afa158015611c27573d6000803e3d6000fd5b505050506040513d6020811015611c3d57600080fd5b505160008681526018602052604080822060060154815163a69df4b560e01b815291519394506001600160a01b03169263a69df4b59260048084019391929182900301818387803b158015611c9157600080fd5b505af1158015611ca5573d6000803e3d6000fd5b505050505b611cb882828501600161415d565b5050506000918252506018602052604081206003810182905560068101805460ff60a01b1916600160a01b17905560040155565b600d5481565b6000838152601860205260408120600601546001600160a01b03163314611d1857600080fd5b600480546040805163a9059cbb60e01b81526001600160a01b0386811694820194909452602481018790529051929091169163a9059cbb916044808201926020929091908290030181600087803b158015611d7257600080fd5b505af1158015611d86573d6000803e3d6000fd5b505050506040513d6020811015611d9c57600080fd5b5051949350505050565b60006001600160a01b0382161580611e345750600754604080516370a0823160e01b81526001600160a01b038581166004830152915191909216916370a08231916024808301926020929190829003018186803b158015611e0657600080fd5b505afa158015611e1a573d6000803e3d6000fd5b505050506040513d6020811015611e3057600080fd5b5051155b15611e41575060006113da565b60075460408051632f745c5960e01b81526001600160a01b03858116600483015260006024830181905292516018949190911691632f745c59916044808301926020929190829003018186803b158015611e9a57600080fd5b505afa158015611eae573d6000803e3d6000fd5b505050506040513d6020811015611ec457600080fd5b5051815260208101919091526040016000205492915050565b60105481565b600254600160a01b900460ff1615611f2e576040805162461bcd60e51b8152602060048201526009602482015268125cc8131bd8dad95960ba1b604482015290519081900360640190fd5b601054611f3961279d565b10611f4357600080fd5b600d548411611f5157600080fd5b6004546001600160a01b03166323b872dd3330611f74888863ffffffff613fba16565b6040518463ffffffff1660e01b815260040180846001600160a01b03166001600160a01b03168152602001836001600160a01b03166001600160a01b031681526020018281526020019350505050602060405180830381600087803b158015611fdc57600080fd5b505af1158015611ff0573d6000803e3d6000fd5b505050506040513d602081101561200657600080fd5b5051612051576040805162461bcd60e51b8152602060048201526015602482015274151c985b9cd9995c881cdd185ad94819985a5b1959605a1b604482015290519081900360640190fd5b61205d8585848461417f565b6012546111f19061207590600163ffffffff61458016565b84614595565b612084826113eb565b61208d57600080fd5b60175415806120a05750600a5460175411155b6120e4576040805162461bcd60e51b815260206004820152601060248201526f10dbdbdb08191bdddb881c195c9a5bd960821b604482015290519081900360640190fd5b601554600b546120fa908263ffffffff613fba16565b600084815260186020526040902060020154600a5461211e9163ffffffff61458016565b8161212557fe5b061115612172576040805162461bcd60e51b8152602060048201526016602482015275125b9d985b1a5908185d58dd1a5bdb881c195c9a5bd960521b604482015290519081900360640190fd5b600061219b61218084611a0c565b6000858152601860205260409020549063ffffffff61463016565b6000848152601c60205260409020549091506121b8908290614657565b9050818110612207576040805162461bcd60e51b8152602060048201526016602482015275135d5cdd08189a59081a1a59da195c88185b5bdd5b9d60521b604482015290519081900360640190fd5b60048054604080516323b872dd60e01b8152339381019390935230602484015260448301859052516001600160a01b03909116916323b872dd9160648083019260209291908290030181600087803b15801561226257600080fd5b505af1158015612276573d6000803e3d6000fd5b505050506040513d602081101561228c57600080fd5b50516122d8576040805162461bcd60e51b8152602060048201526016602482015275151c985b9cd9995c88185b5bdd5b9d0819985a5b195960521b604482015290519081900360640190fd5b6000838152601c602052604090208054156123805760048054600283015483546040805163a9059cbb60e01b81526001600160a01b039384169581019590955260248501919091525191169163a9059cbb9160448083019260209291908290030181600087803b15801561234b57600080fd5b505af115801561235f573d6000803e3d6000fd5b505050506040513d602081101561237557600080fd5b505161238057600080fd5b8281556002810180546001600160a01b03191633179055600654600085815260186020908152604080832054601c909252808320548151630934a6df60e01b8152600481018a905260248101939093526044830152516001600160a01b039390931692630934a6df9260648084019391929182900301818387803b15801561185c57600080fd5b601c602052600090815260409020805460018201546002909201549091906001600160a01b031683565b60125481565b6000908152601860205260409020600601546001600160a01b031690565b6002546001600160a01b031681565b6003546000906001600160a01b0316331461247e57600080fd5b60006124a7600f5461249b600c548961463090919063ffffffff16565b9063ffffffff61466e16565b90506124b5600c5482614690565b905060006124c1612b4e565b601686905590506124d061469f565b6124dc818388876146fd565b979650505050505050565b601a602052600090815260409020805460019091015482565b600754604080516331a9108f60e11b81526004810184905290516000926001600160a01b031691636352211e916024808301926020929190829003018186803b1580156113ab57600080fd5b6000838152601860205260408120600601546001600160a01b0316331461257257600080fd5b60048054604080516323b872dd60e01b81526001600160a01b038681169482019490945230602482015260448101879052905192909116916323b872dd916064808201926020929091908290030181600087803b158015611d7257600080fd5b60055460408051631ab0168360e31b8152905133926001600160a01b03169163d580b418916004808301926020929190829003018186803b15801561261657600080fd5b505afa15801561262a573d6000803e3d6000fd5b505050506040513d602081101561264057600080fd5b50516001600160a01b03161461265557600080fd5b60008381526018602052604081205461267b9060649061249b908663ffffffff61463016565b60008581526018602052604090205490915061269d908263ffffffff61458016565b6000858152601860205260409020819055600d5411806126bd5750600082115b156126cc576126cc8483613610565b6006546040805163532e19a960e01b81526004810187905290516001600160a01b039092169163532e19a99160248082019260009290919082900301818387803b15801561185c57600080fd5b600090565b600b5481565b61272c6127ca565b61273557600080fd5b600080546040516001600160a01b03909116907f8be0079c531659141344cd1fd0a4f28419497f9722a3daafe3b4186f6b6457e0908390a3600080546001600160a01b0319169055565b600a5481565b6005546001600160a01b031681565b600c5481565b50565b600a546000908152601a602052604090206001015490565b60115481565b6000546001600160a01b031690565b6000546001600160a01b0316331490565b601b6020526000908152604090205481565b6127f56127ca565b6127fe57600080fd5b61279a81600a54613fd3565b600754604080516331a9108f60e11b8152600481018490529051839233926001600160a01b0390911691636352211e91602480820192602092909190829003018186803b15801561285a57600080fd5b505afa15801561286e573d6000803e3d6000fd5b505050506040513d602081101561288457600080fd5b50516001600160a01b03161461289957600080fd5b600082815260186020526040902060018101546006909101546001600160a01b0316801561293b57612938816001600160a01b03166332ba2e536040518163ffffffff1660e01b8152600401602060405180830381600087803b1580156128ff57600080fd5b505af1158015612913573d6000803e3d6000fd5b505050506040513d602081101561292957600080fd5b5051839063ffffffff613fba16565b91505b60145461294e908363ffffffff613fba16565b601455600084815260186020908152604080832060010183905560048054825163a9059cbb60e01b815233928101929092526024820187905291516001600160a01b039092169363a9059cbb9360448084019491939192918390030190829087803b1580156129bc57600080fd5b505af11580156129d0573d6000803e3d6000fd5b505050506040513d60208110156129e657600080fd5b5051612a2f576040805162461bcd60e51b8152602060048201526013602482015272496e737566666963656e74207265776172647360681b604482015290519081900360640190fd5b60065460145460408051635b42d93560e11b815260048101889052602481018690526044810192909252516001600160a01b039092169163b685b26a9160648082019260009290919082900301818387803b15801561185c57600080fd5b6003546001600160a01b031681565b601d5481565b6000828152601860205260409020600601546001600160a01b03163314612ac857600080fd5b600a546000908152601a602052604090208054909101905550565b612aeb6127ca565b612af457600080fd5b60008111612b49576040805162461bcd60e51b815260206004820181905260248201527f426c6f636b7320696e74657276616c206d757374206265206e6f6e2d7a65726f604482015290519081900360640190fd5b600f55565b600a546000908152601a602052604090205490565b6002546001600160a01b03163314612bac5760405162461bcd60e51b8152600401808060200182810382526026815260200180614ba76026913960400191505060405180910390fd5b6002805460ff60a01b19169055565b600e54811015612c12576040805162461bcd60e51b815260206004820152601960248201527f4d696e696d756d20616d6f756e742069732031204d6174696300000000000000604482015290519081900360640190fd5b60048054604080516323b872dd60e01b8152339381019390935230602484015260448301849052516001600160a01b03909116916323b872dd9160648083019260209291908290030181600087803b158015612c6d57600080fd5b505af1158015612c81573d6000803e3d6000fd5b505050506040513d6020811015612c9757600080fd5b5051612ce2576040805162461bcd60e51b8152602060048201526015602482015274151c985b9cd9995c881cdd185ad94819985a5b1959605a1b604482015290519081900360640190fd5b612cec8282614595565b5050565b612cf86127ca565b612d0157600080fd5b600d91909155600e55565b600754604080516331a9108f60e11b8152600481018890529051879233926001600160a01b0390911691636352211e91602480820192602092909190829003018186803b158015612d5c57600080fd5b505afa158015612d70573d6000803e3d6000fd5b505050506040513d6020811015612d8657600080fd5b50516001600160a01b031614612d9b57600080fd5b8584866040516020018084815260200183815260200182815260200193505050506040516020818303038152906040528051906020012073__Merkle________________________________636c8f455c909185601654866040518563ffffffff1660e01b81526004018085815260200184815260200183815260200180602001828103825283818151815260200191508051906020019080838360005b83811015612e51578181015183820152602001612e39565b50505050905090810190601f168015612e7e5780820380516001836020036101000a031916815260200191505b509550505050505060206040518083038186803b158015612e9e57600080fd5b505af4158015612eb2573d6000803e3d6000fd5b505050506040513d6020811015612ec857600080fd5b5051612f0d576040805162461bcd60e51b815260206004820152600f60248201526e2bb937b7339030b1b190383937b7b360891b604482015290519081900360640190fd5b6000868152601b6020526040812054612f2d90869063ffffffff61458016565b600480546040805163a9059cbb60e01b8152339381019390935260248301849052519293506001600160a01b03169163a9059cbb916044808201926020929091908290030181600087803b158015612f8457600080fd5b505af1158015612f98573d6000803e3d6000fd5b505050506040513d6020811015612fae57600080fd5b5051612fb957600080fd5b612fc38782614a09565b505050600093845250601b60205260409092209190915550565b6008546001600160a01b031681565b600254600160a01b900460ff1615613037576040805162461bcd60e51b8152602060048201526009602482015268125cc8131bd8dad95960ba1b604482015290519081900360640190fd5b6000858152601c602090815260408083206018909252909120601554600b5461306790829063ffffffff613fba16565b6001840154600a5461307e9163ffffffff61458016565b8161308557fe5b0610156130c35760405162461bcd60e51b8152600401808060200182810382526030815260200180614b776030913960400191505060405180910390fd5b600754604080516331a9108f60e11b8152600481018a905290516001600160a01b0390921691636352211e91602480820192602092909190829003018186803b15801561310f57600080fd5b505afa158015613123573d6000803e3d6000fd5b505050506040513d602081101561313957600080fd5b505160028301546001600160a01b039081169116141561330f5780546004805460028501546040805163a9059cbb60e01b81526001600160a01b0392831694810194909452602484018590525191169163a9059cbb9160448083019260209291908290030181600087803b1580156131b057600080fd5b505af11580156131c4573d6000803e3d6000fd5b505050506040513d60208110156131da57600080fd5b50516131e557600080fd5b82548255600083556002830180546001600160a01b0319169055600a546001840155815461322c9061321d908363ffffffff61458016565b6011549063ffffffff613fba16565b6011556006546040805163532e19a960e01b8152600481018b905290516001600160a01b039092169163532e19a99160248082019260009290919082900301818387803b15801561327c57600080fd5b505af1158015613290573d6000803e3d6000fd5b505060065484546040805163e12ab1af60e01b8152600481018e9052602481018e90526044810192909252516001600160a01b03909216935063e12ab1af925060648082019260009290919082900301818387803b1580156132f157600080fd5b505af1158015613305573d6000803e3d6000fd5b5050505050613507565b61331b87600a54613fd3565b60048054604080516323b872dd60e01b8152339381019390935230602484015260448301899052516001600160a01b03909116916323b872dd9160648083019260209291908290030181600087803b15801561337657600080fd5b505af115801561338a573d6000803e3d6000fd5b505050506040513d60208110156133a057600080fd5b50516133e9576040805162461bcd60e51b8152602060048201526013602482015272151c985b9cd9995c881999594819985a5b1959606a1b604482015290519081900360640190fd5b60028201548254604080516020601f880181900481028201810190925286815261343b936001600160a01b03169291899190899089908190840183828082843760009201919091525061417f92505050565b6012546134599061345390600163ffffffff61458016565b87614595565b6006546012546001600160a01b039091169063e12ab1af9061348290600163ffffffff61458016565b8985600001546040518463ffffffff1660e01b8152600401808481526020018381526020018281526020019350505050600060405180830381600087803b1580156134cc57600080fd5b505af11580156134e0573d6000803e3d6000fd5b5050506000888152601c6020526040812090815560020180546001600160a01b0319169055505b50505050505050565b6135186127ca565b61352157600080fd5b6000811161352e57600080fd5b600654600c5460408051632dbe9d3160e21b8152600481018590526024810192909252516001600160a01b039092169163b6fa74c49160448082019260009290919082900301818387803b15801561358557600080fd5b505af1158015613599573d6000803e3d6000fd5b505050600c9190915550565b60145481565b600254600160a01b900460ff1681565b60008151604014613604576040805162461bcd60e51b815260206004820152600e60248201526d496e76616c6964207075626b657960901b604482015290519081900360640190fd5b50805160209091012090565b60055460408051631ab0168360e31b8152905133926001600160a01b03169163d580b418916004808301926020929190829003018186803b15801561365457600080fd5b505afa158015613668573d6000803e3d6000fd5b505050506040513d602081101561367e57600080fd5b50516001600160a01b03161461369357600080fd5b600082815260186020526040812054600954600a549192916136ba9163ffffffff613fba16565b60008581526018602052604081206004810186905560060154919250906001600160a01b0316156137ce57600085815260186020908152604091829020600601548251630e826fd160e21b815292516001600160a01b0390911692633a09bf44926004808301939192829003018186803b15801561373757600080fd5b505afa15801561374b573d6000803e3d6000fd5b505050506040513d602081101561376157600080fd5b5051600086815260186020526040808220600601548151637c1e845d60e11b815291519394506001600160a01b03169263f83d08ba9260048084019391929182900301818387803b1580156137b557600080fd5b505af11580156137c9573d6000803e3d6000fd5b505050505b6137e08282850160000360001961415d565b600085815260186020526040808220600381018590556006908101805460ff60a01b1916600160a11b1790555481516304ba4aad60e11b8152600481018990526024810186905291516001600160a01b0390911692630974955a926044808201939182900301818387803b15801561385757600080fd5b505af115801561386b573d6000803e3d6000fd5b505050505050505050565b600754604080516331a9108f60e11b8152600481018490529051839233926001600160a01b0390911691636352211e91602480820192602092909190829003018186803b1580156138c657600080fd5b505afa1580156138da573d6000803e3d6000fd5b505050506040513d60208110156138f057600080fd5b50516001600160a01b03161461390557600080fd5b6000828152601860205260409020600301541580159061394a5750600a546009546000848152601860205260409020600301546139479163ffffffff613fba16565b11155b801561397d57506003600083815260186020526040902060060154600160a01b900460ff16600381111561397a57fe5b14155b61398657600080fd5b6000828152601860205260409020546011546139a8908263ffffffff61458016565b60115560075460408051630852cd8d60e31b81526004810186905290516001600160a01b03909216916342966c689160248082019260009290919082900301818387803b1580156139f857600080fd5b505af1158015613a0c573d6000803e3d6000fd5b505050600084815260186020818152604080842060058101546001600160a01b039081168652601984529185208590559388905291905260068201805460ff60a01b1916600360a01b1790556004546001909201549116915063a9059cbb903390613a78908590613fba565b6040518363ffffffff1660e01b815260040180836001600160a01b03166001600160a01b0316815260200182815260200192505050602060405180830381600087803b158015613ac757600080fd5b505af1158015613adb573d6000803e3d6000fd5b505050506040513d6020811015613af157600080fd5b5051613b3c576040805162461bcd60e51b8152602060048201526015602482015274151c985b9cd9995c881cdd185ad94819985a5b1959605a1b604482015290519081900360640190fd5b6006546011546040805163ae2e26b160e01b815233600482015260248101879052604481018590526064810192909252516001600160a01b039092169163ae2e26b19160848082019260009290919082900301818387803b158015613ba057600080fd5b505af1158015613507573d6000803e3d6000fd5b613bbc6127ca565b613bc557600080fd5b60008111613bd257600080fd5b600654600b5460408051635071805360e11b8152600481018590526024810192909252516001600160a01b039092169163a0e300a69160448082019260009290919082900301818387803b158015613c2957600080fd5b505af1158015613c3d573d6000803e3d6000fd5b505050600b829055506009819055613c5c81600463ffffffff61466e16565b6015819055600a54613c739163ffffffff613fba16565b60175550565b613c816127ca565b613c8a57600080fd5b6001600160a01b038116613c9d57600080fd5b6003546040516001600160a01b038084169216907f211c9015fc81c0dbd45bd99f0f29fc1c143bfd53442d5ffd722bbbef7a887fe990600090a3600380546001600160a01b0319166001600160a01b0392909216919091179055565b6006546001600160a01b031681565b613d106127ca565b613d1957600080fd5b61279a81614a88565b600754604080516331a9108f60e11b8152600481018590529051849233926001600160a01b0390911691636352211e91602480820192602092909190829003018186803b158015613d7257600080fd5b505afa158015613d86573d6000803e3d6000fd5b505050506040513d6020811015613d9c57600080fd5b50516001600160a01b031614613db157600080fd5b6000613dbc836135bb565b90506001600160a01b03811615801590613dec57506001600160a01b038116600090815260196020526040902054155b613df557600080fd5b600654600085815260186020908152604080832060050154905163b80fbce560e01b8152600481018981526001600160a01b039283166024830181905287841660448401526080606484019081528a5160848501528a51949097169663b80fbce5968c9692958a958d959460a49091019290860191908190849084905b83811015613e8a578181015183820152602001613e72565b50505050905090810190601f168015613eb75780820380516001836020036101000a031916815260200191505b5095505050505050600060405180830381600087803b158015613ed957600080fd5b505af1158015613eed573d6000803e3d6000fd5b505050600085815260186020818152604080842060050180546001600160a01b03908116865260198452828620869055969096168085529084208990559790925290525080546001600160a01b0319169093179092555050565b6002546001600160a01b03163314613f905760405162461bcd60e51b8152600401808060200182810382526026815260200180614ba76026913960400191505060405180910390fd5b6002805460ff60a01b1916600160a01b179055565b600e5481565b6004546001600160a01b031681565b600082820183811015613fcc57600080fd5b9392505050565b60008281526018602052604081208054600382018490556006909101549091906001600160a01b0316156140ea57600084815260186020908152604091829020600601548251630e826fd160e21b815292516001600160a01b0390911692633a09bf44926004808301939192829003018186803b15801561405357600080fd5b505afa158015614067573d6000803e3d6000fd5b505050506040513d602081101561407d57600080fd5b5051600085815260186020526040808220600601548151637c1e845d60e11b815291519394506001600160a01b03169263f83d08ba9260048084019391929182900301818387803b1580156140d157600080fd5b505af11580156140e5573d6000803e3d6000fd5b505050505b6140fc8382840160000360001961415d565b60065460408051635e04d48360e01b815233600482015260248101879052604481018690526064810185905290516001600160a01b0390921691635e04d4839160848082019260009290919082900301818387803b15801561185c57600080fd5b6000928352601a60205260409092208054909101815560010180549091019055565b600061418a826135bb565b6001600160a01b038116600090815260196020526040902054909150156141ed576040805162461bcd60e51b8152602060048201526012602482015271496e76616c6964205369676e6572206b657960701b604482015290519081900360640190fd5b601154614200908563ffffffff613fba16565b60118190555060405180610100016040528085815260200160008152602001600a5481526020016000815260200160008152602001826001600160a01b03168152602001846142505760006142d8565b6008546012546006546040805163780ff34960e11b815260048101939093526001600160a01b0391821660248401525192169163f01fe692916044808201926020929091908290030181600087803b1580156142ab57600080fd5b505af11580156142bf573d6000803e3d6000fd5b505050506040513d60208110156142d557600080fd5b50515b6001600160a01b03168152602001600190526012546000908152601860209081526040918290208351815590830151600182015590820151600282015560608201516003808301919091556080830151600483015560a08301516005830180546001600160a01b039283166001600160a01b03199182161790915560c08501516006850180549190931691161780825560e08501519260ff60a01b1990911690600160a01b90849081111561438957fe5b021790555050600754601254604080516340c10f1960e01b81526001600160a01b038a81166004830152602482019390935290519190921692506340c10f199160448082019260009290919082900301818387803b1580156143ea57600080fd5b505af11580156143fe573d6000803e3d6000fd5b50506012546001600160a01b0384166000908152601960205260409020555050600a5461442d9085600161415d565b600a54601c6000601254815260200190815260200160002060010181905550600660009054906101000a90046001600160a01b03166001600160a01b03166333a8383c8284601254600a54896011546040518763ffffffff1660e01b815260040180876001600160a01b03166001600160a01b0316815260200180602001868152602001858152602001848152602001838152602001828103825287818151815260200191508051906020019080838360005b838110156144f85781810151838201526020016144e0565b50505050905090810190601f1680156145255780820380516001836020036101000a031916815260200191505b50975050505050505050600060405180830381600087803b15801561454957600080fd5b505af115801561455d573d6000803e3d6000fd5b505060125461457692509050600163ffffffff613fba16565b6012555050505050565b60008282111561458f57600080fd5b50900390565b601d546145a8908263ffffffff613fba16565b601d55600654600083815260186020526040808220600501548151631ace9d8b60e01b8152600481018790526001600160a01b039182166024820152604481018690529151931692631ace9d8b9260648084019391929182900301818387803b15801561461457600080fd5b505af1158015614628573d6000803e3d6000fd5b505050505050565b60008261463f5750600061149f565b8282028284828161464c57fe5b0414613fcc57600080fd5b6000818310156146675781613fcc565b5090919050565b600080821161467c57600080fd5b600082848161468757fe5b04949350505050565b60008183106146675781613fcc565b600a546000906146b690600163ffffffff613fba16565b6000818152601a60205260408082208054600a8054855283852054909101825560019182018054825486528486208401540190558054845291832083815501919091555550565b60008080805b84518167ffffffffffffffff16101561498b57606061472e868367ffffffffffffffff166041614af6565b60408051631df4cba560e21b8152600481018a81526024820192835283516044830152835193945060009373__ECVerify______________________________936377d32e94938d9388939092916064019060208501908083838c5b838110156147a257818101518382015260200161478a565b50505050905090810190601f1680156147cf5780820380516001836020036101000a031916815260200191505b50935050505060206040518083038186803b1580156147ed57600080fd5b505af4158015614801573d6000803e3d6000fd5b505050506040513d602081101561481757600080fd5b50516001600160a01b0380821660008181526019602052604090205492935090861614156148475750505061498b565b614850816113eb565b801561486d5750846001600160a01b0316826001600160a01b0316115b15614980576000818152601860205260408120600681015493965086939091906001600160a01b031615614933578160060160009054906101000a90046001600160a01b03166001600160a01b031663eebfa4b78d8f6040518363ffffffff1660e01b81526004018083815260200182815260200192505050602060405180830381600087803b15801561490057600080fd5b505af1158015614914573d6000803e3d6000fd5b505050506040513d602081101561492a57600080fd5b5051905061496b565b816000015490506149656149548e61249b8f8561463090919063ffffffff16565b60018401549063ffffffff613fba16565b60018301555b61497b888263ffffffff613fba16565b975050505b505050604101614703565b506149aa614997612b4e565b600c5461249b908563ffffffff61463016565b6013549096506149c0908763ffffffff613fba16565b6013556149f260016149e6600361249b60026149da612b4e565b9063ffffffff61463016565b9063ffffffff613fba16565b8210156149fe57600080fd5b509395945050505050565b601d54614a1c908263ffffffff61458016565b601d55600654600083815260186020526040808220600501548151632f7e086160e01b8152600481018790526001600160a01b039182166024820152604481018690529151931692632f7e08619260648084019391929182900301818387803b15801561461457600080fd5b6001600160a01b038116614a9b57600080fd5b600080546040516001600160a01b03808516939216917f8be0079c531659141344cd1fd0a4f28419497f9722a3daafe3b4186f6b6457e091a3600080546001600160a01b0319166001600160a01b0392909216919091179055565b606081830184511015614b0857600080fd5b606082158015614b2357604051915060208201604052614b6d565b6040519150601f8416801560200281840101858101878315602002848b0101015b81831015614b5c578051835260209283019201614b44565b5050858452601f01601f1916604052505b5094935050505056fe436f6e6669726d6174696f6e206973206e6f7420616c6c6f776564206265666f72652061756374696f6e506572696f644f6e6c7920676f7665726e616e636520636f6e747261637420697320617574686f72697a6564a265627a7a723158203642d7a26c886b2d9c1eef679714b09925f9b06b76dd98ff434a45497e5b67d164736f6c634300050b0032",
  "source": "pragma solidity ^0.5.2;\n\nimport {IERC20} from \"openzeppelin-solidity/contracts/token/ERC20/IERC20.sol\";\nimport {Math} from \"openzeppelin-solidity/contracts/math/Math.sol\";\nimport {SafeMath} from \"openzeppelin-solidity/contracts/math/SafeMath.sol\";\nimport {Ownable} from \"openzeppelin-solidity/contracts/ownership/Ownable.sol\";\n\nimport {BytesLib} from \"../../common/lib/BytesLib.sol\";\nimport {ECVerify} from \"../../common/lib/ECVerify.sol\";\nimport {Merkle} from \"../../common/lib/Merkle.sol\";\nimport {Lockable} from \"../../common/mixin/Lockable.sol\";\nimport {RootChainable} from \"../../common/mixin/RootChainable.sol\";\nimport {Registry} from \"../../common/Registry.sol\";\nimport {IStakeManager} from \"./IStakeManager.sol\";\nimport {ValidatorShare} from \"../validatorShare/ValidatorShare.sol\";\nimport {StakingInfo} from \"../StakingInfo.sol\";\nimport {StakingNFT} from \"./StakingNFT.sol\";\nimport \"../validatorShare/ValidatorShareFactory.sol\";\n\n\ncontract StakeManager is IStakeManager {\n    using SafeMath for uint256;\n    using ECVerify for bytes32;\n    using Merkle for bytes32;\n\n    modifier onlyStaker(uint256 validatorId) {\n        require(NFTContract.ownerOf(validatorId) == msg.sender);\n        _;\n    }\n\n    modifier onlySlashingMananger() {\n        require(Registry(registry).getSlashingManagerAddress() == msg.sender);\n        _;\n    }\n\n    constructor() public Lockable(address(0x0)) {}\n\n    // TopUp heimdall fee\n    function topUpForFee(uint256 validatorId, uint256 heimdallFee) public {\n        require(heimdallFee >= minHeimdallFee, \"Minimum amount is 1 Matic\");\n        require(\n            token.transferFrom(msg.sender, address(this), heimdallFee),\n            \"Transfer stake failed\"\n        );\n        _topUpForFee(validatorId, heimdallFee);\n    }\n\n    function ownerOf(uint256 tokenId) public view returns (address) {\n        return NFTContract.ownerOf(tokenId);\n    }\n\n    function _topUpForFee(uint256 validatorId, uint256 amount) private {\n        totalHeimdallFee = totalHeimdallFee.add(amount);\n        logger.logTopUpFee(validatorId, validators[validatorId].signer, amount);\n    }\n\n    function _claimFee(uint256 validatorId, uint256 amount) private {\n        totalHeimdallFee = totalHeimdallFee.sub(amount);\n        logger.logClaimFee(validatorId, validators[validatorId].signer, amount);\n    }\n\n    function claimFee(\n        uint256 validatorId,\n        uint256 accumSlashedAmount,\n        uint256 accumFeeAmount,\n        uint256 index,\n        bytes memory proof\n    ) public onlyStaker(validatorId) {\n        //Ignoring other params becuase rewards distribution is on chain\n        require(\n            keccak256(\n                abi.encodePacked(\n                    validatorId,\n                    accumFeeAmount,\n                    accumSlashedAmount\n                )\n            )\n                .checkMembership(index, accountStateRoot, proof),\n            \"Wrong acc proof\"\n        );\n        uint256 withdrawAmount = accumFeeAmount.sub(\n            validatorFeeExit[validatorId]\n        );\n\n        require(token.transfer(msg.sender, withdrawAmount));\n        _claimFee(validatorId, withdrawAmount);\n        validatorFeeExit[validatorId] = accumFeeAmount;\n    }\n\n    function stake(\n        uint256 amount,\n        uint256 heimdallFee,\n        bool acceptDelegation,\n        bytes calldata signerPubkey\n    ) external {\n        stakeFor(\n            msg.sender,\n            amount,\n            heimdallFee,\n            acceptDelegation,\n            signerPubkey\n        );\n    }\n\n    function totalStakedFor(address user) external view returns (uint256) {\n        if (user == address(0x0) || NFTContract.balanceOf(user) == 0) {\n            return 0;\n        }\n        return validators[NFTContract.tokenOfOwnerByIndex(user, 0)].amount;\n    }\n\n    function supportsHistory() external pure returns (bool) {\n        return false;\n    }\n\n    function startAuction(uint256 validatorId, uint256 amount) external {\n        require(isValidator(validatorId));\n        // when dynasty period is updated validators are in cool down period\n        require(\n            replacementCoolDown == 0 || replacementCoolDown <= currentEpoch,\n            \"Cool down period\"\n        );\n        // (auctionPeriod--dynasty)--(auctionPeriod--dynasty)--(auctionPeriod--dynasty)\n        // if it's auctionPeriod then will get residue smaller then auctionPeriod\n        // from (CurrentPeriod of validator )%(auctionPeriod--dynasty)\n        // make sure that its `auctionPeriod` window\n        // dynasty = 30, auctionPeriod = 7, activationEpoch = 1, currentEpoch = 39\n        // residue 1 = (39-1)% (7+30), if residue <= auctionPeriod it's `auctionPeriod`\n\n        require(\n            (currentEpoch.sub(validators[validatorId].activationEpoch) %\n                dynasty.add(auctionPeriod)) <= auctionPeriod,\n            \"Invalid auction period\"\n        );\n\n        uint256 perceivedStake = validators[validatorId].amount.mul(\n            perceivedStakeFactor(validatorId)\n        );\n        perceivedStake = Math.max(\n            perceivedStake,\n            validatorAuction[validatorId].amount\n        );\n\n        require(perceivedStake < amount, \"Must bid higher amount\");\n        require(\n            token.transferFrom(msg.sender, address(this), amount),\n            \"Transfer amount failed\"\n        );\n\n        Auction storage auction = validatorAuction[validatorId];\n        // create new auction\n        if (validatorAuction[validatorId].amount != 0) {\n            //replace prev auction\n            require(token.transfer(auction.user, auction.amount));\n        }\n        auction.amount = amount;\n        auction.user = msg.sender;\n\n        logger.logStartAuction(\n            validatorId,\n            validators[validatorId].amount,\n            validatorAuction[validatorId].amount\n        );\n    }\n\n    function confirmAuctionBid(\n        uint256 validatorId,\n        uint256 heimdallFee, /** for new validator */\n        bool acceptDelegation,\n        bytes calldata signerPubkey\n    ) external onlyWhenUnlocked {\n        Auction storage auction = validatorAuction[validatorId];\n        Validator storage validator = validators[validatorId];\n        /**\n            // any one can call confrimAuction\n            // require(auction.user == msg.sender);\n         */\n\n        require(\n            currentEpoch.sub(auction.startEpoch) % auctionPeriod.add(dynasty) >=\n                auctionPeriod,\n            \"Confirmation is not allowed before auctionPeriod\"\n        );\n\n        // validator is last auctioner\n        if (auction.user == NFTContract.ownerOf(validatorId)) {\n            uint256 refund = validator.amount;\n            require(token.transfer(auction.user, refund));\n            validator.amount = auction.amount;\n\n            //cleanup auction data\n            auction.amount = 0;\n            auction.user = address(0x0);\n            auction.startEpoch = currentEpoch;\n            //update total stake amount\n            totalStaked = totalStaked.add(validator.amount.sub(refund));\n            logger.logStakeUpdate(validatorId);\n            logger.logConfirmAuction(\n                validatorId,\n                validatorId,\n                validator.amount\n            );\n        } else {\n            // dethrone\n            _unstake(validatorId, currentEpoch);\n            require(\n                token.transferFrom(msg.sender, address(this), heimdallFee),\n                \"Transfer fee failed\"\n            );\n            _stakeFor(\n                auction.user,\n                auction.amount,\n                acceptDelegation,\n                signerPubkey\n            );\n            _topUpForFee(NFTCounter.sub(1), heimdallFee);\n\n            logger.logConfirmAuction(\n                NFTCounter.sub(1),\n                validatorId,\n                auction.amount\n            );\n            validatorAuction[validatorId].amount = 0;\n            validatorAuction[validatorId].user = address(0x0);\n        }\n    }\n\n    function unstake(uint256 validatorId) external onlyStaker(validatorId) {\n        require(\n            validatorAuction[validatorId].amount == 0,\n            \"Wait for auction completion\"\n        );\n        uint256 exitEpoch = currentEpoch.add(1); // notice period\n        require(\n            validators[validatorId].activationEpoch > 0 &&\n                validators[validatorId].deactivationEpoch == 0 &&\n                validators[validatorId].status == Status.Active\n        );\n        _unstake(validatorId, exitEpoch);\n    }\n\n    // Housekeeping function. @todo remove later\n    function forceUnstake(uint256 validatorId) external onlyOwner {\n        _unstake(validatorId, currentEpoch);\n    }\n\n    // Housekeeping function. @todo remove later\n    // other than varibale you want to update give same values\n    function updateConstructor(\n        address _registry,\n        address _rootchain,\n        address _NFTContract,\n        address _stakingLogger,\n        address _ValidatorShareFactory\n    ) external onlyOwner {\n        registry = _registry;\n        rootChain = _rootchain;\n        NFTContract = StakingNFT(_NFTContract);\n        logger = StakingInfo(_stakingLogger);\n        factory = ValidatorShareFactory(_ValidatorShareFactory);\n    }\n\n    function delegationTransfer(\n        uint256 validatorId,\n        uint256 amount,\n        address delegator\n    ) external returns (bool) {\n        require(validators[validatorId].contractAddress == msg.sender);\n        return token.transfer(delegator, amount);\n    }\n\n    function delegationDeposit(\n        uint256 validatorId,\n        uint256 amount,\n        address delegator\n    ) external returns (bool) {\n        require(validators[validatorId].contractAddress == msg.sender);\n        return token.transferFrom(delegator, address(this), amount);\n    }\n\n    function stakeFor(\n        address user,\n        uint256 amount,\n        uint256 heimdallFee,\n        bool acceptDelegation,\n        bytes memory signerPubkey\n    ) public onlyWhenUnlocked {\n        require(currentValidatorSetSize() < validatorThreshold);\n        require(amount > minDeposit);\n\n        require(\n            token.transferFrom(\n                msg.sender,\n                address(this),\n                amount.add(heimdallFee)\n            ),\n            \"Transfer stake failed\"\n        );\n        _stakeFor(user, amount, acceptDelegation, signerPubkey);\n        // _topup\n        _topUpForFee(\n            NFTCounter.sub(1), /** validatorId*/\n            heimdallFee\n        );\n    }\n\n    function perceivedStakeFactor(uint256 validatorId)\n        public\n        view\n        returns (uint256)\n    {\n        // TODO: use age, rewardRatio, and slashing/reward rate\n        return 1;\n    }\n\n    function unstakeClaim(uint256 validatorId) public onlyStaker(validatorId) {\n        // can only claim stake back after WITHDRAWAL_DELAY\n        require(\n            validators[validatorId].deactivationEpoch > 0 &&\n                validators[validatorId].deactivationEpoch.add(\n                    WITHDRAWAL_DELAY\n                ) <=\n                currentEpoch &&\n                validators[validatorId].status != Status.Unstaked\n        );\n        uint256 amount = validators[validatorId].amount;\n        totalStaked = totalStaked.sub(amount);\n\n        // TODO :add slashing here use soft slashing in slash amt variable\n        NFTContract.burn(validatorId);\n        delete signerToValidator[validators[validatorId].signer];\n        // delete validators[validatorId];\n        validators[validatorId].status = Status.Unstaked;\n        require(\n            token.transfer(\n                msg.sender,\n                amount.add(validators[validatorId].reward)\n            ),\n            \"Transfer stake failed\"\n        );\n        logger.logUnstaked(msg.sender, validatorId, amount, totalStaked);\n    }\n\n    // slashing and jail interface\n    function restake(uint256 validatorId, uint256 amount, bool stakeRewards)\n        public\n        onlyStaker(validatorId)\n    {\n        require(\n            validators[validatorId].deactivationEpoch < currentEpoch,\n            \"No use of restaking\"\n        );\n\n        if (amount > 0) {\n            require(\n                token.transferFrom(msg.sender, address(this), amount),\n                \"Transfer stake\"\n            );\n        }\n        if (stakeRewards) {\n            amount = amount.add(validators[validatorId].reward);\n            address _contract = validators[validatorId].contractAddress;\n            if (_contract != address(0x0)) {\n                amount = amount.add(\n                    ValidatorShare(_contract).withdrawRewardsValidator()\n                );\n            }\n            validators[validatorId].reward = 0;\n        }\n        totalStaked = totalStaked.add(amount);\n        validators[validatorId].amount = validators[validatorId].amount.add(\n            amount\n        );\n        validatorState[currentEpoch].amount = (validatorState[currentEpoch]\n            .amount + int256(amount));\n\n        logger.logStakeUpdate(validatorId);\n        logger.logReStaked(\n            validatorId,\n            validators[validatorId].amount,\n            totalStaked\n        );\n    }\n\n    function withdrawRewards(uint256 validatorId)\n        public\n        onlyStaker(validatorId)\n    {\n        uint256 amount = validators[validatorId].reward;\n        address _contract = validators[validatorId].contractAddress;\n        if (_contract != address(0x0)) {\n            amount = amount.add(\n                ValidatorShare(_contract).withdrawRewardsValidator()\n            );\n        }\n        totalRewardsLiquidated = totalRewardsLiquidated.add(amount);\n        validators[validatorId].reward = 0;\n        require(token.transfer(msg.sender, amount), \"Insufficent rewards\");\n        logger.logClaimRewards(validatorId, amount, totalRewardsLiquidated);\n    }\n\n    // if not jailed then in state of warning, else will be unstaking after x epoch\n    function slash(\n        uint256 validatorId,\n        uint256 slashingRate,\n        uint256 jailCheckpoints\n    ) public onlySlashingMananger {\n        // if contract call contract.slash\n        // if (validators[validatorId].contractAddress != address(0x0)) {\n        //   // ValidatorShare(validators[validatorId].contractAddress).slash(slashingRate, currentEpoch, currentEpoch);\n        // }\n        uint256 amount = validators[validatorId].amount.mul(slashingRate).div(\n            100\n        );\n        validators[validatorId].amount = validators[validatorId].amount.sub(\n            amount\n        );\n        if (\n            validators[validatorId].amount < minDeposit || jailCheckpoints > 0\n        ) {\n            jail(validatorId, jailCheckpoints);\n        }\n        // todo: slash event\n        logger.logStakeUpdate(validatorId);\n    }\n\n    function unJail(uint256 validatorId) public onlyStaker(validatorId) {\n        require(\n            validators[validatorId].deactivationEpoch > currentEpoch &&\n                validators[validatorId].jailTime <= currentEpoch &&\n                validators[validatorId].status == Status.Locked\n        );\n\n        uint256 amount = validators[validatorId].amount;\n        require(amount >= minDeposit);\n        uint256 exitEpoch = validators[validatorId].deactivationEpoch;\n\n        int256 delegationAmount = 0;\n        if (validators[validatorId].contractAddress != address(0x0)) {\n            delegationAmount = int256(\n                ValidatorShare(validators[validatorId].contractAddress)\n                    .activeAmount()\n            );\n            ValidatorShare(validators[validatorId].contractAddress).unlock();\n        }\n\n        // undo timline so that validator is normal validator\n        updateTimeLine(exitEpoch, (int256(amount) + delegationAmount), 1);\n\n        validators[validatorId].deactivationEpoch = 0;\n        validators[validatorId].status = Status.Active;\n        validators[validatorId].jailTime = 0;\n    }\n\n    // in context of slashing\n    function jail(uint256 validatorId, uint256 jailCheckpoints)\n        public\n        onlySlashingMananger\n    {\n        // Todo: requires and more conditions\n        uint256 amount = validators[validatorId].amount;\n        // should unbond instantly\n        uint256 exitEpoch = currentEpoch.add(WITHDRAWAL_DELAY); // jail period\n\n        int256 delegationAmount = 0;\n        validators[validatorId].jailTime = jailCheckpoints;\n        if (validators[validatorId].contractAddress != address(0x0)) {\n            delegationAmount = int256(\n                ValidatorShare(validators[validatorId].contractAddress)\n                    .activeAmount()\n            );\n            ValidatorShare(validators[validatorId].contractAddress).lock();\n        }\n        // update future in case of no `unJail`\n        updateTimeLine(exitEpoch, -(int256(amount) + delegationAmount), -1);\n        validators[validatorId].deactivationEpoch = exitEpoch;\n        validators[validatorId].status = Status.Locked;\n        logger.logJailed(validatorId, exitEpoch);\n    }\n\n    // returns valid validator for current epoch\n    function getCurrentValidatorSet() public view returns (uint256[] memory) {\n        uint256[] memory _validators = new uint256[](currentValidatorSetSize());\n        uint256 validator;\n        uint256 k = 0;\n        for (uint256 i = 0; i < NFTContract.totalSupply(); i++) {\n            validator = NFTContract.tokenByIndex(i);\n            if (isValidator(validator)) {\n                _validators[k++] = validator;\n            }\n        }\n        return _validators;\n    }\n\n    function getValidatorId(address user) public view returns (uint256) {\n        return NFTContract.tokenOfOwnerByIndex(user, 0);\n    }\n\n    // set staking Token\n    function setToken(address _token) public onlyOwner {\n        require(_token != address(0x0));\n        token = IERC20(_token);\n    }\n\n    // Change the number of validators required to allow a passed header root\n    function updateValidatorThreshold(uint256 newThreshold) public onlyOwner {\n        require(newThreshold > 0);\n        logger.logThresholdChange(newThreshold, validatorThreshold);\n        validatorThreshold = newThreshold;\n    }\n\n    function updateCheckPointBlockInterval(uint256 _blocks) public onlyOwner {\n        require(_blocks > 0, \"Blocks interval must be non-zero\");\n        checkPointBlockInterval = _blocks;\n    }\n\n    // Change reward for each checkpoint\n    function updateCheckpointReward(uint256 newReward) public onlyOwner {\n        require(newReward > 0);\n        logger.logRewardUpdate(newReward, CHECKPOINT_REWARD);\n        CHECKPOINT_REWARD = newReward;\n    }\n\n    function updateValidatorState(uint256 validatorId, int256 amount) public {\n        require(validators[validatorId].contractAddress == msg.sender);\n        // require(epoch >= currentEpoch, \"Can't change past\");\n        validatorState[currentEpoch].amount = (validatorState[currentEpoch]\n            .amount + amount);\n    }\n\n    function updateDynastyValue(uint256 newDynasty) public onlyOwner {\n        require(newDynasty > 0);\n        logger.logDynastyValueChange(newDynasty, dynasty);\n        dynasty = newDynasty;\n        WITHDRAWAL_DELAY = dynasty;\n        auctionPeriod = dynasty.div(4);\n        // set cool down period\n        replacementCoolDown = currentEpoch.add(auctionPeriod);\n    }\n\n    function updateMinAmounts(uint256 _minDeposit, uint256 _minHeimdallFee)\n        public\n        onlyOwner\n    {\n        minDeposit = _minDeposit;\n        minHeimdallFee = _minHeimdallFee;\n    }\n\n    function updateSigner(uint256 validatorId, bytes memory signerPubkey)\n        public\n        onlyStaker(validatorId)\n    {\n        address _signer = pubToAddress(signerPubkey);\n        require(_signer != address(0x0) && signerToValidator[_signer] == 0);\n\n        // update signer event\n        logger.logSignerChange(\n            validatorId,\n            validators[validatorId].signer,\n            _signer,\n            signerPubkey\n        );\n\n        delete signerToValidator[validators[validatorId].signer];\n        signerToValidator[_signer] = validatorId;\n        validators[validatorId].signer = _signer;\n    }\n\n    function currentValidatorSetSize() public view returns (uint256) {\n        return uint256(validatorState[currentEpoch].stakerCount);\n    }\n\n    function currentValidatorSetTotalStake() public view returns (uint256) {\n        return uint256(validatorState[currentEpoch].amount);\n    }\n\n    function getValidatorContract(uint256 validatorId)\n        public\n        view\n        returns (address)\n    {\n        return validators[validatorId].contractAddress;\n    }\n\n    function isValidator(uint256 validatorId) public view returns (bool) {\n        return (validators[validatorId].amount > 0 &&\n            (validators[validatorId].activationEpoch != 0 &&\n                validators[validatorId].activationEpoch <= currentEpoch) &&\n            (validators[validatorId].deactivationEpoch == 0 ||\n                validators[validatorId].deactivationEpoch > currentEpoch) &&\n            validators[validatorId].status == Status.Active); // Todo: reduce logic\n    }\n\n    function checkSignatures(\n        uint256 blockInterval,\n        bytes32 voteHash,\n        bytes32 stateRoot,\n        bytes memory sigs\n    ) public onlyRootChain returns (uint256) {\n        // checkpoint rewards are based on BlockInterval multiplied on `CHECKPOINT_REWARD`\n        // for bigger checkpoints reward is capped at `CHECKPOINT_REWARD`\n        // if interval is 50% of checkPointBlockInterval then reward R is half of `CHECKPOINT_REWARD`\n        // and then stakePower is 90% of currentValidatorSetTotalStake then final reward is 90% of R\n        uint256 _reward = blockInterval.mul(CHECKPOINT_REWARD).div(\n            checkPointBlockInterval\n        );\n        _reward = Math.min(CHECKPOINT_REWARD, _reward);\n\n        uint256 stakePower = currentValidatorSetTotalStake();\n        // update stateMerkleTree root for accounts balance on heimdall chain\n        accountStateRoot = stateRoot;\n        _finalizeCommit();\n        return checkSignature(stakePower, _reward, voteHash, sigs);\n    }\n\n    function checkSignature(\n        uint256 stakePower,\n        uint256 _reward,\n        bytes32 voteHash,\n        bytes memory sigs\n    ) internal returns (uint256) {\n        // total voting power\n        uint256 _stakePower;\n        //TODO: add proposer bonus\n        address lastAdd; // cannot have address(0x0) as an owner\n        for (uint64 i = 0; i < sigs.length; i += 65) {\n            bytes memory sigElement = BytesLib.slice(sigs, i, 65);\n            address signer = voteHash.ecrecovery(sigElement);\n\n            uint256 validatorId = signerToValidator[signer];\n            // check if signer is staker and not proposer\n            if (signer == lastAdd) {\n                break;\n            } else if (isValidator(validatorId) && signer > lastAdd) {\n                lastAdd = signer;\n                Validator storage validator = validators[validatorId];\n                uint256 valPow;\n                // add delegation power\n                if (validator.contractAddress != address(0x0)) {\n                    valPow = ValidatorShare(validator.contractAddress)\n                        .udpateRewards(_reward, stakePower);\n                } else {\n                    //TODO: check for div leaks in rewards amount\n                    valPow = validator.amount;\n                    validator.reward = validator.reward.add(\n                        valPow.mul(_reward).div(stakePower)\n                    );\n                }\n                _stakePower = _stakePower.add(valPow);\n            }\n        }\n\n        _reward = CHECKPOINT_REWARD.mul(_stakePower).div(\n            currentValidatorSetTotalStake()\n        );\n        totalRewards = totalRewards.add(_reward);\n        require(\n            _stakePower >= currentValidatorSetTotalStake().mul(2).div(3).add(1)\n        );\n        return _reward;\n    }\n\n    function challangeStateRootUpdate(\n        bytes memory checkpointTx /* txData from submitCheckpoint */\n    ) public {\n        // TODO: check for 2/3+1 sig and validate non-inclusion in newStateUpdate\n        // UPDATE: since we've moved rewards to on chain there is no urgent need for this function\n        // becuase heimdall fee can be trusted on 2/3+1 security\n    }\n\n    function _stakeFor(\n        address user,\n        uint256 amount,\n        bool acceptDelegation,\n        bytes memory signerPubkey\n    ) internal {\n        address signer = pubToAddress(signerPubkey);\n        require(signerToValidator[signer] == 0, \"Invalid Signer key\");\n\n        totalStaked = totalStaked.add(amount);\n        validators[NFTCounter] = Validator({\n            reward: 0,\n            amount: amount,\n            activationEpoch: currentEpoch,\n            deactivationEpoch: 0,\n            jailTime: 0,\n            signer: signer,\n            contractAddress: acceptDelegation\n                ? factory.create(NFTCounter, address(logger))\n                : address(0x0),\n            status: Status.Active\n        });\n\n        NFTContract.mint(user, NFTCounter);\n\n        signerToValidator[signer] = NFTCounter;\n        updateTimeLine(currentEpoch, int256(amount), 1);\n        // no Auctions for 1 dynasty\n        validatorAuction[NFTCounter].startEpoch = currentEpoch;\n        logger.logStaked(\n            signer,\n            signerPubkey,\n            NFTCounter,\n            currentEpoch,\n            amount,\n            totalStaked\n        );\n        NFTCounter = NFTCounter.add(1);\n    }\n\n    function _unstake(uint256 validatorId, uint256 exitEpoch) internal {\n        //Todo: add state here consider jail\n        uint256 amount = validators[validatorId].amount;\n\n        validators[validatorId].deactivationEpoch = exitEpoch;\n\n        // unbond all delegators in future\n        int256 delegationAmount = 0;\n        if (validators[validatorId].contractAddress != address(0x0)) {\n            delegationAmount = int256(\n                ValidatorShare(validators[validatorId].contractAddress)\n                    .activeAmount()\n            );\n            ValidatorShare(validators[validatorId].contractAddress).lock();\n        }\n\n        //  update future\n        updateTimeLine(exitEpoch, -(int256(amount) + delegationAmount), -1);\n\n        logger.logUnstakeInit(msg.sender, validatorId, exitEpoch, amount);\n    }\n\n    function _finalizeCommit() internal {\n        uint256 nextEpoch = currentEpoch.add(1);\n        // update totalstake and validator count\n        validatorState[nextEpoch].amount = (validatorState[currentEpoch]\n            .amount + validatorState[nextEpoch].amount);\n        validatorState[nextEpoch].stakerCount = (validatorState[currentEpoch]\n            .stakerCount + validatorState[nextEpoch].stakerCount);\n\n        // erase old data/history\n        delete validatorState[currentEpoch];\n        currentEpoch = nextEpoch;\n    }\n\n    function updateTimeLine(uint256 epoch, int256 amount, int256 stakerCount)\n        private\n    {\n        validatorState[epoch].amount += amount;\n        validatorState[epoch].stakerCount += stakerCount;\n    }\n\n    function pubToAddress(bytes memory pub) public pure returns (address) {\n        require(pub.length == 64, \"Invalid pubkey\");\n        return address(uint160(uint256(keccak256(pub))));\n    }\n}\n",
  "sourcePath": "/Users/arth/Documents/Projects/contracts/contracts/staking/stakeManager/StakeManager.sol",
  "compiler": {
    "name": "solc",
    "version": "0.5.11+commit.c082d0b4.Emscripten.clang"
  },
  "schemaVersion": "3.0.14",
  "updatedAt": "2020-04-11T06:23:12.782Z",
  "devdoc": {
    "methods": {
      "changeRootChain(address)": {
        "details": "Allows the current owner to change root chain address.",
        "params": {
          "newRootChain": "The address to new rootchain."
        }
      },
      "isOwner()": {
        "return": "true if `msg.sender` is the owner of the contract."
      },
      "owner()": {
        "return": "the address of the owner."
      },
      "renounceOwnership()": {
        "details": "Allows the current owner to relinquish control of the contract. It will not be possible to call the functions with the `onlyOwner` modifier anymore."
      },
      "transferOwnership(address)": {
        "details": "Allows the current owner to transfer control of the contract to a newOwner.",
        "params": {
          "newOwner": "The address to transfer ownership to."
        }
      }
    }
  },
  "userdoc": {
    "methods": {
      "renounceOwnership()": {
        "notice": "Renouncing ownership will leave the contract without an owner, thereby removing any functionality that is only available to the owner."
      }
    }
  }
}