{
  "contractName": "TestMRC20",
  "abi": [
    {
      "constant": true,
      "inputs": [],
      "name": "name",
      "outputs": [
        {
          "internalType": "string",
          "name": "",
          "type": "string"
        }
      ],
      "payable": false,
      "stateMutability": "pure",
      "type": "function"
    },
    {
      "constant": false,
      "inputs": [
        {
          "internalType": "address",
          "name": "",
          "type": "address"
        }
      ],
      "name": "setParent",
      "outputs": [],
      "payable": false,
      "stateMutability": "nonpayable",
      "type": "function"
    },
    {
      "constant": true,
      "inputs": [],
      "name": "totalSupply",
      "outputs": [
        {
          "internalType": "uint256",
          "name": "",
          "type": "uint256"
        }
      ],
      "payable": false,
      "stateMutability": "view",
      "type": "function"
    },
    {
      "constant": false,
      "inputs": [
        {
          "internalType": "bytes",
          "name": "sig",
          "type": "bytes"
        },
        {
          "internalType": "uint256",
          "name": "amount",
          "type": "uint256"
        },
        {
          "internalType": "bytes32",
          "name": "data",
          "type": "bytes32"
        },
        {
          "internalType": "uint256",
          "name": "expiration",
          "type": "uint256"
        },
        {
          "internalType": "address",
          "name": "to",
          "type": "address"
        }
      ],
      "name": "transferWithSig",
      "outputs": [
        {
          "internalType": "address",
          "name": "from",
          "type": "address"
        }
      ],
      "payable": false,
      "stateMutability": "nonpayable",
      "type": "function"
    },
    {
      "constant": false,
      "inputs": [
        {
          "internalType": "uint256",
          "name": "amount",
          "type": "uint256"
        }
      ],
      "name": "withdraw",
      "outputs": [],
      "payable": true,
      "stateMutability": "payable",
      "type": "function"
    },
    {
      "constant": true,
      "inputs": [],
      "name": "decimals",
      "outputs": [
        {
          "internalType": "uint8",
          "name": "",
          "type": "uint8"
        }
      ],
      "payable": false,
      "stateMutability": "pure",
      "type": "function"
    },
    {
      "constant": false,
      "inputs": [
        {
          "internalType": "address",
          "name": "user",
          "type": "address"
        },
        {
          "internalType": "uint256",
          "name": "amount",
          "type": "uint256"
        }
      ],
      "name": "deposit",
      "outputs": [],
      "payable": false,
      "stateMutability": "nonpayable",
      "type": "function"
    },
    {
      "constant": false,
      "inputs": [
        {
          "internalType": "address",
          "name": "_childChain",
          "type": "address"
        },
        {
          "internalType": "address",
          "name": "_token",
          "type": "address"
        }
      ],
      "name": "initialize",
      "outputs": [],
      "payable": false,
      "stateMutability": "nonpayable",
      "type": "function"
    },
    {
      "constant": true,
      "inputs": [],
      "name": "parent",
      "outputs": [
        {
          "internalType": "address",
          "name": "",
          "type": "address"
        }
      ],
      "payable": false,
      "stateMutability": "view",
      "type": "function"
    },
    {
      "constant": true,
      "inputs": [],
      "name": "parentOwner",
      "outputs": [
        {
          "internalType": "address",
          "name": "",
          "type": "address"
        }
      ],
      "payable": false,
      "stateMutability": "view",
      "type": "function"
    },
    {
      "constant": true,
      "inputs": [
        {
          "internalType": "address",
          "name": "account",
          "type": "address"
        }
      ],
      "name": "balanceOf",
      "outputs": [
        {
          "internalType": "uint256",
          "name": "",
          "type": "uint256"
        }
      ],
      "payable": false,
      "stateMutability": "view",
      "type": "function"
    },
    {
      "constant": false,
      "inputs": [],
      "name": "renounceOwnership",
      "outputs": [],
      "payable": false,
      "stateMutability": "nonpayable",
      "type": "function"
    },
    {
      "constant": true,
      "inputs": [],
      "name": "currentSupply",
      "outputs": [
        {
          "internalType": "uint256",
          "name": "",
          "type": "uint256"
        }
      ],
      "payable": false,
      "stateMutability": "view",
      "type": "function"
    },
    {
      "constant": true,
      "inputs": [
        {
          "internalType": "bytes32",
          "name": "hash",
          "type": "bytes32"
        },
        {
          "internalType": "bytes",
          "name": "sig",
          "type": "bytes"
        }
      ],
      "name": "ecrecovery",
      "outputs": [
        {
          "internalType": "address",
          "name": "result",
          "type": "address"
        }
      ],
      "payable": false,
      "stateMutability": "pure",
      "type": "function"
    },
    {
      "constant": true,
      "inputs": [],
      "name": "owner",
      "outputs": [
        {
          "internalType": "address",
          "name": "",
          "type": "address"
        }
      ],
      "payable": false,
      "stateMutability": "view",
      "type": "function"
    },
    {
      "constant": true,
      "inputs": [],
      "name": "isOwner",
      "outputs": [
        {
          "internalType": "bool",
          "name": "",
          "type": "bool"
        }
      ],
      "payable": false,
      "stateMutability": "view",
      "type": "function"
    },
    {
      "constant": true,
      "inputs": [],
      "name": "networkId",
      "outputs": [
        {
          "internalType": "bytes",
          "name": "",
          "type": "bytes"
        }
      ],
      "payable": false,
      "stateMutability": "view",
      "type": "function"
    },
    {
      "constant": true,
      "inputs": [],
      "name": "symbol",
      "outputs": [
        {
          "internalType": "string",
          "name": "",
          "type": "string"
        }
      ],
      "payable": false,
      "stateMutability": "pure",
      "type": "function"
    },
    {
      "constant": false,
      "inputs": [
        {
          "internalType": "address",
          "name": "to",
          "type": "address"
        },
        {
          "internalType": "uint256",
          "name": "value",
          "type": "uint256"
        }
      ],
      "name": "transfer",
      "outputs": [
        {
          "internalType": "bool",
          "name": "",
          "type": "bool"
        }
      ],
      "payable": true,
      "stateMutability": "payable",
      "type": "function"
    },
    {
      "constant": true,
      "inputs": [],
      "name": "EIP712_TOKEN_TRANSFER_ORDER_SCHEMA_HASH",
      "outputs": [
        {
          "internalType": "bytes32",
          "name": "",
          "type": "bytes32"
        }
      ],
      "payable": false,
      "stateMutability": "view",
      "type": "function"
    },
    {
      "constant": true,
      "inputs": [
        {
          "internalType": "bytes32",
          "name": "",
          "type": "bytes32"
        }
      ],
      "name": "disabledHashes",
      "outputs": [
        {
          "internalType": "bool",
          "name": "",
          "type": "bool"
        }
      ],
      "payable": false,
      "stateMutability": "view",
      "type": "function"
    },
    {
      "constant": true,
      "inputs": [
        {
          "internalType": "address",
          "name": "spender",
          "type": "address"
        },
        {
          "internalType": "uint256",
          "name": "tokenIdOrAmount",
          "type": "uint256"
        },
        {
          "internalType": "bytes32",
          "name": "data",
          "type": "bytes32"
        },
        {
          "internalType": "uint256",
          "name": "expiration",
          "type": "uint256"
        }
      ],
      "name": "getTokenTransferOrderHash",
      "outputs": [
        {
          "internalType": "bytes32",
          "name": "orderHash",
          "type": "bytes32"
        }
      ],
      "payable": false,
      "stateMutability": "view",
      "type": "function"
    },
    {
      "constant": true,
      "inputs": [],
      "name": "CHAINID",
      "outputs": [
        {
          "internalType": "uint256",
          "name": "",
          "type": "uint256"
        }
      ],
      "payable": false,
      "stateMutability": "view",
      "type": "function"
    },
    {
      "constant": true,
      "inputs": [],
      "name": "EIP712_DOMAIN_HASH",
      "outputs": [
        {
          "internalType": "bytes32",
          "name": "",
          "type": "bytes32"
        }
      ],
      "payable": false,
      "stateMutability": "view",
      "type": "function"
    },
    {
      "constant": true,
      "inputs": [],
      "name": "EIP712_DOMAIN_SCHEMA_HASH",
      "outputs": [
        {
          "internalType": "bytes32",
          "name": "",
          "type": "bytes32"
        }
      ],
      "payable": false,
      "stateMutability": "view",
      "type": "function"
    },
    {
      "constant": false,
      "inputs": [
        {
          "internalType": "address",
          "name": "newOwner",
          "type": "address"
        }
      ],
      "name": "transferOwnership",
      "outputs": [],
      "payable": false,
      "stateMutability": "nonpayable",
      "type": "function"
    },
    {
      "constant": true,
      "inputs": [],
      "name": "token",
      "outputs": [
        {
          "internalType": "address",
          "name": "",
          "type": "address"
        }
      ],
      "payable": false,
      "stateMutability": "view",
      "type": "function"
    },
    {
      "payable": true,
      "stateMutability": "payable",
      "type": "fallback"
    },
    {
      "anonymous": false,
      "inputs": [
        {
          "indexed": true,
          "internalType": "address",
          "name": "from",
          "type": "address"
        },
        {
          "indexed": true,
          "internalType": "address",
          "name": "to",
          "type": "address"
        },
        {
          "indexed": false,
          "internalType": "uint256",
          "name": "value",
          "type": "uint256"
        }
      ],
      "name": "Transfer",
      "type": "event"
    },
    {
      "anonymous": false,
      "inputs": [
        {
          "indexed": true,
          "internalType": "address",
          "name": "token",
          "type": "address"
        },
        {
          "indexed": true,
          "internalType": "address",
          "name": "from",
          "type": "address"
        },
        {
          "indexed": false,
          "internalType": "uint256",
          "name": "amount",
          "type": "uint256"
        },
        {
          "indexed": false,
          "internalType": "uint256",
          "name": "input1",
          "type": "uint256"
        },
        {
          "indexed": false,
          "internalType": "uint256",
          "name": "output1",
          "type": "uint256"
        }
      ],
      "name": "Deposit",
      "type": "event"
    },
    {
      "anonymous": false,
      "inputs": [
        {
          "indexed": true,
          "internalType": "address",
          "name": "token",
          "type": "address"
        },
        {
          "indexed": true,
          "internalType": "address",
          "name": "from",
          "type": "address"
        },
        {
          "indexed": false,
          "internalType": "uint256",
          "name": "amount",
          "type": "uint256"
        },
        {
          "indexed": false,
          "internalType": "uint256",
          "name": "input1",
          "type": "uint256"
        },
        {
          "indexed": false,
          "internalType": "uint256",
          "name": "output1",
          "type": "uint256"
        }
      ],
      "name": "Withdraw",
      "type": "event"
    },
    {
      "anonymous": false,
      "inputs": [
        {
          "indexed": true,
          "internalType": "address",
          "name": "token",
          "type": "address"
        },
        {
          "indexed": true,
          "internalType": "address",
          "name": "from",
          "type": "address"
        },
        {
          "indexed": true,
          "internalType": "address",
          "name": "to",
          "type": "address"
        },
        {
          "indexed": false,
          "internalType": "uint256",
          "name": "amount",
          "type": "uint256"
        },
        {
          "indexed": false,
          "internalType": "uint256",
          "name": "input1",
          "type": "uint256"
        },
        {
          "indexed": false,
          "internalType": "uint256",
          "name": "input2",
          "type": "uint256"
        },
        {
          "indexed": false,
          "internalType": "uint256",
          "name": "output1",
          "type": "uint256"
        },
        {
          "indexed": false,
          "internalType": "uint256",
          "name": "output2",
          "type": "uint256"
        }
      ],
      "name": "LogTransfer",
      "type": "event"
    },
    {
      "anonymous": false,
      "inputs": [
        {
          "indexed": true,
          "internalType": "address",
          "name": "token",
          "type": "address"
        },
        {
          "indexed": true,
          "internalType": "address",
          "name": "from",
          "type": "address"
        },
        {
          "indexed": true,
          "internalType": "address",
          "name": "to",
          "type": "address"
        },
        {
          "indexed": false,
          "internalType": "uint256",
          "name": "amount",
          "type": "uint256"
        },
        {
          "indexed": false,
          "internalType": "uint256",
          "name": "input1",
          "type": "uint256"
        },
        {
          "indexed": false,
          "internalType": "uint256",
          "name": "input2",
          "type": "uint256"
        },
        {
          "indexed": false,
          "internalType": "uint256",
          "name": "output1",
          "type": "uint256"
        },
        {
          "indexed": false,
          "internalType": "uint256",
          "name": "output2",
          "type": "uint256"
        }
      ],
      "name": "LogFeeTransfer",
      "type": "event"
    },
    {
      "anonymous": false,
      "inputs": [
        {
          "indexed": true,
          "internalType": "address",
          "name": "previousOwner",
          "type": "address"
        },
        {
          "indexed": true,
          "internalType": "address",
          "name": "newOwner",
          "type": "address"
        }
      ],
      "name": "OwnershipTransferred",
      "type": "event"
    }
  ],
  "bytecode": "0x608060408190526000600681905580546001600160a01b03191633178082556001600160a01b0316917f8be0079c531659141344cd1fd0a4f28419497f9722a3daafe3b4186f6b6457e0908290a360405180608001604052806052815260200161159e605291396040516020018082805190602001908083835b602083106100985780518252601f199092019160209182019101610079565b51815160209384036101000a60001901801990921691161790526040805192909401828103601f190183528085528251928201929092208285018552600d83527f4d61746963204e6574776f726b00000000000000000000000000000000000000928201929092528351808501855260018082527f3100000000000000000000000000000000000000000000000000000000000000918301919091528451808301939093527fd26430275d0d30693378daeb558f6ed30c3a48ba5d665f52c16608e1c41b5cd7838601527fc89efdaa54c0f20c7adf612882df0950f5a951637e0307cdcb4c672f298b8bc660608401526107d660808401523060a0808501919091528551808503909101815260c09093019094528151910120909155506113d691508190506101c86000396000f3fe60806040526004361061019c5760003560e01c806377d32e94116100ec578063acd06cb31161008a578063e306f77911610064578063e306f77914610660578063e614d0d614610675578063f2fde38b1461068a578063fc0c546a146106bd5761019c565b8063acd06cb3146105dc578063b789543c14610606578063cc79f97b1461064b5761019c565b80639025e64c116100c65780639025e64c1461057157806395d89b4114610586578063a9059cbb1461059b578063abceeba2146105c75761019c565b806377d32e94146104795780638da5cb5b146105335780638f32d59b146105485761019c565b806347e7ef24116101595780637019d41a116101335780637019d41a1461040757806370a082311461041c578063715018a61461044f578063771282f6146104645761019c565b806347e7ef241461037e578063485cc955146103b757806360f96a8f146103f25761019c565b806306fdde031461019e5780631499c5921461022857806318160ddd1461025b57806319d27d9c146102825780632e1a7d4d14610336578063313ce56714610353575b005b3480156101aa57600080fd5b506101b36106d2565b6040805160208082528351818301528351919283929083019185019080838360005b838110156101ed5781810151838201526020016101d5565b50505050905090810190601f16801561021a5780820380516001836020036101000a031916815260200191505b509250505060405180910390f35b34801561023457600080fd5b5061019c6004803603602081101561024b57600080fd5b50356001600160a01b03166106f7565b34801561026757600080fd5b50610270610737565b60408051918252519081900360200190f35b34801561028e57600080fd5b5061031a600480360360a08110156102a557600080fd5b8101906020810181356401000000008111156102c057600080fd5b8201836020820111156102d257600080fd5b803590602001918460018302840111640100000000831117156102f457600080fd5b9193509150803590602081013590604081013590606001356001600160a01b0316610747565b604080516001600160a01b039092168252519081900360200190f35b61019c6004803603602081101561034c57600080fd5b5035610882565b34801561035f57600080fd5b5061036861095a565b6040805160ff9092168252519081900360200190f35b34801561038a57600080fd5b5061019c600480360360408110156103a157600080fd5b506001600160a01b03813516906020013561095f565b3480156103c357600080fd5b5061019c600480360360408110156103da57600080fd5b506001600160a01b0381358116916020013516610a7f565b3480156103fe57600080fd5b5061031a610af8565b34801561041357600080fd5b5061031a610b07565b34801561042857600080fd5b506102706004803603602081101561043f57600080fd5b50356001600160a01b0316610b16565b34801561045b57600080fd5b5061019c610b23565b34801561047057600080fd5b50610270610b7e565b34801561048557600080fd5b5061031a6004803603604081101561049c57600080fd5b813591908101906040810160208201356401000000008111156104be57600080fd5b8201836020820111156104d057600080fd5b803590602001918460018302840111640100000000831117156104f257600080fd5b91908080601f016020809104026020016040519081016040528093929190818152602001838380828437600092019190915250929550610b84945050505050565b34801561053f57600080fd5b5061031a610ca8565b34801561055457600080fd5b5061055d610cb7565b604080519115158252519081900360200190f35b34801561057d57600080fd5b506101b3610cc8565b34801561059257600080fd5b506101b3610ce6565b61055d600480360360408110156105b157600080fd5b506001600160a01b038135169060200135610d05565b3480156105d357600080fd5b50610270610d28565b3480156105e857600080fd5b5061055d600480360360208110156105ff57600080fd5b5035610db1565b34801561061257600080fd5b506102706004803603608081101561062957600080fd5b506001600160a01b038135169060208101359060408101359060600135610dc6565b34801561065757600080fd5b50610270610de5565b34801561066c57600080fd5b50610270610deb565b34801561068157600080fd5b50610270610df1565b34801561069657600080fd5b5061019c600480360360208110156106ad57600080fd5b50356001600160a01b0316610e3b565b3480156106c957600080fd5b5061031a610e58565b60408051808201909152600b81526a26b0ba34b1902a37b5b2b760a91b602082015290565b6040805162461bcd60e51b815260206004820152601060248201526f44697361626c6564206665617475726560801b604482015290519081900360640190fd5b6b204fce5e3e2502611000000090565b600080851161075557600080fd5b8215806107625750824311155b6107aa576040805162461bcd60e51b815260206004820152601460248201527314da59db985d1d5c99481a5cc8195e1c1a5c995960621b604482015290519081900360640190fd5b60006107b833878787610dc6565b60008181526005602052604090205490915060ff1615610811576040805162461bcd60e51b815260206004820152600f60248201526e14da59c819195858dd1a5d985d1959608a1b604482015290519081900360640190fd5b600081815260056020908152604091829020805460ff191660011790558151601f8a018290048202810182019092528882526108699183918b908b9081908401838280828437600092019190915250610b8492505050565b9150610876828488610e67565b50509695505050505050565b33600061088e82610b16565b6006549091506108a4908463ffffffff6110b416565b60065582158015906108b557508234145b6108fc576040805162461bcd60e51b8152602060048201526013602482015272125b9cdd59999a58da595b9d08185b5bdd5b9d606a1b604482015290519081900360640190fd5b6002546001600160a01b0380841691167febff2602b3f468259e1e99f613fed6691f3a6526effe6ef3e768ba7ae7a36c4f858461093887610b16565b60408051938452602084019290925282820152519081900360600190a3505050565b601290565b610967610cb7565b61097057600080fd5b60008111801561098857506001600160a01b03821615155b6109c35760405162461bcd60e51b81526004018080602001828103825260238152602001806112d26023913960400191505060405180910390fd5b60006109ce83610b16565b60405190915083906001600160a01b0382169084156108fc029085906000818181858888f19350505050158015610a09573d6000803e3d6000fd5b50600654610a1d908463ffffffff6110c916565b6006556002546001600160a01b0380861691167f4e2ca0515ed1aef1395f66b5303bb5d6f1bf9d61a353fa53f73f8ac9973fa9f68585610a5c89610b16565b60408051938452602084019290925282820152519081900360600190a350505050565b60075460ff1615610ac15760405162461bcd60e51b81526004018080602001828103825260238152602001806112af6023913960400191505060405180910390fd5b6007805460ff19166001179055600280546001600160a01b0383166001600160a01b0319909116179055610af4826110db565b5050565b6003546001600160a01b031681565b6004546001600160a01b031681565b6001600160a01b03163190565b610b2b610cb7565b610b3457600080fd5b600080546040516001600160a01b03909116907f8be0079c531659141344cd1fd0a4f28419497f9722a3daafe3b4186f6b6457e0908390a3600080546001600160a01b0319169055565b60065481565b6000806000808451604114610b9f5760009350505050610ca2565b50505060208201516040830151604184015160ff16601b811015610bc157601b015b8060ff16601b14158015610bd957508060ff16601c14155b15610bea5760009350505050610ca2565b6040805160008152602080820180845289905260ff8416828401526060820186905260808201859052915160019260a0808401939192601f1981019281900390910190855afa158015610c41573d6000803e3d6000fd5b5050604051601f1901519450506001600160a01b038416610c9e576040805162461bcd60e51b815260206004820152601260248201527122b93937b91034b71032b1b932b1b7bb32b960711b604482015290519081900360640190fd5b5050505b92915050565b6000546001600160a01b031690565b6000546001600160a01b0316331490565b6040518060400160405280600281526020016103eb60f11b81525081565b6040805180820190915260058152644d4154494360d81b602082015290565b6000813414610d1657506000610ca2565b610d21338484610e67565b9392505050565b6040518060800160405280605b8152602001611347605b91396040516020018082805190602001908083835b60208310610d735780518252601f199092019160209182019101610d54565b6001836020036101000a0380198251168184511680821785525050505050509050019150506040516020818303038152906040528051906020012081565b60056020526000908152604090205460ff1681565b6000610ddc610dd786868686611149565b611202565b95945050505050565b6107d681565b60015481565b6040518060800160405280605281526020016112f56052913960405160200180828051906020019080838360208310610d735780518252601f199092019160209182019101610d54565b610e43610cb7565b610e4c57600080fd5b610e55816110db565b50565b6002546001600160a01b031681565b604080516370a0823160e01b81526001600160a01b03851660048201529051600091829130916370a08231916024808301926020929190829003018186803b158015610eb257600080fd5b505afa158015610ec6573d6000803e3d6000fd5b505050506040513d6020811015610edc57600080fd5b5051604080516370a0823160e01b81526001600160a01b0387166004820152905191925060009130916370a08231916024808301926020929190829003018186803b158015610f2a57600080fd5b505afa158015610f3e573d6000803e3d6000fd5b505050506040513d6020811015610f5457600080fd5b50519050610f63868686611227565b600254604080516370a0823160e01b81526001600160a01b03898116600483018190529251818a1694909116917fe6497e3ee548a3372136af2fcb0696db31fc6cf20260707645068bd3fe97f3c49189918891889130916370a0823191602480820192602092909190829003018186803b158015610fe057600080fd5b505afa158015610ff4573d6000803e3d6000fd5b505050506040513d602081101561100a57600080fd5b5051604080516370a0823160e01b81526001600160a01b038f166004820152905130916370a08231916024808301926020929190829003018186803b15801561105257600080fd5b505afa158015611066573d6000803e3d6000fd5b505050506040513d602081101561107c57600080fd5b50516040805195865260208601949094528484019290925260608401526080830152519081900360a00190a450600195945050505050565b6000828211156110c357600080fd5b50900390565b600082820183811015610d2157600080fd5b6001600160a01b0381166110ee57600080fd5b600080546040516001600160a01b03808516939216917f8be0079c531659141344cd1fd0a4f28419497f9722a3daafe3b4186f6b6457e091a3600080546001600160a01b0319166001600160a01b0392909216919091179055565b6000806040518060800160405280605b8152602001611347605b91396040516020018082805190602001908083835b602083106111975780518252601f199092019160209182019101611178565b51815160209384036101000a60001901801990921691161790526040805192909401828103601f1901835280855282519282019290922082526001600160a01b039b909b169a81019a909a5250880196909652505050606084019190915260808301525060a0902090565b60015460405161190160f01b8152600281019190915260228101919091526042902090565b6040516001600160a01b0383169082156108fc029083906000818181858888f1935050505015801561125d573d6000803e3d6000fd5b50816001600160a01b0316836001600160a01b03167fddf252ad1be2c89b69c2b068fc378daa952ba7f163c4a11628f55a4df523b3ef836040518082815260200191505060405180910390a350505056fe54686520636f6e747261637420697320616c726561647920696e697469616c697a6564496e73756666696369656e7420616d6f756e74206f7220696e76616c69642075736572454950373132446f6d61696e28737472696e67206e616d652c737472696e672076657273696f6e2c75696e7432353620636861696e49642c6164647265737320766572696679696e67436f6e747261637429546f6b656e5472616e736665724f726465722861646472657373207370656e6465722c75696e7432353620746f6b656e49644f72416d6f756e742c6279746573333220646174612c75696e743235362065787069726174696f6e29a265627a7a72315820a1ac9ec32454fe2fa6aedbd839adae47b2bf873d9b6ef73ffc95110b0e43069d64736f6c634300050b0032454950373132446f6d61696e28737472696e67206e616d652c737472696e672076657273696f6e2c75696e7432353620636861696e49642c6164647265737320766572696679696e67436f6e747261637429",
  "source": "pragma solidity ^0.5.11;\n\nimport {MRC20} from \"../child/MRC20.sol\";\n\ncontract TestMRC20 is MRC20 {\n    function() external payable {}\n}\n",
  "sourcePath": "/Users/arth/Documents/Projects/contracts/contracts/test/TestMaticChildERC20.sol",
  "compiler": {
    "name": "solc",
    "version": "0.5.11+commit.c082d0b4.Emscripten.clang"
  },
  "schemaVersion": "3.0.14",
  "updatedAt": "2020-04-11T06:23:12.832Z",
  "devdoc": {
    "methods": {
      "isOwner()": {
        "return": "true if `msg.sender` is the owner of the contract."
      },
      "owner()": {
        "return": "the address of the owner."
      },
      "renounceOwnership()": {
        "details": "Allows the current owner to relinquish control of the contract. It will not be possible to call the functions with the `onlyOwner` modifier anymore."
      },
      "transfer(address,uint256)": {
        "details": "Function that is called when a user or another contract wants to transfer funds.",
        "params": {
          "to": "Address of token receiver.",
          "value": "Number of tokens to transfer."
        },
        "return": "Returns success of function call."
      },
      "transferOwnership(address)": {
        "details": "Allows the current owner to transfer control of the contract to a newOwner.",
        "params": {
          "newOwner": "The address to transfer ownership to."
        }
      }
    }
  },
  "userdoc": {
    "methods": {
      "renounceOwnership()": {
        "notice": "Renouncing ownership will leave the contract without an owner, thereby removing any functionality that is only available to the owner."
      }
    }
  }
}