{
  "contractName": "ChildERC721Mintable",
  "abi": [
    {
      "constant": true,
      "inputs": [
        {
          "internalType": "bytes4",
          "name": "interfaceId",
          "type": "bytes4"
        }
      ],
      "name": "supportsInterface",
      "outputs": [
        {
          "internalType": "bool",
          "name": "",
          "type": "bool"
        }
      ],
      "payable": false,
      "stateMutability": "view",
      "type": "function"
    },
    {
      "constant": true,
      "inputs": [],
      "name": "name",
      "outputs": [
        {
          "internalType": "string",
          "name": "",
          "type": "string"
        }
      ],
      "payable": false,
      "stateMutability": "view",
      "type": "function"
    },
    {
      "constant": true,
      "inputs": [
        {
          "internalType": "uint256",
          "name": "tokenId",
          "type": "uint256"
        }
      ],
      "name": "getApproved",
      "outputs": [
        {
          "internalType": "address",
          "name": "operator",
          "type": "address"
        }
      ],
      "payable": false,
      "stateMutability": "view",
      "type": "function"
    },
    {
      "constant": false,
      "inputs": [
        {
          "internalType": "address",
          "name": "to",
          "type": "address"
        },
        {
          "internalType": "uint256",
          "name": "tokenId",
          "type": "uint256"
        }
      ],
      "name": "approve",
      "outputs": [],
      "payable": false,
      "stateMutability": "nonpayable",
      "type": "function"
    },
    {
      "constant": false,
      "inputs": [
        {
          "internalType": "address",
          "name": "_parent",
          "type": "address"
        }
      ],
      "name": "setParent",
      "outputs": [],
      "payable": false,
      "stateMutability": "nonpayable",
      "type": "function"
    },
    {
      "constant": true,
      "inputs": [],
      "name": "totalSupply",
      "outputs": [
        {
          "internalType": "uint256",
          "name": "",
          "type": "uint256"
        }
      ],
      "payable": false,
      "stateMutability": "view",
      "type": "function"
    },
    {
      "constant": false,
      "inputs": [
        {
          "internalType": "bytes",
          "name": "sig",
          "type": "bytes"
        },
        {
          "internalType": "uint256",
          "name": "tokenId",
          "type": "uint256"
        },
        {
          "internalType": "bytes32",
          "name": "data",
          "type": "bytes32"
        },
        {
          "internalType": "uint256",
          "name": "expiration",
          "type": "uint256"
        },
        {
          "internalType": "address",
          "name": "to",
          "type": "address"
        }
      ],
      "name": "transferWithSig",
      "outputs": [
        {
          "internalType": "address",
          "name": "",
          "type": "address"
        }
      ],
      "payable": false,
      "stateMutability": "nonpayable",
      "type": "function"
    },
    {
      "constant": false,
      "inputs": [
        {
          "internalType": "address",
          "name": "from",
          "type": "address"
        },
        {
          "internalType": "address",
          "name": "to",
          "type": "address"
        },
        {
          "internalType": "uint256",
          "name": "tokenId",
          "type": "uint256"
        }
      ],
      "name": "transferFrom",
      "outputs": [],
      "payable": false,
      "stateMutability": "nonpayable",
      "type": "function"
    },
    {
      "constant": false,
      "inputs": [
        {
          "internalType": "uint256",
          "name": "tokenId",
          "type": "uint256"
        }
      ],
      "name": "withdraw",
      "outputs": [],
      "payable": true,
      "stateMutability": "payable",
      "type": "function"
    },
    {
      "constant": true,
      "inputs": [
        {
          "internalType": "address",
          "name": "owner",
          "type": "address"
        },
        {
          "internalType": "uint256",
          "name": "index",
          "type": "uint256"
        }
      ],
      "name": "tokenOfOwnerByIndex",
      "outputs": [
        {
          "internalType": "uint256",
          "name": "",
          "type": "uint256"
        }
      ],
      "payable": false,
      "stateMutability": "view",
      "type": "function"
    },
    {
      "constant": false,
      "inputs": [
        {
          "internalType": "address",
          "name": "to",
          "type": "address"
        },
        {
          "internalType": "uint256",
          "name": "tokenId",
          "type": "uint256"
        }
      ],
      "name": "mint",
      "outputs": [
        {
          "internalType": "bool",
          "name": "",
          "type": "bool"
        }
      ],
      "payable": false,
      "stateMutability": "nonpayable",
      "type": "function"
    },
    {
      "constant": false,
      "inputs": [
        {
          "internalType": "address",
          "name": "from",
          "type": "address"
        },
        {
          "internalType": "address",
          "name": "to",
          "type": "address"
        },
        {
          "internalType": "uint256",
          "name": "tokenId",
          "type": "uint256"
        }
      ],
      "name": "safeTransferFrom",
      "outputs": [],
      "payable": false,
      "stateMutability": "nonpayable",
      "type": "function"
    },
    {
      "constant": false,
      "inputs": [
        {
          "internalType": "address",
          "name": "user",
          "type": "address"
        },
        {
          "internalType": "uint256",
          "name": "tokenId",
          "type": "uint256"
        }
      ],
      "name": "deposit",
      "outputs": [],
      "payable": false,
      "stateMutability": "nonpayable",
      "type": "function"
    },
    {
      "constant": true,
      "inputs": [
        {
          "internalType": "uint256",
          "name": "index",
          "type": "uint256"
        }
      ],
      "name": "tokenByIndex",
      "outputs": [
        {
          "internalType": "uint256",
          "name": "",
          "type": "uint256"
        }
      ],
      "payable": false,
      "stateMutability": "view",
      "type": "function"
    },
    {
      "constant": false,
      "inputs": [
        {
          "internalType": "address",
          "name": "to",
          "type": "address"
        },
        {
          "internalType": "uint256",
          "name": "tokenId",
          "type": "uint256"
        },
        {
          "internalType": "string",
          "name": "tokenURI",
          "type": "string"
        }
      ],
      "name": "mintWithTokenURI",
      "outputs": [
        {
          "internalType": "bool",
          "name": "",
          "type": "bool"
        }
      ],
      "payable": false,
      "stateMutability": "nonpayable",
      "type": "function"
    },
    {
      "constant": true,
      "inputs": [],
      "name": "parent",
      "outputs": [
        {
          "internalType": "address",
          "name": "",
          "type": "address"
        }
      ],
      "payable": false,
      "stateMutability": "view",
      "type": "function"
    },
    {
      "constant": true,
      "inputs": [
        {
          "internalType": "uint256",
          "name": "tokenId",
          "type": "uint256"
        }
      ],
      "name": "ownerOf",
      "outputs": [
        {
          "internalType": "address",
          "name": "",
          "type": "address"
        }
      ],
      "payable": false,
      "stateMutability": "view",
      "type": "function"
    },
    {
      "constant": true,
      "inputs": [],
      "name": "parentOwner",
      "outputs": [
        {
          "internalType": "address",
          "name": "",
          "type": "address"
        }
      ],
      "payable": false,
      "stateMutability": "view",
      "type": "function"
    },
    {
      "constant": true,
      "inputs": [
        {
          "internalType": "address",
          "name": "owner",
          "type": "address"
        }
      ],
      "name": "balanceOf",
      "outputs": [
        {
          "internalType": "uint256",
          "name": "",
          "type": "uint256"
        }
      ],
      "payable": false,
      "stateMutability": "view",
      "type": "function"
    },
    {
      "constant": false,
      "inputs": [],
      "name": "renounceOwnership",
      "outputs": [],
      "payable": false,
      "stateMutability": "nonpayable",
      "type": "function"
    },
    {
      "constant": true,
      "inputs": [
        {
          "internalType": "bytes32",
          "name": "hash",
          "type": "bytes32"
        },
        {
          "internalType": "bytes",
          "name": "sig",
          "type": "bytes"
        }
      ],
      "name": "ecrecovery",
      "outputs": [
        {
          "internalType": "address",
          "name": "result",
          "type": "address"
        }
      ],
      "payable": false,
      "stateMutability": "pure",
      "type": "function"
    },
    {
      "constant": true,
      "inputs": [],
      "name": "owner",
      "outputs": [
        {
          "internalType": "address",
          "name": "",
          "type": "address"
        }
      ],
      "payable": false,
      "stateMutability": "view",
      "type": "function"
    },
    {
      "constant": true,
      "inputs": [],
      "name": "isOwner",
      "outputs": [
        {
          "internalType": "bool",
          "name": "",
          "type": "bool"
        }
      ],
      "payable": false,
      "stateMutability": "view",
      "type": "function"
    },
    {
      "constant": true,
      "inputs": [],
      "name": "networkId",
      "outputs": [
        {
          "internalType": "bytes",
          "name": "",
          "type": "bytes"
        }
      ],
      "payable": false,
      "stateMutability": "view",
      "type": "function"
    },
    {
      "constant": true,
      "inputs": [],
      "name": "symbol",
      "outputs": [
        {
          "internalType": "string",
          "name": "",
          "type": "string"
        }
      ],
      "payable": false,
      "stateMutability": "view",
      "type": "function"
    },
    {
      "constant": false,
      "inputs": [
        {
          "internalType": "address",
          "name": "account",
          "type": "address"
        }
      ],
      "name": "addMinter",
      "outputs": [],
      "payable": false,
      "stateMutability": "nonpayable",
      "type": "function"
    },
    {
      "constant": false,
      "inputs": [],
      "name": "renounceMinter",
      "outputs": [],
      "payable": false,
      "stateMutability": "nonpayable",
      "type": "function"
    },
    {
      "constant": false,
      "inputs": [
        {
          "internalType": "address",
          "name": "operator",
          "type": "address"
        },
        {
          "internalType": "bool",
          "name": "_approved",
          "type": "bool"
        }
      ],
      "name": "setApprovalForAll",
      "outputs": [],
      "payable": false,
      "stateMutability": "nonpayable",
      "type": "function"
    },
    {
      "constant": true,
      "inputs": [
        {
          "internalType": "address",
          "name": "account",
          "type": "address"
        }
      ],
      "name": "isMinter",
      "outputs": [
        {
          "internalType": "bool",
          "name": "",
          "type": "bool"
        }
      ],
      "payable": false,
      "stateMutability": "view",
      "type": "function"
    },
    {
      "constant": true,
      "inputs": [],
      "name": "EIP712_TOKEN_TRANSFER_ORDER_SCHEMA_HASH",
      "outputs": [
        {
          "internalType": "bytes32",
          "name": "",
          "type": "bytes32"
        }
      ],
      "payable": false,
      "stateMutability": "view",
      "type": "function"
    },
    {
      "constant": true,
      "inputs": [
        {
          "internalType": "bytes32",
          "name": "",
          "type": "bytes32"
        }
      ],
      "name": "disabledHashes",
      "outputs": [
        {
          "internalType": "bool",
          "name": "",
          "type": "bool"
        }
      ],
      "payable": false,
      "stateMutability": "view",
      "type": "function"
    },
    {
      "constant": true,
      "inputs": [
        {
          "internalType": "address",
          "name": "spender",
          "type": "address"
        },
        {
          "internalType": "uint256",
          "name": "tokenIdOrAmount",
          "type": "uint256"
        },
        {
          "internalType": "bytes32",
          "name": "data",
          "type": "bytes32"
        },
        {
          "internalType": "uint256",
          "name": "expiration",
          "type": "uint256"
        }
      ],
      "name": "getTokenTransferOrderHash",
      "outputs": [
        {
          "internalType": "bytes32",
          "name": "orderHash",
          "type": "bytes32"
        }
      ],
      "payable": false,
      "stateMutability": "view",
      "type": "function"
    },
    {
      "constant": false,
      "inputs": [
        {
          "internalType": "address",
          "name": "from",
          "type": "address"
        },
        {
          "internalType": "address",
          "name": "to",
          "type": "address"
        },
        {
          "internalType": "uint256",
          "name": "tokenId",
          "type": "uint256"
        },
        {
          "internalType": "bytes",
          "name": "_data",
          "type": "bytes"
        }
      ],
      "name": "safeTransferFrom",
      "outputs": [],
      "payable": false,
      "stateMutability": "nonpayable",
      "type": "function"
    },
    {
      "constant": true,
      "inputs": [
        {
          "internalType": "uint256",
          "name": "tokenId",
          "type": "uint256"
        }
      ],
      "name": "tokenURI",
      "outputs": [
        {
          "internalType": "string",
          "name": "",
          "type": "string"
        }
      ],
      "payable": false,
      "stateMutability": "view",
      "type": "function"
    },
    {
      "constant": true,
      "inputs": [],
      "name": "CHAINID",
      "outputs": [
        {
          "internalType": "uint256",
          "name": "",
          "type": "uint256"
        }
      ],
      "payable": false,
      "stateMutability": "view",
      "type": "function"
    },
    {
      "constant": true,
      "inputs": [],
      "name": "EIP712_DOMAIN_HASH",
      "outputs": [
        {
          "internalType": "bytes32",
          "name": "",
          "type": "bytes32"
        }
      ],
      "payable": false,
      "stateMutability": "view",
      "type": "function"
    },
    {
      "constant": true,
      "inputs": [],
      "name": "EIP712_DOMAIN_SCHEMA_HASH",
      "outputs": [
        {
          "internalType": "bytes32",
          "name": "",
          "type": "bytes32"
        }
      ],
      "payable": false,
      "stateMutability": "view",
      "type": "function"
    },
    {
      "constant": true,
      "inputs": [
        {
          "internalType": "address",
          "name": "owner",
          "type": "address"
        },
        {
          "internalType": "address",
          "name": "operator",
          "type": "address"
        }
      ],
      "name": "isApprovedForAll",
      "outputs": [
        {
          "internalType": "bool",
          "name": "",
          "type": "bool"
        }
      ],
      "payable": false,
      "stateMutability": "view",
      "type": "function"
    },
    {
      "constant": false,
      "inputs": [
        {
          "internalType": "address",
          "name": "newOwner",
          "type": "address"
        }
      ],
      "name": "transferOwnership",
      "outputs": [],
      "payable": false,
      "stateMutability": "nonpayable",
      "type": "function"
    },
    {
      "constant": true,
      "inputs": [],
      "name": "token",
      "outputs": [
        {
          "internalType": "address",
          "name": "",
          "type": "address"
        }
      ],
      "payable": false,
      "stateMutability": "view",
      "type": "function"
    },
    {
      "inputs": [
        {
          "internalType": "address",
          "name": "rootToken",
          "type": "address"
        },
        {
          "internalType": "string",
          "name": "name",
          "type": "string"
        },
        {
          "internalType": "string",
          "name": "symbol",
          "type": "string"
        }
      ],
      "payable": false,
      "stateMutability": "nonpayable",
      "type": "constructor"
    },
    {
      "anonymous": false,
      "inputs": [
        {
          "indexed": true,
          "internalType": "address",
          "name": "account",
          "type": "address"
        }
      ],
      "name": "MinterAdded",
      "type": "event"
    },
    {
      "anonymous": false,
      "inputs": [
        {
          "indexed": true,
          "internalType": "address",
          "name": "account",
          "type": "address"
        }
      ],
      "name": "MinterRemoved",
      "type": "event"
    },
    {
      "anonymous": false,
      "inputs": [
        {
          "indexed": true,
          "internalType": "address",
          "name": "token",
          "type": "address"
        },
        {
          "indexed": true,
          "internalType": "address",
          "name": "from",
          "type": "address"
        },
        {
          "indexed": false,
          "internalType": "uint256",
          "name": "tokenId",
          "type": "uint256"
        }
      ],
      "name": "Deposit",
      "type": "event"
    },
    {
      "anonymous": false,
      "inputs": [
        {
          "indexed": true,
          "internalType": "address",
          "name": "token",
          "type": "address"
        },
        {
          "indexed": true,
          "internalType": "address",
          "name": "from",
          "type": "address"
        },
        {
          "indexed": false,
          "internalType": "uint256",
          "name": "tokenId",
          "type": "uint256"
        }
      ],
      "name": "Withdraw",
      "type": "event"
    },
    {
      "anonymous": false,
      "inputs": [
        {
          "indexed": true,
          "internalType": "address",
          "name": "token",
          "type": "address"
        },
        {
          "indexed": true,
          "internalType": "address",
          "name": "from",
          "type": "address"
        },
        {
          "indexed": true,
          "internalType": "address",
          "name": "to",
          "type": "address"
        },
        {
          "indexed": false,
          "internalType": "uint256",
          "name": "tokenId",
          "type": "uint256"
        }
      ],
      "name": "LogTransfer",
      "type": "event"
    },
    {
      "anonymous": false,
      "inputs": [
        {
          "indexed": true,
          "internalType": "address",
          "name": "from",
          "type": "address"
        },
        {
          "indexed": true,
          "internalType": "address",
          "name": "to",
          "type": "address"
        },
        {
          "indexed": true,
          "internalType": "uint256",
          "name": "tokenId",
          "type": "uint256"
        }
      ],
      "name": "Transfer",
      "type": "event"
    },
    {
      "anonymous": false,
      "inputs": [
        {
          "indexed": true,
          "internalType": "address",
          "name": "owner",
          "type": "address"
        },
        {
          "indexed": true,
          "internalType": "address",
          "name": "approved",
          "type": "address"
        },
        {
          "indexed": true,
          "internalType": "uint256",
          "name": "tokenId",
          "type": "uint256"
        }
      ],
      "name": "Approval",
      "type": "event"
    },
    {
      "anonymous": false,
      "inputs": [
        {
          "indexed": true,
          "internalType": "address",
          "name": "owner",
          "type": "address"
        },
        {
          "indexed": true,
          "internalType": "address",
          "name": "operator",
          "type": "address"
        },
        {
          "indexed": false,
          "internalType": "bool",
          "name": "approved",
          "type": "bool"
        }
      ],
      "name": "ApprovalForAll",
      "type": "event"
    },
    {
      "anonymous": false,
      "inputs": [
        {
          "indexed": true,
          "internalType": "address",
          "name": "token",
          "type": "address"
        },
        {
          "indexed": true,
          "internalType": "address",
          "name": "from",
          "type": "address"
        },
        {
          "indexed": true,
          "internalType": "address",
          "name": "to",
          "type": "address"
        },
        {
          "indexed": false,
          "internalType": "uint256",
          "name": "amount",
          "type": "uint256"
        },
        {
          "indexed": false,
          "internalType": "uint256",
          "name": "input1",
          "type": "uint256"
        },
        {
          "indexed": false,
          "internalType": "uint256",
          "name": "input2",
          "type": "uint256"
        },
        {
          "indexed": false,
          "internalType": "uint256",
          "name": "output1",
          "type": "uint256"
        },
        {
          "indexed": false,
          "internalType": "uint256",
          "name": "output2",
          "type": "uint256"
        }
      ],
      "name": "LogFeeTransfer",
      "type": "event"
    },
    {
      "anonymous": false,
      "inputs": [
        {
          "indexed": true,
          "internalType": "address",
          "name": "previousOwner",
          "type": "address"
        },
        {
          "indexed": true,
          "internalType": "address",
          "name": "newOwner",
          "type": "address"
        }
      ],
      "name": "OwnershipTransferred",
      "type": "event"
    }
  ],
  "bytecode": "0x60806040523480156200001157600080fd5b50604051620028f5380380620028f5833981810160405260608110156200003757600080fd5b8151602083018051604051929492938301929190846401000000008211156200005f57600080fd5b9083019060208201858111156200007557600080fd5b82516401000000008111828201881017156200009057600080fd5b82525081516020918201929091019080838360005b83811015620000bf578181015183820152602001620000a5565b50505050905090810190601f168015620000ed5780820380516001836020036101000a031916815260200191505b50604052602001805160405193929190846401000000008211156200011157600080fd5b9083019060208201858111156200012757600080fd5b82516401000000008111828201881017156200014257600080fd5b82525081516020918201929091019080838360005b838110156200017157818101518382015260200162000157565b50505050905090810190601f1680156200019f5780820380516001836020036101000a031916815260200191505b506040819052600080546001600160a01b03191633908117808355909550889450879350869284928492849284926001600160a01b039290921691907f8be0079c531659141344cd1fd0a4f28419497f9722a3daafe3b4186f6b6457e0908290a3604051806080016040528060528152602001620028a3605291396040516020018082805190602001908083835b602083106200024e5780518252601f1990920191602091820191016200022d565b51815160209384036101000a60001901801990921691161790526040805192909401828103601f190183528085528251928201929092208285018552600d83527f4d61746963204e6574776f726b00000000000000000000000000000000000000928201929092528351808501855260018082527f3100000000000000000000000000000000000000000000000000000000000000918301919091528451808301939093527fd26430275d0d30693378daeb558f6ed30c3a48ba5d665f52c16608e1c41b5cd7838601527fc89efdaa54c0f20c7adf612882df0950f5a951637e0307cdcb4c672f298b8bc660608401526201388160808401523060a0808501919091528551808503909101815260c09093019094528151910120909155506200039b91507f01ffc9a7000000000000000000000000000000000000000000000000000000009050620004dd565b620003cf7f80ac58cd000000000000000000000000000000000000000000000000000000006001600160e01b03620004dd16565b620004037f780e9d63000000000000000000000000000000000000000000000000000000006001600160e01b03620004dd16565b81516200041890600f9060208501906200062b565b5080516200042e9060109060208401906200062b565b50620004637f5b5e139f000000000000000000000000000000000000000000000000000000006001600160e01b03620004dd16565b505050506001600160a01b038316158015906200048857506001600160a01b03841615155b6200049257600080fd5b5050600480546001600160a01b039384166001600160a01b03199182161790915560028054929093169116179055620004d4336001600160e01b036200054a16565b505050620006d0565b7fffffffff0000000000000000000000000000000000000000000000000000000080821614156200050d57600080fd5b7fffffffff00000000000000000000000000000000000000000000000000000000166000908152600660205260409020805460ff19166001179055565b620005658160126200059c60201b62001bcb1790919060201c565b6040516001600160a01b038216907f6ae172837ea30b801fbfcdd4108aa1d5bf8ff775444fd70256b44e6bf3dfc3f690600090a250565b6001600160a01b038116620005b057600080fd5b620005c582826001600160e01b03620005f516565b15620005d057600080fd5b6001600160a01b0316600090815260209190915260409020805460ff19166001179055565b60006001600160a01b0382166200060b57600080fd5b506001600160a01b03166000908152602091909152604090205460ff1690565b828054600181600116156101000203166002900490600052602060002090601f016020900481019282601f106200066e57805160ff19168380011785556200069e565b828001600101855582156200069e579182015b828111156200069e57825182559160200191906001019062000681565b50620006ac929150620006b0565b5090565b620006cd91905b80821115620006ac5760008155600101620006b7565b90565b6121c380620006e06000396000f3fe60806040526004361061023b5760003560e01c806377d32e941161012e578063acd06cb3116100ab578063e306f7791161006f578063e306f77914610ab3578063e614d0d614610ac8578063e985e9c514610add578063f2fde38b14610b18578063fc0c546a14610b4b5761023b565b8063acd06cb314610934578063b789543c1461095e578063b88d4fde146109a3578063c87b56dd14610a74578063cc79f97b14610a9e5761023b565b8063983b2d56116100f2578063983b2d5614610869578063986502751461089c578063a22cb465146108b1578063aa271e1a146108ec578063abceeba21461091f5761023b565b806377d32e941461075d5780638da5cb5b146108155780638f32d59b1461082a5780639025e64c1461083f57806395d89b41146108545761023b565b806340c10f19116101bc57806360f96a8f1161018057806360f96a8f146106c15780636352211e146106d65780637019d41a1461070057806370a0823114610715578063715018a6146107485761023b565b806340c10f191461051c57806342842e0e1461055557806347e7ef24146105985780634f6ccce7146105d157806350bb4e7f146105fb5761023b565b806318160ddd1161020357806318160ddd146103c657806319d27d9c146103ed57806323b872dd146104835780632e1a7d4d146104c65780632f745c59146104e35761023b565b806301ffc9a71461024057806306fdde0314610288578063081812fc14610312578063095ea7b3146103585780631499c59214610393575b600080fd5b34801561024c57600080fd5b506102746004803603602081101561026357600080fd5b50356001600160e01b031916610b60565b604080519115158252519081900360200190f35b34801561029457600080fd5b5061029d610b7f565b6040805160208082528351818301528351919283929083019185019080838360005b838110156102d75781810151838201526020016102bf565b50505050905090810190601f1680156103045780820380516001836020036101000a031916815260200191505b509250505060405180910390f35b34801561031e57600080fd5b5061033c6004803603602081101561033557600080fd5b5035610c16565b604080516001600160a01b039092168252519081900360200190f35b34801561036457600080fd5b506103916004803603604081101561037b57600080fd5b506001600160a01b038135169060200135610c58565b005b34801561039f57600080fd5b50610391600480360360208110156103b657600080fd5b50356001600160a01b0316610c98565b3480156103d257600080fd5b506103db610ce4565b60408051918252519081900360200190f35b3480156103f957600080fd5b5061033c600480360360a081101561041057600080fd5b810190602081018135600160201b81111561042a57600080fd5b82018360208201111561043c57600080fd5b803590602001918460018302840111600160201b8311171561045d57600080fd5b9193509150803590602081013590604081013590606001356001600160a01b0316610cea565b34801561048f57600080fd5b50610391600480360360608110156104a657600080fd5b506001600160a01b03813581169160208101359091169060400135610e85565b610391600480360360208110156104dc57600080fd5b5035610f3e565b3480156104ef57600080fd5b506103db6004803603604081101561050657600080fd5b506001600160a01b038135169060200135610fab565b34801561052857600080fd5b506102746004803603604081101561053f57600080fd5b506001600160a01b038135169060200135610ff9565b34801561056157600080fd5b506103916004803603606081101561057857600080fd5b506001600160a01b03813581169160208101359091169060400135611020565b3480156105a457600080fd5b50610391600480360360408110156105bb57600080fd5b506001600160a01b03813516906020013561103b565b3480156105dd57600080fd5b506103db600480360360208110156105f457600080fd5b50356110b2565b34801561060757600080fd5b506102746004803603606081101561061e57600080fd5b6001600160a01b0382351691602081013591810190606081016040820135600160201b81111561064d57600080fd5b82018360208201111561065f57600080fd5b803590602001918460018302840111600160201b8311171561068057600080fd5b91908080601f0160208091040260200160405190810160405280939291908181526020018383808284376000920191909152509295506110e6945050505050565b3480156106cd57600080fd5b5061033c611118565b3480156106e257600080fd5b5061033c600480360360208110156106f957600080fd5b5035611127565b34801561070c57600080fd5b5061033c611149565b34801561072157600080fd5b506103db6004803603602081101561073857600080fd5b50356001600160a01b0316611158565b34801561075457600080fd5b5061039161118e565b34801561076957600080fd5b5061033c6004803603604081101561078057600080fd5b81359190810190604081016020820135600160201b8111156107a157600080fd5b8201836020820111156107b357600080fd5b803590602001918460018302840111600160201b831117156107d457600080fd5b91908080601f0160208091040260200160405190810160405280939291908181526020018383808284376000920191909152509295506111e9945050505050565b34801561082157600080fd5b5061033c61130c565b34801561083657600080fd5b5061027461131b565b34801561084b57600080fd5b5061029d61132c565b34801561086057600080fd5b5061029d61134b565b34801561087557600080fd5b506103916004803603602081101561088c57600080fd5b50356001600160a01b03166113ac565b3480156108a857600080fd5b506103916113ca565b3480156108bd57600080fd5b50610391600480360360408110156108d457600080fd5b506001600160a01b0381351690602001351515610c58565b3480156108f857600080fd5b506102746004803603602081101561090f57600080fd5b50356001600160a01b03166113d5565b34801561092b57600080fd5b506103db6113e8565b34801561094057600080fd5b506102746004803603602081101561095757600080fd5b5035611471565b34801561096a57600080fd5b506103db6004803603608081101561098157600080fd5b506001600160a01b038135169060208101359060408101359060600135611486565b3480156109af57600080fd5b50610391600480360360808110156109c657600080fd5b6001600160a01b03823581169260208101359091169160408201359190810190608081016060820135600160201b811115610a0057600080fd5b820183602082011115610a1257600080fd5b803590602001918460018302840111600160201b83111715610a3357600080fd5b91908080601f0160208091040260200160405190810160405280939291908181526020018383808284376000920191909152509295506114a5945050505050565b348015610a8057600080fd5b5061029d60048036036020811015610a9757600080fd5b50356114cb565b348015610aaa57600080fd5b506103db61157e565b348015610abf57600080fd5b506103db611585565b348015610ad457600080fd5b506103db61158b565b348015610ae957600080fd5b5061027460048036036040811015610b0057600080fd5b506001600160a01b0381358116916020013516610c16565b348015610b2457600080fd5b5061039160048036036020811015610b3b57600080fd5b50356001600160a01b03166115d5565b348015610b5757600080fd5b5061033c6115ef565b6001600160e01b03191660009081526006602052604090205460ff1690565b600f8054604080516020601f6002600019610100600188161502019095169490940493840181900481028201810190925282815260609390929091830182828015610c0b5780601f10610be057610100808354040283529160200191610c0b565b820191906000526020600020905b815481529060010190602001808311610bee57829003601f168201915b505050505090505b90565b6040805162461bcd60e51b815260206004820152601060248201526f44697361626c6564206665617475726560801b6044820152905160009181900360640190fd5b6040805162461bcd60e51b815260206004820152601060248201526f44697361626c6564206665617475726560801b604482015290519081900360640190fd5b6004546001600160a01b03163314610caf57600080fd5b6001600160a01b038116610cc257600080fd5b600380546001600160a01b0319166001600160a01b0392909216919091179055565b600d5490565b6000821580610cf95750824311155b610d41576040805162461bcd60e51b815260206004820152601460248201527314da59db985d1d5c99481a5cc8195e1c1a5c995960621b604482015290519081900360640190fd5b6000610d4f33878787611486565b60008181526005602052604090205490915060ff1615610da8576040805162461bcd60e51b815260206004820152600f60248201526e14da59c819195858dd1a5d985d1959608a1b604482015290519081900360640190fd5b6000818152600560209081526040808320805460ff191660011790558051601f8b01839004830281018301909152898152610e00918491908c908c90819084018382808284376000920191909152506111e992505050565b9050610e0d8185896115fe565b610e2881858960405180602001604052806000815250611657565b610e79576040805162461bcd60e51b815260206004820152601d60248201527f5f636865636b4f6e4552433732315265636569766564206661696c6564000000604482015290519081900360640190fd5b98975050505050505050565b6003546001600160a01b031615801590610f24575060035460408051631ffb811f60e01b81523360048201526001600160a01b0385811660248301526044820185905291519190921691631ffb811f9160648083019260209291908290030181600087803b158015610ef657600080fd5b505af1158015610f0a573d6000803e3d6000fd5b505050506040513d6020811015610f2057600080fd5b5051155b15610f2e57610f39565b610f398383836115fe565b505050565b33610f4882611127565b6001600160a01b031614610f5b57600080fd5b610f65338261178b565b60025460408051838152905133926001600160a01b0316917f9b1bfa7fa9ee420a16e124f794c35ac9f90472acc99140eb2f6447c714cad8eb919081900360200190a350565b6000610fb683611158565b8210610fc157600080fd5b6001600160a01b0383166000908152600b60205260409020805483908110610fe557fe5b906000526020600020015490505b92915050565b6000611004336113d5565b61100d57600080fd5b61101783836117d7565b50600192915050565b610f39838383604051806020016040528060008152506114a5565b61104361131b565b61104c57600080fd5b6001600160a01b03821661105f57600080fd5b61106982826117d7565b6002546040805183815290516001600160a01b038086169316917f5548c837ab068cf56a2c2479df0882a4922fd203edb7517321831d95078c5f62919081900360200190a35050565b60006110bc610ce4565b82106110c757600080fd5b600d82815481106110d457fe5b90600052602060002001549050919050565b60006110f1336113d5565b6110fa57600080fd5b61110484846117d7565b61110e83836117f4565b5060019392505050565b6003546001600160a01b031681565b6000818152600760205260408120546001600160a01b031680610ff357600080fd5b6004546001600160a01b031681565b60006001600160a01b03821661116d57600080fd5b6001600160a01b0382166000908152600960205260409020610ff390611825565b61119661131b565b61119f57600080fd5b600080546040516001600160a01b03909116907f8be0079c531659141344cd1fd0a4f28419497f9722a3daafe3b4186f6b6457e0908390a3600080546001600160a01b0319169055565b60008060008084516041146112045760009350505050610ff3565b50505060208201516040830151604184015160ff16601b81101561122657601b015b8060ff16601b1415801561123e57508060ff16601c14155b1561124f5760009350505050610ff3565b6040805160008152602080820180845289905260ff8416828401526060820186905260808201859052915160019260a0808401939192601f1981019281900390910190855afa1580156112a6573d6000803e3d6000fd5b5050604051601f1901519450506001600160a01b038416611303576040805162461bcd60e51b815260206004820152601260248201527122b93937b91034b71032b1b932b1b7bb32b960711b604482015290519081900360640190fd5b50505092915050565b6000546001600160a01b031690565b6000546001600160a01b0316331490565b6040518060400160405280600381526020016201388160e81b81525081565b60108054604080516020601f6002600019610100600188161502019095169490940493840181900481028201810190925282815260609390929091830182828015610c0b5780601f10610be057610100808354040283529160200191610c0b565b6113b5336113d5565b6113be57600080fd5b6113c781611829565b50565b6113d333611871565b565b6000610ff360128363ffffffff6118b916565b6040518060800160405280605b8152602001612134605b91396040516020018082805190602001908083835b602083106114335780518252601f199092019160209182019101611414565b6001836020036101000a0380198251168184511680821785525050505050509050019150506040516020818303038152906040528051906020012081565b60056020526000908152604090205460ff1681565b600061149c611497868686866118ee565b6119a7565b95945050505050565b6114b0848484610e85565b6114bc84848484611657565b6114c557600080fd5b50505050565b60606114d6826119cc565b6114df57600080fd5b60008281526011602090815260409182902080548351601f6002600019610100600186161502019093169290920491820184900484028101840190945280845290918301828280156115725780601f1061154757610100808354040283529160200191611572565b820191906000526020600020905b81548152906001019060200180831161155557829003601f168201915b50505050509050919050565b6201388181565b60015481565b6040518060800160405280605281526020016120e260529139604051602001808280519060200190808383602083106114335780518252601f199092019160209182019101611414565b6115dd61131b565b6115e657600080fd5b6113c7816119e9565b6002546001600160a01b031681565b611609838383611a57565b6002546040805183815290516001600160a01b0380861693878216939116917f6eabe333476233fd382224f233210cb808a7bc4c4de64f9d76628bf63c677b1a9181900360200190a4505050565b600061166b846001600160a01b0316611a76565b61167757506001611783565b604051630a85bd0160e11b815233600482018181526001600160a01b03888116602485015260448401879052608060648501908152865160848601528651600095928a169463150b7a029490938c938b938b939260a4019060208501908083838e5b838110156116f15781810151838201526020016116d9565b50505050905090810190601f16801561171e5780820380516001836020036101000a031916815260200191505b5095505050505050602060405180830381600087803b15801561174057600080fd5b505af1158015611754573d6000803e3d6000fd5b505050506040513d602081101561176a57600080fd5b50516001600160e01b031916630a85bd0160e11b149150505b949350505050565b6117958282611a7c565b60008181526011602052604090205460026000196101006001841615020190911604156117d35760008181526011602052604081206117d391611fe5565b5050565b6117e18282611aa8565b6117eb8282611b49565b6117d381611b87565b6117fd826119cc565b61180657600080fd5b60008281526011602090815260409091208251610f3992840190612029565b5490565b61183a60128263ffffffff611bcb16565b6040516001600160a01b038216907f6ae172837ea30b801fbfcdd4108aa1d5bf8ff775444fd70256b44e6bf3dfc3f690600090a250565b61188260128263ffffffff611c1716565b6040516001600160a01b038216907fe94479a9f7e1952cc78f2d6baab678adc1b772d936c6583def489e524cb6669290600090a250565b60006001600160a01b0382166118ce57600080fd5b506001600160a01b03166000908152602091909152604090205460ff1690565b6000806040518060800160405280605b8152602001612134605b91396040516020018082805190602001908083835b6020831061193c5780518252601f19909201916020918201910161191d565b51815160209384036101000a60001901801990921691161790526040805192909401828103601f1901835280855282519282019290922082526001600160a01b039b909b169a81019a909a5250880196909652505050606084019190915260808301525060a0902090565b60015460405161190160f01b8152600281019190915260228101919091526042902090565b6000908152600760205260409020546001600160a01b0316151590565b6001600160a01b0381166119fc57600080fd5b600080546040516001600160a01b03808516939216917f8be0079c531659141344cd1fd0a4f28419497f9722a3daafe3b4186f6b6457e091a3600080546001600160a01b0319166001600160a01b0392909216919091179055565b611a62838383611c5f565b611a6c8382611d3f565b610f398282611b49565b3b151590565b611a868282611e34565b611a908282611d3f565b6000818152600c60205260408120556117d381611ed9565b6001600160a01b038216611abb57600080fd5b611ac4816119cc565b15611ace57600080fd5b600081815260076020908152604080832080546001600160a01b0319166001600160a01b038716908117909155835260099091529020611b0d90611f75565b60405181906001600160a01b038416906000907fddf252ad1be2c89b69c2b068fc378daa952ba7f163c4a11628f55a4df523b3ef908290a45050565b6001600160a01b039091166000908152600b602081815260408084208054868652600c84529185208290559282526001810183559183529091200155565b600d80546000838152600e60205260408120829055600182018355919091527fd7b6990105719101dabeb77144f2a3385c8033acd3af97e9423a695e81ad1eb50155565b6001600160a01b038116611bde57600080fd5b611be882826118b9565b15611bf257600080fd5b6001600160a01b0316600090815260209190915260409020805460ff19166001179055565b6001600160a01b038116611c2a57600080fd5b611c3482826118b9565b611c3d57600080fd5b6001600160a01b0316600090815260209190915260409020805460ff19169055565b826001600160a01b0316611c7282611127565b6001600160a01b031614611c8557600080fd5b6001600160a01b038216611c9857600080fd5b611ca181611f7e565b6001600160a01b0383166000908152600960205260409020611cc290611fb9565b6001600160a01b0382166000908152600960205260409020611ce390611f75565b60008181526007602052604080822080546001600160a01b0319166001600160a01b0386811691821790925591518493918716917fddf252ad1be2c89b69c2b068fc378daa952ba7f163c4a11628f55a4df523b3ef91a4505050565b6001600160a01b0382166000908152600b6020526040812054611d6990600163ffffffff611fd016565b6000838152600c6020526040902054909150808214611e04576001600160a01b0384166000908152600b60205260408120805484908110611da657fe5b9060005260206000200154905080600b6000876001600160a01b03166001600160a01b031681526020019081526020016000208381548110611de457fe5b6000918252602080832090910192909255918252600c9052604090208190555b6001600160a01b0384166000908152600b60205260409020805490611e2d9060001983016120a7565b5050505050565b816001600160a01b0316611e4782611127565b6001600160a01b031614611e5a57600080fd5b611e6381611f7e565b6001600160a01b0382166000908152600960205260409020611e8490611fb9565b60008181526007602052604080822080546001600160a01b0319169055518291906001600160a01b038516907fddf252ad1be2c89b69c2b068fc378daa952ba7f163c4a11628f55a4df523b3ef908390a45050565b600d54600090611ef090600163ffffffff611fd016565b6000838152600e6020526040812054600d8054939450909284908110611f1257fe5b9060005260206000200154905080600d8381548110611f2d57fe5b6000918252602080832090910192909255828152600e90915260409020829055600d805490611f609060001983016120a7565b505050600091825250600e6020526040812055565b80546001019055565b6000818152600860205260409020546001600160a01b0316156113c757600090815260086020526040902080546001600160a01b0319169055565b8054611fcc90600163ffffffff611fd016565b9055565b600082821115611fdf57600080fd5b50900390565b50805460018160011615610100020316600290046000825580601f1061200b57506113c7565b601f0160209004906000526020600020908101906113c791906120c7565b828054600181600116156101000203166002900490600052602060002090601f016020900481019282601f1061206a57805160ff1916838001178555612097565b82800160010185558215612097579182015b8281111561209757825182559160200191906001019061207c565b506120a39291506120c7565b5090565b815481835581811115610f3957600083815260209020610f399181019083015b610c1391905b808211156120a357600081556001016120cd56fe454950373132446f6d61696e28737472696e67206e616d652c737472696e672076657273696f6e2c75696e7432353620636861696e49642c6164647265737320766572696679696e67436f6e747261637429546f6b656e5472616e736665724f726465722861646472657373207370656e6465722c75696e7432353620746f6b656e49644f72416d6f756e742c6279746573333220646174612c75696e743235362065787069726174696f6e29a265627a7a7231582080abaf4144b121daf3d72a592cc4e09f9d6579d5722d05d51d8061ce51d5111e64736f6c634300050b0032454950373132446f6d61696e28737472696e67206e616d652c737472696e672076657273696f6e2c75696e7432353620636861696e49642c6164647265737320766572696679696e67436f6e747261637429",
  "source": "pragma solidity ^0.5.2;\n\nimport \"openzeppelin-solidity/contracts/token/ERC721/ERC721Mintable.sol\";\nimport \"openzeppelin-solidity/contracts/token/ERC721/ERC721MetadataMintable.sol\";\n\nimport {ChildERC721} from \"./ChildERC721.sol\";\n\ncontract ChildERC721Mintable is\n    ChildERC721,\n    ERC721Mintable,\n    ERC721MetadataMintable\n{\n    constructor(address rootToken, string memory name, string memory symbol)\n        public\n        ChildERC721(\n            msg.sender, /* _owner */\n            rootToken,\n            name,\n            symbol\n        )\n    {}\n}\n",
  "sourcePath": "/Users/arth/Documents/Projects/contracts/contracts/child/ChildERC721Mintable.sol",
  "compiler": {
    "name": "solc",
    "version": "0.5.11+commit.c082d0b4.Emscripten.clang"
  },
  "schemaVersion": "3.0.14",
  "updatedAt": "2020-06-08T05:57:39.402Z",
  "devdoc": {
    "methods": {
      "balanceOf(address)": {
        "details": "Gets the balance of the specified address",
        "params": {
          "owner": "address to query the balance of"
        },
        "return": "uint256 representing the amount owned by the passed address"
      },
      "deposit(address,uint256)": {
        "params": {
          "tokenId": "tokenId to mint to user's account",
          "user": "address for deposit"
        }
      },
      "isOwner()": {
        "return": "true if `msg.sender` is the owner of the contract."
      },
      "mint(address,uint256)": {
        "details": "Function to mint tokens",
        "params": {
          "to": "The address that will receive the minted tokens.",
          "tokenId": "The token id to mint."
        },
        "return": "A boolean that indicates if the operation was successful."
      },
      "mintWithTokenURI(address,uint256,string)": {
        "details": "Function to mint tokens",
        "params": {
          "to": "The address that will receive the minted tokens.",
          "tokenId": "The token id to mint.",
          "tokenURI": "The token URI of the minted token."
        },
        "return": "A boolean that indicates if the operation was successful."
      },
      "name()": {
        "details": "Gets the token name",
        "return": "string representing the token name"
      },
      "owner()": {
        "return": "the address of the owner."
      },
      "ownerOf(uint256)": {
        "details": "Gets the owner of the specified token ID",
        "params": {
          "tokenId": "uint256 ID of the token to query the owner of"
        },
        "return": "address currently marked as the owner of the given token ID"
      },
      "renounceOwnership()": {
        "details": "Allows the current owner to relinquish control of the contract. It will not be possible to call the functions with the `onlyOwner` modifier anymore."
      },
      "safeTransferFrom(address,address,uint256)": {
        "details": "Safely transfers the ownership of a given token ID to another address If the target address is a contract, it must implement `onERC721Received`, which is called upon a safe transfer, and return the magic value `bytes4(keccak256(\"onERC721Received(address,address,uint256,bytes)\"))`; otherwise, the transfer is reverted. Requires the msg.sender to be the owner, approved, or operator",
        "params": {
          "from": "current owner of the token",
          "to": "address to receive the ownership of the given token ID",
          "tokenId": "uint256 ID of the token to be transferred"
        }
      },
      "safeTransferFrom(address,address,uint256,bytes)": {
        "details": "Safely transfers the ownership of a given token ID to another address If the target address is a contract, it must implement `onERC721Received`, which is called upon a safe transfer, and return the magic value `bytes4(keccak256(\"onERC721Received(address,address,uint256,bytes)\"))`; otherwise, the transfer is reverted. Requires the msg.sender to be the owner, approved, or operator",
        "params": {
          "_data": "bytes data to send along with a safe transfer check",
          "from": "current owner of the token",
          "to": "address to receive the ownership of the given token ID",
          "tokenId": "uint256 ID of the token to be transferred"
        }
      },
      "supportsInterface(bytes4)": {
        "details": "implement supportsInterface(bytes4) using a lookup table"
      },
      "symbol()": {
        "details": "Gets the token symbol",
        "return": "string representing the token symbol"
      },
      "tokenByIndex(uint256)": {
        "details": "Gets the token ID at a given index of all the tokens in this contract Reverts if the index is greater or equal to the total number of tokens",
        "params": {
          "index": "uint256 representing the index to be accessed of the tokens list"
        },
        "return": "uint256 token ID at the given index of the tokens list"
      },
      "tokenOfOwnerByIndex(address,uint256)": {
        "details": "Gets the token ID at a given index of the tokens list of the requested owner",
        "params": {
          "index": "uint256 representing the index to be accessed of the requested tokens list",
          "owner": "address owning the tokens list to be accessed"
        },
        "return": "uint256 token ID at the given index of the tokens list owned by the requested address"
      },
      "tokenURI(uint256)": {
        "details": "Returns an URI for a given token ID Throws if the token ID does not exist. May return an empty string.",
        "params": {
          "tokenId": "uint256 ID of the token to query"
        }
      },
      "totalSupply()": {
        "details": "Gets the total amount of tokens stored by the contract",
        "return": "uint256 representing the total amount of tokens"
      },
      "transferFrom(address,address,uint256)": {
        "details": "Overriding the inherited method so that it emits LogTransfer"
      },
      "transferOwnership(address)": {
        "details": "Allows the current owner to transfer control of the contract to a newOwner.",
        "params": {
          "newOwner": "The address to transfer ownership to."
        }
      },
      "withdraw(uint256)": {
        "params": {
          "tokenId": "tokenId of the token to be withdrawn"
        }
      }
    }
  },
  "userdoc": {
    "methods": {
      "deposit(address,uint256)": {
        "notice": "Deposit tokens"
      },
      "renounceOwnership()": {
        "notice": "Renouncing ownership will leave the contract without an owner, thereby removing any functionality that is only available to the owner."
      },
      "withdraw(uint256)": {
        "notice": "Withdraw tokens"
      }
    }
  }
}