{
  "contractName": "DepositManagerProxy",
  "abi": [
    {
      "constant": false,
      "inputs": [
        {
          "internalType": "address",
          "name": "_newProxyTo",
          "type": "address"
        }
      ],
      "name": "updateImplementation",
      "outputs": [],
      "payable": false,
      "stateMutability": "nonpayable",
      "type": "function"
    },
    {
      "constant": true,
      "inputs": [],
      "name": "childChain",
      "outputs": [
        {
          "internalType": "address",
          "name": "",
          "type": "address"
        }
      ],
      "payable": false,
      "stateMutability": "view",
      "type": "function"
    },
    {
      "constant": true,
      "inputs": [],
      "name": "proxyType",
      "outputs": [
        {
          "internalType": "uint256",
          "name": "proxyTypeId",
          "type": "uint256"
        }
      ],
      "payable": false,
      "stateMutability": "pure",
      "type": "function"
    },
    {
      "constant": true,
      "inputs": [],
      "name": "governance",
      "outputs": [
        {
          "internalType": "contract IGovernance",
          "name": "",
          "type": "address"
        }
      ],
      "payable": false,
      "stateMutability": "view",
      "type": "function"
    },
    {
      "constant": true,
      "inputs": [],
      "name": "implementation",
      "outputs": [
        {
          "internalType": "address",
          "name": "",
          "type": "address"
        }
      ],
      "payable": false,
      "stateMutability": "view",
      "type": "function"
    },
    {
      "constant": false,
      "inputs": [],
      "name": "renounceOwnership",
      "outputs": [],
      "payable": false,
      "stateMutability": "nonpayable",
      "type": "function"
    },
    {
      "constant": true,
      "inputs": [],
      "name": "registry",
      "outputs": [
        {
          "internalType": "contract Registry",
          "name": "",
          "type": "address"
        }
      ],
      "payable": false,
      "stateMutability": "view",
      "type": "function"
    },
    {
      "constant": true,
      "inputs": [],
      "name": "owner",
      "outputs": [
        {
          "internalType": "address",
          "name": "",
          "type": "address"
        }
      ],
      "payable": false,
      "stateMutability": "view",
      "type": "function"
    },
    {
      "constant": true,
      "inputs": [],
      "name": "isOwner",
      "outputs": [
        {
          "internalType": "bool",
          "name": "",
          "type": "bool"
        }
      ],
      "payable": false,
      "stateMutability": "view",
      "type": "function"
    },
    {
      "constant": true,
      "inputs": [],
      "name": "rootChain",
      "outputs": [
        {
          "internalType": "contract RootChain",
          "name": "",
          "type": "address"
        }
      ],
      "payable": false,
      "stateMutability": "view",
      "type": "function"
    },
    {
      "constant": false,
      "inputs": [],
      "name": "unlock",
      "outputs": [],
      "payable": false,
      "stateMutability": "nonpayable",
      "type": "function"
    },
    {
      "constant": true,
      "inputs": [
        {
          "internalType": "uint256",
          "name": "",
          "type": "uint256"
        }
      ],
      "name": "deposits",
      "outputs": [
        {
          "internalType": "bytes32",
          "name": "depositHash",
          "type": "bytes32"
        },
        {
          "internalType": "uint256",
          "name": "createdAt",
          "type": "uint256"
        }
      ],
      "payable": false,
      "stateMutability": "view",
      "type": "function"
    },
    {
      "constant": true,
      "inputs": [],
      "name": "stateSender",
      "outputs": [
        {
          "internalType": "contract StateSender",
          "name": "",
          "type": "address"
        }
      ],
      "payable": false,
      "stateMutability": "view",
      "type": "function"
    },
    {
      "constant": true,
      "inputs": [],
      "name": "locked",
      "outputs": [
        {
          "internalType": "bool",
          "name": "",
          "type": "bool"
        }
      ],
      "payable": false,
      "stateMutability": "view",
      "type": "function"
    },
    {
      "constant": true,
      "inputs": [],
      "name": "maxErc20Deposit",
      "outputs": [
        {
          "internalType": "uint256",
          "name": "",
          "type": "uint256"
        }
      ],
      "payable": false,
      "stateMutability": "view",
      "type": "function"
    },
    {
      "constant": false,
      "inputs": [
        {
          "internalType": "address",
          "name": "newOwner",
          "type": "address"
        }
      ],
      "name": "transferOwnership",
      "outputs": [],
      "payable": false,
      "stateMutability": "nonpayable",
      "type": "function"
    },
    {
      "constant": false,
      "inputs": [],
      "name": "lock",
      "outputs": [],
      "payable": false,
      "stateMutability": "nonpayable",
      "type": "function"
    },
    {
      "inputs": [
        {
          "internalType": "address",
          "name": "_proxyTo",
          "type": "address"
        },
        {
          "internalType": "address",
          "name": "_registry",
          "type": "address"
        },
        {
          "internalType": "address",
          "name": "_rootChain",
          "type": "address"
        },
        {
          "internalType": "address",
          "name": "_governance",
          "type": "address"
        }
      ],
      "payable": false,
      "stateMutability": "nonpayable",
      "type": "constructor"
    },
    {
      "payable": true,
      "stateMutability": "payable",
      "type": "fallback"
    },
    {
      "anonymous": false,
      "inputs": [
        {
          "indexed": true,
          "internalType": "address",
          "name": "owner",
          "type": "address"
        },
        {
          "indexed": true,
          "internalType": "address",
          "name": "token",
          "type": "address"
        },
        {
          "indexed": false,
          "internalType": "uint256",
          "name": "amountOrNFTId",
          "type": "uint256"
        },
        {
          "indexed": false,
          "internalType": "uint256",
          "name": "depositBlockId",
          "type": "uint256"
        }
      ],
      "name": "NewDepositBlock",
      "type": "event"
    },
    {
      "anonymous": false,
      "inputs": [
        {
          "indexed": true,
          "internalType": "uint256",
          "name": "oldLimit",
          "type": "uint256"
        },
        {
          "indexed": true,
          "internalType": "uint256",
          "name": "newLimit",
          "type": "uint256"
        }
      ],
      "name": "MaxErc20DepositUpdate",
      "type": "event"
    },
    {
      "anonymous": false,
      "inputs": [
        {
          "indexed": true,
          "internalType": "address",
          "name": "_new",
          "type": "address"
        },
        {
          "indexed": true,
          "internalType": "address",
          "name": "_old",
          "type": "address"
        }
      ],
      "name": "ProxyUpdated",
      "type": "event"
    },
    {
      "anonymous": false,
      "inputs": [
        {
          "indexed": false,
          "internalType": "address",
          "name": "_prevOwner",
          "type": "address"
        },
        {
          "indexed": false,
          "internalType": "address",
          "name": "_newOwner",
          "type": "address"
        }
      ],
      "name": "OwnerUpdate",
      "type": "event"
    },
    {
      "anonymous": false,
      "inputs": [
        {
          "indexed": true,
          "internalType": "address",
          "name": "previousOwner",
          "type": "address"
        },
        {
          "indexed": true,
          "internalType": "address",
          "name": "newOwner",
          "type": "address"
        }
      ],
      "name": "OwnershipTransferred",
      "type": "event"
    }
  ],
  "bytecode": "0x608060405268056bc75e2d6310000060085534801561001d57600080fd5b50604051610a2f380380610a2f8339818101604052608081101561004057600080fd5b5080516020820151604080840151606090940151600080546001600160a01b031916331780825592519495939491928392839288926001600160a01b0316917f8be0079c531659141344cd1fd0a4f28419497f9722a3daafe3b4186f6b6457e0908290a36100b6816001600160e01b036100ff16565b50600280546001600160a01b03199081166001600160a01b0393841617909155600380548216968316969096179095556004805490951693169290921790925550610286915050565b6101106001600160e01b0361025216565b61011957600080fd5b6001600160a01b03811661018e57604080517f08c379a000000000000000000000000000000000000000000000000000000000815260206004820152601560248201527f494e56414c49445f50524f58595f414444524553530000000000000000000000604482015290519081900360640190fd5b6101a0816001600160e01b0361026316565b6101f5576040517f08c379a0000000000000000000000000000000000000000000000000000000008152600401808060200182810382526025815260200180610a0a6025913960400191505060405180910390fd5b6001546040516001600160a01b03918216918316907fd32d24edea94f55e932d9a008afc425a8561462d1b1f57bc6e508e9a6b9509e190600090a3600180546001600160a01b0319166001600160a01b0392909216919091179055565b6000546001600160a01b0316331490565b60006001600160a01b03821661027b57506000610281565b50803b15155b919050565b610775806102956000396000f3fe6080604052600436106100fe5760003560e01c80638f32d59b11610095578063cb10f94c11610064578063cb10f94c146102d4578063cf309012146102e9578063e7af7ba1146102fe578063f2fde38b14610313578063f83d08ba14610346576100fe565b80638f32d59b1461023e578063987ab9db14610267578063a69df4b51461027c578063b02c43d014610291576100fe565b80635c60da1b116100d15780635c60da1b146101ea578063715018a6146101ff5780637b103999146102145780638da5cb5b14610229576100fe565b8063025b22bc1461014a57806342fc47fb1461017d5780634555d5c9146101ae5780635aa6e675146101d5575b60015460408051602036601f8101829004820283018201909352828252610148936001600160a01b0316926000918190840183828082843760009201919091525061035b92505050565b005b34801561015657600080fd5b506101486004803603602081101561016d57600080fd5b50356001600160a01b0316610383565b34801561018957600080fd5b50610192610488565b604080516001600160a01b039092168252519081900360200190f35b3480156101ba57600080fd5b506101c3610497565b60408051918252519081900360200190f35b3480156101e157600080fd5b5061019261049c565b3480156101f657600080fd5b506101926104ab565b34801561020b57600080fd5b506101486104ba565b34801561022057600080fd5b50610192610515565b34801561023557600080fd5b50610192610524565b34801561024a57600080fd5b50610253610533565b604080519115158252519081900360200190f35b34801561027357600080fd5b50610192610544565b34801561028857600080fd5b50610148610553565b34801561029d57600080fd5b506102bb600480360360208110156102b457600080fd5b50356105ab565b6040805192835260208301919091528051918290030190f35b3480156102e057600080fd5b506101926105c4565b3480156102f557600080fd5b506102536105d3565b34801561030a57600080fd5b506101c36105e3565b34801561031f57600080fd5b506101486004803603602081101561033657600080fd5b50356001600160a01b03166105e9565b34801561035257600080fd5b50610148610606565b600080825160208401856127105a03f43d604051816000823e82801561037f578282f35b8282fd5b61038b610533565b61039457600080fd5b6001600160a01b0381166103e7576040805162461bcd60e51b8152602060048201526015602482015274494e56414c49445f50524f58595f4144445245535360581b604482015290519081900360640190fd5b6103f081610664565b61042b5760405162461bcd60e51b81526004018080602001828103825260258152602001806106f66025913960400191505060405180910390fd5b6001546040516001600160a01b03918216918316907fd32d24edea94f55e932d9a008afc425a8561462d1b1f57bc6e508e9a6b9509e190600090a3600180546001600160a01b0319166001600160a01b0392909216919091179055565b6007546001600160a01b031681565b600290565b6002546001600160a01b031681565b6001546001600160a01b031690565b6104c2610533565b6104cb57600080fd5b600080546040516001600160a01b03909116907f8be0079c531659141344cd1fd0a4f28419497f9722a3daafe3b4186f6b6457e0908390a3600080546001600160a01b0319169055565b6003546001600160a01b031681565b6000546001600160a01b031690565b6000546001600160a01b0316331490565b6004546001600160a01b031681565b6002546001600160a01b0316331461059c5760405162461bcd60e51b815260040180806020018281038252602681526020018061071b6026913960400191505060405180910390fd5b6002805460ff60a01b19169055565b6006602052600090815260409020805460019091015482565b6005546001600160a01b031681565b600254600160a01b900460ff1681565b60085481565b6105f1610533565b6105fa57600080fd5b61060381610687565b50565b6002546001600160a01b0316331461064f5760405162461bcd60e51b815260040180806020018281038252602681526020018061071b6026913960400191505060405180910390fd5b6002805460ff60a01b1916600160a01b179055565b60006001600160a01b03821661067c57506000610682565b50803b15155b919050565b6001600160a01b03811661069a57600080fd5b600080546040516001600160a01b03808516939216917f8be0079c531659141344cd1fd0a4f28419497f9722a3daafe3b4186f6b6457e091a3600080546001600160a01b0319166001600160a01b039290921691909117905556fe44455354494e4154494f4e5f414444524553535f49535f4e4f545f415f434f4e54524143544f6e6c7920676f7665726e616e636520636f6e747261637420697320617574686f72697a6564a265627a7a72315820be2c2e7137ef73c41cd32208cedf571654b434adcd84a1bab0b3481d0a5e9f4164736f6c634300050b003244455354494e4154494f4e5f414444524553535f49535f4e4f545f415f434f4e5452414354",
  "source": "pragma solidity ^0.5.2;\n\nimport {DepositManagerStorage} from \"./DepositManagerStorage.sol\";\nimport {Proxy} from \"../../common/misc/Proxy.sol\";\nimport {Registry} from \"../../common/Registry.sol\";\nimport {RootChain} from \"../RootChain.sol\";\nimport {Lockable} from \"../../common/mixin/Lockable.sol\";\n\ncontract DepositManagerProxy is Proxy, DepositManagerStorage {\n    constructor(\n        address _proxyTo,\n        address _registry,\n        address _rootChain,\n        address _governance\n    ) public Proxy(_proxyTo) Lockable(_governance) {\n        registry = Registry(_registry);\n        rootChain = RootChain(_rootChain);\n    }\n}\n",
  "sourcePath": "/Users/arth/Documents/Projects/contracts/contracts/root/depositManager/DepositManagerProxy.sol",
  "compiler": {
    "name": "solc",
    "version": "0.5.11+commit.c082d0b4.Emscripten.clang"
  },
  "schemaVersion": "3.0.14",
  "updatedAt": "2020-06-08T05:57:39.502Z",
  "devdoc": {
    "methods": {
      "isOwner()": {
        "return": "true if `msg.sender` is the owner of the contract."
      },
      "owner()": {
        "return": "the address of the owner."
      },
      "renounceOwnership()": {
        "details": "Allows the current owner to relinquish control of the contract. It will not be possible to call the functions with the `onlyOwner` modifier anymore."
      },
      "transferOwnership(address)": {
        "details": "Allows the current owner to transfer control of the contract to a newOwner.",
        "params": {
          "newOwner": "The address to transfer ownership to."
        }
      }
    }
  },
  "userdoc": {
    "methods": {
      "renounceOwnership()": {
        "notice": "Renouncing ownership will leave the contract without an owner, thereby removing any functionality that is only available to the owner."
      }
    }
  }
}