{
  "contractName": "ECVerify",
  "abi": [
    {
      "constant": true,
      "inputs": [
        {
          "internalType": "bytes32",
          "name": "hash",
          "type": "bytes32"
        },
        {
          "internalType": "bytes",
          "name": "sig",
          "type": "bytes"
        }
      ],
      "name": "ecrecovery",
      "outputs": [
        {
          "internalType": "address",
          "name": "",
          "type": "address"
        }
      ],
      "payable": false,
      "stateMutability": "pure",
      "type": "function"
    },
    {
      "constant": true,
      "inputs": [
        {
          "internalType": "bytes32",
          "name": "hash",
          "type": "bytes32"
        },
        {
          "internalType": "uint8",
          "name": "v",
          "type": "uint8"
        },
        {
          "internalType": "bytes32",
          "name": "r",
          "type": "bytes32"
        },
        {
          "internalType": "bytes32",
          "name": "s",
          "type": "bytes32"
        }
      ],
      "name": "ecrecovery",
      "outputs": [
        {
          "internalType": "address",
          "name": "",
          "type": "address"
        }
      ],
      "payable": false,
      "stateMutability": "pure",
      "type": "function"
    },
    {
      "constant": true,
      "inputs": [
        {
          "internalType": "bytes32",
          "name": "hash",
          "type": "bytes32"
        },
        {
          "internalType": "bytes",
          "name": "sig",
          "type": "bytes"
        },
        {
          "internalType": "address",
          "name": "signer",
          "type": "address"
        }
      ],
      "name": "ecverify",
      "outputs": [
        {
          "internalType": "bool",
          "name": "",
          "type": "bool"
        }
      ],
      "payable": false,
      "stateMutability": "pure",
      "type": "function"
    }
  ],
  "bytecode": "0x610430610026600b82828239805160001a60731461001957fe5b30600052607381538281f3fe730000000000000000000000000000000000000000301460806040526004361061004b5760003560e01c806339cdde321461005057806377d32e941461011c57806398ea1c51146101e5575b600080fd5b6101086004803603606081101561006657600080fd5b8135919081019060408101602082013564010000000081111561008857600080fd5b82018360208201111561009a57600080fd5b803590602001918460018302840111640100000000831117156100bc57600080fd5b91908080601f016020809104026020016040519081016040528093929190818152602001838380828437600092019190915250929550505090356001600160a01b031691506102179050565b604080519115158252519081900360200190f35b6101c96004803603604081101561013257600080fd5b8135919081019060408101602082013564010000000081111561015457600080fd5b82018360208201111561016657600080fd5b8035906020019184600183028401116401000000008311171561018857600080fd5b91908080601f016020809104026020016040519081016040528093929190818152602001838380828437600092019190915250929550610240945050505050565b604080516001600160a01b039092168252519081900360200190f35b6101c9600480360360808110156101fb57600080fd5b5080359060ff602082013516906040810135906060013561032a565b60006102238484610240565b6001600160a01b0316826001600160a01b03161490509392505050565b600080600080845160411461025b5760009350505050610324565b50505060208201516040830151604184015160ff16601b81101561027d57601b015b8060ff16601b1415801561029557508060ff16601c14155b156102a65760009350505050610324565b60408051600080825260208083018085528a905260ff85168385015260608301879052608083018690529251909260019260a080820193601f1981019281900390910190855afa1580156102fe573d6000803e3d6000fd5b5050604051601f1901519150506001600160a01b03811661031e57600080fd5b93505050505b92915050565b60008060018686868660405160008152602001604052604051808581526020018460ff1660ff1681526020018381526020018281526020019450505050506020604051602081039080840390855afa15801561038a573d6000803e3d6000fd5b5050604051601f1901519150506001600160a01b0381166103f2576040805162461bcd60e51b815260206004820152601d60248201527f7369676e617475726520766572696669636174696f6e206661696c6564000000604482015290519081900360640190fd5b9594505050505056fea265627a7a723158205812fee26946ab2d8564abd796410d1a01329e59f34e47249847a9b0b16682e664736f6c634300050b0032",
  "source": "pragma solidity ^0.5.2;\n\n\nlibrary ECVerify {\n    function ecrecovery(bytes32 hash, bytes memory sig)\n        public\n        pure\n        returns (address)\n    {\n        bytes32 r;\n        bytes32 s;\n        uint8 v;\n\n        if (sig.length != 65) {\n            return address(0x0);\n        }\n\n        assembly {\n            r := mload(add(sig, 32))\n            s := mload(add(sig, 64))\n            v := and(mload(add(sig, 65)), 255)\n        }\n\n        // https://github.com/ethereum/go-ethereum/issues/2053\n        if (v < 27) {\n            v += 27;\n        }\n\n        if (v != 27 && v != 28) {\n            return address(0x0);\n        }\n\n        // get address out of hash and signature\n        address result = ecrecover(hash, v, r, s);\n\n        // ecrecover returns zero on error\n        require(result != address(0x0));\n\n        return result;\n    }\n\n    function ecrecovery(bytes32 hash, uint8 v, bytes32 r, bytes32 s)\n        public\n        pure\n        returns (address)\n    {\n        // get address out of hash and signature\n        address result = ecrecover(hash, v, r, s);\n\n        // ecrecover returns zero on error\n        require(result != address(0x0), \"signature verification failed\");\n\n        return result;\n    }\n\n    function ecverify(bytes32 hash, bytes memory sig, address signer)\n        public\n        pure\n        returns (bool)\n    {\n        return signer == ecrecovery(hash, sig);\n    }\n}\n",
  "sourcePath": "/Users/arth/Documents/Projects/contracts/contracts/common/lib/ECVerify.sol",
  "compiler": {
    "name": "solc",
    "version": "0.5.11+commit.c082d0b4.Emscripten.clang"
  },
  "schemaVersion": "3.0.14",
  "updatedAt": "2020-06-08T05:57:39.430Z",
  "devdoc": {
    "methods": {}
  },
  "userdoc": {
    "methods": {}
  }
}