{
  "contractName": "ValidatorShareFactory",
  "abi": [
    {
      "constant": false,
      "inputs": [
        {
          "internalType": "uint256",
          "name": "validatorId",
          "type": "uint256"
        },
        {
          "internalType": "address",
          "name": "loggerAddress",
          "type": "address"
        },
        {
          "internalType": "address",
          "name": "registry",
          "type": "address"
        }
      ],
      "name": "create",
      "outputs": [
        {
          "internalType": "address",
          "name": "",
          "type": "address"
        }
      ],
      "payable": false,
      "stateMutability": "nonpayable",
      "type": "function"
    }
  ],
  "bytecode": "0x608060405234801561001057600080fd5b506114b6806100206000396000f3fe608060405234801561001057600080fd5b506004361061002b5760003560e01c8063d4ad267314610030575b600080fd5b6100646004803603606081101561004657600080fd5b508035906001600160a01b0360208201358116916040013516610080565b604080516001600160a01b039092168252519081900360200190f35b600081848433604051610092906100e2565b6001600160a01b039485168152602081019390935290831660408084019190915292166060820152905190819003608001906000f0801580156100d9573d6000803e3d6000fd5b50949350505050565b611392806100f08339019056fe6080604052670de0b6b3a7640000600c556010805460ff191660011790553480156200002a57600080fd5b506040516200139238038062001392833981810160405260808110156200005057600080fd5b5080516020820151604080840151606090940151600080546001600160a01b031916331780825592519495939491928392839288926001600160a01b03169160008051602062001372833981519152908290a3620000b7816001600160e01b036200010e16565b50600580546001600160a01b03199081166001600160a01b039384161790915560088690556006805482168684161790556007805490911691841691909117905550620001048162000269565b50505050620002fd565b620001216001600160e01b03620002c716565b6200012b57600080fd5b6001600160a01b038116620001a157604080517f08c379a000000000000000000000000000000000000000000000000000000000815260206004820152601560248201527f494e56414c49445f50524f58595f414444524553530000000000000000000000604482015290519081900360640190fd5b620001b5816001600160e01b03620002d816565b6200020c576040517f08c379a00000000000000000000000000000000000000000000000000000000081526004018080602001828103825260258152602001806200134d6025913960400191505060405180910390fd5b6001546040516001600160a01b03918216918316907fd32d24edea94f55e932d9a008afc425a8561462d1b1f57bc6e508e9a6b9509e190600090a3600180546001600160a01b0319166001600160a01b0392909216919091179055565b6001600160a01b0381166200027d57600080fd5b600080546040516001600160a01b03808516939216916000805160206200137283398151915291a3600080546001600160a01b0319166001600160a01b0392909216919091179055565b6000546001600160a01b0316331490565b60006001600160a01b038216620002f257506000620002f8565b50803b15155b919050565b611040806200030d6000396000f3fe60806040526004361061020f5760003560e01c80637542ff9511610118578063a69df4b5116100a0578063dd62ed3e1161006f578063dd62ed3e14610695578063df5cf723146106d0578063ef40a670146106e5578063f2fde38b14610718578063f83d08ba1461074b5761020f565b8063a69df4b5146105fc578063a9059cbb14610611578063b37f25901461064a578063cf309012146106805761020f565b80638da5cb5b116100e75780638da5cb5b1461056f5780638f32d59b146105845780639b2cb5d8146105995780639ec5a894146105ae578063a457c2d7146105c35761020f565b80637542ff95146104e45780638b0e9f3f146104f95780638d086da41461050e5780638d23fc61146105235761020f565b80634555d5c91161019b5780635c60da1b1161016a5780635c60da1b1461045d5780635d1e3616146104725780635ea1d6f81461048757806370a082311461049c578063715018a6146104cf5761020f565b80634555d5c9146104095780635aa6e6751461041e5780635c42c733146104335780635c5f7dae146104485761020f565b806318160ddd116101e257806318160ddd1461033257806323b872dd14610347578063395093511461038a5780633a09bf44146103c35780633d94eb05146103d85761020f565b8063025b22bc1461025b578063095ea7b31461028e5780630d331908146102db5780630d58a5f31461030b575b60015460408051602036601f8101829004820283018201909352828252610259936001600160a01b0316926000918190840183828082843760009201919091525061076092505050565b005b34801561026757600080fd5b506102596004803603602081101561027e57600080fd5b50356001600160a01b03166107d2565b34801561029a57600080fd5b506102c7600480360360408110156102b157600080fd5b506001600160a01b0381351690602001356108d7565b604080519115158252519081900360200190f35b3480156102e757600080fd5b50610259600480360360408110156102fe57600080fd5b50803590602001356108ee565b34801561031757600080fd5b50610320610928565b60408051918252519081900360200190f35b34801561033e57600080fd5b5061032061092e565b34801561035357600080fd5b506102c76004803603606081101561036a57600080fd5b506001600160a01b03813581169160208101359091169060400135610934565b34801561039657600080fd5b506102c7600480360360408110156103ad57600080fd5b506001600160a01b03813516906020013561098b565b3480156103cf57600080fd5b506103206109c7565b3480156103e457600080fd5b506103ed6109cd565b604080516001600160a01b039092168252519081900360200190f35b34801561041557600080fd5b506103206109dc565b34801561042a57600080fd5b506103ed6109e1565b34801561043f57600080fd5b506103206109f0565b34801561045457600080fd5b506103206109f6565b34801561046957600080fd5b506103ed6109fc565b34801561047e57600080fd5b50610320610a72565b34801561049357600080fd5b50610320610a78565b3480156104a857600080fd5b50610320600480360360208110156104bf57600080fd5b50356001600160a01b0316610a7e565b3480156104db57600080fd5b50610259610a9d565b3480156104f057600080fd5b506103ed610af8565b34801561050557600080fd5b50610320610b07565b34801561051a57600080fd5b50610320610b0d565b34801561052f57600080fd5b506105566004803603602081101561054657600080fd5b50356001600160a01b0316610b13565b6040805192835260208301919091528051918290030190f35b34801561057b57600080fd5b506103ed610b2c565b34801561059057600080fd5b506102c7610b3b565b3480156105a557600080fd5b50610320610b4c565b3480156105ba57600080fd5b50610320610b52565b3480156105cf57600080fd5b506102c7600480360360408110156105e657600080fd5b506001600160a01b038135169060200135610b58565b34801561060857600080fd5b50610259610b94565b34801561061d57600080fd5b506102c76004803603604081101561063457600080fd5b506001600160a01b038135169060200135610bec565b34801561065657600080fd5b506103206004803603606081101561066d57600080fd5b5080359060208101359060400135610bf9565b34801561068c57600080fd5b506102c7610c5d565b3480156106a157600080fd5b50610320600480360360408110156106b857600080fd5b506001600160a01b0381358116916020013516610c6d565b3480156106dc57600080fd5b506102c7610c98565b3480156106f157600080fd5b506103206004803603602081101561070857600080fd5b50356001600160a01b0316610ca1565b34801561072457600080fd5b506102596004803603602081101561073b57600080fd5b50356001600160a01b0316610cb3565b34801561075757600080fd5b50610259610cd0565b6107ce826001600160a01b0316631c9486ef6040518163ffffffff1660e01b815260040160206040518083038186803b15801561079c57600080fd5b505afa1580156107b0573d6000803e3d6000fd5b505050506040513d60208110156107c657600080fd5b505182610d2e565b5050565b6107da610b3b565b6107e357600080fd5b6001600160a01b038116610836576040805162461bcd60e51b8152602060048201526015602482015274494e56414c49445f50524f58595f4144445245535360581b604482015290519081900360640190fd5b61083f81610d56565b61087a5760405162461bcd60e51b8152600401808060200182810382526025815260200180610fc16025913960400191505060405180910390fd5b6001546040516001600160a01b03918216918316907fd32d24edea94f55e932d9a008afc425a8561462d1b1f57bc6e508e9a6b9509e190600090a3600180546001600160a01b0319166001600160a01b0392909216919091179055565b60006108e4338484610d75565b5060015b92915050565b6108f6610b3b565b6108ff57600080fd5b6000610916600f5483610dfd90919063ffffffff16565b9050610923838383610e16565b505050565b600b5481565b60045490565b6000610941848484610ebc565b6001600160a01b03841660009081526003602090815260408083203380855292529091205461098191869161097c908663ffffffff610ef416565b610d75565b5060019392505050565b3360008181526003602090815260408083206001600160a01b038716845290915281205490916108e491859061097c908663ffffffff610dfd16565b600f5481565b6006546001600160a01b031681565b600290565b6005546001600160a01b031681565b60115481565b60085481565b60015460408051631c9486ef60e01b815290516000926001600160a01b031691631c9486ef916004808301926020929190829003018186803b158015610a4157600080fd5b505afa158015610a55573d6000803e3d6000fd5b505050506040513d6020811015610a6b57600080fd5b5051905090565b60095481565b600a5481565b6001600160a01b0381166000908152600260205260409020545b919050565b610aa5610b3b565b610aae57600080fd5b600080546040516001600160a01b03909116907f8be0079c531659141344cd1fd0a4f28419497f9722a3daafe3b4186f6b6457e0908390a3600080546001600160a01b0319169055565b6007546001600160a01b031681565b600d5481565b60125481565b6014602052600090815260409020805460019091015482565b6000546001600160a01b031690565b6000546001600160a01b0316331490565b600c5481565b600e5481565b3360008181526003602090815260408083206001600160a01b038716845290915281205490916108e491859061097c908663ffffffff610ef416565b6005546001600160a01b03163314610bdd5760405162461bcd60e51b8152600401808060200182810382526026815260200180610fe66026913960400191505060405180910390fd5b6005805460ff60a01b19169055565b60006108e4338484610ebc565b6000610c03610b3b565b610c0c57600080fd5b6000610c23600f5484610dfd90919063ffffffff16565b90506000610c4785610c3b848963ffffffff610f0916565b9063ffffffff610f3016565b9050610c54818584610e16565b50949350505050565b600554600160a01b900460ff1681565b6001600160a01b03918216600090815260036020908152604080832093909416825291909152205490565b60105460ff1681565b60136020526000908152604090205481565b610cbb610b3b565b610cc457600080fd5b610ccd81610f52565b50565b6005546001600160a01b03163314610d195760405162461bcd60e51b8152600401808060200182810382526026815260200180610fe66026913960400191505060405180910390fd5b6005805460ff60a01b1916600160a01b179055565b600080825160208401856127105a03f43d604051816000823e828015610d52578282f35b8282fd5b60006001600160a01b038216610d6e57506000610a98565b503b151590565b6001600160a01b038216610d8857600080fd5b6001600160a01b038316610d9b57600080fd5b6001600160a01b03808416600081815260036020908152604080832094871680845294825291829020859055815185815291517f8c5be1e5ebec7d5bd14f71427d1e84f3dd0314c0f7b2291e5b200ac8c7c3b9259281900390910190a3505050565b600082820183811015610e0f57600080fd5b9392505050565b6000610e2c82610c3b858763ffffffff610f0916565b600a5490915015610e7457610e71610e646064610c3b600a54610e58868a610ef490919063ffffffff16565b9063ffffffff610f0916565b829063ffffffff610dfd16565b90505b600954610e87908263ffffffff610dfd16565b6009556000610e9c858363ffffffff610ef416565b600e54909150610eb2908263ffffffff610dfd16565b600e555050505050565b6040805162461bcd60e51b8152602060048201526008602482015267111a5cd8589b195960c21b604482015290519081900360640190fd5b600082821115610f0357600080fd5b50900390565b600082610f18575060006108e8565b82820282848281610f2557fe5b0414610e0f57600080fd5b6000808211610f3e57600080fd5b6000828481610f4957fe5b04949350505050565b6001600160a01b038116610f6557600080fd5b600080546040516001600160a01b03808516939216917f8be0079c531659141344cd1fd0a4f28419497f9722a3daafe3b4186f6b6457e091a3600080546001600160a01b0319166001600160a01b039290921691909117905556fe44455354494e4154494f4e5f414444524553535f49535f4e4f545f415f434f4e54524143544f6e6c7920676f7665726e616e636520636f6e747261637420697320617574686f72697a6564a265627a7a72315820cc7f0b21257609a87b25e674e558ec5f4f425ac04a72324e72543d6b0134613164736f6c634300050b003244455354494e4154494f4e5f414444524553535f49535f4e4f545f415f434f4e54524143548be0079c531659141344cd1fd0a4f28419497f9722a3daafe3b4186f6b6457e0a265627a7a723158200418b7557651b176eeea5dfb471881da5287bdc0a6946d9c9f8c8d524944a7bd64736f6c634300050b0032",
  "source": "pragma solidity ^0.5.2;\n\nimport {ValidatorShareProxy} from \"./ValidatorShareProxy.sol\";\n\n\ncontract ValidatorShareFactory {\n    /**\n    - factory to create new validatorShare contracts\n   */\n\n    function create(uint256 validatorId, address loggerAddress, address registry) public returns (address) {\n        return address(new ValidatorShareProxy(registry, validatorId, loggerAddress, msg.sender));\n    }\n}\n",
  "sourcePath": "/Users/arth/Documents/Projects/contracts/contracts/staking/validatorShare/ValidatorShareFactory.sol",
  "compiler": {
    "name": "solc",
    "version": "0.5.11+commit.c082d0b4.Emscripten.clang"
  },
  "schemaVersion": "3.0.14",
  "updatedAt": "2020-06-08T05:57:39.653Z",
  "devdoc": {
    "methods": {}
  },
  "userdoc": {
    "methods": {
      "create(uint256,address,address)": {
        "notice": "- factory to create new validatorShare contracts"
      }
    }
  }
}