{
  "contractName": "RootChainProxy",
  "abi": [
    {
      "constant": false,
      "inputs": [
        {
          "internalType": "address",
          "name": "_newProxyTo",
          "type": "address"
        }
      ],
      "name": "updateImplementation",
      "outputs": [],
      "payable": false,
      "stateMutability": "nonpayable",
      "type": "function"
    },
    {
      "constant": true,
      "inputs": [
        {
          "internalType": "uint256",
          "name": "",
          "type": "uint256"
        }
      ],
      "name": "headerBlocks",
      "outputs": [
        {
          "internalType": "bytes32",
          "name": "root",
          "type": "bytes32"
        },
        {
          "internalType": "uint256",
          "name": "start",
          "type": "uint256"
        },
        {
          "internalType": "uint256",
          "name": "end",
          "type": "uint256"
        },
        {
          "internalType": "uint256",
          "name": "createdAt",
          "type": "uint256"
        },
        {
          "internalType": "address",
          "name": "proposer",
          "type": "address"
        }
      ],
      "payable": false,
      "stateMutability": "view",
      "type": "function"
    },
    {
      "constant": true,
      "inputs": [],
      "name": "proxyType",
      "outputs": [
        {
          "internalType": "uint256",
          "name": "proxyTypeId",
          "type": "uint256"
        }
      ],
      "payable": false,
      "stateMutability": "pure",
      "type": "function"
    },
    {
      "constant": true,
      "inputs": [],
      "name": "implementation",
      "outputs": [
        {
          "internalType": "address",
          "name": "",
          "type": "address"
        }
      ],
      "payable": false,
      "stateMutability": "view",
      "type": "function"
    },
    {
      "constant": false,
      "inputs": [],
      "name": "renounceOwnership",
      "outputs": [],
      "payable": false,
      "stateMutability": "nonpayable",
      "type": "function"
    },
    {
      "constant": true,
      "inputs": [],
      "name": "_nextHeaderBlock",
      "outputs": [
        {
          "internalType": "uint256",
          "name": "",
          "type": "uint256"
        }
      ],
      "payable": false,
      "stateMutability": "view",
      "type": "function"
    },
    {
      "constant": true,
      "inputs": [],
      "name": "owner",
      "outputs": [
        {
          "internalType": "address",
          "name": "",
          "type": "address"
        }
      ],
      "payable": false,
      "stateMutability": "view",
      "type": "function"
    },
    {
      "constant": true,
      "inputs": [],
      "name": "isOwner",
      "outputs": [
        {
          "internalType": "bool",
          "name": "",
          "type": "bool"
        }
      ],
      "payable": false,
      "stateMutability": "view",
      "type": "function"
    },
    {
      "constant": true,
      "inputs": [],
      "name": "VOTE_TYPE",
      "outputs": [
        {
          "internalType": "uint8",
          "name": "",
          "type": "uint8"
        }
      ],
      "payable": false,
      "stateMutability": "view",
      "type": "function"
    },
    {
      "constant": false,
      "inputs": [
        {
          "internalType": "address",
          "name": "newOwner",
          "type": "address"
        }
      ],
      "name": "transferOwnership",
      "outputs": [],
      "payable": false,
      "stateMutability": "nonpayable",
      "type": "function"
    },
    {
      "constant": true,
      "inputs": [],
      "name": "heimdallId",
      "outputs": [
        {
          "internalType": "bytes32",
          "name": "",
          "type": "bytes32"
        }
      ],
      "payable": false,
      "stateMutability": "view",
      "type": "function"
    },
    {
      "inputs": [
        {
          "internalType": "address",
          "name": "_proxyTo",
          "type": "address"
        },
        {
          "internalType": "address",
          "name": "_registry",
          "type": "address"
        },
        {
          "internalType": "string",
          "name": "_heimdallId",
          "type": "string"
        }
      ],
      "payable": false,
      "stateMutability": "nonpayable",
      "type": "constructor"
    },
    {
      "payable": true,
      "stateMutability": "payable",
      "type": "fallback"
    },
    {
      "anonymous": false,
      "inputs": [
        {
          "indexed": true,
          "internalType": "address",
          "name": "proposer",
          "type": "address"
        },
        {
          "indexed": true,
          "internalType": "uint256",
          "name": "headerBlockId",
          "type": "uint256"
        },
        {
          "indexed": true,
          "internalType": "uint256",
          "name": "reward",
          "type": "uint256"
        },
        {
          "indexed": false,
          "internalType": "uint256",
          "name": "start",
          "type": "uint256"
        },
        {
          "indexed": false,
          "internalType": "uint256",
          "name": "end",
          "type": "uint256"
        },
        {
          "indexed": false,
          "internalType": "bytes32",
          "name": "root",
          "type": "bytes32"
        }
      ],
      "name": "NewHeaderBlock",
      "type": "event"
    },
    {
      "anonymous": false,
      "inputs": [
        {
          "indexed": true,
          "internalType": "address",
          "name": "_new",
          "type": "address"
        },
        {
          "indexed": true,
          "internalType": "address",
          "name": "_old",
          "type": "address"
        }
      ],
      "name": "ProxyUpdated",
      "type": "event"
    },
    {
      "anonymous": false,
      "inputs": [
        {
          "indexed": false,
          "internalType": "address",
          "name": "_prevOwner",
          "type": "address"
        },
        {
          "indexed": false,
          "internalType": "address",
          "name": "_newOwner",
          "type": "address"
        }
      ],
      "name": "OwnerUpdate",
      "type": "event"
    },
    {
      "anonymous": false,
      "inputs": [
        {
          "indexed": true,
          "internalType": "address",
          "name": "previousOwner",
          "type": "address"
        },
        {
          "indexed": true,
          "internalType": "address",
          "name": "newOwner",
          "type": "address"
        }
      ],
      "name": "OwnershipTransferred",
      "type": "event"
    }
  ],
  "bytecode": "0x6080604052612710600355600160045534801561001b57600080fd5b506040516109603803806109608339818101604052606081101561003e57600080fd5b8151602083015160408085018051915193959294830192918464010000000082111561006957600080fd5b90830190602082018581111561007e57600080fd5b825164010000000081118282018810171561009857600080fd5b82525081516020918201929091019080838360005b838110156100c55781810151838201526020016100ad565b50505050905090810190601f1680156100f25780820380516001836020036101000a031916815260200191505b506040819052600080546001600160a01b03191633178082558895506001600160a01b0316935091507f8be0079c531659141344cd1fd0a4f28419497f9722a3daafe3b4186f6b6457e0908290a3610152816001600160e01b036101ec16565b50600680546001600160a01b0319166001600160a01b0384161790556040518151829160209081019182918401908083835b602083106101a35780518252601f199092019160209182019101610184565b6001836020036101000a03801982511681845116808217855250505050505090500191505060405160208183030381529060405280519060200120600281905550505050610373565b6101fd6001600160e01b0361033f16565b61020657600080fd5b6001600160a01b03811661027b57604080517f08c379a000000000000000000000000000000000000000000000000000000000815260206004820152601560248201527f494e56414c49445f50524f58595f414444524553530000000000000000000000604482015290519081900360640190fd5b61028d816001600160e01b0361035016565b6102e2576040517f08c379a000000000000000000000000000000000000000000000000000000000815260040180806020018281038252602581526020018061093b6025913960400191505060405180910390fd5b6001546040516001600160a01b03918216918316907fd32d24edea94f55e932d9a008afc425a8561462d1b1f57bc6e508e9a6b9509e190600090a3600180546001600160a01b0319166001600160a01b0392909216919091179055565b6000546001600160a01b0316331490565b60006001600160a01b0382166103685750600061036e565b50803b15155b919050565b6105b9806103826000396000f3fe60806040526004361061009c5760003560e01c80638d978d88116100645780638d978d88146101e65780638da5cb5b146101fb5780638f32d59b14610210578063d5b844eb14610239578063f2fde38b14610264578063fbc3dd36146102975761009c565b8063025b22bc146100e857806341539d4a1461011b5780634555d5c9146101795780635c60da1b146101a0578063715018a6146101d1575b60015460408051602036601f81018290048202830182019093528282526100e6936001600160a01b031692600091819084018382808284376000920191909152506102ac92505050565b005b3480156100f457600080fd5b506100e66004803603602081101561010b57600080fd5b50356001600160a01b03166102d4565b34801561012757600080fd5b506101456004803603602081101561013e57600080fd5b50356103d9565b6040805195865260208601949094528484019290925260608401526001600160a01b03166080830152519081900360a00190f35b34801561018557600080fd5b5061018e610411565b60408051918252519081900360200190f35b3480156101ac57600080fd5b506101b5610416565b604080516001600160a01b039092168252519081900360200190f35b3480156101dd57600080fd5b506100e6610425565b3480156101f257600080fd5b5061018e610480565b34801561020757600080fd5b506101b5610486565b34801561021c57600080fd5b50610225610495565b604080519115158252519081900360200190f35b34801561024557600080fd5b5061024e6104a6565b6040805160ff9092168252519081900360200190f35b34801561027057600080fd5b506100e66004803603602081101561028757600080fd5b50356001600160a01b03166104ab565b3480156102a357600080fd5b5061018e6104c8565b600080825160208401856127105a03f43d604051816000823e8280156102d0578282f35b8282fd5b6102dc610495565b6102e557600080fd5b6001600160a01b038116610338576040805162461bcd60e51b8152602060048201526015602482015274494e56414c49445f50524f58595f4144445245535360581b604482015290519081900360640190fd5b610341816104ce565b61037c5760405162461bcd60e51b81526004018080602001828103825260258152602001806105606025913960400191505060405180910390fd5b6001546040516001600160a01b03918216918316907fd32d24edea94f55e932d9a008afc425a8561462d1b1f57bc6e508e9a6b9509e190600090a3600180546001600160a01b0319166001600160a01b0392909216919091179055565b60056020526000908152604090208054600182015460028301546003840154600490940154929391929091906001600160a01b031685565b600290565b6001546001600160a01b031690565b61042d610495565b61043657600080fd5b600080546040516001600160a01b03909116907f8be0079c531659141344cd1fd0a4f28419497f9722a3daafe3b4186f6b6457e0908390a3600080546001600160a01b0319169055565b60035481565b6000546001600160a01b031690565b6000546001600160a01b0316331490565b600281565b6104b3610495565b6104bc57600080fd5b6104c5816104f1565b50565b60025481565b60006001600160a01b0382166104e6575060006104ec565b50803b15155b919050565b6001600160a01b03811661050457600080fd5b600080546040516001600160a01b03808516939216917f8be0079c531659141344cd1fd0a4f28419497f9722a3daafe3b4186f6b6457e091a3600080546001600160a01b0319166001600160a01b039290921691909117905556fe44455354494e4154494f4e5f414444524553535f49535f4e4f545f415f434f4e5452414354a265627a7a7231582031457aa9217e530c6c5df88f1170f26d875c115764fdad8e7cb743d36f184c7564736f6c634300050b003244455354494e4154494f4e5f414444524553535f49535f4e4f545f415f434f4e5452414354",
  "source": "pragma solidity ^0.5.2;\n\nimport {RootChainStorage} from \"./RootChainStorage.sol\";\nimport {Proxy} from \"../common/misc/Proxy.sol\";\nimport {Registry} from \"../common/Registry.sol\";\n\ncontract RootChainProxy is Proxy, RootChainStorage {\n  constructor(address _proxyTo, address _registry, string memory _heimdallId)\n    public\n    Proxy(_proxyTo)\n  {\n    registry = Registry(_registry);\n    heimdallId = keccak256(abi.encodePacked(_heimdallId));\n  }\n}\n",
  "sourcePath": "/Users/arth/Documents/Projects/contracts/contracts/root/RootChainProxy.sol",
  "compiler": {
    "name": "solc",
    "version": "0.5.11+commit.c082d0b4.Emscripten.clang"
  },
  "schemaVersion": "3.0.14",
  "updatedAt": "2020-04-06T09:29:52.744Z",
  "devdoc": {
    "methods": {
      "isOwner()": {
        "return": "true if `msg.sender` is the owner of the contract."
      },
      "owner()": {
        "return": "the address of the owner."
      },
      "renounceOwnership()": {
        "details": "Allows the current owner to relinquish control of the contract. It will not be possible to call the functions with the `onlyOwner` modifier anymore."
      },
      "transferOwnership(address)": {
        "details": "Allows the current owner to transfer control of the contract to a newOwner.",
        "params": {
          "newOwner": "The address to transfer ownership to."
        }
      }
    }
  },
  "userdoc": {
    "methods": {
      "renounceOwnership()": {
        "notice": "Renouncing ownership will leave the contract without an owner, thereby removing any functionality that is only available to the owner."
      }
    }
  }
}