{
  "contractName": "StakeManagerProxy",
  "abi": [
    {
      "constant": false,
      "inputs": [
        {
          "internalType": "address",
          "name": "_newProxyTo",
          "type": "address"
        }
      ],
      "name": "updateImplementation",
      "outputs": [],
      "payable": false,
      "stateMutability": "nonpayable",
      "type": "function"
    },
    {
      "constant": true,
      "inputs": [],
      "name": "auctionPeriod",
      "outputs": [
        {
          "internalType": "uint256",
          "name": "",
          "type": "uint256"
        }
      ],
      "payable": false,
      "stateMutability": "view",
      "type": "function"
    },
    {
      "constant": true,
      "inputs": [],
      "name": "totalRewards",
      "outputs": [
        {
          "internalType": "uint256",
          "name": "",
          "type": "uint256"
        }
      ],
      "payable": false,
      "stateMutability": "view",
      "type": "function"
    },
    {
      "constant": true,
      "inputs": [],
      "name": "WITHDRAWAL_DELAY",
      "outputs": [
        {
          "internalType": "uint256",
          "name": "",
          "type": "uint256"
        }
      ],
      "payable": false,
      "stateMutability": "view",
      "type": "function"
    },
    {
      "constant": true,
      "inputs": [],
      "name": "accountStateRoot",
      "outputs": [
        {
          "internalType": "bytes32",
          "name": "",
          "type": "bytes32"
        }
      ],
      "payable": false,
      "stateMutability": "view",
      "type": "function"
    },
    {
      "constant": true,
      "inputs": [],
      "name": "checkPointBlockInterval",
      "outputs": [
        {
          "internalType": "uint256",
          "name": "",
          "type": "uint256"
        }
      ],
      "payable": false,
      "stateMutability": "view",
      "type": "function"
    },
    {
      "constant": true,
      "inputs": [],
      "name": "NFTContract",
      "outputs": [
        {
          "internalType": "contract StakingNFT",
          "name": "",
          "type": "address"
        }
      ],
      "payable": false,
      "stateMutability": "view",
      "type": "function"
    },
    {
      "constant": true,
      "inputs": [
        {
          "internalType": "uint256",
          "name": "",
          "type": "uint256"
        }
      ],
      "name": "validators",
      "outputs": [
        {
          "internalType": "uint256",
          "name": "amount",
          "type": "uint256"
        },
        {
          "internalType": "uint256",
          "name": "reward",
          "type": "uint256"
        },
        {
          "internalType": "uint256",
          "name": "activationEpoch",
          "type": "uint256"
        },
        {
          "internalType": "uint256",
          "name": "deactivationEpoch",
          "type": "uint256"
        },
        {
          "internalType": "uint256",
          "name": "jailTime",
          "type": "uint256"
        },
        {
          "internalType": "address",
          "name": "signer",
          "type": "address"
        },
        {
          "internalType": "address",
          "name": "contractAddress",
          "type": "address"
        },
        {
          "internalType": "enum StakeManagerStorage.Status",
          "name": "status",
          "type": "uint8"
        }
      ],
      "payable": false,
      "stateMutability": "view",
      "type": "function"
    },
    {
      "constant": true,
      "inputs": [
        {
          "internalType": "address",
          "name": "",
          "type": "address"
        }
      ],
      "name": "signerToValidator",
      "outputs": [
        {
          "internalType": "uint256",
          "name": "",
          "type": "uint256"
        }
      ],
      "payable": false,
      "stateMutability": "view",
      "type": "function"
    },
    {
      "constant": true,
      "inputs": [],
      "name": "minDeposit",
      "outputs": [
        {
          "internalType": "uint256",
          "name": "",
          "type": "uint256"
        }
      ],
      "payable": false,
      "stateMutability": "view",
      "type": "function"
    },
    {
      "constant": true,
      "inputs": [],
      "name": "proxyType",
      "outputs": [
        {
          "internalType": "uint256",
          "name": "proxyTypeId",
          "type": "uint256"
        }
      ],
      "payable": false,
      "stateMutability": "pure",
      "type": "function"
    },
    {
      "constant": true,
      "inputs": [],
      "name": "validatorThreshold",
      "outputs": [
        {
          "internalType": "uint256",
          "name": "",
          "type": "uint256"
        }
      ],
      "payable": false,
      "stateMutability": "view",
      "type": "function"
    },
    {
      "constant": true,
      "inputs": [
        {
          "internalType": "uint256",
          "name": "",
          "type": "uint256"
        }
      ],
      "name": "validatorAuction",
      "outputs": [
        {
          "internalType": "uint256",
          "name": "amount",
          "type": "uint256"
        },
        {
          "internalType": "uint256",
          "name": "startEpoch",
          "type": "uint256"
        },
        {
          "internalType": "address",
          "name": "user",
          "type": "address"
        }
      ],
      "payable": false,
      "stateMutability": "view",
      "type": "function"
    },
    {
      "constant": true,
      "inputs": [],
      "name": "NFTCounter",
      "outputs": [
        {
          "internalType": "uint256",
          "name": "",
          "type": "uint256"
        }
      ],
      "payable": false,
      "stateMutability": "view",
      "type": "function"
    },
    {
      "constant": true,
      "inputs": [],
      "name": "governance",
      "outputs": [
        {
          "internalType": "contract IGovernance",
          "name": "",
          "type": "address"
        }
      ],
      "payable": false,
      "stateMutability": "view",
      "type": "function"
    },
    {
      "constant": true,
      "inputs": [
        {
          "internalType": "uint256",
          "name": "",
          "type": "uint256"
        }
      ],
      "name": "validatorState",
      "outputs": [
        {
          "internalType": "int256",
          "name": "amount",
          "type": "int256"
        },
        {
          "internalType": "int256",
          "name": "stakerCount",
          "type": "int256"
        }
      ],
      "payable": false,
      "stateMutability": "view",
      "type": "function"
    },
    {
      "constant": true,
      "inputs": [],
      "name": "implementation",
      "outputs": [
        {
          "internalType": "address",
          "name": "",
          "type": "address"
        }
      ],
      "payable": false,
      "stateMutability": "view",
      "type": "function"
    },
    {
      "constant": true,
      "inputs": [],
      "name": "dynasty",
      "outputs": [
        {
          "internalType": "uint256",
          "name": "",
          "type": "uint256"
        }
      ],
      "payable": false,
      "stateMutability": "view",
      "type": "function"
    },
    {
      "constant": false,
      "inputs": [],
      "name": "renounceOwnership",
      "outputs": [],
      "payable": false,
      "stateMutability": "nonpayable",
      "type": "function"
    },
    {
      "constant": true,
      "inputs": [],
      "name": "currentEpoch",
      "outputs": [
        {
          "internalType": "uint256",
          "name": "",
          "type": "uint256"
        }
      ],
      "payable": false,
      "stateMutability": "view",
      "type": "function"
    },
    {
      "constant": true,
      "inputs": [],
      "name": "registry",
      "outputs": [
        {
          "internalType": "address",
          "name": "",
          "type": "address"
        }
      ],
      "payable": false,
      "stateMutability": "view",
      "type": "function"
    },
    {
      "constant": true,
      "inputs": [],
      "name": "CHECKPOINT_REWARD",
      "outputs": [
        {
          "internalType": "uint256",
          "name": "",
          "type": "uint256"
        }
      ],
      "payable": false,
      "stateMutability": "view",
      "type": "function"
    },
    {
      "constant": true,
      "inputs": [],
      "name": "totalStaked",
      "outputs": [
        {
          "internalType": "uint256",
          "name": "",
          "type": "uint256"
        }
      ],
      "payable": false,
      "stateMutability": "view",
      "type": "function"
    },
    {
      "constant": true,
      "inputs": [],
      "name": "owner",
      "outputs": [
        {
          "internalType": "address",
          "name": "",
          "type": "address"
        }
      ],
      "payable": false,
      "stateMutability": "view",
      "type": "function"
    },
    {
      "constant": true,
      "inputs": [],
      "name": "isOwner",
      "outputs": [
        {
          "internalType": "bool",
          "name": "",
          "type": "bool"
        }
      ],
      "payable": false,
      "stateMutability": "view",
      "type": "function"
    },
    {
      "constant": true,
      "inputs": [
        {
          "internalType": "uint256",
          "name": "",
          "type": "uint256"
        }
      ],
      "name": "validatorFeeExit",
      "outputs": [
        {
          "internalType": "uint256",
          "name": "",
          "type": "uint256"
        }
      ],
      "payable": false,
      "stateMutability": "view",
      "type": "function"
    },
    {
      "constant": true,
      "inputs": [],
      "name": "rootChain",
      "outputs": [
        {
          "internalType": "address",
          "name": "",
          "type": "address"
        }
      ],
      "payable": false,
      "stateMutability": "view",
      "type": "function"
    },
    {
      "constant": true,
      "inputs": [],
      "name": "totalHeimdallFee",
      "outputs": [
        {
          "internalType": "uint256",
          "name": "",
          "type": "uint256"
        }
      ],
      "payable": false,
      "stateMutability": "view",
      "type": "function"
    },
    {
      "constant": false,
      "inputs": [],
      "name": "unlock",
      "outputs": [],
      "payable": false,
      "stateMutability": "nonpayable",
      "type": "function"
    },
    {
      "constant": true,
      "inputs": [],
      "name": "factory",
      "outputs": [
        {
          "internalType": "contract ValidatorShareFactory",
          "name": "",
          "type": "address"
        }
      ],
      "payable": false,
      "stateMutability": "view",
      "type": "function"
    },
    {
      "constant": true,
      "inputs": [],
      "name": "totalRewardsLiquidated",
      "outputs": [
        {
          "internalType": "uint256",
          "name": "",
          "type": "uint256"
        }
      ],
      "payable": false,
      "stateMutability": "view",
      "type": "function"
    },
    {
      "constant": true,
      "inputs": [],
      "name": "locked",
      "outputs": [
        {
          "internalType": "bool",
          "name": "",
          "type": "bool"
        }
      ],
      "payable": false,
      "stateMutability": "view",
      "type": "function"
    },
    {
      "constant": false,
      "inputs": [
        {
          "internalType": "address",
          "name": "newRootChain",
          "type": "address"
        }
      ],
      "name": "changeRootChain",
      "outputs": [],
      "payable": false,
      "stateMutability": "nonpayable",
      "type": "function"
    },
    {
      "constant": true,
      "inputs": [],
      "name": "logger",
      "outputs": [
        {
          "internalType": "contract StakingInfo",
          "name": "",
          "type": "address"
        }
      ],
      "payable": false,
      "stateMutability": "view",
      "type": "function"
    },
    {
      "constant": false,
      "inputs": [
        {
          "internalType": "address",
          "name": "newOwner",
          "type": "address"
        }
      ],
      "name": "transferOwnership",
      "outputs": [],
      "payable": false,
      "stateMutability": "nonpayable",
      "type": "function"
    },
    {
      "constant": false,
      "inputs": [],
      "name": "lock",
      "outputs": [],
      "payable": false,
      "stateMutability": "nonpayable",
      "type": "function"
    },
    {
      "constant": true,
      "inputs": [],
      "name": "minHeimdallFee",
      "outputs": [
        {
          "internalType": "uint256",
          "name": "",
          "type": "uint256"
        }
      ],
      "payable": false,
      "stateMutability": "view",
      "type": "function"
    },
    {
      "constant": true,
      "inputs": [],
      "name": "token",
      "outputs": [
        {
          "internalType": "contract IERC20",
          "name": "",
          "type": "address"
        }
      ],
      "payable": false,
      "stateMutability": "view",
      "type": "function"
    },
    {
      "inputs": [
        {
          "internalType": "address",
          "name": "_proxyTo",
          "type": "address"
        },
        {
          "internalType": "address",
          "name": "_registry",
          "type": "address"
        },
        {
          "internalType": "address",
          "name": "_rootchain",
          "type": "address"
        },
        {
          "internalType": "address",
          "name": "_token",
          "type": "address"
        },
        {
          "internalType": "address",
          "name": "_NFTContract",
          "type": "address"
        },
        {
          "internalType": "address",
          "name": "_stakingLogger",
          "type": "address"
        },
        {
          "internalType": "address",
          "name": "_validatorShareFactory",
          "type": "address"
        },
        {
          "internalType": "address",
          "name": "_governance",
          "type": "address"
        }
      ],
      "payable": false,
      "stateMutability": "nonpayable",
      "type": "constructor"
    },
    {
      "payable": true,
      "stateMutability": "payable",
      "type": "fallback"
    },
    {
      "anonymous": false,
      "inputs": [
        {
          "indexed": true,
          "internalType": "address",
          "name": "previousRootChain",
          "type": "address"
        },
        {
          "indexed": true,
          "internalType": "address",
          "name": "newRootChain",
          "type": "address"
        }
      ],
      "name": "RootChainChanged",
      "type": "event"
    },
    {
      "anonymous": false,
      "inputs": [
        {
          "indexed": true,
          "internalType": "address",
          "name": "_new",
          "type": "address"
        },
        {
          "indexed": true,
          "internalType": "address",
          "name": "_old",
          "type": "address"
        }
      ],
      "name": "ProxyUpdated",
      "type": "event"
    },
    {
      "anonymous": false,
      "inputs": [
        {
          "indexed": false,
          "internalType": "address",
          "name": "_prevOwner",
          "type": "address"
        },
        {
          "indexed": false,
          "internalType": "address",
          "name": "_newOwner",
          "type": "address"
        }
      ],
      "name": "OwnerUpdate",
      "type": "event"
    },
    {
      "anonymous": false,
      "inputs": [
        {
          "indexed": true,
          "internalType": "address",
          "name": "previousOwner",
          "type": "address"
        },
        {
          "indexed": true,
          "internalType": "address",
          "name": "newOwner",
          "type": "address"
        }
      ],
      "name": "OwnershipTransferred",
      "type": "event"
    }
  ],
  "bytecode": "0x60806040526120006009556001600a55612000600b5569021e19e0c9bab2400000600c55670de0b6b3a7640000600d55670de0b6b3a7640000600e5560ff600f55600a60105560016012556004600b548161005657fe5b0460155534801561006657600080fd5b50604051611064380380611064833981810160405261010081101561008a57600080fd5b50805160208201516040808401516060850151608086015160a087015160c088015160e090980151600080546001600160a01b03191633178082559651989997989597949693959294939192839283928c926001600160a01b0392909216917f8be0079c531659141344cd1fd0a4f28419497f9722a3daafe3b4186f6b6457e0908290a3610120816001600160e01b036101a316565b50600280546001600160a01b03199081166001600160a01b03938416179091556005805482169a83169a909a17909955600380548a1698821698909817909755505060048054871694861694909417909355600780548616928516929092179091556006805485169184169190911790556008805490931691161790555061032a565b6101b46001600160e01b036102f616565b6101bd57600080fd5b6001600160a01b03811661023257604080517f08c379a000000000000000000000000000000000000000000000000000000000815260206004820152601560248201527f494e56414c49445f50524f58595f414444524553530000000000000000000000604482015290519081900360640190fd5b610244816001600160e01b0361030716565b610299576040517f08c379a000000000000000000000000000000000000000000000000000000000815260040180806020018281038252602581526020018061103f6025913960400191505060405180910390fd5b6001546040516001600160a01b03918216918316907fd32d24edea94f55e932d9a008afc425a8561462d1b1f57bc6e508e9a6b9509e190600090a3600180546001600160a01b0319166001600160a01b0392909216919091179055565b6000546001600160a01b0316331490565b60006001600160a01b03821661031f57506000610325565b50803b15155b919050565b610d06806103396000396000f3fe6080604052600436106102255760003560e01c80637667180811610123578063a69df4b5116100ab578063f24ccbfe1161006f578063f24ccbfe146106cf578063f2fde38b146106e4578063f83d08ba14610717578063fba58f341461072c578063fc0c546a1461074157610225565b8063a69df4b514610648578063c45a01551461065d578063cd6b838814610672578063cf30901214610687578063e8afa8e81461069c57610225565b80638da5cb5b116100f25780638da5cb5b146105b65780638f32d59b146105cb57806390a42f16146105f4578063987ab9db1461061e5780639a8a62431461063357610225565b806376671808146105625780637b103999146105775780637d6697521461058c578063817b1cd2146105a157610225565b806341b3d185116101b15780635aa6e675116101755780635aa6e675146104cb5780635c248855146104e05780635c60da1b146105235780637060054d14610538578063715018a61461054d57610225565b806341b3d185146104265780634555d5c91461043b5780634fd101d7146104505780635325e144146104655780635508d8e1146104b657610225565b806317c2b910116101f857806317c2b910146102f5578063253164111461030a57806331c2273b1461031f57806335aa2e44146103505780633862da0b146103f357610225565b8063025b22bc146102715780630cccfc58146102a45780630e15561a146102cb5780630ebb172a146102e0575b60015460408051602036601f810182900482028301820190935282825261026f936001600160a01b0316926000918190840183828082843760009201919091525061075692505050565b005b34801561027d57600080fd5b5061026f6004803603602081101561029457600080fd5b50356001600160a01b031661077e565b3480156102b057600080fd5b506102b9610883565b60408051918252519081900360200190f35b3480156102d757600080fd5b506102b9610889565b3480156102ec57600080fd5b506102b961088f565b34801561030157600080fd5b506102b9610895565b34801561031657600080fd5b506102b961089b565b34801561032b57600080fd5b506103346108a1565b604080516001600160a01b039092168252519081900360200190f35b34801561035c57600080fd5b5061037a6004803603602081101561037357600080fd5b50356108b0565b60405180898152602001888152602001878152602001868152602001858152602001846001600160a01b03166001600160a01b03168152602001836001600160a01b03166001600160a01b031681526020018260038111156103d857fe5b60ff1681526020019850505050505050505060405180910390f35b3480156103ff57600080fd5b506102b96004803603602081101561041657600080fd5b50356001600160a01b0316610906565b34801561043257600080fd5b506102b9610918565b34801561044757600080fd5b506102b961091e565b34801561045c57600080fd5b506102b9610923565b34801561047157600080fd5b5061048f6004803603602081101561048857600080fd5b5035610929565b6040805193845260208401929092526001600160a01b031682820152519081900360600190f35b3480156104c257600080fd5b506102b9610953565b3480156104d757600080fd5b50610334610959565b3480156104ec57600080fd5b5061050a6004803603602081101561050357600080fd5b5035610968565b6040805192835260208301919091528051918290030190f35b34801561052f57600080fd5b50610334610981565b34801561054457600080fd5b506102b9610990565b34801561055957600080fd5b5061026f610996565b34801561056e57600080fd5b506102b96109f1565b34801561058357600080fd5b506103346109f7565b34801561059857600080fd5b506102b9610a06565b3480156105ad57600080fd5b506102b9610a0c565b3480156105c257600080fd5b50610334610a12565b3480156105d757600080fd5b506105e0610a21565b604080519115158252519081900360200190f35b34801561060057600080fd5b506102b96004803603602081101561061757600080fd5b5035610a32565b34801561062a57600080fd5b50610334610a44565b34801561063f57600080fd5b506102b9610a53565b34801561065457600080fd5b5061026f610a59565b34801561066957600080fd5b50610334610ab1565b34801561067e57600080fd5b506102b9610ac0565b34801561069357600080fd5b506105e0610ac6565b3480156106a857600080fd5b5061026f600480360360208110156106bf57600080fd5b50356001600160a01b0316610ad6565b3480156106db57600080fd5b50610334610b56565b3480156106f057600080fd5b5061026f6004803603602081101561070757600080fd5b50356001600160a01b0316610b65565b34801561072357600080fd5b5061026f610b82565b34801561073857600080fd5b506102b9610be0565b34801561074d57600080fd5b50610334610be6565b600080825160208401856127105a03f43d604051816000823e82801561077a578282f35b8282fd5b610786610a21565b61078f57600080fd5b6001600160a01b0381166107e2576040805162461bcd60e51b8152602060048201526015602482015274494e56414c49445f50524f58595f4144445245535360581b604482015290519081900360640190fd5b6107eb81610bf5565b6108265760405162461bcd60e51b8152600401808060200182810382526025815260200180610c876025913960400191505060405180910390fd5b6001546040516001600160a01b03918216918316907fd32d24edea94f55e932d9a008afc425a8561462d1b1f57bc6e508e9a6b9509e190600090a3600180546001600160a01b0319166001600160a01b0392909216919091179055565b60155481565b60135481565b60095481565b60165481565b600f5481565b6007546001600160a01b031681565b6018602052600090815260409020805460018201546002830154600384015460048501546005860154600690960154949593949293919290916001600160a01b039081169190811690600160a01b900460ff1688565b60196020526000908152604090205481565b600d5481565b600290565b60105481565b601c602052600090815260409020805460018201546002909201549091906001600160a01b031683565b60125481565b6002546001600160a01b031681565b601a602052600090815260409020805460019091015482565b6001546001600160a01b031690565b600b5481565b61099e610a21565b6109a757600080fd5b600080546040516001600160a01b03909116907f8be0079c531659141344cd1fd0a4f28419497f9722a3daafe3b4186f6b6457e0908390a3600080546001600160a01b0319169055565b600a5481565b6005546001600160a01b031681565b600c5481565b60115481565b6000546001600160a01b031690565b6000546001600160a01b0316331490565b601b6020526000908152604090205481565b6003546001600160a01b031681565b601d5481565b6002546001600160a01b03163314610aa25760405162461bcd60e51b8152600401808060200182810382526026815260200180610cac6026913960400191505060405180910390fd5b6002805460ff60a01b19169055565b6008546001600160a01b031681565b60145481565b600254600160a01b900460ff1681565b610ade610a21565b610ae757600080fd5b6001600160a01b038116610afa57600080fd5b6003546040516001600160a01b038084169216907f211c9015fc81c0dbd45bd99f0f29fc1c143bfd53442d5ffd722bbbef7a887fe990600090a3600380546001600160a01b0319166001600160a01b0392909216919091179055565b6006546001600160a01b031681565b610b6d610a21565b610b7657600080fd5b610b7f81610c18565b50565b6002546001600160a01b03163314610bcb5760405162461bcd60e51b8152600401808060200182810382526026815260200180610cac6026913960400191505060405180910390fd5b6002805460ff60a01b1916600160a01b179055565b600e5481565b6004546001600160a01b031681565b60006001600160a01b038216610c0d57506000610c13565b50803b15155b919050565b6001600160a01b038116610c2b57600080fd5b600080546040516001600160a01b03808516939216917f8be0079c531659141344cd1fd0a4f28419497f9722a3daafe3b4186f6b6457e091a3600080546001600160a01b0319166001600160a01b039290921691909117905556fe44455354494e4154494f4e5f414444524553535f49535f4e4f545f415f434f4e54524143544f6e6c7920676f7665726e616e636520636f6e747261637420697320617574686f72697a6564a265627a7a72315820d83fc233630124741ca6288409dbf849152974d4c2b8cae9574245c84dc46e4e64736f6c634300050b003244455354494e4154494f4e5f414444524553535f49535f4e4f545f415f434f4e5452414354",
  "source": "pragma solidity ^0.5.2;\n\nimport {IERC20} from \"openzeppelin-solidity/contracts/token/ERC20/IERC20.sol\";\n\nimport {IGovernance} from \"../../common/governance/IGovernance.sol\";\nimport {StakeManagerStorage} from \"./StakeManagerStorage.sol\";\nimport {Proxy} from \"../../common/misc/Proxy.sol\";\nimport {Registry} from \"../../common/Registry.sol\";\nimport {Lockable} from \"../../common/mixin/Lockable.sol\";\nimport {StakingInfo} from \"../StakingInfo.sol\";\nimport {StakingNFT} from \"./StakingNFT.sol\";\nimport \"../validatorShare/ValidatorShareFactory.sol\";\n\ncontract StakeManagerProxy is Proxy, StakeManagerStorage {\n    constructor(\n        address _proxyTo,\n        address _registry,\n        address _rootchain,\n        address _token,\n        address _NFTContract,\n        address _stakingLogger,\n        address _validatorShareFactory,\n        address _governance\n    ) public Proxy(_proxyTo) Lockable(_governance) {\n        registry = _registry;\n        rootChain = _rootchain;\n        token = IERC20(_token);\n        NFTContract = StakingNFT(_NFTContract);\n        logger = StakingInfo(_stakingLogger);\n        factory = ValidatorShareFactory(_validatorShareFactory);\n    }\n}\n",
  "sourcePath": "/Users/arth/Documents/Projects/contracts/contracts/staking/stakeManager/StakeManagerProxy.sol",
  "compiler": {
    "name": "solc",
    "version": "0.5.11+commit.c082d0b4.Emscripten.clang"
  },
  "schemaVersion": "3.0.14",
  "updatedAt": "2020-04-06T09:29:52.895Z",
  "devdoc": {
    "methods": {
      "changeRootChain(address)": {
        "details": "Allows the current owner to change root chain address.",
        "params": {
          "newRootChain": "The address to new rootchain."
        }
      },
      "isOwner()": {
        "return": "true if `msg.sender` is the owner of the contract."
      },
      "owner()": {
        "return": "the address of the owner."
      },
      "renounceOwnership()": {
        "details": "Allows the current owner to relinquish control of the contract. It will not be possible to call the functions with the `onlyOwner` modifier anymore."
      },
      "transferOwnership(address)": {
        "details": "Allows the current owner to transfer control of the contract to a newOwner.",
        "params": {
          "newOwner": "The address to transfer ownership to."
        }
      }
    }
  },
  "userdoc": {
    "methods": {
      "renounceOwnership()": {
        "notice": "Renouncing ownership will leave the contract without an owner, thereby removing any functionality that is only available to the owner."
      }
    }
  }
}