{
  "contractName": "StakeManagerTest",
  "abi": [
    {
      "constant": true,
      "inputs": [],
      "name": "getCurrentValidatorSet",
      "outputs": [
        {
          "internalType": "uint256[]",
          "name": "",
          "type": "uint256[]"
        }
      ],
      "payable": false,
      "stateMutability": "view",
      "type": "function"
    },
    {
      "constant": false,
      "inputs": [
        {
          "internalType": "uint256",
          "name": "amount",
          "type": "uint256"
        },
        {
          "internalType": "uint256",
          "name": "heimdallFee",
          "type": "uint256"
        },
        {
          "internalType": "bool",
          "name": "acceptDelegation",
          "type": "bool"
        },
        {
          "internalType": "bytes",
          "name": "signerPubkey",
          "type": "bytes"
        }
      ],
      "name": "stake",
      "outputs": [],
      "payable": false,
      "stateMutability": "nonpayable",
      "type": "function"
    },
    {
      "constant": true,
      "inputs": [],
      "name": "auctionPeriod",
      "outputs": [
        {
          "internalType": "uint256",
          "name": "",
          "type": "uint256"
        }
      ],
      "payable": false,
      "stateMutability": "view",
      "type": "function"
    },
    {
      "constant": true,
      "inputs": [],
      "name": "totalRewards",
      "outputs": [
        {
          "internalType": "uint256",
          "name": "",
          "type": "uint256"
        }
      ],
      "payable": false,
      "stateMutability": "view",
      "type": "function"
    },
    {
      "constant": true,
      "inputs": [],
      "name": "WITHDRAWAL_DELAY",
      "outputs": [
        {
          "internalType": "uint256",
          "name": "",
          "type": "uint256"
        }
      ],
      "payable": false,
      "stateMutability": "view",
      "type": "function"
    },
    {
      "constant": false,
      "inputs": [
        {
          "internalType": "address",
          "name": "_registry",
          "type": "address"
        },
        {
          "internalType": "address",
          "name": "_rootchain",
          "type": "address"
        },
        {
          "internalType": "address",
          "name": "_NFTContract",
          "type": "address"
        },
        {
          "internalType": "address",
          "name": "_stakingLogger",
          "type": "address"
        },
        {
          "internalType": "address",
          "name": "_ValidatorShareFactory",
          "type": "address"
        }
      ],
      "name": "updateConstructor",
      "outputs": [],
      "payable": false,
      "stateMutability": "nonpayable",
      "type": "function"
    },
    {
      "constant": false,
      "inputs": [
        {
          "internalType": "address",
          "name": "_token",
          "type": "address"
        }
      ],
      "name": "setToken",
      "outputs": [],
      "payable": false,
      "stateMutability": "nonpayable",
      "type": "function"
    },
    {
      "constant": false,
      "inputs": [
        {
          "internalType": "uint256",
          "name": "newThreshold",
          "type": "uint256"
        }
      ],
      "name": "updateValidatorThreshold",
      "outputs": [],
      "payable": false,
      "stateMutability": "nonpayable",
      "type": "function"
    },
    {
      "constant": true,
      "inputs": [
        {
          "internalType": "address",
          "name": "user",
          "type": "address"
        }
      ],
      "name": "getValidatorId",
      "outputs": [
        {
          "internalType": "uint256",
          "name": "",
          "type": "uint256"
        }
      ],
      "payable": false,
      "stateMutability": "view",
      "type": "function"
    },
    {
      "constant": true,
      "inputs": [],
      "name": "accountStateRoot",
      "outputs": [
        {
          "internalType": "bytes32",
          "name": "",
          "type": "bytes32"
        }
      ],
      "payable": false,
      "stateMutability": "view",
      "type": "function"
    },
    {
      "constant": true,
      "inputs": [],
      "name": "checkPointBlockInterval",
      "outputs": [
        {
          "internalType": "uint256",
          "name": "",
          "type": "uint256"
        }
      ],
      "payable": false,
      "stateMutability": "view",
      "type": "function"
    },
    {
      "constant": true,
      "inputs": [
        {
          "internalType": "uint256",
          "name": "validatorId",
          "type": "uint256"
        }
      ],
      "name": "isValidator",
      "outputs": [
        {
          "internalType": "bool",
          "name": "",
          "type": "bool"
        }
      ],
      "payable": false,
      "stateMutability": "view",
      "type": "function"
    },
    {
      "constant": false,
      "inputs": [
        {
          "internalType": "uint256",
          "name": "validatorId",
          "type": "uint256"
        },
        {
          "internalType": "uint256",
          "name": "amount",
          "type": "uint256"
        },
        {
          "internalType": "bool",
          "name": "stakeRewards",
          "type": "bool"
        }
      ],
      "name": "restake",
      "outputs": [],
      "payable": false,
      "stateMutability": "nonpayable",
      "type": "function"
    },
    {
      "constant": false,
      "inputs": [
        {
          "internalType": "uint256",
          "name": "validatorId",
          "type": "uint256"
        }
      ],
      "name": "unstake",
      "outputs": [],
      "payable": false,
      "stateMutability": "nonpayable",
      "type": "function"
    },
    {
      "constant": true,
      "inputs": [],
      "name": "NFTContract",
      "outputs": [
        {
          "internalType": "contract StakingNFT",
          "name": "",
          "type": "address"
        }
      ],
      "payable": false,
      "stateMutability": "view",
      "type": "function"
    },
    {
      "constant": true,
      "inputs": [
        {
          "internalType": "uint256",
          "name": "validatorId",
          "type": "uint256"
        }
      ],
      "name": "perceivedStakeFactor",
      "outputs": [
        {
          "internalType": "uint256",
          "name": "",
          "type": "uint256"
        }
      ],
      "payable": false,
      "stateMutability": "view",
      "type": "function"
    },
    {
      "constant": true,
      "inputs": [
        {
          "internalType": "uint256",
          "name": "",
          "type": "uint256"
        }
      ],
      "name": "validators",
      "outputs": [
        {
          "internalType": "uint256",
          "name": "amount",
          "type": "uint256"
        },
        {
          "internalType": "uint256",
          "name": "reward",
          "type": "uint256"
        },
        {
          "internalType": "uint256",
          "name": "activationEpoch",
          "type": "uint256"
        },
        {
          "internalType": "uint256",
          "name": "deactivationEpoch",
          "type": "uint256"
        },
        {
          "internalType": "uint256",
          "name": "jailTime",
          "type": "uint256"
        },
        {
          "internalType": "address",
          "name": "signer",
          "type": "address"
        },
        {
          "internalType": "address",
          "name": "contractAddress",
          "type": "address"
        },
        {
          "internalType": "enum StakeManagerStorage.Status",
          "name": "status",
          "type": "uint8"
        }
      ],
      "payable": false,
      "stateMutability": "view",
      "type": "function"
    },
    {
      "constant": true,
      "inputs": [
        {
          "internalType": "address",
          "name": "",
          "type": "address"
        }
      ],
      "name": "signerToValidator",
      "outputs": [
        {
          "internalType": "uint256",
          "name": "",
          "type": "uint256"
        }
      ],
      "payable": false,
      "stateMutability": "view",
      "type": "function"
    },
    {
      "constant": false,
      "inputs": [
        {
          "internalType": "uint256",
          "name": "validatorId",
          "type": "uint256"
        }
      ],
      "name": "unJail",
      "outputs": [],
      "payable": false,
      "stateMutability": "nonpayable",
      "type": "function"
    },
    {
      "constant": true,
      "inputs": [],
      "name": "minDeposit",
      "outputs": [
        {
          "internalType": "uint256",
          "name": "",
          "type": "uint256"
        }
      ],
      "payable": false,
      "stateMutability": "view",
      "type": "function"
    },
    {
      "constant": false,
      "inputs": [
        {
          "internalType": "uint256",
          "name": "validatorId",
          "type": "uint256"
        },
        {
          "internalType": "uint256",
          "name": "amount",
          "type": "uint256"
        },
        {
          "internalType": "address",
          "name": "delegator",
          "type": "address"
        }
      ],
      "name": "delegationTransfer",
      "outputs": [
        {
          "internalType": "bool",
          "name": "",
          "type": "bool"
        }
      ],
      "payable": false,
      "stateMutability": "nonpayable",
      "type": "function"
    },
    {
      "constant": true,
      "inputs": [
        {
          "internalType": "address",
          "name": "user",
          "type": "address"
        }
      ],
      "name": "totalStakedFor",
      "outputs": [
        {
          "internalType": "uint256",
          "name": "",
          "type": "uint256"
        }
      ],
      "payable": false,
      "stateMutability": "view",
      "type": "function"
    },
    {
      "constant": true,
      "inputs": [],
      "name": "validatorThreshold",
      "outputs": [
        {
          "internalType": "uint256",
          "name": "",
          "type": "uint256"
        }
      ],
      "payable": false,
      "stateMutability": "view",
      "type": "function"
    },
    {
      "constant": false,
      "inputs": [
        {
          "internalType": "address",
          "name": "user",
          "type": "address"
        },
        {
          "internalType": "uint256",
          "name": "amount",
          "type": "uint256"
        },
        {
          "internalType": "uint256",
          "name": "heimdallFee",
          "type": "uint256"
        },
        {
          "internalType": "bool",
          "name": "acceptDelegation",
          "type": "bool"
        },
        {
          "internalType": "bytes",
          "name": "signerPubkey",
          "type": "bytes"
        }
      ],
      "name": "stakeFor",
      "outputs": [],
      "payable": false,
      "stateMutability": "nonpayable",
      "type": "function"
    },
    {
      "constant": false,
      "inputs": [
        {
          "internalType": "uint256",
          "name": "validatorId",
          "type": "uint256"
        },
        {
          "internalType": "uint256",
          "name": "amount",
          "type": "uint256"
        }
      ],
      "name": "startAuction",
      "outputs": [],
      "payable": false,
      "stateMutability": "nonpayable",
      "type": "function"
    },
    {
      "constant": true,
      "inputs": [
        {
          "internalType": "uint256",
          "name": "",
          "type": "uint256"
        }
      ],
      "name": "validatorAuction",
      "outputs": [
        {
          "internalType": "uint256",
          "name": "amount",
          "type": "uint256"
        },
        {
          "internalType": "uint256",
          "name": "startEpoch",
          "type": "uint256"
        },
        {
          "internalType": "address",
          "name": "user",
          "type": "address"
        }
      ],
      "payable": false,
      "stateMutability": "view",
      "type": "function"
    },
    {
      "constant": true,
      "inputs": [],
      "name": "NFTCounter",
      "outputs": [
        {
          "internalType": "uint256",
          "name": "",
          "type": "uint256"
        }
      ],
      "payable": false,
      "stateMutability": "view",
      "type": "function"
    },
    {
      "constant": true,
      "inputs": [
        {
          "internalType": "uint256",
          "name": "validatorId",
          "type": "uint256"
        }
      ],
      "name": "getValidatorContract",
      "outputs": [
        {
          "internalType": "address",
          "name": "",
          "type": "address"
        }
      ],
      "payable": false,
      "stateMutability": "view",
      "type": "function"
    },
    {
      "constant": true,
      "inputs": [],
      "name": "governance",
      "outputs": [
        {
          "internalType": "contract IGovernance",
          "name": "",
          "type": "address"
        }
      ],
      "payable": false,
      "stateMutability": "view",
      "type": "function"
    },
    {
      "constant": true,
      "inputs": [
        {
          "internalType": "uint256",
          "name": "",
          "type": "uint256"
        }
      ],
      "name": "validatorState",
      "outputs": [
        {
          "internalType": "int256",
          "name": "amount",
          "type": "int256"
        },
        {
          "internalType": "int256",
          "name": "stakerCount",
          "type": "int256"
        }
      ],
      "payable": false,
      "stateMutability": "view",
      "type": "function"
    },
    {
      "constant": true,
      "inputs": [
        {
          "internalType": "uint256",
          "name": "tokenId",
          "type": "uint256"
        }
      ],
      "name": "ownerOf",
      "outputs": [
        {
          "internalType": "address",
          "name": "",
          "type": "address"
        }
      ],
      "payable": false,
      "stateMutability": "view",
      "type": "function"
    },
    {
      "constant": false,
      "inputs": [
        {
          "internalType": "uint256",
          "name": "validatorId",
          "type": "uint256"
        },
        {
          "internalType": "uint256",
          "name": "amount",
          "type": "uint256"
        },
        {
          "internalType": "address",
          "name": "delegator",
          "type": "address"
        }
      ],
      "name": "delegationDeposit",
      "outputs": [
        {
          "internalType": "bool",
          "name": "",
          "type": "bool"
        }
      ],
      "payable": false,
      "stateMutability": "nonpayable",
      "type": "function"
    },
    {
      "constant": false,
      "inputs": [
        {
          "internalType": "uint256",
          "name": "validatorId",
          "type": "uint256"
        },
        {
          "internalType": "uint256",
          "name": "slashingRate",
          "type": "uint256"
        },
        {
          "internalType": "uint256",
          "name": "jailCheckpoints",
          "type": "uint256"
        }
      ],
      "name": "slash",
      "outputs": [],
      "payable": false,
      "stateMutability": "nonpayable",
      "type": "function"
    },
    {
      "constant": true,
      "inputs": [],
      "name": "supportsHistory",
      "outputs": [
        {
          "internalType": "bool",
          "name": "",
          "type": "bool"
        }
      ],
      "payable": false,
      "stateMutability": "pure",
      "type": "function"
    },
    {
      "constant": true,
      "inputs": [],
      "name": "dynasty",
      "outputs": [
        {
          "internalType": "uint256",
          "name": "",
          "type": "uint256"
        }
      ],
      "payable": false,
      "stateMutability": "view",
      "type": "function"
    },
    {
      "constant": false,
      "inputs": [],
      "name": "renounceOwnership",
      "outputs": [],
      "payable": false,
      "stateMutability": "nonpayable",
      "type": "function"
    },
    {
      "constant": true,
      "inputs": [],
      "name": "currentEpoch",
      "outputs": [
        {
          "internalType": "uint256",
          "name": "",
          "type": "uint256"
        }
      ],
      "payable": false,
      "stateMutability": "view",
      "type": "function"
    },
    {
      "constant": true,
      "inputs": [],
      "name": "registry",
      "outputs": [
        {
          "internalType": "address",
          "name": "",
          "type": "address"
        }
      ],
      "payable": false,
      "stateMutability": "view",
      "type": "function"
    },
    {
      "constant": true,
      "inputs": [],
      "name": "CHECKPOINT_REWARD",
      "outputs": [
        {
          "internalType": "uint256",
          "name": "",
          "type": "uint256"
        }
      ],
      "payable": false,
      "stateMutability": "view",
      "type": "function"
    },
    {
      "constant": false,
      "inputs": [
        {
          "internalType": "bytes",
          "name": "checkpointTx",
          "type": "bytes"
        }
      ],
      "name": "challangeStateRootUpdate",
      "outputs": [],
      "payable": false,
      "stateMutability": "nonpayable",
      "type": "function"
    },
    {
      "constant": true,
      "inputs": [],
      "name": "currentValidatorSetSize",
      "outputs": [
        {
          "internalType": "uint256",
          "name": "",
          "type": "uint256"
        }
      ],
      "payable": false,
      "stateMutability": "view",
      "type": "function"
    },
    {
      "constant": true,
      "inputs": [],
      "name": "totalStaked",
      "outputs": [
        {
          "internalType": "uint256",
          "name": "",
          "type": "uint256"
        }
      ],
      "payable": false,
      "stateMutability": "view",
      "type": "function"
    },
    {
      "constant": true,
      "inputs": [],
      "name": "owner",
      "outputs": [
        {
          "internalType": "address",
          "name": "",
          "type": "address"
        }
      ],
      "payable": false,
      "stateMutability": "view",
      "type": "function"
    },
    {
      "constant": true,
      "inputs": [],
      "name": "isOwner",
      "outputs": [
        {
          "internalType": "bool",
          "name": "",
          "type": "bool"
        }
      ],
      "payable": false,
      "stateMutability": "view",
      "type": "function"
    },
    {
      "constant": true,
      "inputs": [
        {
          "internalType": "uint256",
          "name": "",
          "type": "uint256"
        }
      ],
      "name": "validatorFeeExit",
      "outputs": [
        {
          "internalType": "uint256",
          "name": "",
          "type": "uint256"
        }
      ],
      "payable": false,
      "stateMutability": "view",
      "type": "function"
    },
    {
      "constant": false,
      "inputs": [
        {
          "internalType": "uint256",
          "name": "validatorId",
          "type": "uint256"
        }
      ],
      "name": "forceUnstake",
      "outputs": [],
      "payable": false,
      "stateMutability": "nonpayable",
      "type": "function"
    },
    {
      "constant": false,
      "inputs": [
        {
          "internalType": "uint256",
          "name": "validatorId",
          "type": "uint256"
        }
      ],
      "name": "withdrawRewards",
      "outputs": [],
      "payable": false,
      "stateMutability": "nonpayable",
      "type": "function"
    },
    {
      "constant": true,
      "inputs": [],
      "name": "rootChain",
      "outputs": [
        {
          "internalType": "address",
          "name": "",
          "type": "address"
        }
      ],
      "payable": false,
      "stateMutability": "view",
      "type": "function"
    },
    {
      "constant": true,
      "inputs": [],
      "name": "totalHeimdallFee",
      "outputs": [
        {
          "internalType": "uint256",
          "name": "",
          "type": "uint256"
        }
      ],
      "payable": false,
      "stateMutability": "view",
      "type": "function"
    },
    {
      "constant": false,
      "inputs": [
        {
          "internalType": "uint256",
          "name": "validatorId",
          "type": "uint256"
        },
        {
          "internalType": "int256",
          "name": "amount",
          "type": "int256"
        }
      ],
      "name": "updateValidatorState",
      "outputs": [],
      "payable": false,
      "stateMutability": "nonpayable",
      "type": "function"
    },
    {
      "constant": false,
      "inputs": [
        {
          "internalType": "uint256",
          "name": "_blocks",
          "type": "uint256"
        }
      ],
      "name": "updateCheckPointBlockInterval",
      "outputs": [],
      "payable": false,
      "stateMutability": "nonpayable",
      "type": "function"
    },
    {
      "constant": true,
      "inputs": [],
      "name": "currentValidatorSetTotalStake",
      "outputs": [
        {
          "internalType": "uint256",
          "name": "",
          "type": "uint256"
        }
      ],
      "payable": false,
      "stateMutability": "view",
      "type": "function"
    },
    {
      "constant": false,
      "inputs": [],
      "name": "unlock",
      "outputs": [],
      "payable": false,
      "stateMutability": "nonpayable",
      "type": "function"
    },
    {
      "constant": false,
      "inputs": [
        {
          "internalType": "uint256",
          "name": "validatorId",
          "type": "uint256"
        },
        {
          "internalType": "uint256",
          "name": "heimdallFee",
          "type": "uint256"
        }
      ],
      "name": "topUpForFee",
      "outputs": [],
      "payable": false,
      "stateMutability": "nonpayable",
      "type": "function"
    },
    {
      "constant": false,
      "inputs": [
        {
          "internalType": "uint256",
          "name": "_minDeposit",
          "type": "uint256"
        },
        {
          "internalType": "uint256",
          "name": "_minHeimdallFee",
          "type": "uint256"
        }
      ],
      "name": "updateMinAmounts",
      "outputs": [],
      "payable": false,
      "stateMutability": "nonpayable",
      "type": "function"
    },
    {
      "constant": false,
      "inputs": [
        {
          "internalType": "uint256",
          "name": "validatorId",
          "type": "uint256"
        },
        {
          "internalType": "uint256",
          "name": "accumSlashedAmount",
          "type": "uint256"
        },
        {
          "internalType": "uint256",
          "name": "accumFeeAmount",
          "type": "uint256"
        },
        {
          "internalType": "uint256",
          "name": "index",
          "type": "uint256"
        },
        {
          "internalType": "bytes",
          "name": "proof",
          "type": "bytes"
        }
      ],
      "name": "claimFee",
      "outputs": [],
      "payable": false,
      "stateMutability": "nonpayable",
      "type": "function"
    },
    {
      "constant": true,
      "inputs": [],
      "name": "factory",
      "outputs": [
        {
          "internalType": "contract ValidatorShareFactory",
          "name": "",
          "type": "address"
        }
      ],
      "payable": false,
      "stateMutability": "view",
      "type": "function"
    },
    {
      "constant": false,
      "inputs": [
        {
          "internalType": "uint256",
          "name": "validatorId",
          "type": "uint256"
        },
        {
          "internalType": "uint256",
          "name": "heimdallFee",
          "type": "uint256"
        },
        {
          "internalType": "bool",
          "name": "acceptDelegation",
          "type": "bool"
        },
        {
          "internalType": "bytes",
          "name": "signerPubkey",
          "type": "bytes"
        }
      ],
      "name": "confirmAuctionBid",
      "outputs": [],
      "payable": false,
      "stateMutability": "nonpayable",
      "type": "function"
    },
    {
      "constant": false,
      "inputs": [
        {
          "internalType": "uint256",
          "name": "newReward",
          "type": "uint256"
        }
      ],
      "name": "updateCheckpointReward",
      "outputs": [],
      "payable": false,
      "stateMutability": "nonpayable",
      "type": "function"
    },
    {
      "constant": true,
      "inputs": [],
      "name": "totalRewardsLiquidated",
      "outputs": [
        {
          "internalType": "uint256",
          "name": "",
          "type": "uint256"
        }
      ],
      "payable": false,
      "stateMutability": "view",
      "type": "function"
    },
    {
      "constant": true,
      "inputs": [],
      "name": "locked",
      "outputs": [
        {
          "internalType": "bool",
          "name": "",
          "type": "bool"
        }
      ],
      "payable": false,
      "stateMutability": "view",
      "type": "function"
    },
    {
      "constant": true,
      "inputs": [
        {
          "internalType": "bytes",
          "name": "pub",
          "type": "bytes"
        }
      ],
      "name": "pubToAddress",
      "outputs": [
        {
          "internalType": "address",
          "name": "",
          "type": "address"
        }
      ],
      "payable": false,
      "stateMutability": "pure",
      "type": "function"
    },
    {
      "constant": false,
      "inputs": [
        {
          "internalType": "uint256",
          "name": "validatorId",
          "type": "uint256"
        },
        {
          "internalType": "uint256",
          "name": "jailCheckpoints",
          "type": "uint256"
        }
      ],
      "name": "jail",
      "outputs": [],
      "payable": false,
      "stateMutability": "nonpayable",
      "type": "function"
    },
    {
      "constant": false,
      "inputs": [
        {
          "internalType": "uint256",
          "name": "validatorId",
          "type": "uint256"
        }
      ],
      "name": "unstakeClaim",
      "outputs": [],
      "payable": false,
      "stateMutability": "nonpayable",
      "type": "function"
    },
    {
      "constant": false,
      "inputs": [
        {
          "internalType": "uint256",
          "name": "newDynasty",
          "type": "uint256"
        }
      ],
      "name": "updateDynastyValue",
      "outputs": [],
      "payable": false,
      "stateMutability": "nonpayable",
      "type": "function"
    },
    {
      "constant": false,
      "inputs": [
        {
          "internalType": "address",
          "name": "newRootChain",
          "type": "address"
        }
      ],
      "name": "changeRootChain",
      "outputs": [],
      "payable": false,
      "stateMutability": "nonpayable",
      "type": "function"
    },
    {
      "constant": true,
      "inputs": [],
      "name": "logger",
      "outputs": [
        {
          "internalType": "contract StakingInfo",
          "name": "",
          "type": "address"
        }
      ],
      "payable": false,
      "stateMutability": "view",
      "type": "function"
    },
    {
      "constant": false,
      "inputs": [
        {
          "internalType": "address",
          "name": "newOwner",
          "type": "address"
        }
      ],
      "name": "transferOwnership",
      "outputs": [],
      "payable": false,
      "stateMutability": "nonpayable",
      "type": "function"
    },
    {
      "constant": false,
      "inputs": [
        {
          "internalType": "uint256",
          "name": "validatorId",
          "type": "uint256"
        },
        {
          "internalType": "bytes",
          "name": "signerPubkey",
          "type": "bytes"
        }
      ],
      "name": "updateSigner",
      "outputs": [],
      "payable": false,
      "stateMutability": "nonpayable",
      "type": "function"
    },
    {
      "constant": false,
      "inputs": [],
      "name": "lock",
      "outputs": [],
      "payable": false,
      "stateMutability": "nonpayable",
      "type": "function"
    },
    {
      "constant": true,
      "inputs": [],
      "name": "minHeimdallFee",
      "outputs": [
        {
          "internalType": "uint256",
          "name": "",
          "type": "uint256"
        }
      ],
      "payable": false,
      "stateMutability": "view",
      "type": "function"
    },
    {
      "constant": true,
      "inputs": [],
      "name": "token",
      "outputs": [
        {
          "internalType": "contract IERC20",
          "name": "",
          "type": "address"
        }
      ],
      "payable": false,
      "stateMutability": "view",
      "type": "function"
    },
    {
      "inputs": [
        {
          "internalType": "address",
          "name": "_registry",
          "type": "address"
        },
        {
          "internalType": "address",
          "name": "_rootChain",
          "type": "address"
        },
        {
          "internalType": "address",
          "name": "_token",
          "type": "address"
        },
        {
          "internalType": "address",
          "name": "_NFTContract",
          "type": "address"
        },
        {
          "internalType": "address",
          "name": "_stakingLogger",
          "type": "address"
        },
        {
          "internalType": "address",
          "name": "_validatorShareFactory",
          "type": "address"
        },
        {
          "internalType": "address",
          "name": "_governance",
          "type": "address"
        }
      ],
      "payable": false,
      "stateMutability": "nonpayable",
      "type": "constructor"
    },
    {
      "anonymous": false,
      "inputs": [
        {
          "indexed": true,
          "internalType": "address",
          "name": "previousRootChain",
          "type": "address"
        },
        {
          "indexed": true,
          "internalType": "address",
          "name": "newRootChain",
          "type": "address"
        }
      ],
      "name": "RootChainChanged",
      "type": "event"
    },
    {
      "anonymous": false,
      "inputs": [
        {
          "indexed": true,
          "internalType": "address",
          "name": "previousOwner",
          "type": "address"
        },
        {
          "indexed": true,
          "internalType": "address",
          "name": "newOwner",
          "type": "address"
        }
      ],
      "name": "OwnershipTransferred",
      "type": "event"
    },
    {
      "constant": false,
      "inputs": [
        {
          "internalType": "uint256",
          "name": "blockInterval",
          "type": "uint256"
        },
        {
          "internalType": "bytes32",
          "name": "voteHash",
          "type": "bytes32"
        },
        {
          "internalType": "bytes32",
          "name": "stateRoot",
          "type": "bytes32"
        },
        {
          "internalType": "bytes",
          "name": "sigs",
          "type": "bytes"
        }
      ],
      "name": "checkSignatures",
      "outputs": [
        {
          "internalType": "uint256",
          "name": "",
          "type": "uint256"
        }
      ],
      "payable": false,
      "stateMutability": "nonpayable",
      "type": "function"
    }
  ],
  "bytecode": "0x60806040526120006009556001600a55612000600b5569021e19e0c9bab2400000600c55670de0b6b3a7640000600d55670de0b6b3a7640000600e5560ff600f55600a60105560016012556004600b54816200005757fe5b046015553480156200006857600080fd5b506040516200493e3803806200493e833981810160405260e08110156200008e57600080fd5b50805160208201516040808401516060850151608086015160a087015160c090970151600080546001600160a01b03191633178082559551979896979496939592949192909182916001600160a01b03169082907f8be0079c531659141344cd1fd0a4f28419497f9722a3daafe3b4186f6b6457e0908290a3600280546001600f55600580546001600160a01b03199081166001600160a01b039d8e16179091556003805482169b8d169b909b17909a55600480548b16998c1699909917909855600780548a16978b1697909717909655600680548916958a1695909517909455506008805487169288169290921790915592841690851617909216921691909117905561479c80620001a26000396000f3fe608060405234801561001057600080fd5b50600436106104335760003560e01c8063715018a611610236578063ac5862921161013b578063d2203766116100c3578063f2fde38b11610087578063f2fde38b14610f4f578063f41a964214610f75578063f83d08ba14611020578063fba58f3414611028578063fc0c546a1461103057610433565b8063d220376614610ec4578063d86d53e714610ee7578063e6692f4914610f04578063e8afa8e814610f21578063f24ccbfe14610f4757610433565b8063c8b194a21161010a578063c8b194a214610d70578063cbf383d514610df3578063cd6b838814610e10578063cf30901214610e18578063d011027414610e2057610433565b8063ac58629214610c66578063b1d23f0214610c89578063c344e76614610cac578063c45a015514610d6857610433565b806390a42f16116101be5780639a8a62431161018d5780639a8a624314610c0e5780639ff1150014610c16578063a440ab1e14610c39578063a476907114610c56578063a69df4b514610c5e57610433565b806390a42f1614610baf5780639146014914610bcc5780639342c8f414610be9578063987ab9db14610c0657610433565b80637f5da718116102055780637f5da71814610aeb5780637f952d9514610b8f578063817b1cd214610b975780638da5cb5b14610b9f5780638f32d59b14610ba757610433565b8063715018a614610acb5780637667180814610ad35780637b10399914610adb5780637d66975214610ae357610433565b80633d02455b1161033c57806356342d8c116102c45780636352211e116102935780636352211e14610a435780636901b25314610a605780636cbb605014610a925780637033e4a614610abb5780637060054d14610ac357610433565b806356342d8c146109315780635aa6e6751461094e5780635aac52f5146109565780635c24885514610a0d57610433565b80634fd101d71161030b5780634fd101d7146107f35780634fdd20f1146107fb5780634fee13fc146108c25780635325e144146108e55780635508d8e11461092957610433565b80633d02455b1461077657806341b3d185146107935780634777fb421461079b5780634b341aed146107cd57610433565b806317c2b910116103bf5780632e17de781161038e5780632e17de781461065c57806331c2273b14610679578063357e6ff81461069d57806335aa2e44146106ba5780633862da0b1461075057610433565b806317c2b910146105f057806325316411146105f85780632649263a1461060057806328cc4e411461063157610433565b80630ebb172a116104065780630ebb172a14610537578063118bdec91461053f578063144fa6d71461058757806316827b1b146105ad578063174e6832146105ca57610433565b80630209fdd014610438578063028c4c67146104905780630cccfc58146105155780630e15561a1461052f575b600080fd5b610440611038565b60408051602080825283518183015283519192839290830191858101910280838360005b8381101561047c578181015183820152602001610464565b505050509050019250505060405180910390f35b610513600480360360808110156104a657600080fd5b813591602081013591604082013515159190810190608081016060820135600160201b8111156104d557600080fd5b8201836020820111156104e757600080fd5b803590602001918460018302840111600160201b8311171561050857600080fd5b5090925090506111ae565b005b61051d6111f8565b60408051918252519081900360200190f35b61051d6111fe565b61051d611204565b610513600480360360a081101561055557600080fd5b506001600160a01b0381358116916020810135821691604082013581169160608101358216916080909101351661120a565b6105136004803603602081101561059d57600080fd5b50356001600160a01b031661127a565b610513600480360360208110156105c357600080fd5b50356112c0565b61051d600480360360208110156105e057600080fd5b50356001600160a01b0316611355565b61051d6113df565b61051d6113e5565b61061d6004803603602081101561061657600080fd5b50356113eb565b604080519115158252519081900360200190f35b6105136004803603606081101561064757600080fd5b508035906020810135906040013515156114a5565b6105136004803603602081101561067257600080fd5b503561187a565b6106816119fd565b604080516001600160a01b039092168252519081900360200190f35b61051d600480360360208110156106b357600080fd5b5035611a0c565b6106d7600480360360208110156106d057600080fd5b5035611a12565b60405180898152602001888152602001878152602001868152602001858152602001846001600160a01b03166001600160a01b03168152602001836001600160a01b03166001600160a01b0316815260200182600381111561073557fe5b60ff1681526020019850505050505050505060405180910390f35b61051d6004803603602081101561076657600080fd5b50356001600160a01b0316611a68565b6105136004803603602081101561078c57600080fd5b5035611a7a565b61051d611cec565b61061d600480360360608110156107b157600080fd5b50803590602081013590604001356001600160a01b0316611cf2565b61051d600480360360208110156107e357600080fd5b50356001600160a01b0316611da6565b61051d611edd565b610513600480360360a081101561081157600080fd5b6001600160a01b0382351691602081013591604082013591606081013515159181019060a081016080820135600160201b81111561084e57600080fd5b82018360208201111561086057600080fd5b803590602001918460018302840111600160201b8311171561088157600080fd5b91908080601f016020809104026020016040519081016040528093929190818152602001838380828437600092019190915250929550611ee3945050505050565b610513600480360360408110156108d857600080fd5b508035906020013561207b565b610902600480360360208110156108fb57600080fd5b5035612407565b6040805193845260208401929092526001600160a01b031682820152519081900360600190f35b61051d612431565b6106816004803603602081101561094757600080fd5b5035612437565b610681612455565b61051d6004803603608081101561096c57600080fd5b81359160208101359160408201359190810190608081016060820135600160201b81111561099957600080fd5b8201836020820111156109ab57600080fd5b803590602001918460018302840111600160201b831117156109cc57600080fd5b91908080601f016020809104026020016040519081016040528093929190818152602001838380828437600092019190915250929550612464945050505050565b610a2a60048036036020811015610a2357600080fd5b503561246f565b6040805192835260208301919091528051918290030190f35b61068160048036036020811015610a5957600080fd5b5035612488565b61061d60048036036060811015610a7657600080fd5b50803590602081013590604001356001600160a01b03166124d4565b61051360048036036060811015610aa857600080fd5b508035906020810135906040013561255a565b61061d6126ad565b61051d6126b2565b6105136126b8565b61051d612713565b610681612719565b61051d612728565b61051360048036036020811015610b0157600080fd5b810190602081018135600160201b811115610b1b57600080fd5b820183602082011115610b2d57600080fd5b803590602001918460018302840111600160201b83111715610b4e57600080fd5b91908080601f01602080910402602001604051908101604052809392919081815260200183838082843760009201919091525092955061272e945050505050565b61051d612731565b61051d612749565b61068161274f565b61061d61275e565b61051d60048036036020811015610bc557600080fd5b503561276f565b61051360048036036020811015610be257600080fd5b5035612781565b61051360048036036020811015610bff57600080fd5b503561279e565b610681612a21565b61051d612a30565b61051360048036036040811015610c2c57600080fd5b5080359060200135612a36565b61051360048036036020811015610c4f57600080fd5b5035612a77565b61051d612ae2565b610513612af7565b61051360048036036040811015610c7c57600080fd5b5080359060200135612b4f565b61051360048036036040811015610c9f57600080fd5b5080359060200135612c84565b610513600480360360a0811015610cc257600080fd5b81359160208101359160408201359160608101359181019060a081016080820135600160201b811115610cf457600080fd5b820183602082011115610d0657600080fd5b803590602001918460018302840111600160201b83111715610d2757600080fd5b91908080601f016020809104026020016040519081016040528093929190818152602001838380828437600092019190915250929550612ca0945050505050565b610681612f71565b61051360048036036080811015610d8657600080fd5b813591602081013591604082013515159190810190608081016060820135600160201b811115610db557600080fd5b820183602082011115610dc757600080fd5b803590602001918460018302840111600160201b83111715610de857600080fd5b509092509050612f80565b61051360048036036020811015610e0957600080fd5b50356134a4565b61051d613539565b61061d61353f565b61068160048036036020811015610e3657600080fd5b810190602081018135600160201b811115610e5057600080fd5b820183602082011115610e6257600080fd5b803590602001918460018302840111600160201b83111715610e8357600080fd5b91908080601f01602080910402602001604051908101604052809392919081815260200183838082843760009201919091525092955061354f945050505050565b61051360048036036040811015610eda57600080fd5b50803590602001356135a4565b61051360048036036020811015610efd57600080fd5b503561380a565b61051360048036036020811015610f1a57600080fd5b5035613b48565b61051360048036036020811015610f3757600080fd5b50356001600160a01b0316613c0d565b610681613c8d565b61051360048036036020811015610f6557600080fd5b50356001600160a01b0316613c9c565b61051360048036036040811015610f8b57600080fd5b81359190810190604081016020820135600160201b811115610fac57600080fd5b820183602082011115610fbe57600080fd5b803590602001918460018302840111600160201b83111715610fdf57600080fd5b91908080601f016020809104026020016040519081016040528093929190818152602001838380828437600092019190915250929550613cb6945050505050565b610513613edb565b61051d613f39565b610681613f3f565b606080611043612731565b60405190808252806020026020018201604052801561106c578160200160208202803883390190505b509050600080805b600760009054906101000a90046001600160a01b03166001600160a01b03166318160ddd6040518163ffffffff1660e01b815260040160206040518083038186803b1580156110c257600080fd5b505afa1580156110d6573d6000803e3d6000fd5b505050506040513d60208110156110ec57600080fd5b50518110156111a55760075460408051634f6ccce760e01b81526004810184905290516001600160a01b0390921691634f6ccce791602480820192602092909190829003018186803b15801561114157600080fd5b505afa158015611155573d6000803e3d6000fd5b505050506040513d602081101561116b57600080fd5b50519250611178836113eb565b1561119d578284838060010194508151811061119057fe5b6020026020010181815250505b600101611074565b50919250505090565b6111f13386868686868080601f016020809104026020016040519081016040528093929190818152602001838380828437600092019190915250611ee392505050565b5050505050565b60155481565b60135481565b60095481565b61121261275e565b61121b57600080fd5b600580546001600160a01b03199081166001600160a01b03978816179091556003805482169587169590951790945560078054851693861693909317909255600680548416918516919091179055600880549092169216919091179055565b61128261275e565b61128b57600080fd5b6001600160a01b03811661129e57600080fd5b600480546001600160a01b0319166001600160a01b0392909216919091179055565b6112c861275e565b6112d157600080fd5b600081116112de57600080fd5b60065460105460408051630f1980a560e41b8152600481018590526024810192909252516001600160a01b039092169163f1980a509160448082019260009290919082900301818387803b15801561133557600080fd5b505af1158015611349573d6000803e3d6000fd5b50505060109190915550565b60075460408051632f745c5960e01b81526001600160a01b038481166004830152600060248301819052925192931691632f745c5991604480820192602092909190829003018186803b1580156113ab57600080fd5b505afa1580156113bf573d6000803e3d6000fd5b505050506040513d60208110156113d557600080fd5b505190505b919050565b60165481565b600f5481565b600081815260186020526040812054158015906114365750600082815260186020526040902060020154158015906114365750600a5460008381526018602052604090206002015411155b801561146d5750600082815260186020526040902060030154158061146d5750600a54600083815260186020526040902060030154115b801561149f57506001600083815260186020526040902060060154600160a01b900460ff16600381111561149d57fe5b145b92915050565b600754604080516331a9108f60e11b8152600481018690529051859233926001600160a01b0390911691636352211e91602480820192602092909190829003018186803b1580156114f557600080fd5b505afa158015611509573d6000803e3d6000fd5b505050506040513d602081101561151f57600080fd5b50516001600160a01b03161461153457600080fd5b600a5460008581526018602052604090206003015410611591576040805162461bcd60e51b81526020600482015260136024820152724e6f20757365206f662072657374616b696e6760681b604482015290519081900360640190fd5b82156116605760048054604080516323b872dd60e01b8152339381019390935230602484015260448301869052516001600160a01b03909116916323b872dd9160648083019260209291908290030181600087803b1580156115f257600080fd5b505af1158015611606573d6000803e3d6000fd5b505050506040513d602081101561161c57600080fd5b5051611660576040805162461bcd60e51b815260206004820152600e60248201526d5472616e73666572207374616b6560901b604482015290519081900360640190fd5b811561173b5760008481526018602052604090206001015461168990849063ffffffff613f4e16565b6000858152601860205260409020600601549093506001600160a01b0316801561172757611724816001600160a01b03166332ba2e536040518163ffffffff1660e01b8152600401602060405180830381600087803b1580156116eb57600080fd5b505af11580156116ff573d6000803e3d6000fd5b505050506040513d602081101561171557600080fd5b5051859063ffffffff613f4e16565b93505b506000848152601860205260408120600101555b60115461174e908463ffffffff613f4e16565b601155600084815260186020526040902054611770908463ffffffff613f4e16565b600085815260186020908152604080832093909355600a548252601a9052818120805486019055600654825163532e19a960e01b81526004810188905292516001600160a01b039091169263532e19a992602480830193919282900301818387803b1580156117de57600080fd5b505af11580156117f2573d6000803e3d6000fd5b505060065460008781526018602052604080822054601154825163242c1b9960e01b8152600481018c90526024810192909252604482015290516001600160a01b03909316945063242c1b9993506064808201939182900301818387803b15801561185c57600080fd5b505af1158015611870573d6000803e3d6000fd5b5050505050505050565b600754604080516331a9108f60e11b8152600481018490529051839233926001600160a01b0390911691636352211e91602480820192602092909190829003018186803b1580156118ca57600080fd5b505afa1580156118de573d6000803e3d6000fd5b505050506040513d60208110156118f457600080fd5b50516001600160a01b03161461190957600080fd5b6000828152601c60205260409020541561196a576040805162461bcd60e51b815260206004820152601b60248201527f5761697420666f722061756374696f6e20636f6d706c6574696f6e0000000000604482015290519081900360640190fd5b600a5460009061198190600163ffffffff613f4e16565b600084815260186020526040902060020154909150158015906119b35750600083815260186020526040902060030154155b80156119e557506001600084815260186020526040902060060154600160a01b900460ff1660038111156119e357fe5b145b6119ee57600080fd5b6119f88382613f67565b505050565b6007546001600160a01b031681565b50600190565b6018602052600090815260409020805460018201546002830154600384015460048501546005860154600690960154949593949293919290916001600160a01b039081169190811690600160a01b900460ff1688565b60196020526000908152604090205481565b600754604080516331a9108f60e11b8152600481018490529051839233926001600160a01b0390911691636352211e91602480820192602092909190829003018186803b158015611aca57600080fd5b505afa158015611ade573d6000803e3d6000fd5b505050506040513d6020811015611af457600080fd5b50516001600160a01b031614611b0957600080fd5b600a54600083815260186020526040902060030154118015611b3e5750600a5460008381526018602052604090206004015411155b8015611b7057506002600083815260186020526040902060060154600160a01b900460ff166003811115611b6e57fe5b145b611b7957600080fd5b600082815260186020526040902054600d54811015611b9757600080fd5b600083815260186020526040812060038101546006909101549091906001600160a01b031615611caa57600085815260186020908152604091829020600601548251630e826fd160e21b815292516001600160a01b0390911692633a09bf44926004808301939192829003018186803b158015611c1357600080fd5b505afa158015611c27573d6000803e3d6000fd5b505050506040513d6020811015611c3d57600080fd5b505160008681526018602052604080822060060154815163a69df4b560e01b815291519394506001600160a01b03169263a69df4b59260048084019391929182900301818387803b158015611c9157600080fd5b505af1158015611ca5573d6000803e3d6000fd5b505050505b611cb88282850160016140f1565b5050506000918252506018602052604081206003810182905560068101805460ff60a01b1916600160a01b17905560040155565b600d5481565b6000838152601860205260408120600601546001600160a01b03163314611d1857600080fd5b600480546040805163a9059cbb60e01b81526001600160a01b0386811694820194909452602481018790529051929091169163a9059cbb916044808201926020929091908290030181600087803b158015611d7257600080fd5b505af1158015611d86573d6000803e3d6000fd5b505050506040513d6020811015611d9c57600080fd5b5051949350505050565b60006001600160a01b0382161580611e345750600754604080516370a0823160e01b81526001600160a01b038581166004830152915191909216916370a08231916024808301926020929190829003018186803b158015611e0657600080fd5b505afa158015611e1a573d6000803e3d6000fd5b505050506040513d6020811015611e3057600080fd5b5051155b15611e41575060006113da565b60075460408051632f745c5960e01b81526001600160a01b03858116600483015260006024830181905292516018949190911691632f745c59916044808301926020929190829003018186803b158015611e9a57600080fd5b505afa158015611eae573d6000803e3d6000fd5b505050506040513d6020811015611ec457600080fd5b5051815260208101919091526040016000205492915050565b60105481565b600254600160a01b900460ff1615611f2e576040805162461bcd60e51b8152602060048201526009602482015268125cc8131bd8dad95960ba1b604482015290519081900360640190fd5b601054611f39612731565b10611f4357600080fd5b600d548411611f5157600080fd5b6004546001600160a01b03166323b872dd3330611f74888863ffffffff613f4e16565b6040518463ffffffff1660e01b815260040180846001600160a01b03166001600160a01b03168152602001836001600160a01b03166001600160a01b031681526020018281526020019350505050602060405180830381600087803b158015611fdc57600080fd5b505af1158015611ff0573d6000803e3d6000fd5b505050506040513d602081101561200657600080fd5b5051612051576040805162461bcd60e51b8152602060048201526015602482015274151c985b9cd9995c881cdd185ad94819985a5b1959605a1b604482015290519081900360640190fd5b61205d85858484614113565b6012546111f19061207590600163ffffffff61451416565b84614529565b612084826113eb565b61208d57600080fd5b60175415806120a05750600a5460175411155b6120e4576040805162461bcd60e51b815260206004820152601060248201526f10dbdbdb08191bdddb881c195c9a5bd960821b604482015290519081900360640190fd5b601554600b546120fa908263ffffffff613f4e16565b600084815260186020526040902060020154600a5461211e9163ffffffff61451416565b8161212557fe5b061115612172576040805162461bcd60e51b8152602060048201526016602482015275125b9d985b1a5908185d58dd1a5bdb881c195c9a5bd960521b604482015290519081900360640190fd5b600061219b61218084611a0c565b6000858152601860205260409020549063ffffffff6145c416565b6000848152601c60205260409020549091506121b89082906145eb565b9050818110612207576040805162461bcd60e51b8152602060048201526016602482015275135d5cdd08189a59081a1a59da195c88185b5bdd5b9d60521b604482015290519081900360640190fd5b60048054604080516323b872dd60e01b8152339381019390935230602484015260448301859052516001600160a01b03909116916323b872dd9160648083019260209291908290030181600087803b15801561226257600080fd5b505af1158015612276573d6000803e3d6000fd5b505050506040513d602081101561228c57600080fd5b50516122d8576040805162461bcd60e51b8152602060048201526016602482015275151c985b9cd9995c88185b5bdd5b9d0819985a5b195960521b604482015290519081900360640190fd5b6000838152601c602052604090208054156123805760048054600283015483546040805163a9059cbb60e01b81526001600160a01b039384169581019590955260248501919091525191169163a9059cbb9160448083019260209291908290030181600087803b15801561234b57600080fd5b505af115801561235f573d6000803e3d6000fd5b505050506040513d602081101561237557600080fd5b505161238057600080fd5b8281556002810180546001600160a01b03191633179055600654600085815260186020908152604080832054601c909252808320548151630934a6df60e01b8152600481018a905260248101939093526044830152516001600160a01b039390931692630934a6df9260648084019391929182900301818387803b15801561185c57600080fd5b601c602052600090815260409020805460018201546002909201549091906001600160a01b031683565b60125481565b6000908152601860205260409020600601546001600160a01b031690565b6002546001600160a01b031681565b600c54949350505050565b601a602052600090815260409020805460019091015482565b600754604080516331a9108f60e11b81526004810184905290516000926001600160a01b031691636352211e916024808301926020929190829003018186803b1580156113ab57600080fd5b6000838152601860205260408120600601546001600160a01b031633146124fa57600080fd5b60048054604080516323b872dd60e01b81526001600160a01b038681169482019490945230602482015260448101879052905192909116916323b872dd916064808201926020929091908290030181600087803b158015611d7257600080fd5b60055460408051631ab0168360e31b8152905133926001600160a01b03169163d580b418916004808301926020929190829003018186803b15801561259e57600080fd5b505afa1580156125b2573d6000803e3d6000fd5b505050506040513d60208110156125c857600080fd5b50516001600160a01b0316146125dd57600080fd5b60008381526018602052604081205461260f90606490612603908663ffffffff6145c416565b9063ffffffff61460216565b600085815260186020526040902054909150612631908263ffffffff61451416565b6000858152601860205260409020819055600d5411806126515750600082115b156126605761266084836135a4565b6006546040805163532e19a960e01b81526004810187905290516001600160a01b039092169163532e19a99160248082019260009290919082900301818387803b15801561185c57600080fd5b600090565b600b5481565b6126c061275e565b6126c957600080fd5b600080546040516001600160a01b03909116907f8be0079c531659141344cd1fd0a4f28419497f9722a3daafe3b4186f6b6457e0908390a3600080546001600160a01b0319169055565b600a5481565b6005546001600160a01b031681565b600c5481565b50565b600a546000908152601a602052604090206001015490565b60115481565b6000546001600160a01b031690565b6000546001600160a01b0316331490565b601b6020526000908152604090205481565b61278961275e565b61279257600080fd5b61272e81600a54613f67565b600754604080516331a9108f60e11b8152600481018490529051839233926001600160a01b0390911691636352211e91602480820192602092909190829003018186803b1580156127ee57600080fd5b505afa158015612802573d6000803e3d6000fd5b505050506040513d602081101561281857600080fd5b50516001600160a01b03161461282d57600080fd5b600082815260186020526040902060018101546006909101546001600160a01b031680156128cf576128cc816001600160a01b03166332ba2e536040518163ffffffff1660e01b8152600401602060405180830381600087803b15801561289357600080fd5b505af11580156128a7573d6000803e3d6000fd5b505050506040513d60208110156128bd57600080fd5b5051839063ffffffff613f4e16565b91505b6014546128e2908363ffffffff613f4e16565b601455600084815260186020908152604080832060010183905560048054825163a9059cbb60e01b815233928101929092526024820187905291516001600160a01b039092169363a9059cbb9360448084019491939192918390030190829087803b15801561295057600080fd5b505af1158015612964573d6000803e3d6000fd5b505050506040513d602081101561297a57600080fd5b50516129c3576040805162461bcd60e51b8152602060048201526013602482015272496e737566666963656e74207265776172647360681b604482015290519081900360640190fd5b60065460145460408051635b42d93560e11b815260048101889052602481018690526044810192909252516001600160a01b039092169163b685b26a9160648082019260009290919082900301818387803b15801561185c57600080fd5b6003546001600160a01b031681565b601d5481565b6000828152601860205260409020600601546001600160a01b03163314612a5c57600080fd5b600a546000908152601a602052604090208054909101905550565b612a7f61275e565b612a8857600080fd5b60008111612add576040805162461bcd60e51b815260206004820181905260248201527f426c6f636b7320696e74657276616c206d757374206265206e6f6e2d7a65726f604482015290519081900360640190fd5b600f55565b600a546000908152601a602052604090205490565b6002546001600160a01b03163314612b405760405162461bcd60e51b81526004018080602001828103825260268152602001806147426026913960400191505060405180910390fd5b6002805460ff60a01b19169055565b600e54811015612ba6576040805162461bcd60e51b815260206004820152601960248201527f4d696e696d756d20616d6f756e742069732031204d6174696300000000000000604482015290519081900360640190fd5b60048054604080516323b872dd60e01b8152339381019390935230602484015260448301849052516001600160a01b03909116916323b872dd9160648083019260209291908290030181600087803b158015612c0157600080fd5b505af1158015612c15573d6000803e3d6000fd5b505050506040513d6020811015612c2b57600080fd5b5051612c76576040805162461bcd60e51b8152602060048201526015602482015274151c985b9cd9995c881cdd185ad94819985a5b1959605a1b604482015290519081900360640190fd5b612c808282614529565b5050565b612c8c61275e565b612c9557600080fd5b600d91909155600e55565b600754604080516331a9108f60e11b8152600481018890529051879233926001600160a01b0390911691636352211e91602480820192602092909190829003018186803b158015612cf057600080fd5b505afa158015612d04573d6000803e3d6000fd5b505050506040513d6020811015612d1a57600080fd5b50516001600160a01b031614612d2f57600080fd5b8584866040516020018084815260200183815260200182815260200193505050506040516020818303038152906040528051906020012073__Merkle________________________________636c8f455c909185601654866040518563ffffffff1660e01b81526004018085815260200184815260200183815260200180602001828103825283818151815260200191508051906020019080838360005b83811015612de5578181015183820152602001612dcd565b50505050905090810190601f168015612e125780820380516001836020036101000a031916815260200191505b509550505050505060206040518083038186803b158015612e3257600080fd5b505af4158015612e46573d6000803e3d6000fd5b505050506040513d6020811015612e5c57600080fd5b5051612ea1576040805162461bcd60e51b815260206004820152600f60248201526e2bb937b7339030b1b190383937b7b360891b604482015290519081900360640190fd5b6000868152601b6020526040812054612ec190869063ffffffff61451416565b600480546040805163a9059cbb60e01b8152339381019390935260248301849052519293506001600160a01b03169163a9059cbb916044808201926020929091908290030181600087803b158015612f1857600080fd5b505af1158015612f2c573d6000803e3d6000fd5b505050506040513d6020811015612f4257600080fd5b5051612f4d57600080fd5b612f578782614624565b505050600093845250601b60205260409092209190915550565b6008546001600160a01b031681565b600254600160a01b900460ff1615612fcb576040805162461bcd60e51b8152602060048201526009602482015268125cc8131bd8dad95960ba1b604482015290519081900360640190fd5b6000858152601c602090815260408083206018909252909120601554600b54612ffb90829063ffffffff613f4e16565b6001840154600a546130129163ffffffff61451416565b8161301957fe5b0610156130575760405162461bcd60e51b81526004018080602001828103825260308152602001806147126030913960400191505060405180910390fd5b600754604080516331a9108f60e11b8152600481018a905290516001600160a01b0390921691636352211e91602480820192602092909190829003018186803b1580156130a357600080fd5b505afa1580156130b7573d6000803e3d6000fd5b505050506040513d60208110156130cd57600080fd5b505160028301546001600160a01b03908116911614156132a35780546004805460028501546040805163a9059cbb60e01b81526001600160a01b0392831694810194909452602484018590525191169163a9059cbb9160448083019260209291908290030181600087803b15801561314457600080fd5b505af1158015613158573d6000803e3d6000fd5b505050506040513d602081101561316e57600080fd5b505161317957600080fd5b82548255600083556002830180546001600160a01b0319169055600a54600184015581546131c0906131b1908363ffffffff61451416565b6011549063ffffffff613f4e16565b6011556006546040805163532e19a960e01b8152600481018b905290516001600160a01b039092169163532e19a99160248082019260009290919082900301818387803b15801561321057600080fd5b505af1158015613224573d6000803e3d6000fd5b505060065484546040805163e12ab1af60e01b8152600481018e9052602481018e90526044810192909252516001600160a01b03909216935063e12ab1af925060648082019260009290919082900301818387803b15801561328557600080fd5b505af1158015613299573d6000803e3d6000fd5b505050505061349b565b6132af87600a54613f67565b60048054604080516323b872dd60e01b8152339381019390935230602484015260448301899052516001600160a01b03909116916323b872dd9160648083019260209291908290030181600087803b15801561330a57600080fd5b505af115801561331e573d6000803e3d6000fd5b505050506040513d602081101561333457600080fd5b505161337d576040805162461bcd60e51b8152602060048201526013602482015272151c985b9cd9995c881999594819985a5b1959606a1b604482015290519081900360640190fd5b60028201548254604080516020601f88018190048102820181019092528681526133cf936001600160a01b03169291899190899089908190840183828082843760009201919091525061411392505050565b6012546133ed906133e790600163ffffffff61451416565b87614529565b6006546012546001600160a01b039091169063e12ab1af9061341690600163ffffffff61451416565b8985600001546040518463ffffffff1660e01b8152600401808481526020018381526020018281526020019350505050600060405180830381600087803b15801561346057600080fd5b505af1158015613474573d6000803e3d6000fd5b5050506000888152601c6020526040812090815560020180546001600160a01b0319169055505b50505050505050565b6134ac61275e565b6134b557600080fd5b600081116134c257600080fd5b600654600c5460408051632dbe9d3160e21b8152600481018590526024810192909252516001600160a01b039092169163b6fa74c49160448082019260009290919082900301818387803b15801561351957600080fd5b505af115801561352d573d6000803e3d6000fd5b505050600c9190915550565b60145481565b600254600160a01b900460ff1681565b60008151604014613598576040805162461bcd60e51b815260206004820152600e60248201526d496e76616c6964207075626b657960901b604482015290519081900360640190fd5b50805160209091012090565b60055460408051631ab0168360e31b8152905133926001600160a01b03169163d580b418916004808301926020929190829003018186803b1580156135e857600080fd5b505afa1580156135fc573d6000803e3d6000fd5b505050506040513d602081101561361257600080fd5b50516001600160a01b03161461362757600080fd5b600082815260186020526040812054600954600a5491929161364e9163ffffffff613f4e16565b60008581526018602052604081206004810186905560060154919250906001600160a01b03161561376257600085815260186020908152604091829020600601548251630e826fd160e21b815292516001600160a01b0390911692633a09bf44926004808301939192829003018186803b1580156136cb57600080fd5b505afa1580156136df573d6000803e3d6000fd5b505050506040513d60208110156136f557600080fd5b5051600086815260186020526040808220600601548151637c1e845d60e11b815291519394506001600160a01b03169263f83d08ba9260048084019391929182900301818387803b15801561374957600080fd5b505af115801561375d573d6000803e3d6000fd5b505050505b613774828285016000036000196140f1565b600085815260186020526040808220600381018590556006908101805460ff60a01b1916600160a11b1790555481516304ba4aad60e11b8152600481018990526024810186905291516001600160a01b0390911692630974955a926044808201939182900301818387803b1580156137eb57600080fd5b505af11580156137ff573d6000803e3d6000fd5b505050505050505050565b600754604080516331a9108f60e11b8152600481018490529051839233926001600160a01b0390911691636352211e91602480820192602092909190829003018186803b15801561385a57600080fd5b505afa15801561386e573d6000803e3d6000fd5b505050506040513d602081101561388457600080fd5b50516001600160a01b03161461389957600080fd5b600082815260186020526040902060030154158015906138de5750600a546009546000848152601860205260409020600301546138db9163ffffffff613f4e16565b11155b801561391157506003600083815260186020526040902060060154600160a01b900460ff16600381111561390e57fe5b14155b61391a57600080fd5b60008281526018602052604090205460115461393c908263ffffffff61451416565b60115560075460408051630852cd8d60e31b81526004810186905290516001600160a01b03909216916342966c689160248082019260009290919082900301818387803b15801561398c57600080fd5b505af11580156139a0573d6000803e3d6000fd5b505050600084815260186020818152604080842060058101546001600160a01b039081168652601984529185208590559388905291905260068201805460ff60a01b1916600360a01b1790556004546001909201549116915063a9059cbb903390613a0c908590613f4e565b6040518363ffffffff1660e01b815260040180836001600160a01b03166001600160a01b0316815260200182815260200192505050602060405180830381600087803b158015613a5b57600080fd5b505af1158015613a6f573d6000803e3d6000fd5b505050506040513d6020811015613a8557600080fd5b5051613ad0576040805162461bcd60e51b8152602060048201526015602482015274151c985b9cd9995c881cdd185ad94819985a5b1959605a1b604482015290519081900360640190fd5b6006546011546040805163ae2e26b160e01b815233600482015260248101879052604481018590526064810192909252516001600160a01b039092169163ae2e26b19160848082019260009290919082900301818387803b158015613b3457600080fd5b505af115801561349b573d6000803e3d6000fd5b613b5061275e565b613b5957600080fd5b60008111613b6657600080fd5b600654600b5460408051635071805360e11b8152600481018590526024810192909252516001600160a01b039092169163a0e300a69160448082019260009290919082900301818387803b158015613bbd57600080fd5b505af1158015613bd1573d6000803e3d6000fd5b505050600b829055506009819055613bf081600463ffffffff61460216565b6015819055600a54613c079163ffffffff613f4e16565b60175550565b613c1561275e565b613c1e57600080fd5b6001600160a01b038116613c3157600080fd5b6003546040516001600160a01b038084169216907f211c9015fc81c0dbd45bd99f0f29fc1c143bfd53442d5ffd722bbbef7a887fe990600090a3600380546001600160a01b0319166001600160a01b0392909216919091179055565b6006546001600160a01b031681565b613ca461275e565b613cad57600080fd5b61272e816146a3565b600754604080516331a9108f60e11b8152600481018590529051849233926001600160a01b0390911691636352211e91602480820192602092909190829003018186803b158015613d0657600080fd5b505afa158015613d1a573d6000803e3d6000fd5b505050506040513d6020811015613d3057600080fd5b50516001600160a01b031614613d4557600080fd5b6000613d508361354f565b90506001600160a01b03811615801590613d8057506001600160a01b038116600090815260196020526040902054155b613d8957600080fd5b600654600085815260186020908152604080832060050154905163b80fbce560e01b8152600481018981526001600160a01b039283166024830181905287841660448401526080606484019081528a5160848501528a51949097169663b80fbce5968c9692958a958d959460a49091019290860191908190849084905b83811015613e1e578181015183820152602001613e06565b50505050905090810190601f168015613e4b5780820380516001836020036101000a031916815260200191505b5095505050505050600060405180830381600087803b158015613e6d57600080fd5b505af1158015613e81573d6000803e3d6000fd5b505050600085815260186020818152604080842060050180546001600160a01b03908116865260198452828620869055969096168085529084208990559790925290525080546001600160a01b0319169093179092555050565b6002546001600160a01b03163314613f245760405162461bcd60e51b81526004018080602001828103825260268152602001806147426026913960400191505060405180910390fd5b6002805460ff60a01b1916600160a01b179055565b600e5481565b6004546001600160a01b031681565b600082820183811015613f6057600080fd5b9392505050565b60008281526018602052604081208054600382018490556006909101549091906001600160a01b03161561407e57600084815260186020908152604091829020600601548251630e826fd160e21b815292516001600160a01b0390911692633a09bf44926004808301939192829003018186803b158015613fe757600080fd5b505afa158015613ffb573d6000803e3d6000fd5b505050506040513d602081101561401157600080fd5b5051600085815260186020526040808220600601548151637c1e845d60e11b815291519394506001600160a01b03169263f83d08ba9260048084019391929182900301818387803b15801561406557600080fd5b505af1158015614079573d6000803e3d6000fd5b505050505b614090838284016000036000196140f1565b60065460408051635e04d48360e01b815233600482015260248101879052604481018690526064810185905290516001600160a01b0390921691635e04d4839160848082019260009290919082900301818387803b15801561185c57600080fd5b6000928352601a60205260409092208054909101815560010180549091019055565b600061411e8261354f565b6001600160a01b03811660009081526019602052604090205490915015614181576040805162461bcd60e51b8152602060048201526012602482015271496e76616c6964205369676e6572206b657960701b604482015290519081900360640190fd5b601154614194908563ffffffff613f4e16565b60118190555060405180610100016040528085815260200160008152602001600a5481526020016000815260200160008152602001826001600160a01b03168152602001846141e457600061426c565b6008546012546006546040805163780ff34960e11b815260048101939093526001600160a01b0391821660248401525192169163f01fe692916044808201926020929091908290030181600087803b15801561423f57600080fd5b505af1158015614253573d6000803e3d6000fd5b505050506040513d602081101561426957600080fd5b50515b6001600160a01b03168152602001600190526012546000908152601860209081526040918290208351815590830151600182015590820151600282015560608201516003808301919091556080830151600483015560a08301516005830180546001600160a01b039283166001600160a01b03199182161790915560c08501516006850180549190931691161780825560e08501519260ff60a01b1990911690600160a01b90849081111561431d57fe5b021790555050600754601254604080516340c10f1960e01b81526001600160a01b038a81166004830152602482019390935290519190921692506340c10f199160448082019260009290919082900301818387803b15801561437e57600080fd5b505af1158015614392573d6000803e3d6000fd5b50506012546001600160a01b0384166000908152601960205260409020555050600a546143c1908560016140f1565b600a54601c6000601254815260200190815260200160002060010181905550600660009054906101000a90046001600160a01b03166001600160a01b03166333a8383c8284601254600a54896011546040518763ffffffff1660e01b815260040180876001600160a01b03166001600160a01b0316815260200180602001868152602001858152602001848152602001838152602001828103825287818151815260200191508051906020019080838360005b8381101561448c578181015183820152602001614474565b50505050905090810190601f1680156144b95780820380516001836020036101000a031916815260200191505b50975050505050505050600060405180830381600087803b1580156144dd57600080fd5b505af11580156144f1573d6000803e3d6000fd5b505060125461450a92509050600163ffffffff613f4e16565b6012555050505050565b60008282111561452357600080fd5b50900390565b601d5461453c908263ffffffff613f4e16565b601d55600654600083815260186020526040808220600501548151631ace9d8b60e01b8152600481018790526001600160a01b039182166024820152604481018690529151931692631ace9d8b9260648084019391929182900301818387803b1580156145a857600080fd5b505af11580156145bc573d6000803e3d6000fd5b505050505050565b6000826145d35750600061149f565b828202828482816145e057fe5b0414613f6057600080fd5b6000818310156145fb5781613f60565b5090919050565b600080821161461057600080fd5b600082848161461b57fe5b04949350505050565b601d54614637908263ffffffff61451416565b601d55600654600083815260186020526040808220600501548151632f7e086160e01b8152600481018790526001600160a01b039182166024820152604481018690529151931692632f7e08619260648084019391929182900301818387803b1580156145a857600080fd5b6001600160a01b0381166146b657600080fd5b600080546040516001600160a01b03808516939216917f8be0079c531659141344cd1fd0a4f28419497f9722a3daafe3b4186f6b6457e091a3600080546001600160a01b0319166001600160a01b039290921691909117905556fe436f6e6669726d6174696f6e206973206e6f7420616c6c6f776564206265666f72652061756374696f6e506572696f644f6e6c7920676f7665726e616e636520636f6e747261637420697320617574686f72697a6564a265627a7a72315820bd3a74e991d13e26930cefd5d0061cc318d91c827f0b9f5459be675b35cf3a9a64736f6c634300050b0032",
  "source": "pragma solidity ^0.5.2;\n\nimport {IERC20} from \"openzeppelin-solidity/contracts/token/ERC20/IERC20.sol\";\n\nimport {IGovernance} from \"../common/governance/IGovernance.sol\";\nimport {StakeManager} from \"../staking/stakeManager/StakeManager.sol\";\nimport {StakingInfo} from \"../staking/StakingInfo.sol\";\nimport {StakingNFT} from \"../staking/stakeManager/StakingNFT.sol\";\nimport \"../staking/validatorShare/ValidatorShareFactory.sol\";\n\ncontract StakeManagerTest is StakeManager {\n    modifier onlyRootChain() {\n        _;\n    }\n\n    constructor(\n        address _registry,\n        address _rootChain,\n        address _token,\n        address _NFTContract,\n        address _stakingLogger,\n        address _validatorShareFactory,\n        address _governance\n    ) public {\n        checkPointBlockInterval = 1;\n        registry = _registry;\n        rootChain = _rootChain;\n        token = IERC20(_token);\n        NFTContract = StakingNFT(_NFTContract);\n        logger = StakingInfo(_stakingLogger);\n        factory = ValidatorShareFactory(_validatorShareFactory);\n        governance = IGovernance(_governance);\n    }\n\n    function checkSignatures(\n        uint256 blockInterval,\n        bytes32 voteHash,\n        bytes32 stateRoot,\n        bytes memory sigs\n    ) public onlyRootChain returns (uint256) {\n        return CHECKPOINT_REWARD; // for dummy tests return full reward\n    }\n}\n",
  "sourcePath": "/Users/arth/Documents/Projects/contracts/contracts/test/StakeManagerTest.sol",
  "compiler": {
    "name": "solc",
    "version": "0.5.11+commit.c082d0b4.Emscripten.clang"
  },
  "schemaVersion": "3.0.14",
  "updatedAt": "2020-04-06T09:29:52.910Z",
  "devdoc": {
    "methods": {
      "changeRootChain(address)": {
        "details": "Allows the current owner to change root chain address.",
        "params": {
          "newRootChain": "The address to new rootchain."
        }
      },
      "isOwner()": {
        "return": "true if `msg.sender` is the owner of the contract."
      },
      "owner()": {
        "return": "the address of the owner."
      },
      "renounceOwnership()": {
        "details": "Allows the current owner to relinquish control of the contract. It will not be possible to call the functions with the `onlyOwner` modifier anymore."
      },
      "transferOwnership(address)": {
        "details": "Allows the current owner to transfer control of the contract to a newOwner.",
        "params": {
          "newOwner": "The address to transfer ownership to."
        }
      }
    }
  },
  "userdoc": {
    "methods": {
      "renounceOwnership()": {
        "notice": "Renouncing ownership will leave the contract without an owner, thereby removing any functionality that is only available to the owner."
      }
    }
  }
}