{
  "contractName": "ValidatorShareFactory",
  "abi": [
    {
      "constant": false,
      "inputs": [
        {
          "internalType": "uint256",
          "name": "validatorId",
          "type": "uint256"
        },
        {
          "internalType": "address",
          "name": "loggerAddress",
          "type": "address"
        }
      ],
      "name": "create",
      "outputs": [
        {
          "internalType": "address",
          "name": "",
          "type": "address"
        }
      ],
      "payable": false,
      "stateMutability": "nonpayable",
      "type": "function"
    }
  ],
  "bytecode": "0x608060405234801561001057600080fd5b50611fa6806100206000396000f3fe608060405234801561001057600080fd5b506004361061002b5760003560e01c8063f01fe69214610030575b600080fd5b61005c6004803603604081101561004657600080fd5b50803590602001356001600160a01b0316610078565b604080516001600160a01b039092168252519081900360200190f35b60008083833360405161008a906100ce565b9283526001600160a01b039182166020840152166040808301919091525190819003606001906000f0801580156100c5573d6000803e3d6000fd5b50949350505050565b611e96806100dc8339019056fe6080604052600a8055600e805460ff1916600117905534801561002157600080fd5b5060405162001e9638038062001e968339818101604052606081101561004657600080fd5b5080516020820151604092830151600380546001600160a01b038084166001600160a01b031992831617909255600480549091163317908190559451939492939192859285928592169060009060008051602062001e76833981519152908290a36007839055600580546001600160a01b038085166001600160a01b03199283161790925560068054928416929091169190911790556100ee816001600160e01b036100f916565b505050505050610157565b6001600160a01b03811661010c57600080fd5b6004546040516001600160a01b0380841692169060008051602062001e7683398151915290600090a3600480546001600160a01b0319166001600160a01b0392909216919091179055565b611d0f80620001676000396000f3fe608060405234801561001057600080fd5b506004361061023c5760003560e01c8063715018a61161013b578063c7b8981c116100b8578063eebfa4b71161007c578063eebfa4b714610537578063ef40a6701461055a578063f2fde38b14610580578063f3c65e5f146105a6578063f83d08ba146105ae5761023c565b8063c7b8981c146104e9578063cf309012146104f1578063dd62ed3e146104f9578063df5cf72314610527578063eba8a2661461052f5761023c565b80638f32d59b116100ff5780638f32d59b146104795780639ec5a89414610481578063a457c2d714610489578063a69df4b5146104b5578063a9059cbb146104bd5761023c565b8063715018a61461041a5780637542ff95146104225780638b0e9f3f1461042a5780638d23fc61146104325780638da5cb5b146104715761023c565b80633d94eb05116101c95780635ea1d6f81161018d5780635ea1d6f814610395578063676e55501461039d5780636bd7ee4f146103c35780636cbb6050146103cb57806370a08231146103f45761023c565b80633d94eb051461033c5780634144574c146103605780635aa6e6751461037d5780635c5f7dae146103855780635d1e36161461038d5761023c565b806329ed2b341161021057806329ed2b34146102f057806332ba2e53146102f857806339509351146103005780633a09bf441461032c5780633ba0b9a9146103345761023c565b8062fa3d5014610241578063095ea7b31461026057806318160ddd146102a057806323b872dd146102ba575b600080fd5b61025e6004803603602081101561025757600080fd5b50356105b6565b005b61028c6004803603604081101561027657600080fd5b506001600160a01b038135169060200135610707565b604080519115158252519081900360200190f35b6102a861071e565b60408051918252519081900360200190f35b61028c600480360360608110156102d057600080fd5b506001600160a01b03813581169160208101359091169060400135610724565b61025e61077b565b6102a8610bc6565b61028c6004803603604081101561031657600080fd5b506001600160a01b038135169060200135610be6565b6102a8610c22565b6102a8610c28565b610344610c6b565b604080516001600160a01b039092168252519081900360200190f35b61025e6004803603602081101561037657600080fd5b5035610c7a565b610344610eab565b6102a8610eba565b6102a8610ec0565b6102a8610ec6565b6102a8600480360360208110156103b357600080fd5b50356001600160a01b0316610ecc565b61025e610f77565b61025e600480360360608110156103e157600080fd5b50803590602081013590604001356111d7565b6102a86004803603602081101561040a57600080fd5b50356001600160a01b03166111dc565b61025e6111f7565b610344611252565b6102a8611261565b6104586004803603602081101561044857600080fd5b50356001600160a01b0316611267565b6040805192835260208301919091528051918290030190f35b610344611280565b61028c61128f565b6102a86112a0565b61028c6004803603604081101561049f57600080fd5b506001600160a01b0381351690602001356112a6565b61025e6112e2565b61028c600480360360408110156104d357600080fd5b506001600160a01b03813516906020013561133a565b61025e611347565b61028c6114b8565b6102a86004803603604081101561050f57600080fd5b506001600160a01b03813581169160200135166114c8565b61028c6114f3565b61025e6114fc565b6102a86004803603604081101561054d57600080fd5b50803590602001356117a9565b6102a86004803603602081101561057057600080fd5b50356001600160a01b0316611901565b61025e6004803603602081101561059657600080fd5b50356001600160a01b0316611913565b6102a8611930565b61025e611936565b600654600754604080516331a9108f60e11b815260048101929092525133926001600160a01b031691636352211e916024808301926020929190829003018186803b15801561060457600080fd5b505afa158015610618573d6000803e3d6000fd5b505050506040513d602081101561062e57600080fd5b50516001600160a01b03161461064357600080fd5b606460095411156106855760405162461bcd60e51b815260040180806020018281038252602b815260200180611c8a602b913960400191505060405180910390fd5b600554600754600954604080516364c6600160e11b81526004810193909352602483018590526044830191909152516001600160a01b039092169163c98cc0029160648082019260009290919082900301818387803b1580156106e757600080fd5b505af11580156106fb573d6000803e3d6000fd5b50505060099190915550565b6000610714338484611994565b5060015b92915050565b60025490565b6000610731848484611a1c565b6001600160a01b03841660009081526001602090815260408083203380855292529091205461077191869161076c908663ffffffff611a5416565b611994565b5060019392505050565b6000610786336111dc565b9050600081116107cc576040805162461bcd60e51b815260206004820152600c60248201526b5a65726f2062616c616e636560a01b604482015290519081900360640190fd5b60006107f760646107eb846107df610c28565b9063ffffffff611a6916565b9063ffffffff611a9716565b90506108033383611ab9565b60065460075460408051629ff11560e81b815260048101929092526000848103602484015290516001600160a01b0390931692639ff1150092604480820193929182900301818387803b15801561085957600080fd5b505af115801561086d573d6000803e3d6000fd5b5050336000908152600f60205260409020548311159150610993905057336000908152600f60205260408120546108ab90839063ffffffff611a5416565b600654600754604080516323bbfda160e11b8152600481019290925260248201849052336044830152519293506001600160a01b0390911691634777fb42916064808201926020929091908290030181600087803b15801561090c57600080fd5b505af1158015610920573d6000803e3d6000fd5b505050506040513d602081101561093657600080fd5b505161097f576040805162461bcd60e51b8152602060048201526013602482015272496e737566666963656e74207265776172647360681b604482015290519081900360640190fd5b61098f828263ffffffff611a5416565b9150505b600d546109a6908263ffffffff611a5416565b600d55336000908152600f602090815260408083209290925581518083018352838152600654835163075d8b9560e11b81529351919384840193610abb936001600160a01b0390931692630ebb172a926004808201939291829003018186803b158015610a1257600080fd5b505afa158015610a26573d6000803e3d6000fd5b505050506040513d6020811015610a3c57600080fd5b505160065460408051630ecce30160e31b815290516001600160a01b0390921691637667180891600480820192602092909190829003018186803b158015610a8357600080fd5b505afa158015610a97573d6000803e3d6000fd5b505050506040513d6020811015610aad57600080fd5b50519063ffffffff611b6016565b9052336000818152601060209081526040808320855181559490910151600190940193909355600554600754845163f1382b5360e01b815260048101919091526024810193909352604483018590526064830186905292516001600160a01b039093169263f1382b5392608480820193929182900301818387803b158015610b4257600080fd5b505af1158015610b56573d6000803e3d6000fd5b50506005546007546040805163532e19a960e01b81526004810192909252516001600160a01b03909216935063532e19a9925060248082019260009290919082900301818387803b158015610baa57600080fd5b505af1158015610bbe573d6000803e3d6000fd5b505050505050565b6000610bd061128f565b610bd957600080fd5b5060088054600090915590565b3360008181526001602090815260408083206001600160a01b0387168452909152812054909161071491859061076c908663ffffffff611b6016565b600d5481565b6000610c3261071e565b15610c6357610c5e610c4261071e565b6107eb60646107df600c54600d54611b6090919063ffffffff16565b610c66565b60645b905090565b6005546001600160a01b031681565b600354600160a01b900460ff1615610cc5576040805162461bcd60e51b8152602060048201526009602482015268125cc8131bd8dad95960ba1b604482015290519081900360640190fd5b6000610ce3610cd2610c28565b6107eb84606463ffffffff611a6916565b600b54909150610cf9908363ffffffff611b6016565b600b55336000908152600f6020526040902054610d1c908363ffffffff611b6016565b336000818152600f60209081526040808320949094556006546007548551636901b25360e01b8152600481019190915260248101889052604481019490945293516001600160a01b0390941693636901b25393606480820194918390030190829087803b158015610d8c57600080fd5b505af1158015610da0573d6000803e3d6000fd5b505050506040513d6020811015610db657600080fd5b50610dc390503382611b72565b600d54610dd6908363ffffffff611b6016565b600d5560065460075460408051629ff11560e81b8152600481019290925260248201859052516001600160a01b0390921691639ff115009160448082019260009290919082900301818387803b158015610e2f57600080fd5b505af1158015610e43573d6000803e3d6000fd5b50506005546007546040805163c69d057360e01b815260048101929092523360248301526044820187905260648201869052516001600160a01b03909216935063c69d0573925060848082019260009290919082900301818387803b158015610b4257600080fd5b6003546001600160a01b031681565b60075481565b60085481565b60095481565b600080610ed8836111dc565b90506000610ee4610c28565b905060008211610f2a576040805162461bcd60e51b815260206004820152600c60248201526b5a65726f2062616c616e636560a01b604482015290519081900360640190fd5b6000610f4160646107eb848663ffffffff611a6916565b6001600160a01b0386166000908152600f6020526040902054909150610f6e90829063ffffffff611a5416565b95945050505050565b3360009081526010602052604090208054600b54610f9a9163ffffffff611a5416565b600b5560065460408051630ecce30160e31b815290516001600160a01b0390921691637667180891600480820192602092909190829003018186803b158015610fe257600080fd5b505afa158015610ff6573d6000803e3d6000fd5b505050506040513d602081101561100c57600080fd5b50516001820154118015906110215750805415155b611072576040805162461bcd60e51b815260206004820152601c60248201527f496e636f6d706c657465207769746864726177616c20706572696f6400000000604482015290519081900360640190fd5b6006546007548254604080516323bbfda160e11b815260048101939093526024830191909152336044830152516001600160a01b0390921691634777fb42916064808201926020929091908290030181600087803b1580156110d357600080fd5b505af11580156110e7573d6000803e3d6000fd5b505050506040513d60208110156110fd57600080fd5b5051611146576040805162461bcd60e51b8152602060048201526013602482015272496e737566666963656e74207265776172647360681b604482015290519081900360640190fd5b600554600754825460408051636fe003d760e11b815260048101939093523360248401526044830191909152516001600160a01b039092169163dfc007ae9160648082019260009290919082900301818387803b1580156111a657600080fd5b505af11580156111ba573d6000803e3d6000fd5b505033600090815260106020526040812081815560010155505050565b505050565b6001600160a01b031660009081526020819052604090205490565b6111ff61128f565b61120857600080fd5b6004546040516000916001600160a01b0316907f8be0079c531659141344cd1fd0a4f28419497f9722a3daafe3b4186f6b6457e0908390a3600480546001600160a01b0319169055565b6006546001600160a01b031681565b600b5481565b6010602052600090815260409020805460019091015482565b6004546001600160a01b031690565b6004546001600160a01b0316331490565b600c5481565b3360008181526001602090815260408083206001600160a01b0387168452909152812054909161071491859061076c908663ffffffff611a5416565b6003546001600160a01b0316331461132b5760405162461bcd60e51b8152600401808060200182810382526026815260200180611cb56026913960400191505060405180910390fd5b6003805460ff60a01b19169055565b6000610714338484611a1c565b600061135233610ecc565b90506000611361610cd2610c28565b905061136d3382611ab9565b600c54611380908363ffffffff611a5416565b600c55600654600754604080516323bbfda160e11b8152600481019290925260248201859052336044830152516001600160a01b0390921691634777fb42916064808201926020929091908290030181600087803b1580156113e157600080fd5b505af11580156113f5573d6000803e3d6000fd5b505050506040513d602081101561140b57600080fd5b5051611454576040805162461bcd60e51b8152602060048201526013602482015272496e737566666963656e74207265776172647360681b604482015290519081900360640190fd5b6005546007546040805163af4cdabf60e01b815260048101929092523360248301526044820185905260648201849052516001600160a01b039092169163af4cdabf9160848082019260009290919082900301818387803b158015610baa57600080fd5b600354600160a01b900460ff1681565b6001600160a01b03918216600090815260016020908152604080832093909416825291909152205490565b600e5460ff1681565b600061150733610ecc565b336000908152600f602052604090205490915061152a908263ffffffff611b6016565b336000908152600f6020526040902055600b5461154d908263ffffffff611b6016565b600b55600d54611563908263ffffffff611b6016565b600d55600654600754604080516323bbfda160e11b8152600481019290925260248201849052306044830152516001600160a01b0390921691634777fb42916064808201926020929091908290030181600087803b1580156115c457600080fd5b505af11580156115d8573d6000803e3d6000fd5b505050506040513d60208110156115ee57600080fd5b5051611637576040805162461bcd60e51b8152602060048201526013602482015272496e737566666963656e74207265776172647360681b604482015290519081900360640190fd5b60065460075460408051629ff11560e81b8152600481019290925260248201849052516001600160a01b0390921691639ff115009160448082019260009290919082900301818387803b15801561168d57600080fd5b505af11580156116a1573d6000803e3d6000fd5b5050600c546116b9925090508263ffffffff611a5416565b600c556005546007546040805163532e19a960e01b81526004810192909252516001600160a01b039092169163532e19a99160248082019260009290919082900301818387803b15801561170c57600080fd5b505af1158015611720573d6000803e3d6000fd5b5050600554600754336000818152600f60205260408082205481516201a5a760e71b815260048101959095526024850193909352604484019290925290516001600160a01b03909316945062d2d3809350606480830193919282900301818387803b15801561178e57600080fd5b505af11580156117a2573d6000803e3d6000fd5b5050505050565b60006117b361128f565b6117bc57600080fd5b60065460075460408051630d6a8b9160e21b815260048101929092525160009283926001600160a01b03909116916335aa2e449160248082019261010092909190829003018186803b15801561181157600080fd5b505afa158015611825573d6000803e3d6000fd5b505050506040513d61010081101561183c57600080fd5b5051600d5490915061185590829063ffffffff611b6016565b9150600061186d856107eb858963ffffffff611a6916565b90506000611885846107eb858563ffffffff611a6916565b90506118b56118a860646107eb6009546107df8688611a5490919063ffffffff16565b829063ffffffff611b6016565b90506118c7828263ffffffff611a5416565b6008549092506118dd908263ffffffff611b6016565b600855600c546118f3908363ffffffff611b6016565b600c55509195945050505050565b600f6020526000908152604090205481565b61191b61128f565b61192457600080fd5b61192d81611c1a565b50565b600a5481565b6003546001600160a01b0316331461197f5760405162461bcd60e51b8152600401808060200182810382526026815260200180611cb56026913960400191505060405180910390fd5b6003805460ff60a01b1916600160a01b179055565b6001600160a01b0382166119a757600080fd5b6001600160a01b0383166119ba57600080fd5b6001600160a01b03808416600081815260016020908152604080832094871680845294825291829020859055815185815291517f8c5be1e5ebec7d5bd14f71427d1e84f3dd0314c0f7b2291e5b200ac8c7c3b9259281900390910190a3505050565b6040805162461bcd60e51b8152602060048201526008602482015267111a5cd8589b195960c21b604482015290519081900360640190fd5b600082821115611a6357600080fd5b50900390565b600082611a7857506000610718565b82820282848281611a8557fe5b0414611a9057600080fd5b9392505050565b6000808211611aa557600080fd5b6000828481611ab057fe5b04949350505050565b6001600160a01b038216611acc57600080fd5b600254611adf908263ffffffff611a5416565b6002556001600160a01b038216600090815260208190526040902054611b0b908263ffffffff611a5416565b6001600160a01b038316600081815260208181526040808320949094558351858152935191937fddf252ad1be2c89b69c2b068fc378daa952ba7f163c4a11628f55a4df523b3ef929081900390910190a35050565b600082820183811015611a9057600080fd5b6001600160a01b038216611b8557600080fd5b600254611b98908263ffffffff611b6016565b6002556001600160a01b038216600090815260208190526040902054611bc4908263ffffffff611b6016565b6001600160a01b0383166000818152602081815260408083209490945583518581529351929391927fddf252ad1be2c89b69c2b068fc378daa952ba7f163c4a11628f55a4df523b3ef9281900390910190a35050565b6001600160a01b038116611c2d57600080fd5b6004546040516001600160a01b038084169216907f8be0079c531659141344cd1fd0a4f28419497f9722a3daafe3b4186f6b6457e090600090a3600480546001600160a01b0319166001600160a01b039290921691909117905556fe436f6d6d697373696f6e20726174652073686f756c6420626520696e2072616e6765206f6620302d3130304f6e6c7920676f7665726e616e636520636f6e747261637420697320617574686f72697a6564a265627a7a723158200158cf021f310fbe2de478b9e2521a0e26fe653f0ea0581448f9a727dc52c85064736f6c634300050b00328be0079c531659141344cd1fd0a4f28419497f9722a3daafe3b4186f6b6457e0a265627a7a7231582070a40fdac3eeac73fe51503fc58c73de4647c6a434c05e9753f6c4651185813964736f6c634300050b0032",
  "source": "pragma solidity ^0.5.2;\n\nimport {ValidatorShare} from \"./ValidatorShare.sol\";\n\ncontract ValidatorShareFactory {\n    /**\n    - factory to create new validatorShare contracts\n   */\n\n    function create(uint256 validatorId, address loggerAddress)\n        public\n        returns (address)\n    {\n        ValidatorShare validatorShare = new ValidatorShare(\n            validatorId,\n            loggerAddress,\n            msg.sender\n        );\n        return address(validatorShare);\n    }\n\n}\n",
  "sourcePath": "/Users/arth/Documents/Projects/contracts/contracts/staking/validatorShare/ValidatorShareFactory.sol",
  "compiler": {
    "name": "solc",
    "version": "0.5.11+commit.c082d0b4.Emscripten.clang"
  },
  "schemaVersion": "3.0.14",
  "updatedAt": "2020-04-06T09:29:52.907Z",
  "devdoc": {
    "methods": {}
  },
  "userdoc": {
    "methods": {
      "create(uint256,address)": {
        "notice": "- factory to create new validatorShare contracts"
      }
    }
  }
}