{
  "contractName": "DepositManagerStorage",
  "abi": [
    {
      "constant": true,
      "inputs": [],
      "name": "childChain",
      "outputs": [
        {
          "internalType": "address",
          "name": "",
          "type": "address"
        }
      ],
      "payable": false,
      "stateMutability": "view",
      "type": "function"
    },
    {
      "constant": false,
      "inputs": [],
      "name": "renounceOwnership",
      "outputs": [],
      "payable": false,
      "stateMutability": "nonpayable",
      "type": "function"
    },
    {
      "constant": true,
      "inputs": [],
      "name": "owner",
      "outputs": [
        {
          "internalType": "address",
          "name": "",
          "type": "address"
        }
      ],
      "payable": false,
      "stateMutability": "view",
      "type": "function"
    },
    {
      "constant": true,
      "inputs": [],
      "name": "isOwner",
      "outputs": [
        {
          "internalType": "bool",
          "name": "",
          "type": "bool"
        }
      ],
      "payable": false,
      "stateMutability": "view",
      "type": "function"
    },
    {
      "constant": true,
      "inputs": [
        {
          "internalType": "uint256",
          "name": "",
          "type": "uint256"
        }
      ],
      "name": "deposits",
      "outputs": [
        {
          "internalType": "bytes32",
          "name": "depositHash",
          "type": "bytes32"
        },
        {
          "internalType": "uint256",
          "name": "createdAt",
          "type": "uint256"
        }
      ],
      "payable": false,
      "stateMutability": "view",
      "type": "function"
    },
    {
      "constant": true,
      "inputs": [],
      "name": "stateSender",
      "outputs": [
        {
          "internalType": "contract StateSender",
          "name": "",
          "type": "address"
        }
      ],
      "payable": false,
      "stateMutability": "view",
      "type": "function"
    },
    {
      "constant": false,
      "inputs": [
        {
          "internalType": "address",
          "name": "newOwner",
          "type": "address"
        }
      ],
      "name": "transferOwnership",
      "outputs": [],
      "payable": false,
      "stateMutability": "nonpayable",
      "type": "function"
    },
    {
      "anonymous": false,
      "inputs": [
        {
          "indexed": true,
          "internalType": "address",
          "name": "owner",
          "type": "address"
        },
        {
          "indexed": true,
          "internalType": "address",
          "name": "token",
          "type": "address"
        },
        {
          "indexed": false,
          "internalType": "uint256",
          "name": "amountOrNFTId",
          "type": "uint256"
        },
        {
          "indexed": false,
          "internalType": "uint256",
          "name": "depositBlockId",
          "type": "uint256"
        }
      ],
      "name": "NewDepositBlock",
      "type": "event"
    },
    {
      "anonymous": false,
      "inputs": [
        {
          "indexed": true,
          "internalType": "address",
          "name": "previousOwner",
          "type": "address"
        },
        {
          "indexed": true,
          "internalType": "address",
          "name": "newOwner",
          "type": "address"
        }
      ],
      "name": "OwnershipTransferred",
      "type": "event"
    }
  ],
  "bytecode": "0x60806040819052600080546001600160a01b03191633178082556001600160a01b0316917f8be0079c531659141344cd1fd0a4f28419497f9722a3daafe3b4186f6b6457e0908290a36102aa806100576000396000f3fe608060405234801561001057600080fd5b506004361061007d5760003560e01c80638f32d59b1161005b5780638f32d59b146100b8578063b02c43d0146100d4578063cb10f94c1461010a578063f2fde38b146101125761007d565b806342fc47fb14610082578063715018a6146100a65780638da5cb5b146100b0575b600080fd5b61008a610138565b604080516001600160a01b039092168252519081900360200190f35b6100ae610147565b005b61008a6101a2565b6100c06101b1565b604080519115158252519081900360200190f35b6100f1600480360360208110156100ea57600080fd5b50356101c2565b6040805192835260208301919091528051918290030190f35b61008a6101db565b6100ae6004803603602081101561012857600080fd5b50356001600160a01b03166101ea565b6006546001600160a01b031681565b61014f6101b1565b61015857600080fd5b600080546040516001600160a01b03909116907f8be0079c531659141344cd1fd0a4f28419497f9722a3daafe3b4186f6b6457e0908390a3600080546001600160a01b0319169055565b6000546001600160a01b031690565b6000546001600160a01b0316331490565b6005602052600090815260409020805460019091015482565b6004546001600160a01b031681565b6101f26101b1565b6101fb57600080fd5b61020481610207565b50565b6001600160a01b03811661021a57600080fd5b600080546040516001600160a01b03808516939216917f8be0079c531659141344cd1fd0a4f28419497f9722a3daafe3b4186f6b6457e091a3600080546001600160a01b0319166001600160a01b039290921691909117905556fea265627a7a72315820d84efe29744890fc2093a5f6c221c7685d0874f5405fdaa3bd2fc892ae68ce1564736f6c634300050b0032",
  "source": "pragma solidity ^0.5.2;\n\nimport {Registry} from \"../../common/Registry.sol\";\nimport {RootChain} from \"../RootChain.sol\";\nimport {ProxyStorage} from \"../../common/misc/ProxyStorage.sol\";\nimport {StateSender} from \"../stateSyncer/StateSender.sol\";\n\ncontract DepositManagerHeader {\n    event NewDepositBlock(\n        address indexed owner,\n        address indexed token,\n        uint256 amountOrNFTId,\n        uint256 depositBlockId\n    );\n\n    struct DepositBlock {\n        bytes32 depositHash;\n        uint256 createdAt;\n    }\n}\n\ncontract DepositManagerStorage is ProxyStorage, DepositManagerHeader {\n    Registry internal registry;\n    RootChain internal rootChain;\n    StateSender public stateSender;\n\n    mapping(uint256 => DepositBlock) public deposits;\n\n    address public childChain;\n}\n",
  "sourcePath": "/Users/atvanguard/matic/contracts/contracts/root/depositManager/DepositManagerStorage.sol",
  "compiler": {
    "name": "solc",
    "version": "0.5.11+commit.c082d0b4.Emscripten.clang"
  },
  "schemaVersion": "3.0.14",
  "updatedAt": "2020-02-13T08:29:57.152Z",
  "devdoc": {
    "methods": {
      "isOwner()": {
        "return": "true if `msg.sender` is the owner of the contract."
      },
      "owner()": {
        "return": "the address of the owner."
      },
      "renounceOwnership()": {
        "details": "Allows the current owner to relinquish control of the contract. It will not be possible to call the functions with the `onlyOwner` modifier anymore."
      },
      "transferOwnership(address)": {
        "details": "Allows the current owner to transfer control of the contract to a newOwner.",
        "params": {
          "newOwner": "The address to transfer ownership to."
        }
      }
    }
  },
  "userdoc": {
    "methods": {
      "renounceOwnership()": {
        "notice": "Renouncing ownership will leave the contract without an owner, thereby removing any functionality that is only available to the owner."
      }
    }
  }
}