{
  "contractName": "IStakeManager",
  "abi": [
    {
      "constant": true,
      "inputs": [],
      "name": "accountStateRoot",
      "outputs": [
        {
          "internalType": "bytes32",
          "name": "",
          "type": "bytes32"
        }
      ],
      "payable": false,
      "stateMutability": "view",
      "type": "function"
    },
    {
      "constant": true,
      "inputs": [
        {
          "internalType": "uint256",
          "name": "",
          "type": "uint256"
        }
      ],
      "name": "validators",
      "outputs": [
        {
          "internalType": "uint256",
          "name": "amount",
          "type": "uint256"
        },
        {
          "internalType": "uint256",
          "name": "reward",
          "type": "uint256"
        },
        {
          "internalType": "uint256",
          "name": "activationEpoch",
          "type": "uint256"
        },
        {
          "internalType": "uint256",
          "name": "deactivationEpoch",
          "type": "uint256"
        },
        {
          "internalType": "uint256",
          "name": "jailTime",
          "type": "uint256"
        },
        {
          "internalType": "address",
          "name": "signer",
          "type": "address"
        },
        {
          "internalType": "address",
          "name": "contractAddress",
          "type": "address"
        },
        {
          "internalType": "enum IStakeManager.Status",
          "name": "status",
          "type": "uint8"
        }
      ],
      "payable": false,
      "stateMutability": "view",
      "type": "function"
    },
    {
      "constant": true,
      "inputs": [],
      "name": "activeAmount",
      "outputs": [
        {
          "internalType": "uint256",
          "name": "",
          "type": "uint256"
        }
      ],
      "payable": false,
      "stateMutability": "view",
      "type": "function"
    }
  ],
  "bytecode": "0x608060405234801561001057600080fd5b50610195806100206000396000f3fe608060405234801561001057600080fd5b50600436106100415760003560e01c806317c2b9101461004657806335aa2e44146100605780633a09bf44146100f6575b600080fd5b61004e6100fe565b60408051918252519081900360200190f35b61007d6004803603602081101561007657600080fd5b5035610104565b60405180898152602001888152602001878152602001868152602001858152602001846001600160a01b03166001600160a01b03168152602001836001600160a01b03166001600160a01b031681526020018260038111156100db57fe5b60ff1681526020019850505050505050505060405180910390f35b61004e61015a565b60015481565b6000602081905290815260409020805460018201546002830154600384015460048501546005860154600690960154949593949293919290916001600160a01b039081169190811690600160a01b900460ff1688565b6002548156fea265627a7a72315820ec54fa8ab09707e17d859d916cc986cae9f19c41080372690680c61999f8724a64736f6c634300050b0032",
  "source": "pragma solidity ^0.5.2;\n\nimport {Registry} from \"../common/Registry.sol\";\n\n// dummy interface to avoid cyclic dependency\ncontract IStakeManager {\n    enum Status {Inactive, Active, Locked, Unstaked}\n\n    struct Validator {\n        uint256 amount;\n        uint256 reward;\n        uint256 activationEpoch;\n        uint256 deactivationEpoch;\n        uint256 jailTime;\n        address signer;\n        address contractAddress;\n        Status status;\n    }\n\n    mapping(uint256 => Validator) public validators;\n    bytes32 public accountStateRoot;\n    uint256 public activeAmount; // delegation amount from validator contract\n}\n\ncontract StakingInfo {\n    event Staked(\n        address indexed signer,\n        uint256 indexed validatorId,\n        uint256 indexed activationEpoch,\n        uint256 amount,\n        uint256 total\n    );\n    event Unstaked(\n        address indexed user,\n        uint256 indexed validatorId,\n        uint256 amount,\n        uint256 total\n    );\n    // event to ack unstaking which will start at deactivationEpoch\n    event UnstakeInit(\n        address indexed user,\n        uint256 indexed validatorId,\n        uint256 deactivationEpoch,\n        uint256 indexed amount\n    );\n\n    event SignerChange(\n        uint256 indexed validatorId,\n        address indexed oldSigner,\n        address indexed newSigner\n    );\n    event ReStaked(uint256 indexed validatorId, uint256 amount, uint256 total);\n    event Jailed(uint256 indexed validatorId, uint256 indexed exitEpoch);\n    event ThresholdChange(uint256 newThreshold, uint256 oldThreshold);\n    event DynastyValueChange(uint256 newDynasty, uint256 oldDynasty);\n    event RewardUpdate(uint256 newReward, uint256 oldReward);\n    event StakeUpdate(uint256 indexed validatorId, uint256 indexed newAmount);\n    event ClaimRewards(\n        uint256 indexed validatorId,\n        uint256 indexed amount,\n        uint256 indexed totalAmount\n    );\n    event StartAuction(\n        uint256 indexed validatorId,\n        uint256 indexed amount,\n        uint256 indexed auctionAmount\n    );\n    event ConfirmAuction(\n        uint256 indexed newValidatorId,\n        uint256 indexed oldValidatorId,\n        uint256 indexed amount\n    );\n    event TopUpFee(uint256 indexed validatorId, uint256 indexed fee);\n    event ClaimFee(uint256 indexed validatorId, uint256 indexed fee);\n    // Delegator events\n    event ShareMinted(\n        uint256 indexed validatorId,\n        address indexed user,\n        uint256 indexed amount,\n        uint256 tokens\n    );\n    event ShareBurned(\n        uint256 indexed validatorId,\n        address indexed user,\n        uint256 indexed amount,\n        uint256 tokens\n    );\n    event DelClaimRewards(\n        uint256 indexed validatorId,\n        address indexed user,\n        uint256 indexed rewards,\n        uint256 tokens\n    );\n    event UpdateCommissionRate(\n        uint256 indexed validatorId,\n        uint256 indexed newCommissionRate,\n        uint256 indexed oldCommissionRate\n    );\n\n    Registry public registry;\n\n    modifier onlyValidatorContract(uint256 validatorId) {\n        address _contract;\n        (, , , , , , _contract, ) = IStakeManager(\n            registry.getStakeManagerAddress()\n        )\n            .validators(validatorId);\n        require(_contract == msg.sender);\n        _;\n    }\n\n    modifier StakeManagerOrValidatorContract(uint256 validatorId) {\n        address _contract;\n        address _stakeManager = registry.getStakeManagerAddress();\n        (, , , , , , _contract, ) = IStakeManager(_stakeManager).validators(\n            validatorId\n        );\n        require(_contract == msg.sender || _stakeManager == msg.sender);\n        _;\n    }\n\n    modifier onlyStakeManager() {\n        require(registry.getStakeManagerAddress() == msg.sender);\n        _;\n    }\n\n    constructor(address _registry) public {\n        registry = Registry(_registry);\n    }\n\n    function logStaked(\n        address signer,\n        uint256 validatorId,\n        uint256 activationEpoch,\n        uint256 amount,\n        uint256 total\n    ) public onlyStakeManager {\n        emit Staked(signer, validatorId, activationEpoch, amount, total);\n    }\n\n    function logUnstaked(\n        address user,\n        uint256 validatorId,\n        uint256 amount,\n        uint256 total\n    ) public onlyStakeManager {\n        emit Unstaked(user, validatorId, amount, total);\n    }\n\n    function logUnstakeInit(\n        address user,\n        uint256 validatorId,\n        uint256 deactivationEpoch,\n        uint256 amount\n    ) public onlyStakeManager {\n        emit UnstakeInit(user, validatorId, deactivationEpoch, amount);\n    }\n\n    function logSignerChange(\n        uint256 validatorId,\n        address oldSigner,\n        address newSigner\n    ) public onlyStakeManager {\n        emit SignerChange(validatorId, oldSigner, newSigner);\n    }\n\n    function logReStaked(uint256 validatorId, uint256 amount, uint256 total)\n        public\n        onlyStakeManager\n    {\n        emit ReStaked(validatorId, amount, total);\n    }\n\n    function logJailed(uint256 validatorId, uint256 exitEpoch)\n        public\n        onlyStakeManager\n    {\n        emit Jailed(validatorId, exitEpoch);\n    }\n\n    function logThresholdChange(uint256 newThreshold, uint256 oldThreshold)\n        public\n        onlyStakeManager\n    {\n        emit ThresholdChange(newThreshold, oldThreshold);\n    }\n\n    function logDynastyValueChange(uint256 newDynasty, uint256 oldDynasty)\n        public\n        onlyStakeManager\n    {\n        emit DynastyValueChange(newDynasty, oldDynasty);\n    }\n\n    function logRewardUpdate(uint256 newReward, uint256 oldReward)\n        public\n        onlyStakeManager\n    {\n        emit RewardUpdate(newReward, oldReward);\n    }\n\n    function logStakeUpdate(uint256 validatorId)\n        public\n        StakeManagerOrValidatorContract(validatorId)\n    {\n        emit StakeUpdate(validatorId, totalValidatorStake(validatorId));\n    }\n\n    function logClaimRewards(\n        uint256 validatorId,\n        uint256 amount,\n        uint256 totalAmount\n    ) public onlyStakeManager {\n        emit ClaimRewards(validatorId, amount, totalAmount);\n    }\n\n    function logStartAuction(\n        uint256 validatorId,\n        uint256 amount,\n        uint256 auctionAmount\n    ) public onlyStakeManager {\n        emit StartAuction(validatorId, amount, auctionAmount);\n    }\n\n    function logConfirmAuction(\n        uint256 newValidatorId,\n        uint256 oldValidatorId,\n        uint256 amount\n    ) public onlyStakeManager {\n        emit ConfirmAuction(newValidatorId, oldValidatorId, amount);\n    }\n\n    function logTopUpFee(uint256 validatorId, uint256 fee)\n        public\n        onlyStakeManager\n    {\n        emit TopUpFee(validatorId, fee);\n    }\n\n    function logClaimFee(uint256 validatorId, uint256 fee)\n        public\n        onlyStakeManager\n    {\n        emit ClaimFee(validatorId, fee);\n    }\n\n    function getStakerDetails(uint256 validatorId)\n        public\n        view\n        returns (\n            uint256 amount,\n            uint256 activationEpoch,\n            uint256 deactivationEpoch,\n            address signer,\n            uint256 _status\n        )\n    {\n        IStakeManager stakeManager = IStakeManager(\n            registry.getStakeManagerAddress()\n        );\n        IStakeManager.Status status;\n        (\n            amount,\n            ,\n            activationEpoch,\n            deactivationEpoch,\n            ,\n            signer,\n            ,\n            status\n        ) = stakeManager.validators(validatorId);\n        _status = uint256(status);\n    }\n\n    function totalValidatorStake(uint256 validatorId)\n        public\n        view\n        returns (uint256 validatorStake)\n    {\n        address contractAddress;\n        (validatorStake, , , , , , contractAddress, ) = IStakeManager(\n            registry.getStakeManagerAddress()\n        )\n            .validators(validatorId);\n        validatorStake += IStakeManager(contractAddress).activeAmount();\n    }\n\n    function getAccountStateRoot()\n        public\n        view\n        returns (bytes32 accountStateRoot)\n    {\n        accountStateRoot = IStakeManager(registry.getStakeManagerAddress())\n            .accountStateRoot();\n    }\n\n    function getValidatorContractAddress(uint256 validatorId)\n        public\n        view\n        returns (address ValidatorContract)\n    {\n        (, , , , , , ValidatorContract, ) = IStakeManager(\n            registry.getStakeManagerAddress()\n        )\n            .validators(validatorId);\n    }\n\n    // validator Share contract logging func\n    function logShareMinted(\n        uint256 validatorId,\n        address user,\n        uint256 amount,\n        uint256 tokens\n    ) public onlyValidatorContract(validatorId) {\n        emit ShareMinted(validatorId, user, amount, tokens);\n    }\n\n    function logShareBurned(\n        uint256 validatorId,\n        address user,\n        uint256 amount,\n        uint256 tokens\n    ) public onlyValidatorContract(validatorId) {\n        emit ShareBurned(validatorId, user, amount, tokens);\n    }\n\n    function logDelClaimRewards(\n        uint256 validatorId,\n        address user,\n        uint256 rewards,\n        uint256 tokens\n    ) public onlyValidatorContract(validatorId) {\n        emit DelClaimRewards(validatorId, user, rewards, tokens);\n    }\n\n    function logUpdateCommissionRate(\n        uint256 validatorId,\n        uint256 newCommissionRate,\n        uint256 oldCommissionRate\n    ) public onlyValidatorContract(validatorId) {\n        emit UpdateCommissionRate(\n            validatorId,\n            newCommissionRate,\n            oldCommissionRate\n        );\n    }\n\n}\n",
  "sourcePath": "/Users/atvanguard/matic/contracts/contracts/staking/StakingInfo.sol",
  "compiler": {
    "name": "solc",
    "version": "0.5.11+commit.c082d0b4.Emscripten.clang"
  },
  "schemaVersion": "3.0.14",
  "updatedAt": "2020-02-13T08:29:57.311Z",
  "devdoc": {
    "methods": {}
  },
  "userdoc": {
    "methods": {}
  }
}