{
  "contractName": "Merkle",
  "abi": [
    {
      "constant": true,
      "inputs": [
        {
          "internalType": "bytes32",
          "name": "leaf",
          "type": "bytes32"
        },
        {
          "internalType": "uint256",
          "name": "mainIndex",
          "type": "uint256"
        },
        {
          "internalType": "bytes32",
          "name": "rootHash",
          "type": "bytes32"
        },
        {
          "internalType": "bytes",
          "name": "proof",
          "type": "bytes"
        }
      ],
      "name": "checkMembership",
      "outputs": [
        {
          "internalType": "bool",
          "name": "",
          "type": "bool"
        }
      ],
      "payable": false,
      "stateMutability": "pure",
      "type": "function"
    }
  ],
  "bytecode": "0x610237610026600b82828239805160001a60731461001957fe5b30600052607381538281f3fe73000000000000000000000000000000000000000030146080604052600436106100355760003560e01c80636c8f455c1461003a575b600080fd5b6100f36004803603608081101561005057600080fd5b8135916020810135916040820135919081019060808101606082013564010000000081111561007e57600080fd5b82018360208201111561009057600080fd5b803590602001918460018302840111640100000000831117156100b257600080fd5b91908080601f016020809104026020016040519081016040528093929190818152602001838380828437600092019190915250929550610107945050505050565b604080519115158252519081900360200190f35b6000806000869050602084518161011a57fe5b0615610164576040805162461bcd60e51b8152602060048201526014602482015273092dcecc2d8d2c840e0e4dedecc40d8cadccee8d60631b604482015290519081900360640190fd5b8560205b855181116101f457858101519350600282066101b457828460405160200180838152602001828152602001925050506040516020818303038152906040528051906020012092506101e6565b838360405160200180838152602001828152602001925050506040516020818303038152906040528051906020012092505b600282049150602001610168565b50509093149594505050505056fea265627a7a7231582030b31972bdbe87ec2756f7fc11bb248f3622bdf61e62d6cc89ca87f7804762eb64736f6c634300050b0032",
  "source": "pragma solidity ^0.5.2;\n\nlibrary Merkle {\n    function checkMembership(\n        bytes32 leaf,\n        uint256 mainIndex,\n        bytes32 rootHash,\n        bytes memory proof\n    ) public pure returns (bool) {\n        bytes32 proofElement;\n        bytes32 computedHash = leaf;\n        require(proof.length % 32 == 0, \"Invalid proof length\");\n\n        uint256 index = mainIndex;\n        for (uint256 i = 32; i <= proof.length; i += 32) {\n            assembly {\n                proofElement := mload(add(proof, i))\n            }\n\n            if (index % 2 == 0) {\n                computedHash = keccak256(\n                    abi.encodePacked(computedHash, proofElement)\n                );\n            } else {\n                computedHash = keccak256(\n                    abi.encodePacked(proofElement, computedHash)\n                );\n            }\n\n            index = index / 2;\n        }\n        return computedHash == rootHash;\n    }\n}\n",
  "sourcePath": "/Users/atvanguard/matic/contracts/contracts/common/lib/Merkle.sol",
  "compiler": {
    "name": "solc",
    "version": "0.5.11+commit.c082d0b4.Emscripten.clang"
  },
  "schemaVersion": "3.0.14",
  "updatedAt": "2020-02-13T08:29:57.025Z",
  "devdoc": {
    "methods": {}
  },
  "userdoc": {
    "methods": {}
  }
}