{
  "contractName": "SlashingManager",
  "abi": [
    {
      "constant": true,
      "inputs": [],
      "name": "haltInterval",
      "outputs": [
        {
          "internalType": "uint256",
          "name": "",
          "type": "uint256"
        }
      ],
      "payable": false,
      "stateMutability": "view",
      "type": "function"
    },
    {
      "constant": true,
      "inputs": [],
      "name": "slashingRate",
      "outputs": [
        {
          "internalType": "uint256",
          "name": "",
          "type": "uint256"
        }
      ],
      "payable": false,
      "stateMutability": "view",
      "type": "function"
    },
    {
      "constant": true,
      "inputs": [],
      "name": "roundType",
      "outputs": [
        {
          "internalType": "uint256",
          "name": "",
          "type": "uint256"
        }
      ],
      "payable": false,
      "stateMutability": "view",
      "type": "function"
    },
    {
      "constant": true,
      "inputs": [],
      "name": "jailCheckpoints",
      "outputs": [
        {
          "internalType": "uint256",
          "name": "",
          "type": "uint256"
        }
      ],
      "payable": false,
      "stateMutability": "view",
      "type": "function"
    },
    {
      "constant": false,
      "inputs": [],
      "name": "renounceOwnership",
      "outputs": [],
      "payable": false,
      "stateMutability": "nonpayable",
      "type": "function"
    },
    {
      "constant": true,
      "inputs": [],
      "name": "registry",
      "outputs": [
        {
          "internalType": "contract Registry",
          "name": "",
          "type": "address"
        }
      ],
      "payable": false,
      "stateMutability": "view",
      "type": "function"
    },
    {
      "constant": true,
      "inputs": [],
      "name": "voteType",
      "outputs": [
        {
          "internalType": "uint8",
          "name": "",
          "type": "uint8"
        }
      ],
      "payable": false,
      "stateMutability": "view",
      "type": "function"
    },
    {
      "constant": true,
      "inputs": [],
      "name": "owner",
      "outputs": [
        {
          "internalType": "address",
          "name": "",
          "type": "address"
        }
      ],
      "payable": false,
      "stateMutability": "view",
      "type": "function"
    },
    {
      "constant": true,
      "inputs": [],
      "name": "isOwner",
      "outputs": [
        {
          "internalType": "bool",
          "name": "",
          "type": "bool"
        }
      ],
      "payable": false,
      "stateMutability": "view",
      "type": "function"
    },
    {
      "constant": true,
      "inputs": [],
      "name": "chain",
      "outputs": [
        {
          "internalType": "bytes32",
          "name": "",
          "type": "bytes32"
        }
      ],
      "payable": false,
      "stateMutability": "view",
      "type": "function"
    },
    {
      "constant": true,
      "inputs": [],
      "name": "checkpointHaltEpoch",
      "outputs": [
        {
          "internalType": "uint256",
          "name": "",
          "type": "uint256"
        }
      ],
      "payable": false,
      "stateMutability": "view",
      "type": "function"
    },
    {
      "constant": false,
      "inputs": [
        {
          "internalType": "address",
          "name": "newOwner",
          "type": "address"
        }
      ],
      "name": "transferOwnership",
      "outputs": [],
      "payable": false,
      "stateMutability": "nonpayable",
      "type": "function"
    },
    {
      "inputs": [
        {
          "internalType": "address",
          "name": "_registry",
          "type": "address"
        }
      ],
      "payable": false,
      "stateMutability": "nonpayable",
      "type": "constructor"
    },
    {
      "anonymous": false,
      "inputs": [
        {
          "indexed": true,
          "internalType": "address",
          "name": "previousOwner",
          "type": "address"
        },
        {
          "indexed": true,
          "internalType": "address",
          "name": "newOwner",
          "type": "address"
        }
      ],
      "name": "OwnershipTransferred",
      "type": "event"
    },
    {
      "constant": false,
      "inputs": [
        {
          "internalType": "bytes",
          "name": "vote1",
          "type": "bytes"
        },
        {
          "internalType": "bytes",
          "name": "vote2",
          "type": "bytes"
        },
        {
          "internalType": "bytes",
          "name": "sig1",
          "type": "bytes"
        },
        {
          "internalType": "bytes",
          "name": "sig2",
          "type": "bytes"
        }
      ],
      "name": "doubleSign",
      "outputs": [],
      "payable": false,
      "stateMutability": "nonpayable",
      "type": "function"
    },
    {
      "constant": false,
      "inputs": [
        {
          "internalType": "uint256",
          "name": "start",
          "type": "uint256"
        }
      ],
      "name": "checkpointHalt",
      "outputs": [],
      "payable": false,
      "stateMutability": "nonpayable",
      "type": "function"
    }
  ],
  "bytecode": "0x608060408190526000600155603260029081556005600381905560048190557f6865696d64616c6c2d50357258776700000000000000000000000000000000009092527f15ae7a65b413b37161241792aaad6a9ca9d511db685ced4bcf7af723832df30390915560068190556007805460ff1916909117905534801561008457600080fd5b50604051611080380380611080833981810160405260208110156100a757600080fd5b5051600080546001600160a01b03191633178082556040516001600160a01b039190911691907f8be0079c531659141344cd1fd0a4f28419497f9722a3daafe3b4186f6b6457e0908290a3600780546001600160a01b0390921661010002610100600160a81b0319909216919091179055610f59806101276000396000f3fe608060405234801561001057600080fd5b50600436106100ea5760003560e01c80637d1a3d371161008c5780638f32d59b116100665780638f32d59b146103c5578063c763e5a1146103e1578063da4a16b9146103e9578063f2fde38b146103f1576100ea565b80637d1a3d371461016c5780638b277fc61461018a5780638da5cb5b146103bd576100ea565b80633f9a0509116100c85780633f9a050914610119578063556b2ce914610138578063715018a6146101405780637b10399914610148576100ea565b80630e6d0dce146100ef57806313baa069146101095780632c2d1a3b14610111575b600080fd5b6100f7610417565b60408051918252519081900360200190f35b6100f761041d565b6100f7610423565b6101366004803603602081101561012f57600080fd5b5035610429565b005b6100f761042c565b610136610432565b61015061048d565b604080516001600160a01b039092168252519081900360200190f35b6101746104a1565b6040805160ff9092168252519081900360200190f35b610136600480360360808110156101a057600080fd5b810190602081018135600160201b8111156101ba57600080fd5b8201836020820111156101cc57600080fd5b803590602001918460018302840111600160201b831117156101ed57600080fd5b91908080601f0160208091040260200160405190810160405280939291908181526020018383808284376000920191909152509295949360208101935035915050600160201b81111561023f57600080fd5b82018360208201111561025157600080fd5b803590602001918460018302840111600160201b8311171561027257600080fd5b91908080601f0160208091040260200160405190810160405280939291908181526020018383808284376000920191909152509295949360208101935035915050600160201b8111156102c457600080fd5b8201836020820111156102d657600080fd5b803590602001918460018302840111600160201b831117156102f757600080fd5b91908080601f0160208091040260200160405190810160405280939291908181526020018383808284376000920191909152509295949360208101935035915050600160201b81111561034957600080fd5b82018360208201111561035b57600080fd5b803590602001918460018302840111600160201b8311171561037c57600080fd5b91908080601f0160208091040260200160405190810160405280939291908181526020018383808284376000920191909152509295506104aa945050505050565b610150610ab2565b6103cd610ac1565b604080519115158252519081900360200190f35b6100f7610ad2565b6100f7610ad8565b6101366004803603602081101561040757600080fd5b50356001600160a01b0316610ade565b60025481565b60035481565b60065481565b50565b60045481565b61043a610ac1565b61044357600080fd5b600080546040516001600160a01b03909116907f8be0079c531659141344cd1fd0a4f28419497f9722a3daafe3b4186f6b6457e0908390a3600080546001600160a01b0319169055565b60075461010090046001600160a01b031681565b60075460ff1681565b60606104bd6104b886610af8565b610b1e565b905060606104cd6104b886610af8565b90506104ec816002815181106104df57fe5b6020026020010151610bef565b6104fc836002815181106104df57fe5b14610544576040805162461bcd60e51b81526020600482015260136024820152727369672069736e2774206475706c696361746560681b604482015290519081900360640190fd5b6005546105648360008151811061055757fe5b6020026020010151610c4f565b8051906020012014801561058f57506005546105868260008151811061055757fe5b80519060200120145b6105d4576040805162461bcd60e51b8152602060048201526011602482015270436861696e204944206e6f742073616d6560781b604482015290519081900360640190fd5b6006546105e7836001815181106104df57fe5b1480156106045750600654610602826001815181106104df57fe5b145b61064c576040805162461bcd60e51b815260206004820152601460248201527302937bab732103a3cb832903737ba1039b0b6b2960651b604482015290519081900360640190fd5b600754825160ff9091169061066890849060039081106104df57fe5b14801561068e5750600754815160ff9091169061068c90839060039081106104df57fe5b145b6106d4576040805162461bcd60e51b8152602060048201526012602482015271566f74652074797065206e6f742073616d6560701b604482015290519081900360640190fd5b6106e48160048151811061055757fe5b805190602001206106fb8360048151811061055757fe5b805190602001201415610741576040805162461bcd60e51b815260206004820152600960248201526873616d6520766f746560b81b604482015290519081900360640190fd5b6000868051906020012073__ECVerify______________________________6377d32e949091876040518363ffffffff1660e01b81526004018083815260200180602001828103825283818151815260200191508051906020019080838360005b838110156107ba5781810151838201526020016107a2565b50505050905090810190601f1680156107e75780820380516001836020036101000a031916815260200191505b50935050505060206040518083038186803b15801561080557600080fd5b505af4158015610819573d6000803e3d6000fd5b505050506040513d602081101561082f57600080fd5b5051865160208881019190912060408051631df4cba560e21b8152600481018381526024820192835289516044830152895195965073__ECVerify______________________________956377d32e94958b949293606401919085019080838360005b838110156108aa578181015183820152602001610892565b50505050905090810190601f1680156108d75780820380516001836020036101000a031916815260200191505b50935050505060206040518083038186803b1580156108f557600080fd5b505af4158015610909573d6000803e3d6000fd5b505050506040513d602081101561091f57600080fd5b50516001600160a01b0382811691161461093857600080fd5b6000600760019054906101000a90046001600160a01b03166001600160a01b031663287be3e46040518163ffffffff1660e01b815260040160206040518083038186803b15801561098857600080fd5b505afa15801561099c573d6000803e3d6000fd5b505050506040513d60208110156109b257600080fd5b505160408051633862da0b60e01b81526001600160a01b038581166004830152915192935060009291841691633862da0b91602480820192602092909190829003018186803b158015610a0457600080fd5b505afa158015610a18573d6000803e3d6000fd5b505050506040513d6020811015610a2e57600080fd5b505160035460048054604080516306cbb60560e41b81529283018590526024830193909352604482015290519192506001600160a01b03841691636cbb60509160648082019260009290919082900301818387803b158015610a8f57600080fd5b505af1158015610aa3573d6000803e3d6000fd5b50505050505050505050505050565b6000546001600160a01b031690565b6000546001600160a01b0316331490565b60055481565b60015481565b610ae6610ac1565b610aef57600080fd5b61042981610cbf565b610b00610f0a565b5060408051808201909152815181526020828101908201525b919050565b6060610b2982610d2d565b610b3257600080fd5b6000610b3d83610d67565b9050606081604051908082528060200260200182016040528015610b7b57816020015b610b68610f0a565b815260200190600190039081610b605790505b5090506000610b8d8560200151610dc3565b60208601510190506000805b84811015610be457610baa83610e26565b9150604051806040016040528083815260200184815250848281518110610bcd57fe5b602090810291909101015291810191600101610b99565b509195945050505050565b805160009015801590610c0457508151602110155b610c0d57600080fd5b6000610c1c8360200151610dc3565b83516020808601518301805193945091849003929190831015610c4657826020036101000a820491505b50949350505050565b8051606090610c5d57600080fd5b6000610c6c8360200151610dc3565b83516040805191839003808352601f19601f8201168301602001909152919250606090828015610ca3576020820181803883390190505b5090506000816020019050610c46848760200151018285610ebf565b6001600160a01b038116610cd257600080fd5b600080546040516001600160a01b03808516939216917f8be0079c531659141344cd1fd0a4f28419497f9722a3daafe3b4186f6b6457e091a3600080546001600160a01b0319166001600160a01b0392909216919091179055565b8051600090610d3e57506000610b19565b6020820151805160001a9060c0821015610d5d57600092505050610b19565b5060019392505050565b8051600090610d7857506000610b19565b60008090506000610d8c8460200151610dc3565b602085015185519181019250015b80821015610dba57610dab82610e26565b60019093019290910190610d9a565b50909392505050565b8051600090811a6080811015610ddd576000915050610b19565b60b8811080610df8575060c08110801590610df8575060f881105b15610e07576001915050610b19565b60c0811015610e1b5760b519019050610b19565b60f519019050610b19565b80516000908190811a6080811015610e415760019150610eb8565b60b8811015610e5657607e1981019150610eb8565b60c0811015610e835760b78103600185019450806020036101000a85510460018201810193505050610eb8565b60f8811015610e985760be1981019150610eb8565b60f78103600185019450806020036101000a855104600182018101935050505b5092915050565b80610ec957610f05565b5b60208110610ee9578251825260209283019290910190601f1901610eca565b8251825160208390036101000a60001901801990921691161782525b505050565b60405180604001604052806000815260200160008152509056fea265627a7a723158206e5ef4e3f705ec8755581c29bbc1741a6e593613bdbdb74b602d281d288c544164736f6c634300050b0032",
  "source": "pragma solidity ^0.5.2;\n\nimport {RLPReader} from \"solidity-rlp/contracts/RLPReader.sol\";\nimport {Ownable} from \"openzeppelin-solidity/contracts/ownership/Ownable.sol\";\n\nimport {StakeManager} from \"./StakeManager.sol\";\nimport {ECVerify} from \"../common/lib/ECVerify.sol\";\nimport {Registry} from \"../common/Registry.sol\";\n\ncontract SlashingManager is Ownable {\n    using ECVerify for bytes32;\n    using RLPReader for bytes;\n    using RLPReader for RLPReader.RLPItem;\n\n    uint256 public checkpointHaltEpoch = 0;\n    uint256 public haltInterval = 50; // epoch\n    uint256 public slashingRate = 5; // slashing %\n    uint256 public jailCheckpoints = 5; // checkpoints\n    bytes32 public chain = keccak256(\"heimdall-P5rXwg\");\n    uint256 public roundType = 2;\n    uint8 public voteType = 2;\n    Registry public registry;\n\n    constructor(address _registry) public {\n        registry = Registry(_registry);\n    }\n\n    function doubleSign(\n        bytes memory vote1,\n        bytes memory vote2,\n        bytes memory sig1,\n        bytes memory sig2\n    ) public {\n        // Todo: fix signer chanage for same validator\n        // Height/checkpoint for slashing\n        RLPReader.RLPItem[] memory dataList1 = vote1.toRlpItem().toList();\n        RLPReader.RLPItem[] memory dataList2 = vote2.toRlpItem().toList();\n\n        require(\n            dataList1[2].toUint() == dataList2[2].toUint(),\n            \"sig isn't duplicate\"\n        );\n        require(\n            (keccak256(dataList1[0].toBytes()) == chain &&\n                keccak256(dataList2[0].toBytes()) == chain),\n            \"Chain ID not same\"\n        );\n        require(\n            dataList1[1].toUint() == roundType &&\n                dataList2[1].toUint() == roundType,\n            \"Round type not same \"\n        );\n        require(\n            (dataList1[3].toUint() == voteType &&\n                dataList2[3].toUint() == voteType),\n            \"Vote type not same\"\n        );\n        require(\n            keccak256(dataList1[4].toBytes()) !=\n                keccak256(dataList2[4].toBytes()),\n            \"same vote\"\n        );\n\n        address signer = keccak256(vote1).ecrecovery(sig1);\n        require(signer == keccak256(vote2).ecrecovery(sig2));\n        // fetching validatorId is unnessacary but just to keep universal interface\n        // slash is called with validatorId\n        StakeManager stakeManager = StakeManager(\n            registry.getStakeManagerAddress()\n        );\n        uint256 validatorId = stakeManager.signerToValidator(signer);\n        stakeManager.slash(validatorId, slashingRate, jailCheckpoints);\n    }\n\n    function checkpointHalt(uint256 start) public {}\n\n}\n",
  "sourcePath": "/Users/atvanguard/matic/contracts/contracts/staking/SlashingManager.sol",
  "compiler": {
    "name": "solc",
    "version": "0.5.11+commit.c082d0b4.Emscripten.clang"
  },
  "schemaVersion": "3.0.14",
  "updatedAt": "2020-02-13T08:29:57.321Z",
  "devdoc": {
    "methods": {
      "isOwner()": {
        "return": "true if `msg.sender` is the owner of the contract."
      },
      "owner()": {
        "return": "the address of the owner."
      },
      "renounceOwnership()": {
        "details": "Allows the current owner to relinquish control of the contract. It will not be possible to call the functions with the `onlyOwner` modifier anymore."
      },
      "transferOwnership(address)": {
        "details": "Allows the current owner to transfer control of the contract to a newOwner.",
        "params": {
          "newOwner": "The address to transfer ownership to."
        }
      }
    }
  },
  "userdoc": {
    "methods": {
      "renounceOwnership()": {
        "notice": "Renouncing ownership will leave the contract without an owner, thereby removing any functionality that is only available to the owner."
      }
    }
  }
}