{
  "contractName": "StakingNFT",
  "abi": [
    {
      "constant": true,
      "inputs": [
        {
          "internalType": "bytes4",
          "name": "interfaceId",
          "type": "bytes4"
        }
      ],
      "name": "supportsInterface",
      "outputs": [
        {
          "internalType": "bool",
          "name": "",
          "type": "bool"
        }
      ],
      "payable": false,
      "stateMutability": "view",
      "type": "function"
    },
    {
      "constant": true,
      "inputs": [],
      "name": "name",
      "outputs": [
        {
          "internalType": "string",
          "name": "",
          "type": "string"
        }
      ],
      "payable": false,
      "stateMutability": "view",
      "type": "function"
    },
    {
      "constant": true,
      "inputs": [
        {
          "internalType": "uint256",
          "name": "tokenId",
          "type": "uint256"
        }
      ],
      "name": "getApproved",
      "outputs": [
        {
          "internalType": "address",
          "name": "",
          "type": "address"
        }
      ],
      "payable": false,
      "stateMutability": "view",
      "type": "function"
    },
    {
      "constant": false,
      "inputs": [
        {
          "internalType": "address",
          "name": "to",
          "type": "address"
        },
        {
          "internalType": "uint256",
          "name": "tokenId",
          "type": "uint256"
        }
      ],
      "name": "approve",
      "outputs": [],
      "payable": false,
      "stateMutability": "nonpayable",
      "type": "function"
    },
    {
      "constant": true,
      "inputs": [],
      "name": "totalSupply",
      "outputs": [
        {
          "internalType": "uint256",
          "name": "",
          "type": "uint256"
        }
      ],
      "payable": false,
      "stateMutability": "view",
      "type": "function"
    },
    {
      "constant": false,
      "inputs": [
        {
          "internalType": "address",
          "name": "from",
          "type": "address"
        },
        {
          "internalType": "address",
          "name": "to",
          "type": "address"
        },
        {
          "internalType": "uint256",
          "name": "tokenId",
          "type": "uint256"
        }
      ],
      "name": "transferFrom",
      "outputs": [],
      "payable": false,
      "stateMutability": "nonpayable",
      "type": "function"
    },
    {
      "constant": true,
      "inputs": [
        {
          "internalType": "address",
          "name": "owner",
          "type": "address"
        },
        {
          "internalType": "uint256",
          "name": "index",
          "type": "uint256"
        }
      ],
      "name": "tokenOfOwnerByIndex",
      "outputs": [
        {
          "internalType": "uint256",
          "name": "",
          "type": "uint256"
        }
      ],
      "payable": false,
      "stateMutability": "view",
      "type": "function"
    },
    {
      "constant": false,
      "inputs": [
        {
          "internalType": "address",
          "name": "from",
          "type": "address"
        },
        {
          "internalType": "address",
          "name": "to",
          "type": "address"
        },
        {
          "internalType": "uint256",
          "name": "tokenId",
          "type": "uint256"
        }
      ],
      "name": "safeTransferFrom",
      "outputs": [],
      "payable": false,
      "stateMutability": "nonpayable",
      "type": "function"
    },
    {
      "constant": true,
      "inputs": [
        {
          "internalType": "uint256",
          "name": "index",
          "type": "uint256"
        }
      ],
      "name": "tokenByIndex",
      "outputs": [
        {
          "internalType": "uint256",
          "name": "",
          "type": "uint256"
        }
      ],
      "payable": false,
      "stateMutability": "view",
      "type": "function"
    },
    {
      "constant": true,
      "inputs": [
        {
          "internalType": "uint256",
          "name": "tokenId",
          "type": "uint256"
        }
      ],
      "name": "ownerOf",
      "outputs": [
        {
          "internalType": "address",
          "name": "",
          "type": "address"
        }
      ],
      "payable": false,
      "stateMutability": "view",
      "type": "function"
    },
    {
      "constant": true,
      "inputs": [
        {
          "internalType": "address",
          "name": "owner",
          "type": "address"
        }
      ],
      "name": "balanceOf",
      "outputs": [
        {
          "internalType": "uint256",
          "name": "",
          "type": "uint256"
        }
      ],
      "payable": false,
      "stateMutability": "view",
      "type": "function"
    },
    {
      "constant": false,
      "inputs": [],
      "name": "renounceOwnership",
      "outputs": [],
      "payable": false,
      "stateMutability": "nonpayable",
      "type": "function"
    },
    {
      "constant": true,
      "inputs": [],
      "name": "owner",
      "outputs": [
        {
          "internalType": "address",
          "name": "",
          "type": "address"
        }
      ],
      "payable": false,
      "stateMutability": "view",
      "type": "function"
    },
    {
      "constant": true,
      "inputs": [],
      "name": "isOwner",
      "outputs": [
        {
          "internalType": "bool",
          "name": "",
          "type": "bool"
        }
      ],
      "payable": false,
      "stateMutability": "view",
      "type": "function"
    },
    {
      "constant": true,
      "inputs": [],
      "name": "symbol",
      "outputs": [
        {
          "internalType": "string",
          "name": "",
          "type": "string"
        }
      ],
      "payable": false,
      "stateMutability": "view",
      "type": "function"
    },
    {
      "constant": false,
      "inputs": [
        {
          "internalType": "address",
          "name": "to",
          "type": "address"
        },
        {
          "internalType": "bool",
          "name": "approved",
          "type": "bool"
        }
      ],
      "name": "setApprovalForAll",
      "outputs": [],
      "payable": false,
      "stateMutability": "nonpayable",
      "type": "function"
    },
    {
      "constant": false,
      "inputs": [
        {
          "internalType": "address",
          "name": "from",
          "type": "address"
        },
        {
          "internalType": "address",
          "name": "to",
          "type": "address"
        },
        {
          "internalType": "uint256",
          "name": "tokenId",
          "type": "uint256"
        },
        {
          "internalType": "bytes",
          "name": "_data",
          "type": "bytes"
        }
      ],
      "name": "safeTransferFrom",
      "outputs": [],
      "payable": false,
      "stateMutability": "nonpayable",
      "type": "function"
    },
    {
      "constant": true,
      "inputs": [
        {
          "internalType": "uint256",
          "name": "tokenId",
          "type": "uint256"
        }
      ],
      "name": "tokenURI",
      "outputs": [
        {
          "internalType": "string",
          "name": "",
          "type": "string"
        }
      ],
      "payable": false,
      "stateMutability": "view",
      "type": "function"
    },
    {
      "constant": true,
      "inputs": [
        {
          "internalType": "address",
          "name": "owner",
          "type": "address"
        },
        {
          "internalType": "address",
          "name": "operator",
          "type": "address"
        }
      ],
      "name": "isApprovedForAll",
      "outputs": [
        {
          "internalType": "bool",
          "name": "",
          "type": "bool"
        }
      ],
      "payable": false,
      "stateMutability": "view",
      "type": "function"
    },
    {
      "constant": false,
      "inputs": [
        {
          "internalType": "address",
          "name": "newOwner",
          "type": "address"
        }
      ],
      "name": "transferOwnership",
      "outputs": [],
      "payable": false,
      "stateMutability": "nonpayable",
      "type": "function"
    },
    {
      "inputs": [
        {
          "internalType": "string",
          "name": "name",
          "type": "string"
        },
        {
          "internalType": "string",
          "name": "symbol",
          "type": "string"
        }
      ],
      "payable": false,
      "stateMutability": "nonpayable",
      "type": "constructor"
    },
    {
      "anonymous": false,
      "inputs": [
        {
          "indexed": true,
          "internalType": "address",
          "name": "previousOwner",
          "type": "address"
        },
        {
          "indexed": true,
          "internalType": "address",
          "name": "newOwner",
          "type": "address"
        }
      ],
      "name": "OwnershipTransferred",
      "type": "event"
    },
    {
      "anonymous": false,
      "inputs": [
        {
          "indexed": true,
          "internalType": "address",
          "name": "from",
          "type": "address"
        },
        {
          "indexed": true,
          "internalType": "address",
          "name": "to",
          "type": "address"
        },
        {
          "indexed": true,
          "internalType": "uint256",
          "name": "tokenId",
          "type": "uint256"
        }
      ],
      "name": "Transfer",
      "type": "event"
    },
    {
      "anonymous": false,
      "inputs": [
        {
          "indexed": true,
          "internalType": "address",
          "name": "owner",
          "type": "address"
        },
        {
          "indexed": true,
          "internalType": "address",
          "name": "approved",
          "type": "address"
        },
        {
          "indexed": true,
          "internalType": "uint256",
          "name": "tokenId",
          "type": "uint256"
        }
      ],
      "name": "Approval",
      "type": "event"
    },
    {
      "anonymous": false,
      "inputs": [
        {
          "indexed": true,
          "internalType": "address",
          "name": "owner",
          "type": "address"
        },
        {
          "indexed": true,
          "internalType": "address",
          "name": "operator",
          "type": "address"
        },
        {
          "indexed": false,
          "internalType": "bool",
          "name": "approved",
          "type": "bool"
        }
      ],
      "name": "ApprovalForAll",
      "type": "event"
    },
    {
      "constant": false,
      "inputs": [
        {
          "internalType": "address",
          "name": "to",
          "type": "address"
        },
        {
          "internalType": "uint256",
          "name": "tokenId",
          "type": "uint256"
        }
      ],
      "name": "mint",
      "outputs": [],
      "payable": false,
      "stateMutability": "nonpayable",
      "type": "function"
    },
    {
      "constant": false,
      "inputs": [
        {
          "internalType": "uint256",
          "name": "tokenId",
          "type": "uint256"
        }
      ],
      "name": "burn",
      "outputs": [],
      "payable": false,
      "stateMutability": "nonpayable",
      "type": "function"
    }
  ],
  "bytecode": "0x60806040523480156200001157600080fd5b50604051620017e2380380620017e2833981810160405260408110156200003757600080fd5b81019080805160405193929190846401000000008211156200005857600080fd5b9083019060208201858111156200006e57600080fd5b82516401000000008111828201881017156200008957600080fd5b82525081516020918201929091019080838360005b83811015620000b85781810151838201526020016200009e565b50505050905090810190601f168015620000e65780820380516001836020036101000a031916815260200191505b50604052602001805160405193929190846401000000008211156200010a57600080fd5b9083019060208201858111156200012057600080fd5b82516401000000008111828201881017156200013b57600080fd5b82525081516020918201929091019080838360005b838110156200016a57818101518382015260200162000150565b50505050905090810190601f168015620001985780820380516001836020036101000a031916815260200191505b50604052508391508290508181620001d97f01ffc9a7000000000000000000000000000000000000000000000000000000006001600160e01b03620002f916565b6200020d7f80ac58cd000000000000000000000000000000000000000000000000000000006001600160e01b03620002f916565b620002417f780e9d63000000000000000000000000000000000000000000000000000000006001600160e01b03620002f916565b81516200025690600990602085019062000366565b5080516200026c90600a90602084019062000366565b50620002a17f5b5e139f000000000000000000000000000000000000000000000000000000006001600160e01b03620002f916565b5050600c80546001600160a01b0319163317908190556040516001600160a01b03919091169250600091507f8be0079c531659141344cd1fd0a4f28419497f9722a3daafe3b4186f6b6457e0908290a350506200040b565b7fffffffff0000000000000000000000000000000000000000000000000000000080821614156200032957600080fd5b7fffffffff00000000000000000000000000000000000000000000000000000000166000908152602081905260409020805460ff19166001179055565b828054600181600116156101000203166002900490600052602060002090601f016020900481019282601f10620003a957805160ff1916838001178555620003d9565b82800160010185558215620003d9579182015b82811115620003d9578251825591602001919060010190620003bc565b50620003e7929150620003eb565b5090565b6200040891905b80821115620003e75760008155600101620003f2565b90565b6113c7806200041b6000396000f3fe608060405234801561001057600080fd5b50600436106101425760003560e01c80636352211e116100b857806395d89b411161007c57806395d89b41146103d9578063a22cb465146103e1578063b88d4fde1461040f578063c87b56dd146104d5578063e985e9c5146104f2578063f2fde38b1461052057610142565b80636352211e1461037e57806370a082311461039b578063715018a6146103c15780638da5cb5b146103c95780638f32d59b146103d157610142565b806323b872dd1161010a57806323b872dd146102805780632f745c59146102b657806340c10f19146102e257806342842e0e1461030e57806342966c68146103445780634f6ccce71461036157610142565b806301ffc9a71461014757806306fdde0314610182578063081812fc146101ff578063095ea7b31461023857806318160ddd14610266575b600080fd5b61016e6004803603602081101561015d57600080fd5b50356001600160e01b031916610546565b604080519115158252519081900360200190f35b61018a610565565b6040805160208082528351818301528351919283929083019185019080838360005b838110156101c45781810151838201526020016101ac565b50505050905090810190601f1680156101f15780820380516001836020036101000a031916815260200191505b509250505060405180910390f35b61021c6004803603602081101561021557600080fd5b50356105fc565b604080516001600160a01b039092168252519081900360200190f35b6102646004803603604081101561024e57600080fd5b506001600160a01b03813516906020013561062c565b005b61026e6106d9565b60408051918252519081900360200190f35b6102646004803603606081101561029657600080fd5b506001600160a01b038135811691602081013590911690604001356106df565b61026e600480360360408110156102cc57600080fd5b506001600160a01b038135169060200135610702565b610264600480360360408110156102f857600080fd5b506001600160a01b03813516906020013561074f565b6102646004803603606081101561032457600080fd5b506001600160a01b038135811691602081013590911690604001356107b3565b6102646004803603602081101561035a57600080fd5b50356107ce565b61026e6004803603602081101561037757600080fd5b50356107eb565b61021c6004803603602081101561039457600080fd5b503561081f565b61026e600480360360208110156103b157600080fd5b50356001600160a01b0316610847565b61026461087d565b61021c6108d8565b61016e6108e7565b61018a6108f8565b610264600480360360408110156103f757600080fd5b506001600160a01b0381351690602001351515610959565b6102646004803603608081101561042557600080fd5b6001600160a01b0382358116926020810135909116916040820135919081019060808101606082013564010000000081111561046057600080fd5b82018360208201111561047257600080fd5b8035906020019184600183028401116401000000008311171561049457600080fd5b91908080601f0160208091040260200160405190810160405280939291908181526020018383808284376000920191909152509295506109dd945050505050565b61018a600480360360208110156104eb57600080fd5b5035610a03565b61016e6004803603604081101561050857600080fd5b506001600160a01b0381358116916020013516610ab6565b6102646004803603602081101561053657600080fd5b50356001600160a01b0316610ae4565b6001600160e01b03191660009081526020819052604090205460ff1690565b60098054604080516020601f60026000196101006001881615020190951694909404938401819004810282018101909252828152606093909290918301828280156105f15780601f106105c6576101008083540402835291602001916105f1565b820191906000526020600020905b8154815290600101906020018083116105d457829003601f168201915b505050505090505b90565b600061060782610afe565b61061057600080fd5b506000908152600260205260409020546001600160a01b031690565b60006106378261081f565b9050806001600160a01b0316836001600160a01b0316141561065857600080fd5b336001600160a01b038216148061067457506106748133610ab6565b61067d57600080fd5b60008281526002602052604080822080546001600160a01b0319166001600160a01b0387811691821790925591518593918516917f8c5be1e5ebec7d5bd14f71427d1e84f3dd0314c0f7b2291e5b200ac8c7c3b92591a4505050565b60075490565b6106e93382610b1b565b6106f257600080fd5b6106fd838383610b7a565b505050565b600061070d83610847565b821061071857600080fd5b6001600160a01b038316600090815260056020526040902080548390811061073c57fe5b9060005260206000200154905092915050565b6107576108e7565b61076057600080fd5b61076982610847565b156107a55760405162461bcd60e51b815260040180806020018281038252602f815260200180611364602f913960400191505060405180910390fd5b6107af8282610bca565b5050565b6106fd838383604051806020016040528060008152506109dd565b6107d66108e7565b6107df57600080fd5b6107e881610be7565b50565b60006107f56106d9565b821061080057600080fd5b6007828154811061080d57fe5b90600052602060002001549050919050565b6000818152600160205260408120546001600160a01b03168061084157600080fd5b92915050565b60006001600160a01b03821661085c57600080fd5b6001600160a01b038216600090815260036020526040902061084190610bf9565b6108856108e7565b61088e57600080fd5b600c546040516000916001600160a01b0316907f8be0079c531659141344cd1fd0a4f28419497f9722a3daafe3b4186f6b6457e0908390a3600c80546001600160a01b0319169055565b600c546001600160a01b031690565b600c546001600160a01b0316331490565b600a8054604080516020601f60026000196101006001881615020190951694909404938401819004810282018101909252828152606093909290918301828280156105f15780601f106105c6576101008083540402835291602001916105f1565b6001600160a01b03821633141561096f57600080fd5b3360008181526004602090815260408083206001600160a01b03871680855290835292819020805460ff1916861515908117909155815190815290519293927f17307eab39ab6107e8899845ad3d59bd9653f200f220920489ca2b5937696c31929181900390910190a35050565b6109e88484846106df565b6109f484848484610bfd565b6109fd57600080fd5b50505050565b6060610a0e82610afe565b610a1757600080fd5b6000828152600b602090815260409182902080548351601f600260001961010060018616150201909316929092049182018490048402810184019094528084529091830182828015610aaa5780601f10610a7f57610100808354040283529160200191610aaa565b820191906000526020600020905b815481529060010190602001808311610a8d57829003601f168201915b50505050509050919050565b6001600160a01b03918216600090815260046020908152604080832093909416825291909152205460ff1690565b610aec6108e7565b610af557600080fd5b6107e881610d30565b6000908152600160205260409020546001600160a01b0316151590565b600080610b278361081f565b9050806001600160a01b0316846001600160a01b03161480610b625750836001600160a01b0316610b57846105fc565b6001600160a01b0316145b80610b725750610b728185610ab6565b949350505050565b610b8382610847565b15610bbf5760405162461bcd60e51b815260040180806020018281038252602f815260200180611364602f913960400191505060405180910390fd5b6106fd838383610d9f565b610bd48282610dbe565b610bde8282610e5f565b6107af81610e9d565b6107e8610bf38261081f565b82610ee1565b5490565b6000610c11846001600160a01b0316610f29565b610c1d57506001610b72565b604051630a85bd0160e11b815233600482018181526001600160a01b03888116602485015260448401879052608060648501908152865160848601528651600095928a169463150b7a029490938c938b938b939260a4019060208501908083838e5b83811015610c97578181015183820152602001610c7f565b50505050905090810190601f168015610cc45780820380516001836020036101000a031916815260200191505b5095505050505050602060405180830381600087803b158015610ce657600080fd5b505af1158015610cfa573d6000803e3d6000fd5b505050506040513d6020811015610d1057600080fd5b50516001600160e01b031916630a85bd0160e11b14915050949350505050565b6001600160a01b038116610d4357600080fd5b600c546040516001600160a01b038084169216907f8be0079c531659141344cd1fd0a4f28419497f9722a3daafe3b4186f6b6457e090600090a3600c80546001600160a01b0319166001600160a01b0392909216919091179055565b610daa838383610f2f565b610db4838261100f565b6106fd8282610e5f565b6001600160a01b038216610dd157600080fd5b610dda81610afe565b15610de457600080fd5b600081815260016020908152604080832080546001600160a01b0319166001600160a01b038716908117909155835260039091529020610e2390611104565b60405181906001600160a01b038416906000907fddf252ad1be2c89b69c2b068fc378daa952ba7f163c4a11628f55a4df523b3ef908290a45050565b6001600160a01b0390911660009081526005602081815260408084208054868652600684529185208290559282526001810183559183529091200155565b600780546000838152600860205260408120829055600182018355919091527fa66cc928b5edb82af9bd49922954155ab7b0942694bea4ce44661d9a8736c6880155565b610eeb828261110d565b6000818152600b602052604090205460026000196101006001841615020190911604156107af576000818152600b602052604081206107af916112e1565b3b151590565b826001600160a01b0316610f428261081f565b6001600160a01b031614610f5557600080fd5b6001600160a01b038216610f6857600080fd5b610f7181611139565b6001600160a01b0383166000908152600360205260409020610f9290611174565b6001600160a01b0382166000908152600360205260409020610fb390611104565b60008181526001602052604080822080546001600160a01b0319166001600160a01b0386811691821790925591518493918716917fddf252ad1be2c89b69c2b068fc378daa952ba7f163c4a11628f55a4df523b3ef91a4505050565b6001600160a01b03821660009081526005602052604081205461103990600163ffffffff61118b16565b6000838152600660205260409020549091508082146110d4576001600160a01b038416600090815260056020526040812080548490811061107657fe5b906000526020600020015490508060056000876001600160a01b03166001600160a01b0316815260200190815260200160002083815481106110b457fe5b600091825260208083209091019290925591825260069052604090208190555b6001600160a01b03841660009081526005602052604090208054906110fd906000198301611325565b5050505050565b80546001019055565b61111782826111a0565b611121828261100f565b6000818152600660205260408120556107af81611245565b6000818152600260205260409020546001600160a01b0316156107e857600090815260026020526040902080546001600160a01b0319169055565b805461118790600163ffffffff61118b16565b9055565b60008282111561119a57600080fd5b50900390565b816001600160a01b03166111b38261081f565b6001600160a01b0316146111c657600080fd5b6111cf81611139565b6001600160a01b03821660009081526003602052604090206111f090611174565b60008181526001602052604080822080546001600160a01b0319169055518291906001600160a01b038516907fddf252ad1be2c89b69c2b068fc378daa952ba7f163c4a11628f55a4df523b3ef908390a45050565b60075460009061125c90600163ffffffff61118b16565b6000838152600860205260408120546007805493945090928490811061127e57fe5b90600052602060002001549050806007838154811061129957fe5b600091825260208083209091019290925582815260089091526040902082905560078054906112cc906000198301611325565b50505060009182525060086020526040812055565b50805460018160011615610100020316600290046000825580601f1061130757506107e8565b601f0160209004906000526020600020908101906107e89190611345565b8154818355818111156106fd576000838152602090206106fd9181019083015b6105f991905b8082111561135f576000815560010161134b565b509056fe56616c696461746f7273204d555354204e4f54206f776e206d756c7469706c65207374616b6520706f736974696f6ea265627a7a72315820d754efaae285a96eaaa88921be82e0806db49a281cea33b5baafba13ccd09fe564736f6c634300050b0032",
  "source": "pragma solidity ^0.5.2;\n\nimport {IERC20} from \"openzeppelin-solidity/contracts/token/ERC20/IERC20.sol\";\nimport \"openzeppelin-solidity/contracts/token/ERC721/ERC721Full.sol\";\nimport {Math} from \"openzeppelin-solidity/contracts/math/Math.sol\";\nimport {SafeMath} from \"openzeppelin-solidity/contracts/math/SafeMath.sol\";\nimport {Ownable} from \"openzeppelin-solidity/contracts/ownership/Ownable.sol\";\n\nimport {BytesLib} from \"../common/lib/BytesLib.sol\";\nimport {ECVerify} from \"../common/lib/ECVerify.sol\";\nimport {Merkle} from \"../common/lib/Merkle.sol\";\nimport {Lockable} from \"../common/mixin/Lockable.sol\";\nimport {RootChainable} from \"../common/mixin/RootChainable.sol\";\nimport {Registry} from \"../common/Registry.sol\";\nimport {IStakeManager} from \"./IStakeManager.sol\";\nimport {ValidatorShare} from \"./ValidatorShare.sol\";\nimport {StakingInfo} from \"./StakingInfo.sol\";\n\ncontract ValidatorShareFactory {\n    /**\n    - factory to create new validatorShare contracts\n   */\n\n    function create(uint256 validatorId, address loggerAddress)\n        public\n        returns (address)\n    {\n        ValidatorShare validatorShare = new ValidatorShare(\n            validatorId,\n            loggerAddress,\n            msg.sender\n        );\n        validatorShare.transferOwnership(msg.sender);\n        return address(validatorShare);\n    }\n\n}\n\ncontract StakingNFT is ERC721Full, Ownable {\n    constructor(string memory name, string memory symbol)\n        public\n        ERC721Full(name, symbol)\n    {\n        // solhint-disable-previous-line no-empty-blocks\n    }\n\n    function mint(address to, uint256 tokenId) public onlyOwner {\n        require(\n            balanceOf(to) == 0,\n            \"Validators MUST NOT own multiple stake position\"\n        );\n        //require(balanceOf(user) == 0, \"Only one time staking is allowed\");\n        _mint(to, tokenId);\n    }\n\n    function burn(uint256 tokenId) public onlyOwner {\n        _burn(tokenId);\n    }\n\n    function _transferFrom(address from, address to, uint256 tokenId) internal {\n        require(\n            balanceOf(to) == 0,\n            \"Validators MUST NOT own multiple stake position\"\n        );\n        super._transferFrom(from, to, tokenId);\n    }\n}\n\ncontract StakeManager is IStakeManager, RootChainable, Lockable {\n    using SafeMath for uint256;\n    using ECVerify for bytes32;\n    using Merkle for bytes32;\n\n    IERC20 public token;\n    address public registry;\n    StakingInfo public logger;\n    StakingNFT public NFTContract;\n    ValidatorShareFactory public factory;\n    // genesis/governance variables\n    uint256 public dynasty = 2**13; // unit: epoch 50 days\n    uint256 public CHECKPOINT_REWARD = 10000 * (10**18); // @todo update according to Chain\n    uint256 public minDeposit = (10**18); // in ERC20 token\n    uint256 public minHeimdallFee = (10**18); // in ERC20 token\n    uint256 public checkPointBlockInterval = 255;\n\n    uint256 public validatorThreshold = 10; //128\n    uint256 public totalStaked;\n    uint256 public NFTCounter = 1;\n    uint256 public totalRewards;\n    uint256 public totalRewardsLiquidated;\n    uint256 public auctionPeriod = dynasty.div(4); // 1 week in epochs\n    bytes32 public accountStateRoot;\n\n    // on dynasty update certain amount of cooldown period where there is no validator auction\n    uint256 replacementCoolDown;\n\n    struct Auction {\n        uint256 amount;\n        uint256 startEpoch;\n        address user;\n    }\n\n    struct State {\n        int256 amount;\n        int256 stakerCount;\n    }\n\n    // signer to Validator mapping\n    mapping(address => uint256) public signerToValidator;\n    // validator metadata\n    // mapping (uint256 => Validator) public validators;\n    //Mapping for epoch to totalStake for that epoch\n    mapping(uint256 => State) public validatorState;\n    //Ongoing auctions for validatorId\n    mapping(uint256 => Auction) public validatorAuction;\n\n    uint256 public totalHeimdallFee;\n\n    constructor(\n        address _registry,\n        address _rootchain,\n        address _NFTContract,\n        address _stakingLogger,\n        address _ValidatorShareFactory\n    ) public {\n        registry = _registry;\n        rootChain = _rootchain;\n        NFTContract = StakingNFT(_NFTContract);\n        logger = StakingInfo(_stakingLogger);\n        factory = ValidatorShareFactory(_ValidatorShareFactory);\n    }\n\n    modifier onlyStaker(uint256 validatorId) {\n        require(NFTContract.ownerOf(validatorId) == msg.sender);\n        _;\n    }\n\n    modifier onlySlashingMananger() {\n        require(Registry(registry).getSlashingManagerAddress() == msg.sender);\n        _;\n    }\n\n    // TopUp heimdall fee\n    function topUpForFee(uint256 validatorId, uint256 heimdallFee) public {\n        require(heimdallFee >= minHeimdallFee, \"Minimum amount is 1 Matic\");\n        require(\n            token.transferFrom(msg.sender, address(this), heimdallFee),\n            \"Transfer stake failed\"\n        );\n        _topUpForFee(validatorId, heimdallFee);\n    }\n\n    function ownerOf(uint256 tokenId) public view returns (address) {\n        return NFTContract.ownerOf(tokenId);\n    }\n\n    function _topUpForFee(uint256 validatorId, uint256 amount) private {\n        totalHeimdallFee = totalHeimdallFee.add(amount);\n        logger.logTopUpFee(validatorId, amount);\n    }\n\n    function _claimFee(uint256 validatorId, uint256 amount) private {\n        totalHeimdallFee = totalHeimdallFee.sub(amount);\n        logger.logClaimFee(validatorId, amount);\n    }\n\n    function claimFee(\n        uint256 validatorId,\n        uint256 accumSlashedAmount,\n        uint256 amount,\n        uint256 index,\n        bytes memory proof\n    ) public onlyStaker(validatorId) {\n        //Ignoring other params becuase rewards distribution is on chain\n        require(\n            keccak256(abi.encodePacked(validatorId, amount, accumSlashedAmount))\n                .checkMembership(index, accountStateRoot, proof),\n            \"Wrong acc proof\"\n        );\n        require(token.transfer(msg.sender, amount));\n        _claimFee(validatorId, amount);\n    }\n\n    function stake(\n        uint256 amount,\n        uint256 heimdallFee,\n        address signer,\n        bool acceptDelegation\n    ) external {\n        stakeFor(msg.sender, amount, heimdallFee, signer, acceptDelegation);\n    }\n\n    function totalStakedFor(address user) external view returns (uint256) {\n        if (user == address(0x0) || NFTContract.balanceOf(user) == 0) {\n            return 0;\n        }\n        return validators[NFTContract.tokenOfOwnerByIndex(user, 0)].amount;\n    }\n\n    function supportsHistory() external pure returns (bool) {\n        return false;\n    }\n\n    function startAuction(uint256 validatorId, uint256 amount) external {\n        require(isValidator(validatorId));\n        // when dynasty period is updated validators are in cool down period\n        require(\n            replacementCoolDown == 0 || replacementCoolDown <= currentEpoch,\n            \"Cool down period\"\n        );\n        require(\n            auctionPeriod >=\n                currentEpoch.sub(validatorAuction[validatorId].startEpoch),\n            \"Invalid auction period\"\n        );\n        // (dynasty--auctionPeriod)--(dynasty--auctionPeriod)--(dynasty--auctionPeriod)\n        // if it's auctionPeriod then will get residue from (CurrentPeriod of validator )%(dynasty--auctionPeriod)\n        // make sure that its `auctionPeriod` window\n        // dynasty = 30, auctionPeriod = 7, activationEpoch = 1, currentEpoch = 39\n        // residue 1 = (39-1)% (30+7), if residue-dynasty  > 0 it's `auctionPeriod`\n        require(\n            (currentEpoch.sub(validators[validatorId].activationEpoch) %\n                dynasty.add(auctionPeriod)) >\n                dynasty,\n            \"Not an auction time\"\n        );\n\n        require(\n            token.transferFrom(msg.sender, address(this), amount),\n            \"Transfer amount failed\"\n        );\n\n        uint256 perceivedStake = validators[validatorId].amount.mul(\n            perceivedStakeFactor(validatorId)\n        );\n        perceivedStake = Math.max(\n            perceivedStake,\n            validatorAuction[validatorId].amount\n        );\n\n        require(perceivedStake < amount, \"Must bid higher amount\");\n\n        // create new auction\n        if (validatorAuction[validatorId].amount == 0) {\n            validatorAuction[validatorId] = Auction({\n                amount: amount,\n                startEpoch: currentEpoch,\n                user: msg.sender\n            });\n        } else {\n            //replace prev auction\n            Auction storage auction = validatorAuction[validatorId];\n            require(token.transfer(auction.user, auction.amount));\n            auction.amount = amount;\n            auction.user = msg.sender;\n        }\n        logger.logStartAuction(\n            validatorId,\n            validators[validatorId].amount,\n            validatorAuction[validatorId].amount\n        );\n    }\n\n    function confirmAuctionBid(\n        uint256 validatorId,\n        uint256 heimdallFee, /** for new validator */\n        address signer,\n        bool acceptDelegation\n    ) external onlyWhenUnlocked {\n        Auction storage auction = validatorAuction[validatorId];\n        Validator storage validator = validators[validatorId];\n        // require(auction.user == msg.sender);// any one can call confrimAuction\n        require(\n            auctionPeriod.add(auction.startEpoch) <= currentEpoch,\n            \"Confirmation is not allowed before auctionPeriod\"\n        );\n\n        // validator is last auctioner\n        if (auction.user == NFTContract.ownerOf(validatorId)) {\n            uint256 refund = validator.amount;\n            require(token.transfer(auction.user, refund));\n            validator.amount = auction.amount;\n\n            //cleanup auction data\n            auction.amount = 0;\n            auction.user = address(0x0);\n            auction.startEpoch = currentEpoch.add(dynasty);\n            //update total stake amount\n            totalStaked = totalStaked.add(validator.amount.sub(refund));\n            logger.logStakeUpdate(validatorId);\n            logger.logConfirmAuction(\n                validatorId,\n                validatorId,\n                validator.amount\n            );\n        } else {\n            // dethrone\n            _unstake(validatorId, currentEpoch);\n            require(\n                token.transferFrom(msg.sender, address(this), heimdallFee),\n                \"Transfer fee failed\"\n            );\n            _topUpForFee(NFTCounter, heimdallFee);\n            _stakeFor(auction.user, auction.amount, signer, acceptDelegation);\n\n            logger.logConfirmAuction(\n                NFTCounter.sub(1),\n                validatorId,\n                auction.amount\n            );\n            delete validatorAuction[validatorId];\n        }\n    }\n\n    function unstake(uint256 validatorId) external onlyStaker(validatorId) {\n        require(\n            validatorAuction[validatorId].amount == 0,\n            \"Wait for auction completion\"\n        );\n        uint256 exitEpoch = currentEpoch.add(1); // notice period\n        require(\n            validators[validatorId].activationEpoch > 0 &&\n                validators[validatorId].deactivationEpoch == 0 &&\n                validators[validatorId].status == Status.Active\n        );\n        _unstake(validatorId, exitEpoch);\n    }\n\n    // @NOTE this is for stage-1 event only\n    function forceUnstake(uint256 validatorId) external onlyOwner {\n        _unstake(validatorId, currentEpoch);\n    }\n\n    function delegationTransfer(\n        uint256 validatorId,\n        uint256 amount,\n        address delegator\n    ) external returns (bool) {\n        require(validators[validatorId].contractAddress == msg.sender);\n        return token.transfer(delegator, amount);\n    }\n\n    function delegationDeposit(\n        uint256 validatorId,\n        uint256 amount,\n        address delegator\n    ) external returns (bool) {\n        require(validators[validatorId].contractAddress == msg.sender);\n        return token.transferFrom(delegator, address(this), amount);\n    }\n\n    function stakeFor(\n        address user,\n        uint256 amount,\n        uint256 heimdallFee,\n        address signer,\n        bool acceptDelegation\n    ) public onlyWhenUnlocked {\n        require(currentValidatorSetSize() < validatorThreshold);\n        require(amount > minDeposit);\n        require(signerToValidator[signer] == 0);\n\n        require(\n            token.transferFrom(\n                msg.sender,\n                address(this),\n                amount.add(heimdallFee)\n            ),\n            \"Transfer stake failed\"\n        );\n        // _topup\n        _topUpForFee(\n            NFTCounter, /** validatorId*/\n            heimdallFee\n        );\n        _stakeFor(user, amount, signer, acceptDelegation);\n    }\n\n    function perceivedStakeFactor(uint256 validatorId)\n        public\n        view\n        returns (uint256)\n    {\n        // TODO: use age, rewardRatio, and slashing/reward rate\n        return 1;\n    }\n\n    function unstakeClaim(uint256 validatorId) public onlyStaker(validatorId) {\n        // can only claim stake back after WITHDRAWAL_DELAY\n        require(\n            validators[validatorId].deactivationEpoch > 0 &&\n                validators[validatorId].deactivationEpoch.add(\n                    WITHDRAWAL_DELAY\n                ) <=\n                currentEpoch &&\n                validators[validatorId].status != Status.Unstaked\n        );\n        uint256 amount = validators[validatorId].amount;\n        totalStaked = totalStaked.sub(amount);\n\n        // TODO :add slashing here use soft slashing in slash amt variable\n        NFTContract.burn(validatorId);\n        delete signerToValidator[validators[validatorId].signer];\n        // delete validators[validatorId];\n        validators[validatorId].status = Status.Unstaked;\n        require(\n            token.transfer(\n                msg.sender,\n                amount.add(validators[validatorId].reward)\n            ),\n            \"Transfer stake failed\"\n        );\n        logger.logUnstaked(msg.sender, validatorId, amount, totalStaked);\n    }\n\n    // slashing and jail interface\n    function restake(uint256 validatorId, uint256 amount, bool stakeRewards)\n        public\n        onlyStaker(validatorId)\n    {\n        require(\n            validators[validatorId].deactivationEpoch < currentEpoch,\n            \"No use of restaking\"\n        );\n\n        if (amount > 0) {\n            require(\n                token.transferFrom(msg.sender, address(this), amount),\n                \"Transfer stake\"\n            );\n        }\n        if (stakeRewards) {\n            amount += validators[validatorId].reward;\n            validators[validatorId].reward = 0;\n        }\n        totalStaked = totalStaked.add(amount);\n        validators[validatorId].amount += amount;\n        validatorState[currentEpoch].amount = (validatorState[currentEpoch]\n            .amount +\n            int256(amount));\n\n        logger.logStakeUpdate(validatorId);\n        logger.logReStaked(\n            validatorId,\n            validators[validatorId].amount,\n            totalStaked\n        );\n    }\n\n    function withdrawRewards(uint256 validatorId)\n        public\n        onlyStaker(validatorId)\n    {\n        uint256 amount = validators[validatorId].reward;\n        address _contract = validators[validatorId].contractAddress;\n        if (_contract != address(0x0)) {\n            amount = amount.add(\n                ValidatorShare(_contract).withdrawRewardsValidator()\n            );\n        }\n        totalRewardsLiquidated = totalRewardsLiquidated.add(amount);\n        validators[validatorId].reward = 0;\n        require(token.transfer(msg.sender, amount), \"Insufficent rewards\");\n        logger.logClaimRewards(validatorId, amount, totalRewardsLiquidated);\n    }\n\n    // if not jailed then in state of warning, else will be unstaking after x epoch\n    function slash(\n        uint256 validatorId,\n        uint256 slashingRate,\n        uint256 jailCheckpoints\n    ) public onlySlashingMananger {\n        // if contract call contract.slash\n        // if (validators[validatorId].contractAddress != address(0x0)) {\n        //   // ValidatorShare(validators[validatorId].contractAddress).slash(slashingRate, currentEpoch, currentEpoch);\n        // }\n        uint256 amount = validators[validatorId].amount.mul(slashingRate).div(\n            100\n        );\n        validators[validatorId].amount = validators[validatorId].amount.sub(\n            amount\n        );\n        if (\n            validators[validatorId].amount < minDeposit || jailCheckpoints > 0\n        ) {\n            jail(validatorId, jailCheckpoints);\n        }\n        // todo: slash event\n        logger.logStakeUpdate(validatorId);\n    }\n\n    function unJail(uint256 validatorId) public onlyStaker(validatorId) {\n        require(\n            validators[validatorId].deactivationEpoch > currentEpoch &&\n                validators[validatorId].jailTime <= currentEpoch &&\n                validators[validatorId].status == Status.Locked\n        );\n\n        uint256 amount = validators[validatorId].amount;\n        require(amount >= minDeposit);\n        uint256 exitEpoch = validators[validatorId].deactivationEpoch;\n\n        int256 delegationAmount = 0;\n        if (validators[validatorId].contractAddress != address(0x0)) {\n            delegationAmount = int256(\n                ValidatorShare(validators[validatorId].contractAddress)\n                    .activeAmount()\n            );\n            ValidatorShare(validators[validatorId].contractAddress).unlock();\n        }\n\n        // undo timline so that validator is normal validator\n        updateTimeLine(exitEpoch, (int256(amount) + delegationAmount), 1);\n\n        validators[validatorId].deactivationEpoch = 0;\n        validators[validatorId].status = Status.Active;\n        validators[validatorId].jailTime = 0;\n    }\n\n    // in context of slashing\n    function jail(uint256 validatorId, uint256 jailCheckpoints)\n        public\n    /** only*/\n    {\n        // Todo: requires and more conditions\n        uint256 amount = validators[validatorId].amount;\n        // should unbond instantly\n        uint256 exitEpoch = currentEpoch.add(WITHDRAWAL_DELAY); // jail period\n\n        int256 delegationAmount = 0;\n        validators[validatorId].jailTime = jailCheckpoints;\n        if (validators[validatorId].contractAddress != address(0x0)) {\n            delegationAmount = int256(\n                ValidatorShare(validators[validatorId].contractAddress)\n                    .activeAmount()\n            );\n            ValidatorShare(validators[validatorId].contractAddress).lock();\n        }\n        // update future in case of no `unJail`\n        updateTimeLine(exitEpoch, -(int256(amount) + delegationAmount), -1);\n        validators[validatorId].deactivationEpoch = exitEpoch;\n        validators[validatorId].status = Status.Locked;\n        logger.logJailed(validatorId, exitEpoch);\n    }\n\n    // returns valid validator for current epoch\n    function getCurrentValidatorSet() public view returns (uint256[] memory) {\n        uint256[] memory _validators = new uint256[](validatorThreshold);\n        uint256 validator;\n        uint256 k = 0;\n        for (uint256 i = 0; i < NFTContract.totalSupply(); i++) {\n            validator = NFTContract.tokenByIndex(i);\n            if (isValidator(validator)) {\n                _validators[k++] = validator;\n            }\n        }\n        return _validators;\n    }\n\n    function getValidatorId(address user) public view returns (uint256) {\n        return NFTContract.tokenOfOwnerByIndex(user, 0);\n    }\n\n    // set staking Token\n    function setToken(address _token) public onlyOwner {\n        require(_token != address(0x0));\n        token = IERC20(_token);\n    }\n\n    // Change the number of validators required to allow a passed header root\n    function updateValidatorThreshold(uint256 newThreshold) public onlyOwner {\n        require(newThreshold > 0);\n        logger.logThresholdChange(newThreshold, validatorThreshold);\n        validatorThreshold = newThreshold;\n    }\n\n    function updateCheckPointBlockInterval(uint256 _blocks) public onlyOwner {\n        require(_blocks > 0, \"Blocks interval must be non-zero\");\n        checkPointBlockInterval = _blocks;\n    }\n\n    // Change reward for each checkpoint\n    function updateCheckpointReward(uint256 newReward) public onlyOwner {\n        require(newReward > 0);\n        logger.logRewardUpdate(newReward, CHECKPOINT_REWARD);\n        CHECKPOINT_REWARD = newReward;\n    }\n\n    function updateValidatorState(uint256 validatorId, int256 amount) public {\n        require(validators[validatorId].contractAddress == msg.sender);\n        // require(epoch >= currentEpoch, \"Can't change past\");\n        validatorState[currentEpoch].amount = (validatorState[currentEpoch]\n            .amount +\n            amount);\n    }\n\n    function updateDynastyValue(uint256 newDynasty) public onlyOwner {\n        require(newDynasty > 0);\n        logger.logDynastyValueChange(newDynasty, dynasty);\n        dynasty = newDynasty;\n        WITHDRAWAL_DELAY = dynasty;\n        auctionPeriod = dynasty.div(4);\n        // set cool down period\n        replacementCoolDown = currentEpoch.add(auctionPeriod);\n    }\n\n    function updateMinAmounts(uint256 _minDeposit, uint256 _minHeimdallFee)\n        public\n        onlyOwner\n    {\n        minDeposit = _minDeposit;\n        minHeimdallFee = _minHeimdallFee;\n    }\n\n    function updateSigner(uint256 validatorId, address _signer)\n        public\n        onlyStaker(validatorId)\n    {\n        require(_signer != address(0x0) && signerToValidator[_signer] == 0);\n\n        // update signer event\n        logger.logSignerChange(\n            validatorId,\n            validators[validatorId].signer,\n            _signer\n        );\n\n        delete signerToValidator[validators[validatorId].signer];\n        signerToValidator[_signer] = validatorId;\n        validators[validatorId].signer = _signer;\n    }\n\n    function currentValidatorSetSize() public view returns (uint256) {\n        return uint256(validatorState[currentEpoch].stakerCount);\n    }\n\n    function currentValidatorSetTotalStake() public view returns (uint256) {\n        return uint256(validatorState[currentEpoch].amount);\n    }\n\n    function getValidatorContract(uint256 validatorId)\n        public\n        view\n        returns (address)\n    {\n        return validators[validatorId].contractAddress;\n    }\n\n    function isValidator(uint256 validatorId) public view returns (bool) {\n        return (validators[validatorId].amount > 0 &&\n            (validators[validatorId].activationEpoch != 0 &&\n                validators[validatorId].activationEpoch <= currentEpoch) &&\n            (validators[validatorId].deactivationEpoch == 0 ||\n                validators[validatorId].deactivationEpoch > currentEpoch) &&\n            validators[validatorId].status == Status.Active); // Todo: reduce logic\n    }\n\n    function checkSignatures(\n        uint256 blockInterval,\n        bytes32 voteHash,\n        bytes32 stateRoot,\n        bytes memory sigs\n    ) public onlyRootChain returns (uint256) {\n        // checkpoint rewards are based on BlockInterval multiplied on `CHECKPOINT_REWARD`\n        // for bigger checkpoints reward is capped at `CHECKPOINT_REWARD`\n        // if interval is 50% of checkPointBlockInterval then reward R is half of `CHECKPOINT_REWARD`\n        // and then stakePower is 90% of currentValidatorSetTotalStake then final reward is 90% of R\n        uint256 _reward = blockInterval.mul(CHECKPOINT_REWARD).div(\n            checkPointBlockInterval\n        );\n        _reward = Math.min(CHECKPOINT_REWARD, _reward);\n\n        uint256 stakePower = currentValidatorSetTotalStake();\n        // update stateMerkleTree root for accounts balance on heimdall chain\n        accountStateRoot = stateRoot;\n        _finalizeCommit();\n        return checkSignature(stakePower, _reward, voteHash, sigs);\n    }\n\n    function checkSignature(\n        uint256 stakePower,\n        uint256 _reward,\n        bytes32 voteHash,\n        bytes memory sigs\n    ) internal returns (uint256) {\n        // total voting power\n        uint256 _stakePower;\n        //TODO: add proposer bonus\n        address lastAdd; // cannot have address(0x0) as an owner\n        for (uint64 i = 0; i < sigs.length; i += 65) {\n            bytes memory sigElement = BytesLib.slice(sigs, i, 65);\n            address signer = voteHash.ecrecovery(sigElement);\n\n            uint256 validatorId = signerToValidator[signer];\n            // check if signer is staker and not proposer\n            if (signer == lastAdd) {\n                break;\n            } else if (isValidator(validatorId) && signer > lastAdd) {\n                lastAdd = signer;\n                Validator storage validator = validators[validatorId];\n                uint256 valPow;\n                // add delegation power\n                if (validator.contractAddress != address(0x0)) {\n                    valPow = ValidatorShare(validator.contractAddress)\n                        .udpateRewards(_reward, stakePower);\n                } else {\n                    //TODO: check for div leaks in rewards amount\n                    valPow = validator.amount;\n                    validator.reward = validator.reward.add(\n                        valPow.mul(_reward).div(stakePower)\n                    );\n                }\n                _stakePower = _stakePower.add(valPow);\n            }\n        }\n\n        _reward = CHECKPOINT_REWARD.mul(_stakePower).div(\n            currentValidatorSetTotalStake()\n        );\n        totalRewards = totalRewards.add(_reward);\n        require(\n            _stakePower >= currentValidatorSetTotalStake().mul(2).div(3).add(1)\n        );\n        return _reward;\n    }\n\n    function challangeStateRootUpdate(\n        bytes memory checkpointTx /* txData from submitCheckpoint */\n    ) public {\n        // TODO: check for 2/3+1 sig and validate non-inclusion in newStateUpdate\n        // UPDATE: since we've moved rewards to on chain there is no urgent need for this function\n        // becuase heimdall fee can be trusted on 2/3+1 security\n    }\n\n    function _stakeFor(\n        address user,\n        uint256 amount,\n        address signer,\n        bool acceptDelegation\n    ) internal {\n        totalStaked = totalStaked.add(amount);\n\n        validators[NFTCounter] = Validator({\n            reward: 0,\n            amount: amount,\n            activationEpoch: currentEpoch,\n            deactivationEpoch: 0,\n            jailTime: 0,\n            signer: signer,\n            contractAddress: acceptDelegation\n                ? factory.create(NFTCounter, address(logger))\n                : address(0x0),\n            status: Status.Active\n        });\n\n        NFTContract.mint(user, NFTCounter);\n\n        signerToValidator[signer] = NFTCounter;\n        updateTimeLine(currentEpoch, int256(amount), 1);\n        // no Auctions for 1 dynasty\n        validatorAuction[NFTCounter].startEpoch = currentEpoch.add(dynasty);\n        logger.logStaked(signer, NFTCounter, currentEpoch, amount, totalStaked);\n        NFTCounter = NFTCounter.add(1);\n    }\n\n    function _unstake(uint256 validatorId, uint256 exitEpoch) internal {\n        //Todo: add state here consider jail\n        uint256 amount = validators[validatorId].amount;\n\n        validators[validatorId].deactivationEpoch = exitEpoch;\n\n        // unbond all delegators in future\n        int256 delegationAmount = 0;\n        if (validators[validatorId].contractAddress != address(0x0)) {\n            delegationAmount = int256(\n                ValidatorShare(validators[validatorId].contractAddress)\n                    .activeAmount()\n            );\n            ValidatorShare(validators[validatorId].contractAddress).lock();\n        }\n\n        //  update future\n        updateTimeLine(exitEpoch, -(int256(amount) + delegationAmount), -1);\n\n        logger.logUnstakeInit(msg.sender, validatorId, exitEpoch, amount);\n    }\n\n    function _finalizeCommit() internal {\n        uint256 nextEpoch = currentEpoch.add(1);\n        // update totalstake and validator count\n        validatorState[nextEpoch].amount = (validatorState[currentEpoch]\n            .amount +\n            validatorState[nextEpoch].amount);\n        validatorState[nextEpoch].stakerCount = (validatorState[currentEpoch]\n            .stakerCount +\n            validatorState[nextEpoch].stakerCount);\n\n        // erase old data/history\n        delete validatorState[currentEpoch];\n        currentEpoch = nextEpoch;\n    }\n\n    function updateTimeLine(uint256 epoch, int256 amount, int256 stakerCount)\n        private\n    {\n        validatorState[epoch].amount += amount;\n        validatorState[epoch].stakerCount += stakerCount;\n    }\n\n}\n",
  "sourcePath": "/Users/atvanguard/matic/contracts/contracts/staking/StakeManager.sol",
  "compiler": {
    "name": "solc",
    "version": "0.5.11+commit.c082d0b4.Emscripten.clang"
  },
  "schemaVersion": "3.0.14",
  "updatedAt": "2020-02-13T08:29:57.363Z",
  "devdoc": {
    "methods": {
      "approve(address,uint256)": {
        "details": "Approves another address to transfer the given token ID The zero address indicates there is no approved address. There can only be one approved address per token at a given time. Can only be called by the token owner or an approved operator.",
        "params": {
          "to": "address to be approved for the given token ID",
          "tokenId": "uint256 ID of the token to be approved"
        }
      },
      "balanceOf(address)": {
        "details": "Gets the balance of the specified address",
        "params": {
          "owner": "address to query the balance of"
        },
        "return": "uint256 representing the amount owned by the passed address"
      },
      "getApproved(uint256)": {
        "details": "Gets the approved address for a token ID, or zero if no address set Reverts if the token ID does not exist.",
        "params": {
          "tokenId": "uint256 ID of the token to query the approval of"
        },
        "return": "address currently approved for the given token ID"
      },
      "isApprovedForAll(address,address)": {
        "details": "Tells whether an operator is approved by a given owner",
        "params": {
          "operator": "operator address which you want to query the approval of",
          "owner": "owner address which you want to query the approval of"
        },
        "return": "bool whether the given operator is approved by the given owner"
      },
      "isOwner()": {
        "return": "true if `msg.sender` is the owner of the contract."
      },
      "name()": {
        "details": "Gets the token name",
        "return": "string representing the token name"
      },
      "owner()": {
        "return": "the address of the owner."
      },
      "ownerOf(uint256)": {
        "details": "Gets the owner of the specified token ID",
        "params": {
          "tokenId": "uint256 ID of the token to query the owner of"
        },
        "return": "address currently marked as the owner of the given token ID"
      },
      "renounceOwnership()": {
        "details": "Allows the current owner to relinquish control of the contract. It will not be possible to call the functions with the `onlyOwner` modifier anymore."
      },
      "safeTransferFrom(address,address,uint256)": {
        "details": "Safely transfers the ownership of a given token ID to another address If the target address is a contract, it must implement `onERC721Received`, which is called upon a safe transfer, and return the magic value `bytes4(keccak256(\"onERC721Received(address,address,uint256,bytes)\"))`; otherwise, the transfer is reverted. Requires the msg.sender to be the owner, approved, or operator",
        "params": {
          "from": "current owner of the token",
          "to": "address to receive the ownership of the given token ID",
          "tokenId": "uint256 ID of the token to be transferred"
        }
      },
      "safeTransferFrom(address,address,uint256,bytes)": {
        "details": "Safely transfers the ownership of a given token ID to another address If the target address is a contract, it must implement `onERC721Received`, which is called upon a safe transfer, and return the magic value `bytes4(keccak256(\"onERC721Received(address,address,uint256,bytes)\"))`; otherwise, the transfer is reverted. Requires the msg.sender to be the owner, approved, or operator",
        "params": {
          "_data": "bytes data to send along with a safe transfer check",
          "from": "current owner of the token",
          "to": "address to receive the ownership of the given token ID",
          "tokenId": "uint256 ID of the token to be transferred"
        }
      },
      "setApprovalForAll(address,bool)": {
        "details": "Sets or unsets the approval of a given operator An operator is allowed to transfer all tokens of the sender on their behalf",
        "params": {
          "approved": "representing the status of the approval to be set",
          "to": "operator address to set the approval"
        }
      },
      "supportsInterface(bytes4)": {
        "details": "implement supportsInterface(bytes4) using a lookup table"
      },
      "symbol()": {
        "details": "Gets the token symbol",
        "return": "string representing the token symbol"
      },
      "tokenByIndex(uint256)": {
        "details": "Gets the token ID at a given index of all the tokens in this contract Reverts if the index is greater or equal to the total number of tokens",
        "params": {
          "index": "uint256 representing the index to be accessed of the tokens list"
        },
        "return": "uint256 token ID at the given index of the tokens list"
      },
      "tokenOfOwnerByIndex(address,uint256)": {
        "details": "Gets the token ID at a given index of the tokens list of the requested owner",
        "params": {
          "index": "uint256 representing the index to be accessed of the requested tokens list",
          "owner": "address owning the tokens list to be accessed"
        },
        "return": "uint256 token ID at the given index of the tokens list owned by the requested address"
      },
      "tokenURI(uint256)": {
        "details": "Returns an URI for a given token ID Throws if the token ID does not exist. May return an empty string.",
        "params": {
          "tokenId": "uint256 ID of the token to query"
        }
      },
      "totalSupply()": {
        "details": "Gets the total amount of tokens stored by the contract",
        "return": "uint256 representing the total amount of tokens"
      },
      "transferFrom(address,address,uint256)": {
        "details": "Transfers the ownership of a given token ID to another address Usage of this method is discouraged, use `safeTransferFrom` whenever possible Requires the msg.sender to be the owner, approved, or operator",
        "params": {
          "from": "current owner of the token",
          "to": "address to receive the ownership of the given token ID",
          "tokenId": "uint256 ID of the token to be transferred"
        }
      },
      "transferOwnership(address)": {
        "details": "Allows the current owner to transfer control of the contract to a newOwner.",
        "params": {
          "newOwner": "The address to transfer ownership to."
        }
      }
    }
  },
  "userdoc": {
    "methods": {
      "renounceOwnership()": {
        "notice": "Renouncing ownership will leave the contract without an owner, thereby removing any functionality that is only available to the owner."
      }
    }
  }
}