{
  "contractName": "StakeManager",
  "abi": [
    {
      "constant": true,
      "inputs": [],
      "name": "auctionPeriod",
      "outputs": [
        {
          "internalType": "uint256",
          "name": "",
          "type": "uint256"
        }
      ],
      "payable": false,
      "stateMutability": "view",
      "type": "function"
    },
    {
      "constant": true,
      "inputs": [],
      "name": "totalRewards",
      "outputs": [
        {
          "internalType": "uint256",
          "name": "",
          "type": "uint256"
        }
      ],
      "payable": false,
      "stateMutability": "view",
      "type": "function"
    },
    {
      "constant": true,
      "inputs": [],
      "name": "WITHDRAWAL_DELAY",
      "outputs": [
        {
          "internalType": "uint256",
          "name": "",
          "type": "uint256"
        }
      ],
      "payable": false,
      "stateMutability": "view",
      "type": "function"
    },
    {
      "constant": true,
      "inputs": [],
      "name": "accountStateRoot",
      "outputs": [
        {
          "internalType": "bytes32",
          "name": "",
          "type": "bytes32"
        }
      ],
      "payable": false,
      "stateMutability": "view",
      "type": "function"
    },
    {
      "constant": true,
      "inputs": [],
      "name": "checkPointBlockInterval",
      "outputs": [
        {
          "internalType": "uint256",
          "name": "",
          "type": "uint256"
        }
      ],
      "payable": false,
      "stateMutability": "view",
      "type": "function"
    },
    {
      "constant": true,
      "inputs": [],
      "name": "NFTContract",
      "outputs": [
        {
          "internalType": "contract StakingNFT",
          "name": "",
          "type": "address"
        }
      ],
      "payable": false,
      "stateMutability": "view",
      "type": "function"
    },
    {
      "constant": true,
      "inputs": [
        {
          "internalType": "uint256",
          "name": "",
          "type": "uint256"
        }
      ],
      "name": "validators",
      "outputs": [
        {
          "internalType": "uint256",
          "name": "amount",
          "type": "uint256"
        },
        {
          "internalType": "uint256",
          "name": "reward",
          "type": "uint256"
        },
        {
          "internalType": "uint256",
          "name": "activationEpoch",
          "type": "uint256"
        },
        {
          "internalType": "uint256",
          "name": "deactivationEpoch",
          "type": "uint256"
        },
        {
          "internalType": "uint256",
          "name": "jailTime",
          "type": "uint256"
        },
        {
          "internalType": "address",
          "name": "signer",
          "type": "address"
        },
        {
          "internalType": "address",
          "name": "contractAddress",
          "type": "address"
        },
        {
          "internalType": "enum IStakeManager.Status",
          "name": "status",
          "type": "uint8"
        }
      ],
      "payable": false,
      "stateMutability": "view",
      "type": "function"
    },
    {
      "constant": true,
      "inputs": [
        {
          "internalType": "address",
          "name": "",
          "type": "address"
        }
      ],
      "name": "signerToValidator",
      "outputs": [
        {
          "internalType": "uint256",
          "name": "",
          "type": "uint256"
        }
      ],
      "payable": false,
      "stateMutability": "view",
      "type": "function"
    },
    {
      "constant": true,
      "inputs": [],
      "name": "minDeposit",
      "outputs": [
        {
          "internalType": "uint256",
          "name": "",
          "type": "uint256"
        }
      ],
      "payable": false,
      "stateMutability": "view",
      "type": "function"
    },
    {
      "constant": true,
      "inputs": [],
      "name": "validatorThreshold",
      "outputs": [
        {
          "internalType": "uint256",
          "name": "",
          "type": "uint256"
        }
      ],
      "payable": false,
      "stateMutability": "view",
      "type": "function"
    },
    {
      "constant": true,
      "inputs": [
        {
          "internalType": "uint256",
          "name": "",
          "type": "uint256"
        }
      ],
      "name": "validatorAuction",
      "outputs": [
        {
          "internalType": "uint256",
          "name": "amount",
          "type": "uint256"
        },
        {
          "internalType": "uint256",
          "name": "startEpoch",
          "type": "uint256"
        },
        {
          "internalType": "address",
          "name": "user",
          "type": "address"
        }
      ],
      "payable": false,
      "stateMutability": "view",
      "type": "function"
    },
    {
      "constant": true,
      "inputs": [],
      "name": "NFTCounter",
      "outputs": [
        {
          "internalType": "uint256",
          "name": "",
          "type": "uint256"
        }
      ],
      "payable": false,
      "stateMutability": "view",
      "type": "function"
    },
    {
      "constant": true,
      "inputs": [
        {
          "internalType": "uint256",
          "name": "",
          "type": "uint256"
        }
      ],
      "name": "validatorState",
      "outputs": [
        {
          "internalType": "int256",
          "name": "amount",
          "type": "int256"
        },
        {
          "internalType": "int256",
          "name": "stakerCount",
          "type": "int256"
        }
      ],
      "payable": false,
      "stateMutability": "view",
      "type": "function"
    },
    {
      "constant": true,
      "inputs": [],
      "name": "dynasty",
      "outputs": [
        {
          "internalType": "uint256",
          "name": "",
          "type": "uint256"
        }
      ],
      "payable": false,
      "stateMutability": "view",
      "type": "function"
    },
    {
      "constant": false,
      "inputs": [],
      "name": "renounceOwnership",
      "outputs": [],
      "payable": false,
      "stateMutability": "nonpayable",
      "type": "function"
    },
    {
      "constant": true,
      "inputs": [],
      "name": "currentEpoch",
      "outputs": [
        {
          "internalType": "uint256",
          "name": "",
          "type": "uint256"
        }
      ],
      "payable": false,
      "stateMutability": "view",
      "type": "function"
    },
    {
      "constant": true,
      "inputs": [],
      "name": "registry",
      "outputs": [
        {
          "internalType": "address",
          "name": "",
          "type": "address"
        }
      ],
      "payable": false,
      "stateMutability": "view",
      "type": "function"
    },
    {
      "constant": true,
      "inputs": [],
      "name": "CHECKPOINT_REWARD",
      "outputs": [
        {
          "internalType": "uint256",
          "name": "",
          "type": "uint256"
        }
      ],
      "payable": false,
      "stateMutability": "view",
      "type": "function"
    },
    {
      "constant": true,
      "inputs": [],
      "name": "totalStaked",
      "outputs": [
        {
          "internalType": "uint256",
          "name": "",
          "type": "uint256"
        }
      ],
      "payable": false,
      "stateMutability": "view",
      "type": "function"
    },
    {
      "constant": true,
      "inputs": [],
      "name": "owner",
      "outputs": [
        {
          "internalType": "address",
          "name": "",
          "type": "address"
        }
      ],
      "payable": false,
      "stateMutability": "view",
      "type": "function"
    },
    {
      "constant": true,
      "inputs": [],
      "name": "isOwner",
      "outputs": [
        {
          "internalType": "bool",
          "name": "",
          "type": "bool"
        }
      ],
      "payable": false,
      "stateMutability": "view",
      "type": "function"
    },
    {
      "constant": true,
      "inputs": [],
      "name": "rootChain",
      "outputs": [
        {
          "internalType": "address",
          "name": "",
          "type": "address"
        }
      ],
      "payable": false,
      "stateMutability": "view",
      "type": "function"
    },
    {
      "constant": true,
      "inputs": [],
      "name": "totalHeimdallFee",
      "outputs": [
        {
          "internalType": "uint256",
          "name": "",
          "type": "uint256"
        }
      ],
      "payable": false,
      "stateMutability": "view",
      "type": "function"
    },
    {
      "constant": false,
      "inputs": [],
      "name": "unlock",
      "outputs": [],
      "payable": false,
      "stateMutability": "nonpayable",
      "type": "function"
    },
    {
      "constant": true,
      "inputs": [],
      "name": "factory",
      "outputs": [
        {
          "internalType": "contract ValidatorShareFactory",
          "name": "",
          "type": "address"
        }
      ],
      "payable": false,
      "stateMutability": "view",
      "type": "function"
    },
    {
      "constant": true,
      "inputs": [],
      "name": "totalRewardsLiquidated",
      "outputs": [
        {
          "internalType": "uint256",
          "name": "",
          "type": "uint256"
        }
      ],
      "payable": false,
      "stateMutability": "view",
      "type": "function"
    },
    {
      "constant": true,
      "inputs": [],
      "name": "locked",
      "outputs": [
        {
          "internalType": "bool",
          "name": "",
          "type": "bool"
        }
      ],
      "payable": false,
      "stateMutability": "view",
      "type": "function"
    },
    {
      "constant": false,
      "inputs": [
        {
          "internalType": "address",
          "name": "newRootChain",
          "type": "address"
        }
      ],
      "name": "changeRootChain",
      "outputs": [],
      "payable": false,
      "stateMutability": "nonpayable",
      "type": "function"
    },
    {
      "constant": true,
      "inputs": [],
      "name": "logger",
      "outputs": [
        {
          "internalType": "contract StakingInfo",
          "name": "",
          "type": "address"
        }
      ],
      "payable": false,
      "stateMutability": "view",
      "type": "function"
    },
    {
      "constant": false,
      "inputs": [
        {
          "internalType": "address",
          "name": "newOwner",
          "type": "address"
        }
      ],
      "name": "transferOwnership",
      "outputs": [],
      "payable": false,
      "stateMutability": "nonpayable",
      "type": "function"
    },
    {
      "constant": false,
      "inputs": [],
      "name": "lock",
      "outputs": [],
      "payable": false,
      "stateMutability": "nonpayable",
      "type": "function"
    },
    {
      "constant": true,
      "inputs": [],
      "name": "minHeimdallFee",
      "outputs": [
        {
          "internalType": "uint256",
          "name": "",
          "type": "uint256"
        }
      ],
      "payable": false,
      "stateMutability": "view",
      "type": "function"
    },
    {
      "constant": true,
      "inputs": [],
      "name": "token",
      "outputs": [
        {
          "internalType": "contract IERC20",
          "name": "",
          "type": "address"
        }
      ],
      "payable": false,
      "stateMutability": "view",
      "type": "function"
    },
    {
      "inputs": [
        {
          "internalType": "address",
          "name": "_registry",
          "type": "address"
        },
        {
          "internalType": "address",
          "name": "_rootchain",
          "type": "address"
        },
        {
          "internalType": "address",
          "name": "_NFTContract",
          "type": "address"
        },
        {
          "internalType": "address",
          "name": "_stakingLogger",
          "type": "address"
        },
        {
          "internalType": "address",
          "name": "_ValidatorShareFactory",
          "type": "address"
        }
      ],
      "payable": false,
      "stateMutability": "nonpayable",
      "type": "constructor"
    },
    {
      "anonymous": false,
      "inputs": [
        {
          "indexed": true,
          "internalType": "address",
          "name": "previousRootChain",
          "type": "address"
        },
        {
          "indexed": true,
          "internalType": "address",
          "name": "newRootChain",
          "type": "address"
        }
      ],
      "name": "RootChainChanged",
      "type": "event"
    },
    {
      "anonymous": false,
      "inputs": [
        {
          "indexed": true,
          "internalType": "address",
          "name": "previousOwner",
          "type": "address"
        },
        {
          "indexed": true,
          "internalType": "address",
          "name": "newOwner",
          "type": "address"
        }
      ],
      "name": "OwnershipTransferred",
      "type": "event"
    },
    {
      "constant": false,
      "inputs": [
        {
          "internalType": "uint256",
          "name": "validatorId",
          "type": "uint256"
        },
        {
          "internalType": "uint256",
          "name": "heimdallFee",
          "type": "uint256"
        }
      ],
      "name": "topUpForFee",
      "outputs": [],
      "payable": false,
      "stateMutability": "nonpayable",
      "type": "function"
    },
    {
      "constant": true,
      "inputs": [
        {
          "internalType": "uint256",
          "name": "tokenId",
          "type": "uint256"
        }
      ],
      "name": "ownerOf",
      "outputs": [
        {
          "internalType": "address",
          "name": "",
          "type": "address"
        }
      ],
      "payable": false,
      "stateMutability": "view",
      "type": "function"
    },
    {
      "constant": false,
      "inputs": [
        {
          "internalType": "uint256",
          "name": "validatorId",
          "type": "uint256"
        },
        {
          "internalType": "uint256",
          "name": "accumSlashedAmount",
          "type": "uint256"
        },
        {
          "internalType": "uint256",
          "name": "amount",
          "type": "uint256"
        },
        {
          "internalType": "uint256",
          "name": "index",
          "type": "uint256"
        },
        {
          "internalType": "bytes",
          "name": "proof",
          "type": "bytes"
        }
      ],
      "name": "claimFee",
      "outputs": [],
      "payable": false,
      "stateMutability": "nonpayable",
      "type": "function"
    },
    {
      "constant": false,
      "inputs": [
        {
          "internalType": "uint256",
          "name": "amount",
          "type": "uint256"
        },
        {
          "internalType": "uint256",
          "name": "heimdallFee",
          "type": "uint256"
        },
        {
          "internalType": "address",
          "name": "signer",
          "type": "address"
        },
        {
          "internalType": "bool",
          "name": "acceptDelegation",
          "type": "bool"
        }
      ],
      "name": "stake",
      "outputs": [],
      "payable": false,
      "stateMutability": "nonpayable",
      "type": "function"
    },
    {
      "constant": true,
      "inputs": [
        {
          "internalType": "address",
          "name": "user",
          "type": "address"
        }
      ],
      "name": "totalStakedFor",
      "outputs": [
        {
          "internalType": "uint256",
          "name": "",
          "type": "uint256"
        }
      ],
      "payable": false,
      "stateMutability": "view",
      "type": "function"
    },
    {
      "constant": true,
      "inputs": [],
      "name": "supportsHistory",
      "outputs": [
        {
          "internalType": "bool",
          "name": "",
          "type": "bool"
        }
      ],
      "payable": false,
      "stateMutability": "pure",
      "type": "function"
    },
    {
      "constant": false,
      "inputs": [
        {
          "internalType": "uint256",
          "name": "validatorId",
          "type": "uint256"
        },
        {
          "internalType": "uint256",
          "name": "amount",
          "type": "uint256"
        }
      ],
      "name": "startAuction",
      "outputs": [],
      "payable": false,
      "stateMutability": "nonpayable",
      "type": "function"
    },
    {
      "constant": false,
      "inputs": [
        {
          "internalType": "uint256",
          "name": "validatorId",
          "type": "uint256"
        },
        {
          "internalType": "uint256",
          "name": "heimdallFee",
          "type": "uint256"
        },
        {
          "internalType": "address",
          "name": "signer",
          "type": "address"
        },
        {
          "internalType": "bool",
          "name": "acceptDelegation",
          "type": "bool"
        }
      ],
      "name": "confirmAuctionBid",
      "outputs": [],
      "payable": false,
      "stateMutability": "nonpayable",
      "type": "function"
    },
    {
      "constant": false,
      "inputs": [
        {
          "internalType": "uint256",
          "name": "validatorId",
          "type": "uint256"
        }
      ],
      "name": "unstake",
      "outputs": [],
      "payable": false,
      "stateMutability": "nonpayable",
      "type": "function"
    },
    {
      "constant": false,
      "inputs": [
        {
          "internalType": "uint256",
          "name": "validatorId",
          "type": "uint256"
        }
      ],
      "name": "forceUnstake",
      "outputs": [],
      "payable": false,
      "stateMutability": "nonpayable",
      "type": "function"
    },
    {
      "constant": false,
      "inputs": [
        {
          "internalType": "uint256",
          "name": "validatorId",
          "type": "uint256"
        },
        {
          "internalType": "uint256",
          "name": "amount",
          "type": "uint256"
        },
        {
          "internalType": "address",
          "name": "delegator",
          "type": "address"
        }
      ],
      "name": "delegationTransfer",
      "outputs": [
        {
          "internalType": "bool",
          "name": "",
          "type": "bool"
        }
      ],
      "payable": false,
      "stateMutability": "nonpayable",
      "type": "function"
    },
    {
      "constant": false,
      "inputs": [
        {
          "internalType": "uint256",
          "name": "validatorId",
          "type": "uint256"
        },
        {
          "internalType": "uint256",
          "name": "amount",
          "type": "uint256"
        },
        {
          "internalType": "address",
          "name": "delegator",
          "type": "address"
        }
      ],
      "name": "delegationDeposit",
      "outputs": [
        {
          "internalType": "bool",
          "name": "",
          "type": "bool"
        }
      ],
      "payable": false,
      "stateMutability": "nonpayable",
      "type": "function"
    },
    {
      "constant": false,
      "inputs": [
        {
          "internalType": "address",
          "name": "user",
          "type": "address"
        },
        {
          "internalType": "uint256",
          "name": "amount",
          "type": "uint256"
        },
        {
          "internalType": "uint256",
          "name": "heimdallFee",
          "type": "uint256"
        },
        {
          "internalType": "address",
          "name": "signer",
          "type": "address"
        },
        {
          "internalType": "bool",
          "name": "acceptDelegation",
          "type": "bool"
        }
      ],
      "name": "stakeFor",
      "outputs": [],
      "payable": false,
      "stateMutability": "nonpayable",
      "type": "function"
    },
    {
      "constant": true,
      "inputs": [
        {
          "internalType": "uint256",
          "name": "validatorId",
          "type": "uint256"
        }
      ],
      "name": "perceivedStakeFactor",
      "outputs": [
        {
          "internalType": "uint256",
          "name": "",
          "type": "uint256"
        }
      ],
      "payable": false,
      "stateMutability": "view",
      "type": "function"
    },
    {
      "constant": false,
      "inputs": [
        {
          "internalType": "uint256",
          "name": "validatorId",
          "type": "uint256"
        }
      ],
      "name": "unstakeClaim",
      "outputs": [],
      "payable": false,
      "stateMutability": "nonpayable",
      "type": "function"
    },
    {
      "constant": false,
      "inputs": [
        {
          "internalType": "uint256",
          "name": "validatorId",
          "type": "uint256"
        },
        {
          "internalType": "uint256",
          "name": "amount",
          "type": "uint256"
        },
        {
          "internalType": "bool",
          "name": "stakeRewards",
          "type": "bool"
        }
      ],
      "name": "restake",
      "outputs": [],
      "payable": false,
      "stateMutability": "nonpayable",
      "type": "function"
    },
    {
      "constant": false,
      "inputs": [
        {
          "internalType": "uint256",
          "name": "validatorId",
          "type": "uint256"
        }
      ],
      "name": "withdrawRewards",
      "outputs": [],
      "payable": false,
      "stateMutability": "nonpayable",
      "type": "function"
    },
    {
      "constant": false,
      "inputs": [
        {
          "internalType": "uint256",
          "name": "validatorId",
          "type": "uint256"
        },
        {
          "internalType": "uint256",
          "name": "slashingRate",
          "type": "uint256"
        },
        {
          "internalType": "uint256",
          "name": "jailCheckpoints",
          "type": "uint256"
        }
      ],
      "name": "slash",
      "outputs": [],
      "payable": false,
      "stateMutability": "nonpayable",
      "type": "function"
    },
    {
      "constant": false,
      "inputs": [
        {
          "internalType": "uint256",
          "name": "validatorId",
          "type": "uint256"
        }
      ],
      "name": "unJail",
      "outputs": [],
      "payable": false,
      "stateMutability": "nonpayable",
      "type": "function"
    },
    {
      "constant": false,
      "inputs": [
        {
          "internalType": "uint256",
          "name": "validatorId",
          "type": "uint256"
        },
        {
          "internalType": "uint256",
          "name": "jailCheckpoints",
          "type": "uint256"
        }
      ],
      "name": "jail",
      "outputs": [],
      "payable": false,
      "stateMutability": "nonpayable",
      "type": "function"
    },
    {
      "constant": true,
      "inputs": [],
      "name": "getCurrentValidatorSet",
      "outputs": [
        {
          "internalType": "uint256[]",
          "name": "",
          "type": "uint256[]"
        }
      ],
      "payable": false,
      "stateMutability": "view",
      "type": "function"
    },
    {
      "constant": true,
      "inputs": [
        {
          "internalType": "address",
          "name": "user",
          "type": "address"
        }
      ],
      "name": "getValidatorId",
      "outputs": [
        {
          "internalType": "uint256",
          "name": "",
          "type": "uint256"
        }
      ],
      "payable": false,
      "stateMutability": "view",
      "type": "function"
    },
    {
      "constant": false,
      "inputs": [
        {
          "internalType": "address",
          "name": "_token",
          "type": "address"
        }
      ],
      "name": "setToken",
      "outputs": [],
      "payable": false,
      "stateMutability": "nonpayable",
      "type": "function"
    },
    {
      "constant": false,
      "inputs": [
        {
          "internalType": "uint256",
          "name": "newThreshold",
          "type": "uint256"
        }
      ],
      "name": "updateValidatorThreshold",
      "outputs": [],
      "payable": false,
      "stateMutability": "nonpayable",
      "type": "function"
    },
    {
      "constant": false,
      "inputs": [
        {
          "internalType": "uint256",
          "name": "_blocks",
          "type": "uint256"
        }
      ],
      "name": "updateCheckPointBlockInterval",
      "outputs": [],
      "payable": false,
      "stateMutability": "nonpayable",
      "type": "function"
    },
    {
      "constant": false,
      "inputs": [
        {
          "internalType": "uint256",
          "name": "newReward",
          "type": "uint256"
        }
      ],
      "name": "updateCheckpointReward",
      "outputs": [],
      "payable": false,
      "stateMutability": "nonpayable",
      "type": "function"
    },
    {
      "constant": false,
      "inputs": [
        {
          "internalType": "uint256",
          "name": "validatorId",
          "type": "uint256"
        },
        {
          "internalType": "int256",
          "name": "amount",
          "type": "int256"
        }
      ],
      "name": "updateValidatorState",
      "outputs": [],
      "payable": false,
      "stateMutability": "nonpayable",
      "type": "function"
    },
    {
      "constant": false,
      "inputs": [
        {
          "internalType": "uint256",
          "name": "newDynasty",
          "type": "uint256"
        }
      ],
      "name": "updateDynastyValue",
      "outputs": [],
      "payable": false,
      "stateMutability": "nonpayable",
      "type": "function"
    },
    {
      "constant": false,
      "inputs": [
        {
          "internalType": "uint256",
          "name": "_minDeposit",
          "type": "uint256"
        },
        {
          "internalType": "uint256",
          "name": "_minHeimdallFee",
          "type": "uint256"
        }
      ],
      "name": "updateMinAmounts",
      "outputs": [],
      "payable": false,
      "stateMutability": "nonpayable",
      "type": "function"
    },
    {
      "constant": false,
      "inputs": [
        {
          "internalType": "uint256",
          "name": "validatorId",
          "type": "uint256"
        },
        {
          "internalType": "address",
          "name": "_signer",
          "type": "address"
        }
      ],
      "name": "updateSigner",
      "outputs": [],
      "payable": false,
      "stateMutability": "nonpayable",
      "type": "function"
    },
    {
      "constant": true,
      "inputs": [],
      "name": "currentValidatorSetSize",
      "outputs": [
        {
          "internalType": "uint256",
          "name": "",
          "type": "uint256"
        }
      ],
      "payable": false,
      "stateMutability": "view",
      "type": "function"
    },
    {
      "constant": true,
      "inputs": [],
      "name": "currentValidatorSetTotalStake",
      "outputs": [
        {
          "internalType": "uint256",
          "name": "",
          "type": "uint256"
        }
      ],
      "payable": false,
      "stateMutability": "view",
      "type": "function"
    },
    {
      "constant": true,
      "inputs": [
        {
          "internalType": "uint256",
          "name": "validatorId",
          "type": "uint256"
        }
      ],
      "name": "getValidatorContract",
      "outputs": [
        {
          "internalType": "address",
          "name": "",
          "type": "address"
        }
      ],
      "payable": false,
      "stateMutability": "view",
      "type": "function"
    },
    {
      "constant": true,
      "inputs": [
        {
          "internalType": "uint256",
          "name": "validatorId",
          "type": "uint256"
        }
      ],
      "name": "isValidator",
      "outputs": [
        {
          "internalType": "bool",
          "name": "",
          "type": "bool"
        }
      ],
      "payable": false,
      "stateMutability": "view",
      "type": "function"
    },
    {
      "constant": false,
      "inputs": [
        {
          "internalType": "uint256",
          "name": "blockInterval",
          "type": "uint256"
        },
        {
          "internalType": "bytes32",
          "name": "voteHash",
          "type": "bytes32"
        },
        {
          "internalType": "bytes32",
          "name": "stateRoot",
          "type": "bytes32"
        },
        {
          "internalType": "bytes",
          "name": "sigs",
          "type": "bytes"
        }
      ],
      "name": "checkSignatures",
      "outputs": [
        {
          "internalType": "uint256",
          "name": "",
          "type": "uint256"
        }
      ],
      "payable": false,
      "stateMutability": "nonpayable",
      "type": "function"
    },
    {
      "constant": false,
      "inputs": [
        {
          "internalType": "bytes",
          "name": "checkpointTx",
          "type": "bytes"
        }
      ],
      "name": "challangeStateRootUpdate",
      "outputs": [],
      "payable": false,
      "stateMutability": "nonpayable",
      "type": "function"
    }
  ],
  "bytecode": "0x608060405261200060005560018055612000600a5569021e19e0c9bab2400000600b55670de0b6b3a7640000600c55670de0b6b3a7640000600d5560ff600e55600a600f556001601155620000666004600a546200016c60201b62003b911790919060201c565b6014553480156200007657600080fd5b506040516200461938038062004619833981810160405260a08110156200009c57600080fd5b50805160208201516040808401516060850151608090950151600380546001600160a01b03191633179081905592519495939491939290916001600160a01b0391909116906000907f8be0079c531659141344cd1fd0a4f28419497f9722a3daafe3b4186f6b6457e0908290a3600680546001600160a01b03199081166001600160a01b0397881617909155600480548216958716959095179094556008805485169386169390931790925560078054841691851691909117905560098054909216921691909117905562000190565b60008082116200017b57600080fd5b60008284816200018757fe5b04949350505050565b61447980620001a06000396000f3fe608060405234801561001057600080fd5b50600436106104075760003560e01c806376324ea511610220578063a476907111610130578063d2203766116100b8578063f24ccbfe11610087578063f24ccbfe14610d27578063f2fde38b14610d2f578063f83d08ba14610d55578063fba58f3414610d5d578063fc0c546a14610d6557610407565b8063d220376614610ca4578063d86d53e714610cc7578063e6692f4914610ce4578063e8afa8e814610d0157610407565b8063c344e766116100ff578063c344e76614610bb1578063c45a015514610c6f578063cbf383d514610c77578063cd6b838814610c94578063cf30901214610c9c57610407565b8063a476907114610b5b578063a69df4b514610b63578063ac58629214610b6b578063b1d23f0214610b8e57610407565b80638da5cb5b116101b35780639342c8f4116101825780639342c8f414610aee578063987ab9db14610b0b5780639a8a624314610b135780639ff1150014610b1b578063a440ab1e14610b3e57610407565b80638da5cb5b14610a955780638f283a8614610a9d5780638f32d59b14610ac95780639146014914610ad157610407565b80637d669752116101ef5780637d669752146109d75780637f5da718146109df5780637f952d9514610a85578063817b1cd214610a8d57610407565b806376324ea514610949578063766718081461098d5780637b103999146109955780637d4bd6081461099d57610407565b80633d02455b1161031b57806356342d8c116102ae5780636901b2531161027d5780636901b253146108d65780636cbb6050146109085780637033e4a6146109315780637060054d14610939578063715018a61461094157610407565b806356342d8c146107ad5780635aac52f5146107ca5780635c248855146108835780636352211e146108b957610407565b80634fd101d7116102ea5780634fd101d7146107365780634fee13fc1461073e5780635325e144146107615780635508d8e1146107a557610407565b80633d02455b146106b957806341b3d185146106d65780634777fb42146106de5780634b341aed1461071057610407565b806317c2b9101161039e5780632e17de781161036d5780632e17de781461059f57806331c2273b146105bc578063357e6ff8146105e057806335aa2e44146105fd5780633862da0b1461069357610407565b806317c2b91014610533578063253164111461053b5780632649263a1461054357806328cc4e411461057457610407565b80630ebb172a116103da5780630ebb172a146104c2578063144fa6d7146104ca57806316827b1b146104f0578063174e68321461050d57610407565b80630209fdd01461040c57806306254a9c146104645780630cccfc58146104a05780630e15561a146104ba575b600080fd5b610414610d6d565b60408051602080825283518183015283519192839290830191858101910280838360005b83811015610450578181015183820152602001610438565b505050509050019250505060405180910390f35b61049e6004803603608081101561047a57600080fd5b508035906020810135906001600160a01b0360408201351690606001351515610ede565b005b6104a8610ef1565b60408051918252519081900360200190f35b6104a8610ef7565b6104a8610efd565b61049e600480360360208110156104e057600080fd5b50356001600160a01b0316610f03565b61049e6004803603602081101561050657600080fd5b5035610f49565b6104a86004803603602081101561052357600080fd5b50356001600160a01b0316610fde565b6104a8611068565b6104a861106e565b6105606004803603602081101561055957600080fd5b5035611074565b604080519115158252519081900360200190f35b61049e6004803603606081101561058a57600080fd5b50803590602081013590604001351515611130565b61049e600480360360208110156105b557600080fd5b503561142e565b6105c46115b2565b604080516001600160a01b039092168252519081900360200190f35b6104a8600480360360208110156105f657600080fd5b50356115c1565b61061a6004803603602081101561061357600080fd5b50356115c7565b60405180898152602001888152602001878152602001868152602001858152602001846001600160a01b03166001600160a01b03168152602001836001600160a01b03166001600160a01b0316815260200182600381111561067857fe5b60ff1681526020019850505050505050505060405180910390f35b6104a8600480360360208110156106a957600080fd5b50356001600160a01b031661161d565b61049e600480360360208110156106cf57600080fd5b503561162f565b6104a86118a1565b610560600480360360608110156106f457600080fd5b50803590602081013590604001356001600160a01b03166118a7565b6104a86004803603602081101561072657600080fd5b50356001600160a01b0316611957565b6104a8611a8e565b61049e6004803603604081101561075457600080fd5b5080359060200135611a94565b61077e6004803603602081101561077757600080fd5b5035611f17565b6040805193845260208401929092526001600160a01b031682820152519081900360600190f35b6104a8611f41565b6105c4600480360360208110156107c357600080fd5b5035611f47565b6104a8600480360360808110156107e057600080fd5b8135916020810135916040820135919081019060808101606082013564010000000081111561080e57600080fd5b82018360208201111561082057600080fd5b8035906020019184600183028401116401000000008311171561084257600080fd5b91908080601f016020809104026020016040519081016040528093929190818152602001838380828437600092019190915250929550611f65945050505050565b6108a06004803603602081101561089957600080fd5b5035611fe8565b6040805192835260208301919091528051918290030190f35b6105c4600480360360208110156108cf57600080fd5b5035612001565b610560600480360360608110156108ec57600080fd5b50803590602081013590604001356001600160a01b031661204d565b61049e6004803603606081101561091e57600080fd5b50803590602081013590604001356120cf565b610560612216565b6104a861221b565b61049e612221565b61049e600480360360a081101561095f57600080fd5b506001600160a01b03813581169160208101359160408201359160608101359091169060800135151561227c565b6104a86123f8565b6105c46123fe565b61049e600480360360808110156109b357600080fd5b508035906020810135906001600160a01b036040820135169060600135151561240d565b6104a86128b1565b61049e600480360360208110156109f557600080fd5b810190602081018135640100000000811115610a1057600080fd5b820183602082011115610a2257600080fd5b80359060200191846001830284011164010000000083111715610a4457600080fd5b91908080601f0160208091040260200160405190810160405280939291908181526020018383808284376000920191909152509295506128b7945050505050565b6104a86128ba565b6104a86128d1565b6105c46128d7565b61049e60048036036040811015610ab357600080fd5b50803590602001356001600160a01b03166128e6565b610560612a82565b61049e60048036036020811015610ae757600080fd5b5035612a93565b61049e60048036036020811015610b0457600080fd5b5035612ab0565b6105c4612d2f565b6104a8612d3e565b61049e60048036036040811015610b3157600080fd5b5080359060200135612d44565b61049e60048036036020811015610b5457600080fd5b5035612d85565b6104a8612df0565b61049e612e05565b61049e60048036036040811015610b8157600080fd5b5080359060200135612e25565b61049e60048036036040811015610ba457600080fd5b5080359060200135612f59565b61049e600480360360a0811015610bc757600080fd5b81359160208101359160408201359160608101359181019060a081016080820135640100000000811115610bfa57600080fd5b820183602082011115610c0c57600080fd5b80359060200191846001830284011164010000000083111715610c2e57600080fd5b91908080601f016020809104026020016040519081016040528093929190818152602001838380828437600092019190915250929550612f75945050505050565b6105c4613209565b61049e60048036036020811015610c8d57600080fd5b5035613218565b6104a86132ad565b6105606132b3565b61049e60048036036040811015610cba57600080fd5b50803590602001356132c3565b61049e60048036036020811015610cdd57600080fd5b50356134a5565b61049e60048036036020811015610cfa57600080fd5b50356137d0565b61049e60048036036020811015610d1757600080fd5b50356001600160a01b0316613895565b6105c4613915565b61049e60048036036020811015610d4557600080fd5b50356001600160a01b0316613924565b61049e61393e565b6104a8613964565b6105c461396a565b606080600f54604051908082528060200260200182016040528015610d9c578160200160208202803883390190505b509050600080805b600860009054906101000a90046001600160a01b03166001600160a01b03166318160ddd6040518163ffffffff1660e01b815260040160206040518083038186803b158015610df257600080fd5b505afa158015610e06573d6000803e3d6000fd5b505050506040513d6020811015610e1c57600080fd5b5051811015610ed55760085460408051634f6ccce760e01b81526004810184905290516001600160a01b0390921691634f6ccce791602480820192602092909190829003018186803b158015610e7157600080fd5b505afa158015610e85573d6000803e3d6000fd5b505050506040513d6020811015610e9b57600080fd5b50519250610ea883611074565b15610ecd5782848380600101945081518110610ec057fe5b6020026020010181815250505b600101610da4565b50919250505090565b610eeb338585858561227c565b50505050565b60145481565b60125481565b60005481565b610f0b612a82565b610f1457600080fd5b6001600160a01b038116610f2757600080fd5b600580546001600160a01b0319166001600160a01b0392909216919091179055565b610f51612a82565b610f5a57600080fd5b60008111610f6757600080fd5b600754600f5460408051630f1980a560e41b8152600481018590526024810192909252516001600160a01b039092169163f1980a509160448082019260009290919082900301818387803b158015610fbe57600080fd5b505af1158015610fd2573d6000803e3d6000fd5b505050600f9190915550565b60085460408051632f745c5960e01b81526001600160a01b038481166004830152600060248301819052925192931691632f745c5991604480820192602092909190829003018186803b15801561103457600080fd5b505afa158015611048573d6000803e3d6000fd5b505050506040513d602081101561105e57600080fd5b505190505b919050565b60155481565b600e5481565b600081815260026020526040812054158015906110c1575060008281526002602081905260409091200154158015906110c157506001546000838152600260208190526040909120015411155b80156110f8575060008281526002602052604090206003015415806110f85750600154600083815260026020526040902060030154115b801561112a57506001600083815260026020526040902060060154600160a01b900460ff16600381111561112857fe5b145b92915050565b600854604080516331a9108f60e11b8152600481018690529051859233926001600160a01b0390911691636352211e91602480820192602092909190829003018186803b15801561118057600080fd5b505afa158015611194573d6000803e3d6000fd5b505050506040513d60208110156111aa57600080fd5b50516001600160a01b0316146111bf57600080fd5b6001546000858152600260205260409020600301541061121c576040805162461bcd60e51b81526020600482015260136024820152724e6f20757365206f662072657374616b696e6760681b604482015290519081900360640190fd5b82156112ea57600554604080516323b872dd60e01b81523360048201523060248201526044810186905290516001600160a01b03909216916323b872dd916064808201926020929091908290030181600087803b15801561127c57600080fd5b505af1158015611290573d6000803e3d6000fd5b505050506040513d60208110156112a657600080fd5b50516112ea576040805162461bcd60e51b815260206004820152600e60248201526d5472616e73666572207374616b6560901b604482015290519081900360640190fd5b811561130c576000848152600260205260408120600101805491905592909201915b60105461131f908463ffffffff61397916565b601055600084815260026020908152604080832080548701905560015483526018909152808220805486019055600754815163532e19a960e01b81526004810188905291516001600160a01b039091169263532e19a9926024808201939182900301818387803b15801561139257600080fd5b505af11580156113a6573d6000803e3d6000fd5b505060075460008781526002602052604080822054601054825163242c1b9960e01b8152600481018c90526024810192909252604482015290516001600160a01b03909316945063242c1b9993506064808201939182900301818387803b15801561141057600080fd5b505af1158015611424573d6000803e3d6000fd5b5050505050505050565b600854604080516331a9108f60e11b8152600481018490529051839233926001600160a01b0390911691636352211e91602480820192602092909190829003018186803b15801561147e57600080fd5b505afa158015611492573d6000803e3d6000fd5b505050506040513d60208110156114a857600080fd5b50516001600160a01b0316146114bd57600080fd5b6000828152601960205260409020541561151e576040805162461bcd60e51b815260206004820152601b60248201527f5761697420666f722061756374696f6e20636f6d706c6574696f6e0000000000604482015290519081900360640190fd5b60006115356001805461397990919063ffffffff16565b60008481526002602081905260409091200154909150158015906115685750600083815260026020526040902060030154155b801561159a57506001600084815260026020526040902060060154600160a01b900460ff16600381111561159857fe5b145b6115a357600080fd5b6115ad8382613992565b505050565b6008546001600160a01b031681565b50600190565b600260208190526000918252604090912080546001820154928201546003830154600484015460058501546006909501549395949293919290916001600160a01b0391821691811690600160a01b900460ff1688565b60176020526000908152604090205481565b600854604080516331a9108f60e11b8152600481018490529051839233926001600160a01b0390911691636352211e91602480820192602092909190829003018186803b15801561167f57600080fd5b505afa158015611693573d6000803e3d6000fd5b505050506040513d60208110156116a957600080fd5b50516001600160a01b0316146116be57600080fd5b6001546000838152600260205260409020600301541180156116f3575060015460008381526002602052604090206004015411155b801561172557506002600083815260026020526040902060060154600160a01b900460ff16600381111561172357fe5b145b61172e57600080fd5b600082815260026020526040902054600c5481101561174c57600080fd5b600083815260026020526040812060038101546006909101549091906001600160a01b03161561185f57600085815260026020908152604091829020600601548251630e826fd160e21b815292516001600160a01b0390911692633a09bf44926004808301939192829003018186803b1580156117c857600080fd5b505afa1580156117dc573d6000803e3d6000fd5b505050506040513d60208110156117f257600080fd5b505160008681526002602052604080822060060154815163a69df4b560e01b815291519394506001600160a01b03169263a69df4b59260048084019391929182900301818387803b15801561184657600080fd5b505af115801561185a573d6000803e3d6000fd5b505050505b61186d828285016001613b1c565b5050506000918252506002602052604081206003810182905560068101805460ff60a01b1916600160a01b17905560040155565b600c5481565b6000838152600260205260408120600601546001600160a01b031633146118cd57600080fd5b6005546040805163a9059cbb60e01b81526001600160a01b038581166004830152602482018790529151919092169163a9059cbb9160448083019260209291908290030181600087803b15801561192357600080fd5b505af1158015611937573d6000803e3d6000fd5b505050506040513d602081101561194d57600080fd5b5051949350505050565b60006001600160a01b03821615806119e55750600854604080516370a0823160e01b81526001600160a01b038581166004830152915191909216916370a08231916024808301926020929190829003018186803b1580156119b757600080fd5b505afa1580156119cb573d6000803e3d6000fd5b505050506040513d60208110156119e157600080fd5b5051155b156119f257506000611063565b60085460408051632f745c5960e01b81526001600160a01b03858116600483015260006024830181905292516002949190911691632f745c59916044808301926020929190829003018186803b158015611a4b57600080fd5b505afa158015611a5f573d6000803e3d6000fd5b505050506040513d6020811015611a7557600080fd5b5051815260208101919091526040016000205492915050565b600f5481565b611a9d82611074565b611aa657600080fd5b6016541580611ab9575060015460165411155b611afd576040805162461bcd60e51b815260206004820152601060248201526f10dbdbdb08191bdddb881c195c9a5bd960821b604482015290519081900360640190fd5b60008281526019602052604090206001908101549054611b229163ffffffff613b3e16565b6014541015611b71576040805162461bcd60e51b8152602060048201526016602482015275125b9d985b1a5908185d58dd1a5bdb881c195c9a5bd960521b604482015290519081900360640190fd5b600a54601454611b8890829063ffffffff61397916565b60008481526002602081905260409091200154600154611bad9163ffffffff613b3e16565b81611bb457fe5b0611611bfd576040805162461bcd60e51b81526020600482015260136024820152724e6f7420616e2061756374696f6e2074696d6560681b604482015290519081900360640190fd5b600554604080516323b872dd60e01b81523360048201523060248201526044810184905290516001600160a01b03909216916323b872dd916064808201926020929091908290030181600087803b158015611c5757600080fd5b505af1158015611c6b573d6000803e3d6000fd5b505050506040513d6020811015611c8157600080fd5b5051611ccd576040805162461bcd60e51b8152602060048201526016602482015275151c985b9cd9995c88185b5bdd5b9d0819985a5b195960521b604482015290519081900360640190fd5b6000611cf6611cdb846115c1565b6000858152600260205260409020549063ffffffff613b5316565b600084815260196020526040902054909150611d13908290613b7a565b9050818110611d62576040805162461bcd60e51b8152602060048201526016602482015275135d5cdd08189a59081a1a59da195c88185b5bdd5b9d60521b604482015290519081900360640190fd5b600083815260196020526040902054611dd4576040805160608101825283815260018054602080840191825233848601908152600089815260199092529490209251835551908201559051600290910180546001600160a01b0319166001600160a01b03909216919091179055611e8b565b600083815260196020908152604080832060055460028201548254845163a9059cbb60e01b81526001600160a01b03928316600482015260248101919091529351929591169363a9059cbb936044808201949293918390030190829087803b158015611e3f57600080fd5b505af1158015611e53573d6000803e3d6000fd5b505050506040513d6020811015611e6957600080fd5b5051611e7457600080fd5b82815560020180546001600160a01b031916331790555b6007546000848152600260209081526040808320546019909252808320548151630934a6df60e01b81526004810189905260248101939093526044830152516001600160a01b0390931692630934a6df9260648084019391929182900301818387803b158015611efa57600080fd5b505af1158015611f0e573d6000803e3d6000fd5b50505050505050565b6019602052600090815260409020805460018201546002909201549091906001600160a01b031683565b60115481565b6000908152600260205260409020600601546001600160a01b031690565b6004546000906001600160a01b03163314611f7f57600080fd5b6000611fa8600e54611f9c600b5489613b5390919063ffffffff16565b9063ffffffff613b9116565b9050611fb6600b5482613bb3565b90506000611fc2612df0565b60158690559050611fd1613bc2565b611fdd81838887613c1f565b979650505050505050565b6018602052600090815260409020805460019091015482565b600854604080516331a9108f60e11b81526004810184905290516000926001600160a01b031691636352211e916024808301926020929190829003018186803b15801561103457600080fd5b6000838152600260205260408120600601546001600160a01b0316331461207357600080fd5b600554604080516323b872dd60e01b81526001600160a01b03858116600483015230602483015260448201879052915191909216916323b872dd9160648083019260209291908290030181600087803b15801561192357600080fd5b60065460408051631ab0168360e31b8152905133926001600160a01b03169163d580b418916004808301926020929190829003018186803b15801561211357600080fd5b505afa158015612127573d6000803e3d6000fd5b505050506040513d602081101561213d57600080fd5b50516001600160a01b03161461215257600080fd5b60008381526002602052604081205461217890606490611f9c908663ffffffff613b5316565b60008581526002602052604090205490915061219a908263ffffffff613b3e16565b6000858152600260205260409020819055600c5411806121ba5750600082115b156121c9576121c984836132c3565b6007546040805163532e19a960e01b81526004810187905290516001600160a01b039092169163532e19a99160248082019260009290919082900301818387803b15801561141057600080fd5b600090565b600a5481565b612229612a82565b61223257600080fd5b6003546040516000916001600160a01b0316907f8be0079c531659141344cd1fd0a4f28419497f9722a3daafe3b4186f6b6457e0908390a3600380546001600160a01b0319169055565b600454600160a01b900460ff161561229357600080fd5b600f5461229e6128ba565b106122a857600080fd5b600c5484116122b657600080fd5b6001600160a01b038216600090815260176020526040902054156122d957600080fd5b6005546001600160a01b03166323b872dd33306122fc888863ffffffff61397916565b6040518463ffffffff1660e01b815260040180846001600160a01b03166001600160a01b03168152602001836001600160a01b03166001600160a01b031681526020018281526020019350505050602060405180830381600087803b15801561236457600080fd5b505af1158015612378573d6000803e3d6000fd5b505050506040513d602081101561238e57600080fd5b50516123d9576040805162461bcd60e51b8152602060048201526015602482015274151c985b9cd9995c881cdd185ad94819985a5b1959605a1b604482015290519081900360640190fd5b6123e560115484613f2b565b6123f185858484613fa9565b5050505050565b60015481565b6006546001600160a01b031681565b600454600160a01b900460ff161561242457600080fd5b6000848152601960209081526040808320600290925290912060018054908301546014546124579163ffffffff61397916565b11156124945760405162461bcd60e51b81526004018080602001828103825260308152602001806144156030913960400191505060405180910390fd5b600854604080516331a9108f60e11b81526004810189905290516001600160a01b0390921691636352211e91602480820192602092909190829003018186803b1580156124e057600080fd5b505afa1580156124f4573d6000803e3d6000fd5b505050506040513d602081101561250a57600080fd5b505160028301546001600160a01b03908116911614156126f257805460055460028401546040805163a9059cbb60e01b81526001600160a01b039283166004820152602481018590529051919092169163a9059cbb9160448083019260209291908290030181600087803b15801561258157600080fd5b505af1158015612595573d6000803e3d6000fd5b505050506040513d60208110156125ab57600080fd5b50516125b657600080fd5b82548255600083556002830180546001600160a01b0319169055600a546001546125e59163ffffffff61397916565b6001840155815461260f90612600908363ffffffff613b3e16565b6010549063ffffffff61397916565b6010556007546040805163532e19a960e01b8152600481018a905290516001600160a01b039092169163532e19a99160248082019260009290919082900301818387803b15801561265f57600080fd5b505af1158015612673573d6000803e3d6000fd5b505060075484546040805163e12ab1af60e01b8152600481018d9052602481018d90526044810192909252516001600160a01b03909216935063e12ab1af925060648082019260009290919082900301818387803b1580156126d457600080fd5b505af11580156126e8573d6000803e3d6000fd5b50505050506128a9565b6126fe86600154613992565b600554604080516323b872dd60e01b81523360048201523060248201526044810188905290516001600160a01b03909216916323b872dd916064808201926020929091908290030181600087803b15801561275857600080fd5b505af115801561276c573d6000803e3d6000fd5b505050506040513d602081101561278257600080fd5b50516127cb576040805162461bcd60e51b8152602060048201526013602482015272151c985b9cd9995c881999594819985a5b1959606a1b604482015290519081900360640190fd5b6127d760115486613f2b565b600282015482546127f3916001600160a01b0316908686613fa9565b6007546011546001600160a01b039091169063e12ab1af9061281c90600163ffffffff613b3e16565b8885600001546040518463ffffffff1660e01b8152600401808481526020018381526020018281526020019350505050600060405180830381600087803b15801561286657600080fd5b505af115801561287a573d6000803e3d6000fd5b5050506000878152601960205260408120818155600181019190915560020180546001600160a01b0319169055505b505050505050565b600b5481565b50565b600180546000908152601860205260409020015490565b60105481565b6003546001600160a01b031690565b600854604080516331a9108f60e11b8152600481018590529051849233926001600160a01b0390911691636352211e91602480820192602092909190829003018186803b15801561293657600080fd5b505afa15801561294a573d6000803e3d6000fd5b505050506040513d602081101561296057600080fd5b50516001600160a01b03161461297557600080fd5b6001600160a01b038216158015906129a357506001600160a01b038216600090815260176020526040902054155b6129ac57600080fd5b600754600084815260026020526040808220600501548151632682023960e21b8152600481018890526001600160a01b03918216602482015286821660448201529151931692639a0808e49260648084019391929182900301818387803b158015612a1657600080fd5b505af1158015612a2a573d6000803e3d6000fd5b505050600084815260026020818152604080842060050180546001600160a01b0390811686526017845282862086905597909716808552908420889055969092529052505080546001600160a01b0319169091179055565b6003546001600160a01b0316331490565b612a9b612a82565b612aa457600080fd5b6128b781600154613992565b600854604080516331a9108f60e11b8152600481018490529051839233926001600160a01b0390911691636352211e91602480820192602092909190829003018186803b158015612b0057600080fd5b505afa158015612b14573d6000803e3d6000fd5b505050506040513d6020811015612b2a57600080fd5b50516001600160a01b031614612b3f57600080fd5b600082815260026020526040902060018101546006909101546001600160a01b03168015612be157612bde816001600160a01b03166332ba2e536040518163ffffffff1660e01b8152600401602060405180830381600087803b158015612ba557600080fd5b505af1158015612bb9573d6000803e3d6000fd5b505050506040513d6020811015612bcf57600080fd5b5051839063ffffffff61397916565b91505b601354612bf4908363ffffffff61397916565b6013556000848152600260209081526040808320600101839055600554815163a9059cbb60e01b81523360048201526024810187905291516001600160a01b039091169363a9059cbb93604480850194919392918390030190829087803b158015612c5e57600080fd5b505af1158015612c72573d6000803e3d6000fd5b505050506040513d6020811015612c8857600080fd5b5051612cd1576040805162461bcd60e51b8152602060048201526013602482015272496e737566666963656e74207265776172647360681b604482015290519081900360640190fd5b60075460135460408051635b42d93560e11b815260048101889052602481018690526044810192909252516001600160a01b039092169163b685b26a9160648082019260009290919082900301818387803b15801561141057600080fd5b6004546001600160a01b031681565b601a5481565b6000828152600260205260409020600601546001600160a01b03163314612d6a57600080fd5b60015460009081526018602052604090208054909101905550565b612d8d612a82565b612d9657600080fd5b60008111612deb576040805162461bcd60e51b815260206004820181905260248201527f426c6f636b7320696e74657276616c206d757374206265206e6f6e2d7a65726f604482015290519081900360640190fd5b600e55565b60015460009081526018602052604090205490565b612e0d612a82565b612e1657600080fd5b6004805460ff60a01b19169055565b600d54811015612e7c576040805162461bcd60e51b815260206004820152601960248201527f4d696e696d756d20616d6f756e742069732031204d6174696300000000000000604482015290519081900360640190fd5b600554604080516323b872dd60e01b81523360048201523060248201526044810184905290516001600160a01b03909216916323b872dd916064808201926020929091908290030181600087803b158015612ed657600080fd5b505af1158015612eea573d6000803e3d6000fd5b505050506040513d6020811015612f0057600080fd5b5051612f4b576040805162461bcd60e51b8152602060048201526015602482015274151c985b9cd9995c881cdd185ad94819985a5b1959605a1b604482015290519081900360640190fd5b612f558282613f2b565b5050565b612f61612a82565b612f6a57600080fd5b600c91909155600d55565b600854604080516331a9108f60e11b8152600481018890529051879233926001600160a01b0390911691636352211e91602480820192602092909190829003018186803b158015612fc557600080fd5b505afa158015612fd9573d6000803e3d6000fd5b505050506040513d6020811015612fef57600080fd5b50516001600160a01b03161461300457600080fd5b8584866040516020018084815260200183815260200182815260200193505050506040516020818303038152906040528051906020012073__Merkle________________________________636c8f455c909185601554866040518563ffffffff1660e01b81526004018085815260200184815260200183815260200180602001828103825283818151815260200191508051906020019080838360005b838110156130ba5781810151838201526020016130a2565b50505050905090810190601f1680156130e75780820380516001836020036101000a031916815260200191505b509550505050505060206040518083038186803b15801561310757600080fd5b505af415801561311b573d6000803e3d6000fd5b505050506040513d602081101561313157600080fd5b5051613176576040805162461bcd60e51b815260206004820152600f60248201526e2bb937b7339030b1b190383937b7b360891b604482015290519081900360640190fd5b6005546040805163a9059cbb60e01b81523360048201526024810187905290516001600160a01b039092169163a9059cbb916044808201926020929091908290030181600087803b1580156131ca57600080fd5b505af11580156131de573d6000803e3d6000fd5b505050506040513d60208110156131f457600080fd5b50516131ff57600080fd5b6128a986856142bb565b6009546001600160a01b031681565b613220612a82565b61322957600080fd5b6000811161323657600080fd5b600754600b5460408051632dbe9d3160e21b8152600481018590526024810192909252516001600160a01b039092169163b6fa74c49160448082019260009290919082900301818387803b15801561328d57600080fd5b505af11580156132a1573d6000803e3d6000fd5b505050600b9190915550565b60135481565b600454600160a01b900460ff1681565b60008281526002602052604081205481546001549192916132e99163ffffffff61397916565b60008581526002602052604081206004810186905560060154919250906001600160a01b0316156133fd57600085815260026020908152604091829020600601548251630e826fd160e21b815292516001600160a01b0390911692633a09bf44926004808301939192829003018186803b15801561336657600080fd5b505afa15801561337a573d6000803e3d6000fd5b505050506040513d602081101561339057600080fd5b5051600086815260026020526040808220600601548151637c1e845d60e11b815291519394506001600160a01b03169263f83d08ba9260048084019391929182900301818387803b1580156133e457600080fd5b505af11580156133f8573d6000803e3d6000fd5b505050505b61340f82828501600003600019613b1c565b60008581526002602052604080822060038101859055600601805460ff60a01b1916600160a11b17905560075481516304ba4aad60e11b8152600481018990526024810186905291516001600160a01b0390911692630974955a926044808201939182900301818387803b15801561348657600080fd5b505af115801561349a573d6000803e3d6000fd5b505050505050505050565b600854604080516331a9108f60e11b8152600481018490529051839233926001600160a01b0390911691636352211e91602480820192602092909190829003018186803b1580156134f557600080fd5b505afa158015613509573d6000803e3d6000fd5b505050506040513d602081101561351f57600080fd5b50516001600160a01b03161461353457600080fd5b6000828152600260205260409020600301541580159061357957506001546000805484825260026020526040909120600301546135769163ffffffff61397916565b11155b80156135ac57506003600083815260026020526040902060060154600160a01b900460ff1660038111156135a957fe5b14155b6135b557600080fd5b6000828152600260205260409020546010546135d7908263ffffffff613b3e16565b60105560085460408051630852cd8d60e31b81526004810186905290516001600160a01b03909216916342966c689160248082019260009290919082900301818387803b15801561362757600080fd5b505af115801561363b573d6000803e3d6000fd5b50505060008481526002602081815260408084206005808201546001600160a01b03908116875260178552928620869055948990529290915260068201805460ff60a01b1916600360a01b17905591546001909101549116915063a9059cbb9033906136a8908590613979565b6040518363ffffffff1660e01b815260040180836001600160a01b03166001600160a01b0316815260200182815260200192505050602060405180830381600087803b1580156136f757600080fd5b505af115801561370b573d6000803e3d6000fd5b505050506040513d602081101561372157600080fd5b505161376c576040805162461bcd60e51b8152602060048201526015602482015274151c985b9cd9995c881cdd185ad94819985a5b1959605a1b604482015290519081900360640190fd5b6007546010546040805163ae2e26b160e01b815233600482015260248101879052604481018590526064810192909252516001600160a01b039092169163ae2e26b19160848082019260009290919082900301818387803b158015611efa57600080fd5b6137d8612a82565b6137e157600080fd5b600081116137ee57600080fd5b600754600a5460408051635071805360e11b8152600481018590526024810192909252516001600160a01b039092169163a0e300a69160448082019260009290919082900301818387803b15801561384557600080fd5b505af1158015613859573d6000803e3d6000fd5b505050600a82905550600081905561387881600463ffffffff613b9116565b601481905560015461388f9163ffffffff61397916565b60165550565b61389d612a82565b6138a657600080fd5b6001600160a01b0381166138b957600080fd5b6004546040516001600160a01b038084169216907f211c9015fc81c0dbd45bd99f0f29fc1c143bfd53442d5ffd722bbbef7a887fe990600090a3600480546001600160a01b0319166001600160a01b0392909216919091179055565b6007546001600160a01b031681565b61392c612a82565b61393557600080fd5b6128b781614325565b613946612a82565b61394f57600080fd5b6004805460ff60a01b1916600160a01b179055565b600d5481565b6005546001600160a01b031681565b60008282018381101561398b57600080fd5b9392505050565b60008281526002602052604081208054600382018490556006909101549091906001600160a01b031615613aa957600084815260026020908152604091829020600601548251630e826fd160e21b815292516001600160a01b0390911692633a09bf44926004808301939192829003018186803b158015613a1257600080fd5b505afa158015613a26573d6000803e3d6000fd5b505050506040513d6020811015613a3c57600080fd5b5051600085815260026020526040808220600601548151637c1e845d60e11b815291519394506001600160a01b03169263f83d08ba9260048084019391929182900301818387803b158015613a9057600080fd5b505af1158015613aa4573d6000803e3d6000fd5b505050505b613abb83828401600003600019613b1c565b60075460408051635e04d48360e01b815233600482015260248101879052604481018690526064810185905290516001600160a01b0390921691635e04d4839160848082019260009290919082900301818387803b15801561141057600080fd5b6000928352601860205260409092208054909101815560010180549091019055565b600082821115613b4d57600080fd5b50900390565b600082613b625750600061112a565b82820282848281613b6f57fe5b041461398b57600080fd5b600081831015613b8a578161398b565b5090919050565b6000808211613b9f57600080fd5b6000828481613baa57fe5b04949350505050565b6000818310613b8a578161398b565b6000613bd96001805461397990919063ffffffff16565b6000818152601860205260408082208054600180548552838520549091018255908101805482548552838520830154019055805483529082208281558101919091555550565b60008080805b84518167ffffffffffffffff161015613ead576060613c50868367ffffffffffffffff166041614394565b60408051631df4cba560e21b8152600481018a81526024820192835283516044830152835193945060009373__ECVerify______________________________936377d32e94938d9388939092916064019060208501908083838c5b83811015613cc4578181015183820152602001613cac565b50505050905090810190601f168015613cf15780820380516001836020036101000a031916815260200191505b50935050505060206040518083038186803b158015613d0f57600080fd5b505af4158015613d23573d6000803e3d6000fd5b505050506040513d6020811015613d3957600080fd5b50516001600160a01b038082166000818152601760205260409020549293509086161415613d6957505050613ead565b613d7281611074565b8015613d8f5750846001600160a01b0316826001600160a01b0316115b15613ea2576000818152600260205260408120600681015493965086939091906001600160a01b031615613e55578160060160009054906101000a90046001600160a01b03166001600160a01b031663eebfa4b78d8f6040518363ffffffff1660e01b81526004018083815260200182815260200192505050602060405180830381600087803b158015613e2257600080fd5b505af1158015613e36573d6000803e3d6000fd5b505050506040513d6020811015613e4c57600080fd5b50519050613e8d565b81600001549050613e87613e768e611f9c8f85613b5390919063ffffffff16565b60018401549063ffffffff61397916565b60018301555b613e9d888263ffffffff61397916565b975050505b505050604101613c25565b50613ecc613eb9612df0565b600b54611f9c908563ffffffff613b5316565b601254909650613ee2908763ffffffff61397916565b601255613f146001613f086003611f9c6002613efc612df0565b9063ffffffff613b5316565b9063ffffffff61397916565b821015613f2057600080fd5b509395945050505050565b601a54613f3e908263ffffffff61397916565b601a55600754604080516323b0600560e11b8152600481018590526024810184905290516001600160a01b0390921691634760c00a9160448082019260009290919082900301818387803b158015613f9557600080fd5b505af11580156128a9573d6000803e3d6000fd5b601054613fbc908463ffffffff61397916565b6010819055506040518061010001604052808481526020016000815260200160015481526020016000815260200160008152602001836001600160a01b031681526020018261400c576000614094565b6009546011546007546040805163780ff34960e11b815260048101939093526001600160a01b0391821660248401525192169163f01fe692916044808201926020929091908290030181600087803b15801561406757600080fd5b505af115801561407b573d6000803e3d6000fd5b505050506040513d602081101561409157600080fd5b50515b6001600160a01b031681526020016001905260115460009081526002602081815260409283902084518155908401516001820155918301519082015560608201516003808301919091556080830151600483015560a08301516005830180546001600160a01b039283166001600160a01b03199182161790915560c08501516006850180549190931691161780825560e08501519260ff60a01b1990911690600160a01b90849081111561414457fe5b021790555050600854601154604080516340c10f1960e01b81526001600160a01b038981166004830152602482019390935290519190921692506340c10f199160448082019260009290919082900301818387803b1580156141a557600080fd5b505af11580156141b9573d6000803e3d6000fd5b50506011546001600160a01b0385166000908152601760205260409020555050600180546141e8918590613b1c565b600a546001546141fd9163ffffffff61397916565b6011805460009081526019602052604080822060019081019490945560075492549354601054825163152e187760e31b81526001600160a01b038981166004830152602482019790975260448101929092526064820189905260848201529051939092169263a970c3b89260a480820193929182900301818387803b15801561428557600080fd5b505af1158015614299573d6000803e3d6000fd5b50506011546142b292509050600163ffffffff61397916565b60115550505050565b601a546142ce908263ffffffff613b3e16565b601a556007546040805163cf572fe360e01b8152600481018590526024810184905290516001600160a01b039092169163cf572fe39160448082019260009290919082900301818387803b158015613f9557600080fd5b6001600160a01b03811661433857600080fd5b6003546040516001600160a01b038084169216907f8be0079c531659141344cd1fd0a4f28419497f9722a3daafe3b4186f6b6457e090600090a3600380546001600160a01b0319166001600160a01b0392909216919091179055565b6060818301845110156143a657600080fd5b6060821580156143c15760405191506020820160405261440b565b6040519150601f8416801560200281840101858101878315602002848b0101015b818310156143fa5780518352602092830192016143e2565b5050858452601f01601f1916604052505b5094935050505056fe436f6e6669726d6174696f6e206973206e6f7420616c6c6f776564206265666f72652061756374696f6e506572696f64a265627a7a7231582096ac4fc3870d79888bfc9f5142076b9b9393955bb1baf3752488a15563722e0b64736f6c634300050b0032",
  "source": "pragma solidity ^0.5.2;\n\nimport {IERC20} from \"openzeppelin-solidity/contracts/token/ERC20/IERC20.sol\";\nimport \"openzeppelin-solidity/contracts/token/ERC721/ERC721Full.sol\";\nimport {Math} from \"openzeppelin-solidity/contracts/math/Math.sol\";\nimport {SafeMath} from \"openzeppelin-solidity/contracts/math/SafeMath.sol\";\nimport {Ownable} from \"openzeppelin-solidity/contracts/ownership/Ownable.sol\";\n\nimport {BytesLib} from \"../common/lib/BytesLib.sol\";\nimport {ECVerify} from \"../common/lib/ECVerify.sol\";\nimport {Merkle} from \"../common/lib/Merkle.sol\";\nimport {Lockable} from \"../common/mixin/Lockable.sol\";\nimport {RootChainable} from \"../common/mixin/RootChainable.sol\";\nimport {Registry} from \"../common/Registry.sol\";\nimport {IStakeManager} from \"./IStakeManager.sol\";\nimport {ValidatorShare} from \"./ValidatorShare.sol\";\nimport {StakingInfo} from \"./StakingInfo.sol\";\n\ncontract ValidatorShareFactory {\n    /**\n    - factory to create new validatorShare contracts\n   */\n\n    function create(uint256 validatorId, address loggerAddress)\n        public\n        returns (address)\n    {\n        ValidatorShare validatorShare = new ValidatorShare(\n            validatorId,\n            loggerAddress,\n            msg.sender\n        );\n        validatorShare.transferOwnership(msg.sender);\n        return address(validatorShare);\n    }\n\n}\n\ncontract StakingNFT is ERC721Full, Ownable {\n    constructor(string memory name, string memory symbol)\n        public\n        ERC721Full(name, symbol)\n    {\n        // solhint-disable-previous-line no-empty-blocks\n    }\n\n    function mint(address to, uint256 tokenId) public onlyOwner {\n        require(\n            balanceOf(to) == 0,\n            \"Validators MUST NOT own multiple stake position\"\n        );\n        //require(balanceOf(user) == 0, \"Only one time staking is allowed\");\n        _mint(to, tokenId);\n    }\n\n    function burn(uint256 tokenId) public onlyOwner {\n        _burn(tokenId);\n    }\n\n    function _transferFrom(address from, address to, uint256 tokenId) internal {\n        require(\n            balanceOf(to) == 0,\n            \"Validators MUST NOT own multiple stake position\"\n        );\n        super._transferFrom(from, to, tokenId);\n    }\n}\n\ncontract StakeManager is IStakeManager, RootChainable, Lockable {\n    using SafeMath for uint256;\n    using ECVerify for bytes32;\n    using Merkle for bytes32;\n\n    IERC20 public token;\n    address public registry;\n    StakingInfo public logger;\n    StakingNFT public NFTContract;\n    ValidatorShareFactory public factory;\n    // genesis/governance variables\n    uint256 public dynasty = 2**13; // unit: epoch 50 days\n    uint256 public CHECKPOINT_REWARD = 10000 * (10**18); // @todo update according to Chain\n    uint256 public minDeposit = (10**18); // in ERC20 token\n    uint256 public minHeimdallFee = (10**18); // in ERC20 token\n    uint256 public checkPointBlockInterval = 255;\n\n    uint256 public validatorThreshold = 10; //128\n    uint256 public totalStaked;\n    uint256 public NFTCounter = 1;\n    uint256 public totalRewards;\n    uint256 public totalRewardsLiquidated;\n    uint256 public auctionPeriod = dynasty.div(4); // 1 week in epochs\n    bytes32 public accountStateRoot;\n\n    // on dynasty update certain amount of cooldown period where there is no validator auction\n    uint256 replacementCoolDown;\n\n    struct Auction {\n        uint256 amount;\n        uint256 startEpoch;\n        address user;\n    }\n\n    struct State {\n        int256 amount;\n        int256 stakerCount;\n    }\n\n    // signer to Validator mapping\n    mapping(address => uint256) public signerToValidator;\n    // validator metadata\n    // mapping (uint256 => Validator) public validators;\n    //Mapping for epoch to totalStake for that epoch\n    mapping(uint256 => State) public validatorState;\n    //Ongoing auctions for validatorId\n    mapping(uint256 => Auction) public validatorAuction;\n\n    uint256 public totalHeimdallFee;\n\n    constructor(\n        address _registry,\n        address _rootchain,\n        address _NFTContract,\n        address _stakingLogger,\n        address _ValidatorShareFactory\n    ) public {\n        registry = _registry;\n        rootChain = _rootchain;\n        NFTContract = StakingNFT(_NFTContract);\n        logger = StakingInfo(_stakingLogger);\n        factory = ValidatorShareFactory(_ValidatorShareFactory);\n    }\n\n    modifier onlyStaker(uint256 validatorId) {\n        require(NFTContract.ownerOf(validatorId) == msg.sender);\n        _;\n    }\n\n    modifier onlySlashingMananger() {\n        require(Registry(registry).getSlashingManagerAddress() == msg.sender);\n        _;\n    }\n\n    // TopUp heimdall fee\n    function topUpForFee(uint256 validatorId, uint256 heimdallFee) public {\n        require(heimdallFee >= minHeimdallFee, \"Minimum amount is 1 Matic\");\n        require(\n            token.transferFrom(msg.sender, address(this), heimdallFee),\n            \"Transfer stake failed\"\n        );\n        _topUpForFee(validatorId, heimdallFee);\n    }\n\n    function ownerOf(uint256 tokenId) public view returns (address) {\n        return NFTContract.ownerOf(tokenId);\n    }\n\n    function _topUpForFee(uint256 validatorId, uint256 amount) private {\n        totalHeimdallFee = totalHeimdallFee.add(amount);\n        logger.logTopUpFee(validatorId, amount);\n    }\n\n    function _claimFee(uint256 validatorId, uint256 amount) private {\n        totalHeimdallFee = totalHeimdallFee.sub(amount);\n        logger.logClaimFee(validatorId, amount);\n    }\n\n    function claimFee(\n        uint256 validatorId,\n        uint256 accumSlashedAmount,\n        uint256 amount,\n        uint256 index,\n        bytes memory proof\n    ) public onlyStaker(validatorId) {\n        //Ignoring other params becuase rewards distribution is on chain\n        require(\n            keccak256(abi.encodePacked(validatorId, amount, accumSlashedAmount))\n                .checkMembership(index, accountStateRoot, proof),\n            \"Wrong acc proof\"\n        );\n        require(token.transfer(msg.sender, amount));\n        _claimFee(validatorId, amount);\n    }\n\n    function stake(\n        uint256 amount,\n        uint256 heimdallFee,\n        address signer,\n        bool acceptDelegation\n    ) external {\n        stakeFor(msg.sender, amount, heimdallFee, signer, acceptDelegation);\n    }\n\n    function totalStakedFor(address user) external view returns (uint256) {\n        if (user == address(0x0) || NFTContract.balanceOf(user) == 0) {\n            return 0;\n        }\n        return validators[NFTContract.tokenOfOwnerByIndex(user, 0)].amount;\n    }\n\n    function supportsHistory() external pure returns (bool) {\n        return false;\n    }\n\n    function startAuction(uint256 validatorId, uint256 amount) external {\n        require(isValidator(validatorId));\n        // when dynasty period is updated validators are in cool down period\n        require(\n            replacementCoolDown == 0 || replacementCoolDown <= currentEpoch,\n            \"Cool down period\"\n        );\n        require(\n            auctionPeriod >=\n                currentEpoch.sub(validatorAuction[validatorId].startEpoch),\n            \"Invalid auction period\"\n        );\n        // (dynasty--auctionPeriod)--(dynasty--auctionPeriod)--(dynasty--auctionPeriod)\n        // if it's auctionPeriod then will get residue from (CurrentPeriod of validator )%(dynasty--auctionPeriod)\n        // make sure that its `auctionPeriod` window\n        // dynasty = 30, auctionPeriod = 7, activationEpoch = 1, currentEpoch = 39\n        // residue 1 = (39-1)% (30+7), if residue-dynasty  > 0 it's `auctionPeriod`\n        require(\n            (currentEpoch.sub(validators[validatorId].activationEpoch) %\n                dynasty.add(auctionPeriod)) >\n                dynasty,\n            \"Not an auction time\"\n        );\n\n        require(\n            token.transferFrom(msg.sender, address(this), amount),\n            \"Transfer amount failed\"\n        );\n\n        uint256 perceivedStake = validators[validatorId].amount.mul(\n            perceivedStakeFactor(validatorId)\n        );\n        perceivedStake = Math.max(\n            perceivedStake,\n            validatorAuction[validatorId].amount\n        );\n\n        require(perceivedStake < amount, \"Must bid higher amount\");\n\n        // create new auction\n        if (validatorAuction[validatorId].amount == 0) {\n            validatorAuction[validatorId] = Auction({\n                amount: amount,\n                startEpoch: currentEpoch,\n                user: msg.sender\n            });\n        } else {\n            //replace prev auction\n            Auction storage auction = validatorAuction[validatorId];\n            require(token.transfer(auction.user, auction.amount));\n            auction.amount = amount;\n            auction.user = msg.sender;\n        }\n        logger.logStartAuction(\n            validatorId,\n            validators[validatorId].amount,\n            validatorAuction[validatorId].amount\n        );\n    }\n\n    function confirmAuctionBid(\n        uint256 validatorId,\n        uint256 heimdallFee, /** for new validator */\n        address signer,\n        bool acceptDelegation\n    ) external onlyWhenUnlocked {\n        Auction storage auction = validatorAuction[validatorId];\n        Validator storage validator = validators[validatorId];\n        // require(auction.user == msg.sender);// any one can call confrimAuction\n        require(\n            auctionPeriod.add(auction.startEpoch) <= currentEpoch,\n            \"Confirmation is not allowed before auctionPeriod\"\n        );\n\n        // validator is last auctioner\n        if (auction.user == NFTContract.ownerOf(validatorId)) {\n            uint256 refund = validator.amount;\n            require(token.transfer(auction.user, refund));\n            validator.amount = auction.amount;\n\n            //cleanup auction data\n            auction.amount = 0;\n            auction.user = address(0x0);\n            auction.startEpoch = currentEpoch.add(dynasty);\n            //update total stake amount\n            totalStaked = totalStaked.add(validator.amount.sub(refund));\n            logger.logStakeUpdate(validatorId);\n            logger.logConfirmAuction(\n                validatorId,\n                validatorId,\n                validator.amount\n            );\n        } else {\n            // dethrone\n            _unstake(validatorId, currentEpoch);\n            require(\n                token.transferFrom(msg.sender, address(this), heimdallFee),\n                \"Transfer fee failed\"\n            );\n            _topUpForFee(NFTCounter, heimdallFee);\n            _stakeFor(auction.user, auction.amount, signer, acceptDelegation);\n\n            logger.logConfirmAuction(\n                NFTCounter.sub(1),\n                validatorId,\n                auction.amount\n            );\n            delete validatorAuction[validatorId];\n        }\n    }\n\n    function unstake(uint256 validatorId) external onlyStaker(validatorId) {\n        require(\n            validatorAuction[validatorId].amount == 0,\n            \"Wait for auction completion\"\n        );\n        uint256 exitEpoch = currentEpoch.add(1); // notice period\n        require(\n            validators[validatorId].activationEpoch > 0 &&\n                validators[validatorId].deactivationEpoch == 0 &&\n                validators[validatorId].status == Status.Active\n        );\n        _unstake(validatorId, exitEpoch);\n    }\n\n    // @NOTE this is for stage-1 event only\n    function forceUnstake(uint256 validatorId) external onlyOwner {\n        _unstake(validatorId, currentEpoch);\n    }\n\n    function delegationTransfer(\n        uint256 validatorId,\n        uint256 amount,\n        address delegator\n    ) external returns (bool) {\n        require(validators[validatorId].contractAddress == msg.sender);\n        return token.transfer(delegator, amount);\n    }\n\n    function delegationDeposit(\n        uint256 validatorId,\n        uint256 amount,\n        address delegator\n    ) external returns (bool) {\n        require(validators[validatorId].contractAddress == msg.sender);\n        return token.transferFrom(delegator, address(this), amount);\n    }\n\n    function stakeFor(\n        address user,\n        uint256 amount,\n        uint256 heimdallFee,\n        address signer,\n        bool acceptDelegation\n    ) public onlyWhenUnlocked {\n        require(currentValidatorSetSize() < validatorThreshold);\n        require(amount > minDeposit);\n        require(signerToValidator[signer] == 0);\n\n        require(\n            token.transferFrom(\n                msg.sender,\n                address(this),\n                amount.add(heimdallFee)\n            ),\n            \"Transfer stake failed\"\n        );\n        // _topup\n        _topUpForFee(\n            NFTCounter, /** validatorId*/\n            heimdallFee\n        );\n        _stakeFor(user, amount, signer, acceptDelegation);\n    }\n\n    function perceivedStakeFactor(uint256 validatorId)\n        public\n        view\n        returns (uint256)\n    {\n        // TODO: use age, rewardRatio, and slashing/reward rate\n        return 1;\n    }\n\n    function unstakeClaim(uint256 validatorId) public onlyStaker(validatorId) {\n        // can only claim stake back after WITHDRAWAL_DELAY\n        require(\n            validators[validatorId].deactivationEpoch > 0 &&\n                validators[validatorId].deactivationEpoch.add(\n                    WITHDRAWAL_DELAY\n                ) <=\n                currentEpoch &&\n                validators[validatorId].status != Status.Unstaked\n        );\n        uint256 amount = validators[validatorId].amount;\n        totalStaked = totalStaked.sub(amount);\n\n        // TODO :add slashing here use soft slashing in slash amt variable\n        NFTContract.burn(validatorId);\n        delete signerToValidator[validators[validatorId].signer];\n        // delete validators[validatorId];\n        validators[validatorId].status = Status.Unstaked;\n        require(\n            token.transfer(\n                msg.sender,\n                amount.add(validators[validatorId].reward)\n            ),\n            \"Transfer stake failed\"\n        );\n        logger.logUnstaked(msg.sender, validatorId, amount, totalStaked);\n    }\n\n    // slashing and jail interface\n    function restake(uint256 validatorId, uint256 amount, bool stakeRewards)\n        public\n        onlyStaker(validatorId)\n    {\n        require(\n            validators[validatorId].deactivationEpoch < currentEpoch,\n            \"No use of restaking\"\n        );\n\n        if (amount > 0) {\n            require(\n                token.transferFrom(msg.sender, address(this), amount),\n                \"Transfer stake\"\n            );\n        }\n        if (stakeRewards) {\n            amount += validators[validatorId].reward;\n            validators[validatorId].reward = 0;\n        }\n        totalStaked = totalStaked.add(amount);\n        validators[validatorId].amount += amount;\n        validatorState[currentEpoch].amount = (validatorState[currentEpoch]\n            .amount +\n            int256(amount));\n\n        logger.logStakeUpdate(validatorId);\n        logger.logReStaked(\n            validatorId,\n            validators[validatorId].amount,\n            totalStaked\n        );\n    }\n\n    function withdrawRewards(uint256 validatorId)\n        public\n        onlyStaker(validatorId)\n    {\n        uint256 amount = validators[validatorId].reward;\n        address _contract = validators[validatorId].contractAddress;\n        if (_contract != address(0x0)) {\n            amount = amount.add(\n                ValidatorShare(_contract).withdrawRewardsValidator()\n            );\n        }\n        totalRewardsLiquidated = totalRewardsLiquidated.add(amount);\n        validators[validatorId].reward = 0;\n        require(token.transfer(msg.sender, amount), \"Insufficent rewards\");\n        logger.logClaimRewards(validatorId, amount, totalRewardsLiquidated);\n    }\n\n    // if not jailed then in state of warning, else will be unstaking after x epoch\n    function slash(\n        uint256 validatorId,\n        uint256 slashingRate,\n        uint256 jailCheckpoints\n    ) public onlySlashingMananger {\n        // if contract call contract.slash\n        // if (validators[validatorId].contractAddress != address(0x0)) {\n        //   // ValidatorShare(validators[validatorId].contractAddress).slash(slashingRate, currentEpoch, currentEpoch);\n        // }\n        uint256 amount = validators[validatorId].amount.mul(slashingRate).div(\n            100\n        );\n        validators[validatorId].amount = validators[validatorId].amount.sub(\n            amount\n        );\n        if (\n            validators[validatorId].amount < minDeposit || jailCheckpoints > 0\n        ) {\n            jail(validatorId, jailCheckpoints);\n        }\n        // todo: slash event\n        logger.logStakeUpdate(validatorId);\n    }\n\n    function unJail(uint256 validatorId) public onlyStaker(validatorId) {\n        require(\n            validators[validatorId].deactivationEpoch > currentEpoch &&\n                validators[validatorId].jailTime <= currentEpoch &&\n                validators[validatorId].status == Status.Locked\n        );\n\n        uint256 amount = validators[validatorId].amount;\n        require(amount >= minDeposit);\n        uint256 exitEpoch = validators[validatorId].deactivationEpoch;\n\n        int256 delegationAmount = 0;\n        if (validators[validatorId].contractAddress != address(0x0)) {\n            delegationAmount = int256(\n                ValidatorShare(validators[validatorId].contractAddress)\n                    .activeAmount()\n            );\n            ValidatorShare(validators[validatorId].contractAddress).unlock();\n        }\n\n        // undo timline so that validator is normal validator\n        updateTimeLine(exitEpoch, (int256(amount) + delegationAmount), 1);\n\n        validators[validatorId].deactivationEpoch = 0;\n        validators[validatorId].status = Status.Active;\n        validators[validatorId].jailTime = 0;\n    }\n\n    // in context of slashing\n    function jail(uint256 validatorId, uint256 jailCheckpoints)\n        public\n    /** only*/\n    {\n        // Todo: requires and more conditions\n        uint256 amount = validators[validatorId].amount;\n        // should unbond instantly\n        uint256 exitEpoch = currentEpoch.add(WITHDRAWAL_DELAY); // jail period\n\n        int256 delegationAmount = 0;\n        validators[validatorId].jailTime = jailCheckpoints;\n        if (validators[validatorId].contractAddress != address(0x0)) {\n            delegationAmount = int256(\n                ValidatorShare(validators[validatorId].contractAddress)\n                    .activeAmount()\n            );\n            ValidatorShare(validators[validatorId].contractAddress).lock();\n        }\n        // update future in case of no `unJail`\n        updateTimeLine(exitEpoch, -(int256(amount) + delegationAmount), -1);\n        validators[validatorId].deactivationEpoch = exitEpoch;\n        validators[validatorId].status = Status.Locked;\n        logger.logJailed(validatorId, exitEpoch);\n    }\n\n    // returns valid validator for current epoch\n    function getCurrentValidatorSet() public view returns (uint256[] memory) {\n        uint256[] memory _validators = new uint256[](validatorThreshold);\n        uint256 validator;\n        uint256 k = 0;\n        for (uint256 i = 0; i < NFTContract.totalSupply(); i++) {\n            validator = NFTContract.tokenByIndex(i);\n            if (isValidator(validator)) {\n                _validators[k++] = validator;\n            }\n        }\n        return _validators;\n    }\n\n    function getValidatorId(address user) public view returns (uint256) {\n        return NFTContract.tokenOfOwnerByIndex(user, 0);\n    }\n\n    // set staking Token\n    function setToken(address _token) public onlyOwner {\n        require(_token != address(0x0));\n        token = IERC20(_token);\n    }\n\n    // Change the number of validators required to allow a passed header root\n    function updateValidatorThreshold(uint256 newThreshold) public onlyOwner {\n        require(newThreshold > 0);\n        logger.logThresholdChange(newThreshold, validatorThreshold);\n        validatorThreshold = newThreshold;\n    }\n\n    function updateCheckPointBlockInterval(uint256 _blocks) public onlyOwner {\n        require(_blocks > 0, \"Blocks interval must be non-zero\");\n        checkPointBlockInterval = _blocks;\n    }\n\n    // Change reward for each checkpoint\n    function updateCheckpointReward(uint256 newReward) public onlyOwner {\n        require(newReward > 0);\n        logger.logRewardUpdate(newReward, CHECKPOINT_REWARD);\n        CHECKPOINT_REWARD = newReward;\n    }\n\n    function updateValidatorState(uint256 validatorId, int256 amount) public {\n        require(validators[validatorId].contractAddress == msg.sender);\n        // require(epoch >= currentEpoch, \"Can't change past\");\n        validatorState[currentEpoch].amount = (validatorState[currentEpoch]\n            .amount +\n            amount);\n    }\n\n    function updateDynastyValue(uint256 newDynasty) public onlyOwner {\n        require(newDynasty > 0);\n        logger.logDynastyValueChange(newDynasty, dynasty);\n        dynasty = newDynasty;\n        WITHDRAWAL_DELAY = dynasty;\n        auctionPeriod = dynasty.div(4);\n        // set cool down period\n        replacementCoolDown = currentEpoch.add(auctionPeriod);\n    }\n\n    function updateMinAmounts(uint256 _minDeposit, uint256 _minHeimdallFee)\n        public\n        onlyOwner\n    {\n        minDeposit = _minDeposit;\n        minHeimdallFee = _minHeimdallFee;\n    }\n\n    function updateSigner(uint256 validatorId, address _signer)\n        public\n        onlyStaker(validatorId)\n    {\n        require(_signer != address(0x0) && signerToValidator[_signer] == 0);\n\n        // update signer event\n        logger.logSignerChange(\n            validatorId,\n            validators[validatorId].signer,\n            _signer\n        );\n\n        delete signerToValidator[validators[validatorId].signer];\n        signerToValidator[_signer] = validatorId;\n        validators[validatorId].signer = _signer;\n    }\n\n    function currentValidatorSetSize() public view returns (uint256) {\n        return uint256(validatorState[currentEpoch].stakerCount);\n    }\n\n    function currentValidatorSetTotalStake() public view returns (uint256) {\n        return uint256(validatorState[currentEpoch].amount);\n    }\n\n    function getValidatorContract(uint256 validatorId)\n        public\n        view\n        returns (address)\n    {\n        return validators[validatorId].contractAddress;\n    }\n\n    function isValidator(uint256 validatorId) public view returns (bool) {\n        return (validators[validatorId].amount > 0 &&\n            (validators[validatorId].activationEpoch != 0 &&\n                validators[validatorId].activationEpoch <= currentEpoch) &&\n            (validators[validatorId].deactivationEpoch == 0 ||\n                validators[validatorId].deactivationEpoch > currentEpoch) &&\n            validators[validatorId].status == Status.Active); // Todo: reduce logic\n    }\n\n    function checkSignatures(\n        uint256 blockInterval,\n        bytes32 voteHash,\n        bytes32 stateRoot,\n        bytes memory sigs\n    ) public onlyRootChain returns (uint256) {\n        // checkpoint rewards are based on BlockInterval multiplied on `CHECKPOINT_REWARD`\n        // for bigger checkpoints reward is capped at `CHECKPOINT_REWARD`\n        // if interval is 50% of checkPointBlockInterval then reward R is half of `CHECKPOINT_REWARD`\n        // and then stakePower is 90% of currentValidatorSetTotalStake then final reward is 90% of R\n        uint256 _reward = blockInterval.mul(CHECKPOINT_REWARD).div(\n            checkPointBlockInterval\n        );\n        _reward = Math.min(CHECKPOINT_REWARD, _reward);\n\n        uint256 stakePower = currentValidatorSetTotalStake();\n        // update stateMerkleTree root for accounts balance on heimdall chain\n        accountStateRoot = stateRoot;\n        _finalizeCommit();\n        return checkSignature(stakePower, _reward, voteHash, sigs);\n    }\n\n    function checkSignature(\n        uint256 stakePower,\n        uint256 _reward,\n        bytes32 voteHash,\n        bytes memory sigs\n    ) internal returns (uint256) {\n        // total voting power\n        uint256 _stakePower;\n        //TODO: add proposer bonus\n        address lastAdd; // cannot have address(0x0) as an owner\n        for (uint64 i = 0; i < sigs.length; i += 65) {\n            bytes memory sigElement = BytesLib.slice(sigs, i, 65);\n            address signer = voteHash.ecrecovery(sigElement);\n\n            uint256 validatorId = signerToValidator[signer];\n            // check if signer is staker and not proposer\n            if (signer == lastAdd) {\n                break;\n            } else if (isValidator(validatorId) && signer > lastAdd) {\n                lastAdd = signer;\n                Validator storage validator = validators[validatorId];\n                uint256 valPow;\n                // add delegation power\n                if (validator.contractAddress != address(0x0)) {\n                    valPow = ValidatorShare(validator.contractAddress)\n                        .udpateRewards(_reward, stakePower);\n                } else {\n                    //TODO: check for div leaks in rewards amount\n                    valPow = validator.amount;\n                    validator.reward = validator.reward.add(\n                        valPow.mul(_reward).div(stakePower)\n                    );\n                }\n                _stakePower = _stakePower.add(valPow);\n            }\n        }\n\n        _reward = CHECKPOINT_REWARD.mul(_stakePower).div(\n            currentValidatorSetTotalStake()\n        );\n        totalRewards = totalRewards.add(_reward);\n        require(\n            _stakePower >= currentValidatorSetTotalStake().mul(2).div(3).add(1)\n        );\n        return _reward;\n    }\n\n    function challangeStateRootUpdate(\n        bytes memory checkpointTx /* txData from submitCheckpoint */\n    ) public {\n        // TODO: check for 2/3+1 sig and validate non-inclusion in newStateUpdate\n        // UPDATE: since we've moved rewards to on chain there is no urgent need for this function\n        // becuase heimdall fee can be trusted on 2/3+1 security\n    }\n\n    function _stakeFor(\n        address user,\n        uint256 amount,\n        address signer,\n        bool acceptDelegation\n    ) internal {\n        totalStaked = totalStaked.add(amount);\n\n        validators[NFTCounter] = Validator({\n            reward: 0,\n            amount: amount,\n            activationEpoch: currentEpoch,\n            deactivationEpoch: 0,\n            jailTime: 0,\n            signer: signer,\n            contractAddress: acceptDelegation\n                ? factory.create(NFTCounter, address(logger))\n                : address(0x0),\n            status: Status.Active\n        });\n\n        NFTContract.mint(user, NFTCounter);\n\n        signerToValidator[signer] = NFTCounter;\n        updateTimeLine(currentEpoch, int256(amount), 1);\n        // no Auctions for 1 dynasty\n        validatorAuction[NFTCounter].startEpoch = currentEpoch.add(dynasty);\n        logger.logStaked(signer, NFTCounter, currentEpoch, amount, totalStaked);\n        NFTCounter = NFTCounter.add(1);\n    }\n\n    function _unstake(uint256 validatorId, uint256 exitEpoch) internal {\n        //Todo: add state here consider jail\n        uint256 amount = validators[validatorId].amount;\n\n        validators[validatorId].deactivationEpoch = exitEpoch;\n\n        // unbond all delegators in future\n        int256 delegationAmount = 0;\n        if (validators[validatorId].contractAddress != address(0x0)) {\n            delegationAmount = int256(\n                ValidatorShare(validators[validatorId].contractAddress)\n                    .activeAmount()\n            );\n            ValidatorShare(validators[validatorId].contractAddress).lock();\n        }\n\n        //  update future\n        updateTimeLine(exitEpoch, -(int256(amount) + delegationAmount), -1);\n\n        logger.logUnstakeInit(msg.sender, validatorId, exitEpoch, amount);\n    }\n\n    function _finalizeCommit() internal {\n        uint256 nextEpoch = currentEpoch.add(1);\n        // update totalstake and validator count\n        validatorState[nextEpoch].amount = (validatorState[currentEpoch]\n            .amount +\n            validatorState[nextEpoch].amount);\n        validatorState[nextEpoch].stakerCount = (validatorState[currentEpoch]\n            .stakerCount +\n            validatorState[nextEpoch].stakerCount);\n\n        // erase old data/history\n        delete validatorState[currentEpoch];\n        currentEpoch = nextEpoch;\n    }\n\n    function updateTimeLine(uint256 epoch, int256 amount, int256 stakerCount)\n        private\n    {\n        validatorState[epoch].amount += amount;\n        validatorState[epoch].stakerCount += stakerCount;\n    }\n\n}\n",
  "sourcePath": "/Users/atvanguard/matic/contracts/contracts/staking/StakeManager.sol",
  "compiler": {
    "name": "solc",
    "version": "0.5.11+commit.c082d0b4.Emscripten.clang"
  },
  "schemaVersion": "3.0.14",
  "updatedAt": "2020-02-13T08:29:57.325Z",
  "devdoc": {
    "methods": {
      "changeRootChain(address)": {
        "details": "Allows the current owner to change root chain address.",
        "params": {
          "newRootChain": "The address to new rootchain."
        }
      },
      "isOwner()": {
        "return": "true if `msg.sender` is the owner of the contract."
      },
      "owner()": {
        "return": "the address of the owner."
      },
      "renounceOwnership()": {
        "details": "Allows the current owner to relinquish control of the contract. It will not be possible to call the functions with the `onlyOwner` modifier anymore."
      },
      "transferOwnership(address)": {
        "details": "Allows the current owner to transfer control of the contract to a newOwner.",
        "params": {
          "newOwner": "The address to transfer ownership to."
        }
      }
    }
  },
  "userdoc": {
    "methods": {
      "renounceOwnership()": {
        "notice": "Renouncing ownership will leave the contract without an owner, thereby removing any functionality that is only available to the owner."
      }
    }
  }
}