{
  "contractName": "ValidatorShare",
  "abi": [
    {
      "constant": false,
      "inputs": [
        {
          "internalType": "address",
          "name": "spender",
          "type": "address"
        },
        {
          "internalType": "uint256",
          "name": "value",
          "type": "uint256"
        }
      ],
      "name": "approve",
      "outputs": [
        {
          "internalType": "bool",
          "name": "",
          "type": "bool"
        }
      ],
      "payable": false,
      "stateMutability": "nonpayable",
      "type": "function"
    },
    {
      "constant": true,
      "inputs": [],
      "name": "totalSupply",
      "outputs": [
        {
          "internalType": "uint256",
          "name": "",
          "type": "uint256"
        }
      ],
      "payable": false,
      "stateMutability": "view",
      "type": "function"
    },
    {
      "constant": false,
      "inputs": [
        {
          "internalType": "address",
          "name": "from",
          "type": "address"
        },
        {
          "internalType": "address",
          "name": "to",
          "type": "address"
        },
        {
          "internalType": "uint256",
          "name": "value",
          "type": "uint256"
        }
      ],
      "name": "transferFrom",
      "outputs": [
        {
          "internalType": "bool",
          "name": "",
          "type": "bool"
        }
      ],
      "payable": false,
      "stateMutability": "nonpayable",
      "type": "function"
    },
    {
      "constant": false,
      "inputs": [
        {
          "internalType": "address",
          "name": "spender",
          "type": "address"
        },
        {
          "internalType": "uint256",
          "name": "addedValue",
          "type": "uint256"
        }
      ],
      "name": "increaseAllowance",
      "outputs": [
        {
          "internalType": "bool",
          "name": "",
          "type": "bool"
        }
      ],
      "payable": false,
      "stateMutability": "nonpayable",
      "type": "function"
    },
    {
      "constant": true,
      "inputs": [],
      "name": "activeAmount",
      "outputs": [
        {
          "internalType": "uint256",
          "name": "",
          "type": "uint256"
        }
      ],
      "payable": false,
      "stateMutability": "view",
      "type": "function"
    },
    {
      "constant": true,
      "inputs": [],
      "name": "stakingLogger",
      "outputs": [
        {
          "internalType": "contract StakingInfo",
          "name": "",
          "type": "address"
        }
      ],
      "payable": false,
      "stateMutability": "view",
      "type": "function"
    },
    {
      "constant": true,
      "inputs": [],
      "name": "validatorId",
      "outputs": [
        {
          "internalType": "uint256",
          "name": "",
          "type": "uint256"
        }
      ],
      "payable": false,
      "stateMutability": "view",
      "type": "function"
    },
    {
      "constant": true,
      "inputs": [],
      "name": "validatorRewards",
      "outputs": [
        {
          "internalType": "uint256",
          "name": "",
          "type": "uint256"
        }
      ],
      "payable": false,
      "stateMutability": "view",
      "type": "function"
    },
    {
      "constant": true,
      "inputs": [],
      "name": "commissionRate",
      "outputs": [
        {
          "internalType": "uint256",
          "name": "",
          "type": "uint256"
        }
      ],
      "payable": false,
      "stateMutability": "view",
      "type": "function"
    },
    {
      "constant": true,
      "inputs": [
        {
          "internalType": "address",
          "name": "owner",
          "type": "address"
        }
      ],
      "name": "balanceOf",
      "outputs": [
        {
          "internalType": "uint256",
          "name": "",
          "type": "uint256"
        }
      ],
      "payable": false,
      "stateMutability": "view",
      "type": "function"
    },
    {
      "constant": false,
      "inputs": [],
      "name": "renounceOwnership",
      "outputs": [],
      "payable": false,
      "stateMutability": "nonpayable",
      "type": "function"
    },
    {
      "constant": true,
      "inputs": [],
      "name": "stakeManager",
      "outputs": [
        {
          "internalType": "contract IStakeManager",
          "name": "",
          "type": "address"
        }
      ],
      "payable": false,
      "stateMutability": "view",
      "type": "function"
    },
    {
      "constant": true,
      "inputs": [],
      "name": "totalStake",
      "outputs": [
        {
          "internalType": "uint256",
          "name": "",
          "type": "uint256"
        }
      ],
      "payable": false,
      "stateMutability": "view",
      "type": "function"
    },
    {
      "constant": true,
      "inputs": [
        {
          "internalType": "address",
          "name": "",
          "type": "address"
        }
      ],
      "name": "delegators",
      "outputs": [
        {
          "internalType": "uint256",
          "name": "amount",
          "type": "uint256"
        },
        {
          "internalType": "uint256",
          "name": "withdrawEpoch",
          "type": "uint256"
        }
      ],
      "payable": false,
      "stateMutability": "view",
      "type": "function"
    },
    {
      "constant": true,
      "inputs": [],
      "name": "owner",
      "outputs": [
        {
          "internalType": "address",
          "name": "",
          "type": "address"
        }
      ],
      "payable": false,
      "stateMutability": "view",
      "type": "function"
    },
    {
      "constant": true,
      "inputs": [],
      "name": "isOwner",
      "outputs": [
        {
          "internalType": "bool",
          "name": "",
          "type": "bool"
        }
      ],
      "payable": false,
      "stateMutability": "view",
      "type": "function"
    },
    {
      "constant": true,
      "inputs": [],
      "name": "rewards",
      "outputs": [
        {
          "internalType": "uint256",
          "name": "",
          "type": "uint256"
        }
      ],
      "payable": false,
      "stateMutability": "view",
      "type": "function"
    },
    {
      "constant": false,
      "inputs": [
        {
          "internalType": "address",
          "name": "spender",
          "type": "address"
        },
        {
          "internalType": "uint256",
          "name": "subtractedValue",
          "type": "uint256"
        }
      ],
      "name": "decreaseAllowance",
      "outputs": [
        {
          "internalType": "bool",
          "name": "",
          "type": "bool"
        }
      ],
      "payable": false,
      "stateMutability": "nonpayable",
      "type": "function"
    },
    {
      "constant": false,
      "inputs": [],
      "name": "unlock",
      "outputs": [],
      "payable": false,
      "stateMutability": "nonpayable",
      "type": "function"
    },
    {
      "constant": false,
      "inputs": [
        {
          "internalType": "address",
          "name": "to",
          "type": "address"
        },
        {
          "internalType": "uint256",
          "name": "value",
          "type": "uint256"
        }
      ],
      "name": "transfer",
      "outputs": [
        {
          "internalType": "bool",
          "name": "",
          "type": "bool"
        }
      ],
      "payable": false,
      "stateMutability": "nonpayable",
      "type": "function"
    },
    {
      "constant": true,
      "inputs": [],
      "name": "locked",
      "outputs": [
        {
          "internalType": "bool",
          "name": "",
          "type": "bool"
        }
      ],
      "payable": false,
      "stateMutability": "view",
      "type": "function"
    },
    {
      "constant": true,
      "inputs": [
        {
          "internalType": "address",
          "name": "owner",
          "type": "address"
        },
        {
          "internalType": "address",
          "name": "spender",
          "type": "address"
        }
      ],
      "name": "allowance",
      "outputs": [
        {
          "internalType": "uint256",
          "name": "",
          "type": "uint256"
        }
      ],
      "payable": false,
      "stateMutability": "view",
      "type": "function"
    },
    {
      "constant": true,
      "inputs": [],
      "name": "delegation",
      "outputs": [
        {
          "internalType": "bool",
          "name": "",
          "type": "bool"
        }
      ],
      "payable": false,
      "stateMutability": "view",
      "type": "function"
    },
    {
      "constant": true,
      "inputs": [
        {
          "internalType": "address",
          "name": "",
          "type": "address"
        }
      ],
      "name": "amountStaked",
      "outputs": [
        {
          "internalType": "uint256",
          "name": "",
          "type": "uint256"
        }
      ],
      "payable": false,
      "stateMutability": "view",
      "type": "function"
    },
    {
      "constant": false,
      "inputs": [
        {
          "internalType": "address",
          "name": "newOwner",
          "type": "address"
        }
      ],
      "name": "transferOwnership",
      "outputs": [],
      "payable": false,
      "stateMutability": "nonpayable",
      "type": "function"
    },
    {
      "constant": true,
      "inputs": [],
      "name": "validatorDelegatorRatio",
      "outputs": [
        {
          "internalType": "uint256",
          "name": "",
          "type": "uint256"
        }
      ],
      "payable": false,
      "stateMutability": "view",
      "type": "function"
    },
    {
      "constant": false,
      "inputs": [],
      "name": "lock",
      "outputs": [],
      "payable": false,
      "stateMutability": "nonpayable",
      "type": "function"
    },
    {
      "inputs": [
        {
          "internalType": "uint256",
          "name": "_validatorId",
          "type": "uint256"
        },
        {
          "internalType": "address",
          "name": "_stakingLogger",
          "type": "address"
        },
        {
          "internalType": "address",
          "name": "_stakeManager",
          "type": "address"
        }
      ],
      "payable": false,
      "stateMutability": "nonpayable",
      "type": "constructor"
    },
    {
      "anonymous": false,
      "inputs": [
        {
          "indexed": true,
          "internalType": "address",
          "name": "previousOwner",
          "type": "address"
        },
        {
          "indexed": true,
          "internalType": "address",
          "name": "newOwner",
          "type": "address"
        }
      ],
      "name": "OwnershipTransferred",
      "type": "event"
    },
    {
      "anonymous": false,
      "inputs": [
        {
          "indexed": true,
          "internalType": "address",
          "name": "from",
          "type": "address"
        },
        {
          "indexed": true,
          "internalType": "address",
          "name": "to",
          "type": "address"
        },
        {
          "indexed": false,
          "internalType": "uint256",
          "name": "value",
          "type": "uint256"
        }
      ],
      "name": "Transfer",
      "type": "event"
    },
    {
      "anonymous": false,
      "inputs": [
        {
          "indexed": true,
          "internalType": "address",
          "name": "owner",
          "type": "address"
        },
        {
          "indexed": true,
          "internalType": "address",
          "name": "spender",
          "type": "address"
        },
        {
          "indexed": false,
          "internalType": "uint256",
          "name": "value",
          "type": "uint256"
        }
      ],
      "name": "Approval",
      "type": "event"
    },
    {
      "constant": false,
      "inputs": [
        {
          "internalType": "uint256",
          "name": "_reward",
          "type": "uint256"
        },
        {
          "internalType": "uint256",
          "name": "_totalStake",
          "type": "uint256"
        }
      ],
      "name": "udpateRewards",
      "outputs": [
        {
          "internalType": "uint256",
          "name": "",
          "type": "uint256"
        }
      ],
      "payable": false,
      "stateMutability": "nonpayable",
      "type": "function"
    },
    {
      "constant": false,
      "inputs": [
        {
          "internalType": "uint256",
          "name": "newCommissionRate",
          "type": "uint256"
        }
      ],
      "name": "updateCommissionRate",
      "outputs": [],
      "payable": false,
      "stateMutability": "nonpayable",
      "type": "function"
    },
    {
      "constant": false,
      "inputs": [],
      "name": "withdrawRewardsValidator",
      "outputs": [
        {
          "internalType": "uint256",
          "name": "_rewards",
          "type": "uint256"
        }
      ],
      "payable": false,
      "stateMutability": "nonpayable",
      "type": "function"
    },
    {
      "constant": true,
      "inputs": [],
      "name": "exchangeRate",
      "outputs": [
        {
          "internalType": "uint256",
          "name": "",
          "type": "uint256"
        }
      ],
      "payable": false,
      "stateMutability": "view",
      "type": "function"
    },
    {
      "constant": false,
      "inputs": [
        {
          "internalType": "uint256",
          "name": "_amount",
          "type": "uint256"
        }
      ],
      "name": "buyVoucher",
      "outputs": [],
      "payable": false,
      "stateMutability": "nonpayable",
      "type": "function"
    },
    {
      "constant": false,
      "inputs": [],
      "name": "sellVoucher",
      "outputs": [],
      "payable": false,
      "stateMutability": "nonpayable",
      "type": "function"
    },
    {
      "constant": false,
      "inputs": [],
      "name": "withdrawRewards",
      "outputs": [],
      "payable": false,
      "stateMutability": "nonpayable",
      "type": "function"
    },
    {
      "constant": false,
      "inputs": [],
      "name": "reStake",
      "outputs": [],
      "payable": false,
      "stateMutability": "nonpayable",
      "type": "function"
    },
    {
      "constant": true,
      "inputs": [
        {
          "internalType": "address",
          "name": "user",
          "type": "address"
        }
      ],
      "name": "getLiquidRewards",
      "outputs": [
        {
          "internalType": "uint256",
          "name": "liquidRewards",
          "type": "uint256"
        }
      ],
      "payable": false,
      "stateMutability": "view",
      "type": "function"
    },
    {
      "constant": false,
      "inputs": [],
      "name": "unStakeClaimTokens",
      "outputs": [],
      "payable": false,
      "stateMutability": "nonpayable",
      "type": "function"
    },
    {
      "constant": false,
      "inputs": [
        {
          "internalType": "uint256",
          "name": "slashRate",
          "type": "uint256"
        },
        {
          "internalType": "uint256",
          "name": "startEpoch",
          "type": "uint256"
        },
        {
          "internalType": "uint256",
          "name": "endEpoch",
          "type": "uint256"
        }
      ],
      "name": "slash",
      "outputs": [],
      "payable": false,
      "stateMutability": "nonpayable",
      "type": "function"
    }
  ],
  "bytecode": "0x6080604052600a600955600d805460ff1916600117905534801561002257600080fd5b50604051611c0d380380611c0d8339818101604052606081101561004557600080fd5b5080516020820151604092830151600380546001600160a01b03191633179081905593519293919290918491849184916001600160a01b0391909116906000907f8be0079c531659141344cd1fd0a4f28419497f9722a3daafe3b4186f6b6457e0908290a3600692909255600480546001600160a01b039283166001600160a01b03199182161790915560058054939092169216919091179055505050611b1c806100f16000396000f3fe608060405234801561001057600080fd5b50600436106102315760003560e01c80637542ff9511610130578063c7b8981c116100b8578063eebfa4b71161007c578063eebfa4b714610524578063ef40a67014610547578063f2fde38b1461056d578063f3c65e5f14610593578063f83d08ba1461059b57610231565b8063c7b8981c146104d6578063cf309012146104de578063dd62ed3e146104e6578063df5cf72314610514578063eba8a2661461051c57610231565b80638f32d59b116100ff5780638f32d59b146104665780639ec5a8941461046e578063a457c2d714610476578063a69df4b5146104a2578063a9059cbb146104aa57610231565b80637542ff951461040f5780638b0e9f3f146104175780638d23fc611461041f5780638da5cb5b1461045e57610231565b80633d94eb05116101be578063676e555011610182578063676e55501461038a5780636bd7ee4f146103b05780636cbb6050146103b857806370a08231146103e1578063715018a61461040757610231565b80633d94eb05146103315780634144574c146103555780635c5f7dae146103725780635d1e36161461037a5780635ea1d6f81461038257610231565b806329ed2b341161020557806329ed2b34146102e557806332ba2e53146102ed57806339509351146102f55780633a09bf44146103215780633ba0b9a91461032957610231565b8062fa3d5014610236578063095ea7b31461025557806318160ddd1461029557806323b872dd146102af575b600080fd5b6102536004803603602081101561024c57600080fd5b50356105a3565b005b6102816004803603604081101561026b57600080fd5b506001600160a01b0381351690602001356106f0565b604080519115158252519081900360200190f35b61029d610707565b60408051918252519081900360200190f35b610281600480360360608110156102c557600080fd5b506001600160a01b0381358116916020810135909116906040013561070d565b610253610764565b61029d610ba9565b6102816004803603604081101561030b57600080fd5b506001600160a01b038135169060200135610bc9565b61029d610c05565b61029d610c0b565b610339610c4e565b604080516001600160a01b039092168252519081900360200190f35b6102536004803603602081101561036b57600080fd5b5035610c5d565b61029d610e59565b61029d610e5f565b61029d610e65565b61029d600480360360208110156103a057600080fd5b50356001600160a01b0316610e6b565b610253610f16565b610253600480360360608110156103ce57600080fd5b50803590602081013590604001356110fe565b61029d600480360360208110156103f757600080fd5b50356001600160a01b0316611103565b61025361111e565b610339611179565b61029d611188565b6104456004803603602081101561043557600080fd5b50356001600160a01b031661118e565b6040805192835260208301919091528051918290030190f35b6103396111a7565b6102816111b6565b61029d6111c7565b6102816004803603604081101561048c57600080fd5b506001600160a01b0381351690602001356111cd565b610253611209565b610281600480360360408110156104c057600080fd5b506001600160a01b038135169060200135611229565b610253611236565b6102816113a6565b61029d600480360360408110156104fc57600080fd5b506001600160a01b03813581169160200135166113b6565b6102816113e1565b6102536113ea565b61029d6004803603604081101561053a57600080fd5b5080359060200135611614565b61029d6004803603602081101561055d57600080fd5b50356001600160a01b031661176c565b6102536004803603602081101561058357600080fd5b50356001600160a01b031661177e565b61029d61179b565b6102536117a1565b600554600654604080516331a9108f60e11b815260048101929092525133926001600160a01b031691636352211e916024808301926020929190829003018186803b1580156105f157600080fd5b505afa158015610605573d6000803e3d6000fd5b505050506040513d602081101561061b57600080fd5b50516001600160a01b03161461063057600080fd5b606460085411156106725760405162461bcd60e51b815260040180806020018281038252602b815260200180611abd602b913960400191505060405180910390fd5b60048054600654600854604080516364c6600160e11b815294850192909252602484018590526044840152516001600160a01b039091169163c98cc00291606480830192600092919082900301818387803b1580156106d057600080fd5b505af11580156106e4573d6000803e3d6000fd5b50505060089190915550565b60006106fd3384846117c7565b5060015b92915050565b60025490565b600061071a84848461184f565b6001600160a01b03841660009081526001602090815260408083203380855292529091205461075a918691610755908663ffffffff61188716565b6117c7565b5060019392505050565b600061076f33611103565b9050600081116107b5576040805162461bcd60e51b815260206004820152600c60248201526b5a65726f2062616c616e636560a01b604482015290519081900360640190fd5b60006107e060646107d4846107c8610c0b565b9063ffffffff61189c16565b9063ffffffff6118ca16565b90506107ec33836118ec565b60055460065460408051629ff11560e81b815260048101929092526000848103602484015290516001600160a01b0390931692639ff1150092604480820193929182900301818387803b15801561084257600080fd5b505af1158015610856573d6000803e3d6000fd5b5050600c5461086e925090508263ffffffff61188716565b600c55336000908152600e602052604090205481111561099157336000908152600e60205260408120546108a990839063ffffffff61188716565b600554600654604080516323bbfda160e11b8152600481019290925260248201849052336044830152519293506001600160a01b0390911691634777fb42916064808201926020929091908290030181600087803b15801561090a57600080fd5b505af115801561091e573d6000803e3d6000fd5b505050506040513d602081101561093457600080fd5b505161097d576040805162461bcd60e51b8152602060048201526013602482015272496e737566666963656e74207265776172647360681b604482015290519081900360640190fd5b61098d828263ffffffff61188716565b9150505b336000908152600e602090815260408083209290925581518083018352838152600554835163075d8b9560e11b81529351919384840193610aa3936001600160a01b0390931692630ebb172a926004808201939291829003018186803b1580156109fa57600080fd5b505afa158015610a0e573d6000803e3d6000fd5b505050506040513d6020811015610a2457600080fd5b505160055460408051630ecce30160e31b815290516001600160a01b0390921691637667180891600480820192602092909190829003018186803b158015610a6b57600080fd5b505afa158015610a7f573d6000803e3d6000fd5b505050506040513d6020811015610a9557600080fd5b50519063ffffffff61199316565b9052336000818152600f6020908152604080832085518155949091015160019094019390935560048054600654855163f1382b5360e01b8152928301526024820193909352604481018590526064810186905292516001600160a01b039092169263f1382b53926084808301939282900301818387803b158015610b2657600080fd5b505af1158015610b3a573d6000803e3d6000fd5b5050600480546006546040805163532e19a960e01b815293840191909152516001600160a01b03909116935063532e19a99250602480830192600092919082900301818387803b158015610b8d57600080fd5b505af1158015610ba1573d6000803e3d6000fd5b505050505050565b6000610bb36111b6565b610bbc57600080fd5b5060078054600090915590565b3360008181526001602090815260408083206001600160a01b038716845290915281205490916106fd918590610755908663ffffffff61199316565b600c5481565b6000610c15610707565b15610c4657610c41610c25610707565b6107d460646107c8600b54600c5461199390919063ffffffff16565b610c49565b60645b905090565b6004546001600160a01b031681565b600354600160a01b900460ff1615610c7457600080fd5b6000610c92610c81610c0b565b6107d484606463ffffffff61189c16565b600a54909150610ca8908363ffffffff61199316565b600a55336000908152600e6020526040902054610ccb908363ffffffff61199316565b336000818152600e60209081526040808320949094556005546006548551636901b25360e01b8152600481019190915260248101889052604481019490945293516001600160a01b0390941693636901b25393606480820194918390030190829087803b158015610d3b57600080fd5b505af1158015610d4f573d6000803e3d6000fd5b505050506040513d6020811015610d6557600080fd5b50610d72905033826119a5565b600c54610d85908363ffffffff61199316565b600c5560055460065460408051629ff11560e81b8152600481019290925260248201859052516001600160a01b0390921691639ff115009160448082019260009290919082900301818387803b158015610dde57600080fd5b505af1158015610df2573d6000803e3d6000fd5b5050600480546006546040805163c69d057360e01b8152938401919091523360248401526044830187905260648301869052516001600160a01b03909116935063c69d05739250608480830192600092919082900301818387803b158015610b2657600080fd5b60065481565b60075481565b60085481565b600080610e7783611103565b90506000610e83610c0b565b905060008211610ec9576040805162461bcd60e51b815260206004820152600c60248201526b5a65726f2062616c616e636560a01b604482015290519081900360640190fd5b6000610ee060646107d4848663ffffffff61189c16565b6001600160a01b0386166000908152600e6020526040902054909150610f0d90829063ffffffff61188716565b95945050505050565b336000908152600f602052604090208054600a54610f399163ffffffff61188716565b600a5560055460408051630ecce30160e31b815290516001600160a01b0390921691637667180891600480820192602092909190829003018186803b158015610f8157600080fd5b505afa158015610f95573d6000803e3d6000fd5b505050506040513d6020811015610fab57600080fd5b5051600182015411801590610fc05750805415155b611011576040805162461bcd60e51b815260206004820152601c60248201527f496e636f6d706c657465207769746864726177616c20706572696f6400000000604482015290519081900360640190fd5b6005546006548254604080516323bbfda160e11b815260048101939093526024830191909152336044830152516001600160a01b0390921691634777fb42916064808201926020929091908290030181600087803b15801561107257600080fd5b505af1158015611086573d6000803e3d6000fd5b505050506040513d602081101561109c57600080fd5b50516110e5576040805162461bcd60e51b8152602060048201526013602482015272496e737566666963656e74207265776172647360681b604482015290519081900360640190fd5b50336000908152600f6020526040812081815560010155565b505050565b6001600160a01b031660009081526020819052604090205490565b6111266111b6565b61112f57600080fd5b6003546040516000916001600160a01b0316907f8be0079c531659141344cd1fd0a4f28419497f9722a3daafe3b4186f6b6457e0908390a3600380546001600160a01b0319169055565b6005546001600160a01b031681565b600a5481565b600f602052600090815260409020805460019091015482565b6003546001600160a01b031690565b6003546001600160a01b0316331490565b600b5481565b3360008181526001602090815260408083206001600160a01b038716845290915281205490916106fd918590610755908663ffffffff61188716565b6112116111b6565b61121a57600080fd5b6003805460ff60a01b19169055565b60006106fd33848461184f565b600061124133610e6b565b90506000611250610c81610c0b565b905061125c33826118ec565b600b5461126f908363ffffffff61188716565b600b55600554600654604080516323bbfda160e11b8152600481019290925260248201859052336044830152516001600160a01b0390921691634777fb42916064808201926020929091908290030181600087803b1580156112d057600080fd5b505af11580156112e4573d6000803e3d6000fd5b505050506040513d60208110156112fa57600080fd5b5051611343576040805162461bcd60e51b8152602060048201526013602482015272496e737566666963656e74207265776172647360681b604482015290519081900360640190fd5b600480546006546040805163af4cdabf60e01b8152938401919091523360248401526044830185905260648301849052516001600160a01b039091169163af4cdabf91608480830192600092919082900301818387803b158015610b8d57600080fd5b600354600160a01b900460ff1681565b6001600160a01b03918216600090815260016020908152604080832093909416825291909152205490565b600d5460ff1681565b60006113f533610e6b565b336000908152600e6020526040902054909150611418908263ffffffff61199316565b336000908152600e6020526040902055600a5461143b908263ffffffff61199316565b600a55600c54611451908263ffffffff61199316565b600c55600554600654604080516323bbfda160e11b8152600481019290925260248201849052306044830152516001600160a01b0390921691634777fb42916064808201926020929091908290030181600087803b1580156114b257600080fd5b505af11580156114c6573d6000803e3d6000fd5b505050506040513d60208110156114dc57600080fd5b5051611525576040805162461bcd60e51b8152602060048201526013602482015272496e737566666963656e74207265776172647360681b604482015290519081900360640190fd5b60055460065460408051629ff11560e81b8152600481019290925260248201849052516001600160a01b0390921691639ff115009160448082019260009290919082900301818387803b15801561157b57600080fd5b505af115801561158f573d6000803e3d6000fd5b5050600b546115a7925090508263ffffffff61188716565b600b55600480546006546040805163532e19a960e01b815293840191909152516001600160a01b039091169163532e19a991602480830192600092919082900301818387803b1580156115f957600080fd5b505af115801561160d573d6000803e3d6000fd5b5050505050565b600061161e6111b6565b61162757600080fd5b60055460065460408051630d6a8b9160e21b815260048101929092525160009283926001600160a01b03909116916335aa2e449160248082019261010092909190829003018186803b15801561167c57600080fd5b505afa158015611690573d6000803e3d6000fd5b505050506040513d6101008110156116a757600080fd5b5051600c549091506116c090829063ffffffff61199316565b915060006116d8856107d4858963ffffffff61189c16565b905060006116f0846107d4858563ffffffff61189c16565b905061172061171360646107d46008546107c8868861188790919063ffffffff16565b829063ffffffff61199316565b9050611732828263ffffffff61188716565b600754909250611748908263ffffffff61199316565b600755600b5461175e908363ffffffff61199316565b600b55509195945050505050565b600e6020526000908152604090205481565b6117866111b6565b61178f57600080fd5b61179881611a4d565b50565b60095481565b6117a96111b6565b6117b257600080fd5b6003805460ff60a01b1916600160a01b179055565b6001600160a01b0382166117da57600080fd5b6001600160a01b0383166117ed57600080fd5b6001600160a01b03808416600081815260016020908152604080832094871680845294825291829020859055815185815291517f8c5be1e5ebec7d5bd14f71427d1e84f3dd0314c0f7b2291e5b200ac8c7c3b9259281900390910190a3505050565b6040805162461bcd60e51b8152602060048201526008602482015267111a5cd8589b195960c21b604482015290519081900360640190fd5b60008282111561189657600080fd5b50900390565b6000826118ab57506000610701565b828202828482816118b857fe5b04146118c357600080fd5b9392505050565b60008082116118d857600080fd5b60008284816118e357fe5b04949350505050565b6001600160a01b0382166118ff57600080fd5b600254611912908263ffffffff61188716565b6002556001600160a01b03821660009081526020819052604090205461193e908263ffffffff61188716565b6001600160a01b038316600081815260208181526040808320949094558351858152935191937fddf252ad1be2c89b69c2b068fc378daa952ba7f163c4a11628f55a4df523b3ef929081900390910190a35050565b6000828201838110156118c357600080fd5b6001600160a01b0382166119b857600080fd5b6002546119cb908263ffffffff61199316565b6002556001600160a01b0382166000908152602081905260409020546119f7908263ffffffff61199316565b6001600160a01b0383166000818152602081815260408083209490945583518581529351929391927fddf252ad1be2c89b69c2b068fc378daa952ba7f163c4a11628f55a4df523b3ef9281900390910190a35050565b6001600160a01b038116611a6057600080fd5b6003546040516001600160a01b038084169216907f8be0079c531659141344cd1fd0a4f28419497f9722a3daafe3b4186f6b6457e090600090a3600380546001600160a01b0319166001600160a01b039290921691909117905556fe436f6d6d697373696f6e20726174652073686f756c6420626520696e2072616e6765206f6620302d313030a265627a7a723158206a044a633b5b24e79dd1d76667865016ebfeffe995fc340a8aa18fa98c3d9d0664736f6c634300050b0032",
  "source": "pragma solidity ^0.5.2;\n\nimport {Registry} from \"../common/Registry.sol\";\n\nimport {IValidatorShare} from \"./IValidatorShare.sol\";\n\n// TODO: refactor each function to reusable smaller internal functions\ncontract ValidatorShare is IValidatorShare {\n    // TODO: totalStake and active ammount issue\n    // TODO: transfer all the funds and rewards to/from stakeManager\n    constructor(\n        uint256 _validatorId,\n        address _stakingLogger,\n        address _stakeManager\n    ) public IValidatorShare(_validatorId, _stakingLogger, _stakeManager) {}\n\n    modifier onlyValidator() {\n        require(stakeManager.ownerOf(validatorId) == msg.sender);\n        _;\n    }\n\n    function udpateRewards(uint256 _reward, uint256 _totalStake)\n        external\n        onlyOwner\n        returns (uint256)\n    {\n        /**\n    TODO: check for no revert on 0 commission and reduce logic for calculations\n    TODO: better to add validator as one of share holder and\n     restaking is simply buying more shares of pool\n     but those needs to be nonswapable/transferrable(to prevent https://en.wikipedia.org/wiki/Tragedy_of_the_commons)\n\n      - calculate rewards for validator stake + delgation\n      - keep the validator rewards aside\n      - take the commission out\n      - add rewards to pool rewards\n      - returns total active stake for validator\n     */\n        uint256 stakePower;\n        uint256 valStake;\n        (valStake, , , , , , , ) = stakeManager.validators(validatorId); // to avoid Stack too deep :cry\n        stakePower = valStake.add(activeAmount); // validator + delegation stake power\n        uint256 _rewards = stakePower.mul(_reward).div(_totalStake);\n\n        uint256 _valRewards = valStake.mul(_rewards).div(stakePower);\n        // add validator commission from delegation rewards\n        _valRewards = _valRewards.add(\n            _rewards.sub(_valRewards).mul(commissionRate).div(100)\n        );\n        _rewards = _rewards.sub(_valRewards);\n        validatorRewards = validatorRewards.add(_valRewards);\n        rewards = rewards.add(_rewards);\n        return stakePower;\n    }\n\n    function updateCommissionRate(uint256 newCommissionRate)\n        external\n        onlyValidator\n    {\n        //todo: constrains on updates, coolDown period\n        require(\n            commissionRate <= 100,\n            \"Commission rate should be in range of 0-100\"\n        );\n        stakingLogger.logUpdateCommissionRate(\n            validatorId,\n            newCommissionRate,\n            commissionRate\n        );\n        commissionRate = newCommissionRate;\n    }\n\n    function withdrawRewardsValidator()\n        external\n        onlyOwner\n        returns (uint256 _rewards)\n    {\n        _rewards = validatorRewards;\n        validatorRewards = 0;\n    }\n\n    function exchangeRate() public view returns (uint256) {\n        return\n            totalSupply() == 0\n                ? 100\n                : activeAmount.add(rewards).mul(100).div(totalSupply());\n    }\n\n    function buyVoucher(uint256 _amount) public onlyWhenUnlocked {\n        uint256 share = _amount.mul(100).div(exchangeRate());\n        totalStake = totalStake.add(_amount);\n        amountStaked[msg.sender] = amountStaked[msg.sender].add(_amount);\n        stakeManager.delegationDeposit(validatorId, _amount, msg.sender);\n        _mint(msg.sender, share);\n        activeAmount = activeAmount.add(_amount);\n        stakeManager.updateValidatorState(validatorId, int256(_amount));\n\n        stakingLogger.logShareMinted(validatorId, msg.sender, _amount, share);\n        stakingLogger.logStakeUpdate(validatorId);\n    }\n\n    function sellVoucher() public {\n        uint256 share = balanceOf(msg.sender);\n        require(share > 0, \"Zero balance\");\n        uint256 _amount = exchangeRate().mul(share).div(100);\n        _burn(msg.sender, share);\n        stakeManager.updateValidatorState(validatorId, -int256(_amount));\n\n        activeAmount = activeAmount.sub(_amount);\n        if (_amount > amountStaked[msg.sender]) {\n            uint256 _rewards = _amount.sub(amountStaked[msg.sender]);\n            //withdrawTransfer\n            require(\n                stakeManager.delegationTransfer(\n                    validatorId,\n                    _rewards,\n                    msg.sender\n                ),\n                \"Insufficent rewards\"\n            );\n            _amount = _amount.sub(_rewards);\n        }\n\n        amountStaked[msg.sender] = 0; // TODO: add partial sell amountStaked[msg.sender].sub(_amount);\n        delegators[msg.sender] = Delegator({\n            amount: _amount,\n            withdrawEpoch: stakeManager.currentEpoch().add(\n                stakeManager.WITHDRAWAL_DELAY()\n            )\n        });\n\n        stakingLogger.logShareBurned(validatorId, msg.sender, _amount, share);\n        stakingLogger.logStakeUpdate(validatorId);\n    }\n\n    function withdrawRewards() public {\n        uint256 liquidRewards = getLiquidRewards(msg.sender);\n        uint256 sharesToBurn = liquidRewards.mul(100).div(exchangeRate());\n        // if (sharesToBurn > 0)\n        _burn(msg.sender, sharesToBurn);\n        rewards = rewards.sub(liquidRewards);\n        require(\n            stakeManager.delegationTransfer(\n                validatorId,\n                liquidRewards,\n                msg.sender\n            ),\n            \"Insufficent rewards\"\n        );\n        stakingLogger.logDelClaimRewards(\n            validatorId,\n            msg.sender,\n            liquidRewards,\n            sharesToBurn\n        );\n    }\n\n    function reStake() public {\n        /**\n      - only active amount is considers as active stake\n      - move reward amount to active stake pool\n      - no shares are minted\n     */\n        uint256 liquidRewards = getLiquidRewards(msg.sender);\n        amountStaked[msg.sender] = amountStaked[msg.sender].add(liquidRewards);\n        totalStake = totalStake.add(liquidRewards);\n        activeAmount = activeAmount.add(liquidRewards);\n        require(\n            stakeManager.delegationTransfer(\n                validatorId,\n                liquidRewards,\n                address(this)\n            ),\n            \"Insufficent rewards\"\n        );\n        stakeManager.updateValidatorState(validatorId, int256(liquidRewards));\n        rewards = rewards.sub(liquidRewards);\n        stakingLogger.logStakeUpdate(validatorId);\n        // TODO: add restake event\n    }\n\n    function getLiquidRewards(address user)\n        public\n        view\n        returns (uint256 liquidRewards)\n    {\n        uint256 share = balanceOf(user);\n        uint256 _exchangeRate = exchangeRate();\n        require(share > 0, \"Zero balance\");\n        uint256 totalTokens = _exchangeRate.mul(share).div(100);\n        liquidRewards = totalTokens.sub(amountStaked[user]);\n    }\n\n    function unStakeClaimTokens() public {\n        Delegator storage delegator = delegators[msg.sender];\n        totalStake = totalStake.sub(delegator.amount);\n        require(\n            delegator.withdrawEpoch <= stakeManager.currentEpoch() &&\n                delegator.amount > 0,\n            \"Incomplete withdrawal period\"\n        );\n        require(\n            stakeManager.delegationTransfer(\n                validatorId,\n                delegator.amount,\n                msg.sender\n            ),\n            \"Insufficent rewards\"\n        );\n        delete delegators[msg.sender];\n    }\n\n    function slash(uint256 slashRate, uint256 startEpoch, uint256 endEpoch)\n        public\n    {}\n    // function _slashActive() internal {}\n    // function _slashInActive() internal {}\n\n    function _transfer(address from, address to, uint256 value) internal {\n        revert(\"Disabled\");\n    }\n\n}\n",
  "sourcePath": "/Users/atvanguard/matic/contracts/contracts/staking/ValidatorShare.sol",
  "compiler": {
    "name": "solc",
    "version": "0.5.11+commit.c082d0b4.Emscripten.clang"
  },
  "schemaVersion": "3.0.14",
  "updatedAt": "2020-02-13T08:29:57.451Z",
  "devdoc": {
    "methods": {
      "allowance(address,address)": {
        "details": "Function to check the amount of tokens that an owner allowed to a spender.",
        "params": {
          "owner": "address The address which owns the funds.",
          "spender": "address The address which will spend the funds."
        },
        "return": "A uint256 specifying the amount of tokens still available for the spender."
      },
      "approve(address,uint256)": {
        "details": "Approve the passed address to spend the specified amount of tokens on behalf of msg.sender. Beware that changing an allowance with this method brings the risk that someone may use both the old and the new allowance by unfortunate transaction ordering. One possible solution to mitigate this race condition is to first reduce the spender's allowance to 0 and set the desired value afterwards: https://github.com/ethereum/EIPs/issues/20#issuecomment-263524729",
        "params": {
          "spender": "The address which will spend the funds.",
          "value": "The amount of tokens to be spent."
        }
      },
      "balanceOf(address)": {
        "details": "Gets the balance of the specified address.",
        "params": {
          "owner": "The address to query the balance of."
        },
        "return": "A uint256 representing the amount owned by the passed address."
      },
      "decreaseAllowance(address,uint256)": {
        "details": "Decrease the amount of tokens that an owner allowed to a spender. approve should be called when _allowed[msg.sender][spender] == 0. To decrement allowed value is better to use this function to avoid 2 calls (and wait until the first transaction is mined) From MonolithDAO Token.sol Emits an Approval event.",
        "params": {
          "spender": "The address which will spend the funds.",
          "subtractedValue": "The amount of tokens to decrease the allowance by."
        }
      },
      "increaseAllowance(address,uint256)": {
        "details": "Increase the amount of tokens that an owner allowed to a spender. approve should be called when _allowed[msg.sender][spender] == 0. To increment allowed value is better to use this function to avoid 2 calls (and wait until the first transaction is mined) From MonolithDAO Token.sol Emits an Approval event.",
        "params": {
          "addedValue": "The amount of tokens to increase the allowance by.",
          "spender": "The address which will spend the funds."
        }
      },
      "isOwner()": {
        "return": "true if `msg.sender` is the owner of the contract."
      },
      "owner()": {
        "return": "the address of the owner."
      },
      "renounceOwnership()": {
        "details": "Allows the current owner to relinquish control of the contract. It will not be possible to call the functions with the `onlyOwner` modifier anymore."
      },
      "totalSupply()": {
        "details": "Total number of tokens in existence"
      },
      "transfer(address,uint256)": {
        "details": "Transfer token to a specified address",
        "params": {
          "to": "The address to transfer to.",
          "value": "The amount to be transferred."
        }
      },
      "transferFrom(address,address,uint256)": {
        "details": "Transfer tokens from one address to another. Note that while this function emits an Approval event, this is not required as per the specification, and other compliant implementations may not emit the event.",
        "params": {
          "from": "address The address which you want to send tokens from",
          "to": "address The address which you want to transfer to",
          "value": "uint256 the amount of tokens to be transferred"
        }
      },
      "transferOwnership(address)": {
        "details": "Allows the current owner to transfer control of the contract to a newOwner.",
        "params": {
          "newOwner": "The address to transfer ownership to."
        }
      }
    }
  },
  "userdoc": {
    "methods": {
      "renounceOwnership()": {
        "notice": "Renouncing ownership will leave the contract without an owner, thereby removing any functionality that is only available to the owner."
      }
    }
  }
}