{
  "contractName": "Drainable",
  "abi": [
    {
      "constant": true,
      "inputs": [],
      "name": "childChain",
      "outputs": [
        {
          "internalType": "address",
          "name": "",
          "type": "address"
        }
      ],
      "payable": false,
      "stateMutability": "view",
      "type": "function"
    },
    {
      "constant": true,
      "inputs": [],
      "name": "governance",
      "outputs": [
        {
          "internalType": "contract IGovernance",
          "name": "",
          "type": "address"
        }
      ],
      "payable": false,
      "stateMutability": "view",
      "type": "function"
    },
    {
      "constant": false,
      "inputs": [],
      "name": "renounceOwnership",
      "outputs": [],
      "payable": false,
      "stateMutability": "nonpayable",
      "type": "function"
    },
    {
      "constant": true,
      "inputs": [],
      "name": "registry",
      "outputs": [
        {
          "internalType": "contract Registry",
          "name": "",
          "type": "address"
        }
      ],
      "payable": false,
      "stateMutability": "view",
      "type": "function"
    },
    {
      "constant": true,
      "inputs": [],
      "name": "owner",
      "outputs": [
        {
          "internalType": "address",
          "name": "",
          "type": "address"
        }
      ],
      "payable": false,
      "stateMutability": "view",
      "type": "function"
    },
    {
      "constant": true,
      "inputs": [],
      "name": "isOwner",
      "outputs": [
        {
          "internalType": "bool",
          "name": "",
          "type": "bool"
        }
      ],
      "payable": false,
      "stateMutability": "view",
      "type": "function"
    },
    {
      "constant": true,
      "inputs": [],
      "name": "rootChain",
      "outputs": [
        {
          "internalType": "contract RootChain",
          "name": "",
          "type": "address"
        }
      ],
      "payable": false,
      "stateMutability": "view",
      "type": "function"
    },
    {
      "constant": false,
      "inputs": [],
      "name": "unlock",
      "outputs": [],
      "payable": false,
      "stateMutability": "nonpayable",
      "type": "function"
    },
    {
      "constant": true,
      "inputs": [
        {
          "internalType": "uint256",
          "name": "",
          "type": "uint256"
        }
      ],
      "name": "deposits",
      "outputs": [
        {
          "internalType": "bytes32",
          "name": "depositHash",
          "type": "bytes32"
        },
        {
          "internalType": "uint256",
          "name": "createdAt",
          "type": "uint256"
        }
      ],
      "payable": false,
      "stateMutability": "view",
      "type": "function"
    },
    {
      "constant": true,
      "inputs": [],
      "name": "stateSender",
      "outputs": [
        {
          "internalType": "contract StateSender",
          "name": "",
          "type": "address"
        }
      ],
      "payable": false,
      "stateMutability": "view",
      "type": "function"
    },
    {
      "constant": true,
      "inputs": [],
      "name": "locked",
      "outputs": [
        {
          "internalType": "bool",
          "name": "",
          "type": "bool"
        }
      ],
      "payable": false,
      "stateMutability": "view",
      "type": "function"
    },
    {
      "constant": false,
      "inputs": [
        {
          "internalType": "address",
          "name": "newOwner",
          "type": "address"
        }
      ],
      "name": "transferOwnership",
      "outputs": [],
      "payable": false,
      "stateMutability": "nonpayable",
      "type": "function"
    },
    {
      "constant": false,
      "inputs": [],
      "name": "lock",
      "outputs": [],
      "payable": false,
      "stateMutability": "nonpayable",
      "type": "function"
    },
    {
      "inputs": [],
      "payable": false,
      "stateMutability": "nonpayable",
      "type": "constructor"
    },
    {
      "anonymous": false,
      "inputs": [
        {
          "indexed": true,
          "internalType": "address",
          "name": "owner",
          "type": "address"
        },
        {
          "indexed": true,
          "internalType": "address",
          "name": "token",
          "type": "address"
        },
        {
          "indexed": false,
          "internalType": "uint256",
          "name": "amountOrNFTId",
          "type": "uint256"
        },
        {
          "indexed": false,
          "internalType": "uint256",
          "name": "depositBlockId",
          "type": "uint256"
        }
      ],
      "name": "NewDepositBlock",
      "type": "event"
    },
    {
      "anonymous": false,
      "inputs": [
        {
          "indexed": true,
          "internalType": "address",
          "name": "previousOwner",
          "type": "address"
        },
        {
          "indexed": true,
          "internalType": "address",
          "name": "newOwner",
          "type": "address"
        }
      ],
      "name": "OwnershipTransferred",
      "type": "event"
    },
    {
      "constant": false,
      "inputs": [
        {
          "internalType": "address[]",
          "name": "tokens",
          "type": "address[]"
        },
        {
          "internalType": "uint256[]",
          "name": "values",
          "type": "uint256[]"
        },
        {
          "internalType": "address",
          "name": "destination",
          "type": "address"
        }
      ],
      "name": "drainErc20",
      "outputs": [],
      "payable": false,
      "stateMutability": "nonpayable",
      "type": "function"
    },
    {
      "constant": false,
      "inputs": [
        {
          "internalType": "address[]",
          "name": "tokens",
          "type": "address[]"
        },
        {
          "internalType": "uint256[]",
          "name": "values",
          "type": "uint256[]"
        },
        {
          "internalType": "address",
          "name": "destination",
          "type": "address"
        }
      ],
      "name": "drainErc721",
      "outputs": [],
      "payable": false,
      "stateMutability": "nonpayable",
      "type": "function"
    },
    {
      "constant": false,
      "inputs": [
        {
          "internalType": "uint256",
          "name": "amount",
          "type": "uint256"
        },
        {
          "internalType": "address payable",
          "name": "destination",
          "type": "address"
        }
      ],
      "name": "drainEther",
      "outputs": [],
      "payable": false,
      "stateMutability": "nonpayable",
      "type": "function"
    }
  ],
  "bytecode": "0x608060405234801561001057600080fd5b50600080546001600160a01b031916331780825560405182916001600160a01b03169082907f8be0079c531659141344cd1fd0a4f28419497f9722a3daafe3b4186f6b6457e0908290a3600280546001600160a01b0319166001600160a01b039290921691909117905550610a648061008a6000396000f3fe608060405234801561001057600080fd5b50600436106101005760003560e01c8063987ab9db11610097578063cb10f94c11610066578063cb10f94c14610367578063cf3090121461036f578063f2fde38b14610377578063f83d08ba1461039d57610100565b8063987ab9db146102f5578063a69df4b5146102fd578063ad22b1d114610305578063b02c43d01461033157610100565b80637a2ca379116100d35780637a2ca379146102025780637b103999146102c95780638da5cb5b146102d15780638f32d59b146102d957610100565b806342fc47fb14610105578063523f3088146101295780635aa6e675146101f2578063715018a6146101fa575b600080fd5b61010d6103a5565b604080516001600160a01b039092168252519081900360200190f35b6101f06004803603606081101561013f57600080fd5b810190602081018135600160201b81111561015957600080fd5b82018360208201111561016b57600080fd5b803590602001918460208302840111600160201b8311171561018c57600080fd5b919390929091602081019035600160201b8111156101a957600080fd5b8201836020820111156101bb57600080fd5b803590602001918460208302840111600160201b831117156101dc57600080fd5b9193509150356001600160a01b03166103b4565b005b61010d610558565b6101f0610567565b6101f06004803603606081101561021857600080fd5b810190602081018135600160201b81111561023257600080fd5b82018360208201111561024457600080fd5b803590602001918460208302840111600160201b8311171561026557600080fd5b919390929091602081019035600160201b81111561028257600080fd5b82018360208201111561029457600080fd5b803590602001918460208302840111600160201b831117156102b557600080fd5b9193509150356001600160a01b03166105c2565b61010d610725565b61010d610734565b6102e1610743565b604080519115158252519081900360200190f35b61010d610754565b6101f0610763565b6101f06004803603604081101561031b57600080fd5b50803590602001356001600160a01b03166107bb565b61034e6004803603602081101561034757600080fd5b50356108e8565b6040805192835260208301919091528051918290030190f35b61010d610901565b6102e1610910565b6101f06004803603602081101561038d57600080fd5b50356001600160a01b0316610920565b6101f061093d565b6007546001600160a01b031681565b6002546001600160a01b031633146103fd5760405162461bcd60e51b8152600401808060200182810382526026815260200180610a0a6026913960400191505060405180910390fd5b838214610441576040805162461bcd60e51b815260206004820152600d60248201526c1a5b9d985b1a59081a5b9c1d5d609a1b604482015290519081900360640190fd5b60005b848110156105505785858281811061045857fe5b905060200201356001600160a01b03166001600160a01b031663a9059cbb8386868581811061048357fe5b905060200201356040518363ffffffff1660e01b815260040180836001600160a01b03166001600160a01b0316815260200182815260200192505050602060405180830381600087803b1580156104d957600080fd5b505af11580156104ed573d6000803e3d6000fd5b505050506040513d602081101561050357600080fd5b5051610548576040805162461bcd60e51b815260206004820152600f60248201526e151c985b9cd9995c8819985a5b1959608a1b604482015290519081900360640190fd5b600101610444565b505050505050565b6002546001600160a01b031681565b61056f610743565b61057857600080fd5b600080546040516001600160a01b03909116907f8be0079c531659141344cd1fd0a4f28419497f9722a3daafe3b4186f6b6457e0908390a3600080546001600160a01b0319169055565b6002546001600160a01b0316331461060b5760405162461bcd60e51b8152600401808060200182810382526026815260200180610a0a6026913960400191505060405180910390fd5b83821461064f576040805162461bcd60e51b815260206004820152600d60248201526c1a5b9d985b1a59081a5b9c1d5d609a1b604482015290519081900360640190fd5b60005b848110156105505785858281811061066657fe5b905060200201356001600160a01b03166001600160a01b03166323b872dd308487878681811061069257fe5b905060200201356040518463ffffffff1660e01b815260040180846001600160a01b03166001600160a01b03168152602001836001600160a01b03166001600160a01b031681526020018281526020019350505050600060405180830381600087803b15801561070157600080fd5b505af1158015610715573d6000803e3d6000fd5b5050600190920191506106529050565b6003546001600160a01b031681565b6000546001600160a01b031690565b6000546001600160a01b0316331490565b6004546001600160a01b031681565b6002546001600160a01b031633146107ac5760405162461bcd60e51b8152600401808060200182810382526026815260200180610a0a6026913960400191505060405180910390fd5b6002805460ff60a01b19169055565b6002546001600160a01b031633146108045760405162461bcd60e51b8152600401808060200182810382526026815260200180610a0a6026913960400191505060405180910390fd5b60035460408051638b9c948960e01b815290516000926001600160a01b031691638b9c9489916004808301926020929190829003018186803b15801561084957600080fd5b505afa15801561085d573d6000803e3d6000fd5b505050506040513d602081101561087357600080fd5b505160408051627b8a6760e11b8152600481018690526001600160a01b038581166024830152915192935083929183169162f714ce9160448082019260009290919082900301818387803b1580156108ca57600080fd5b505af11580156108de573d6000803e3d6000fd5b5050505050505050565b6006602052600090815260409020805460019091015482565b6005546001600160a01b031681565b600254600160a01b900460ff1681565b610928610743565b61093157600080fd5b61093a8161099b565b50565b6002546001600160a01b031633146109865760405162461bcd60e51b8152600401808060200182810382526026815260200180610a0a6026913960400191505060405180910390fd5b6002805460ff60a01b1916600160a01b179055565b6001600160a01b0381166109ae57600080fd5b600080546040516001600160a01b03808516939216917f8be0079c531659141344cd1fd0a4f28419497f9722a3daafe3b4186f6b6457e091a3600080546001600160a01b0319166001600160a01b039290921691909117905556fe4f6e6c7920676f7665726e616e636520636f6e747261637420697320617574686f72697a6564a265627a7a7231582017f378ab6ccffaf60ae8d2d9ac38b0a9de45966eb4df2c587c2415b1e024e64b64736f6c634300050b0032",
  "source": "pragma solidity ^0.5.2;\n\nimport { DepositManagerStorage } from \"../../root/depositManager/DepositManagerStorage.sol\";\nimport { Lockable } from \"../mixin/Lockable.sol\";\nimport { IERC20 } from \"openzeppelin-solidity/contracts/token/ERC20/IERC20.sol\";\nimport { IERC721 } from \"openzeppelin-solidity/contracts/token/ERC721/IERC721.sol\";\nimport { WETH } from \"../tokens/WETH.sol\";\n\n\ncontract Drainable is DepositManagerStorage {\n\n  constructor() public Lockable(address(0x0)) {}\n\n  function drainErc20(\n    address[] calldata tokens,\n    uint256[] calldata values,\n    address destination\n  ) external onlyGovernance {\n    require((tokens.length == values.length), \"invalid input\");\n    for (uint256 i = 0; i < tokens.length; i++) {\n      require (\n        IERC20(tokens[i]).transfer(destination, values[i]), \"Transfer failed\"\n      );\n    }\n  }\n\n  function drainErc721(\n    address[] calldata tokens,\n    uint256[] calldata values,\n    address destination\n  ) external onlyGovernance {\n    require((tokens.length == values.length), \"invalid input\");\n    for (uint256 i = 0; i < tokens.length; i ++) {\n      IERC721(tokens[i]).transferFrom(address(this), destination, values[i]);\n    }\n  }\n\n  function drainEther(\n    uint256 amount,\n    address payable destination\n  ) external onlyGovernance {\n    address wethToken = registry.getWethTokenAddress();\n    WETH t = WETH(wethToken);\n    t.withdraw(amount, destination);\n  }\n}\n",
  "sourcePath": "/Users/arth/Documents/Projects/contracts/contracts/common/misc/Drainable.sol",
  "compiler": {
    "name": "solc",
    "version": "0.5.11+commit.c082d0b4.Emscripten.clang"
  },
  "schemaVersion": "3.0.14",
  "updatedAt": "2020-05-16T09:22:50.328Z",
  "devdoc": {
    "methods": {
      "isOwner()": {
        "return": "true if `msg.sender` is the owner of the contract."
      },
      "owner()": {
        "return": "the address of the owner."
      },
      "renounceOwnership()": {
        "details": "Allows the current owner to relinquish control of the contract. It will not be possible to call the functions with the `onlyOwner` modifier anymore."
      },
      "transferOwnership(address)": {
        "details": "Allows the current owner to transfer control of the contract to a newOwner.",
        "params": {
          "newOwner": "The address to transfer ownership to."
        }
      }
    }
  },
  "userdoc": {
    "methods": {
      "renounceOwnership()": {
        "notice": "Renouncing ownership will leave the contract without an owner, thereby removing any functionality that is only available to the owner."
      }
    }
  }
}