{
  "contractName": "Governable",
  "abi": [
    {
      "constant": true,
      "inputs": [],
      "name": "governance",
      "outputs": [
        {
          "internalType": "contract IGovernance",
          "name": "",
          "type": "address"
        }
      ],
      "payable": false,
      "stateMutability": "view",
      "type": "function"
    },
    {
      "inputs": [
        {
          "internalType": "address",
          "name": "_governance",
          "type": "address"
        }
      ],
      "payable": false,
      "stateMutability": "nonpayable",
      "type": "constructor"
    }
  ],
  "bytecode": "0x608060405234801561001057600080fd5b506040516100f73803806100f78339818101604052602081101561003357600080fd5b5051600080546001600160a01b039092166001600160a01b03199092169190911790556093806100646000396000f3fe6080604052348015600f57600080fd5b506004361060285760003560e01c80635aa6e67514602d575b600080fd5b6033604f565b604080516001600160a01b039092168252519081900360200190f35b6000546001600160a01b03168156fea265627a7a72315820c66c4d86b48075380d305e75fc780255138fe1e418d6514874c9887b0c1f5eda64736f6c634300050b0032",
  "source": "pragma solidity ^0.5.2;\n\nimport {IGovernance} from \"./IGovernance.sol\";\n\ncontract Governable {\n    IGovernance public governance;\n\n    constructor(address _governance) public {\n        governance = IGovernance(_governance);\n    }\n\n    modifier onlyGovernance() {\n        require(\n            msg.sender == address(governance),\n            \"Only governance contract is authorized\"\n        );\n        _;\n    }\n}\n",
  "sourcePath": "/Users/arth/Documents/Projects/contracts/contracts/common/governance/Governable.sol",
  "compiler": {
    "name": "solc",
    "version": "0.5.11+commit.c082d0b4.Emscripten.clang"
  },
  "schemaVersion": "3.0.14",
  "updatedAt": "2020-05-14T11:41:21.794Z",
  "devdoc": {
    "methods": {}
  },
  "userdoc": {
    "methods": {}
  }
}