{
  "contractName": "StakeManager",
  "abi": [
    {
      "constant": true,
      "inputs": [],
      "name": "auctionPeriod",
      "outputs": [
        {
          "internalType": "uint256",
          "name": "",
          "type": "uint256"
        }
      ],
      "payable": false,
      "stateMutability": "view",
      "type": "function"
    },
    {
      "constant": true,
      "inputs": [],
      "name": "totalRewards",
      "outputs": [
        {
          "internalType": "uint256",
          "name": "",
          "type": "uint256"
        }
      ],
      "payable": false,
      "stateMutability": "view",
      "type": "function"
    },
    {
      "constant": true,
      "inputs": [],
      "name": "WITHDRAWAL_DELAY",
      "outputs": [
        {
          "internalType": "uint256",
          "name": "",
          "type": "uint256"
        }
      ],
      "payable": false,
      "stateMutability": "view",
      "type": "function"
    },
    {
      "constant": true,
      "inputs": [],
      "name": "accountStateRoot",
      "outputs": [
        {
          "internalType": "bytes32",
          "name": "",
          "type": "bytes32"
        }
      ],
      "payable": false,
      "stateMutability": "view",
      "type": "function"
    },
    {
      "constant": true,
      "inputs": [],
      "name": "checkPointBlockInterval",
      "outputs": [
        {
          "internalType": "uint256",
          "name": "",
          "type": "uint256"
        }
      ],
      "payable": false,
      "stateMutability": "view",
      "type": "function"
    },
    {
      "constant": true,
      "inputs": [],
      "name": "NFTContract",
      "outputs": [
        {
          "internalType": "contract StakingNFT",
          "name": "",
          "type": "address"
        }
      ],
      "payable": false,
      "stateMutability": "view",
      "type": "function"
    },
    {
      "constant": true,
      "inputs": [],
      "name": "proposerBonus",
      "outputs": [
        {
          "internalType": "uint256",
          "name": "",
          "type": "uint256"
        }
      ],
      "payable": false,
      "stateMutability": "view",
      "type": "function"
    },
    {
      "constant": true,
      "inputs": [
        {
          "internalType": "uint256",
          "name": "",
          "type": "uint256"
        }
      ],
      "name": "validators",
      "outputs": [
        {
          "internalType": "uint256",
          "name": "amount",
          "type": "uint256"
        },
        {
          "internalType": "uint256",
          "name": "reward",
          "type": "uint256"
        },
        {
          "internalType": "uint256",
          "name": "activationEpoch",
          "type": "uint256"
        },
        {
          "internalType": "uint256",
          "name": "deactivationEpoch",
          "type": "uint256"
        },
        {
          "internalType": "uint256",
          "name": "jailTime",
          "type": "uint256"
        },
        {
          "internalType": "address",
          "name": "signer",
          "type": "address"
        },
        {
          "internalType": "address",
          "name": "contractAddress",
          "type": "address"
        },
        {
          "internalType": "enum StakeManagerStorage.Status",
          "name": "status",
          "type": "uint8"
        }
      ],
      "payable": false,
      "stateMutability": "view",
      "type": "function"
    },
    {
      "constant": true,
      "inputs": [
        {
          "internalType": "address",
          "name": "",
          "type": "address"
        }
      ],
      "name": "signerToValidator",
      "outputs": [
        {
          "internalType": "uint256",
          "name": "",
          "type": "uint256"
        }
      ],
      "payable": false,
      "stateMutability": "view",
      "type": "function"
    },
    {
      "constant": true,
      "inputs": [],
      "name": "minDeposit",
      "outputs": [
        {
          "internalType": "uint256",
          "name": "",
          "type": "uint256"
        }
      ],
      "payable": false,
      "stateMutability": "view",
      "type": "function"
    },
    {
      "constant": true,
      "inputs": [],
      "name": "signerUpdateLimit",
      "outputs": [
        {
          "internalType": "uint256",
          "name": "",
          "type": "uint256"
        }
      ],
      "payable": false,
      "stateMutability": "view",
      "type": "function"
    },
    {
      "constant": true,
      "inputs": [],
      "name": "validatorThreshold",
      "outputs": [
        {
          "internalType": "uint256",
          "name": "",
          "type": "uint256"
        }
      ],
      "payable": false,
      "stateMutability": "view",
      "type": "function"
    },
    {
      "constant": true,
      "inputs": [
        {
          "internalType": "uint256",
          "name": "",
          "type": "uint256"
        }
      ],
      "name": "validatorAuction",
      "outputs": [
        {
          "internalType": "uint256",
          "name": "amount",
          "type": "uint256"
        },
        {
          "internalType": "uint256",
          "name": "startEpoch",
          "type": "uint256"
        },
        {
          "internalType": "address",
          "name": "user",
          "type": "address"
        }
      ],
      "payable": false,
      "stateMutability": "view",
      "type": "function"
    },
    {
      "constant": true,
      "inputs": [],
      "name": "delegationEnabled",
      "outputs": [
        {
          "internalType": "bool",
          "name": "",
          "type": "bool"
        }
      ],
      "payable": false,
      "stateMutability": "view",
      "type": "function"
    },
    {
      "constant": true,
      "inputs": [],
      "name": "NFTCounter",
      "outputs": [
        {
          "internalType": "uint256",
          "name": "",
          "type": "uint256"
        }
      ],
      "payable": false,
      "stateMutability": "view",
      "type": "function"
    },
    {
      "constant": true,
      "inputs": [],
      "name": "governance",
      "outputs": [
        {
          "internalType": "contract IGovernance",
          "name": "",
          "type": "address"
        }
      ],
      "payable": false,
      "stateMutability": "view",
      "type": "function"
    },
    {
      "constant": true,
      "inputs": [
        {
          "internalType": "uint256",
          "name": "",
          "type": "uint256"
        }
      ],
      "name": "validatorState",
      "outputs": [
        {
          "internalType": "int256",
          "name": "amount",
          "type": "int256"
        },
        {
          "internalType": "int256",
          "name": "stakerCount",
          "type": "int256"
        }
      ],
      "payable": false,
      "stateMutability": "view",
      "type": "function"
    },
    {
      "constant": true,
      "inputs": [],
      "name": "dynasty",
      "outputs": [
        {
          "internalType": "uint256",
          "name": "",
          "type": "uint256"
        }
      ],
      "payable": false,
      "stateMutability": "view",
      "type": "function"
    },
    {
      "constant": false,
      "inputs": [],
      "name": "renounceOwnership",
      "outputs": [],
      "payable": false,
      "stateMutability": "nonpayable",
      "type": "function"
    },
    {
      "constant": true,
      "inputs": [],
      "name": "currentEpoch",
      "outputs": [
        {
          "internalType": "uint256",
          "name": "",
          "type": "uint256"
        }
      ],
      "payable": false,
      "stateMutability": "view",
      "type": "function"
    },
    {
      "constant": true,
      "inputs": [],
      "name": "replacementCoolDown",
      "outputs": [
        {
          "internalType": "uint256",
          "name": "",
          "type": "uint256"
        }
      ],
      "payable": false,
      "stateMutability": "view",
      "type": "function"
    },
    {
      "constant": true,
      "inputs": [
        {
          "internalType": "address",
          "name": "",
          "type": "address"
        }
      ],
      "name": "userFeeExit",
      "outputs": [
        {
          "internalType": "uint256",
          "name": "",
          "type": "uint256"
        }
      ],
      "payable": false,
      "stateMutability": "view",
      "type": "function"
    },
    {
      "constant": true,
      "inputs": [],
      "name": "registry",
      "outputs": [
        {
          "internalType": "address",
          "name": "",
          "type": "address"
        }
      ],
      "payable": false,
      "stateMutability": "view",
      "type": "function"
    },
    {
      "constant": true,
      "inputs": [],
      "name": "CHECKPOINT_REWARD",
      "outputs": [
        {
          "internalType": "uint256",
          "name": "",
          "type": "uint256"
        }
      ],
      "payable": false,
      "stateMutability": "view",
      "type": "function"
    },
    {
      "constant": true,
      "inputs": [],
      "name": "totalStaked",
      "outputs": [
        {
          "internalType": "uint256",
          "name": "",
          "type": "uint256"
        }
      ],
      "payable": false,
      "stateMutability": "view",
      "type": "function"
    },
    {
      "constant": true,
      "inputs": [],
      "name": "owner",
      "outputs": [
        {
          "internalType": "address",
          "name": "",
          "type": "address"
        }
      ],
      "payable": false,
      "stateMutability": "view",
      "type": "function"
    },
    {
      "constant": true,
      "inputs": [],
      "name": "isOwner",
      "outputs": [
        {
          "internalType": "bool",
          "name": "",
          "type": "bool"
        }
      ],
      "payable": false,
      "stateMutability": "view",
      "type": "function"
    },
    {
      "constant": true,
      "inputs": [],
      "name": "rootChain",
      "outputs": [
        {
          "internalType": "address",
          "name": "",
          "type": "address"
        }
      ],
      "payable": false,
      "stateMutability": "view",
      "type": "function"
    },
    {
      "constant": true,
      "inputs": [],
      "name": "totalHeimdallFee",
      "outputs": [
        {
          "internalType": "uint256",
          "name": "",
          "type": "uint256"
        }
      ],
      "payable": false,
      "stateMutability": "view",
      "type": "function"
    },
    {
      "constant": false,
      "inputs": [],
      "name": "unlock",
      "outputs": [],
      "payable": false,
      "stateMutability": "nonpayable",
      "type": "function"
    },
    {
      "constant": true,
      "inputs": [],
      "name": "factory",
      "outputs": [
        {
          "internalType": "contract ValidatorShareFactory",
          "name": "",
          "type": "address"
        }
      ],
      "payable": false,
      "stateMutability": "view",
      "type": "function"
    },
    {
      "constant": true,
      "inputs": [],
      "name": "totalRewardsLiquidated",
      "outputs": [
        {
          "internalType": "uint256",
          "name": "",
          "type": "uint256"
        }
      ],
      "payable": false,
      "stateMutability": "view",
      "type": "function"
    },
    {
      "constant": true,
      "inputs": [],
      "name": "locked",
      "outputs": [
        {
          "internalType": "bool",
          "name": "",
          "type": "bool"
        }
      ],
      "payable": false,
      "stateMutability": "view",
      "type": "function"
    },
    {
      "constant": true,
      "inputs": [
        {
          "internalType": "uint256",
          "name": "",
          "type": "uint256"
        }
      ],
      "name": "latestSignerUpdateEpoch",
      "outputs": [
        {
          "internalType": "uint256",
          "name": "",
          "type": "uint256"
        }
      ],
      "payable": false,
      "stateMutability": "view",
      "type": "function"
    },
    {
      "constant": false,
      "inputs": [
        {
          "internalType": "address",
          "name": "newRootChain",
          "type": "address"
        }
      ],
      "name": "changeRootChain",
      "outputs": [],
      "payable": false,
      "stateMutability": "nonpayable",
      "type": "function"
    },
    {
      "constant": true,
      "inputs": [],
      "name": "logger",
      "outputs": [
        {
          "internalType": "contract StakingInfo",
          "name": "",
          "type": "address"
        }
      ],
      "payable": false,
      "stateMutability": "view",
      "type": "function"
    },
    {
      "constant": false,
      "inputs": [
        {
          "internalType": "address",
          "name": "newOwner",
          "type": "address"
        }
      ],
      "name": "transferOwnership",
      "outputs": [],
      "payable": false,
      "stateMutability": "nonpayable",
      "type": "function"
    },
    {
      "constant": false,
      "inputs": [],
      "name": "lock",
      "outputs": [],
      "payable": false,
      "stateMutability": "nonpayable",
      "type": "function"
    },
    {
      "constant": true,
      "inputs": [],
      "name": "minHeimdallFee",
      "outputs": [
        {
          "internalType": "uint256",
          "name": "",
          "type": "uint256"
        }
      ],
      "payable": false,
      "stateMutability": "view",
      "type": "function"
    },
    {
      "constant": true,
      "inputs": [],
      "name": "token",
      "outputs": [
        {
          "internalType": "contract IERC20",
          "name": "",
          "type": "address"
        }
      ],
      "payable": false,
      "stateMutability": "view",
      "type": "function"
    },
    {
      "inputs": [],
      "payable": false,
      "stateMutability": "nonpayable",
      "type": "constructor"
    },
    {
      "anonymous": false,
      "inputs": [
        {
          "indexed": true,
          "internalType": "address",
          "name": "previousRootChain",
          "type": "address"
        },
        {
          "indexed": true,
          "internalType": "address",
          "name": "newRootChain",
          "type": "address"
        }
      ],
      "name": "RootChainChanged",
      "type": "event"
    },
    {
      "anonymous": false,
      "inputs": [
        {
          "indexed": true,
          "internalType": "address",
          "name": "previousOwner",
          "type": "address"
        },
        {
          "indexed": true,
          "internalType": "address",
          "name": "newOwner",
          "type": "address"
        }
      ],
      "name": "OwnershipTransferred",
      "type": "event"
    },
    {
      "constant": false,
      "inputs": [
        {
          "internalType": "bool",
          "name": "enabled",
          "type": "bool"
        }
      ],
      "name": "setDelegationEnabled",
      "outputs": [],
      "payable": false,
      "stateMutability": "nonpayable",
      "type": "function"
    },
    {
      "constant": false,
      "inputs": [
        {
          "internalType": "address",
          "name": "user",
          "type": "address"
        },
        {
          "internalType": "uint256",
          "name": "heimdallFee",
          "type": "uint256"
        }
      ],
      "name": "topUpForFee",
      "outputs": [],
      "payable": false,
      "stateMutability": "nonpayable",
      "type": "function"
    },
    {
      "constant": true,
      "inputs": [
        {
          "internalType": "uint256",
          "name": "tokenId",
          "type": "uint256"
        }
      ],
      "name": "ownerOf",
      "outputs": [
        {
          "internalType": "address",
          "name": "",
          "type": "address"
        }
      ],
      "payable": false,
      "stateMutability": "view",
      "type": "function"
    },
    {
      "constant": true,
      "inputs": [],
      "name": "epoch",
      "outputs": [
        {
          "internalType": "uint256",
          "name": "",
          "type": "uint256"
        }
      ],
      "payable": false,
      "stateMutability": "view",
      "type": "function"
    },
    {
      "constant": true,
      "inputs": [],
      "name": "withdrawalDelay",
      "outputs": [
        {
          "internalType": "uint256",
          "name": "",
          "type": "uint256"
        }
      ],
      "payable": false,
      "stateMutability": "view",
      "type": "function"
    },
    {
      "constant": true,
      "inputs": [
        {
          "internalType": "uint256",
          "name": "validatorId",
          "type": "uint256"
        }
      ],
      "name": "validatorStake",
      "outputs": [
        {
          "internalType": "uint256",
          "name": "",
          "type": "uint256"
        }
      ],
      "payable": false,
      "stateMutability": "view",
      "type": "function"
    },
    {
      "constant": false,
      "inputs": [
        {
          "internalType": "uint256",
          "name": "accumFeeAmount",
          "type": "uint256"
        },
        {
          "internalType": "uint256",
          "name": "index",
          "type": "uint256"
        },
        {
          "internalType": "bytes",
          "name": "proof",
          "type": "bytes"
        }
      ],
      "name": "claimFee",
      "outputs": [],
      "payable": false,
      "stateMutability": "nonpayable",
      "type": "function"
    },
    {
      "constant": false,
      "inputs": [
        {
          "internalType": "uint256",
          "name": "amount",
          "type": "uint256"
        },
        {
          "internalType": "uint256",
          "name": "heimdallFee",
          "type": "uint256"
        },
        {
          "internalType": "bool",
          "name": "acceptDelegation",
          "type": "bool"
        },
        {
          "internalType": "bytes",
          "name": "signerPubkey",
          "type": "bytes"
        }
      ],
      "name": "stake",
      "outputs": [],
      "payable": false,
      "stateMutability": "nonpayable",
      "type": "function"
    },
    {
      "constant": true,
      "inputs": [
        {
          "internalType": "address",
          "name": "user",
          "type": "address"
        }
      ],
      "name": "totalStakedFor",
      "outputs": [
        {
          "internalType": "uint256",
          "name": "",
          "type": "uint256"
        }
      ],
      "payable": false,
      "stateMutability": "view",
      "type": "function"
    },
    {
      "constant": true,
      "inputs": [],
      "name": "supportsHistory",
      "outputs": [
        {
          "internalType": "bool",
          "name": "",
          "type": "bool"
        }
      ],
      "payable": false,
      "stateMutability": "pure",
      "type": "function"
    },
    {
      "constant": false,
      "inputs": [
        {
          "internalType": "uint256",
          "name": "validatorId",
          "type": "uint256"
        },
        {
          "internalType": "uint256",
          "name": "amount",
          "type": "uint256"
        }
      ],
      "name": "startAuction",
      "outputs": [],
      "payable": false,
      "stateMutability": "nonpayable",
      "type": "function"
    },
    {
      "constant": false,
      "inputs": [
        {
          "internalType": "uint256",
          "name": "validatorId",
          "type": "uint256"
        },
        {
          "internalType": "uint256",
          "name": "heimdallFee",
          "type": "uint256"
        },
        {
          "internalType": "bool",
          "name": "acceptDelegation",
          "type": "bool"
        },
        {
          "internalType": "bytes",
          "name": "signerPubkey",
          "type": "bytes"
        }
      ],
      "name": "confirmAuctionBid",
      "outputs": [],
      "payable": false,
      "stateMutability": "nonpayable",
      "type": "function"
    },
    {
      "constant": false,
      "inputs": [
        {
          "internalType": "uint256",
          "name": "validatorId",
          "type": "uint256"
        }
      ],
      "name": "unstake",
      "outputs": [],
      "payable": false,
      "stateMutability": "nonpayable",
      "type": "function"
    },
    {
      "constant": false,
      "inputs": [
        {
          "internalType": "uint256",
          "name": "validatorId",
          "type": "uint256"
        }
      ],
      "name": "forceUnstake",
      "outputs": [],
      "payable": false,
      "stateMutability": "nonpayable",
      "type": "function"
    },
    {
      "constant": false,
      "inputs": [
        {
          "internalType": "address",
          "name": "_registry",
          "type": "address"
        },
        {
          "internalType": "address",
          "name": "_rootchain",
          "type": "address"
        },
        {
          "internalType": "address",
          "name": "_NFTContract",
          "type": "address"
        },
        {
          "internalType": "address",
          "name": "_stakingLogger",
          "type": "address"
        },
        {
          "internalType": "address",
          "name": "_ValidatorShareFactory",
          "type": "address"
        }
      ],
      "name": "updateConstructor",
      "outputs": [],
      "payable": false,
      "stateMutability": "nonpayable",
      "type": "function"
    },
    {
      "constant": false,
      "inputs": [
        {
          "internalType": "uint256",
          "name": "validatorId",
          "type": "uint256"
        },
        {
          "internalType": "uint256",
          "name": "amount",
          "type": "uint256"
        },
        {
          "internalType": "address",
          "name": "delegator",
          "type": "address"
        }
      ],
      "name": "transferFunds",
      "outputs": [
        {
          "internalType": "bool",
          "name": "",
          "type": "bool"
        }
      ],
      "payable": false,
      "stateMutability": "nonpayable",
      "type": "function"
    },
    {
      "constant": false,
      "inputs": [
        {
          "internalType": "uint256",
          "name": "validatorId",
          "type": "uint256"
        },
        {
          "internalType": "uint256",
          "name": "amount",
          "type": "uint256"
        },
        {
          "internalType": "address",
          "name": "delegator",
          "type": "address"
        }
      ],
      "name": "delegationDeposit",
      "outputs": [
        {
          "internalType": "bool",
          "name": "",
          "type": "bool"
        }
      ],
      "payable": false,
      "stateMutability": "nonpayable",
      "type": "function"
    },
    {
      "constant": false,
      "inputs": [
        {
          "internalType": "address",
          "name": "user",
          "type": "address"
        },
        {
          "internalType": "uint256",
          "name": "amount",
          "type": "uint256"
        },
        {
          "internalType": "uint256",
          "name": "heimdallFee",
          "type": "uint256"
        },
        {
          "internalType": "bool",
          "name": "acceptDelegation",
          "type": "bool"
        },
        {
          "internalType": "bytes",
          "name": "signerPubkey",
          "type": "bytes"
        }
      ],
      "name": "stakeFor",
      "outputs": [],
      "payable": false,
      "stateMutability": "nonpayable",
      "type": "function"
    },
    {
      "constant": false,
      "inputs": [
        {
          "internalType": "uint256",
          "name": "validatorId",
          "type": "uint256"
        }
      ],
      "name": "unstakeClaim",
      "outputs": [],
      "payable": false,
      "stateMutability": "nonpayable",
      "type": "function"
    },
    {
      "constant": false,
      "inputs": [
        {
          "internalType": "uint256",
          "name": "validatorId",
          "type": "uint256"
        },
        {
          "internalType": "uint256",
          "name": "amount",
          "type": "uint256"
        },
        {
          "internalType": "bool",
          "name": "stakeRewards",
          "type": "bool"
        }
      ],
      "name": "restake",
      "outputs": [],
      "payable": false,
      "stateMutability": "nonpayable",
      "type": "function"
    },
    {
      "constant": false,
      "inputs": [
        {
          "internalType": "uint256",
          "name": "validatorId",
          "type": "uint256"
        }
      ],
      "name": "withdrawRewards",
      "outputs": [],
      "payable": false,
      "stateMutability": "nonpayable",
      "type": "function"
    },
    {
      "constant": true,
      "inputs": [],
      "name": "getCurrentValidatorSet",
      "outputs": [
        {
          "internalType": "uint256[]",
          "name": "",
          "type": "uint256[]"
        }
      ],
      "payable": false,
      "stateMutability": "view",
      "type": "function"
    },
    {
      "constant": true,
      "inputs": [
        {
          "internalType": "address",
          "name": "user",
          "type": "address"
        }
      ],
      "name": "getValidatorId",
      "outputs": [
        {
          "internalType": "uint256",
          "name": "",
          "type": "uint256"
        }
      ],
      "payable": false,
      "stateMutability": "view",
      "type": "function"
    },
    {
      "constant": false,
      "inputs": [
        {
          "internalType": "address",
          "name": "_token",
          "type": "address"
        }
      ],
      "name": "setToken",
      "outputs": [],
      "payable": false,
      "stateMutability": "nonpayable",
      "type": "function"
    },
    {
      "constant": false,
      "inputs": [
        {
          "internalType": "uint256",
          "name": "newThreshold",
          "type": "uint256"
        }
      ],
      "name": "updateValidatorThreshold",
      "outputs": [],
      "payable": false,
      "stateMutability": "nonpayable",
      "type": "function"
    },
    {
      "constant": false,
      "inputs": [
        {
          "internalType": "uint256",
          "name": "_blocks",
          "type": "uint256"
        }
      ],
      "name": "updateCheckPointBlockInterval",
      "outputs": [],
      "payable": false,
      "stateMutability": "nonpayable",
      "type": "function"
    },
    {
      "constant": false,
      "inputs": [
        {
          "internalType": "uint256",
          "name": "newReward",
          "type": "uint256"
        }
      ],
      "name": "updateCheckpointReward",
      "outputs": [],
      "payable": false,
      "stateMutability": "nonpayable",
      "type": "function"
    },
    {
      "constant": false,
      "inputs": [
        {
          "internalType": "uint256",
          "name": "validatorId",
          "type": "uint256"
        },
        {
          "internalType": "int256",
          "name": "amount",
          "type": "int256"
        }
      ],
      "name": "updateValidatorState",
      "outputs": [],
      "payable": false,
      "stateMutability": "nonpayable",
      "type": "function"
    },
    {
      "constant": false,
      "inputs": [
        {
          "internalType": "uint256",
          "name": "newDynasty",
          "type": "uint256"
        }
      ],
      "name": "updateDynastyValue",
      "outputs": [],
      "payable": false,
      "stateMutability": "nonpayable",
      "type": "function"
    },
    {
      "constant": false,
      "inputs": [
        {
          "internalType": "uint256",
          "name": "forNCheckpoints",
          "type": "uint256"
        }
      ],
      "name": "stopAuctions",
      "outputs": [],
      "payable": false,
      "stateMutability": "nonpayable",
      "type": "function"
    },
    {
      "constant": false,
      "inputs": [
        {
          "internalType": "uint256",
          "name": "newProposerBonus",
          "type": "uint256"
        }
      ],
      "name": "updateProposerBonus",
      "outputs": [],
      "payable": false,
      "stateMutability": "nonpayable",
      "type": "function"
    },
    {
      "constant": false,
      "inputs": [
        {
          "internalType": "uint256",
          "name": "_limit",
          "type": "uint256"
        }
      ],
      "name": "updateSignerUpdateLimit",
      "outputs": [],
      "payable": false,
      "stateMutability": "nonpayable",
      "type": "function"
    },
    {
      "constant": false,
      "inputs": [
        {
          "internalType": "uint256",
          "name": "_minDeposit",
          "type": "uint256"
        },
        {
          "internalType": "uint256",
          "name": "_minHeimdallFee",
          "type": "uint256"
        }
      ],
      "name": "updateMinAmounts",
      "outputs": [],
      "payable": false,
      "stateMutability": "nonpayable",
      "type": "function"
    },
    {
      "constant": false,
      "inputs": [
        {
          "internalType": "uint256",
          "name": "validatorId",
          "type": "uint256"
        },
        {
          "internalType": "bytes",
          "name": "signerPubkey",
          "type": "bytes"
        }
      ],
      "name": "updateSigner",
      "outputs": [],
      "payable": false,
      "stateMutability": "nonpayable",
      "type": "function"
    },
    {
      "constant": true,
      "inputs": [],
      "name": "currentValidatorSetSize",
      "outputs": [
        {
          "internalType": "uint256",
          "name": "",
          "type": "uint256"
        }
      ],
      "payable": false,
      "stateMutability": "view",
      "type": "function"
    },
    {
      "constant": true,
      "inputs": [],
      "name": "currentValidatorSetTotalStake",
      "outputs": [
        {
          "internalType": "uint256",
          "name": "",
          "type": "uint256"
        }
      ],
      "payable": false,
      "stateMutability": "view",
      "type": "function"
    },
    {
      "constant": true,
      "inputs": [
        {
          "internalType": "uint256",
          "name": "validatorId",
          "type": "uint256"
        }
      ],
      "name": "getValidatorContract",
      "outputs": [
        {
          "internalType": "address",
          "name": "",
          "type": "address"
        }
      ],
      "payable": false,
      "stateMutability": "view",
      "type": "function"
    },
    {
      "constant": true,
      "inputs": [
        {
          "internalType": "uint256",
          "name": "validatorId",
          "type": "uint256"
        }
      ],
      "name": "isValidator",
      "outputs": [
        {
          "internalType": "bool",
          "name": "",
          "type": "bool"
        }
      ],
      "payable": false,
      "stateMutability": "view",
      "type": "function"
    },
    {
      "constant": false,
      "inputs": [
        {
          "internalType": "uint256",
          "name": "blockInterval",
          "type": "uint256"
        },
        {
          "internalType": "bytes32",
          "name": "voteHash",
          "type": "bytes32"
        },
        {
          "internalType": "bytes32",
          "name": "stateRoot",
          "type": "bytes32"
        },
        {
          "internalType": "address",
          "name": "proposer",
          "type": "address"
        },
        {
          "internalType": "bytes",
          "name": "sigs",
          "type": "bytes"
        }
      ],
      "name": "checkSignatures",
      "outputs": [
        {
          "internalType": "uint256",
          "name": "",
          "type": "uint256"
        }
      ],
      "payable": false,
      "stateMutability": "nonpayable",
      "type": "function"
    },
    {
      "constant": false,
      "inputs": [
        {
          "internalType": "bytes",
          "name": "_slashingInfoList",
          "type": "bytes"
        }
      ],
      "name": "slash",
      "outputs": [
        {
          "internalType": "uint256",
          "name": "",
          "type": "uint256"
        }
      ],
      "payable": false,
      "stateMutability": "nonpayable",
      "type": "function"
    },
    {
      "constant": false,
      "inputs": [
        {
          "internalType": "uint256",
          "name": "validatorId",
          "type": "uint256"
        }
      ],
      "name": "unJail",
      "outputs": [],
      "payable": false,
      "stateMutability": "nonpayable",
      "type": "function"
    },
    {
      "constant": true,
      "inputs": [
        {
          "internalType": "bytes",
          "name": "pub",
          "type": "bytes"
        }
      ],
      "name": "pubToAddress",
      "outputs": [
        {
          "internalType": "address",
          "name": "",
          "type": "address"
        }
      ],
      "payable": false,
      "stateMutability": "pure",
      "type": "function"
    },
    {
      "constant": true,
      "inputs": [
        {
          "internalType": "bytes32",
          "name": "voteHash",
          "type": "bytes32"
        },
        {
          "internalType": "bytes",
          "name": "sigs",
          "type": "bytes"
        }
      ],
      "name": "verifyConsensus",
      "outputs": [
        {
          "internalType": "uint256",
          "name": "",
          "type": "uint256"
        },
        {
          "internalType": "uint256",
          "name": "",
          "type": "uint256"
        }
      ],
      "payable": false,
      "stateMutability": "view",
      "type": "function"
    }
  ],
  "bytecode": "0x60806040526120006009556001600a55612000600b5569021e19e0c9bab2400000600c55670de0b6b3a7640000600d55670de0b6b3a7640000600e5560ff600f556064601055600a60115560016013556004600b54816200005c57fe5b04601655600a601755601a805460ff191660011790553480156200007f57600080fd5b50600080546001600160a01b031916331780825560405182916001600160a01b03169082907f8be0079c531659141344cd1fd0a4f28419497f9722a3daafe3b4186f6b6457e0908290a3600280546001600160a01b0319166001600160a01b039290921691909117905550615cbb80620000fa6000396000f3fe608060405234801561001057600080fd5b50600436106104a15760003560e01c8063766718081161026d578063bbcfbbb011610151578063e6692f49116100ce578063f2fde38b11610092578063f2fde38b146110d6578063f41a9642146110fc578063f771fc87146111a7578063f83d08ba146111c4578063fba58f34146111cc578063fc0c546a146111d4576104a1565b8063e6692f491461104f578063e8afa8e81461106c578063eceec1d314611092578063f24ccbfe146110af578063f28699fa146110b7576104a1565b8063cd6b838811610115578063cd6b838814610f61578063cf30901214610f69578063d011027414610f71578063d7f5549d14611015578063d86d53e714611032576104a1565b8063bbcfbbb014610ddc578063bc8756a914610e87578063c45a015514610eb9578063c8b194a214610ec1578063cbf383d514610f44576104a1565b806391460149116101ea5780639ff11500116101ae5780639ff1150014610d61578063a440ab1e14610d84578063a476907114610da1578063a69df4b514610da9578063a7ab696114610db1578063b1d23f0214610db9576104a1565b80639146014914610cfa5780639342c8f414610d17578063987ab9db14610d345780639a8a624314610d3c5780639b33f43414610d44576104a1565b80637f952d95116102315780637f952d9514610cd2578063817b1cd214610cda5780638da5cb5b14610ce25780638f32d59b14610cea578063900cf0cf14610cf2576104a1565b80637667180814610c8c57806377939d1014610c9457806378f84a4414610c9c5780637b10399914610cc25780637d66975214610cca576104a1565b80633d02455b1161039457806356342d8c1161031157806363656798116102d55780636365679814610b6657806368cb812a14610b925780636901b25314610c425780637033e4a614610c745780637060054d14610c7c578063715018a614610c84576104a1565b806356342d8c14610a4a5780635aa6e67514610a675780635c24885514610a6f5780635e47655f14610aa55780636352211e14610b49576104a1565b80634fdd20f1116103585780634fdd20f11461090c5780634fee13fc146109d35780635325e144146109f657806354b8c60114610a3a5780635508d8e114610a42576104a1565b80633d02455b146108b157806341b3d185146108ce5780634b341aed146108d65780634e3c83f1146108fc5780634fd101d714610904576104a1565b8063174e6832116104225780632e17de78116103e65780632e17de78146107ac57806331c2273b146107c957806334274586146107ed57806335aa2e44146107f55780633862da0b1461088b576104a1565b8063174e68321461071a57806317c2b9101461074057806325316411146107485780632649263a1461075057806328cc4e4114610781576104a1565b80630e15561a116104695780630e15561a1461067f5780630ebb172a14610687578063118bdec91461068f578063144fa6d7146106d757806316827b1b146106fd576104a1565b80630209fdd0146104a6578063028c4c67146104fe578063066647a01461058357806306cfb1041461065a5780630cccfc5814610677575b600080fd5b6104ae6111dc565b60408051602080825283518183015283519192839290830191858101910280838360005b838110156104ea5781810151838201526020016104d2565b505050509050019250505060405180910390f35b6105816004803603608081101561051457600080fd5b813591602081013591604082013515159190810190608081016060820135600160201b81111561054357600080fd5b82018360208201111561055557600080fd5b803590602001918460018302840111600160201b8311171561057657600080fd5b509092509050611352565b005b610648600480360360a081101561059957600080fd5b8135916020810135916040820135916001600160a01b036060820135169181019060a081016080820135600160201b8111156105d457600080fd5b8201836020820111156105e657600080fd5b803590602001918460018302840111600160201b8311171561060757600080fd5b91908080601f01602080910402602001604051908101604052809392919081815260200183838082843760009201919091525092955061139c945050505050565b60408051918252519081900360200190f35b6105816004803603602081101561067057600080fd5b5035611515565b61064861152b565b610648611531565b610648611537565b610581600480360360a08110156106a557600080fd5b506001600160a01b0381358116916020810135821691604082013581169160608101358216916080909101351661153d565b610581600480360360208110156106ed57600080fd5b50356001600160a01b03166115ad565b6105816004803603602081101561071357600080fd5b50356115f3565b6106486004803603602081101561073057600080fd5b50356001600160a01b0316611688565b610648611712565b610648611718565b61076d6004803603602081101561076657600080fd5b503561171e565b604080519115158252519081900360200190f35b6105816004803603606081101561079757600080fd5b508035906020810135906040013515156117d8565b610581600480360360208110156107c257600080fd5b5035611c59565b6107d1611ddc565b604080516001600160a01b039092168252519081900360200190f35b610648611deb565b6108126004803603602081101561080b57600080fd5b5035611df1565b60405180898152602001888152602001878152602001868152602001858152602001846001600160a01b03166001600160a01b03168152602001836001600160a01b03166001600160a01b0316815260200182600381111561087057fe5b60ff1681526020019850505050505050505060405180910390f35b610648600480360360208110156108a157600080fd5b50356001600160a01b0316611e47565b610581600480360360208110156108c757600080fd5b5035611e59565b6106486120d9565b610648600480360360208110156108ec57600080fd5b50356001600160a01b03166120df565b610648612216565b61064861221c565b610581600480360360a081101561092257600080fd5b6001600160a01b0382351691602081013591604082013591606081013515159181019060a081016080820135600160201b81111561095f57600080fd5b82018360208201111561097157600080fd5b803590602001918460018302840111600160201b8311171561099257600080fd5b91908080601f016020809104026020016040519081016040528093929190818152602001838380828437600092019190915250929550612222945050505050565b610581600480360360408110156109e957600080fd5b5080359060200135612473565b610a1360048036036020811015610a0c57600080fd5b50356128d9565b6040805193845260208401929092526001600160a01b031682820152519081900360600190f35b61076d612903565b61064861290c565b6107d160048036036020811015610a6057600080fd5b5035612912565b6107d1612930565b610a8c60048036036020811015610a8557600080fd5b503561293f565b6040805192835260208301919091528051918290030190f35b61064860048036036020811015610abb57600080fd5b810190602081018135600160201b811115610ad557600080fd5b820183602082011115610ae757600080fd5b803590602001918460018302840111600160201b83111715610b0857600080fd5b91908080601f016020809104026020016040519081016040528093929190818152602001838380828437600092019190915250929550612958945050505050565b6107d160048036036020811015610b5f57600080fd5b5035612c39565b61058160048036036040811015610b7c57600080fd5b506001600160a01b038135169060200135612c85565b61058160048036036060811015610ba857600080fd5b813591602081013591810190606081016040820135600160201b811115610bce57600080fd5b820183602082011115610be057600080fd5b803590602001918460018302840111600160201b83111715610c0157600080fd5b91908080601f016020809104026020016040519081016040528093929190818152602001838380828437600092019190915250929550612e01945050505050565b61076d60048036036060811015610c5857600080fd5b50803590602081013590604001356001600160a01b0316613050565b61076d6131a0565b6106486131a5565b6105816131ab565b610648613206565b61064861320c565b61064860048036036020811015610cb257600080fd5b50356001600160a01b0316613212565b6107d1613224565b610648613233565b610648613239565b610648613251565b6107d1613257565b61076d613266565b610648613277565b61058160048036036020811015610d1057600080fd5b503561327d565b61058160048036036020811015610d2d57600080fd5b503561329d565b6107d16134fb565b61064861350a565b61058160048036036020811015610d5a57600080fd5b5035613510565b61058160048036036040811015610d7757600080fd5b50803590602001356135d5565b61058160048036036020811015610d9a57600080fd5b5035613659565b6106486136c4565b6105816136d9565b610648613731565b61058160048036036040811015610dcf57600080fd5b5080359060200135613737565b610a8c60048036036040811015610df257600080fd5b81359190810190604081016020820135600160201b811115610e1357600080fd5b820183602082011115610e2557600080fd5b803590602001918460018302840111600160201b83111715610e4657600080fd5b91908080601f016020809104026020016040519081016040528093929190818152602001838380828437600092019190915250929550613753945050505050565b61076d60048036036060811015610e9d57600080fd5b50803590602081013590604001356001600160a01b0316613990565b6107d1613aea565b61058160048036036080811015610ed757600080fd5b813591602081013591604082013515159190810190608081016060820135600160201b811115610f0657600080fd5b820183602082011115610f1857600080fd5b803590602001918460018302840111600160201b83111715610f3957600080fd5b509092509050613af9565b61058160048036036020811015610f5a57600080fd5b50356140cb565b610648614160565b61076d614166565b6107d160048036036020811015610f8757600080fd5b810190602081018135600160201b811115610fa157600080fd5b820183602082011115610fb357600080fd5b803590602001918460018302840111600160201b83111715610fd457600080fd5b91908080601f016020809104026020016040519081016040528093929190818152602001838380828437600092019190915250929550614176945050505050565b6106486004803603602081101561102b57600080fd5b50356141cb565b6105816004803603602081101561104857600080fd5b50356141dc565b6105816004803603602081101561106557600080fd5b50356144f4565b6105816004803603602081101561108257600080fd5b50356001600160a01b03166145b9565b610648600480360360208110156110a857600080fd5b5035614639565b6107d161464b565b610581600480360360208110156110cd57600080fd5b5035151561465a565b610581600480360360208110156110ec57600080fd5b50356001600160a01b03166146b6565b6105816004803603604081101561111257600080fd5b81359190810190604081016020820135600160201b81111561113357600080fd5b82018360208201111561114557600080fd5b803590602001918460018302840111600160201b8311171561116657600080fd5b91908080601f0160208091040260200160405190810160405280939291908181526020018383808284376000920191909152509295506146d0945050505050565b610581600480360360208110156111bd57600080fd5b50356149c3565b6105816149e7565b610648614a45565b6107d1614a4b565b6060806111e7613239565b604051908082528060200260200182016040528015611210578160200160208202803883390190505b509050600080805b600760009054906101000a90046001600160a01b03166001600160a01b03166318160ddd6040518163ffffffff1660e01b815260040160206040518083038186803b15801561126657600080fd5b505afa15801561127a573d6000803e3d6000fd5b505050506040513d602081101561129057600080fd5b50518110156113495760075460408051634f6ccce760e01b81526004810184905290516001600160a01b0390921691634f6ccce791602480820192602092909190829003018186803b1580156112e557600080fd5b505afa1580156112f9573d6000803e3d6000fd5b505050506040513d602081101561130f57600080fd5b5051925061131c8361171e565b15611341578284838060010194508151811061133457fe5b6020026020010181815250505b600101611218565b50919250505090565b6113953386868686868080601f01602080910402602001604051908101604052809392919081815260200183838082843760009201919091525061222292505050565b5050505050565b6003546000906001600160a01b031633146113b657600080fd5b60006113df600f546113d3600c548a614a5a90919063ffffffff16565b9063ffffffff614a8816565b90506113ed600c5482614aaa565b9050600061140b60646113d360175485614a5a90919063ffffffff16565b6001600160a01b038087166000908152601c60209081526040808320548352601b909152902060068101549293509116156114b55760068101548154604080516301a6632160e31b8152600481018690526024810192909252516001600160a01b0390921691630d3319089160448082019260009290919082900301818387803b15801561149857600080fd5b505af11580156114ac573d6000803e3d6000fd5b505050506114d0565b60018101546114ca908363ffffffff614ac016565b60018201555b6114e0838363ffffffff614ad216565b925060006114ec6136c4565b601889905590506114fb614ae7565b61150781858b89614b45565b9a9950505050505050505050565b61151d613266565b61152657600080fd5b601055565b60165481565b60145481565b60095481565b611545613266565b61154e57600080fd5b600580546001600160a01b03199081166001600160a01b03978816179091556003805482169587169590951790945560078054851693861693909317909255600680548416918516919091179055600880549092169216919091179055565b6115b5613266565b6115be57600080fd5b6001600160a01b0381166115d157600080fd5b600480546001600160a01b0319166001600160a01b0392909216919091179055565b6115fb613266565b61160457600080fd5b6000811161161157600080fd5b60065460115460408051630f1980a560e41b8152600481018590526024810192909252516001600160a01b039092169163f1980a509160448082019260009290919082900301818387803b15801561166857600080fd5b505af115801561167c573d6000803e3d6000fd5b50505060119190915550565b60075460408051632f745c5960e01b81526001600160a01b038481166004830152600060248301819052925192931691632f745c5991604480820192602092909190829003018186803b1580156116de57600080fd5b505afa1580156116f2573d6000803e3d6000fd5b505050506040513d602081101561170857600080fd5b505190505b919050565b60185481565b600f5481565b6000818152601b60205260408120541580159061176957506000828152601b6020526040902060020154158015906117695750600a546000838152601b602052604090206002015411155b80156117a057506000828152601b602052604090206003015415806117a05750600a546000838152601b6020526040902060030154115b80156117d2575060016000838152601b6020526040902060060154600160a01b900460ff1660038111156117d057fe5b145b92915050565b600254600160a01b900460ff1615611823576040805162461bcd60e51b8152602060048201526009602482015268125cc8131bd8dad95960ba1b604482015290519081900360640190fd5b600754604080516331a9108f60e11b8152600481018690529051859233926001600160a01b0390911691636352211e91602480820192602092909190829003018186803b15801561187357600080fd5b505afa158015611887573d6000803e3d6000fd5b505050506040513d602081101561189d57600080fd5b50516001600160a01b0316146118b257600080fd5b600a546000858152601b60205260409020600301541061190f576040805162461bcd60e51b81526020600482015260136024820152724e6f20757365206f662072657374616b696e6760681b604482015290519081900360640190fd5b6000848152601f602052604090205415611970576040805162461bcd60e51b815260206004820152601b60248201527f5761697420666f722061756374696f6e20636f6d706c6574696f6e0000000000604482015290519081900360640190fd5b8215611a3f5760048054604080516323b872dd60e01b8152339381019390935230602484015260448301869052516001600160a01b03909116916323b872dd9160648083019260209291908290030181600087803b1580156119d157600080fd5b505af11580156119e5573d6000803e3d6000fd5b505050506040513d60208110156119fb57600080fd5b5051611a3f576040805162461bcd60e51b815260206004820152600e60248201526d5472616e73666572207374616b6560901b604482015290519081900360640190fd5b8115611b1a576000848152601b6020526040902060010154611a6890849063ffffffff614ac016565b6000858152601b60205260409020600601549093506001600160a01b03168015611b0657611b03816001600160a01b03166332ba2e536040518163ffffffff1660e01b8152600401602060405180830381600087803b158015611aca57600080fd5b505af1158015611ade573d6000803e3d6000fd5b505050506040513d6020811015611af457600080fd5b5051859063ffffffff614ac016565b93505b506000848152601b60205260408120600101555b601254611b2d908463ffffffff614ac016565b6012556000848152601b6020526040902054611b4f908463ffffffff614ac016565b6000858152601b6020908152604080832093909355600a548252601d9052818120805486019055600654825163532e19a960e01b81526004810188905292516001600160a01b039091169263532e19a992602480830193919282900301818387803b158015611bbd57600080fd5b505af1158015611bd1573d6000803e3d6000fd5b50506006546000878152601b602052604080822054601254825163242c1b9960e01b8152600481018c90526024810192909252604482015290516001600160a01b03909316945063242c1b9993506064808201939182900301818387803b158015611c3b57600080fd5b505af1158015611c4f573d6000803e3d6000fd5b5050505050505050565b600754604080516331a9108f60e11b8152600481018490529051839233926001600160a01b0390911691636352211e91602480820192602092909190829003018186803b158015611ca957600080fd5b505afa158015611cbd573d6000803e3d6000fd5b505050506040513d6020811015611cd357600080fd5b50516001600160a01b031614611ce857600080fd5b6000828152601f602052604090205415611d49576040805162461bcd60e51b815260206004820152601b60248201527f5761697420666f722061756374696f6e20636f6d706c6574696f6e0000000000604482015290519081900360640190fd5b600a54600090611d6090600163ffffffff614ac016565b6000848152601b602052604090206002015490915015801590611d9257506000838152601b6020526040902060030154155b8015611dc4575060016000848152601b6020526040902060060154600160a01b900460ff166003811115611dc257fe5b145b611dcd57600080fd5b611dd78382614e7a565b505050565b6007546001600160a01b031681565b60175481565b601b602052600090815260409020805460018201546002830154600384015460048501546005860154600690960154949593949293919290916001600160a01b039081169190811690600160a01b900460ff1688565b601c6020526000908152604090205481565b600754604080516331a9108f60e11b8152600481018490529051839233926001600160a01b0390911691636352211e91602480820192602092909190829003018186803b158015611ea957600080fd5b505afa158015611ebd573d6000803e3d6000fd5b505050506040513d6020811015611ed357600080fd5b50516001600160a01b031614611ee857600080fd5b60026000838152601b6020526040902060060154600160a01b900460ff166003811115611f1157fe5b14611f1b57600080fd5b600a546000838152601b60205260409020600401541115611f7c576040805162461bcd60e51b8152602060048201526016602482015275125b98dbdb5c1b195d19481a985a5b081c195c9a5bd960521b604482015290519081900360640190fd5b6000828152601b6020526040902054600d54811015611f9a57600080fd5b6000838152601b60205260408120600601546001600160a01b03161561203e576000848152601b602090815260408083206006015481516322f0f2f960e01b815291516001600160a01b03909116936322f0f2f993600480850194919392918390030190829087803b15801561200f57600080fd5b505af1158015612023573d6000803e3d6000fd5b505050506040513d602081101561203957600080fd5b505190505b600a5461205c90612055848463ffffffff614ac016565b60016150f8565b6000848152601b6020526040808220600381018390556006808201805460ff60a01b1916600160a01b17905554600590910154825163c3917e9960e01b8152600481018990526001600160a01b039182166024820152925191169263c3917e99926044808201939182900301818387803b158015611c3b57600080fd5b600d5481565b60006001600160a01b038216158061216d5750600754604080516370a0823160e01b81526001600160a01b038581166004830152915191909216916370a08231916024808301926020929190829003018186803b15801561213f57600080fd5b505afa158015612153573d6000803e3d6000fd5b505050506040513d602081101561216957600080fd5b5051155b1561217a5750600061170d565b60075460408051632f745c5960e01b81526001600160a01b0385811660048301526000602483018190529251601b949190911691632f745c59916044808301926020929190829003018186803b1580156121d357600080fd5b505afa1580156121e7573d6000803e3d6000fd5b505050506040513d60208110156121fd57600080fd5b5051815260208101919091526040016000205492915050565b60105481565b60115481565b600254600160a01b900460ff161561226d576040805162461bcd60e51b8152602060048201526009602482015268125cc8131bd8dad95960ba1b604482015290519081900360640190fd5b601154612278613239565b106122b45760405162461bcd60e51b8152600401808060200182810382526021815260200180615bde6021913960400191505060405180910390fd5b600d54841161230a576040805162461bcd60e51b815260206004820152601960248201527f6d696e206465706f736974206c696d6974206661696c65642100000000000000604482015290519081900360640190fd5b600e5483101561235d576040805162461bcd60e51b81526020600482015260196024820152784d696e696d756d20616d6f756e742069732031204d6174696360381b604482015290519081900360640190fd5b6004546001600160a01b03166323b872dd3330612380888863ffffffff614ac016565b6040518463ffffffff1660e01b815260040180846001600160a01b03166001600160a01b03168152602001836001600160a01b03166001600160a01b031681526020018281526020019350505050602060405180830381600087803b1580156123e857600080fd5b505af11580156123fc573d6000803e3d6000fd5b505050506040513d602081101561241257600080fd5b505161245d576040805162461bcd60e51b8152602060048201526015602482015274151c985b9cd9995c881cdd185ad94819985a5b1959605a1b604482015290519081900360640190fd5b6124698585848461511a565b611395858461552a565b600254600160a01b900460ff16156124be576040805162461bcd60e51b8152602060048201526009602482015268125cc8131bd8dad95960ba1b604482015290519081900360640190fd5b6124c78261171e565b6124d057600080fd5b60195415806124e35750600a5460195411155b612526576040805162461bcd60e51b815260206004820152600f60248201526e10dbdbdb191bdddb881c195c9a5bd9608a1b604482015290519081900360640190fd5b601654600b5461253c908263ffffffff614ac016565b6000848152601b6020526040902060020154600a546125609163ffffffff614ad216565b8161256757fe5b0611156125b4576040805162461bcd60e51b8152602060048201526016602482015275125b9d985b1a5908185d58dd1a5bdb881c195c9a5bd960521b604482015290519081900360640190fd5b6000828152601b6020526040902080546006909101546001600160a01b031680156126515761264e816001600160a01b0316633a09bf446040518163ffffffff1660e01b815260040160206040518083038186803b15801561261557600080fd5b505afa158015612629573d6000803e3d6000fd5b505050506040513d602081101561263f57600080fd5b5051839063ffffffff614ac016565b91505b6000848152601f602052604090205461266b9083906155b1565b91508282106126ba576040805162461bcd60e51b8152602060048201526016602482015275135d5cdd08189a59081a1a59da195c88185b5bdd5b9d60521b604482015290519081900360640190fd5b60048054604080516323b872dd60e01b8152339381019390935230602484015260448301869052516001600160a01b03909116916323b872dd9160648083019260209291908290030181600087803b15801561271557600080fd5b505af1158015612729573d6000803e3d6000fd5b505050506040513d602081101561273f57600080fd5b505161278b576040805162461bcd60e51b8152602060048201526016602482015275151c985b9cd9995c88185b5bdd5b9d0819985a5b195960521b604482015290519081900360640190fd5b6000848152601f602052604090208054156128335760048054600283015483546040805163a9059cbb60e01b81526001600160a01b039384169581019590955260248501919091525191169163a9059cbb9160448083019260209291908290030181600087803b1580156127fe57600080fd5b505af1158015612812573d6000803e3d6000fd5b505050506040513d602081101561282857600080fd5b505161283357600080fd5b8381556002810180546001600160a01b031916331790556006546000868152601b6020908152604080832054601f909252808320548151630934a6df60e01b8152600481018b905260248101939093526044830152516001600160a01b039390931692630934a6df9260648084019391929182900301818387803b1580156128ba57600080fd5b505af11580156128ce573d6000803e3d6000fd5b505050505050505050565b601f602052600090815260409020805460018201546002909201549091906001600160a01b031683565b601a5460ff1681565b60135481565b6000908152601b60205260409020600601546001600160a01b031690565b6002546001600160a01b031681565b601d602052600090815260409020805460019091015482565b6000336001600160a01b0316600560009054906101000a90046001600160a01b03166001600160a01b031663d580b4186040518163ffffffff1660e01b815260040160206040518083038186803b1580156129b257600080fd5b505afa1580156129c6573d6000803e3d6000fd5b505050506040513d60208110156129dc57600080fd5b50516001600160a01b031614612a39576040805162461bcd60e51b815260206004820181905260248201527f53656e646572206d75737420626520736c617368696e67206d616e6167657221604482015290519081900360640190fd5b6060612a4c612a47846155c1565b6155e6565b905060008080805b8451811015612c0c576060612a7b868381518110612a6e57fe5b60200260200101516155e6565b90506000612a9c82600081518110612a8f57fe5b60200260200101516156b7565b90506000612ab083600181518110612a8f57fe5b9050612ac2858263ffffffff614ac016565b6000838152601b60205260409020600601549095506001600160a01b031615612b8a576000828152601b602090815260408083206006810154905482516314454c8560e31b815260048101919091526024810186905291516001600160a01b039091169263a22a6428926044808201939182900301818787803b158015612b4857600080fd5b505af1158015612b5c573d6000803e3d6000fd5b505050506040513d6020811015612b7257600080fd5b50519050612b86828263ffffffff614ad216565b9150505b6000828152601b6020526040902054612ba9908263ffffffff614ad216565b6000838152601b60205260409020558251612bd89084906002908110612bcb57fe5b6020026020010151615717565b15612c0157612bf8612beb83600161574b565b879063ffffffff614ac016565b60019097019695505b505050600101612a54565b50600a54612c3090612c24838563ffffffff614ac016565b600003856000036150f8565b95945050505050565b600754604080516331a9108f60e11b81526004810184905290516000926001600160a01b031691636352211e916024808301926020929190829003018186803b1580156116de57600080fd5b600254600160a01b900460ff1615612cd0576040805162461bcd60e51b8152602060048201526009602482015268125cc8131bd8dad95960ba1b604482015290519081900360640190fd5b600e54811015612d23576040805162461bcd60e51b81526020600482015260196024820152784d696e696d756d20616d6f756e742069732031204d6174696360381b604482015290519081900360640190fd5b60048054604080516323b872dd60e01b8152339381019390935230602484015260448301849052516001600160a01b03909116916323b872dd9160648083019260209291908290030181600087803b158015612d7e57600080fd5b505af1158015612d92573d6000803e3d6000fd5b505050506040513d6020811015612da857600080fd5b5051612df3576040805162461bcd60e51b8152602060048201526015602482015274151c985b9cd9995c881cdd185ad94819985a5b1959605a1b604482015290519081900360640190fd5b612dfd828261552a565b5050565b604080513360208083018290528284018790528351808403850181526060840194859052805190820120601854631b23d15760e21b909552606484018181526084850188905260a48501869052608060c48601908152875160e48701528751949673__Merkle________________________________96636c8f455c9694958b9592948b9490939092610104019185019080838360005b83811015612eb0578181015183820152602001612e98565b50505050905090810190601f168015612edd5780820380516001836020036101000a031916815260200191505b509550505050505060206040518083038186803b158015612efd57600080fd5b505af4158015612f11573d6000803e3d6000fd5b505050506040513d6020811015612f2757600080fd5b5051612f6c576040805162461bcd60e51b815260206004820152600f60248201526e2bb937b7339030b1b190383937b7b360891b604482015290519081900360640190fd5b6001600160a01b0381166000908152601e6020526040812054612f9690869063ffffffff614ad216565b600480546040805163a9059cbb60e01b81526001600160a01b038781169482019490945260248101859052905193945091169163a9059cbb916044808201926020929091908290030181600087803b158015612ff157600080fd5b505af1158015613005573d6000803e3d6000fd5b505050506040513d602081101561301b57600080fd5b505161302657600080fd5b61303082826158d9565b506001600160a01b03166000908152601e60205260409020929092555050565b601a5460009060ff166130a3576040805162461bcd60e51b815260206004820152601660248201527511195b1959d85d1a5bdb881a5cc8191a5cd8589b195960521b604482015290519081900360640190fd5b6000848152601b60205260409020600601546001600160a01b0316331461310c576040805162461bcd60e51b8152602060048201526018602482015277496e76616c696420636f6e7472616374206164647265737360401b604482015290519081900360640190fd5b60048054604080516323b872dd60e01b81526001600160a01b038681169482019490945230602482015260448101879052905192909116916323b872dd916064808201926020929091908290030181600087803b15801561316c57600080fd5b505af1158015613180573d6000803e3d6000fd5b505050506040513d602081101561319657600080fd5b5051949350505050565b600090565b600b5481565b6131b3613266565b6131bc57600080fd5b600080546040516001600160a01b03909116907f8be0079c531659141344cd1fd0a4f28419497f9722a3daafe3b4186f6b6457e0908390a3600080546001600160a01b0319169055565b600a5481565b60195481565b601e6020526000908152604090205481565b6005546001600160a01b031681565b600c5481565b600a546000908152601d602052604090206001015490565b60125481565b6000546001600160a01b031690565b6000546001600160a01b0316331490565b600a5490565b613285613266565b61328e57600080fd5b61329a81600a54614e7a565b50565b600754604080516331a9108f60e11b8152600481018490529051839233926001600160a01b0390911691636352211e91602480820192602092909190829003018186803b1580156132ed57600080fd5b505afa158015613301573d6000803e3d6000fd5b505050506040513d602081101561331757600080fd5b50516001600160a01b03161461332c57600080fd5b6000828152601b6020526040902060018101546006909101546001600160a01b031680156133a9576133a6816001600160a01b03166332ba2e536040518163ffffffff1660e01b8152600401602060405180830381600087803b15801561339257600080fd5b505af1158015612629573d6000803e3d6000fd5b91505b6015546133bc908363ffffffff614ac016565b6015556000848152601b6020908152604080832060010183905560048054825163a9059cbb60e01b815233928101929092526024820187905291516001600160a01b039092169363a9059cbb9360448084019491939192918390030190829087803b15801561342a57600080fd5b505af115801561343e573d6000803e3d6000fd5b505050506040513d602081101561345457600080fd5b505161349d576040805162461bcd60e51b8152602060048201526013602482015272496e737566666963656e74207265776172647360681b604482015290519081900360640190fd5b60065460155460408051635b42d93560e11b815260048101889052602481018690526044810192909252516001600160a01b039092169163b685b26a9160648082019260009290919082900301818387803b158015611c3b57600080fd5b6003546001600160a01b031681565b60215481565b613518613266565b61352157600080fd5b6006546017546040805163a3b1d8cb60e01b8152600481018590526024810192909252516001600160a01b039092169163a3b1d8cb9160448082019260009290919082900301818387803b15801561357857600080fd5b505af115801561358c573d6000803e3d6000fd5b5050505060648111156135d05760405162461bcd60e51b8152600401808060200182810382526032815260200180615bff6032913960400191505060405180910390fd5b601755565b6000828152601b60205260409020600601546001600160a01b0316331461363e576040805162461bcd60e51b8152602060048201526018602482015277496e76616c696420636f6e7472616374206164647265737360401b604482015290519081900360640190fd5b600a546000908152601d602052604090208054909101905550565b613661613266565b61366a57600080fd5b600081116136bf576040805162461bcd60e51b815260206004820181905260248201527f426c6f636b7320696e74657276616c206d757374206265206e6f6e2d7a65726f604482015290519081900360640190fd5b600f55565b600a546000908152601d602052604090205490565b6002546001600160a01b031633146137225760405162461bcd60e51b8152600401808060200182810382526026815260200180615c616026913960400191505060405180910390fd5b6002805460ff60a01b19169055565b60095490565b61373f613266565b61374857600080fd5b600d91909155600e55565b6000808080805b85518167ffffffffffffffff161015613952576060613785878367ffffffffffffffff166041615944565b60408051631df4cba560e21b8152600481018b81526024820192835283516044830152835193945060009373__ECVerify______________________________936377d32e94938e9388939092916064019060208501908083838c5b838110156137f95781810151838201526020016137e1565b50505050905090810190601f1680156138265780820380516001836020036101000a031916815260200191505b50935050505060206040518083038186803b15801561384457600080fd5b505af4158015613858573d6000803e3d6000fd5b505050506040513d602081101561386e57600080fd5b50516001600160a01b038082166000818152601c6020526040902054929350908616141561389e57505050613952565b6138a78161171e565b80156138c45750846001600160a01b0316826001600160a01b0316115b15613947576000818152601b60205260409020805460069091015492955085926001600160a01b031680156139325761392f816001600160a01b0316633a09bf446040518163ffffffff1660e01b815260040160206040518083038186803b15801561261557600080fd5b91505b613942888363ffffffff614ac016565b975050505b50505060410161375a565b5081613983600161397760036113d3600261396b6136c4565b9063ffffffff614a5a16565b9063ffffffff614ac016565b9350935050509250929050565b6000336001600160a01b0316600560009054906101000a90046001600160a01b03166001600160a01b031663d580b4186040518163ffffffff1660e01b815260040160206040518083038186803b1580156139ea57600080fd5b505afa1580156139fe573d6000803e3d6000fd5b505050506040513d6020811015613a1457600080fd5b50516001600160a01b03161480613a4457506000848152601b60205260409020600601546001600160a01b031633145b613a90576040805162461bcd60e51b8152602060048201526018602482015277496e76616c696420636f6e7472616374206164647265737360401b604482015290519081900360640190fd5b600480546040805163a9059cbb60e01b81526001600160a01b0386811694820194909452602481018790529051929091169163a9059cbb916044808201926020929091908290030181600087803b15801561316c57600080fd5b6008546001600160a01b031681565b600254600160a01b900460ff1615613b44576040805162461bcd60e51b8152602060048201526009602482015268125cc8131bd8dad95960ba1b604482015290519081900360640190fd5b6000858152601f60209081526040808320601b90925290912060028201546001600160a01b03163314613bbe576040805162461bcd60e51b815260206004820152601760248201527f4f6e6c79206269646465722063616e20636f6e6669726d000000000000000000604482015290519081900360640190fd5b601654600b54613bd590829063ffffffff614ac016565b6001840154600a54613bec9163ffffffff614ad216565b81613bf357fe5b061015613c315760405162461bcd60e51b8152600401808060200182810382526030815260200180615c316030913960400191505060405180910390fd5b600754604080516331a9108f60e11b8152600481018a905290516001600160a01b0390921691636352211e91602480820192602092909190829003018186803b158015613c7d57600080fd5b505afa158015613c91573d6000803e3d6000fd5b505050506040513d6020811015613ca757600080fd5b505160028301546001600160a01b0390811691161415613e7d5780546004805460028501546040805163a9059cbb60e01b81526001600160a01b0392831694810194909452602484018590525191169163a9059cbb9160448083019260209291908290030181600087803b158015613d1e57600080fd5b505af1158015613d32573d6000803e3d6000fd5b505050506040513d6020811015613d4857600080fd5b5051613d5357600080fd5b82548255600083556002830180546001600160a01b0319169055600a5460018401558154613d9a90613d8b908363ffffffff614ad216565b6012549063ffffffff614ac016565b6012556006546040805163532e19a960e01b8152600481018b905290516001600160a01b039092169163532e19a99160248082019260009290919082900301818387803b158015613dea57600080fd5b505af1158015613dfe573d6000803e3d6000fd5b505060065484546040805163e12ab1af60e01b8152600481018e9052602481018e90526044810192909252516001600160a01b03909216935063e12ab1af925060648082019260009290919082900301818387803b158015613e5f57600080fd5b505af1158015613e73573d6000803e3d6000fd5b50505050506140c2565b613e8987600a54614e7a565b60048054604080516323b872dd60e01b8152339381019390935230602484015260448301899052516001600160a01b03909116916323b872dd9160648083019260209291908290030181600087803b158015613ee457600080fd5b505af1158015613ef8573d6000803e3d6000fd5b505050506040513d6020811015613f0e57600080fd5b5051613f57576040805162461bcd60e51b8152602060048201526013602482015272151c985b9cd9995c881999594819985a5b1959606a1b604482015290519081900360640190fd5b60028201548254604080516020601f8801819004810282018101909252868152613fa9936001600160a01b03169291899190899089908190840183828082843760009201919091525061511a92505050565b600e54861015613ffc576040805162461bcd60e51b81526020600482015260196024820152784d696e696d756d20616d6f756e742069732031204d6174696360381b604482015290519081900360640190fd5b6002820154614014906001600160a01b03168761552a565b6006546013546001600160a01b039091169063e12ab1af9061403d90600163ffffffff614ad216565b8985600001546040518463ffffffff1660e01b8152600401808481526020018381526020018281526020019350505050600060405180830381600087803b15801561408757600080fd5b505af115801561409b573d6000803e3d6000fd5b5050506000888152601f6020526040812090815560020180546001600160a01b0319169055505b50505050505050565b6140d3613266565b6140dc57600080fd5b600081116140e957600080fd5b600654600c5460408051632dbe9d3160e21b8152600481018590526024810192909252516001600160a01b039092169163b6fa74c49160448082019260009290919082900301818387803b15801561414057600080fd5b505af1158015614154573d6000803e3d6000fd5b505050600c9190915550565b60155481565b600254600160a01b900460ff1681565b600081516040146141bf576040805162461bcd60e51b815260206004820152600e60248201526d496e76616c6964207075626b657960901b604482015290519081900360640190fd5b50805160209091012090565b602080526000908152604090205481565b600754604080516331a9108f60e11b8152600481018490529051839233926001600160a01b0390911691636352211e91602480820192602092909190829003018186803b15801561422c57600080fd5b505afa158015614240573d6000803e3d6000fd5b505050506040513d602081101561425657600080fd5b50516001600160a01b03161461426b57600080fd5b6000828152601b6020526040902060030154158015906142b05750600a546009546000848152601b60205260409020600301546142ad9163ffffffff614ac016565b11155b80156142e3575060036000838152601b6020526040902060060154600160a01b900460ff1660038111156142e057fe5b14155b6142ec57600080fd5b6000828152601b602052604090205460125461430e908263ffffffff614ad216565b60125560075460408051630852cd8d60e31b81526004810186905290516001600160a01b03909216916342966c689160248082019260009290919082900301818387803b15801561435e57600080fd5b505af1158015614372573d6000803e3d6000fd5b5050506000848152601b6020818152604080842060058101546001600160a01b039081168652601c84528286206000199055898652938352600601805460ff60a01b1916600360a01b17905560048054825163a9059cbb60e01b8152339281019290925260248201889052915191909316945063a9059cbb936044808501948390030190829087803b15801561440757600080fd5b505af115801561441b573d6000803e3d6000fd5b505050506040513d602081101561443157600080fd5b505161447c576040805162461bcd60e51b8152602060048201526015602482015274151c985b9cd9995c881cdd185ad94819985a5b1959605a1b604482015290519081900360640190fd5b6006546012546040805163ae2e26b160e01b815233600482015260248101879052604481018590526064810192909252516001600160a01b039092169163ae2e26b19160848082019260009290919082900301818387803b1580156144e057600080fd5b505af11580156140c2573d6000803e3d6000fd5b6144fc613266565b61450557600080fd5b6000811161451257600080fd5b600654600b5460408051635071805360e11b8152600481018590526024810192909252516001600160a01b039092169163a0e300a69160448082019260009290919082900301818387803b15801561456957600080fd5b505af115801561457d573d6000803e3d6000fd5b505050600b82905550600981905561459c81600463ffffffff614a8816565b6016819055600a546145b39163ffffffff614ac016565b60195550565b6145c1613266565b6145ca57600080fd5b6001600160a01b0381166145dd57600080fd5b6003546040516001600160a01b038084169216907f211c9015fc81c0dbd45bd99f0f29fc1c143bfd53442d5ffd722bbbef7a887fe990600090a3600380546001600160a01b0319166001600160a01b0392909216919091179055565b6000908152601b602052604090205490565b6006546001600160a01b031681565b6002546001600160a01b031633146146a35760405162461bcd60e51b8152600401808060200182810382526026815260200180615c616026913960400191505060405180910390fd5b601a805460ff1916911515919091179055565b6146be613266565b6146c757600080fd5b61329a816159c3565b600754604080516331a9108f60e11b8152600481018590529051849233926001600160a01b0390911691636352211e91602480820192602092909190829003018186803b15801561472057600080fd5b505afa158015614734573d6000803e3d6000fd5b505050506040513d602081101561474a57600080fd5b50516001600160a01b03161461475f57600080fd5b600061476a83614176565b90506001600160a01b0381161580159061479a57506001600160a01b0381166000908152601c6020526040902054155b6147dd576040805162461bcd60e51b815260206004820152600f60248201526e496e76616c6964205369676e65722160881b604482015290519081900360640190fd5b60105460008581526020805260409020546147fd9163ffffffff614ac016565b614805613277565b1015614858576040805162461bcd60e51b815260206004820152601a60248201527f496e76616c696420636865636b706f696e74206e756d62657221000000000000604482015290519081900360640190fd5b6006546000858152601b6020908152604080832060050154905163b80fbce560e01b8152600481018981526001600160a01b039283166024830181905287841660448401526080606484019081528a5160848501528a51949097169663b80fbce5968c9692958a958d959460a49091019290860191908190849084905b838110156148ed5781810151838201526020016148d5565b50505050905090810190601f16801561491a5780820380516001836020036101000a031916815260200191505b5095505050505050600060405180830381600087803b15801561493c57600080fd5b505af1158015614950573d6000803e3d6000fd5b5050506000858152601b6020818152604080842060050180546001600160a01b039081168652601c8452828620600019905587168086529185208a90559389905291905281546001600160a01b031916179055506149ac613277565b600094855260208052604090942093909355505050565b6149cb613266565b6149d457600080fd5b600a546145b3908263ffffffff614ac016565b6002546001600160a01b03163314614a305760405162461bcd60e51b8152600401808060200182810382526026815260200180615c616026913960400191505060405180910390fd5b6002805460ff60a01b1916600160a01b179055565b600e5481565b6004546001600160a01b031681565b600082614a69575060006117d2565b82820282848281614a7657fe5b0414614a8157600080fd5b9392505050565b6000808211614a9657600080fd5b6000828481614aa157fe5b04949350505050565b6000818310614ab95781614a81565b5090919050565b600082820183811015614a8157600080fd5b600082821115614ae157600080fd5b50900390565b600a54600090614afe90600163ffffffff614ac016565b6000818152601d60205260408082208054600a8054855283852054909101825560019182018054825486528486208401540190558054845291832083815501919091555550565b60008080805b84518167ffffffffffffffff161015614dd3576060614b76868367ffffffffffffffff166041615944565b60408051631df4cba560e21b8152600481018a81526024820192835283516044830152835193945060009373__ECVerify______________________________936377d32e94938d9388939092916064019060208501908083838c5b83811015614bea578181015183820152602001614bd2565b50505050905090810190601f168015614c175780820380516001836020036101000a031916815260200191505b50935050505060206040518083038186803b158015614c3557600080fd5b505af4158015614c49573d6000803e3d6000fd5b505050506040513d6020811015614c5f57600080fd5b50516001600160a01b038082166000818152601c60205260409020549293509086161415614c8f57505050614dd3565b614c988161171e565b8015614cb55750846001600160a01b0316826001600160a01b0316115b15614dc8576000818152601b60205260408120600681015493965086939091906001600160a01b031615614d7b578160060160009054906101000a90046001600160a01b03166001600160a01b03166397e508188d8f6040518363ffffffff1660e01b81526004018083815260200182815260200192505050602060405180830381600087803b158015614d4857600080fd5b505af1158015614d5c573d6000803e3d6000fd5b505050506040513d6020811015614d7257600080fd5b50519050614db3565b81600001549050614dad614d9c8e6113d38f85614a5a90919063ffffffff16565b60018401549063ffffffff614ac016565b60018301555b614dc3888263ffffffff614ac016565b975050505b505050604101614b4b565b50614df2614ddf6136c4565b600c546113d3908563ffffffff614a5a16565b601454909650614e08908763ffffffff614ac016565b601455614e22600161397760036113d3600261396b6136c4565b821015614e6f576040805162461bcd60e51b81526020600482015260166024820152753737ba1032b737bab3b41039ba30b5b2903837bbb2b960511b604482015290519081900360640190fd5b509395945050505050565b6000828152601b602052604081205490614e9384612c39565b6000858152601b6020526040812060038101869055600181015460069091015492935090916001600160a01b031615614f8c576000868152601b602090815260408083206006015481516332ba2e5360e01b815291516001600160a01b0390911693614f1f9385936332ba2e539360048083019491928390030190829087803b15801561339257600080fd5b9150806001600160a01b031663753868e36040518163ffffffff1660e01b8152600401602060405180830381600087803b158015614f5c57600080fd5b505af1158015614f70573d6000803e3d6000fd5b505050506040513d6020811015614f8657600080fd5b50519250505b600480546040805163a9059cbb60e01b81526001600160a01b0387811694820194909452602481018590529051929091169163a9059cbb916044808201926020929091908290030181600087803b158015614fe657600080fd5b505af1158015614ffa573d6000803e3d6000fd5b505050506040513d602081101561501057600080fd5b5051615063576040805162461bcd60e51b815260206004820152601760248201527f52657761726473207472616e73666572206661696c6564000000000000000000604482015290519081900360640190fd5b615075858386016000036000196150f8565b60065460408051635e04d48360e01b81526001600160a01b038681166004830152602482018a9052604482018990526064820188905291519190921691635e04d48391608480830192600092919082900301818387803b1580156150d857600080fd5b505af11580156150ec573d6000803e3d6000fd5b50505050505050505050565b6000928352601d60205260409092208054909101815560010180549091019055565b600061512582614176565b6001600160a01b0381166000908152601c602052604090205490915015615188576040805162461bcd60e51b8152602060048201526012602482015271496e76616c6964205369676e6572206b657960701b604482015290519081900360640190fd5b60125461519b908563ffffffff614ac016565b60128190555060405180610100016040528085815260200160008152602001600a5481526020016000815260200160008152602001826001600160a01b03168152602001846151eb576000615273565b6008546013546006546040805163780ff34960e11b815260048101939093526001600160a01b0391821660248401525192169163f01fe692916044808201926020929091908290030181600087803b15801561524657600080fd5b505af115801561525a573d6000803e3d6000fd5b505050506040513d602081101561527057600080fd5b50515b6001600160a01b03168152602001600190526013546000908152601b60209081526040918290208351815590830151600182015590820151600282015560608201516003808301919091556080830151600483015560a08301516005830180546001600160a01b039283166001600160a01b03199182161790915560c08501516006850180549190931691161780825560e08501519260ff60a01b1990911690600160a01b90849081111561532457fe5b021790555050600a5460138054600090815260208052604080822093909355600754915483516340c10f1960e01b81526001600160a01b038b8116600483015260248201929092529351921693506340c10f19926044808201939182900301818387803b15801561539457600080fd5b505af11580156153a8573d6000803e3d6000fd5b50506013546001600160a01b0384166000908152601c60205260409020555050600a546153d7908560016150f8565b600a54601f6000601354815260200190815260200160002060010181905550600660009054906101000a90046001600160a01b03166001600160a01b03166333a8383c8284601354600a54896012546040518763ffffffff1660e01b815260040180876001600160a01b03166001600160a01b0316815260200180602001868152602001858152602001848152602001838152602001828103825287818151815260200191508051906020019080838360005b838110156154a257818101518382015260200161548a565b50505050905090810190601f1680156154cf5780820380516001836020036101000a031916815260200191505b50975050505050505050600060405180830381600087803b1580156154f357600080fd5b505af1158015615507573d6000803e3d6000fd5b505060135461552092509050600163ffffffff614ac016565b6013555050505050565b60215461553d908263ffffffff614ac016565b6021556006546040805163a449d79560e01b81526001600160a01b038581166004830152602482018590529151919092169163a449d79591604480830192600092919082900301818387803b15801561559557600080fd5b505af11580156155a9573d6000803e3d6000fd5b505050505050565b600081831015614ab95781614a81565b6155c9615bc3565b506040805180820190915281518152602082810190820152919050565b60606155f182615a31565b6155fa57600080fd5b600061560583615a6b565b905060608160405190808252806020026020018201604052801561564357816020015b615630615bc3565b8152602001906001900390816156285790505b50905060006156558560200151615ac7565b60208601510190506000805b848110156156ac5761567283615b2a565b915060405180604001604052808381526020018481525084828151811061569557fe5b602090810291909101015291810191600101615661565b509195945050505050565b8051600090158015906156cc57508151602110155b6156d557600080fd5b60006156e48360200151615ac7565b8351602080860151830180519394509184900392919083101561570e57826020036101000a820491505b50949350505050565b805160009060011461572857600080fd5b6020820151805160001a908115615740576001615743565b60005b949350505050565b6000828152601b602052604081206006015481906001600160a01b0316156157f1576000848152601b6020908152604080832060060154815163753868e360e01b815291516001600160a01b039091169363753868e393600480850194919392918390030190829087803b1580156157c257600080fd5b505af11580156157d6573d6000803e3d6000fd5b505050506040513d60208110156157ec57600080fd5b505190505b600a546000858152601b60205260409020600301819055615818908463ffffffff614ac016565b6000858152601b60205260408082206004808201949094556006808201805460ff60a01b1916600160a11b17905554600a5460059092015483516381dc101b60e01b81529586018a905260248601929092526001600160a01b03918216604486015291519116926381dc101b92606480830193919282900301818387803b1580156158a257600080fd5b505af11580156158b6573d6000803e3d6000fd5b5050506000858152601b602052604090205461574391508263ffffffff614ac016565b6021546158ec908263ffffffff614ad216565b6021556006546040805163122b648160e01b81526001600160a01b038581166004830152602482018590529151919092169163122b648191604480830192600092919082900301818387803b15801561559557600080fd5b60608183018451101561595657600080fd5b6060821580156159715760405191506020820160405261570e565b6040519150601f8416801560200281840101858101878315602002848b0101015b818310156159aa578051835260209283019201615992565b5050858452601f01601f19166040525050949350505050565b6001600160a01b0381166159d657600080fd5b600080546040516001600160a01b03808516939216917f8be0079c531659141344cd1fd0a4f28419497f9722a3daafe3b4186f6b6457e091a3600080546001600160a01b0319166001600160a01b0392909216919091179055565b8051600090615a425750600061170d565b6020820151805160001a9060c0821015615a615760009250505061170d565b5060019392505050565b8051600090615a7c5750600061170d565b60008090506000615a908460200151615ac7565b602085015185519181019250015b80821015615abe57615aaf82615b2a565b60019093019290910190615a9e565b50909392505050565b8051600090811a6080811015615ae157600091505061170d565b60b8811080615afc575060c08110801590615afc575060f881105b15615b0b57600191505061170d565b60c0811015615b1f5760b51901905061170d565b60f51901905061170d565b80516000908190811a6080811015615b455760019150615bbc565b60b8811015615b5a57607e1981019150615bbc565b60c0811015615b875760b78103600185019450806020036101000a85510460018201810193505050615bbc565b60f8811015615b9c5760be1981019150615bbc565b60f78103600185019450806020036101000a855104600182018101935050505b5092915050565b60405180604001604052806000815260200160008152509056fe56616c696461746f7220736574205468726573686f6c642065786365656465642150726f706f73657220626f6e75732073686f756c64206265206c657373207468616e206f7220657175616c20746f20313030436f6e6669726d6174696f6e206973206e6f7420616c6c6f776564206265666f72652061756374696f6e506572696f644f6e6c7920676f7665726e616e636520636f6e747261637420697320617574686f72697a6564a265627a7a723158206edb2bec8a464301a50bcc555d33f42e3ab4291af91c123ba6b009cfdd3773ef64736f6c634300050b0032",
  "source": "pragma solidity ^0.5.2;\n\nimport {IERC20} from \"openzeppelin-solidity/contracts/token/ERC20/IERC20.sol\";\nimport {Math} from \"openzeppelin-solidity/contracts/math/Math.sol\";\nimport {SafeMath} from \"openzeppelin-solidity/contracts/math/SafeMath.sol\";\nimport {Ownable} from \"openzeppelin-solidity/contracts/ownership/Ownable.sol\";\nimport {RLPReader} from \"solidity-rlp/contracts/RLPReader.sol\";\n\nimport {BytesLib} from \"../../common/lib/BytesLib.sol\";\nimport {ECVerify} from \"../../common/lib/ECVerify.sol\";\nimport {Merkle} from \"../../common/lib/Merkle.sol\";\nimport {Lockable} from \"../../common/mixin/Lockable.sol\";\nimport {RootChainable} from \"../../common/mixin/RootChainable.sol\";\nimport {Registry} from \"../../common/Registry.sol\";\nimport {IStakeManager} from \"./IStakeManager.sol\";\nimport {ValidatorShare} from \"../validatorShare/ValidatorShare.sol\";\nimport {StakingInfo} from \"../StakingInfo.sol\";\nimport {StakingNFT} from \"./StakingNFT.sol\";\nimport \"../validatorShare/ValidatorShareFactory.sol\";\nimport {ISlashingManager} from \"../slashing/ISlashingManager.sol\";\nimport {StakeManagerStorage} from \"./StakeManagerStorage.sol\";\nimport {Governable} from \"../../common/governance/Governable.sol\";\n\n\ncontract StakeManager is IStakeManager, StakeManagerStorage {\n    using SafeMath for uint256;\n    using ECVerify for bytes32;\n    using Merkle for bytes32;\n    using RLPReader for bytes;\n    using RLPReader for RLPReader.RLPItem;\n\n    uint256 private constant INCORRECT_VALIDATOR_ID = 2**256 - 1;\n\n    modifier onlyStaker(uint256 validatorId) {\n        require(NFTContract.ownerOf(validatorId) == msg.sender);\n        _;\n    }\n\n    constructor() public Lockable(address(0x0)) {}\n\n    function setDelegationEnabled(bool enabled) public onlyGovernance {\n        delegationEnabled = enabled;\n    }\n\n    // TopUp heimdall fee\n    function topUpForFee(address user, uint256 heimdallFee)\n        public\n        onlyWhenUnlocked\n    {\n        require(heimdallFee >= minHeimdallFee, \"Minimum amount is 1 Matic\");\n        require(\n            token.transferFrom(msg.sender, address(this), heimdallFee),\n            \"Transfer stake failed\"\n        );\n        _topUpForFee(user, heimdallFee);\n    }\n\n    function ownerOf(uint256 tokenId) public view returns (address) {\n        return NFTContract.ownerOf(tokenId);\n    }\n\n    function epoch() public view returns (uint256) {\n        return currentEpoch;\n    }\n\n    function withdrawalDelay() public view returns (uint256) {\n        return WITHDRAWAL_DELAY;\n    }\n\n    function validatorStake(uint256 validatorId) public view returns (uint256) {\n        return validators[validatorId].amount;\n    }\n\n    function _topUpForFee(address user, uint256 amount) private {\n        totalHeimdallFee = totalHeimdallFee.add(amount);\n        logger.logTopUpFee(user, amount);\n    }\n\n    function _claimFee(address user, uint256 amount) private {\n        totalHeimdallFee = totalHeimdallFee.sub(amount);\n        logger.logClaimFee(user, amount);\n    }\n\n    function claimFee(uint256 accumFeeAmount, uint256 index, bytes memory proof)\n        public\n    {\n        address user = msg.sender;\n        //Ignoring other params becuase rewards distribution is on chain\n        require(\n            keccak256(abi.encode(user, accumFeeAmount)).checkMembership(\n                index,\n                accountStateRoot,\n                proof\n            ),\n            \"Wrong acc proof\"\n        );\n        uint256 withdrawAmount = accumFeeAmount.sub(userFeeExit[user]);\n\n        require(token.transfer(user, withdrawAmount));\n        _claimFee(user, withdrawAmount);\n        userFeeExit[user] = accumFeeAmount;\n    }\n\n    function stake(\n        uint256 amount,\n        uint256 heimdallFee,\n        bool acceptDelegation,\n        bytes calldata signerPubkey\n    ) external {\n        stakeFor(\n            msg.sender,\n            amount,\n            heimdallFee,\n            acceptDelegation,\n            signerPubkey\n        );\n    }\n\n    function totalStakedFor(address user) external view returns (uint256) {\n        if (user == address(0x0) || NFTContract.balanceOf(user) == 0) {\n            return 0;\n        }\n        return validators[NFTContract.tokenOfOwnerByIndex(user, 0)].amount;\n    }\n\n    function supportsHistory() external pure returns (bool) {\n        return false;\n    }\n\n    function startAuction(uint256 validatorId, uint256 amount)\n        external\n        onlyWhenUnlocked\n    {\n        require(isValidator(validatorId));\n        // when dynasty period is updated validators are in cooldown period\n        require(\n            replacementCoolDown == 0 || replacementCoolDown <= currentEpoch,\n            \"Cooldown period\"\n        );\n        // (auctionPeriod--dynasty)--(auctionPeriod--dynasty)--(auctionPeriod--dynasty)\n        // if it's auctionPeriod then will get residue smaller then auctionPeriod\n        // from (CurrentPeriod of validator )%(auctionPeriod--dynasty)\n        // make sure that its `auctionPeriod` window\n        // dynasty = 30, auctionPeriod = 7, activationEpoch = 1, currentEpoch = 39\n        // residue 1 = (39-1)% (7+30), if residue <= auctionPeriod it's `auctionPeriod`\n\n        require(\n            (currentEpoch.sub(validators[validatorId].activationEpoch) %\n                dynasty.add(auctionPeriod)) <= auctionPeriod,\n            \"Invalid auction period\"\n        );\n        uint256 perceivedStake = validators[validatorId].amount;\n        address _contract = validators[validatorId].contractAddress;\n        if (_contract != address(0x0)) {\n            perceivedStake = perceivedStake.add(\n                ValidatorShare(_contract).activeAmount()\n            );\n        }\n        perceivedStake = Math.max(\n            perceivedStake,\n            validatorAuction[validatorId].amount\n        );\n\n        require(perceivedStake < amount, \"Must bid higher amount\");\n        require(\n            token.transferFrom(msg.sender, address(this), amount),\n            \"Transfer amount failed\"\n        );\n\n        Auction storage auction = validatorAuction[validatorId];\n        // create new auction\n        if (validatorAuction[validatorId].amount != 0) {\n            //replace prev auction\n            require(token.transfer(auction.user, auction.amount));\n        }\n        auction.amount = amount;\n        auction.user = msg.sender;\n\n        logger.logStartAuction(\n            validatorId,\n            validators[validatorId].amount,\n            validatorAuction[validatorId].amount\n        );\n    }\n\n    function confirmAuctionBid(\n        uint256 validatorId,\n        uint256 heimdallFee, /** for new validator */\n        bool acceptDelegation,\n        bytes calldata signerPubkey\n    ) external onlyWhenUnlocked {\n        Auction storage auction = validatorAuction[validatorId];\n        Validator storage validator = validators[validatorId];\n        require(msg.sender == auction.user, \"Only bidder can confirm\");\n\n        require(\n            currentEpoch.sub(auction.startEpoch) % auctionPeriod.add(dynasty) >=\n                auctionPeriod,\n            \"Confirmation is not allowed before auctionPeriod\"\n        );\n\n        // validator is last auctioner\n        if (auction.user == NFTContract.ownerOf(validatorId)) {\n            uint256 refund = validator.amount;\n            require(token.transfer(auction.user, refund));\n            validator.amount = auction.amount;\n\n            //cleanup auction data\n            auction.amount = 0;\n            auction.user = address(0x0);\n            auction.startEpoch = currentEpoch;\n            //update total stake amount\n            totalStaked = totalStaked.add(validator.amount.sub(refund));\n            logger.logStakeUpdate(validatorId);\n            logger.logConfirmAuction(\n                validatorId,\n                validatorId,\n                validator.amount\n            );\n        } else {\n            // dethrone\n            _unstake(validatorId, currentEpoch);\n            require(\n                token.transferFrom(msg.sender, address(this), heimdallFee),\n                \"Transfer fee failed\"\n            );\n            _stakeFor(\n                auction.user,\n                auction.amount,\n                acceptDelegation,\n                signerPubkey\n            );\n            require(heimdallFee >= minHeimdallFee, \"Minimum amount is 1 Matic\");\n            _topUpForFee(auction.user, heimdallFee);\n\n            logger.logConfirmAuction(\n                NFTCounter.sub(1),\n                validatorId,\n                auction.amount\n            );\n            validatorAuction[validatorId].amount = 0;\n            validatorAuction[validatorId].user = address(0x0);\n        }\n    }\n\n    function unstake(uint256 validatorId) external onlyStaker(validatorId) {\n        require(\n            validatorAuction[validatorId].amount == 0,\n            \"Wait for auction completion\"\n        );\n        uint256 exitEpoch = currentEpoch.add(1); // notice period\n        require(\n            validators[validatorId].activationEpoch > 0 &&\n                validators[validatorId].deactivationEpoch == 0 &&\n                validators[validatorId].status == Status.Active\n        );\n        _unstake(validatorId, exitEpoch);\n    }\n\n    // Housekeeping function. @todo remove later\n    function forceUnstake(uint256 validatorId) external onlyOwner {\n        _unstake(validatorId, currentEpoch);\n    }\n\n    // Housekeeping function. @todo remove later\n    // other than varibale you want to update give same values\n    function updateConstructor(\n        address _registry,\n        address _rootchain,\n        address _NFTContract,\n        address _stakingLogger,\n        address _ValidatorShareFactory\n    ) external onlyOwner {\n        registry = _registry;\n        rootChain = _rootchain;\n        NFTContract = StakingNFT(_NFTContract);\n        logger = StakingInfo(_stakingLogger);\n        factory = ValidatorShareFactory(_ValidatorShareFactory);\n    }\n\n    function transferFunds(\n        uint256 validatorId,\n        uint256 amount,\n        address delegator\n    ) external returns (bool) {\n        require(\n            Registry(registry).getSlashingManagerAddress() == msg.sender ||\n                validators[validatorId].contractAddress == msg.sender,\n            \"Invalid contract address\"\n        );\n        return token.transfer(delegator, amount);\n    }\n\n    function delegationDeposit(\n        uint256 validatorId,\n        uint256 amount,\n        address delegator\n    ) external returns (bool) {\n        require(delegationEnabled, \"Delegation is disabled\");\n        require(\n            validators[validatorId].contractAddress == msg.sender,\n            \"Invalid contract address\"\n        );\n        return token.transferFrom(delegator, address(this), amount);\n    }\n\n    function stakeFor(\n        address user,\n        uint256 amount,\n        uint256 heimdallFee,\n        bool acceptDelegation,\n        bytes memory signerPubkey\n    ) public onlyWhenUnlocked {\n        require(\n            currentValidatorSetSize() < validatorThreshold,\n            \"Validator set Threshold exceeded!\"\n        );\n        require(amount > minDeposit, \"min deposit limit failed!\");\n        require(heimdallFee >= minHeimdallFee, \"Minimum amount is 1 Matic\");\n\n        require(\n            token.transferFrom(\n                msg.sender,\n                address(this),\n                amount.add(heimdallFee)\n            ),\n            \"Transfer stake failed\"\n        );\n        _stakeFor(user, amount, acceptDelegation, signerPubkey);\n        // _topup\n        _topUpForFee(user, heimdallFee);\n    }\n\n    function unstakeClaim(uint256 validatorId) public onlyStaker(validatorId) {\n        // can only claim stake back after WITHDRAWAL_DELAY\n        require(\n            validators[validatorId].deactivationEpoch > 0 &&\n                validators[validatorId].deactivationEpoch.add(\n                    WITHDRAWAL_DELAY\n                ) <=\n                currentEpoch &&\n                validators[validatorId].status != Status.Unstaked\n        );\n        uint256 amount = validators[validatorId].amount;\n        totalStaked = totalStaked.sub(amount);\n\n        NFTContract.burn(validatorId);\n        signerToValidator[validators[validatorId]\n            .signer] = INCORRECT_VALIDATOR_ID;\n        // delete validators[validatorId];\n        validators[validatorId].status = Status.Unstaked;\n        require(token.transfer(msg.sender, amount), \"Transfer stake failed\");\n        logger.logUnstaked(msg.sender, validatorId, amount, totalStaked);\n    }\n\n    // slashing and jail interface\n    function restake(uint256 validatorId, uint256 amount, bool stakeRewards)\n        public\n        onlyWhenUnlocked\n        onlyStaker(validatorId)\n    {\n        require(\n            validators[validatorId].deactivationEpoch < currentEpoch,\n            \"No use of restaking\"\n        );\n        require(\n            validatorAuction[validatorId].amount == 0,\n            \"Wait for auction completion\"\n        );\n\n        if (amount > 0) {\n            require(\n                token.transferFrom(msg.sender, address(this), amount),\n                \"Transfer stake\"\n            );\n        }\n        if (stakeRewards) {\n            amount = amount.add(validators[validatorId].reward);\n            address _contract = validators[validatorId].contractAddress;\n            if (_contract != address(0x0)) {\n                amount = amount.add(\n                    ValidatorShare(_contract).withdrawRewardsValidator()\n                );\n            }\n            validators[validatorId].reward = 0;\n        }\n        totalStaked = totalStaked.add(amount);\n        validators[validatorId].amount = validators[validatorId].amount.add(\n            amount\n        );\n        validatorState[currentEpoch].amount = (validatorState[currentEpoch]\n            .amount + int256(amount));\n\n        logger.logStakeUpdate(validatorId);\n        logger.logReStaked(\n            validatorId,\n            validators[validatorId].amount,\n            totalStaked\n        );\n    }\n\n    function withdrawRewards(uint256 validatorId)\n        public\n        onlyStaker(validatorId)\n    {\n        uint256 amount = validators[validatorId].reward;\n        address _contract = validators[validatorId].contractAddress;\n        if (_contract != address(0x0)) {\n            amount = amount.add(\n                ValidatorShare(_contract).withdrawRewardsValidator()\n            );\n        }\n        totalRewardsLiquidated = totalRewardsLiquidated.add(amount);\n        validators[validatorId].reward = 0;\n        require(token.transfer(msg.sender, amount), \"Insufficent rewards\");\n        logger.logClaimRewards(validatorId, amount, totalRewardsLiquidated);\n    }\n\n    // returns valid validator for current epoch\n    function getCurrentValidatorSet() public view returns (uint256[] memory) {\n        uint256[] memory _validators = new uint256[](currentValidatorSetSize());\n        uint256 validator;\n        uint256 k = 0;\n        for (uint256 i = 0; i < NFTContract.totalSupply(); i++) {\n            validator = NFTContract.tokenByIndex(i);\n            if (isValidator(validator)) {\n                _validators[k++] = validator;\n            }\n        }\n        return _validators;\n    }\n\n    function getValidatorId(address user) public view returns (uint256) {\n        return NFTContract.tokenOfOwnerByIndex(user, 0);\n    }\n\n    // set staking Token\n    function setToken(address _token) public onlyOwner {\n        require(_token != address(0x0));\n        token = IERC20(_token);\n    }\n\n    // Change the number of validators required to allow a passed header root\n    function updateValidatorThreshold(uint256 newThreshold) public onlyOwner {\n        require(newThreshold > 0);\n        logger.logThresholdChange(newThreshold, validatorThreshold);\n        validatorThreshold = newThreshold;\n    }\n\n    function updateCheckPointBlockInterval(uint256 _blocks) public onlyOwner {\n        require(_blocks > 0, \"Blocks interval must be non-zero\");\n        checkPointBlockInterval = _blocks;\n    }\n\n    // Change reward for each checkpoint\n    function updateCheckpointReward(uint256 newReward) public onlyOwner {\n        require(newReward > 0);\n        logger.logRewardUpdate(newReward, CHECKPOINT_REWARD);\n        CHECKPOINT_REWARD = newReward;\n    }\n\n    function updateValidatorState(uint256 validatorId, int256 amount) public {\n        require(\n            validators[validatorId].contractAddress == msg.sender,\n            \"Invalid contract address\"\n        );\n        validatorState[currentEpoch].amount = (validatorState[currentEpoch]\n            .amount + amount);\n    }\n\n    function updateDynastyValue(uint256 newDynasty) public onlyOwner {\n        require(newDynasty > 0);\n        logger.logDynastyValueChange(newDynasty, dynasty);\n        dynasty = newDynasty;\n        WITHDRAWAL_DELAY = newDynasty;\n        auctionPeriod = newDynasty.div(4);\n        // set cooldown period\n        replacementCoolDown = currentEpoch.add(auctionPeriod);\n    }\n\n    // Housekeeping function. @todo remove later\n    function stopAuctions(uint256 forNCheckpoints) public onlyOwner {\n        replacementCoolDown = currentEpoch.add(forNCheckpoints);\n    }\n\n    function updateProposerBonus(uint256 newProposerBonus) public onlyOwner {\n        logger.logProposerBonusChange(newProposerBonus, proposerBonus);\n        require(\n            newProposerBonus <= 100,\n            \"Proposer bonus should be less than or equal to 100\"\n        );\n        proposerBonus = newProposerBonus;\n    }\n\n    function updateSignerUpdateLimit(uint256 _limit) public onlyOwner {\n        signerUpdateLimit = _limit;\n    }\n\n    function updateMinAmounts(uint256 _minDeposit, uint256 _minHeimdallFee)\n        public\n        onlyOwner\n    {\n        minDeposit = _minDeposit;\n        minHeimdallFee = _minHeimdallFee;\n    }\n\n    function updateSigner(uint256 validatorId, bytes memory signerPubkey)\n        public\n        onlyStaker(validatorId)\n    {\n        address _signer = pubToAddress(signerPubkey);\n        require(\n            _signer != address(0x0) && signerToValidator[_signer] == 0,\n            \"Invalid Signer!\"\n        );\n        require(\n            epoch() >=\n                latestSignerUpdateEpoch[validatorId].add(signerUpdateLimit),\n            \"Invalid checkpoint number!\"\n        );\n\n        // update signer event\n        logger.logSignerChange(\n            validatorId,\n            validators[validatorId].signer,\n            _signer,\n            signerPubkey\n        );\n\n        signerToValidator[validators[validatorId]\n            .signer] = INCORRECT_VALIDATOR_ID;\n        signerToValidator[_signer] = validatorId;\n        validators[validatorId].signer = _signer;\n        // reset update time to current time\n        latestSignerUpdateEpoch[validatorId] = epoch();\n    }\n\n    function currentValidatorSetSize() public view returns (uint256) {\n        return uint256(validatorState[currentEpoch].stakerCount);\n    }\n\n    function currentValidatorSetTotalStake() public view returns (uint256) {\n        return uint256(validatorState[currentEpoch].amount);\n    }\n\n    function getValidatorContract(uint256 validatorId)\n        public\n        view\n        returns (address)\n    {\n        return validators[validatorId].contractAddress;\n    }\n\n    function isValidator(uint256 validatorId) public view returns (bool) {\n        return (validators[validatorId].amount > 0 &&\n            (validators[validatorId].activationEpoch != 0 &&\n                validators[validatorId].activationEpoch <= currentEpoch) &&\n            (validators[validatorId].deactivationEpoch == 0 ||\n                validators[validatorId].deactivationEpoch > currentEpoch) &&\n            validators[validatorId].status == Status.Active);\n    }\n\n    function checkSignatures(\n        uint256 blockInterval,\n        bytes32 voteHash,\n        bytes32 stateRoot,\n        address proposer,\n        bytes memory sigs\n    ) public onlyRootChain returns (uint256) {\n        // checkpoint rewards are based on BlockInterval multiplied on `CHECKPOINT_REWARD`\n        // for bigger checkpoints reward is capped at `CHECKPOINT_REWARD`\n        // if interval is 50% of checkPointBlockInterval then reward R is half of `CHECKPOINT_REWARD`\n        // and then stakePower is 90% of currentValidatorSetTotalStake then final reward is 90% of R\n        uint256 _reward = blockInterval.mul(CHECKPOINT_REWARD).div(\n            checkPointBlockInterval\n        );\n        _reward = Math.min(CHECKPOINT_REWARD, _reward);\n        uint256 _proposerBonus = _reward.mul(proposerBonus).div(100);\n        Validator storage _proposer = validators[signerToValidator[proposer]];\n        if (_proposer.contractAddress != address(0x0)) {\n            ValidatorShare(_proposer.contractAddress).addProposerBonus(\n                _proposerBonus,\n                _proposer.amount\n            );\n        } else {\n            _proposer.reward = _proposer.reward.add(_proposerBonus);\n        }\n\n        _reward = _reward.sub(_proposerBonus);\n        uint256 stakePower = currentValidatorSetTotalStake();\n        // update stateMerkleTree root for accounts balance on heimdall chain\n        accountStateRoot = stateRoot;\n        _finalizeCommit();\n        return checkSignature(stakePower, _reward, voteHash, sigs);\n    }\n\n    function checkSignature(\n        uint256 stakePower,\n        uint256 _reward,\n        bytes32 voteHash,\n        bytes memory sigs\n    ) internal returns (uint256) {\n        // total voting power\n        uint256 _stakePower;\n        address lastAdd; // cannot have address(0x0) as an owner\n        for (uint64 i = 0; i < sigs.length; i += 65) {\n            bytes memory sigElement = BytesLib.slice(sigs, i, 65);\n            address signer = voteHash.ecrecovery(sigElement);\n\n            uint256 validatorId = signerToValidator[signer];\n            // check if signer is staker and not proposer\n            if (signer == lastAdd) {\n                break;\n            } else if (isValidator(validatorId) && signer > lastAdd) {\n                lastAdd = signer;\n                Validator storage validator = validators[validatorId];\n                uint256 valPow;\n                // add delegation power\n                if (validator.contractAddress != address(0x0)) {\n                    valPow = ValidatorShare(validator.contractAddress)\n                        .updateRewards(_reward, stakePower);\n                } else {\n                    valPow = validator.amount;\n                    validator.reward = validator.reward.add(\n                        valPow.mul(_reward).div(stakePower)\n                    );\n                }\n                _stakePower = _stakePower.add(valPow);\n            }\n        }\n\n        _reward = CHECKPOINT_REWARD.mul(_stakePower).div(\n            currentValidatorSetTotalStake()\n        );\n        totalRewards = totalRewards.add(_reward);\n        require(\n            _stakePower >= currentValidatorSetTotalStake().mul(2).div(3).add(1),\n            \"not enough stake power\"\n        );\n        return _reward;\n    }\n\n    function slash(bytes memory _slashingInfoList) public returns (uint256) {\n        require(\n            Registry(registry).getSlashingManagerAddress() == msg.sender,\n            \"Sender must be slashing manager!\"\n        );\n        RLPReader.RLPItem[] memory slashingInfoList = _slashingInfoList\n            .toRlpItem()\n            .toList();\n        int256 valJailed = 0;\n        uint256 jailedAmount = 0;\n        uint256 _totalAmount;\n        for (uint256 i = 0; i < slashingInfoList.length; i++) {\n            RLPReader.RLPItem[] memory slashData = slashingInfoList[i].toList();\n            uint256 validatorId = slashData[0].toUint();\n            uint256 _amount = slashData[1].toUint();\n            _totalAmount = _totalAmount.add(_amount);\n            if (validators[validatorId].contractAddress != address(0x0)) {\n                uint256 delSlashedAmount = ValidatorShare(\n                    validators[validatorId]\n                        .contractAddress\n                )\n                    .slash(validators[validatorId].amount, _amount);\n                _amount = _amount.sub(delSlashedAmount);\n            }\n            validators[validatorId].amount = validators[validatorId].amount.sub(\n                _amount\n            );\n            if (slashData[2].toBoolean()) {\n                jailedAmount = jailedAmount.add(_jail(validatorId, 1));\n                valJailed++;\n            }\n        }\n\n        //update timeline\n        updateTimeLine(\n            currentEpoch,\n            -int256(_totalAmount.add(jailedAmount)),\n            -valJailed\n        );\n\n        return _totalAmount;\n    }\n\n    function unJail(uint256 validatorId) public onlyStaker(validatorId) {\n        require(validators[validatorId].status == Status.Locked);\n        require(\n            validators[validatorId].jailTime <= currentEpoch,\n            \"Incomplete jail period\"\n        );\n\n        uint256 amount = validators[validatorId].amount;\n        require(amount >= minDeposit);\n\n        uint256 delegationAmount = 0;\n        if (validators[validatorId].contractAddress != address(0x0)) {\n            delegationAmount = ValidatorShare(\n                validators[validatorId]\n                    .contractAddress\n            )\n                .unlockContract();\n        }\n\n        // undo timline so that validator is normal validator\n        updateTimeLine(currentEpoch, int256(amount.add(delegationAmount)), 1);\n\n        validators[validatorId].deactivationEpoch = 0;\n        validators[validatorId].status = Status.Active;\n        logger.logUnJailed(validatorId, validators[validatorId].signer);\n    }\n\n    function _jail(uint256 validatorId, uint256 _jailCheckpoints)\n        internal\n        returns (uint256)\n    {\n        uint256 delegationAmount = 0;\n        if (validators[validatorId].contractAddress != address(0x0)) {\n            delegationAmount = ValidatorShare(\n                validators[validatorId]\n                    .contractAddress\n            )\n                .lockContract();\n        }\n        validators[validatorId].deactivationEpoch = currentEpoch;\n        validators[validatorId].jailTime = currentEpoch.add(_jailCheckpoints);\n        validators[validatorId].status = Status.Locked;\n        logger.logJailed(\n            validatorId,\n            currentEpoch,\n            validators[validatorId].signer\n        );\n        return validators[validatorId].amount.add(delegationAmount);\n    }\n\n    function _stakeFor(\n        address user,\n        uint256 amount,\n        bool acceptDelegation,\n        bytes memory signerPubkey\n    ) internal {\n        address signer = pubToAddress(signerPubkey);\n        require(signerToValidator[signer] == 0, \"Invalid Signer key\");\n\n        totalStaked = totalStaked.add(amount);\n        validators[NFTCounter] = Validator({\n            reward: 0,\n            amount: amount,\n            activationEpoch: currentEpoch,\n            deactivationEpoch: 0,\n            jailTime: 0,\n            signer: signer,\n            contractAddress: acceptDelegation\n                ? factory.create(NFTCounter, address(logger))\n                : address(0x0),\n            status: Status.Active\n        });\n\n        latestSignerUpdateEpoch[NFTCounter] = currentEpoch;\n        NFTContract.mint(user, NFTCounter);\n\n        signerToValidator[signer] = NFTCounter;\n        updateTimeLine(currentEpoch, int256(amount), 1);\n        // no Auctions for 1 dynasty\n        validatorAuction[NFTCounter].startEpoch = currentEpoch;\n        logger.logStaked(\n            signer,\n            signerPubkey,\n            NFTCounter,\n            currentEpoch,\n            amount,\n            totalStaked\n        );\n        NFTCounter = NFTCounter.add(1);\n    }\n\n    function _unstake(uint256 validatorId, uint256 exitEpoch) internal {\n        uint256 amount = validators[validatorId].amount;\n        address validator = ownerOf(validatorId);\n\n        validators[validatorId].deactivationEpoch = exitEpoch;\n\n        // unbond all delegators in future\n        int256 delegationAmount = 0;\n        uint256 rewards = validators[validatorId].reward;\n        if (validators[validatorId].contractAddress != address(0x0)) {\n            ValidatorShare validatorShare = ValidatorShare(\n                validators[validatorId].contractAddress\n            );\n            rewards = rewards.add(validatorShare.withdrawRewardsValidator());\n            delegationAmount = int256(validatorShare.lockContract());\n        }\n        require(token.transfer(validator, rewards), \"Rewards transfer failed\");\n        //  update future\n        updateTimeLine(exitEpoch, -(int256(amount) + delegationAmount), -1);\n\n        logger.logUnstakeInit(validator, validatorId, exitEpoch, amount);\n    }\n\n    function _finalizeCommit() internal {\n        uint256 nextEpoch = currentEpoch.add(1);\n        // update totalstake and validator count\n        validatorState[nextEpoch].amount = (validatorState[currentEpoch]\n            .amount + validatorState[nextEpoch].amount);\n        validatorState[nextEpoch].stakerCount = (validatorState[currentEpoch]\n            .stakerCount + validatorState[nextEpoch].stakerCount);\n\n        // erase old data/history\n        delete validatorState[currentEpoch];\n        currentEpoch = nextEpoch;\n    }\n\n    function updateTimeLine(uint256 epoch, int256 amount, int256 stakerCount)\n        private\n    {\n        validatorState[epoch].amount += amount;\n        validatorState[epoch].stakerCount += stakerCount;\n    }\n\n    function pubToAddress(bytes memory pub) public pure returns (address) {\n        require(pub.length == 64, \"Invalid pubkey\");\n        return address(uint160(uint256(keccak256(pub))));\n    }\n\n    function verifyConsensus(bytes32 voteHash, bytes memory sigs)\n        public\n        view\n        returns (uint256, uint256)\n    {\n        // total voting power\n        uint256 _stakePower;\n        address lastAdd; // cannot have address(0x0) as an owner\n        for (uint64 i = 0; i < sigs.length; i += 65) {\n            bytes memory sigElement = BytesLib.slice(sigs, i, 65);\n            address signer = voteHash.ecrecovery(sigElement);\n\n            uint256 validatorId = signerToValidator[signer];\n            // check if signer is staker and not proposer\n            if (signer == lastAdd) {\n                break;\n            } else if (isValidator(validatorId) && signer > lastAdd) {\n                lastAdd = signer;\n                uint256 amount = validators[validatorId].amount;\n                address contractAddress = validators[validatorId]\n                    .contractAddress;\n                // add delegation power\n                if (contractAddress != address(0x0)) {\n                    amount = amount.add(\n                        ValidatorShare(contractAddress).activeAmount() // dummy interface\n                    );\n                }\n                _stakePower = _stakePower.add(amount);\n            }\n        }\n\n        return (\n            _stakePower,\n            currentValidatorSetTotalStake().mul(2).div(3).add(1)\n        );\n    }\n}\n",
  "sourcePath": "/Users/arth/Documents/Projects/contracts/contracts/staking/stakeManager/StakeManager.sol",
  "compiler": {
    "name": "solc",
    "version": "0.5.11+commit.c082d0b4.Emscripten.clang"
  },
  "schemaVersion": "3.0.14",
  "updatedAt": "2020-05-16T09:22:50.587Z",
  "devdoc": {
    "methods": {
      "changeRootChain(address)": {
        "details": "Allows the current owner to change root chain address.",
        "params": {
          "newRootChain": "The address to new rootchain."
        }
      },
      "isOwner()": {
        "return": "true if `msg.sender` is the owner of the contract."
      },
      "owner()": {
        "return": "the address of the owner."
      },
      "renounceOwnership()": {
        "details": "Allows the current owner to relinquish control of the contract. It will not be possible to call the functions with the `onlyOwner` modifier anymore."
      },
      "transferOwnership(address)": {
        "details": "Allows the current owner to transfer control of the contract to a newOwner.",
        "params": {
          "newOwner": "The address to transfer ownership to."
        }
      }
    }
  },
  "userdoc": {
    "methods": {
      "renounceOwnership()": {
        "notice": "Renouncing ownership will leave the contract without an owner, thereby removing any functionality that is only available to the owner."
      }
    }
  }
}