{
  "contractName": "StakeManagerTest",
  "abi": [
    {
      "constant": true,
      "inputs": [],
      "name": "getCurrentValidatorSet",
      "outputs": [
        {
          "internalType": "uint256[]",
          "name": "",
          "type": "uint256[]"
        }
      ],
      "payable": false,
      "stateMutability": "view",
      "type": "function"
    },
    {
      "constant": false,
      "inputs": [
        {
          "internalType": "uint256",
          "name": "amount",
          "type": "uint256"
        },
        {
          "internalType": "uint256",
          "name": "heimdallFee",
          "type": "uint256"
        },
        {
          "internalType": "bool",
          "name": "acceptDelegation",
          "type": "bool"
        },
        {
          "internalType": "bytes",
          "name": "signerPubkey",
          "type": "bytes"
        }
      ],
      "name": "stake",
      "outputs": [],
      "payable": false,
      "stateMutability": "nonpayable",
      "type": "function"
    },
    {
      "constant": false,
      "inputs": [
        {
          "internalType": "uint256",
          "name": "_limit",
          "type": "uint256"
        }
      ],
      "name": "updateSignerUpdateLimit",
      "outputs": [],
      "payable": false,
      "stateMutability": "nonpayable",
      "type": "function"
    },
    {
      "constant": true,
      "inputs": [],
      "name": "auctionPeriod",
      "outputs": [
        {
          "internalType": "uint256",
          "name": "",
          "type": "uint256"
        }
      ],
      "payable": false,
      "stateMutability": "view",
      "type": "function"
    },
    {
      "constant": true,
      "inputs": [],
      "name": "totalRewards",
      "outputs": [
        {
          "internalType": "uint256",
          "name": "",
          "type": "uint256"
        }
      ],
      "payable": false,
      "stateMutability": "view",
      "type": "function"
    },
    {
      "constant": true,
      "inputs": [],
      "name": "WITHDRAWAL_DELAY",
      "outputs": [
        {
          "internalType": "uint256",
          "name": "",
          "type": "uint256"
        }
      ],
      "payable": false,
      "stateMutability": "view",
      "type": "function"
    },
    {
      "constant": false,
      "inputs": [
        {
          "internalType": "address",
          "name": "_registry",
          "type": "address"
        },
        {
          "internalType": "address",
          "name": "_rootchain",
          "type": "address"
        },
        {
          "internalType": "address",
          "name": "_NFTContract",
          "type": "address"
        },
        {
          "internalType": "address",
          "name": "_stakingLogger",
          "type": "address"
        },
        {
          "internalType": "address",
          "name": "_ValidatorShareFactory",
          "type": "address"
        }
      ],
      "name": "updateConstructor",
      "outputs": [],
      "payable": false,
      "stateMutability": "nonpayable",
      "type": "function"
    },
    {
      "constant": false,
      "inputs": [
        {
          "internalType": "address",
          "name": "_token",
          "type": "address"
        }
      ],
      "name": "setToken",
      "outputs": [],
      "payable": false,
      "stateMutability": "nonpayable",
      "type": "function"
    },
    {
      "constant": false,
      "inputs": [
        {
          "internalType": "uint256",
          "name": "newThreshold",
          "type": "uint256"
        }
      ],
      "name": "updateValidatorThreshold",
      "outputs": [],
      "payable": false,
      "stateMutability": "nonpayable",
      "type": "function"
    },
    {
      "constant": true,
      "inputs": [
        {
          "internalType": "address",
          "name": "user",
          "type": "address"
        }
      ],
      "name": "getValidatorId",
      "outputs": [
        {
          "internalType": "uint256",
          "name": "",
          "type": "uint256"
        }
      ],
      "payable": false,
      "stateMutability": "view",
      "type": "function"
    },
    {
      "constant": true,
      "inputs": [],
      "name": "accountStateRoot",
      "outputs": [
        {
          "internalType": "bytes32",
          "name": "",
          "type": "bytes32"
        }
      ],
      "payable": false,
      "stateMutability": "view",
      "type": "function"
    },
    {
      "constant": true,
      "inputs": [],
      "name": "checkPointBlockInterval",
      "outputs": [
        {
          "internalType": "uint256",
          "name": "",
          "type": "uint256"
        }
      ],
      "payable": false,
      "stateMutability": "view",
      "type": "function"
    },
    {
      "constant": true,
      "inputs": [
        {
          "internalType": "uint256",
          "name": "validatorId",
          "type": "uint256"
        }
      ],
      "name": "isValidator",
      "outputs": [
        {
          "internalType": "bool",
          "name": "",
          "type": "bool"
        }
      ],
      "payable": false,
      "stateMutability": "view",
      "type": "function"
    },
    {
      "constant": false,
      "inputs": [
        {
          "internalType": "uint256",
          "name": "validatorId",
          "type": "uint256"
        },
        {
          "internalType": "uint256",
          "name": "amount",
          "type": "uint256"
        },
        {
          "internalType": "bool",
          "name": "stakeRewards",
          "type": "bool"
        }
      ],
      "name": "restake",
      "outputs": [],
      "payable": false,
      "stateMutability": "nonpayable",
      "type": "function"
    },
    {
      "constant": false,
      "inputs": [
        {
          "internalType": "uint256",
          "name": "validatorId",
          "type": "uint256"
        }
      ],
      "name": "unstake",
      "outputs": [],
      "payable": false,
      "stateMutability": "nonpayable",
      "type": "function"
    },
    {
      "constant": true,
      "inputs": [],
      "name": "NFTContract",
      "outputs": [
        {
          "internalType": "contract StakingNFT",
          "name": "",
          "type": "address"
        }
      ],
      "payable": false,
      "stateMutability": "view",
      "type": "function"
    },
    {
      "constant": true,
      "inputs": [],
      "name": "proposerBonus",
      "outputs": [
        {
          "internalType": "uint256",
          "name": "",
          "type": "uint256"
        }
      ],
      "payable": false,
      "stateMutability": "view",
      "type": "function"
    },
    {
      "constant": true,
      "inputs": [
        {
          "internalType": "uint256",
          "name": "",
          "type": "uint256"
        }
      ],
      "name": "validators",
      "outputs": [
        {
          "internalType": "uint256",
          "name": "amount",
          "type": "uint256"
        },
        {
          "internalType": "uint256",
          "name": "reward",
          "type": "uint256"
        },
        {
          "internalType": "uint256",
          "name": "activationEpoch",
          "type": "uint256"
        },
        {
          "internalType": "uint256",
          "name": "deactivationEpoch",
          "type": "uint256"
        },
        {
          "internalType": "uint256",
          "name": "jailTime",
          "type": "uint256"
        },
        {
          "internalType": "address",
          "name": "signer",
          "type": "address"
        },
        {
          "internalType": "address",
          "name": "contractAddress",
          "type": "address"
        },
        {
          "internalType": "enum StakeManagerStorage.Status",
          "name": "status",
          "type": "uint8"
        }
      ],
      "payable": false,
      "stateMutability": "view",
      "type": "function"
    },
    {
      "constant": true,
      "inputs": [
        {
          "internalType": "address",
          "name": "",
          "type": "address"
        }
      ],
      "name": "signerToValidator",
      "outputs": [
        {
          "internalType": "uint256",
          "name": "",
          "type": "uint256"
        }
      ],
      "payable": false,
      "stateMutability": "view",
      "type": "function"
    },
    {
      "constant": false,
      "inputs": [
        {
          "internalType": "uint256",
          "name": "validatorId",
          "type": "uint256"
        }
      ],
      "name": "unJail",
      "outputs": [],
      "payable": false,
      "stateMutability": "nonpayable",
      "type": "function"
    },
    {
      "constant": true,
      "inputs": [],
      "name": "minDeposit",
      "outputs": [
        {
          "internalType": "uint256",
          "name": "",
          "type": "uint256"
        }
      ],
      "payable": false,
      "stateMutability": "view",
      "type": "function"
    },
    {
      "constant": true,
      "inputs": [
        {
          "internalType": "address",
          "name": "user",
          "type": "address"
        }
      ],
      "name": "totalStakedFor",
      "outputs": [
        {
          "internalType": "uint256",
          "name": "",
          "type": "uint256"
        }
      ],
      "payable": false,
      "stateMutability": "view",
      "type": "function"
    },
    {
      "constant": true,
      "inputs": [],
      "name": "signerUpdateLimit",
      "outputs": [
        {
          "internalType": "uint256",
          "name": "",
          "type": "uint256"
        }
      ],
      "payable": false,
      "stateMutability": "view",
      "type": "function"
    },
    {
      "constant": true,
      "inputs": [],
      "name": "validatorThreshold",
      "outputs": [
        {
          "internalType": "uint256",
          "name": "",
          "type": "uint256"
        }
      ],
      "payable": false,
      "stateMutability": "view",
      "type": "function"
    },
    {
      "constant": false,
      "inputs": [
        {
          "internalType": "address",
          "name": "user",
          "type": "address"
        },
        {
          "internalType": "uint256",
          "name": "amount",
          "type": "uint256"
        },
        {
          "internalType": "uint256",
          "name": "heimdallFee",
          "type": "uint256"
        },
        {
          "internalType": "bool",
          "name": "acceptDelegation",
          "type": "bool"
        },
        {
          "internalType": "bytes",
          "name": "signerPubkey",
          "type": "bytes"
        }
      ],
      "name": "stakeFor",
      "outputs": [],
      "payable": false,
      "stateMutability": "nonpayable",
      "type": "function"
    },
    {
      "constant": false,
      "inputs": [
        {
          "internalType": "uint256",
          "name": "validatorId",
          "type": "uint256"
        },
        {
          "internalType": "uint256",
          "name": "amount",
          "type": "uint256"
        }
      ],
      "name": "startAuction",
      "outputs": [],
      "payable": false,
      "stateMutability": "nonpayable",
      "type": "function"
    },
    {
      "constant": true,
      "inputs": [
        {
          "internalType": "uint256",
          "name": "",
          "type": "uint256"
        }
      ],
      "name": "validatorAuction",
      "outputs": [
        {
          "internalType": "uint256",
          "name": "amount",
          "type": "uint256"
        },
        {
          "internalType": "uint256",
          "name": "startEpoch",
          "type": "uint256"
        },
        {
          "internalType": "address",
          "name": "user",
          "type": "address"
        }
      ],
      "payable": false,
      "stateMutability": "view",
      "type": "function"
    },
    {
      "constant": true,
      "inputs": [],
      "name": "delegationEnabled",
      "outputs": [
        {
          "internalType": "bool",
          "name": "",
          "type": "bool"
        }
      ],
      "payable": false,
      "stateMutability": "view",
      "type": "function"
    },
    {
      "constant": true,
      "inputs": [],
      "name": "NFTCounter",
      "outputs": [
        {
          "internalType": "uint256",
          "name": "",
          "type": "uint256"
        }
      ],
      "payable": false,
      "stateMutability": "view",
      "type": "function"
    },
    {
      "constant": true,
      "inputs": [
        {
          "internalType": "uint256",
          "name": "validatorId",
          "type": "uint256"
        }
      ],
      "name": "getValidatorContract",
      "outputs": [
        {
          "internalType": "address",
          "name": "",
          "type": "address"
        }
      ],
      "payable": false,
      "stateMutability": "view",
      "type": "function"
    },
    {
      "constant": true,
      "inputs": [],
      "name": "governance",
      "outputs": [
        {
          "internalType": "contract IGovernance",
          "name": "",
          "type": "address"
        }
      ],
      "payable": false,
      "stateMutability": "view",
      "type": "function"
    },
    {
      "constant": true,
      "inputs": [
        {
          "internalType": "uint256",
          "name": "",
          "type": "uint256"
        }
      ],
      "name": "validatorState",
      "outputs": [
        {
          "internalType": "int256",
          "name": "amount",
          "type": "int256"
        },
        {
          "internalType": "int256",
          "name": "stakerCount",
          "type": "int256"
        }
      ],
      "payable": false,
      "stateMutability": "view",
      "type": "function"
    },
    {
      "constant": false,
      "inputs": [
        {
          "internalType": "bytes",
          "name": "_slashingInfoList",
          "type": "bytes"
        }
      ],
      "name": "slash",
      "outputs": [
        {
          "internalType": "uint256",
          "name": "",
          "type": "uint256"
        }
      ],
      "payable": false,
      "stateMutability": "nonpayable",
      "type": "function"
    },
    {
      "constant": true,
      "inputs": [
        {
          "internalType": "uint256",
          "name": "tokenId",
          "type": "uint256"
        }
      ],
      "name": "ownerOf",
      "outputs": [
        {
          "internalType": "address",
          "name": "",
          "type": "address"
        }
      ],
      "payable": false,
      "stateMutability": "view",
      "type": "function"
    },
    {
      "constant": false,
      "inputs": [
        {
          "internalType": "address",
          "name": "user",
          "type": "address"
        },
        {
          "internalType": "uint256",
          "name": "heimdallFee",
          "type": "uint256"
        }
      ],
      "name": "topUpForFee",
      "outputs": [],
      "payable": false,
      "stateMutability": "nonpayable",
      "type": "function"
    },
    {
      "constant": false,
      "inputs": [
        {
          "internalType": "uint256",
          "name": "accumFeeAmount",
          "type": "uint256"
        },
        {
          "internalType": "uint256",
          "name": "index",
          "type": "uint256"
        },
        {
          "internalType": "bytes",
          "name": "proof",
          "type": "bytes"
        }
      ],
      "name": "claimFee",
      "outputs": [],
      "payable": false,
      "stateMutability": "nonpayable",
      "type": "function"
    },
    {
      "constant": false,
      "inputs": [
        {
          "internalType": "uint256",
          "name": "validatorId",
          "type": "uint256"
        },
        {
          "internalType": "uint256",
          "name": "amount",
          "type": "uint256"
        },
        {
          "internalType": "address",
          "name": "delegator",
          "type": "address"
        }
      ],
      "name": "delegationDeposit",
      "outputs": [
        {
          "internalType": "bool",
          "name": "",
          "type": "bool"
        }
      ],
      "payable": false,
      "stateMutability": "nonpayable",
      "type": "function"
    },
    {
      "constant": true,
      "inputs": [],
      "name": "supportsHistory",
      "outputs": [
        {
          "internalType": "bool",
          "name": "",
          "type": "bool"
        }
      ],
      "payable": false,
      "stateMutability": "pure",
      "type": "function"
    },
    {
      "constant": true,
      "inputs": [],
      "name": "dynasty",
      "outputs": [
        {
          "internalType": "uint256",
          "name": "",
          "type": "uint256"
        }
      ],
      "payable": false,
      "stateMutability": "view",
      "type": "function"
    },
    {
      "constant": false,
      "inputs": [],
      "name": "renounceOwnership",
      "outputs": [],
      "payable": false,
      "stateMutability": "nonpayable",
      "type": "function"
    },
    {
      "constant": true,
      "inputs": [],
      "name": "currentEpoch",
      "outputs": [
        {
          "internalType": "uint256",
          "name": "",
          "type": "uint256"
        }
      ],
      "payable": false,
      "stateMutability": "view",
      "type": "function"
    },
    {
      "constant": true,
      "inputs": [],
      "name": "replacementCoolDown",
      "outputs": [
        {
          "internalType": "uint256",
          "name": "",
          "type": "uint256"
        }
      ],
      "payable": false,
      "stateMutability": "view",
      "type": "function"
    },
    {
      "constant": true,
      "inputs": [
        {
          "internalType": "address",
          "name": "",
          "type": "address"
        }
      ],
      "name": "userFeeExit",
      "outputs": [
        {
          "internalType": "uint256",
          "name": "",
          "type": "uint256"
        }
      ],
      "payable": false,
      "stateMutability": "view",
      "type": "function"
    },
    {
      "constant": true,
      "inputs": [],
      "name": "registry",
      "outputs": [
        {
          "internalType": "address",
          "name": "",
          "type": "address"
        }
      ],
      "payable": false,
      "stateMutability": "view",
      "type": "function"
    },
    {
      "constant": true,
      "inputs": [],
      "name": "CHECKPOINT_REWARD",
      "outputs": [
        {
          "internalType": "uint256",
          "name": "",
          "type": "uint256"
        }
      ],
      "payable": false,
      "stateMutability": "view",
      "type": "function"
    },
    {
      "constant": true,
      "inputs": [],
      "name": "currentValidatorSetSize",
      "outputs": [
        {
          "internalType": "uint256",
          "name": "",
          "type": "uint256"
        }
      ],
      "payable": false,
      "stateMutability": "view",
      "type": "function"
    },
    {
      "constant": true,
      "inputs": [],
      "name": "totalStaked",
      "outputs": [
        {
          "internalType": "uint256",
          "name": "",
          "type": "uint256"
        }
      ],
      "payable": false,
      "stateMutability": "view",
      "type": "function"
    },
    {
      "constant": true,
      "inputs": [],
      "name": "owner",
      "outputs": [
        {
          "internalType": "address",
          "name": "",
          "type": "address"
        }
      ],
      "payable": false,
      "stateMutability": "view",
      "type": "function"
    },
    {
      "constant": true,
      "inputs": [],
      "name": "isOwner",
      "outputs": [
        {
          "internalType": "bool",
          "name": "",
          "type": "bool"
        }
      ],
      "payable": false,
      "stateMutability": "view",
      "type": "function"
    },
    {
      "constant": true,
      "inputs": [],
      "name": "epoch",
      "outputs": [
        {
          "internalType": "uint256",
          "name": "",
          "type": "uint256"
        }
      ],
      "payable": false,
      "stateMutability": "view",
      "type": "function"
    },
    {
      "constant": false,
      "inputs": [
        {
          "internalType": "uint256",
          "name": "validatorId",
          "type": "uint256"
        }
      ],
      "name": "forceUnstake",
      "outputs": [],
      "payable": false,
      "stateMutability": "nonpayable",
      "type": "function"
    },
    {
      "constant": false,
      "inputs": [
        {
          "internalType": "uint256",
          "name": "validatorId",
          "type": "uint256"
        }
      ],
      "name": "withdrawRewards",
      "outputs": [],
      "payable": false,
      "stateMutability": "nonpayable",
      "type": "function"
    },
    {
      "constant": true,
      "inputs": [],
      "name": "rootChain",
      "outputs": [
        {
          "internalType": "address",
          "name": "",
          "type": "address"
        }
      ],
      "payable": false,
      "stateMutability": "view",
      "type": "function"
    },
    {
      "constant": true,
      "inputs": [],
      "name": "totalHeimdallFee",
      "outputs": [
        {
          "internalType": "uint256",
          "name": "",
          "type": "uint256"
        }
      ],
      "payable": false,
      "stateMutability": "view",
      "type": "function"
    },
    {
      "constant": false,
      "inputs": [
        {
          "internalType": "uint256",
          "name": "newProposerBonus",
          "type": "uint256"
        }
      ],
      "name": "updateProposerBonus",
      "outputs": [],
      "payable": false,
      "stateMutability": "nonpayable",
      "type": "function"
    },
    {
      "constant": false,
      "inputs": [
        {
          "internalType": "uint256",
          "name": "validatorId",
          "type": "uint256"
        },
        {
          "internalType": "int256",
          "name": "amount",
          "type": "int256"
        }
      ],
      "name": "updateValidatorState",
      "outputs": [],
      "payable": false,
      "stateMutability": "nonpayable",
      "type": "function"
    },
    {
      "constant": false,
      "inputs": [
        {
          "internalType": "uint256",
          "name": "_blocks",
          "type": "uint256"
        }
      ],
      "name": "updateCheckPointBlockInterval",
      "outputs": [],
      "payable": false,
      "stateMutability": "nonpayable",
      "type": "function"
    },
    {
      "constant": true,
      "inputs": [],
      "name": "currentValidatorSetTotalStake",
      "outputs": [
        {
          "internalType": "uint256",
          "name": "",
          "type": "uint256"
        }
      ],
      "payable": false,
      "stateMutability": "view",
      "type": "function"
    },
    {
      "constant": false,
      "inputs": [],
      "name": "unlock",
      "outputs": [],
      "payable": false,
      "stateMutability": "nonpayable",
      "type": "function"
    },
    {
      "constant": true,
      "inputs": [],
      "name": "withdrawalDelay",
      "outputs": [
        {
          "internalType": "uint256",
          "name": "",
          "type": "uint256"
        }
      ],
      "payable": false,
      "stateMutability": "view",
      "type": "function"
    },
    {
      "constant": false,
      "inputs": [
        {
          "internalType": "uint256",
          "name": "_minDeposit",
          "type": "uint256"
        },
        {
          "internalType": "uint256",
          "name": "_minHeimdallFee",
          "type": "uint256"
        }
      ],
      "name": "updateMinAmounts",
      "outputs": [],
      "payable": false,
      "stateMutability": "nonpayable",
      "type": "function"
    },
    {
      "constant": true,
      "inputs": [
        {
          "internalType": "bytes32",
          "name": "voteHash",
          "type": "bytes32"
        },
        {
          "internalType": "bytes",
          "name": "sigs",
          "type": "bytes"
        }
      ],
      "name": "verifyConsensus",
      "outputs": [
        {
          "internalType": "uint256",
          "name": "",
          "type": "uint256"
        },
        {
          "internalType": "uint256",
          "name": "",
          "type": "uint256"
        }
      ],
      "payable": false,
      "stateMutability": "view",
      "type": "function"
    },
    {
      "constant": false,
      "inputs": [
        {
          "internalType": "uint256",
          "name": "validatorId",
          "type": "uint256"
        },
        {
          "internalType": "uint256",
          "name": "amount",
          "type": "uint256"
        },
        {
          "internalType": "address",
          "name": "delegator",
          "type": "address"
        }
      ],
      "name": "transferFunds",
      "outputs": [
        {
          "internalType": "bool",
          "name": "",
          "type": "bool"
        }
      ],
      "payable": false,
      "stateMutability": "nonpayable",
      "type": "function"
    },
    {
      "constant": true,
      "inputs": [],
      "name": "factory",
      "outputs": [
        {
          "internalType": "contract ValidatorShareFactory",
          "name": "",
          "type": "address"
        }
      ],
      "payable": false,
      "stateMutability": "view",
      "type": "function"
    },
    {
      "constant": false,
      "inputs": [
        {
          "internalType": "uint256",
          "name": "validatorId",
          "type": "uint256"
        },
        {
          "internalType": "uint256",
          "name": "heimdallFee",
          "type": "uint256"
        },
        {
          "internalType": "bool",
          "name": "acceptDelegation",
          "type": "bool"
        },
        {
          "internalType": "bytes",
          "name": "signerPubkey",
          "type": "bytes"
        }
      ],
      "name": "confirmAuctionBid",
      "outputs": [],
      "payable": false,
      "stateMutability": "nonpayable",
      "type": "function"
    },
    {
      "constant": false,
      "inputs": [
        {
          "internalType": "uint256",
          "name": "newReward",
          "type": "uint256"
        }
      ],
      "name": "updateCheckpointReward",
      "outputs": [],
      "payable": false,
      "stateMutability": "nonpayable",
      "type": "function"
    },
    {
      "constant": true,
      "inputs": [],
      "name": "totalRewardsLiquidated",
      "outputs": [
        {
          "internalType": "uint256",
          "name": "",
          "type": "uint256"
        }
      ],
      "payable": false,
      "stateMutability": "view",
      "type": "function"
    },
    {
      "constant": true,
      "inputs": [],
      "name": "locked",
      "outputs": [
        {
          "internalType": "bool",
          "name": "",
          "type": "bool"
        }
      ],
      "payable": false,
      "stateMutability": "view",
      "type": "function"
    },
    {
      "constant": true,
      "inputs": [
        {
          "internalType": "bytes",
          "name": "pub",
          "type": "bytes"
        }
      ],
      "name": "pubToAddress",
      "outputs": [
        {
          "internalType": "address",
          "name": "",
          "type": "address"
        }
      ],
      "payable": false,
      "stateMutability": "pure",
      "type": "function"
    },
    {
      "constant": true,
      "inputs": [
        {
          "internalType": "uint256",
          "name": "",
          "type": "uint256"
        }
      ],
      "name": "latestSignerUpdateEpoch",
      "outputs": [
        {
          "internalType": "uint256",
          "name": "",
          "type": "uint256"
        }
      ],
      "payable": false,
      "stateMutability": "view",
      "type": "function"
    },
    {
      "constant": false,
      "inputs": [
        {
          "internalType": "uint256",
          "name": "validatorId",
          "type": "uint256"
        }
      ],
      "name": "unstakeClaim",
      "outputs": [],
      "payable": false,
      "stateMutability": "nonpayable",
      "type": "function"
    },
    {
      "constant": false,
      "inputs": [
        {
          "internalType": "uint256",
          "name": "newDynasty",
          "type": "uint256"
        }
      ],
      "name": "updateDynastyValue",
      "outputs": [],
      "payable": false,
      "stateMutability": "nonpayable",
      "type": "function"
    },
    {
      "constant": false,
      "inputs": [
        {
          "internalType": "address",
          "name": "newRootChain",
          "type": "address"
        }
      ],
      "name": "changeRootChain",
      "outputs": [],
      "payable": false,
      "stateMutability": "nonpayable",
      "type": "function"
    },
    {
      "constant": true,
      "inputs": [
        {
          "internalType": "uint256",
          "name": "validatorId",
          "type": "uint256"
        }
      ],
      "name": "validatorStake",
      "outputs": [
        {
          "internalType": "uint256",
          "name": "",
          "type": "uint256"
        }
      ],
      "payable": false,
      "stateMutability": "view",
      "type": "function"
    },
    {
      "constant": true,
      "inputs": [],
      "name": "logger",
      "outputs": [
        {
          "internalType": "contract StakingInfo",
          "name": "",
          "type": "address"
        }
      ],
      "payable": false,
      "stateMutability": "view",
      "type": "function"
    },
    {
      "constant": false,
      "inputs": [
        {
          "internalType": "bool",
          "name": "enabled",
          "type": "bool"
        }
      ],
      "name": "setDelegationEnabled",
      "outputs": [],
      "payable": false,
      "stateMutability": "nonpayable",
      "type": "function"
    },
    {
      "constant": false,
      "inputs": [
        {
          "internalType": "address",
          "name": "newOwner",
          "type": "address"
        }
      ],
      "name": "transferOwnership",
      "outputs": [],
      "payable": false,
      "stateMutability": "nonpayable",
      "type": "function"
    },
    {
      "constant": false,
      "inputs": [
        {
          "internalType": "uint256",
          "name": "validatorId",
          "type": "uint256"
        },
        {
          "internalType": "bytes",
          "name": "signerPubkey",
          "type": "bytes"
        }
      ],
      "name": "updateSigner",
      "outputs": [],
      "payable": false,
      "stateMutability": "nonpayable",
      "type": "function"
    },
    {
      "constant": false,
      "inputs": [
        {
          "internalType": "uint256",
          "name": "forNCheckpoints",
          "type": "uint256"
        }
      ],
      "name": "stopAuctions",
      "outputs": [],
      "payable": false,
      "stateMutability": "nonpayable",
      "type": "function"
    },
    {
      "constant": false,
      "inputs": [],
      "name": "lock",
      "outputs": [],
      "payable": false,
      "stateMutability": "nonpayable",
      "type": "function"
    },
    {
      "constant": true,
      "inputs": [],
      "name": "minHeimdallFee",
      "outputs": [
        {
          "internalType": "uint256",
          "name": "",
          "type": "uint256"
        }
      ],
      "payable": false,
      "stateMutability": "view",
      "type": "function"
    },
    {
      "constant": true,
      "inputs": [],
      "name": "token",
      "outputs": [
        {
          "internalType": "contract IERC20",
          "name": "",
          "type": "address"
        }
      ],
      "payable": false,
      "stateMutability": "view",
      "type": "function"
    },
    {
      "inputs": [
        {
          "internalType": "address",
          "name": "_registry",
          "type": "address"
        },
        {
          "internalType": "address",
          "name": "_rootChain",
          "type": "address"
        },
        {
          "internalType": "address",
          "name": "_token",
          "type": "address"
        },
        {
          "internalType": "address",
          "name": "_NFTContract",
          "type": "address"
        },
        {
          "internalType": "address",
          "name": "_stakingLogger",
          "type": "address"
        },
        {
          "internalType": "address",
          "name": "_validatorShareFactory",
          "type": "address"
        },
        {
          "internalType": "address",
          "name": "_governance",
          "type": "address"
        }
      ],
      "payable": false,
      "stateMutability": "nonpayable",
      "type": "constructor"
    },
    {
      "anonymous": false,
      "inputs": [
        {
          "indexed": true,
          "internalType": "address",
          "name": "previousRootChain",
          "type": "address"
        },
        {
          "indexed": true,
          "internalType": "address",
          "name": "newRootChain",
          "type": "address"
        }
      ],
      "name": "RootChainChanged",
      "type": "event"
    },
    {
      "anonymous": false,
      "inputs": [
        {
          "indexed": true,
          "internalType": "address",
          "name": "previousOwner",
          "type": "address"
        },
        {
          "indexed": true,
          "internalType": "address",
          "name": "newOwner",
          "type": "address"
        }
      ],
      "name": "OwnershipTransferred",
      "type": "event"
    },
    {
      "constant": false,
      "inputs": [
        {
          "internalType": "uint256",
          "name": "blockInterval",
          "type": "uint256"
        },
        {
          "internalType": "bytes32",
          "name": "voteHash",
          "type": "bytes32"
        },
        {
          "internalType": "bytes32",
          "name": "stateRoot",
          "type": "bytes32"
        },
        {
          "internalType": "address",
          "name": "proposer",
          "type": "address"
        },
        {
          "internalType": "bytes",
          "name": "sigs",
          "type": "bytes"
        }
      ],
      "name": "checkSignatures",
      "outputs": [
        {
          "internalType": "uint256",
          "name": "",
          "type": "uint256"
        }
      ],
      "payable": false,
      "stateMutability": "nonpayable",
      "type": "function"
    }
  ],
  "bytecode": "0x60806040526120006009556001600a55612000600b5569021e19e0c9bab2400000600c55670de0b6b3a7640000600d55670de0b6b3a7640000600e5560ff600f556064601055600a60115560016013556004600b54816200005c57fe5b04601655600a601755601a805460ff191660011790553480156200007f57600080fd5b506040516200597138038062005971833981810160405260e0811015620000a557600080fd5b50805160208201516040808401516060850151608086015160a087015160c090970151600080546001600160a01b03191633178082559551979896979496939592949192909182916001600160a01b03169082907f8be0079c531659141344cd1fd0a4f28419497f9722a3daafe3b4186f6b6457e0908290a3600280546001600f55600580546001600160a01b03199081166001600160a01b039d8e16179091556003805482169b8d169b909b17909a55600480548b16998c1699909917909855600780548a16978b1697909717909655600680548916958a169590951790945550600880548716928816929092179091559284169085161790921692169190911790556157b880620001b96000396000f3fe608060405234801561001057600080fd5b50600436106104a15760003560e01c8063766718081161026d578063bbcfbbb011610151578063e6692f49116100ce578063f2fde38b11610092578063f2fde38b146110d6578063f41a9642146110fc578063f771fc87146111a7578063f83d08ba146111c4578063fba58f34146111cc578063fc0c546a146111d4576104a1565b8063e6692f491461104f578063e8afa8e81461106c578063eceec1d314611092578063f24ccbfe146110af578063f28699fa146110b7576104a1565b8063cd6b838811610115578063cd6b838814610f61578063cf30901214610f69578063d011027414610f71578063d7f5549d14611015578063d86d53e714611032576104a1565b8063bbcfbbb014610ddc578063bc8756a914610e87578063c45a015514610eb9578063c8b194a214610ec1578063cbf383d514610f44576104a1565b806391460149116101ea5780639ff11500116101ae5780639ff1150014610d61578063a440ab1e14610d84578063a476907114610da1578063a69df4b514610da9578063a7ab696114610db1578063b1d23f0214610db9576104a1565b80639146014914610cfa5780639342c8f414610d17578063987ab9db14610d345780639a8a624314610d3c5780639b33f43414610d44576104a1565b80637f952d95116102315780637f952d9514610cd2578063817b1cd214610cda5780638da5cb5b14610ce25780638f32d59b14610cea578063900cf0cf14610cf2576104a1565b80637667180814610c8c57806377939d1014610c9457806378f84a4414610c9c5780637b10399914610cc25780637d66975214610cca576104a1565b80633d02455b1161039457806356342d8c1161031157806363656798116102d55780636365679814610b6657806368cb812a14610b925780636901b25314610c425780637033e4a614610c745780637060054d14610c7c578063715018a614610c84576104a1565b806356342d8c14610a4a5780635aa6e67514610a675780635c24885514610a6f5780635e47655f14610aa55780636352211e14610b49576104a1565b80634fdd20f1116103585780634fdd20f11461090c5780634fee13fc146109d35780635325e144146109f657806354b8c60114610a3a5780635508d8e114610a42576104a1565b80633d02455b146108b157806341b3d185146108ce5780634b341aed146108d65780634e3c83f1146108fc5780634fd101d714610904576104a1565b8063174e6832116104225780632e17de78116103e65780632e17de78146107ac57806331c2273b146107c957806334274586146107ed57806335aa2e44146107f55780633862da0b1461088b576104a1565b8063174e68321461071a57806317c2b9101461074057806325316411146107485780632649263a1461075057806328cc4e4114610781576104a1565b80630e15561a116104695780630e15561a1461067f5780630ebb172a14610687578063118bdec91461068f578063144fa6d7146106d757806316827b1b146106fd576104a1565b80630209fdd0146104a6578063028c4c67146104fe578063066647a01461058357806306cfb1041461065a5780630cccfc5814610677575b600080fd5b6104ae6111dc565b60408051602080825283518183015283519192839290830191858101910280838360005b838110156104ea5781810151838201526020016104d2565b505050509050019250505060405180910390f35b6105816004803603608081101561051457600080fd5b813591602081013591604082013515159190810190608081016060820135600160201b81111561054357600080fd5b82018360208201111561055557600080fd5b803590602001918460018302840111600160201b8311171561057657600080fd5b509092509050611352565b005b610648600480360360a081101561059957600080fd5b8135916020810135916040820135916001600160a01b036060820135169181019060a081016080820135600160201b8111156105d457600080fd5b8201836020820111156105e657600080fd5b803590602001918460018302840111600160201b8311171561060757600080fd5b91908080601f01602080910402602001604051908101604052809392919081815260200183838082843760009201919091525092955061139c945050505050565b60408051918252519081900360200190f35b6105816004803603602081101561067057600080fd5b50356113a8565b6106486113be565b6106486113c4565b6106486113ca565b610581600480360360a08110156106a557600080fd5b506001600160a01b038135811691602081013582169160408201358116916060810135821691608090910135166113d0565b610581600480360360208110156106ed57600080fd5b50356001600160a01b0316611440565b6105816004803603602081101561071357600080fd5b5035611486565b6106486004803603602081101561073057600080fd5b50356001600160a01b031661151b565b6106486115a5565b6106486115ab565b61076d6004803603602081101561076657600080fd5b50356115b1565b604080519115158252519081900360200190f35b6105816004803603606081101561079757600080fd5b5080359060208101359060400135151561166b565b610581600480360360208110156107c257600080fd5b5035611aec565b6107d1611c6f565b604080516001600160a01b039092168252519081900360200190f35b610648611c7e565b6108126004803603602081101561080b57600080fd5b5035611c84565b60405180898152602001888152602001878152602001868152602001858152602001846001600160a01b03166001600160a01b03168152602001836001600160a01b03166001600160a01b0316815260200182600381111561087057fe5b60ff1681526020019850505050505050505060405180910390f35b610648600480360360208110156108a157600080fd5b50356001600160a01b0316611cda565b610581600480360360208110156108c757600080fd5b5035611cec565b610648611f6c565b610648600480360360208110156108ec57600080fd5b50356001600160a01b0316611f72565b6106486120a9565b6106486120af565b610581600480360360a081101561092257600080fd5b6001600160a01b0382351691602081013591604082013591606081013515159181019060a081016080820135600160201b81111561095f57600080fd5b82018360208201111561097157600080fd5b803590602001918460018302840111600160201b8311171561099257600080fd5b91908080601f0160208091040260200160405190810160405280939291908181526020018383808284376000920191909152509295506120b5945050505050565b610581600480360360408110156109e957600080fd5b5080359060200135612306565b610a1360048036036020811015610a0c57600080fd5b503561276c565b6040805193845260208401929092526001600160a01b031682820152519081900360600190f35b61076d612796565b61064861279f565b6107d160048036036020811015610a6057600080fd5b50356127a5565b6107d16127c3565b610a8c60048036036020811015610a8557600080fd5b50356127d2565b6040805192835260208301919091528051918290030190f35b61064860048036036020811015610abb57600080fd5b810190602081018135600160201b811115610ad557600080fd5b820183602082011115610ae757600080fd5b803590602001918460018302840111600160201b83111715610b0857600080fd5b91908080601f0160208091040260200160405190810160405280939291908181526020018383808284376000920191909152509295506127eb945050505050565b6107d160048036036020811015610b5f57600080fd5b5035612acc565b61058160048036036040811015610b7c57600080fd5b506001600160a01b038135169060200135612b18565b61058160048036036060811015610ba857600080fd5b813591602081013591810190606081016040820135600160201b811115610bce57600080fd5b820183602082011115610be057600080fd5b803590602001918460018302840111600160201b83111715610c0157600080fd5b91908080601f016020809104026020016040519081016040528093929190818152602001838380828437600092019190915250929550612c94945050505050565b61076d60048036036060811015610c5857600080fd5b50803590602081013590604001356001600160a01b0316612ee3565b61076d613033565b610648613038565b61058161303e565b610648613099565b61064861309f565b61064860048036036020811015610cb257600080fd5b50356001600160a01b03166130a5565b6107d16130b7565b6106486130c6565b6106486130cc565b6106486130e4565b6107d16130ea565b61076d6130f9565b61064861310a565b61058160048036036020811015610d1057600080fd5b5035613110565b61058160048036036020811015610d2d57600080fd5b5035613130565b6107d161338e565b61064861339d565b61058160048036036020811015610d5a57600080fd5b50356133a3565b61058160048036036040811015610d7757600080fd5b5080359060200135613468565b61058160048036036020811015610d9a57600080fd5b50356134ec565b610648613557565b61058161356c565b6106486135c4565b61058160048036036040811015610dcf57600080fd5b50803590602001356135ca565b610a8c60048036036040811015610df257600080fd5b81359190810190604081016020820135600160201b811115610e1357600080fd5b820183602082011115610e2557600080fd5b803590602001918460018302840111600160201b83111715610e4657600080fd5b91908080601f0160208091040260200160405190810160405280939291908181526020018383808284376000920191909152509295506135e6945050505050565b61076d60048036036060811015610e9d57600080fd5b50803590602081013590604001356001600160a01b031661382f565b6107d1613989565b61058160048036036080811015610ed757600080fd5b813591602081013591604082013515159190810190608081016060820135600160201b811115610f0657600080fd5b820183602082011115610f1857600080fd5b803590602001918460018302840111600160201b83111715610f3957600080fd5b509092509050613998565b61058160048036036020811015610f5a57600080fd5b5035613f6a565b610648613fff565b61076d614005565b6107d160048036036020811015610f8757600080fd5b810190602081018135600160201b811115610fa157600080fd5b820183602082011115610fb357600080fd5b803590602001918460018302840111600160201b83111715610fd457600080fd5b91908080601f016020809104026020016040519081016040528093929190818152602001838380828437600092019190915250929550614015945050505050565b6106486004803603602081101561102b57600080fd5b503561406a565b6105816004803603602081101561104857600080fd5b503561407b565b6105816004803603602081101561106557600080fd5b5035614393565b6105816004803603602081101561108257600080fd5b50356001600160a01b0316614458565b610648600480360360208110156110a857600080fd5b50356144d8565b6107d16144ea565b610581600480360360208110156110cd57600080fd5b503515156144f9565b610581600480360360208110156110ec57600080fd5b50356001600160a01b0316614555565b6105816004803603604081101561111257600080fd5b81359190810190604081016020820135600160201b81111561113357600080fd5b82018360208201111561114557600080fd5b803590602001918460018302840111600160201b8311171561116657600080fd5b91908080601f01602080910402602001604051908101604052809392919081815260200183838082843760009201919091525092955061456f945050505050565b610581600480360360208110156111bd57600080fd5b5035614862565b610581614886565b6106486148e4565b6107d16148ea565b6060806111e76130cc565b604051908082528060200260200182016040528015611210578160200160208202803883390190505b509050600080805b600760009054906101000a90046001600160a01b03166001600160a01b03166318160ddd6040518163ffffffff1660e01b815260040160206040518083038186803b15801561126657600080fd5b505afa15801561127a573d6000803e3d6000fd5b505050506040513d602081101561129057600080fd5b50518110156113495760075460408051634f6ccce760e01b81526004810184905290516001600160a01b0390921691634f6ccce791602480820192602092909190829003018186803b1580156112e557600080fd5b505afa1580156112f9573d6000803e3d6000fd5b505050506040513d602081101561130f57600080fd5b5051925061131c836115b1565b15611341578284838060010194508151811061133457fe5b6020026020010181815250505b600101611218565b50919250505090565b6113953386868686868080601f0160208091040260200160405190810160405280939291908181526020018383808284376000920191909152506120b592505050565b5050505050565b600c5495945050505050565b6113b06130f9565b6113b957600080fd5b601055565b60165481565b60145481565b60095481565b6113d86130f9565b6113e157600080fd5b600580546001600160a01b03199081166001600160a01b03978816179091556003805482169587169590951790945560078054851693861693909317909255600680548416918516919091179055600880549092169216919091179055565b6114486130f9565b61145157600080fd5b6001600160a01b03811661146457600080fd5b600480546001600160a01b0319166001600160a01b0392909216919091179055565b61148e6130f9565b61149757600080fd5b600081116114a457600080fd5b60065460115460408051630f1980a560e41b8152600481018590526024810192909252516001600160a01b039092169163f1980a509160448082019260009290919082900301818387803b1580156114fb57600080fd5b505af115801561150f573d6000803e3d6000fd5b50505060119190915550565b60075460408051632f745c5960e01b81526001600160a01b038481166004830152600060248301819052925192931691632f745c5991604480820192602092909190829003018186803b15801561157157600080fd5b505afa158015611585573d6000803e3d6000fd5b505050506040513d602081101561159b57600080fd5b505190505b919050565b60185481565b600f5481565b6000818152601b6020526040812054158015906115fc57506000828152601b6020526040902060020154158015906115fc5750600a546000838152601b602052604090206002015411155b801561163357506000828152601b602052604090206003015415806116335750600a546000838152601b6020526040902060030154115b8015611665575060016000838152601b6020526040902060060154600160a01b900460ff16600381111561166357fe5b145b92915050565b600254600160a01b900460ff16156116b6576040805162461bcd60e51b8152602060048201526009602482015268125cc8131bd8dad95960ba1b604482015290519081900360640190fd5b600754604080516331a9108f60e11b8152600481018690529051859233926001600160a01b0390911691636352211e91602480820192602092909190829003018186803b15801561170657600080fd5b505afa15801561171a573d6000803e3d6000fd5b505050506040513d602081101561173057600080fd5b50516001600160a01b03161461174557600080fd5b600a546000858152601b6020526040902060030154106117a2576040805162461bcd60e51b81526020600482015260136024820152724e6f20757365206f662072657374616b696e6760681b604482015290519081900360640190fd5b6000848152601f602052604090205415611803576040805162461bcd60e51b815260206004820152601b60248201527f5761697420666f722061756374696f6e20636f6d706c6574696f6e0000000000604482015290519081900360640190fd5b82156118d25760048054604080516323b872dd60e01b8152339381019390935230602484015260448301869052516001600160a01b03909116916323b872dd9160648083019260209291908290030181600087803b15801561186457600080fd5b505af1158015611878573d6000803e3d6000fd5b505050506040513d602081101561188e57600080fd5b50516118d2576040805162461bcd60e51b815260206004820152600e60248201526d5472616e73666572207374616b6560901b604482015290519081900360640190fd5b81156119ad576000848152601b60205260409020600101546118fb90849063ffffffff6148f916565b6000858152601b60205260409020600601549093506001600160a01b0316801561199957611996816001600160a01b03166332ba2e536040518163ffffffff1660e01b8152600401602060405180830381600087803b15801561195d57600080fd5b505af1158015611971573d6000803e3d6000fd5b505050506040513d602081101561198757600080fd5b5051859063ffffffff6148f916565b93505b506000848152601b60205260408120600101555b6012546119c0908463ffffffff6148f916565b6012556000848152601b60205260409020546119e2908463ffffffff6148f916565b6000858152601b6020908152604080832093909355600a548252601d9052818120805486019055600654825163532e19a960e01b81526004810188905292516001600160a01b039091169263532e19a992602480830193919282900301818387803b158015611a5057600080fd5b505af1158015611a64573d6000803e3d6000fd5b50506006546000878152601b602052604080822054601254825163242c1b9960e01b8152600481018c90526024810192909252604482015290516001600160a01b03909316945063242c1b9993506064808201939182900301818387803b158015611ace57600080fd5b505af1158015611ae2573d6000803e3d6000fd5b5050505050505050565b600754604080516331a9108f60e11b8152600481018490529051839233926001600160a01b0390911691636352211e91602480820192602092909190829003018186803b158015611b3c57600080fd5b505afa158015611b50573d6000803e3d6000fd5b505050506040513d6020811015611b6657600080fd5b50516001600160a01b031614611b7b57600080fd5b6000828152601f602052604090205415611bdc576040805162461bcd60e51b815260206004820152601b60248201527f5761697420666f722061756374696f6e20636f6d706c6574696f6e0000000000604482015290519081900360640190fd5b600a54600090611bf390600163ffffffff6148f916565b6000848152601b602052604090206002015490915015801590611c2557506000838152601b6020526040902060030154155b8015611c57575060016000848152601b6020526040902060060154600160a01b900460ff166003811115611c5557fe5b145b611c6057600080fd5b611c6a8382614912565b505050565b6007546001600160a01b031681565b60175481565b601b602052600090815260409020805460018201546002830154600384015460048501546005860154600690960154949593949293919290916001600160a01b039081169190811690600160a01b900460ff1688565b601c6020526000908152604090205481565b600754604080516331a9108f60e11b8152600481018490529051839233926001600160a01b0390911691636352211e91602480820192602092909190829003018186803b158015611d3c57600080fd5b505afa158015611d50573d6000803e3d6000fd5b505050506040513d6020811015611d6657600080fd5b50516001600160a01b031614611d7b57600080fd5b60026000838152601b6020526040902060060154600160a01b900460ff166003811115611da457fe5b14611dae57600080fd5b600a546000838152601b60205260409020600401541115611e0f576040805162461bcd60e51b8152602060048201526016602482015275125b98dbdb5c1b195d19481a985a5b081c195c9a5bd960521b604482015290519081900360640190fd5b6000828152601b6020526040902054600d54811015611e2d57600080fd5b6000838152601b60205260408120600601546001600160a01b031615611ed1576000848152601b602090815260408083206006015481516322f0f2f960e01b815291516001600160a01b03909116936322f0f2f993600480850194919392918390030190829087803b158015611ea257600080fd5b505af1158015611eb6573d6000803e3d6000fd5b505050506040513d6020811015611ecc57600080fd5b505190505b600a54611eef90611ee8848463ffffffff6148f916565b6001614b90565b6000848152601b6020526040808220600381018390556006808201805460ff60a01b1916600160a01b17905554600590910154825163c3917e9960e01b8152600481018990526001600160a01b039182166024820152925191169263c3917e99926044808201939182900301818387803b158015611ace57600080fd5b600d5481565b60006001600160a01b03821615806120005750600754604080516370a0823160e01b81526001600160a01b038581166004830152915191909216916370a08231916024808301926020929190829003018186803b158015611fd257600080fd5b505afa158015611fe6573d6000803e3d6000fd5b505050506040513d6020811015611ffc57600080fd5b5051155b1561200d575060006115a0565b60075460408051632f745c5960e01b81526001600160a01b0385811660048301526000602483018190529251601b949190911691632f745c59916044808301926020929190829003018186803b15801561206657600080fd5b505afa15801561207a573d6000803e3d6000fd5b505050506040513d602081101561209057600080fd5b5051815260208101919091526040016000205492915050565b60105481565b60115481565b600254600160a01b900460ff1615612100576040805162461bcd60e51b8152602060048201526009602482015268125cc8131bd8dad95960ba1b604482015290519081900360640190fd5b60115461210b6130cc565b106121475760405162461bcd60e51b81526004018080602001828103825260218152602001806156db6021913960400191505060405180910390fd5b600d54841161219d576040805162461bcd60e51b815260206004820152601960248201527f6d696e206465706f736974206c696d6974206661696c65642100000000000000604482015290519081900360640190fd5b600e548310156121f0576040805162461bcd60e51b81526020600482015260196024820152784d696e696d756d20616d6f756e742069732031204d6174696360381b604482015290519081900360640190fd5b6004546001600160a01b03166323b872dd3330612213888863ffffffff6148f916565b6040518463ffffffff1660e01b815260040180846001600160a01b03166001600160a01b03168152602001836001600160a01b03166001600160a01b031681526020018281526020019350505050602060405180830381600087803b15801561227b57600080fd5b505af115801561228f573d6000803e3d6000fd5b505050506040513d60208110156122a557600080fd5b50516122f0576040805162461bcd60e51b8152602060048201526015602482015274151c985b9cd9995c881cdd185ad94819985a5b1959605a1b604482015290519081900360640190fd5b6122fc85858484614bb2565b6113958584614fc2565b600254600160a01b900460ff1615612351576040805162461bcd60e51b8152602060048201526009602482015268125cc8131bd8dad95960ba1b604482015290519081900360640190fd5b61235a826115b1565b61236357600080fd5b60195415806123765750600a5460195411155b6123b9576040805162461bcd60e51b815260206004820152600f60248201526e10dbdbdb191bdddb881c195c9a5bd9608a1b604482015290519081900360640190fd5b601654600b546123cf908263ffffffff6148f916565b6000848152601b6020526040902060020154600a546123f39163ffffffff61504916565b816123fa57fe5b061115612447576040805162461bcd60e51b8152602060048201526016602482015275125b9d985b1a5908185d58dd1a5bdb881c195c9a5bd960521b604482015290519081900360640190fd5b6000828152601b6020526040902080546006909101546001600160a01b031680156124e4576124e1816001600160a01b0316633a09bf446040518163ffffffff1660e01b815260040160206040518083038186803b1580156124a857600080fd5b505afa1580156124bc573d6000803e3d6000fd5b505050506040513d60208110156124d257600080fd5b5051839063ffffffff6148f916565b91505b6000848152601f60205260409020546124fe90839061505e565b915082821061254d576040805162461bcd60e51b8152602060048201526016602482015275135d5cdd08189a59081a1a59da195c88185b5bdd5b9d60521b604482015290519081900360640190fd5b60048054604080516323b872dd60e01b8152339381019390935230602484015260448301869052516001600160a01b03909116916323b872dd9160648083019260209291908290030181600087803b1580156125a857600080fd5b505af11580156125bc573d6000803e3d6000fd5b505050506040513d60208110156125d257600080fd5b505161261e576040805162461bcd60e51b8152602060048201526016602482015275151c985b9cd9995c88185b5bdd5b9d0819985a5b195960521b604482015290519081900360640190fd5b6000848152601f602052604090208054156126c65760048054600283015483546040805163a9059cbb60e01b81526001600160a01b039384169581019590955260248501919091525191169163a9059cbb9160448083019260209291908290030181600087803b15801561269157600080fd5b505af11580156126a5573d6000803e3d6000fd5b505050506040513d60208110156126bb57600080fd5b50516126c657600080fd5b8381556002810180546001600160a01b031916331790556006546000868152601b6020908152604080832054601f909252808320548151630934a6df60e01b8152600481018b905260248101939093526044830152516001600160a01b039390931692630934a6df9260648084019391929182900301818387803b15801561274d57600080fd5b505af1158015612761573d6000803e3d6000fd5b505050505050505050565b601f602052600090815260409020805460018201546002909201549091906001600160a01b031683565b601a5460ff1681565b60135481565b6000908152601b60205260409020600601546001600160a01b031690565b6002546001600160a01b031681565b601d602052600090815260409020805460019091015482565b6000336001600160a01b0316600560009054906101000a90046001600160a01b03166001600160a01b031663d580b4186040518163ffffffff1660e01b815260040160206040518083038186803b15801561284557600080fd5b505afa158015612859573d6000803e3d6000fd5b505050506040513d602081101561286f57600080fd5b50516001600160a01b0316146128cc576040805162461bcd60e51b815260206004820181905260248201527f53656e646572206d75737420626520736c617368696e67206d616e6167657221604482015290519081900360640190fd5b60606128df6128da84615075565b61509a565b905060008080805b8451811015612a9f57606061290e86838151811061290157fe5b602002602001015161509a565b9050600061292f8260008151811061292257fe5b602002602001015161516b565b905060006129438360018151811061292257fe5b9050612955858263ffffffff6148f916565b6000838152601b60205260409020600601549095506001600160a01b031615612a1d576000828152601b602090815260408083206006810154905482516314454c8560e31b815260048101919091526024810186905291516001600160a01b039091169263a22a6428926044808201939182900301818787803b1580156129db57600080fd5b505af11580156129ef573d6000803e3d6000fd5b505050506040513d6020811015612a0557600080fd5b50519050612a19828263ffffffff61504916565b9150505b6000828152601b6020526040902054612a3c908263ffffffff61504916565b6000838152601b60205260409020558251612a6b9084906002908110612a5e57fe5b60200260200101516151cb565b15612a9457612a8b612a7e8360016151ff565b879063ffffffff6148f916565b60019097019695505b5050506001016128e7565b50600a54612ac390612ab7838563ffffffff6148f916565b60000385600003614b90565b95945050505050565b600754604080516331a9108f60e11b81526004810184905290516000926001600160a01b031691636352211e916024808301926020929190829003018186803b15801561157157600080fd5b600254600160a01b900460ff1615612b63576040805162461bcd60e51b8152602060048201526009602482015268125cc8131bd8dad95960ba1b604482015290519081900360640190fd5b600e54811015612bb6576040805162461bcd60e51b81526020600482015260196024820152784d696e696d756d20616d6f756e742069732031204d6174696360381b604482015290519081900360640190fd5b60048054604080516323b872dd60e01b8152339381019390935230602484015260448301849052516001600160a01b03909116916323b872dd9160648083019260209291908290030181600087803b158015612c1157600080fd5b505af1158015612c25573d6000803e3d6000fd5b505050506040513d6020811015612c3b57600080fd5b5051612c86576040805162461bcd60e51b8152602060048201526015602482015274151c985b9cd9995c881cdd185ad94819985a5b1959605a1b604482015290519081900360640190fd5b612c908282614fc2565b5050565b604080513360208083018290528284018790528351808403850181526060840194859052805190820120601854631b23d15760e21b909552606484018181526084850188905260a48501869052608060c48601908152875160e48701528751949673__Merkle________________________________96636c8f455c9694958b9592948b9490939092610104019185019080838360005b83811015612d43578181015183820152602001612d2b565b50505050905090810190601f168015612d705780820380516001836020036101000a031916815260200191505b509550505050505060206040518083038186803b158015612d9057600080fd5b505af4158015612da4573d6000803e3d6000fd5b505050506040513d6020811015612dba57600080fd5b5051612dff576040805162461bcd60e51b815260206004820152600f60248201526e2bb937b7339030b1b190383937b7b360891b604482015290519081900360640190fd5b6001600160a01b0381166000908152601e6020526040812054612e2990869063ffffffff61504916565b600480546040805163a9059cbb60e01b81526001600160a01b038781169482019490945260248101859052905193945091169163a9059cbb916044808201926020929091908290030181600087803b158015612e8457600080fd5b505af1158015612e98573d6000803e3d6000fd5b505050506040513d6020811015612eae57600080fd5b5051612eb957600080fd5b612ec3828261538d565b506001600160a01b03166000908152601e60205260409020929092555050565b601a5460009060ff16612f36576040805162461bcd60e51b815260206004820152601660248201527511195b1959d85d1a5bdb881a5cc8191a5cd8589b195960521b604482015290519081900360640190fd5b6000848152601b60205260409020600601546001600160a01b03163314612f9f576040805162461bcd60e51b8152602060048201526018602482015277496e76616c696420636f6e7472616374206164647265737360401b604482015290519081900360640190fd5b60048054604080516323b872dd60e01b81526001600160a01b038681169482019490945230602482015260448101879052905192909116916323b872dd916064808201926020929091908290030181600087803b158015612fff57600080fd5b505af1158015613013573d6000803e3d6000fd5b505050506040513d602081101561302957600080fd5b5051949350505050565b600090565b600b5481565b6130466130f9565b61304f57600080fd5b600080546040516001600160a01b03909116907f8be0079c531659141344cd1fd0a4f28419497f9722a3daafe3b4186f6b6457e0908390a3600080546001600160a01b0319169055565b600a5481565b60195481565b601e6020526000908152604090205481565b6005546001600160a01b031681565b600c5481565b600a546000908152601d602052604090206001015490565b60125481565b6000546001600160a01b031690565b6000546001600160a01b0316331490565b600a5490565b6131186130f9565b61312157600080fd5b61312d81600a54614912565b50565b600754604080516331a9108f60e11b8152600481018490529051839233926001600160a01b0390911691636352211e91602480820192602092909190829003018186803b15801561318057600080fd5b505afa158015613194573d6000803e3d6000fd5b505050506040513d60208110156131aa57600080fd5b50516001600160a01b0316146131bf57600080fd5b6000828152601b6020526040902060018101546006909101546001600160a01b0316801561323c57613239816001600160a01b03166332ba2e536040518163ffffffff1660e01b8152600401602060405180830381600087803b15801561322557600080fd5b505af11580156124bc573d6000803e3d6000fd5b91505b60155461324f908363ffffffff6148f916565b6015556000848152601b6020908152604080832060010183905560048054825163a9059cbb60e01b815233928101929092526024820187905291516001600160a01b039092169363a9059cbb9360448084019491939192918390030190829087803b1580156132bd57600080fd5b505af11580156132d1573d6000803e3d6000fd5b505050506040513d60208110156132e757600080fd5b5051613330576040805162461bcd60e51b8152602060048201526013602482015272496e737566666963656e74207265776172647360681b604482015290519081900360640190fd5b60065460155460408051635b42d93560e11b815260048101889052602481018690526044810192909252516001600160a01b039092169163b685b26a9160648082019260009290919082900301818387803b158015611ace57600080fd5b6003546001600160a01b031681565b60215481565b6133ab6130f9565b6133b457600080fd5b6006546017546040805163a3b1d8cb60e01b8152600481018590526024810192909252516001600160a01b039092169163a3b1d8cb9160448082019260009290919082900301818387803b15801561340b57600080fd5b505af115801561341f573d6000803e3d6000fd5b5050505060648111156134635760405162461bcd60e51b81526004018080602001828103825260328152602001806156fc6032913960400191505060405180910390fd5b601755565b6000828152601b60205260409020600601546001600160a01b031633146134d1576040805162461bcd60e51b8152602060048201526018602482015277496e76616c696420636f6e7472616374206164647265737360401b604482015290519081900360640190fd5b600a546000908152601d602052604090208054909101905550565b6134f46130f9565b6134fd57600080fd5b60008111613552576040805162461bcd60e51b815260206004820181905260248201527f426c6f636b7320696e74657276616c206d757374206265206e6f6e2d7a65726f604482015290519081900360640190fd5b600f55565b600a546000908152601d602052604090205490565b6002546001600160a01b031633146135b55760405162461bcd60e51b815260040180806020018281038252602681526020018061575e6026913960400191505060405180910390fd5b6002805460ff60a01b19169055565b60095490565b6135d26130f9565b6135db57600080fd5b600d91909155600e55565b6000808080805b85518167ffffffffffffffff1610156137e5576060613618878367ffffffffffffffff1660416153f8565b60408051631df4cba560e21b8152600481018b81526024820192835283516044830152835193945060009373__ECVerify______________________________936377d32e94938e9388939092916064019060208501908083838c5b8381101561368c578181015183820152602001613674565b50505050905090810190601f1680156136b95780820380516001836020036101000a031916815260200191505b50935050505060206040518083038186803b1580156136d757600080fd5b505af41580156136eb573d6000803e3d6000fd5b505050506040513d602081101561370157600080fd5b50516001600160a01b038082166000818152601c60205260409020549293509086161415613731575050506137e5565b61373a816115b1565b80156137575750846001600160a01b0316826001600160a01b0316115b156137da576000818152601b60205260409020805460069091015492955085926001600160a01b031680156137c5576137c2816001600160a01b0316633a09bf446040518163ffffffff1660e01b815260040160206040518083038186803b1580156124a857600080fd5b91505b6137d5888363ffffffff6148f916565b975050505b5050506041016135ed565b50816138226001613816600361380a60026137fe613557565b9063ffffffff61547716565b9063ffffffff61549e16565b9063ffffffff6148f916565b9350935050509250929050565b6000336001600160a01b0316600560009054906101000a90046001600160a01b03166001600160a01b031663d580b4186040518163ffffffff1660e01b815260040160206040518083038186803b15801561388957600080fd5b505afa15801561389d573d6000803e3d6000fd5b505050506040513d60208110156138b357600080fd5b50516001600160a01b031614806138e357506000848152601b60205260409020600601546001600160a01b031633145b61392f576040805162461bcd60e51b8152602060048201526018602482015277496e76616c696420636f6e7472616374206164647265737360401b604482015290519081900360640190fd5b600480546040805163a9059cbb60e01b81526001600160a01b0386811694820194909452602481018790529051929091169163a9059cbb916044808201926020929091908290030181600087803b158015612fff57600080fd5b6008546001600160a01b031681565b600254600160a01b900460ff16156139e3576040805162461bcd60e51b8152602060048201526009602482015268125cc8131bd8dad95960ba1b604482015290519081900360640190fd5b6000858152601f60209081526040808320601b90925290912060028201546001600160a01b03163314613a5d576040805162461bcd60e51b815260206004820152601760248201527f4f6e6c79206269646465722063616e20636f6e6669726d000000000000000000604482015290519081900360640190fd5b601654600b54613a7490829063ffffffff6148f916565b6001840154600a54613a8b9163ffffffff61504916565b81613a9257fe5b061015613ad05760405162461bcd60e51b815260040180806020018281038252603081526020018061572e6030913960400191505060405180910390fd5b600754604080516331a9108f60e11b8152600481018a905290516001600160a01b0390921691636352211e91602480820192602092909190829003018186803b158015613b1c57600080fd5b505afa158015613b30573d6000803e3d6000fd5b505050506040513d6020811015613b4657600080fd5b505160028301546001600160a01b0390811691161415613d1c5780546004805460028501546040805163a9059cbb60e01b81526001600160a01b0392831694810194909452602484018590525191169163a9059cbb9160448083019260209291908290030181600087803b158015613bbd57600080fd5b505af1158015613bd1573d6000803e3d6000fd5b505050506040513d6020811015613be757600080fd5b5051613bf257600080fd5b82548255600083556002830180546001600160a01b0319169055600a5460018401558154613c3990613c2a908363ffffffff61504916565b6012549063ffffffff6148f916565b6012556006546040805163532e19a960e01b8152600481018b905290516001600160a01b039092169163532e19a99160248082019260009290919082900301818387803b158015613c8957600080fd5b505af1158015613c9d573d6000803e3d6000fd5b505060065484546040805163e12ab1af60e01b8152600481018e9052602481018e90526044810192909252516001600160a01b03909216935063e12ab1af925060648082019260009290919082900301818387803b158015613cfe57600080fd5b505af1158015613d12573d6000803e3d6000fd5b5050505050613f61565b613d2887600a54614912565b60048054604080516323b872dd60e01b8152339381019390935230602484015260448301899052516001600160a01b03909116916323b872dd9160648083019260209291908290030181600087803b158015613d8357600080fd5b505af1158015613d97573d6000803e3d6000fd5b505050506040513d6020811015613dad57600080fd5b5051613df6576040805162461bcd60e51b8152602060048201526013602482015272151c985b9cd9995c881999594819985a5b1959606a1b604482015290519081900360640190fd5b60028201548254604080516020601f8801819004810282018101909252868152613e48936001600160a01b031692918991908990899081908401838280828437600092019190915250614bb292505050565b600e54861015613e9b576040805162461bcd60e51b81526020600482015260196024820152784d696e696d756d20616d6f756e742069732031204d6174696360381b604482015290519081900360640190fd5b6002820154613eb3906001600160a01b031687614fc2565b6006546013546001600160a01b039091169063e12ab1af90613edc90600163ffffffff61504916565b8985600001546040518463ffffffff1660e01b8152600401808481526020018381526020018281526020019350505050600060405180830381600087803b158015613f2657600080fd5b505af1158015613f3a573d6000803e3d6000fd5b5050506000888152601f6020526040812090815560020180546001600160a01b0319169055505b50505050505050565b613f726130f9565b613f7b57600080fd5b60008111613f8857600080fd5b600654600c5460408051632dbe9d3160e21b8152600481018590526024810192909252516001600160a01b039092169163b6fa74c49160448082019260009290919082900301818387803b158015613fdf57600080fd5b505af1158015613ff3573d6000803e3d6000fd5b505050600c9190915550565b60155481565b600254600160a01b900460ff1681565b6000815160401461405e576040805162461bcd60e51b815260206004820152600e60248201526d496e76616c6964207075626b657960901b604482015290519081900360640190fd5b50805160209091012090565b602080526000908152604090205481565b600754604080516331a9108f60e11b8152600481018490529051839233926001600160a01b0390911691636352211e91602480820192602092909190829003018186803b1580156140cb57600080fd5b505afa1580156140df573d6000803e3d6000fd5b505050506040513d60208110156140f557600080fd5b50516001600160a01b03161461410a57600080fd5b6000828152601b60205260409020600301541580159061414f5750600a546009546000848152601b602052604090206003015461414c9163ffffffff6148f916565b11155b8015614182575060036000838152601b6020526040902060060154600160a01b900460ff16600381111561417f57fe5b14155b61418b57600080fd5b6000828152601b60205260409020546012546141ad908263ffffffff61504916565b60125560075460408051630852cd8d60e31b81526004810186905290516001600160a01b03909216916342966c689160248082019260009290919082900301818387803b1580156141fd57600080fd5b505af1158015614211573d6000803e3d6000fd5b5050506000848152601b6020818152604080842060058101546001600160a01b039081168652601c84528286206000199055898652938352600601805460ff60a01b1916600360a01b17905560048054825163a9059cbb60e01b8152339281019290925260248201889052915191909316945063a9059cbb936044808501948390030190829087803b1580156142a657600080fd5b505af11580156142ba573d6000803e3d6000fd5b505050506040513d60208110156142d057600080fd5b505161431b576040805162461bcd60e51b8152602060048201526015602482015274151c985b9cd9995c881cdd185ad94819985a5b1959605a1b604482015290519081900360640190fd5b6006546012546040805163ae2e26b160e01b815233600482015260248101879052604481018590526064810192909252516001600160a01b039092169163ae2e26b19160848082019260009290919082900301818387803b15801561437f57600080fd5b505af1158015613f61573d6000803e3d6000fd5b61439b6130f9565b6143a457600080fd5b600081116143b157600080fd5b600654600b5460408051635071805360e11b8152600481018590526024810192909252516001600160a01b039092169163a0e300a69160448082019260009290919082900301818387803b15801561440857600080fd5b505af115801561441c573d6000803e3d6000fd5b505050600b82905550600981905561443b81600463ffffffff61549e16565b6016819055600a546144529163ffffffff6148f916565b60195550565b6144606130f9565b61446957600080fd5b6001600160a01b03811661447c57600080fd5b6003546040516001600160a01b038084169216907f211c9015fc81c0dbd45bd99f0f29fc1c143bfd53442d5ffd722bbbef7a887fe990600090a3600380546001600160a01b0319166001600160a01b0392909216919091179055565b6000908152601b602052604090205490565b6006546001600160a01b031681565b6002546001600160a01b031633146145425760405162461bcd60e51b815260040180806020018281038252602681526020018061575e6026913960400191505060405180910390fd5b601a805460ff1916911515919091179055565b61455d6130f9565b61456657600080fd5b61312d816154c0565b600754604080516331a9108f60e11b8152600481018590529051849233926001600160a01b0390911691636352211e91602480820192602092909190829003018186803b1580156145bf57600080fd5b505afa1580156145d3573d6000803e3d6000fd5b505050506040513d60208110156145e957600080fd5b50516001600160a01b0316146145fe57600080fd5b600061460983614015565b90506001600160a01b0381161580159061463957506001600160a01b0381166000908152601c6020526040902054155b61467c576040805162461bcd60e51b815260206004820152600f60248201526e496e76616c6964205369676e65722160881b604482015290519081900360640190fd5b601054600085815260208052604090205461469c9163ffffffff6148f916565b6146a461310a565b10156146f7576040805162461bcd60e51b815260206004820152601a60248201527f496e76616c696420636865636b706f696e74206e756d62657221000000000000604482015290519081900360640190fd5b6006546000858152601b6020908152604080832060050154905163b80fbce560e01b8152600481018981526001600160a01b039283166024830181905287841660448401526080606484019081528a5160848501528a51949097169663b80fbce5968c9692958a958d959460a49091019290860191908190849084905b8381101561478c578181015183820152602001614774565b50505050905090810190601f1680156147b95780820380516001836020036101000a031916815260200191505b5095505050505050600060405180830381600087803b1580156147db57600080fd5b505af11580156147ef573d6000803e3d6000fd5b5050506000858152601b6020818152604080842060050180546001600160a01b039081168652601c8452828620600019905587168086529185208a90559389905291905281546001600160a01b0319161790555061484b61310a565b600094855260208052604090942093909355505050565b61486a6130f9565b61487357600080fd5b600a54614452908263ffffffff6148f916565b6002546001600160a01b031633146148cf5760405162461bcd60e51b815260040180806020018281038252602681526020018061575e6026913960400191505060405180910390fd5b6002805460ff60a01b1916600160a01b179055565b600e5481565b6004546001600160a01b031681565b60008282018381101561490b57600080fd5b9392505050565b6000828152601b60205260408120549061492b84612acc565b6000858152601b6020526040812060038101869055600181015460069091015492935090916001600160a01b031615614a24576000868152601b602090815260408083206006015481516332ba2e5360e01b815291516001600160a01b03909116936149b79385936332ba2e539360048083019491928390030190829087803b15801561322557600080fd5b9150806001600160a01b031663753868e36040518163ffffffff1660e01b8152600401602060405180830381600087803b1580156149f457600080fd5b505af1158015614a08573d6000803e3d6000fd5b505050506040513d6020811015614a1e57600080fd5b50519250505b600480546040805163a9059cbb60e01b81526001600160a01b0387811694820194909452602481018590529051929091169163a9059cbb916044808201926020929091908290030181600087803b158015614a7e57600080fd5b505af1158015614a92573d6000803e3d6000fd5b505050506040513d6020811015614aa857600080fd5b5051614afb576040805162461bcd60e51b815260206004820152601760248201527f52657761726473207472616e73666572206661696c6564000000000000000000604482015290519081900360640190fd5b614b0d85838601600003600019614b90565b60065460408051635e04d48360e01b81526001600160a01b038681166004830152602482018a9052604482018990526064820188905291519190921691635e04d48391608480830192600092919082900301818387803b158015614b7057600080fd5b505af1158015614b84573d6000803e3d6000fd5b50505050505050505050565b6000928352601d60205260409092208054909101815560010180549091019055565b6000614bbd82614015565b6001600160a01b0381166000908152601c602052604090205490915015614c20576040805162461bcd60e51b8152602060048201526012602482015271496e76616c6964205369676e6572206b657960701b604482015290519081900360640190fd5b601254614c33908563ffffffff6148f916565b60128190555060405180610100016040528085815260200160008152602001600a5481526020016000815260200160008152602001826001600160a01b0316815260200184614c83576000614d0b565b6008546013546006546040805163780ff34960e11b815260048101939093526001600160a01b0391821660248401525192169163f01fe692916044808201926020929091908290030181600087803b158015614cde57600080fd5b505af1158015614cf2573d6000803e3d6000fd5b505050506040513d6020811015614d0857600080fd5b50515b6001600160a01b03168152602001600190526013546000908152601b60209081526040918290208351815590830151600182015590820151600282015560608201516003808301919091556080830151600483015560a08301516005830180546001600160a01b039283166001600160a01b03199182161790915560c08501516006850180549190931691161780825560e08501519260ff60a01b1990911690600160a01b908490811115614dbc57fe5b021790555050600a5460138054600090815260208052604080822093909355600754915483516340c10f1960e01b81526001600160a01b038b8116600483015260248201929092529351921693506340c10f19926044808201939182900301818387803b158015614e2c57600080fd5b505af1158015614e40573d6000803e3d6000fd5b50506013546001600160a01b0384166000908152601c60205260409020555050600a54614e6f90856001614b90565b600a54601f6000601354815260200190815260200160002060010181905550600660009054906101000a90046001600160a01b03166001600160a01b03166333a8383c8284601354600a54896012546040518763ffffffff1660e01b815260040180876001600160a01b03166001600160a01b0316815260200180602001868152602001858152602001848152602001838152602001828103825287818151815260200191508051906020019080838360005b83811015614f3a578181015183820152602001614f22565b50505050905090810190601f168015614f675780820380516001836020036101000a031916815260200191505b50975050505050505050600060405180830381600087803b158015614f8b57600080fd5b505af1158015614f9f573d6000803e3d6000fd5b5050601354614fb892509050600163ffffffff6148f916565b6013555050505050565b602154614fd5908263ffffffff6148f916565b6021556006546040805163a449d79560e01b81526001600160a01b038581166004830152602482018590529151919092169163a449d79591604480830192600092919082900301818387803b15801561502d57600080fd5b505af1158015615041573d6000803e3d6000fd5b505050505050565b60008282111561505857600080fd5b50900390565b60008183101561506e578161490b565b5090919050565b61507d6156c0565b506040805180820190915281518152602082810190820152919050565b60606150a58261552e565b6150ae57600080fd5b60006150b983615568565b90506060816040519080825280602002602001820160405280156150f757816020015b6150e46156c0565b8152602001906001900390816150dc5790505b509050600061510985602001516155c4565b60208601510190506000805b848110156151605761512683615627565b915060405180604001604052808381526020018481525084828151811061514957fe5b602090810291909101015291810191600101615115565b509195945050505050565b80516000901580159061518057508151602110155b61518957600080fd5b600061519883602001516155c4565b835160208086015183018051939450918490039291908310156151c257826020036101000a820491505b50949350505050565b80516000906001146151dc57600080fd5b6020820151805160001a9081156151f45760016151f7565b60005b949350505050565b6000828152601b602052604081206006015481906001600160a01b0316156152a5576000848152601b6020908152604080832060060154815163753868e360e01b815291516001600160a01b039091169363753868e393600480850194919392918390030190829087803b15801561527657600080fd5b505af115801561528a573d6000803e3d6000fd5b505050506040513d60208110156152a057600080fd5b505190505b600a546000858152601b602052604090206003018190556152cc908463ffffffff6148f916565b6000858152601b60205260408082206004808201949094556006808201805460ff60a01b1916600160a11b17905554600a5460059092015483516381dc101b60e01b81529586018a905260248601929092526001600160a01b03918216604486015291519116926381dc101b92606480830193919282900301818387803b15801561535657600080fd5b505af115801561536a573d6000803e3d6000fd5b5050506000858152601b60205260409020546151f791508263ffffffff6148f916565b6021546153a0908263ffffffff61504916565b6021556006546040805163122b648160e01b81526001600160a01b038581166004830152602482018590529151919092169163122b648191604480830192600092919082900301818387803b15801561502d57600080fd5b60608183018451101561540a57600080fd5b606082158015615425576040519150602082016040526151c2565b6040519150601f8416801560200281840101858101878315602002848b0101015b8183101561545e578051835260209283019201615446565b5050858452601f01601f19166040525050949350505050565b60008261548657506000611665565b8282028284828161549357fe5b041461490b57600080fd5b60008082116154ac57600080fd5b60008284816154b757fe5b04949350505050565b6001600160a01b0381166154d357600080fd5b600080546040516001600160a01b03808516939216917f8be0079c531659141344cd1fd0a4f28419497f9722a3daafe3b4186f6b6457e091a3600080546001600160a01b0319166001600160a01b0392909216919091179055565b805160009061553f575060006115a0565b6020820151805160001a9060c082101561555e576000925050506115a0565b5060019392505050565b8051600090615579575060006115a0565b6000809050600061558d84602001516155c4565b602085015185519181019250015b808210156155bb576155ac82615627565b6001909301929091019061559b565b50909392505050565b8051600090811a60808110156155de5760009150506115a0565b60b88110806155f9575060c081108015906155f9575060f881105b156156085760019150506115a0565b60c081101561561c5760b5190190506115a0565b60f5190190506115a0565b80516000908190811a608081101561564257600191506156b9565b60b881101561565757607e19810191506156b9565b60c08110156156845760b78103600185019450806020036101000a855104600182018101935050506156b9565b60f88110156156995760be19810191506156b9565b60f78103600185019450806020036101000a855104600182018101935050505b5092915050565b60405180604001604052806000815260200160008152509056fe56616c696461746f7220736574205468726573686f6c642065786365656465642150726f706f73657220626f6e75732073686f756c64206265206c657373207468616e206f7220657175616c20746f20313030436f6e6669726d6174696f6e206973206e6f7420616c6c6f776564206265666f72652061756374696f6e506572696f644f6e6c7920676f7665726e616e636520636f6e747261637420697320617574686f72697a6564a265627a7a72315820e58f5afde1081c746bb691bea2e3ee35ba41ff53e1f1c617039b68c120a2738d64736f6c634300050b0032",
  "source": "pragma solidity ^0.5.2;\n\nimport {IERC20} from \"openzeppelin-solidity/contracts/token/ERC20/IERC20.sol\";\n\nimport {IGovernance} from \"../common/governance/IGovernance.sol\";\nimport {StakeManager} from \"../staking/stakeManager/StakeManager.sol\";\nimport {StakingInfo} from \"../staking/StakingInfo.sol\";\nimport {StakingNFT} from \"../staking/stakeManager/StakingNFT.sol\";\nimport \"../staking/validatorShare/ValidatorShareFactory.sol\";\n\n\ncontract StakeManagerTest is StakeManager {\n    modifier onlyRootChain() {\n        _;\n    }\n\n    constructor(\n        address _registry,\n        address _rootChain,\n        address _token,\n        address _NFTContract,\n        address _stakingLogger,\n        address _validatorShareFactory,\n        address _governance\n    ) public {\n        checkPointBlockInterval = 1;\n        registry = _registry;\n        rootChain = _rootChain;\n        token = IERC20(_token);\n        NFTContract = StakingNFT(_NFTContract);\n        logger = StakingInfo(_stakingLogger);\n        factory = ValidatorShareFactory(_validatorShareFactory);\n        governance = IGovernance(_governance);\n    }\n\n    function checkSignatures(\n        uint256 blockInterval,\n        bytes32 voteHash,\n        bytes32 stateRoot,\n        address proposer,\n        bytes memory sigs\n    ) public onlyRootChain returns (uint256) {\n        return CHECKPOINT_REWARD; // for dummy tests return full reward\n    }\n}\n",
  "sourcePath": "/Users/arth/Documents/Projects/contracts/contracts/test/StakeManagerTest.sol",
  "compiler": {
    "name": "solc",
    "version": "0.5.11+commit.c082d0b4.Emscripten.clang"
  },
  "schemaVersion": "3.0.14",
  "updatedAt": "2020-05-16T09:22:50.648Z",
  "devdoc": {
    "methods": {
      "changeRootChain(address)": {
        "details": "Allows the current owner to change root chain address.",
        "params": {
          "newRootChain": "The address to new rootchain."
        }
      },
      "isOwner()": {
        "return": "true if `msg.sender` is the owner of the contract."
      },
      "owner()": {
        "return": "the address of the owner."
      },
      "renounceOwnership()": {
        "details": "Allows the current owner to relinquish control of the contract. It will not be possible to call the functions with the `onlyOwner` modifier anymore."
      },
      "transferOwnership(address)": {
        "details": "Allows the current owner to transfer control of the contract to a newOwner.",
        "params": {
          "newOwner": "The address to transfer ownership to."
        }
      }
    }
  },
  "userdoc": {
    "methods": {
      "renounceOwnership()": {
        "notice": "Renouncing ownership will leave the contract without an owner, thereby removing any functionality that is only available to the owner."
      }
    }
  }
}