{
  "contractName": "StakeManagerTestable",
  "abi": [
    {
      "constant": true,
      "inputs": [],
      "name": "getCurrentValidatorSet",
      "outputs": [
        {
          "internalType": "uint256[]",
          "name": "",
          "type": "uint256[]"
        }
      ],
      "payable": false,
      "stateMutability": "view",
      "type": "function"
    },
    {
      "constant": false,
      "inputs": [
        {
          "internalType": "uint256",
          "name": "amount",
          "type": "uint256"
        },
        {
          "internalType": "uint256",
          "name": "heimdallFee",
          "type": "uint256"
        },
        {
          "internalType": "bool",
          "name": "acceptDelegation",
          "type": "bool"
        },
        {
          "internalType": "bytes",
          "name": "signerPubkey",
          "type": "bytes"
        }
      ],
      "name": "stake",
      "outputs": [],
      "payable": false,
      "stateMutability": "nonpayable",
      "type": "function"
    },
    {
      "constant": false,
      "inputs": [
        {
          "internalType": "uint256",
          "name": "blockInterval",
          "type": "uint256"
        },
        {
          "internalType": "bytes32",
          "name": "voteHash",
          "type": "bytes32"
        },
        {
          "internalType": "bytes32",
          "name": "stateRoot",
          "type": "bytes32"
        },
        {
          "internalType": "address",
          "name": "proposer",
          "type": "address"
        },
        {
          "internalType": "bytes",
          "name": "sigs",
          "type": "bytes"
        }
      ],
      "name": "checkSignatures",
      "outputs": [
        {
          "internalType": "uint256",
          "name": "",
          "type": "uint256"
        }
      ],
      "payable": false,
      "stateMutability": "nonpayable",
      "type": "function"
    },
    {
      "constant": false,
      "inputs": [
        {
          "internalType": "uint256",
          "name": "_limit",
          "type": "uint256"
        }
      ],
      "name": "updateSignerUpdateLimit",
      "outputs": [],
      "payable": false,
      "stateMutability": "nonpayable",
      "type": "function"
    },
    {
      "constant": true,
      "inputs": [],
      "name": "auctionPeriod",
      "outputs": [
        {
          "internalType": "uint256",
          "name": "",
          "type": "uint256"
        }
      ],
      "payable": false,
      "stateMutability": "view",
      "type": "function"
    },
    {
      "constant": true,
      "inputs": [],
      "name": "totalRewards",
      "outputs": [
        {
          "internalType": "uint256",
          "name": "",
          "type": "uint256"
        }
      ],
      "payable": false,
      "stateMutability": "view",
      "type": "function"
    },
    {
      "constant": true,
      "inputs": [],
      "name": "WITHDRAWAL_DELAY",
      "outputs": [
        {
          "internalType": "uint256",
          "name": "",
          "type": "uint256"
        }
      ],
      "payable": false,
      "stateMutability": "view",
      "type": "function"
    },
    {
      "constant": false,
      "inputs": [
        {
          "internalType": "address",
          "name": "_registry",
          "type": "address"
        },
        {
          "internalType": "address",
          "name": "_rootchain",
          "type": "address"
        },
        {
          "internalType": "address",
          "name": "_NFTContract",
          "type": "address"
        },
        {
          "internalType": "address",
          "name": "_stakingLogger",
          "type": "address"
        },
        {
          "internalType": "address",
          "name": "_ValidatorShareFactory",
          "type": "address"
        }
      ],
      "name": "updateConstructor",
      "outputs": [],
      "payable": false,
      "stateMutability": "nonpayable",
      "type": "function"
    },
    {
      "constant": false,
      "inputs": [
        {
          "internalType": "address",
          "name": "_token",
          "type": "address"
        }
      ],
      "name": "setToken",
      "outputs": [],
      "payable": false,
      "stateMutability": "nonpayable",
      "type": "function"
    },
    {
      "constant": false,
      "inputs": [
        {
          "internalType": "uint256",
          "name": "newThreshold",
          "type": "uint256"
        }
      ],
      "name": "updateValidatorThreshold",
      "outputs": [],
      "payable": false,
      "stateMutability": "nonpayable",
      "type": "function"
    },
    {
      "constant": true,
      "inputs": [
        {
          "internalType": "address",
          "name": "user",
          "type": "address"
        }
      ],
      "name": "getValidatorId",
      "outputs": [
        {
          "internalType": "uint256",
          "name": "",
          "type": "uint256"
        }
      ],
      "payable": false,
      "stateMutability": "view",
      "type": "function"
    },
    {
      "constant": true,
      "inputs": [],
      "name": "accountStateRoot",
      "outputs": [
        {
          "internalType": "bytes32",
          "name": "",
          "type": "bytes32"
        }
      ],
      "payable": false,
      "stateMutability": "view",
      "type": "function"
    },
    {
      "constant": true,
      "inputs": [],
      "name": "checkPointBlockInterval",
      "outputs": [
        {
          "internalType": "uint256",
          "name": "",
          "type": "uint256"
        }
      ],
      "payable": false,
      "stateMutability": "view",
      "type": "function"
    },
    {
      "constant": true,
      "inputs": [
        {
          "internalType": "uint256",
          "name": "validatorId",
          "type": "uint256"
        }
      ],
      "name": "isValidator",
      "outputs": [
        {
          "internalType": "bool",
          "name": "",
          "type": "bool"
        }
      ],
      "payable": false,
      "stateMutability": "view",
      "type": "function"
    },
    {
      "constant": false,
      "inputs": [
        {
          "internalType": "uint256",
          "name": "validatorId",
          "type": "uint256"
        },
        {
          "internalType": "uint256",
          "name": "amount",
          "type": "uint256"
        },
        {
          "internalType": "bool",
          "name": "stakeRewards",
          "type": "bool"
        }
      ],
      "name": "restake",
      "outputs": [],
      "payable": false,
      "stateMutability": "nonpayable",
      "type": "function"
    },
    {
      "constant": false,
      "inputs": [
        {
          "internalType": "uint256",
          "name": "validatorId",
          "type": "uint256"
        }
      ],
      "name": "unstake",
      "outputs": [],
      "payable": false,
      "stateMutability": "nonpayable",
      "type": "function"
    },
    {
      "constant": true,
      "inputs": [],
      "name": "NFTContract",
      "outputs": [
        {
          "internalType": "contract StakingNFT",
          "name": "",
          "type": "address"
        }
      ],
      "payable": false,
      "stateMutability": "view",
      "type": "function"
    },
    {
      "constant": true,
      "inputs": [],
      "name": "proposerBonus",
      "outputs": [
        {
          "internalType": "uint256",
          "name": "",
          "type": "uint256"
        }
      ],
      "payable": false,
      "stateMutability": "view",
      "type": "function"
    },
    {
      "constant": true,
      "inputs": [
        {
          "internalType": "uint256",
          "name": "",
          "type": "uint256"
        }
      ],
      "name": "validators",
      "outputs": [
        {
          "internalType": "uint256",
          "name": "amount",
          "type": "uint256"
        },
        {
          "internalType": "uint256",
          "name": "reward",
          "type": "uint256"
        },
        {
          "internalType": "uint256",
          "name": "activationEpoch",
          "type": "uint256"
        },
        {
          "internalType": "uint256",
          "name": "deactivationEpoch",
          "type": "uint256"
        },
        {
          "internalType": "uint256",
          "name": "jailTime",
          "type": "uint256"
        },
        {
          "internalType": "address",
          "name": "signer",
          "type": "address"
        },
        {
          "internalType": "address",
          "name": "contractAddress",
          "type": "address"
        },
        {
          "internalType": "enum StakeManagerStorage.Status",
          "name": "status",
          "type": "uint8"
        }
      ],
      "payable": false,
      "stateMutability": "view",
      "type": "function"
    },
    {
      "constant": true,
      "inputs": [
        {
          "internalType": "address",
          "name": "",
          "type": "address"
        }
      ],
      "name": "signerToValidator",
      "outputs": [
        {
          "internalType": "uint256",
          "name": "",
          "type": "uint256"
        }
      ],
      "payable": false,
      "stateMutability": "view",
      "type": "function"
    },
    {
      "constant": false,
      "inputs": [
        {
          "internalType": "uint256",
          "name": "validatorId",
          "type": "uint256"
        }
      ],
      "name": "unJail",
      "outputs": [],
      "payable": false,
      "stateMutability": "nonpayable",
      "type": "function"
    },
    {
      "constant": true,
      "inputs": [],
      "name": "minDeposit",
      "outputs": [
        {
          "internalType": "uint256",
          "name": "",
          "type": "uint256"
        }
      ],
      "payable": false,
      "stateMutability": "view",
      "type": "function"
    },
    {
      "constant": true,
      "inputs": [
        {
          "internalType": "address",
          "name": "user",
          "type": "address"
        }
      ],
      "name": "totalStakedFor",
      "outputs": [
        {
          "internalType": "uint256",
          "name": "",
          "type": "uint256"
        }
      ],
      "payable": false,
      "stateMutability": "view",
      "type": "function"
    },
    {
      "constant": true,
      "inputs": [],
      "name": "signerUpdateLimit",
      "outputs": [
        {
          "internalType": "uint256",
          "name": "",
          "type": "uint256"
        }
      ],
      "payable": false,
      "stateMutability": "view",
      "type": "function"
    },
    {
      "constant": true,
      "inputs": [],
      "name": "validatorThreshold",
      "outputs": [
        {
          "internalType": "uint256",
          "name": "",
          "type": "uint256"
        }
      ],
      "payable": false,
      "stateMutability": "view",
      "type": "function"
    },
    {
      "constant": false,
      "inputs": [
        {
          "internalType": "address",
          "name": "user",
          "type": "address"
        },
        {
          "internalType": "uint256",
          "name": "amount",
          "type": "uint256"
        },
        {
          "internalType": "uint256",
          "name": "heimdallFee",
          "type": "uint256"
        },
        {
          "internalType": "bool",
          "name": "acceptDelegation",
          "type": "bool"
        },
        {
          "internalType": "bytes",
          "name": "signerPubkey",
          "type": "bytes"
        }
      ],
      "name": "stakeFor",
      "outputs": [],
      "payable": false,
      "stateMutability": "nonpayable",
      "type": "function"
    },
    {
      "constant": false,
      "inputs": [
        {
          "internalType": "uint256",
          "name": "validatorId",
          "type": "uint256"
        },
        {
          "internalType": "uint256",
          "name": "amount",
          "type": "uint256"
        }
      ],
      "name": "startAuction",
      "outputs": [],
      "payable": false,
      "stateMutability": "nonpayable",
      "type": "function"
    },
    {
      "constant": true,
      "inputs": [
        {
          "internalType": "uint256",
          "name": "",
          "type": "uint256"
        }
      ],
      "name": "validatorAuction",
      "outputs": [
        {
          "internalType": "uint256",
          "name": "amount",
          "type": "uint256"
        },
        {
          "internalType": "uint256",
          "name": "startEpoch",
          "type": "uint256"
        },
        {
          "internalType": "address",
          "name": "user",
          "type": "address"
        }
      ],
      "payable": false,
      "stateMutability": "view",
      "type": "function"
    },
    {
      "constant": true,
      "inputs": [],
      "name": "delegationEnabled",
      "outputs": [
        {
          "internalType": "bool",
          "name": "",
          "type": "bool"
        }
      ],
      "payable": false,
      "stateMutability": "view",
      "type": "function"
    },
    {
      "constant": true,
      "inputs": [],
      "name": "NFTCounter",
      "outputs": [
        {
          "internalType": "uint256",
          "name": "",
          "type": "uint256"
        }
      ],
      "payable": false,
      "stateMutability": "view",
      "type": "function"
    },
    {
      "constant": true,
      "inputs": [
        {
          "internalType": "uint256",
          "name": "validatorId",
          "type": "uint256"
        }
      ],
      "name": "getValidatorContract",
      "outputs": [
        {
          "internalType": "address",
          "name": "",
          "type": "address"
        }
      ],
      "payable": false,
      "stateMutability": "view",
      "type": "function"
    },
    {
      "constant": true,
      "inputs": [],
      "name": "governance",
      "outputs": [
        {
          "internalType": "contract IGovernance",
          "name": "",
          "type": "address"
        }
      ],
      "payable": false,
      "stateMutability": "view",
      "type": "function"
    },
    {
      "constant": true,
      "inputs": [
        {
          "internalType": "uint256",
          "name": "",
          "type": "uint256"
        }
      ],
      "name": "validatorState",
      "outputs": [
        {
          "internalType": "int256",
          "name": "amount",
          "type": "int256"
        },
        {
          "internalType": "int256",
          "name": "stakerCount",
          "type": "int256"
        }
      ],
      "payable": false,
      "stateMutability": "view",
      "type": "function"
    },
    {
      "constant": false,
      "inputs": [
        {
          "internalType": "bytes",
          "name": "_slashingInfoList",
          "type": "bytes"
        }
      ],
      "name": "slash",
      "outputs": [
        {
          "internalType": "uint256",
          "name": "",
          "type": "uint256"
        }
      ],
      "payable": false,
      "stateMutability": "nonpayable",
      "type": "function"
    },
    {
      "constant": true,
      "inputs": [
        {
          "internalType": "uint256",
          "name": "tokenId",
          "type": "uint256"
        }
      ],
      "name": "ownerOf",
      "outputs": [
        {
          "internalType": "address",
          "name": "",
          "type": "address"
        }
      ],
      "payable": false,
      "stateMutability": "view",
      "type": "function"
    },
    {
      "constant": false,
      "inputs": [
        {
          "internalType": "address",
          "name": "user",
          "type": "address"
        },
        {
          "internalType": "uint256",
          "name": "heimdallFee",
          "type": "uint256"
        }
      ],
      "name": "topUpForFee",
      "outputs": [],
      "payable": false,
      "stateMutability": "nonpayable",
      "type": "function"
    },
    {
      "constant": false,
      "inputs": [
        {
          "internalType": "uint256",
          "name": "accumFeeAmount",
          "type": "uint256"
        },
        {
          "internalType": "uint256",
          "name": "index",
          "type": "uint256"
        },
        {
          "internalType": "bytes",
          "name": "proof",
          "type": "bytes"
        }
      ],
      "name": "claimFee",
      "outputs": [],
      "payable": false,
      "stateMutability": "nonpayable",
      "type": "function"
    },
    {
      "constant": false,
      "inputs": [
        {
          "internalType": "uint256",
          "name": "validatorId",
          "type": "uint256"
        },
        {
          "internalType": "uint256",
          "name": "amount",
          "type": "uint256"
        },
        {
          "internalType": "address",
          "name": "delegator",
          "type": "address"
        }
      ],
      "name": "delegationDeposit",
      "outputs": [
        {
          "internalType": "bool",
          "name": "",
          "type": "bool"
        }
      ],
      "payable": false,
      "stateMutability": "nonpayable",
      "type": "function"
    },
    {
      "constant": true,
      "inputs": [],
      "name": "supportsHistory",
      "outputs": [
        {
          "internalType": "bool",
          "name": "",
          "type": "bool"
        }
      ],
      "payable": false,
      "stateMutability": "pure",
      "type": "function"
    },
    {
      "constant": true,
      "inputs": [],
      "name": "dynasty",
      "outputs": [
        {
          "internalType": "uint256",
          "name": "",
          "type": "uint256"
        }
      ],
      "payable": false,
      "stateMutability": "view",
      "type": "function"
    },
    {
      "constant": false,
      "inputs": [],
      "name": "renounceOwnership",
      "outputs": [],
      "payable": false,
      "stateMutability": "nonpayable",
      "type": "function"
    },
    {
      "constant": true,
      "inputs": [],
      "name": "currentEpoch",
      "outputs": [
        {
          "internalType": "uint256",
          "name": "",
          "type": "uint256"
        }
      ],
      "payable": false,
      "stateMutability": "view",
      "type": "function"
    },
    {
      "constant": true,
      "inputs": [],
      "name": "replacementCoolDown",
      "outputs": [
        {
          "internalType": "uint256",
          "name": "",
          "type": "uint256"
        }
      ],
      "payable": false,
      "stateMutability": "view",
      "type": "function"
    },
    {
      "constant": true,
      "inputs": [
        {
          "internalType": "address",
          "name": "",
          "type": "address"
        }
      ],
      "name": "userFeeExit",
      "outputs": [
        {
          "internalType": "uint256",
          "name": "",
          "type": "uint256"
        }
      ],
      "payable": false,
      "stateMutability": "view",
      "type": "function"
    },
    {
      "constant": true,
      "inputs": [],
      "name": "registry",
      "outputs": [
        {
          "internalType": "address",
          "name": "",
          "type": "address"
        }
      ],
      "payable": false,
      "stateMutability": "view",
      "type": "function"
    },
    {
      "constant": true,
      "inputs": [],
      "name": "CHECKPOINT_REWARD",
      "outputs": [
        {
          "internalType": "uint256",
          "name": "",
          "type": "uint256"
        }
      ],
      "payable": false,
      "stateMutability": "view",
      "type": "function"
    },
    {
      "constant": true,
      "inputs": [],
      "name": "currentValidatorSetSize",
      "outputs": [
        {
          "internalType": "uint256",
          "name": "",
          "type": "uint256"
        }
      ],
      "payable": false,
      "stateMutability": "view",
      "type": "function"
    },
    {
      "constant": true,
      "inputs": [],
      "name": "totalStaked",
      "outputs": [
        {
          "internalType": "uint256",
          "name": "",
          "type": "uint256"
        }
      ],
      "payable": false,
      "stateMutability": "view",
      "type": "function"
    },
    {
      "constant": true,
      "inputs": [],
      "name": "owner",
      "outputs": [
        {
          "internalType": "address",
          "name": "",
          "type": "address"
        }
      ],
      "payable": false,
      "stateMutability": "view",
      "type": "function"
    },
    {
      "constant": true,
      "inputs": [],
      "name": "isOwner",
      "outputs": [
        {
          "internalType": "bool",
          "name": "",
          "type": "bool"
        }
      ],
      "payable": false,
      "stateMutability": "view",
      "type": "function"
    },
    {
      "constant": true,
      "inputs": [],
      "name": "epoch",
      "outputs": [
        {
          "internalType": "uint256",
          "name": "",
          "type": "uint256"
        }
      ],
      "payable": false,
      "stateMutability": "view",
      "type": "function"
    },
    {
      "constant": false,
      "inputs": [
        {
          "internalType": "uint256",
          "name": "validatorId",
          "type": "uint256"
        }
      ],
      "name": "forceUnstake",
      "outputs": [],
      "payable": false,
      "stateMutability": "nonpayable",
      "type": "function"
    },
    {
      "constant": false,
      "inputs": [
        {
          "internalType": "uint256",
          "name": "validatorId",
          "type": "uint256"
        }
      ],
      "name": "withdrawRewards",
      "outputs": [],
      "payable": false,
      "stateMutability": "nonpayable",
      "type": "function"
    },
    {
      "constant": true,
      "inputs": [],
      "name": "rootChain",
      "outputs": [
        {
          "internalType": "address",
          "name": "",
          "type": "address"
        }
      ],
      "payable": false,
      "stateMutability": "view",
      "type": "function"
    },
    {
      "constant": true,
      "inputs": [],
      "name": "totalHeimdallFee",
      "outputs": [
        {
          "internalType": "uint256",
          "name": "",
          "type": "uint256"
        }
      ],
      "payable": false,
      "stateMutability": "view",
      "type": "function"
    },
    {
      "constant": false,
      "inputs": [
        {
          "internalType": "uint256",
          "name": "newProposerBonus",
          "type": "uint256"
        }
      ],
      "name": "updateProposerBonus",
      "outputs": [],
      "payable": false,
      "stateMutability": "nonpayable",
      "type": "function"
    },
    {
      "constant": false,
      "inputs": [
        {
          "internalType": "uint256",
          "name": "validatorId",
          "type": "uint256"
        },
        {
          "internalType": "int256",
          "name": "amount",
          "type": "int256"
        }
      ],
      "name": "updateValidatorState",
      "outputs": [],
      "payable": false,
      "stateMutability": "nonpayable",
      "type": "function"
    },
    {
      "constant": false,
      "inputs": [
        {
          "internalType": "uint256",
          "name": "_blocks",
          "type": "uint256"
        }
      ],
      "name": "updateCheckPointBlockInterval",
      "outputs": [],
      "payable": false,
      "stateMutability": "nonpayable",
      "type": "function"
    },
    {
      "constant": true,
      "inputs": [],
      "name": "currentValidatorSetTotalStake",
      "outputs": [
        {
          "internalType": "uint256",
          "name": "",
          "type": "uint256"
        }
      ],
      "payable": false,
      "stateMutability": "view",
      "type": "function"
    },
    {
      "constant": false,
      "inputs": [],
      "name": "unlock",
      "outputs": [],
      "payable": false,
      "stateMutability": "nonpayable",
      "type": "function"
    },
    {
      "constant": true,
      "inputs": [],
      "name": "withdrawalDelay",
      "outputs": [
        {
          "internalType": "uint256",
          "name": "",
          "type": "uint256"
        }
      ],
      "payable": false,
      "stateMutability": "view",
      "type": "function"
    },
    {
      "constant": false,
      "inputs": [
        {
          "internalType": "uint256",
          "name": "_minDeposit",
          "type": "uint256"
        },
        {
          "internalType": "uint256",
          "name": "_minHeimdallFee",
          "type": "uint256"
        }
      ],
      "name": "updateMinAmounts",
      "outputs": [],
      "payable": false,
      "stateMutability": "nonpayable",
      "type": "function"
    },
    {
      "constant": true,
      "inputs": [
        {
          "internalType": "bytes32",
          "name": "voteHash",
          "type": "bytes32"
        },
        {
          "internalType": "bytes",
          "name": "sigs",
          "type": "bytes"
        }
      ],
      "name": "verifyConsensus",
      "outputs": [
        {
          "internalType": "uint256",
          "name": "",
          "type": "uint256"
        },
        {
          "internalType": "uint256",
          "name": "",
          "type": "uint256"
        }
      ],
      "payable": false,
      "stateMutability": "view",
      "type": "function"
    },
    {
      "constant": false,
      "inputs": [
        {
          "internalType": "uint256",
          "name": "validatorId",
          "type": "uint256"
        },
        {
          "internalType": "uint256",
          "name": "amount",
          "type": "uint256"
        },
        {
          "internalType": "address",
          "name": "delegator",
          "type": "address"
        }
      ],
      "name": "transferFunds",
      "outputs": [
        {
          "internalType": "bool",
          "name": "",
          "type": "bool"
        }
      ],
      "payable": false,
      "stateMutability": "nonpayable",
      "type": "function"
    },
    {
      "constant": true,
      "inputs": [],
      "name": "factory",
      "outputs": [
        {
          "internalType": "contract ValidatorShareFactory",
          "name": "",
          "type": "address"
        }
      ],
      "payable": false,
      "stateMutability": "view",
      "type": "function"
    },
    {
      "constant": false,
      "inputs": [
        {
          "internalType": "uint256",
          "name": "validatorId",
          "type": "uint256"
        },
        {
          "internalType": "uint256",
          "name": "heimdallFee",
          "type": "uint256"
        },
        {
          "internalType": "bool",
          "name": "acceptDelegation",
          "type": "bool"
        },
        {
          "internalType": "bytes",
          "name": "signerPubkey",
          "type": "bytes"
        }
      ],
      "name": "confirmAuctionBid",
      "outputs": [],
      "payable": false,
      "stateMutability": "nonpayable",
      "type": "function"
    },
    {
      "constant": false,
      "inputs": [
        {
          "internalType": "uint256",
          "name": "newReward",
          "type": "uint256"
        }
      ],
      "name": "updateCheckpointReward",
      "outputs": [],
      "payable": false,
      "stateMutability": "nonpayable",
      "type": "function"
    },
    {
      "constant": true,
      "inputs": [],
      "name": "totalRewardsLiquidated",
      "outputs": [
        {
          "internalType": "uint256",
          "name": "",
          "type": "uint256"
        }
      ],
      "payable": false,
      "stateMutability": "view",
      "type": "function"
    },
    {
      "constant": true,
      "inputs": [],
      "name": "locked",
      "outputs": [
        {
          "internalType": "bool",
          "name": "",
          "type": "bool"
        }
      ],
      "payable": false,
      "stateMutability": "view",
      "type": "function"
    },
    {
      "constant": true,
      "inputs": [
        {
          "internalType": "bytes",
          "name": "pub",
          "type": "bytes"
        }
      ],
      "name": "pubToAddress",
      "outputs": [
        {
          "internalType": "address",
          "name": "",
          "type": "address"
        }
      ],
      "payable": false,
      "stateMutability": "pure",
      "type": "function"
    },
    {
      "constant": true,
      "inputs": [
        {
          "internalType": "uint256",
          "name": "",
          "type": "uint256"
        }
      ],
      "name": "latestSignerUpdateEpoch",
      "outputs": [
        {
          "internalType": "uint256",
          "name": "",
          "type": "uint256"
        }
      ],
      "payable": false,
      "stateMutability": "view",
      "type": "function"
    },
    {
      "constant": false,
      "inputs": [
        {
          "internalType": "uint256",
          "name": "validatorId",
          "type": "uint256"
        }
      ],
      "name": "unstakeClaim",
      "outputs": [],
      "payable": false,
      "stateMutability": "nonpayable",
      "type": "function"
    },
    {
      "constant": false,
      "inputs": [
        {
          "internalType": "uint256",
          "name": "newDynasty",
          "type": "uint256"
        }
      ],
      "name": "updateDynastyValue",
      "outputs": [],
      "payable": false,
      "stateMutability": "nonpayable",
      "type": "function"
    },
    {
      "constant": false,
      "inputs": [
        {
          "internalType": "address",
          "name": "newRootChain",
          "type": "address"
        }
      ],
      "name": "changeRootChain",
      "outputs": [],
      "payable": false,
      "stateMutability": "nonpayable",
      "type": "function"
    },
    {
      "constant": true,
      "inputs": [
        {
          "internalType": "uint256",
          "name": "validatorId",
          "type": "uint256"
        }
      ],
      "name": "validatorStake",
      "outputs": [
        {
          "internalType": "uint256",
          "name": "",
          "type": "uint256"
        }
      ],
      "payable": false,
      "stateMutability": "view",
      "type": "function"
    },
    {
      "constant": true,
      "inputs": [],
      "name": "logger",
      "outputs": [
        {
          "internalType": "contract StakingInfo",
          "name": "",
          "type": "address"
        }
      ],
      "payable": false,
      "stateMutability": "view",
      "type": "function"
    },
    {
      "constant": false,
      "inputs": [
        {
          "internalType": "bool",
          "name": "enabled",
          "type": "bool"
        }
      ],
      "name": "setDelegationEnabled",
      "outputs": [],
      "payable": false,
      "stateMutability": "nonpayable",
      "type": "function"
    },
    {
      "constant": false,
      "inputs": [
        {
          "internalType": "address",
          "name": "newOwner",
          "type": "address"
        }
      ],
      "name": "transferOwnership",
      "outputs": [],
      "payable": false,
      "stateMutability": "nonpayable",
      "type": "function"
    },
    {
      "constant": false,
      "inputs": [
        {
          "internalType": "uint256",
          "name": "validatorId",
          "type": "uint256"
        },
        {
          "internalType": "bytes",
          "name": "signerPubkey",
          "type": "bytes"
        }
      ],
      "name": "updateSigner",
      "outputs": [],
      "payable": false,
      "stateMutability": "nonpayable",
      "type": "function"
    },
    {
      "constant": false,
      "inputs": [
        {
          "internalType": "uint256",
          "name": "forNCheckpoints",
          "type": "uint256"
        }
      ],
      "name": "stopAuctions",
      "outputs": [],
      "payable": false,
      "stateMutability": "nonpayable",
      "type": "function"
    },
    {
      "constant": false,
      "inputs": [],
      "name": "lock",
      "outputs": [],
      "payable": false,
      "stateMutability": "nonpayable",
      "type": "function"
    },
    {
      "constant": true,
      "inputs": [],
      "name": "minHeimdallFee",
      "outputs": [
        {
          "internalType": "uint256",
          "name": "",
          "type": "uint256"
        }
      ],
      "payable": false,
      "stateMutability": "view",
      "type": "function"
    },
    {
      "constant": true,
      "inputs": [],
      "name": "token",
      "outputs": [
        {
          "internalType": "contract IERC20",
          "name": "",
          "type": "address"
        }
      ],
      "payable": false,
      "stateMutability": "view",
      "type": "function"
    },
    {
      "anonymous": false,
      "inputs": [
        {
          "indexed": true,
          "internalType": "address",
          "name": "previousRootChain",
          "type": "address"
        },
        {
          "indexed": true,
          "internalType": "address",
          "name": "newRootChain",
          "type": "address"
        }
      ],
      "name": "RootChainChanged",
      "type": "event"
    },
    {
      "anonymous": false,
      "inputs": [
        {
          "indexed": true,
          "internalType": "address",
          "name": "previousOwner",
          "type": "address"
        },
        {
          "indexed": true,
          "internalType": "address",
          "name": "newOwner",
          "type": "address"
        }
      ],
      "name": "OwnershipTransferred",
      "type": "event"
    },
    {
      "constant": false,
      "inputs": [
        {
          "internalType": "uint256",
          "name": "delta",
          "type": "uint256"
        }
      ],
      "name": "advanceEpoch",
      "outputs": [],
      "payable": false,
      "stateMutability": "nonpayable",
      "type": "function"
    }
  ],
  "bytecode": "0x60806040526120006009556001600a55612000600b5569021e19e0c9bab2400000600c55670de0b6b3a7640000600d55670de0b6b3a7640000600e5560ff600f556064601055600a60115560016013556004600b548161005b57fe5b04601655600a601755601a805460ff19166001179055600080546001600160a01b031916331780825560405182916001600160a01b03169082907f8be0079c531659141344cd1fd0a4f28419497f9722a3daafe3b4186f6b6457e0908290a3600280546001600160a01b0319166001600160a01b039290921691909117905550615cfc80620000eb6000396000f3fe608060405234801561001057600080fd5b50600436106104ac5760003560e01c806377939d101161026d578063bc8756a911610151578063e8afa8e8116100ce578063f3b8777911610092578063f3b8777914611107578063f41a964214611124578063f771fc87146111cf578063f83d08ba146111ec578063fba58f34146111f4578063fc0c546a146111fc576104ac565b8063e8afa8e814611077578063eceec1d31461109d578063f24ccbfe146110ba578063f28699fa146110c2578063f2fde38b146110e1576104ac565b8063cf30901211610115578063cf30901214610f74578063d011027414610f7c578063d7f5549d14611020578063d86d53e71461103d578063e6692f491461105a576104ac565b8063bc8756a914610e92578063c45a015514610ec4578063c8b194a214610ecc578063cbf383d514610f4f578063cd6b838814610f6c576104ac565b80639342c8f4116101ea578063a440ab1e116101ae578063a440ab1e14610d8f578063a476907114610dac578063a69df4b514610db4578063a7ab696114610dbc578063b1d23f0214610dc4578063bbcfbbb014610de7576104ac565b80639342c8f414610d22578063987ab9db14610d3f5780639a8a624314610d475780639b33f43414610d4f5780639ff1150014610d6c576104ac565b8063817b1cd211610231578063817b1cd214610ce55780638da5cb5b14610ced5780638f32d59b14610cf5578063900cf0cf14610cfd5780639146014914610d05576104ac565b806377939d1014610c9f57806378f84a4414610ca75780637b10399914610ccd5780637d66975214610cd55780637f952d9514610cdd576104ac565b806341b3d185116103945780635aa6e6751161031157806368cb812a116102d557806368cb812a14610b9d5780636901b25314610c4d5780637033e4a614610c7f5780637060054d14610c87578063715018a614610c8f5780637667180814610c97576104ac565b80635aa6e67514610a725780635c24885514610a7a5780635e47655f14610ab05780636352211e14610b545780636365679814610b71576104ac565b80634fee13fc116103585780634fee13fc146109de5780635325e14414610a0157806354b8c60114610a455780635508d8e114610a4d57806356342d8c14610a55576104ac565b806341b3d185146108d95780634b341aed146108e15780634e3c83f1146109075780634fd101d71461090f5780634fdd20f114610917576104ac565b8063174e68321161042d5780632e17de78116103f15780632e17de78146107b757806331c2273b146107d457806334274586146107f857806335aa2e44146108005780633862da0b146108965780633d02455b146108bc576104ac565b8063174e68321461072557806317c2b9101461074b57806325316411146107535780632649263a1461075b57806328cc4e411461078c576104ac565b80630e15561a116104745780630e15561a1461068a5780630ebb172a14610692578063118bdec91461069a578063144fa6d7146106e257806316827b1b14610708576104ac565b80630209fdd0146104b1578063028c4c6714610509578063066647a01461058e57806306cfb104146106655780630cccfc5814610682575b600080fd5b6104b9611204565b60408051602080825283518183015283519192839290830191858101910280838360005b838110156104f55781810151838201526020016104dd565b505050509050019250505060405180910390f35b61058c6004803603608081101561051f57600080fd5b813591602081013591604082013515159190810190608081016060820135600160201b81111561054e57600080fd5b82018360208201111561056057600080fd5b803590602001918460018302840111600160201b8311171561058157600080fd5b50909250905061137a565b005b610653600480360360a08110156105a457600080fd5b8135916020810135916040820135916001600160a01b036060820135169181019060a081016080820135600160201b8111156105df57600080fd5b8201836020820111156105f157600080fd5b803590602001918460018302840111600160201b8311171561061257600080fd5b91908080601f0160208091040260200160405190810160405280939291908181526020018383808284376000920191909152509295506113c4945050505050565b60408051918252519081900360200190f35b61058c6004803603602081101561067b57600080fd5b503561153d565b610653611553565b610653611559565b61065361155f565b61058c600480360360a08110156106b057600080fd5b506001600160a01b03813581169160208101358216916040820135811691606081013582169160809091013516611565565b61058c600480360360208110156106f857600080fd5b50356001600160a01b03166115d5565b61058c6004803603602081101561071e57600080fd5b503561161b565b6106536004803603602081101561073b57600080fd5b50356001600160a01b03166116b0565b61065361173a565b610653611740565b6107786004803603602081101561077157600080fd5b5035611746565b604080519115158252519081900360200190f35b61058c600480360360608110156107a257600080fd5b50803590602081013590604001351515611800565b61058c600480360360208110156107cd57600080fd5b5035611c81565b6107dc611e04565b604080516001600160a01b039092168252519081900360200190f35b610653611e13565b61081d6004803603602081101561081657600080fd5b5035611e19565b60405180898152602001888152602001878152602001868152602001858152602001846001600160a01b03166001600160a01b03168152602001836001600160a01b03166001600160a01b0316815260200182600381111561087b57fe5b60ff1681526020019850505050505050505060405180910390f35b610653600480360360208110156108ac57600080fd5b50356001600160a01b0316611e6f565b61058c600480360360208110156108d257600080fd5b5035611e81565b610653612101565b610653600480360360208110156108f757600080fd5b50356001600160a01b0316612107565b61065361223e565b610653612244565b61058c600480360360a081101561092d57600080fd5b6001600160a01b0382351691602081013591604082013591606081013515159181019060a081016080820135600160201b81111561096a57600080fd5b82018360208201111561097c57600080fd5b803590602001918460018302840111600160201b8311171561099d57600080fd5b91908080601f01602080910402602001604051908101604052809392919081815260200183838082843760009201919091525092955061224a945050505050565b61058c600480360360408110156109f457600080fd5b508035906020013561249b565b610a1e60048036036020811015610a1757600080fd5b5035612901565b6040805193845260208401929092526001600160a01b031682820152519081900360600190f35b61077861292b565b610653612934565b6107dc60048036036020811015610a6b57600080fd5b503561293a565b6107dc612958565b610a9760048036036020811015610a9057600080fd5b5035612967565b6040805192835260208301919091528051918290030190f35b61065360048036036020811015610ac657600080fd5b810190602081018135600160201b811115610ae057600080fd5b820183602082011115610af257600080fd5b803590602001918460018302840111600160201b83111715610b1357600080fd5b91908080601f016020809104026020016040519081016040528093929190818152602001838380828437600092019190915250929550612980945050505050565b6107dc60048036036020811015610b6a57600080fd5b5035612c61565b61058c60048036036040811015610b8757600080fd5b506001600160a01b038135169060200135612cad565b61058c60048036036060811015610bb357600080fd5b813591602081013591810190606081016040820135600160201b811115610bd957600080fd5b820183602082011115610beb57600080fd5b803590602001918460018302840111600160201b83111715610c0c57600080fd5b91908080601f016020809104026020016040519081016040528093929190818152602001838380828437600092019190915250929550612e29945050505050565b61077860048036036060811015610c6357600080fd5b50803590602081013590604001356001600160a01b0316613078565b6107786131c8565b6106536131cd565b61058c6131d3565b61065361322e565b610653613234565b61065360048036036020811015610cbd57600080fd5b50356001600160a01b031661323a565b6107dc61324c565b61065361325b565b610653613261565b610653613279565b6107dc61327f565b61077861328e565b61065361329f565b61058c60048036036020811015610d1b57600080fd5b50356132a5565b61058c60048036036020811015610d3857600080fd5b50356132c5565b6107dc613523565b610653613532565b61058c60048036036020811015610d6557600080fd5b5035613538565b61058c60048036036040811015610d8257600080fd5b50803590602001356135fd565b61058c60048036036020811015610da557600080fd5b5035613681565b6106536136ec565b61058c613701565b610653613759565b61058c60048036036040811015610dda57600080fd5b508035906020013561375f565b610a9760048036036040811015610dfd57600080fd5b81359190810190604081016020820135600160201b811115610e1e57600080fd5b820183602082011115610e3057600080fd5b803590602001918460018302840111600160201b83111715610e5157600080fd5b91908080601f01602080910402602001604051908101604052809392919081815260200183838082843760009201919091525092955061377b945050505050565b61077860048036036060811015610ea857600080fd5b50803590602081013590604001356001600160a01b03166139b8565b6107dc613b12565b61058c60048036036080811015610ee257600080fd5b813591602081013591604082013515159190810190608081016060820135600160201b811115610f1157600080fd5b820183602082011115610f2357600080fd5b803590602001918460018302840111600160201b83111715610f4457600080fd5b509092509050613b21565b61058c60048036036020811015610f6557600080fd5b50356140f3565b610653614188565b61077861418e565b6107dc60048036036020811015610f9257600080fd5b810190602081018135600160201b811115610fac57600080fd5b820183602082011115610fbe57600080fd5b803590602001918460018302840111600160201b83111715610fdf57600080fd5b91908080601f01602080910402602001604051908101604052809392919081815260200183838082843760009201919091525092955061419e945050505050565b6106536004803603602081101561103657600080fd5b50356141f3565b61058c6004803603602081101561105357600080fd5b5035614204565b61058c6004803603602081101561107057600080fd5b503561451c565b61058c6004803603602081101561108d57600080fd5b50356001600160a01b03166145e1565b610653600480360360208110156110b357600080fd5b5035614661565b6107dc614673565b61058c600480360360208110156110d857600080fd5b50351515614682565b61058c600480360360208110156110f757600080fd5b50356001600160a01b03166146de565b61058c6004803603602081101561111d57600080fd5b50356146f8565b61058c6004803603604081101561113a57600080fd5b81359190810190604081016020820135600160201b81111561115b57600080fd5b82018360208201111561116d57600080fd5b803590602001918460018302840111600160201b8311171561118e57600080fd5b91908080601f016020809104026020016040519081016040528093929190818152602001838380828437600092019190915250929550614711945050505050565b61058c600480360360208110156111e557600080fd5b5035614a04565b61058c614a28565b610653614a86565b6107dc614a8c565b60608061120f613261565b604051908082528060200260200182016040528015611238578160200160208202803883390190505b509050600080805b600760009054906101000a90046001600160a01b03166001600160a01b03166318160ddd6040518163ffffffff1660e01b815260040160206040518083038186803b15801561128e57600080fd5b505afa1580156112a2573d6000803e3d6000fd5b505050506040513d60208110156112b857600080fd5b50518110156113715760075460408051634f6ccce760e01b81526004810184905290516001600160a01b0390921691634f6ccce791602480820192602092909190829003018186803b15801561130d57600080fd5b505afa158015611321573d6000803e3d6000fd5b505050506040513d602081101561133757600080fd5b5051925061134483611746565b15611369578284838060010194508151811061135c57fe5b6020026020010181815250505b600101611240565b50919250505090565b6113bd3386868686868080601f01602080910402602001604051908101604052809392919081815260200183838082843760009201919091525061224a92505050565b5050505050565b6003546000906001600160a01b031633146113de57600080fd5b6000611407600f546113fb600c548a614a9b90919063ffffffff16565b9063ffffffff614ac916565b9050611415600c5482614aeb565b9050600061143360646113fb60175485614a9b90919063ffffffff16565b6001600160a01b038087166000908152601c60209081526040808320548352601b909152902060068101549293509116156114dd5760068101548154604080516301a6632160e31b8152600481018690526024810192909252516001600160a01b0390921691630d3319089160448082019260009290919082900301818387803b1580156114c057600080fd5b505af11580156114d4573d6000803e3d6000fd5b505050506114f8565b60018101546114f2908363ffffffff614b0116565b60018201555b611508838363ffffffff614b1316565b925060006115146136ec565b60188990559050611523614b28565b61152f81858b89614b86565b9a9950505050505050505050565b61154561328e565b61154e57600080fd5b601055565b60165481565b60145481565b60095481565b61156d61328e565b61157657600080fd5b600580546001600160a01b03199081166001600160a01b03978816179091556003805482169587169590951790945560078054851693861693909317909255600680548416918516919091179055600880549092169216919091179055565b6115dd61328e565b6115e657600080fd5b6001600160a01b0381166115f957600080fd5b600480546001600160a01b0319166001600160a01b0392909216919091179055565b61162361328e565b61162c57600080fd5b6000811161163957600080fd5b60065460115460408051630f1980a560e41b8152600481018590526024810192909252516001600160a01b039092169163f1980a509160448082019260009290919082900301818387803b15801561169057600080fd5b505af11580156116a4573d6000803e3d6000fd5b50505060119190915550565b60075460408051632f745c5960e01b81526001600160a01b038481166004830152600060248301819052925192931691632f745c5991604480820192602092909190829003018186803b15801561170657600080fd5b505afa15801561171a573d6000803e3d6000fd5b505050506040513d602081101561173057600080fd5b505190505b919050565b60185481565b600f5481565b6000818152601b60205260408120541580159061179157506000828152601b6020526040902060020154158015906117915750600a546000838152601b602052604090206002015411155b80156117c857506000828152601b602052604090206003015415806117c85750600a546000838152601b6020526040902060030154115b80156117fa575060016000838152601b6020526040902060060154600160a01b900460ff1660038111156117f857fe5b145b92915050565b600254600160a01b900460ff161561184b576040805162461bcd60e51b8152602060048201526009602482015268125cc8131bd8dad95960ba1b604482015290519081900360640190fd5b600754604080516331a9108f60e11b8152600481018690529051859233926001600160a01b0390911691636352211e91602480820192602092909190829003018186803b15801561189b57600080fd5b505afa1580156118af573d6000803e3d6000fd5b505050506040513d60208110156118c557600080fd5b50516001600160a01b0316146118da57600080fd5b600a546000858152601b602052604090206003015410611937576040805162461bcd60e51b81526020600482015260136024820152724e6f20757365206f662072657374616b696e6760681b604482015290519081900360640190fd5b6000848152601f602052604090205415611998576040805162461bcd60e51b815260206004820152601b60248201527f5761697420666f722061756374696f6e20636f6d706c6574696f6e0000000000604482015290519081900360640190fd5b8215611a675760048054604080516323b872dd60e01b8152339381019390935230602484015260448301869052516001600160a01b03909116916323b872dd9160648083019260209291908290030181600087803b1580156119f957600080fd5b505af1158015611a0d573d6000803e3d6000fd5b505050506040513d6020811015611a2357600080fd5b5051611a67576040805162461bcd60e51b815260206004820152600e60248201526d5472616e73666572207374616b6560901b604482015290519081900360640190fd5b8115611b42576000848152601b6020526040902060010154611a9090849063ffffffff614b0116565b6000858152601b60205260409020600601549093506001600160a01b03168015611b2e57611b2b816001600160a01b03166332ba2e536040518163ffffffff1660e01b8152600401602060405180830381600087803b158015611af257600080fd5b505af1158015611b06573d6000803e3d6000fd5b505050506040513d6020811015611b1c57600080fd5b5051859063ffffffff614b0116565b93505b506000848152601b60205260408120600101555b601254611b55908463ffffffff614b0116565b6012556000848152601b6020526040902054611b77908463ffffffff614b0116565b6000858152601b6020908152604080832093909355600a548252601d9052818120805486019055600654825163532e19a960e01b81526004810188905292516001600160a01b039091169263532e19a992602480830193919282900301818387803b158015611be557600080fd5b505af1158015611bf9573d6000803e3d6000fd5b50506006546000878152601b602052604080822054601254825163242c1b9960e01b8152600481018c90526024810192909252604482015290516001600160a01b03909316945063242c1b9993506064808201939182900301818387803b158015611c6357600080fd5b505af1158015611c77573d6000803e3d6000fd5b5050505050505050565b600754604080516331a9108f60e11b8152600481018490529051839233926001600160a01b0390911691636352211e91602480820192602092909190829003018186803b158015611cd157600080fd5b505afa158015611ce5573d6000803e3d6000fd5b505050506040513d6020811015611cfb57600080fd5b50516001600160a01b031614611d1057600080fd5b6000828152601f602052604090205415611d71576040805162461bcd60e51b815260206004820152601b60248201527f5761697420666f722061756374696f6e20636f6d706c6574696f6e0000000000604482015290519081900360640190fd5b600a54600090611d8890600163ffffffff614b0116565b6000848152601b602052604090206002015490915015801590611dba57506000838152601b6020526040902060030154155b8015611dec575060016000848152601b6020526040902060060154600160a01b900460ff166003811115611dea57fe5b145b611df557600080fd5b611dff8382614ebb565b505050565b6007546001600160a01b031681565b60175481565b601b602052600090815260409020805460018201546002830154600384015460048501546005860154600690960154949593949293919290916001600160a01b039081169190811690600160a01b900460ff1688565b601c6020526000908152604090205481565b600754604080516331a9108f60e11b8152600481018490529051839233926001600160a01b0390911691636352211e91602480820192602092909190829003018186803b158015611ed157600080fd5b505afa158015611ee5573d6000803e3d6000fd5b505050506040513d6020811015611efb57600080fd5b50516001600160a01b031614611f1057600080fd5b60026000838152601b6020526040902060060154600160a01b900460ff166003811115611f3957fe5b14611f4357600080fd5b600a546000838152601b60205260409020600401541115611fa4576040805162461bcd60e51b8152602060048201526016602482015275125b98dbdb5c1b195d19481a985a5b081c195c9a5bd960521b604482015290519081900360640190fd5b6000828152601b6020526040902054600d54811015611fc257600080fd5b6000838152601b60205260408120600601546001600160a01b031615612066576000848152601b602090815260408083206006015481516322f0f2f960e01b815291516001600160a01b03909116936322f0f2f993600480850194919392918390030190829087803b15801561203757600080fd5b505af115801561204b573d6000803e3d6000fd5b505050506040513d602081101561206157600080fd5b505190505b600a546120849061207d848463ffffffff614b0116565b6001615139565b6000848152601b6020526040808220600381018390556006808201805460ff60a01b1916600160a01b17905554600590910154825163c3917e9960e01b8152600481018990526001600160a01b039182166024820152925191169263c3917e99926044808201939182900301818387803b158015611c6357600080fd5b600d5481565b60006001600160a01b03821615806121955750600754604080516370a0823160e01b81526001600160a01b038581166004830152915191909216916370a08231916024808301926020929190829003018186803b15801561216757600080fd5b505afa15801561217b573d6000803e3d6000fd5b505050506040513d602081101561219157600080fd5b5051155b156121a257506000611735565b60075460408051632f745c5960e01b81526001600160a01b0385811660048301526000602483018190529251601b949190911691632f745c59916044808301926020929190829003018186803b1580156121fb57600080fd5b505afa15801561220f573d6000803e3d6000fd5b505050506040513d602081101561222557600080fd5b5051815260208101919091526040016000205492915050565b60105481565b60115481565b600254600160a01b900460ff1615612295576040805162461bcd60e51b8152602060048201526009602482015268125cc8131bd8dad95960ba1b604482015290519081900360640190fd5b6011546122a0613261565b106122dc5760405162461bcd60e51b8152600401808060200182810382526021815260200180615c1f6021913960400191505060405180910390fd5b600d548411612332576040805162461bcd60e51b815260206004820152601960248201527f6d696e206465706f736974206c696d6974206661696c65642100000000000000604482015290519081900360640190fd5b600e54831015612385576040805162461bcd60e51b81526020600482015260196024820152784d696e696d756d20616d6f756e742069732031204d6174696360381b604482015290519081900360640190fd5b6004546001600160a01b03166323b872dd33306123a8888863ffffffff614b0116565b6040518463ffffffff1660e01b815260040180846001600160a01b03166001600160a01b03168152602001836001600160a01b03166001600160a01b031681526020018281526020019350505050602060405180830381600087803b15801561241057600080fd5b505af1158015612424573d6000803e3d6000fd5b505050506040513d602081101561243a57600080fd5b5051612485576040805162461bcd60e51b8152602060048201526015602482015274151c985b9cd9995c881cdd185ad94819985a5b1959605a1b604482015290519081900360640190fd5b6124918585848461515b565b6113bd858461556b565b600254600160a01b900460ff16156124e6576040805162461bcd60e51b8152602060048201526009602482015268125cc8131bd8dad95960ba1b604482015290519081900360640190fd5b6124ef82611746565b6124f857600080fd5b601954158061250b5750600a5460195411155b61254e576040805162461bcd60e51b815260206004820152600f60248201526e10dbdbdb191bdddb881c195c9a5bd9608a1b604482015290519081900360640190fd5b601654600b54612564908263ffffffff614b0116565b6000848152601b6020526040902060020154600a546125889163ffffffff614b1316565b8161258f57fe5b0611156125dc576040805162461bcd60e51b8152602060048201526016602482015275125b9d985b1a5908185d58dd1a5bdb881c195c9a5bd960521b604482015290519081900360640190fd5b6000828152601b6020526040902080546006909101546001600160a01b0316801561267957612676816001600160a01b0316633a09bf446040518163ffffffff1660e01b815260040160206040518083038186803b15801561263d57600080fd5b505afa158015612651573d6000803e3d6000fd5b505050506040513d602081101561266757600080fd5b5051839063ffffffff614b0116565b91505b6000848152601f60205260409020546126939083906155f2565b91508282106126e2576040805162461bcd60e51b8152602060048201526016602482015275135d5cdd08189a59081a1a59da195c88185b5bdd5b9d60521b604482015290519081900360640190fd5b60048054604080516323b872dd60e01b8152339381019390935230602484015260448301869052516001600160a01b03909116916323b872dd9160648083019260209291908290030181600087803b15801561273d57600080fd5b505af1158015612751573d6000803e3d6000fd5b505050506040513d602081101561276757600080fd5b50516127b3576040805162461bcd60e51b8152602060048201526016602482015275151c985b9cd9995c88185b5bdd5b9d0819985a5b195960521b604482015290519081900360640190fd5b6000848152601f6020526040902080541561285b5760048054600283015483546040805163a9059cbb60e01b81526001600160a01b039384169581019590955260248501919091525191169163a9059cbb9160448083019260209291908290030181600087803b15801561282657600080fd5b505af115801561283a573d6000803e3d6000fd5b505050506040513d602081101561285057600080fd5b505161285b57600080fd5b8381556002810180546001600160a01b031916331790556006546000868152601b6020908152604080832054601f909252808320548151630934a6df60e01b8152600481018b905260248101939093526044830152516001600160a01b039390931692630934a6df9260648084019391929182900301818387803b1580156128e257600080fd5b505af11580156128f6573d6000803e3d6000fd5b505050505050505050565b601f602052600090815260409020805460018201546002909201549091906001600160a01b031683565b601a5460ff1681565b60135481565b6000908152601b60205260409020600601546001600160a01b031690565b6002546001600160a01b031681565b601d602052600090815260409020805460019091015482565b6000336001600160a01b0316600560009054906101000a90046001600160a01b03166001600160a01b031663d580b4186040518163ffffffff1660e01b815260040160206040518083038186803b1580156129da57600080fd5b505afa1580156129ee573d6000803e3d6000fd5b505050506040513d6020811015612a0457600080fd5b50516001600160a01b031614612a61576040805162461bcd60e51b815260206004820181905260248201527f53656e646572206d75737420626520736c617368696e67206d616e6167657221604482015290519081900360640190fd5b6060612a74612a6f84615602565b615627565b905060008080805b8451811015612c34576060612aa3868381518110612a9657fe5b6020026020010151615627565b90506000612ac482600081518110612ab757fe5b60200260200101516156f8565b90506000612ad883600181518110612ab757fe5b9050612aea858263ffffffff614b0116565b6000838152601b60205260409020600601549095506001600160a01b031615612bb2576000828152601b602090815260408083206006810154905482516314454c8560e31b815260048101919091526024810186905291516001600160a01b039091169263a22a6428926044808201939182900301818787803b158015612b7057600080fd5b505af1158015612b84573d6000803e3d6000fd5b505050506040513d6020811015612b9a57600080fd5b50519050612bae828263ffffffff614b1316565b9150505b6000828152601b6020526040902054612bd1908263ffffffff614b1316565b6000838152601b60205260409020558251612c009084906002908110612bf357fe5b6020026020010151615758565b15612c2957612c20612c1383600161578c565b879063ffffffff614b0116565b60019097019695505b505050600101612a7c565b50600a54612c5890612c4c838563ffffffff614b0116565b60000385600003615139565b95945050505050565b600754604080516331a9108f60e11b81526004810184905290516000926001600160a01b031691636352211e916024808301926020929190829003018186803b15801561170657600080fd5b600254600160a01b900460ff1615612cf8576040805162461bcd60e51b8152602060048201526009602482015268125cc8131bd8dad95960ba1b604482015290519081900360640190fd5b600e54811015612d4b576040805162461bcd60e51b81526020600482015260196024820152784d696e696d756d20616d6f756e742069732031204d6174696360381b604482015290519081900360640190fd5b60048054604080516323b872dd60e01b8152339381019390935230602484015260448301849052516001600160a01b03909116916323b872dd9160648083019260209291908290030181600087803b158015612da657600080fd5b505af1158015612dba573d6000803e3d6000fd5b505050506040513d6020811015612dd057600080fd5b5051612e1b576040805162461bcd60e51b8152602060048201526015602482015274151c985b9cd9995c881cdd185ad94819985a5b1959605a1b604482015290519081900360640190fd5b612e25828261556b565b5050565b604080513360208083018290528284018790528351808403850181526060840194859052805190820120601854631b23d15760e21b909552606484018181526084850188905260a48501869052608060c48601908152875160e48701528751949673__Merkle________________________________96636c8f455c9694958b9592948b9490939092610104019185019080838360005b83811015612ed8578181015183820152602001612ec0565b50505050905090810190601f168015612f055780820380516001836020036101000a031916815260200191505b509550505050505060206040518083038186803b158015612f2557600080fd5b505af4158015612f39573d6000803e3d6000fd5b505050506040513d6020811015612f4f57600080fd5b5051612f94576040805162461bcd60e51b815260206004820152600f60248201526e2bb937b7339030b1b190383937b7b360891b604482015290519081900360640190fd5b6001600160a01b0381166000908152601e6020526040812054612fbe90869063ffffffff614b1316565b600480546040805163a9059cbb60e01b81526001600160a01b038781169482019490945260248101859052905193945091169163a9059cbb916044808201926020929091908290030181600087803b15801561301957600080fd5b505af115801561302d573d6000803e3d6000fd5b505050506040513d602081101561304357600080fd5b505161304e57600080fd5b613058828261591a565b506001600160a01b03166000908152601e60205260409020929092555050565b601a5460009060ff166130cb576040805162461bcd60e51b815260206004820152601660248201527511195b1959d85d1a5bdb881a5cc8191a5cd8589b195960521b604482015290519081900360640190fd5b6000848152601b60205260409020600601546001600160a01b03163314613134576040805162461bcd60e51b8152602060048201526018602482015277496e76616c696420636f6e7472616374206164647265737360401b604482015290519081900360640190fd5b60048054604080516323b872dd60e01b81526001600160a01b038681169482019490945230602482015260448101879052905192909116916323b872dd916064808201926020929091908290030181600087803b15801561319457600080fd5b505af11580156131a8573d6000803e3d6000fd5b505050506040513d60208110156131be57600080fd5b5051949350505050565b600090565b600b5481565b6131db61328e565b6131e457600080fd5b600080546040516001600160a01b03909116907f8be0079c531659141344cd1fd0a4f28419497f9722a3daafe3b4186f6b6457e0908390a3600080546001600160a01b0319169055565b600a5481565b60195481565b601e6020526000908152604090205481565b6005546001600160a01b031681565b600c5481565b600a546000908152601d602052604090206001015490565b60125481565b6000546001600160a01b031690565b6000546001600160a01b0316331490565b600a5490565b6132ad61328e565b6132b657600080fd5b6132c281600a54614ebb565b50565b600754604080516331a9108f60e11b8152600481018490529051839233926001600160a01b0390911691636352211e91602480820192602092909190829003018186803b15801561331557600080fd5b505afa158015613329573d6000803e3d6000fd5b505050506040513d602081101561333f57600080fd5b50516001600160a01b03161461335457600080fd5b6000828152601b6020526040902060018101546006909101546001600160a01b031680156133d1576133ce816001600160a01b03166332ba2e536040518163ffffffff1660e01b8152600401602060405180830381600087803b1580156133ba57600080fd5b505af1158015612651573d6000803e3d6000fd5b91505b6015546133e4908363ffffffff614b0116565b6015556000848152601b6020908152604080832060010183905560048054825163a9059cbb60e01b815233928101929092526024820187905291516001600160a01b039092169363a9059cbb9360448084019491939192918390030190829087803b15801561345257600080fd5b505af1158015613466573d6000803e3d6000fd5b505050506040513d602081101561347c57600080fd5b50516134c5576040805162461bcd60e51b8152602060048201526013602482015272496e737566666963656e74207265776172647360681b604482015290519081900360640190fd5b60065460155460408051635b42d93560e11b815260048101889052602481018690526044810192909252516001600160a01b039092169163b685b26a9160648082019260009290919082900301818387803b158015611c6357600080fd5b6003546001600160a01b031681565b60215481565b61354061328e565b61354957600080fd5b6006546017546040805163a3b1d8cb60e01b8152600481018590526024810192909252516001600160a01b039092169163a3b1d8cb9160448082019260009290919082900301818387803b1580156135a057600080fd5b505af11580156135b4573d6000803e3d6000fd5b5050505060648111156135f85760405162461bcd60e51b8152600401808060200182810382526032815260200180615c406032913960400191505060405180910390fd5b601755565b6000828152601b60205260409020600601546001600160a01b03163314613666576040805162461bcd60e51b8152602060048201526018602482015277496e76616c696420636f6e7472616374206164647265737360401b604482015290519081900360640190fd5b600a546000908152601d602052604090208054909101905550565b61368961328e565b61369257600080fd5b600081116136e7576040805162461bcd60e51b815260206004820181905260248201527f426c6f636b7320696e74657276616c206d757374206265206e6f6e2d7a65726f604482015290519081900360640190fd5b600f55565b600a546000908152601d602052604090205490565b6002546001600160a01b0316331461374a5760405162461bcd60e51b8152600401808060200182810382526026815260200180615ca26026913960400191505060405180910390fd5b6002805460ff60a01b19169055565b60095490565b61376761328e565b61377057600080fd5b600d91909155600e55565b6000808080805b85518167ffffffffffffffff16101561397a5760606137ad878367ffffffffffffffff166041615985565b60408051631df4cba560e21b8152600481018b81526024820192835283516044830152835193945060009373__ECVerify______________________________936377d32e94938e9388939092916064019060208501908083838c5b83811015613821578181015183820152602001613809565b50505050905090810190601f16801561384e5780820380516001836020036101000a031916815260200191505b50935050505060206040518083038186803b15801561386c57600080fd5b505af4158015613880573d6000803e3d6000fd5b505050506040513d602081101561389657600080fd5b50516001600160a01b038082166000818152601c602052604090205492935090861614156138c65750505061397a565b6138cf81611746565b80156138ec5750846001600160a01b0316826001600160a01b0316115b1561396f576000818152601b60205260409020805460069091015492955085926001600160a01b0316801561395a57613957816001600160a01b0316633a09bf446040518163ffffffff1660e01b815260040160206040518083038186803b15801561263d57600080fd5b91505b61396a888363ffffffff614b0116565b975050505b505050604101613782565b50816139ab600161399f60036113fb60026139936136ec565b9063ffffffff614a9b16565b9063ffffffff614b0116565b9350935050509250929050565b6000336001600160a01b0316600560009054906101000a90046001600160a01b03166001600160a01b031663d580b4186040518163ffffffff1660e01b815260040160206040518083038186803b158015613a1257600080fd5b505afa158015613a26573d6000803e3d6000fd5b505050506040513d6020811015613a3c57600080fd5b50516001600160a01b03161480613a6c57506000848152601b60205260409020600601546001600160a01b031633145b613ab8576040805162461bcd60e51b8152602060048201526018602482015277496e76616c696420636f6e7472616374206164647265737360401b604482015290519081900360640190fd5b600480546040805163a9059cbb60e01b81526001600160a01b0386811694820194909452602481018790529051929091169163a9059cbb916044808201926020929091908290030181600087803b15801561319457600080fd5b6008546001600160a01b031681565b600254600160a01b900460ff1615613b6c576040805162461bcd60e51b8152602060048201526009602482015268125cc8131bd8dad95960ba1b604482015290519081900360640190fd5b6000858152601f60209081526040808320601b90925290912060028201546001600160a01b03163314613be6576040805162461bcd60e51b815260206004820152601760248201527f4f6e6c79206269646465722063616e20636f6e6669726d000000000000000000604482015290519081900360640190fd5b601654600b54613bfd90829063ffffffff614b0116565b6001840154600a54613c149163ffffffff614b1316565b81613c1b57fe5b061015613c595760405162461bcd60e51b8152600401808060200182810382526030815260200180615c726030913960400191505060405180910390fd5b600754604080516331a9108f60e11b8152600481018a905290516001600160a01b0390921691636352211e91602480820192602092909190829003018186803b158015613ca557600080fd5b505afa158015613cb9573d6000803e3d6000fd5b505050506040513d6020811015613ccf57600080fd5b505160028301546001600160a01b0390811691161415613ea55780546004805460028501546040805163a9059cbb60e01b81526001600160a01b0392831694810194909452602484018590525191169163a9059cbb9160448083019260209291908290030181600087803b158015613d4657600080fd5b505af1158015613d5a573d6000803e3d6000fd5b505050506040513d6020811015613d7057600080fd5b5051613d7b57600080fd5b82548255600083556002830180546001600160a01b0319169055600a5460018401558154613dc290613db3908363ffffffff614b1316565b6012549063ffffffff614b0116565b6012556006546040805163532e19a960e01b8152600481018b905290516001600160a01b039092169163532e19a99160248082019260009290919082900301818387803b158015613e1257600080fd5b505af1158015613e26573d6000803e3d6000fd5b505060065484546040805163e12ab1af60e01b8152600481018e9052602481018e90526044810192909252516001600160a01b03909216935063e12ab1af925060648082019260009290919082900301818387803b158015613e8757600080fd5b505af1158015613e9b573d6000803e3d6000fd5b50505050506140ea565b613eb187600a54614ebb565b60048054604080516323b872dd60e01b8152339381019390935230602484015260448301899052516001600160a01b03909116916323b872dd9160648083019260209291908290030181600087803b158015613f0c57600080fd5b505af1158015613f20573d6000803e3d6000fd5b505050506040513d6020811015613f3657600080fd5b5051613f7f576040805162461bcd60e51b8152602060048201526013602482015272151c985b9cd9995c881999594819985a5b1959606a1b604482015290519081900360640190fd5b60028201548254604080516020601f8801819004810282018101909252868152613fd1936001600160a01b03169291899190899089908190840183828082843760009201919091525061515b92505050565b600e54861015614024576040805162461bcd60e51b81526020600482015260196024820152784d696e696d756d20616d6f756e742069732031204d6174696360381b604482015290519081900360640190fd5b600282015461403c906001600160a01b03168761556b565b6006546013546001600160a01b039091169063e12ab1af9061406590600163ffffffff614b1316565b8985600001546040518463ffffffff1660e01b8152600401808481526020018381526020018281526020019350505050600060405180830381600087803b1580156140af57600080fd5b505af11580156140c3573d6000803e3d6000fd5b5050506000888152601f6020526040812090815560020180546001600160a01b0319169055505b50505050505050565b6140fb61328e565b61410457600080fd5b6000811161411157600080fd5b600654600c5460408051632dbe9d3160e21b8152600481018590526024810192909252516001600160a01b039092169163b6fa74c49160448082019260009290919082900301818387803b15801561416857600080fd5b505af115801561417c573d6000803e3d6000fd5b505050600c9190915550565b60155481565b600254600160a01b900460ff1681565b600081516040146141e7576040805162461bcd60e51b815260206004820152600e60248201526d496e76616c6964207075626b657960901b604482015290519081900360640190fd5b50805160209091012090565b602080526000908152604090205481565b600754604080516331a9108f60e11b8152600481018490529051839233926001600160a01b0390911691636352211e91602480820192602092909190829003018186803b15801561425457600080fd5b505afa158015614268573d6000803e3d6000fd5b505050506040513d602081101561427e57600080fd5b50516001600160a01b03161461429357600080fd5b6000828152601b6020526040902060030154158015906142d85750600a546009546000848152601b60205260409020600301546142d59163ffffffff614b0116565b11155b801561430b575060036000838152601b6020526040902060060154600160a01b900460ff16600381111561430857fe5b14155b61431457600080fd5b6000828152601b6020526040902054601254614336908263ffffffff614b1316565b60125560075460408051630852cd8d60e31b81526004810186905290516001600160a01b03909216916342966c689160248082019260009290919082900301818387803b15801561438657600080fd5b505af115801561439a573d6000803e3d6000fd5b5050506000848152601b6020818152604080842060058101546001600160a01b039081168652601c84528286206000199055898652938352600601805460ff60a01b1916600360a01b17905560048054825163a9059cbb60e01b8152339281019290925260248201889052915191909316945063a9059cbb936044808501948390030190829087803b15801561442f57600080fd5b505af1158015614443573d6000803e3d6000fd5b505050506040513d602081101561445957600080fd5b50516144a4576040805162461bcd60e51b8152602060048201526015602482015274151c985b9cd9995c881cdd185ad94819985a5b1959605a1b604482015290519081900360640190fd5b6006546012546040805163ae2e26b160e01b815233600482015260248101879052604481018590526064810192909252516001600160a01b039092169163ae2e26b19160848082019260009290919082900301818387803b15801561450857600080fd5b505af11580156140ea573d6000803e3d6000fd5b61452461328e565b61452d57600080fd5b6000811161453a57600080fd5b600654600b5460408051635071805360e11b8152600481018590526024810192909252516001600160a01b039092169163a0e300a69160448082019260009290919082900301818387803b15801561459157600080fd5b505af11580156145a5573d6000803e3d6000fd5b505050600b8290555060098190556145c481600463ffffffff614ac916565b6016819055600a546145db9163ffffffff614b0116565b60195550565b6145e961328e565b6145f257600080fd5b6001600160a01b03811661460557600080fd5b6003546040516001600160a01b038084169216907f211c9015fc81c0dbd45bd99f0f29fc1c143bfd53442d5ffd722bbbef7a887fe990600090a3600380546001600160a01b0319166001600160a01b0392909216919091179055565b6000908152601b602052604090205490565b6006546001600160a01b031681565b6002546001600160a01b031633146146cb5760405162461bcd60e51b8152600401808060200182810382526026815260200180615ca26026913960400191505060405180910390fd5b601a805460ff1916911515919091179055565b6146e661328e565b6146ef57600080fd5b6132c281615a04565b600a5461470b908263ffffffff614b0116565b600a5550565b600754604080516331a9108f60e11b8152600481018590529051849233926001600160a01b0390911691636352211e91602480820192602092909190829003018186803b15801561476157600080fd5b505afa158015614775573d6000803e3d6000fd5b505050506040513d602081101561478b57600080fd5b50516001600160a01b0316146147a057600080fd5b60006147ab8361419e565b90506001600160a01b038116158015906147db57506001600160a01b0381166000908152601c6020526040902054155b61481e576040805162461bcd60e51b815260206004820152600f60248201526e496e76616c6964205369676e65722160881b604482015290519081900360640190fd5b601054600085815260208052604090205461483e9163ffffffff614b0116565b61484661329f565b1015614899576040805162461bcd60e51b815260206004820152601a60248201527f496e76616c696420636865636b706f696e74206e756d62657221000000000000604482015290519081900360640190fd5b6006546000858152601b6020908152604080832060050154905163b80fbce560e01b8152600481018981526001600160a01b039283166024830181905287841660448401526080606484019081528a5160848501528a51949097169663b80fbce5968c9692958a958d959460a49091019290860191908190849084905b8381101561492e578181015183820152602001614916565b50505050905090810190601f16801561495b5780820380516001836020036101000a031916815260200191505b5095505050505050600060405180830381600087803b15801561497d57600080fd5b505af1158015614991573d6000803e3d6000fd5b5050506000858152601b6020818152604080842060050180546001600160a01b039081168652601c8452828620600019905587168086529185208a90559389905291905281546001600160a01b031916179055506149ed61329f565b600094855260208052604090942093909355505050565b614a0c61328e565b614a1557600080fd5b600a546145db908263ffffffff614b0116565b6002546001600160a01b03163314614a715760405162461bcd60e51b8152600401808060200182810382526026815260200180615ca26026913960400191505060405180910390fd5b6002805460ff60a01b1916600160a01b179055565b600e5481565b6004546001600160a01b031681565b600082614aaa575060006117fa565b82820282848281614ab757fe5b0414614ac257600080fd5b9392505050565b6000808211614ad757600080fd5b6000828481614ae257fe5b04949350505050565b6000818310614afa5781614ac2565b5090919050565b600082820183811015614ac257600080fd5b600082821115614b2257600080fd5b50900390565b600a54600090614b3f90600163ffffffff614b0116565b6000818152601d60205260408082208054600a8054855283852054909101825560019182018054825486528486208401540190558054845291832083815501919091555550565b60008080805b84518167ffffffffffffffff161015614e14576060614bb7868367ffffffffffffffff166041615985565b60408051631df4cba560e21b8152600481018a81526024820192835283516044830152835193945060009373__ECVerify______________________________936377d32e94938d9388939092916064019060208501908083838c5b83811015614c2b578181015183820152602001614c13565b50505050905090810190601f168015614c585780820380516001836020036101000a031916815260200191505b50935050505060206040518083038186803b158015614c7657600080fd5b505af4158015614c8a573d6000803e3d6000fd5b505050506040513d6020811015614ca057600080fd5b50516001600160a01b038082166000818152601c60205260409020549293509086161415614cd057505050614e14565b614cd981611746565b8015614cf65750846001600160a01b0316826001600160a01b0316115b15614e09576000818152601b60205260408120600681015493965086939091906001600160a01b031615614dbc578160060160009054906101000a90046001600160a01b03166001600160a01b03166397e508188d8f6040518363ffffffff1660e01b81526004018083815260200182815260200192505050602060405180830381600087803b158015614d8957600080fd5b505af1158015614d9d573d6000803e3d6000fd5b505050506040513d6020811015614db357600080fd5b50519050614df4565b81600001549050614dee614ddd8e6113fb8f85614a9b90919063ffffffff16565b60018401549063ffffffff614b0116565b60018301555b614e04888263ffffffff614b0116565b975050505b505050604101614b8c565b50614e33614e206136ec565b600c546113fb908563ffffffff614a9b16565b601454909650614e49908763ffffffff614b0116565b601455614e63600161399f60036113fb60026139936136ec565b821015614eb0576040805162461bcd60e51b81526020600482015260166024820152753737ba1032b737bab3b41039ba30b5b2903837bbb2b960511b604482015290519081900360640190fd5b509395945050505050565b6000828152601b602052604081205490614ed484612c61565b6000858152601b6020526040812060038101869055600181015460069091015492935090916001600160a01b031615614fcd576000868152601b602090815260408083206006015481516332ba2e5360e01b815291516001600160a01b0390911693614f609385936332ba2e539360048083019491928390030190829087803b1580156133ba57600080fd5b9150806001600160a01b031663753868e36040518163ffffffff1660e01b8152600401602060405180830381600087803b158015614f9d57600080fd5b505af1158015614fb1573d6000803e3d6000fd5b505050506040513d6020811015614fc757600080fd5b50519250505b600480546040805163a9059cbb60e01b81526001600160a01b0387811694820194909452602481018590529051929091169163a9059cbb916044808201926020929091908290030181600087803b15801561502757600080fd5b505af115801561503b573d6000803e3d6000fd5b505050506040513d602081101561505157600080fd5b50516150a4576040805162461bcd60e51b815260206004820152601760248201527f52657761726473207472616e73666572206661696c6564000000000000000000604482015290519081900360640190fd5b6150b685838601600003600019615139565b60065460408051635e04d48360e01b81526001600160a01b038681166004830152602482018a9052604482018990526064820188905291519190921691635e04d48391608480830192600092919082900301818387803b15801561511957600080fd5b505af115801561512d573d6000803e3d6000fd5b50505050505050505050565b6000928352601d60205260409092208054909101815560010180549091019055565b60006151668261419e565b6001600160a01b0381166000908152601c6020526040902054909150156151c9576040805162461bcd60e51b8152602060048201526012602482015271496e76616c6964205369676e6572206b657960701b604482015290519081900360640190fd5b6012546151dc908563ffffffff614b0116565b60128190555060405180610100016040528085815260200160008152602001600a5481526020016000815260200160008152602001826001600160a01b031681526020018461522c5760006152b4565b6008546013546006546040805163780ff34960e11b815260048101939093526001600160a01b0391821660248401525192169163f01fe692916044808201926020929091908290030181600087803b15801561528757600080fd5b505af115801561529b573d6000803e3d6000fd5b505050506040513d60208110156152b157600080fd5b50515b6001600160a01b03168152602001600190526013546000908152601b60209081526040918290208351815590830151600182015590820151600282015560608201516003808301919091556080830151600483015560a08301516005830180546001600160a01b039283166001600160a01b03199182161790915560c08501516006850180549190931691161780825560e08501519260ff60a01b1990911690600160a01b90849081111561536557fe5b021790555050600a5460138054600090815260208052604080822093909355600754915483516340c10f1960e01b81526001600160a01b038b8116600483015260248201929092529351921693506340c10f19926044808201939182900301818387803b1580156153d557600080fd5b505af11580156153e9573d6000803e3d6000fd5b50506013546001600160a01b0384166000908152601c60205260409020555050600a5461541890856001615139565b600a54601f6000601354815260200190815260200160002060010181905550600660009054906101000a90046001600160a01b03166001600160a01b03166333a8383c8284601354600a54896012546040518763ffffffff1660e01b815260040180876001600160a01b03166001600160a01b0316815260200180602001868152602001858152602001848152602001838152602001828103825287818151815260200191508051906020019080838360005b838110156154e35781810151838201526020016154cb565b50505050905090810190601f1680156155105780820380516001836020036101000a031916815260200191505b50975050505050505050600060405180830381600087803b15801561553457600080fd5b505af1158015615548573d6000803e3d6000fd5b505060135461556192509050600163ffffffff614b0116565b6013555050505050565b60215461557e908263ffffffff614b0116565b6021556006546040805163a449d79560e01b81526001600160a01b038581166004830152602482018590529151919092169163a449d79591604480830192600092919082900301818387803b1580156155d657600080fd5b505af11580156155ea573d6000803e3d6000fd5b505050505050565b600081831015614afa5781614ac2565b61560a615c04565b506040805180820190915281518152602082810190820152919050565b606061563282615a72565b61563b57600080fd5b600061564683615aac565b905060608160405190808252806020026020018201604052801561568457816020015b615671615c04565b8152602001906001900390816156695790505b50905060006156968560200151615b08565b60208601510190506000805b848110156156ed576156b383615b6b565b91506040518060400160405280838152602001848152508482815181106156d657fe5b6020908102919091010152918101916001016156a2565b509195945050505050565b80516000901580159061570d57508151602110155b61571657600080fd5b60006157258360200151615b08565b8351602080860151830180519394509184900392919083101561574f57826020036101000a820491505b50949350505050565b805160009060011461576957600080fd5b6020820151805160001a908115615781576001615784565b60005b949350505050565b6000828152601b602052604081206006015481906001600160a01b031615615832576000848152601b6020908152604080832060060154815163753868e360e01b815291516001600160a01b039091169363753868e393600480850194919392918390030190829087803b15801561580357600080fd5b505af1158015615817573d6000803e3d6000fd5b505050506040513d602081101561582d57600080fd5b505190505b600a546000858152601b60205260409020600301819055615859908463ffffffff614b0116565b6000858152601b60205260408082206004808201949094556006808201805460ff60a01b1916600160a11b17905554600a5460059092015483516381dc101b60e01b81529586018a905260248601929092526001600160a01b03918216604486015291519116926381dc101b92606480830193919282900301818387803b1580156158e357600080fd5b505af11580156158f7573d6000803e3d6000fd5b5050506000858152601b602052604090205461578491508263ffffffff614b0116565b60215461592d908263ffffffff614b1316565b6021556006546040805163122b648160e01b81526001600160a01b038581166004830152602482018590529151919092169163122b648191604480830192600092919082900301818387803b1580156155d657600080fd5b60608183018451101561599757600080fd5b6060821580156159b25760405191506020820160405261574f565b6040519150601f8416801560200281840101858101878315602002848b0101015b818310156159eb5780518352602092830192016159d3565b5050858452601f01601f19166040525050949350505050565b6001600160a01b038116615a1757600080fd5b600080546040516001600160a01b03808516939216917f8be0079c531659141344cd1fd0a4f28419497f9722a3daafe3b4186f6b6457e091a3600080546001600160a01b0319166001600160a01b0392909216919091179055565b8051600090615a8357506000611735565b6020820151805160001a9060c0821015615aa257600092505050611735565b5060019392505050565b8051600090615abd57506000611735565b60008090506000615ad18460200151615b08565b602085015185519181019250015b80821015615aff57615af082615b6b565b60019093019290910190615adf565b50909392505050565b8051600090811a6080811015615b22576000915050611735565b60b8811080615b3d575060c08110801590615b3d575060f881105b15615b4c576001915050611735565b60c0811015615b605760b519019050611735565b60f519019050611735565b80516000908190811a6080811015615b865760019150615bfd565b60b8811015615b9b57607e1981019150615bfd565b60c0811015615bc85760b78103600185019450806020036101000a85510460018201810193505050615bfd565b60f8811015615bdd5760be1981019150615bfd565b60f78103600185019450806020036101000a855104600182018101935050505b5092915050565b60405180604001604052806000815260200160008152509056fe56616c696461746f7220736574205468726573686f6c642065786365656465642150726f706f73657220626f6e75732073686f756c64206265206c657373207468616e206f7220657175616c20746f20313030436f6e6669726d6174696f6e206973206e6f7420616c6c6f776564206265666f72652061756374696f6e506572696f644f6e6c7920676f7665726e616e636520636f6e747261637420697320617574686f72697a6564a265627a7a72315820e0dd00905b96d4066dcbebf47a2644623c81ae228b52113ab3b4c75107ad045e64736f6c634300050b0032",
  "source": "pragma solidity ^0.5.2;\n\nimport { StakeManager } from \"../staking/stakeManager/StakeManager.sol\";\n\ncontract StakeManagerTestable is StakeManager {\n    function advanceEpoch(uint delta) public {\n        currentEpoch = currentEpoch.add(delta);\n    }\n}\n",
  "sourcePath": "/Users/arth/Documents/Projects/contracts/contracts/test/StakeManagerTestable.sol",
  "compiler": {
    "name": "solc",
    "version": "0.5.11+commit.c082d0b4.Emscripten.clang"
  },
  "schemaVersion": "3.0.14",
  "updatedAt": "2020-05-16T09:22:50.653Z",
  "devdoc": {
    "methods": {
      "changeRootChain(address)": {
        "details": "Allows the current owner to change root chain address.",
        "params": {
          "newRootChain": "The address to new rootchain."
        }
      },
      "isOwner()": {
        "return": "true if `msg.sender` is the owner of the contract."
      },
      "owner()": {
        "return": "the address of the owner."
      },
      "renounceOwnership()": {
        "details": "Allows the current owner to relinquish control of the contract. It will not be possible to call the functions with the `onlyOwner` modifier anymore."
      },
      "transferOwnership(address)": {
        "details": "Allows the current owner to transfer control of the contract to a newOwner.",
        "params": {
          "newOwner": "The address to transfer ownership to."
        }
      }
    }
  },
  "userdoc": {
    "methods": {
      "renounceOwnership()": {
        "notice": "Renouncing ownership will leave the contract without an owner, thereby removing any functionality that is only available to the owner."
      }
    }
  }
}