{
  "contractName": "StakeManagerProxy",
  "abi": [
    {
      "constant": false,
      "inputs": [
        {
          "internalType": "address",
          "name": "_newProxyTo",
          "type": "address"
        }
      ],
      "name": "updateImplementation",
      "outputs": [],
      "payable": false,
      "stateMutability": "nonpayable",
      "type": "function"
    },
    {
      "constant": true,
      "inputs": [],
      "name": "auctionPeriod",
      "outputs": [
        {
          "internalType": "uint256",
          "name": "",
          "type": "uint256"
        }
      ],
      "payable": false,
      "stateMutability": "view",
      "type": "function"
    },
    {
      "constant": true,
      "inputs": [],
      "name": "totalRewards",
      "outputs": [
        {
          "internalType": "uint256",
          "name": "",
          "type": "uint256"
        }
      ],
      "payable": false,
      "stateMutability": "view",
      "type": "function"
    },
    {
      "constant": true,
      "inputs": [],
      "name": "WITHDRAWAL_DELAY",
      "outputs": [
        {
          "internalType": "uint256",
          "name": "",
          "type": "uint256"
        }
      ],
      "payable": false,
      "stateMutability": "view",
      "type": "function"
    },
    {
      "constant": true,
      "inputs": [],
      "name": "accountStateRoot",
      "outputs": [
        {
          "internalType": "bytes32",
          "name": "",
          "type": "bytes32"
        }
      ],
      "payable": false,
      "stateMutability": "view",
      "type": "function"
    },
    {
      "constant": true,
      "inputs": [],
      "name": "checkPointBlockInterval",
      "outputs": [
        {
          "internalType": "uint256",
          "name": "",
          "type": "uint256"
        }
      ],
      "payable": false,
      "stateMutability": "view",
      "type": "function"
    },
    {
      "constant": true,
      "inputs": [],
      "name": "NFTContract",
      "outputs": [
        {
          "internalType": "contract StakingNFT",
          "name": "",
          "type": "address"
        }
      ],
      "payable": false,
      "stateMutability": "view",
      "type": "function"
    },
    {
      "constant": true,
      "inputs": [],
      "name": "proposerBonus",
      "outputs": [
        {
          "internalType": "uint256",
          "name": "",
          "type": "uint256"
        }
      ],
      "payable": false,
      "stateMutability": "view",
      "type": "function"
    },
    {
      "constant": true,
      "inputs": [
        {
          "internalType": "uint256",
          "name": "",
          "type": "uint256"
        }
      ],
      "name": "validators",
      "outputs": [
        {
          "internalType": "uint256",
          "name": "amount",
          "type": "uint256"
        },
        {
          "internalType": "uint256",
          "name": "reward",
          "type": "uint256"
        },
        {
          "internalType": "uint256",
          "name": "activationEpoch",
          "type": "uint256"
        },
        {
          "internalType": "uint256",
          "name": "deactivationEpoch",
          "type": "uint256"
        },
        {
          "internalType": "uint256",
          "name": "jailTime",
          "type": "uint256"
        },
        {
          "internalType": "address",
          "name": "signer",
          "type": "address"
        },
        {
          "internalType": "address",
          "name": "contractAddress",
          "type": "address"
        },
        {
          "internalType": "enum StakeManagerStorage.Status",
          "name": "status",
          "type": "uint8"
        }
      ],
      "payable": false,
      "stateMutability": "view",
      "type": "function"
    },
    {
      "constant": true,
      "inputs": [
        {
          "internalType": "address",
          "name": "",
          "type": "address"
        }
      ],
      "name": "signerToValidator",
      "outputs": [
        {
          "internalType": "uint256",
          "name": "",
          "type": "uint256"
        }
      ],
      "payable": false,
      "stateMutability": "view",
      "type": "function"
    },
    {
      "constant": true,
      "inputs": [],
      "name": "minDeposit",
      "outputs": [
        {
          "internalType": "uint256",
          "name": "",
          "type": "uint256"
        }
      ],
      "payable": false,
      "stateMutability": "view",
      "type": "function"
    },
    {
      "constant": true,
      "inputs": [],
      "name": "proxyType",
      "outputs": [
        {
          "internalType": "uint256",
          "name": "proxyTypeId",
          "type": "uint256"
        }
      ],
      "payable": false,
      "stateMutability": "pure",
      "type": "function"
    },
    {
      "constant": true,
      "inputs": [],
      "name": "signerUpdateLimit",
      "outputs": [
        {
          "internalType": "uint256",
          "name": "",
          "type": "uint256"
        }
      ],
      "payable": false,
      "stateMutability": "view",
      "type": "function"
    },
    {
      "constant": true,
      "inputs": [],
      "name": "validatorThreshold",
      "outputs": [
        {
          "internalType": "uint256",
          "name": "",
          "type": "uint256"
        }
      ],
      "payable": false,
      "stateMutability": "view",
      "type": "function"
    },
    {
      "constant": true,
      "inputs": [
        {
          "internalType": "uint256",
          "name": "",
          "type": "uint256"
        }
      ],
      "name": "validatorAuction",
      "outputs": [
        {
          "internalType": "uint256",
          "name": "amount",
          "type": "uint256"
        },
        {
          "internalType": "uint256",
          "name": "startEpoch",
          "type": "uint256"
        },
        {
          "internalType": "address",
          "name": "user",
          "type": "address"
        }
      ],
      "payable": false,
      "stateMutability": "view",
      "type": "function"
    },
    {
      "constant": true,
      "inputs": [],
      "name": "delegationEnabled",
      "outputs": [
        {
          "internalType": "bool",
          "name": "",
          "type": "bool"
        }
      ],
      "payable": false,
      "stateMutability": "view",
      "type": "function"
    },
    {
      "constant": true,
      "inputs": [],
      "name": "NFTCounter",
      "outputs": [
        {
          "internalType": "uint256",
          "name": "",
          "type": "uint256"
        }
      ],
      "payable": false,
      "stateMutability": "view",
      "type": "function"
    },
    {
      "constant": true,
      "inputs": [],
      "name": "governance",
      "outputs": [
        {
          "internalType": "contract IGovernance",
          "name": "",
          "type": "address"
        }
      ],
      "payable": false,
      "stateMutability": "view",
      "type": "function"
    },
    {
      "constant": true,
      "inputs": [
        {
          "internalType": "uint256",
          "name": "",
          "type": "uint256"
        }
      ],
      "name": "validatorState",
      "outputs": [
        {
          "internalType": "int256",
          "name": "amount",
          "type": "int256"
        },
        {
          "internalType": "int256",
          "name": "stakerCount",
          "type": "int256"
        }
      ],
      "payable": false,
      "stateMutability": "view",
      "type": "function"
    },
    {
      "constant": true,
      "inputs": [],
      "name": "implementation",
      "outputs": [
        {
          "internalType": "address",
          "name": "",
          "type": "address"
        }
      ],
      "payable": false,
      "stateMutability": "view",
      "type": "function"
    },
    {
      "constant": true,
      "inputs": [],
      "name": "dynasty",
      "outputs": [
        {
          "internalType": "uint256",
          "name": "",
          "type": "uint256"
        }
      ],
      "payable": false,
      "stateMutability": "view",
      "type": "function"
    },
    {
      "constant": false,
      "inputs": [],
      "name": "renounceOwnership",
      "outputs": [],
      "payable": false,
      "stateMutability": "nonpayable",
      "type": "function"
    },
    {
      "constant": true,
      "inputs": [],
      "name": "currentEpoch",
      "outputs": [
        {
          "internalType": "uint256",
          "name": "",
          "type": "uint256"
        }
      ],
      "payable": false,
      "stateMutability": "view",
      "type": "function"
    },
    {
      "constant": true,
      "inputs": [],
      "name": "replacementCoolDown",
      "outputs": [
        {
          "internalType": "uint256",
          "name": "",
          "type": "uint256"
        }
      ],
      "payable": false,
      "stateMutability": "view",
      "type": "function"
    },
    {
      "constant": true,
      "inputs": [
        {
          "internalType": "address",
          "name": "",
          "type": "address"
        }
      ],
      "name": "userFeeExit",
      "outputs": [
        {
          "internalType": "uint256",
          "name": "",
          "type": "uint256"
        }
      ],
      "payable": false,
      "stateMutability": "view",
      "type": "function"
    },
    {
      "constant": true,
      "inputs": [],
      "name": "registry",
      "outputs": [
        {
          "internalType": "address",
          "name": "",
          "type": "address"
        }
      ],
      "payable": false,
      "stateMutability": "view",
      "type": "function"
    },
    {
      "constant": true,
      "inputs": [],
      "name": "CHECKPOINT_REWARD",
      "outputs": [
        {
          "internalType": "uint256",
          "name": "",
          "type": "uint256"
        }
      ],
      "payable": false,
      "stateMutability": "view",
      "type": "function"
    },
    {
      "constant": true,
      "inputs": [],
      "name": "totalStaked",
      "outputs": [
        {
          "internalType": "uint256",
          "name": "",
          "type": "uint256"
        }
      ],
      "payable": false,
      "stateMutability": "view",
      "type": "function"
    },
    {
      "constant": true,
      "inputs": [],
      "name": "owner",
      "outputs": [
        {
          "internalType": "address",
          "name": "",
          "type": "address"
        }
      ],
      "payable": false,
      "stateMutability": "view",
      "type": "function"
    },
    {
      "constant": true,
      "inputs": [],
      "name": "isOwner",
      "outputs": [
        {
          "internalType": "bool",
          "name": "",
          "type": "bool"
        }
      ],
      "payable": false,
      "stateMutability": "view",
      "type": "function"
    },
    {
      "constant": true,
      "inputs": [],
      "name": "rootChain",
      "outputs": [
        {
          "internalType": "address",
          "name": "",
          "type": "address"
        }
      ],
      "payable": false,
      "stateMutability": "view",
      "type": "function"
    },
    {
      "constant": true,
      "inputs": [],
      "name": "totalHeimdallFee",
      "outputs": [
        {
          "internalType": "uint256",
          "name": "",
          "type": "uint256"
        }
      ],
      "payable": false,
      "stateMutability": "view",
      "type": "function"
    },
    {
      "constant": false,
      "inputs": [],
      "name": "unlock",
      "outputs": [],
      "payable": false,
      "stateMutability": "nonpayable",
      "type": "function"
    },
    {
      "constant": true,
      "inputs": [],
      "name": "factory",
      "outputs": [
        {
          "internalType": "contract ValidatorShareFactory",
          "name": "",
          "type": "address"
        }
      ],
      "payable": false,
      "stateMutability": "view",
      "type": "function"
    },
    {
      "constant": true,
      "inputs": [],
      "name": "totalRewardsLiquidated",
      "outputs": [
        {
          "internalType": "uint256",
          "name": "",
          "type": "uint256"
        }
      ],
      "payable": false,
      "stateMutability": "view",
      "type": "function"
    },
    {
      "constant": true,
      "inputs": [],
      "name": "locked",
      "outputs": [
        {
          "internalType": "bool",
          "name": "",
          "type": "bool"
        }
      ],
      "payable": false,
      "stateMutability": "view",
      "type": "function"
    },
    {
      "constant": true,
      "inputs": [
        {
          "internalType": "uint256",
          "name": "",
          "type": "uint256"
        }
      ],
      "name": "latestSignerUpdateEpoch",
      "outputs": [
        {
          "internalType": "uint256",
          "name": "",
          "type": "uint256"
        }
      ],
      "payable": false,
      "stateMutability": "view",
      "type": "function"
    },
    {
      "constant": false,
      "inputs": [
        {
          "internalType": "address",
          "name": "newRootChain",
          "type": "address"
        }
      ],
      "name": "changeRootChain",
      "outputs": [],
      "payable": false,
      "stateMutability": "nonpayable",
      "type": "function"
    },
    {
      "constant": true,
      "inputs": [],
      "name": "logger",
      "outputs": [
        {
          "internalType": "contract StakingInfo",
          "name": "",
          "type": "address"
        }
      ],
      "payable": false,
      "stateMutability": "view",
      "type": "function"
    },
    {
      "constant": false,
      "inputs": [
        {
          "internalType": "address",
          "name": "newOwner",
          "type": "address"
        }
      ],
      "name": "transferOwnership",
      "outputs": [],
      "payable": false,
      "stateMutability": "nonpayable",
      "type": "function"
    },
    {
      "constant": false,
      "inputs": [],
      "name": "lock",
      "outputs": [],
      "payable": false,
      "stateMutability": "nonpayable",
      "type": "function"
    },
    {
      "constant": true,
      "inputs": [],
      "name": "minHeimdallFee",
      "outputs": [
        {
          "internalType": "uint256",
          "name": "",
          "type": "uint256"
        }
      ],
      "payable": false,
      "stateMutability": "view",
      "type": "function"
    },
    {
      "constant": true,
      "inputs": [],
      "name": "token",
      "outputs": [
        {
          "internalType": "contract IERC20",
          "name": "",
          "type": "address"
        }
      ],
      "payable": false,
      "stateMutability": "view",
      "type": "function"
    },
    {
      "inputs": [
        {
          "internalType": "address",
          "name": "_proxyTo",
          "type": "address"
        },
        {
          "internalType": "address",
          "name": "_registry",
          "type": "address"
        },
        {
          "internalType": "address",
          "name": "_rootchain",
          "type": "address"
        },
        {
          "internalType": "address",
          "name": "_token",
          "type": "address"
        },
        {
          "internalType": "address",
          "name": "_NFTContract",
          "type": "address"
        },
        {
          "internalType": "address",
          "name": "_stakingLogger",
          "type": "address"
        },
        {
          "internalType": "address",
          "name": "_validatorShareFactory",
          "type": "address"
        },
        {
          "internalType": "address",
          "name": "_governance",
          "type": "address"
        }
      ],
      "payable": false,
      "stateMutability": "nonpayable",
      "type": "constructor"
    },
    {
      "payable": true,
      "stateMutability": "payable",
      "type": "fallback"
    },
    {
      "anonymous": false,
      "inputs": [
        {
          "indexed": true,
          "internalType": "address",
          "name": "previousRootChain",
          "type": "address"
        },
        {
          "indexed": true,
          "internalType": "address",
          "name": "newRootChain",
          "type": "address"
        }
      ],
      "name": "RootChainChanged",
      "type": "event"
    },
    {
      "anonymous": false,
      "inputs": [
        {
          "indexed": true,
          "internalType": "address",
          "name": "_new",
          "type": "address"
        },
        {
          "indexed": true,
          "internalType": "address",
          "name": "_old",
          "type": "address"
        }
      ],
      "name": "ProxyUpdated",
      "type": "event"
    },
    {
      "anonymous": false,
      "inputs": [
        {
          "indexed": false,
          "internalType": "address",
          "name": "_prevOwner",
          "type": "address"
        },
        {
          "indexed": false,
          "internalType": "address",
          "name": "_newOwner",
          "type": "address"
        }
      ],
      "name": "OwnerUpdate",
      "type": "event"
    },
    {
      "anonymous": false,
      "inputs": [
        {
          "indexed": true,
          "internalType": "address",
          "name": "previousOwner",
          "type": "address"
        },
        {
          "indexed": true,
          "internalType": "address",
          "name": "newOwner",
          "type": "address"
        }
      ],
      "name": "OwnershipTransferred",
      "type": "event"
    }
  ],
  "bytecode": "0x60806040526120006009556001600a55612000600b5569021e19e0c9bab2400000600c55670de0b6b3a7640000600d55670de0b6b3a7640000600e5560ff600f556064601055600a60115560016013556004600b548161005b57fe5b04601655600a601755601a805460ff1916600117905534801561007d57600080fd5b5060405161116538038061116583398181016040526101008110156100a157600080fd5b50805160208201516040808401516060850151608086015160a087015160c088015160e090980151600080546001600160a01b03191633178082559651989997989597949693959294939192839283928c926001600160a01b0392909216917f8be0079c531659141344cd1fd0a4f28419497f9722a3daafe3b4186f6b6457e0908290a3610137816001600160e01b036101ba16565b50600280546001600160a01b03199081166001600160a01b03938416179091556005805482169a83169a909a17909955600380548a16988216989098179097555050600480548716948616949094179093556007805486169285169290921790915560068054851691841691909117905560088054909316911617905550610341565b6101cb6001600160e01b0361030d16565b6101d457600080fd5b6001600160a01b03811661024957604080517f08c379a000000000000000000000000000000000000000000000000000000000815260206004820152601560248201527f494e56414c49445f50524f58595f414444524553530000000000000000000000604482015290519081900360640190fd5b61025b816001600160e01b0361031e16565b6102b0576040517f08c379a00000000000000000000000000000000000000000000000000000000081526004018080602001828103825260258152602001806111406025913960400191505060405180910390fd5b6001546040516001600160a01b03918216918316907fd32d24edea94f55e932d9a008afc425a8561462d1b1f57bc6e508e9a6b9509e190600090a3600180546001600160a01b0319166001600160a01b0392909216919091179055565b6000546001600160a01b0316331490565b60006001600160a01b0382166103365750600061033c565b50803b15155b919050565b610df0806103506000396000f3fe60806040526004361061025c5760003560e01c8063715018a611610144578063a69df4b5116100b6578063e8afa8e81161007a578063e8afa8e81461075a578063f24ccbfe1461078d578063f2fde38b146107a2578063f83d08ba146107d5578063fba58f34146107ea578063fc0c546a146107ff5761025c565b8063a69df4b5146106dc578063c45a0155146106f1578063cd6b838814610706578063cf3090121461071b578063d7f5549d146107305761025c565b80637d669752116101085780637d6697521461065e578063817b1cd2146106735780638da5cb5b146106885780638f32d59b1461069d578063987ab9db146106b25780639a8a6243146106c75761025c565b8063715018a6146105d757806376671808146105ec57806377939d101461060157806378f84a44146106165780637b103999146106495761025c565b806341b3d185116101dd57806354b8c601116101a157806354b8c601146105175780635508d8e1146105405780635aa6e675146105555780635c2488551461056a5780635c60da1b146105ad5780637060054d146105c25761025c565b806341b3d185146104725780634555d5c9146104875780634e3c83f11461049c5780634fd101d7146104b15780635325e144146104c65761025c565b80632531641111610224578063253164111461034157806331c2273b14610356578063342745861461038757806335aa2e441461039c5780633862da0b1461043f5761025c565b8063025b22bc146102a85780630cccfc58146102db5780630e15561a146103025780630ebb172a1461031757806317c2b9101461032c575b60015460408051602036601f81018290048202830182019093528282526102a6936001600160a01b0316926000918190840183828082843760009201919091525061081492505050565b005b3480156102b457600080fd5b506102a6600480360360208110156102cb57600080fd5b50356001600160a01b031661083c565b3480156102e757600080fd5b506102f0610941565b60408051918252519081900360200190f35b34801561030e57600080fd5b506102f0610947565b34801561032357600080fd5b506102f061094d565b34801561033857600080fd5b506102f0610953565b34801561034d57600080fd5b506102f0610959565b34801561036257600080fd5b5061036b61095f565b604080516001600160a01b039092168252519081900360200190f35b34801561039357600080fd5b506102f061096e565b3480156103a857600080fd5b506103c6600480360360208110156103bf57600080fd5b5035610974565b60405180898152602001888152602001878152602001868152602001858152602001846001600160a01b03166001600160a01b03168152602001836001600160a01b03166001600160a01b0316815260200182600381111561042457fe5b60ff1681526020019850505050505050505060405180910390f35b34801561044b57600080fd5b506102f06004803603602081101561046257600080fd5b50356001600160a01b03166109ca565b34801561047e57600080fd5b506102f06109dc565b34801561049357600080fd5b506102f06109e2565b3480156104a857600080fd5b506102f06109e7565b3480156104bd57600080fd5b506102f06109ed565b3480156104d257600080fd5b506104f0600480360360208110156104e957600080fd5b50356109f3565b6040805193845260208401929092526001600160a01b031682820152519081900360600190f35b34801561052357600080fd5b5061052c610a1d565b604080519115158252519081900360200190f35b34801561054c57600080fd5b506102f0610a26565b34801561056157600080fd5b5061036b610a2c565b34801561057657600080fd5b506105946004803603602081101561058d57600080fd5b5035610a3b565b6040805192835260208301919091528051918290030190f35b3480156105b957600080fd5b5061036b610a54565b3480156105ce57600080fd5b506102f0610a63565b3480156105e357600080fd5b506102a6610a69565b3480156105f857600080fd5b506102f0610ac4565b34801561060d57600080fd5b506102f0610aca565b34801561062257600080fd5b506102f06004803603602081101561063957600080fd5b50356001600160a01b0316610ad0565b34801561065557600080fd5b5061036b610ae2565b34801561066a57600080fd5b506102f0610af1565b34801561067f57600080fd5b506102f0610af7565b34801561069457600080fd5b5061036b610afd565b3480156106a957600080fd5b5061052c610b0c565b3480156106be57600080fd5b5061036b610b1d565b3480156106d357600080fd5b506102f0610b2c565b3480156106e857600080fd5b506102a6610b32565b3480156106fd57600080fd5b5061036b610b8a565b34801561071257600080fd5b506102f0610b99565b34801561072757600080fd5b5061052c610b9f565b34801561073c57600080fd5b506102f06004803603602081101561075357600080fd5b5035610baf565b34801561076657600080fd5b506102a66004803603602081101561077d57600080fd5b50356001600160a01b0316610bc0565b34801561079957600080fd5b5061036b610c40565b3480156107ae57600080fd5b506102a6600480360360208110156107c557600080fd5b50356001600160a01b0316610c4f565b3480156107e157600080fd5b506102a6610c6c565b3480156107f657600080fd5b506102f0610cca565b34801561080b57600080fd5b5061036b610cd0565b600080825160208401856127105a03f43d604051816000823e828015610838578282f35b8282fd5b610844610b0c565b61084d57600080fd5b6001600160a01b0381166108a0576040805162461bcd60e51b8152602060048201526015602482015274494e56414c49445f50524f58595f4144445245535360581b604482015290519081900360640190fd5b6108a981610cdf565b6108e45760405162461bcd60e51b8152600401808060200182810382526025815260200180610d716025913960400191505060405180910390fd5b6001546040516001600160a01b03918216918316907fd32d24edea94f55e932d9a008afc425a8561462d1b1f57bc6e508e9a6b9509e190600090a3600180546001600160a01b0319166001600160a01b0392909216919091179055565b60165481565b60145481565b60095481565b60185481565b600f5481565b6007546001600160a01b031681565b60175481565b601b602052600090815260409020805460018201546002830154600384015460048501546005860154600690960154949593949293919290916001600160a01b039081169190811690600160a01b900460ff1688565b601c6020526000908152604090205481565b600d5481565b600290565b60105481565b60115481565b601f602052600090815260409020805460018201546002909201549091906001600160a01b031683565b601a5460ff1681565b60135481565b6002546001600160a01b031681565b601d602052600090815260409020805460019091015482565b6001546001600160a01b031690565b600b5481565b610a71610b0c565b610a7a57600080fd5b600080546040516001600160a01b03909116907f8be0079c531659141344cd1fd0a4f28419497f9722a3daafe3b4186f6b6457e0908390a3600080546001600160a01b0319169055565b600a5481565b60195481565b601e6020526000908152604090205481565b6005546001600160a01b031681565b600c5481565b60125481565b6000546001600160a01b031690565b6000546001600160a01b0316331490565b6003546001600160a01b031681565b60215481565b6002546001600160a01b03163314610b7b5760405162461bcd60e51b8152600401808060200182810382526026815260200180610d966026913960400191505060405180910390fd5b6002805460ff60a01b19169055565b6008546001600160a01b031681565b60155481565b600254600160a01b900460ff1681565b602080526000908152604090205481565b610bc8610b0c565b610bd157600080fd5b6001600160a01b038116610be457600080fd5b6003546040516001600160a01b038084169216907f211c9015fc81c0dbd45bd99f0f29fc1c143bfd53442d5ffd722bbbef7a887fe990600090a3600380546001600160a01b0319166001600160a01b0392909216919091179055565b6006546001600160a01b031681565b610c57610b0c565b610c6057600080fd5b610c6981610d02565b50565b6002546001600160a01b03163314610cb55760405162461bcd60e51b8152600401808060200182810382526026815260200180610d966026913960400191505060405180910390fd5b6002805460ff60a01b1916600160a01b179055565b600e5481565b6004546001600160a01b031681565b60006001600160a01b038216610cf757506000610cfd565b50803b15155b919050565b6001600160a01b038116610d1557600080fd5b600080546040516001600160a01b03808516939216917f8be0079c531659141344cd1fd0a4f28419497f9722a3daafe3b4186f6b6457e091a3600080546001600160a01b0319166001600160a01b039290921691909117905556fe44455354494e4154494f4e5f414444524553535f49535f4e4f545f415f434f4e54524143544f6e6c7920676f7665726e616e636520636f6e747261637420697320617574686f72697a6564a265627a7a723158203f098c57c0d64e9a16a0d5e3a9ecf82f4e5a0ea67ebead61ca8fc840807f768a64736f6c634300050b003244455354494e4154494f4e5f414444524553535f49535f4e4f545f415f434f4e5452414354",
  "source": "pragma solidity ^0.5.2;\n\nimport {IERC20} from \"openzeppelin-solidity/contracts/token/ERC20/IERC20.sol\";\n\nimport {IGovernance} from \"../../common/governance/IGovernance.sol\";\nimport {StakeManagerStorage} from \"./StakeManagerStorage.sol\";\nimport {Proxy} from \"../../common/misc/Proxy.sol\";\nimport {Registry} from \"../../common/Registry.sol\";\nimport {Lockable} from \"../../common/mixin/Lockable.sol\";\nimport {StakingInfo} from \"../StakingInfo.sol\";\nimport {StakingNFT} from \"./StakingNFT.sol\";\nimport \"../validatorShare/ValidatorShareFactory.sol\";\n\ncontract StakeManagerProxy is Proxy, StakeManagerStorage {\n    constructor(\n        address _proxyTo,\n        address _registry,\n        address _rootchain,\n        address _token,\n        address _NFTContract,\n        address _stakingLogger,\n        address _validatorShareFactory,\n        address _governance\n    ) public Proxy(_proxyTo) Lockable(_governance) {\n        registry = _registry;\n        rootChain = _rootchain;\n        token = IERC20(_token);\n        NFTContract = StakingNFT(_NFTContract);\n        logger = StakingInfo(_stakingLogger);\n        factory = ValidatorShareFactory(_validatorShareFactory);\n    }\n}\n",
  "sourcePath": "/Users/arth/Documents/Projects/contracts/contracts/staking/stakeManager/StakeManagerProxy.sol",
  "compiler": {
    "name": "solc",
    "version": "0.5.11+commit.c082d0b4.Emscripten.clang"
  },
  "schemaVersion": "3.0.14",
  "updatedAt": "2020-05-16T09:22:50.614Z",
  "devdoc": {
    "methods": {
      "changeRootChain(address)": {
        "details": "Allows the current owner to change root chain address.",
        "params": {
          "newRootChain": "The address to new rootchain."
        }
      },
      "isOwner()": {
        "return": "true if `msg.sender` is the owner of the contract."
      },
      "owner()": {
        "return": "the address of the owner."
      },
      "renounceOwnership()": {
        "details": "Allows the current owner to relinquish control of the contract. It will not be possible to call the functions with the `onlyOwner` modifier anymore."
      },
      "transferOwnership(address)": {
        "details": "Allows the current owner to transfer control of the contract to a newOwner.",
        "params": {
          "newOwner": "The address to transfer ownership to."
        }
      }
    }
  },
  "userdoc": {
    "methods": {
      "renounceOwnership()": {
        "notice": "Renouncing ownership will leave the contract without an owner, thereby removing any functionality that is only available to the owner."
      }
    }
  }
}