{
  "contractName": "ValidatorShareFactory",
  "abi": [
    {
      "constant": false,
      "inputs": [
        {
          "internalType": "uint256",
          "name": "validatorId",
          "type": "uint256"
        },
        {
          "internalType": "address",
          "name": "loggerAddress",
          "type": "address"
        }
      ],
      "name": "create",
      "outputs": [
        {
          "internalType": "address",
          "name": "",
          "type": "address"
        }
      ],
      "payable": false,
      "stateMutability": "nonpayable",
      "type": "function"
    }
  ],
  "bytecode": "0x608060405234801561001057600080fd5b50612561806100206000396000f3fe608060405234801561001057600080fd5b506004361061002b5760003560e01c8063f01fe69214610030575b600080fd5b61005c6004803603604081101561004657600080fd5b50803590602001356001600160a01b0316610078565b604080516001600160a01b039092168252519081900360200190f35b60008083833360405161008a906100ce565b9283526001600160a01b039182166020840152166040808301919091525190819003606001906000f0801580156100c5573d6000803e3d6000fd5b50949350505050565b612451806100dc8339019056fe6080604052600a600b55670de0b6b3a7640000600c556010805460ff191660011790553480156200002f57600080fd5b506040516200245138038062002451833981810160405260608110156200005557600080fd5b5080516020820151604092830151600380546001600160a01b038084166001600160a01b031992831617909255600480549091163317908190559451939492939192859285928592169060009060008051602062002431833981519152908290a36007839055600580546001600160a01b038085166001600160a01b0319928316179092556006805492841692909116919091179055620000ff816001600160e01b036200010b16565b5050505050506200016a565b6001600160a01b0381166200011f57600080fd5b6004546040516001600160a01b038084169216906000805160206200243183398151915290600090a3600480546001600160a01b0319166001600160a01b0392909216919091179055565b6122b7806200017a6000396000f3fe608060405234801561001057600080fd5b50600436106102945760003560e01c8063753868e311610167578063a69df4b5116100ce578063df5cf72311610087578063df5cf723146105f7578063eba8a266146105ff578063ef40a67014610607578063f2fde38b1461062d578063f3c65e5f14610653578063f83d08ba1461065b57610294565b8063a69df4b51461057d578063a9059cbb14610585578063bfb18f29146105b1578063c7b8981c146105b9578063cf309012146105c1578063dd62ed3e146105c957610294565b80638f32d59b116101205780638f32d59b146104f357806397e50818146104fb5780639b2cb5d81461051e5780639ec5a89414610526578063a22a64281461052e578063a457c2d71461055157610294565b8063753868e31461048c5780637542ff95146104945780638b0e9f3f1461049c5780638d086da4146104a45780638d23fc61146104ac5780638da5cb5b146104eb57610294565b80633ba0b9a91161020b5780635d1e3616116101c45780635d1e3616146104205780635ea1d6f814610428578063676e5550146104305780636bd7ee4f1461045657806370a082311461045e578063715018a61461048457610294565b80633ba0b9a9146103bf5780633d94eb05146103c75780634144574c146103eb5780635aa6e675146104085780635c42c733146104105780635c5f7dae1461041857610294565b806322f0f2f91161025d57806322f0f2f91461033d57806323b872dd1461034557806329ed2b341461037b57806332ba2e5314610383578063395093511461038b5780633a09bf44146103b757610294565b8062fa3d5014610299578063095ea7b3146102b85780630d331908146102f85780630d58a5f31461031b57806318160ddd14610335575b600080fd5b6102b6600480360360208110156102af57600080fd5b5035610663565b005b6102e4600480360360408110156102ce57600080fd5b506001600160a01b0381351690602001356108f4565b604080519115158252519081900360200190f35b6102b66004803603604081101561030e57600080fd5b508035906020013561090b565b610323610945565b60408051918252519081900360200190f35b61032361094b565b610323610951565b6102e46004803603606081101561035b57600080fd5b506001600160a01b03813581169160208101359091169060400135610978565b6102b66109cf565b610323610e5d565b6102e4600480360360408110156103a157600080fd5b506001600160a01b038135169060200135610e7d565b610323610eb9565b610323610ebf565b6103cf610f02565b604080516001600160a01b039092168252519081900360200190f35b6102b66004803603602081101561040157600080fd5b5035610f11565b6103cf61125a565b610323611269565b61032361126f565b610323611275565b61032361127b565b6103236004803603602081101561044657600080fd5b50356001600160a01b0316611281565b6102b661132c565b6103236004803603602081101561047457600080fd5b50356001600160a01b03166115c8565b6102b66115e3565b61032361163e565b6103cf61166b565b61032361167a565b610323611680565b6104d2600480360360208110156104c257600080fd5b50356001600160a01b0316611686565b6040805192835260208301919091528051918290030190f35b6103cf61169f565b6102e46116ae565b6103236004803603604081101561051157600080fd5b50803590602001356116bf565b610323611795565b61032361179b565b6103236004803603604081101561054457600080fd5b50803590602001356117a1565b6102e46004803603604081101561056757600080fd5b506001600160a01b038135169060200135611867565b6102b66118a3565b6102e46004803603604081101561059b57600080fd5b506001600160a01b0381351690602001356118fb565b610323611908565b6102b6611930565b6102e4611af8565b610323600480360360408110156105df57600080fd5b506001600160a01b0381358116916020013516611b08565b6102e4611b33565b6102b6611b3c565b6103236004803603602081101561061d57600080fd5b50356001600160a01b0316611de9565b6102b66004803603602081101561064357600080fd5b50356001600160a01b0316611dfb565b610323611e18565b6102b6611e1e565b600654600754604080516331a9108f60e11b815260048101929092525133926001600160a01b031691636352211e916024808301926020929190829003018186803b1580156106b157600080fd5b505afa1580156106c5573d6000803e3d6000fd5b505050506040513d60208110156106db57600080fd5b50516001600160a01b0316146106f057600080fd5b6006546040805163900cf0cf60e01b815290516000926001600160a01b03169163900cf0cf916004808301926020929190829003018186803b15801561073557600080fd5b505afa158015610749573d6000803e3d6000fd5b505050506040513d602081101561075f57600080fd5b50516006546040805163a7ab696160e01b8152905192935083926107e7926001600160a01b03169163a7ab6961916004808301926020929190829003018186803b1580156107ac57600080fd5b505afa1580156107c0573d6000803e3d6000fd5b505050506040513d60208110156107d657600080fd5b5051600a549063ffffffff611e7c16565b1115806107f45750600a54155b61082f5760405162461bcd60e51b81526004018080602001828103825260268152602001806122376026913960400191505060405180910390fd5b606482111561086f5760405162461bcd60e51b815260040180806020018281038252602b81526020018061220c602b913960400191505060405180910390fd5b600554600754600954604080516364c6600160e11b81526004810193909352602483018690526044830191909152516001600160a01b039092169163c98cc0029160648082019260009290919082900301818387803b1580156108d157600080fd5b505af11580156108e5573d6000803e3d6000fd5b505050600992909255600a5550565b6000610901338484611e95565b5060015b92915050565b6109136116ae565b61091c57600080fd5b6000610933600f5483611e7c90919063ffffffff16565b9050610940838383611f1d565b505050565b600a5481565b60025490565b600061095b6116ae565b61096457600080fd5b506003805460ff60a01b19169055600f5490565b6000610985848484611fb7565b6001600160a01b0384166000908152600160209081526040808320338085529252909120546109c59186916109c0908663ffffffff611fef16565b611e95565b5060019392505050565b60006109da336115c8565b905060008111610a20576040805162461bcd60e51b815260206004820152600c60248201526b5a65726f2062616c616e636560a01b604482015290519081900360640190fd5b6000610a4b6064610a3f84610a33610ebf565b9063ffffffff61200416565b9063ffffffff61202b16565b9050610a57338361204d565b60065460075460408051629ff11560e81b815260048101929092526000848103602484015290516001600160a01b0390931692639ff1150092604480820193929182900301818387803b158015610aad57600080fd5b505af1158015610ac1573d6000803e3d6000fd5b5050336000908152601360205260409020548311159150610be790505733600090815260136020526040812054610aff90839063ffffffff611fef16565b6006546007546040805163bc8756a960e01b8152600481019290925260248201849052336044830152519293506001600160a01b039091169163bc8756a9916064808201926020929091908290030181600087803b158015610b6057600080fd5b505af1158015610b74573d6000803e3d6000fd5b505050506040513d6020811015610b8a57600080fd5b5051610bd3576040805162461bcd60e51b8152602060048201526013602482015272496e737566666963656e74207265776172647360681b604482015290519081900360640190fd5b610be3828263ffffffff611fef16565b9150505b600f54610bfa908263ffffffff611fef16565b600f556000610c1b610c0a611908565b610a3f84606463ffffffff61200416565b601154909150610c31908363ffffffff611e7c16565b601155601254610c47908263ffffffff611e7c16565b601255604080518082018252828152600654825163a7ab696160e01b815292519192602080850193610d48936001600160a01b03169263a7ab6961926004808301939192829003018186803b158015610c9f57600080fd5b505afa158015610cb3573d6000803e3d6000fd5b505050506040513d6020811015610cc957600080fd5b50516006546040805163900cf0cf60e01b815290516001600160a01b039092169163900cf0cf91600480820192602092909190829003018186803b158015610d1057600080fd5b505afa158015610d24573d6000803e3d6000fd5b505050506040513d6020811015610d3a57600080fd5b50519063ffffffff611e7c16565b9052336000818152601460209081526040808320855181559482015160019095019490945560139052828120819055600554600754845163f1382b5360e01b815260048101919091526024810193909352604483018690526064830187905292516001600160a01b039093169263f1382b5392608480820193929182900301818387803b158015610dd857600080fd5b505af1158015610dec573d6000803e3d6000fd5b50506005546007546040805163532e19a960e01b81526004810192909252516001600160a01b03909216935063532e19a9925060248082019260009290919082900301818387803b158015610e4057600080fd5b505af1158015610e54573d6000803e3d6000fd5b50505050505050565b6000610e676116ae565b610e7057600080fd5b5060088054600090915590565b3360008181526001602090815260408083206001600160a01b038716845290915281205490916109019185906109c0908663ffffffff611e7c16565b600f5481565b6000610ec961094b565b15610efa57610ef5610ed961094b565b610a3f6064610a33600e54600f54611e7c90919063ffffffff16565b610efd565b60645b905090565b6005546001600160a01b031681565b600354600160a01b900460ff1615610f5c576040805162461bcd60e51b8152602060048201526009602482015268125cc8131bd8dad95960ba1b604482015290519081900360640190fd5b6000610f69610c0a610ebf565b905060008111610fc0576040805162461bcd60e51b815260206004820181905260248201527f496e73756666696369656e7420616d6f756e7420746f20627579207368617265604482015290519081900360640190fd5b3360009081526014602052604090205415611011576040805162461bcd60e51b815260206004820152600c60248201526b13db99dbda5b99c8195e1a5d60a21b604482015290519081900360640190fd5b600d54611024908363ffffffff611e7c16565b600d5533600090815260136020526040902054611047908363ffffffff611e7c16565b336000818152601360209081526040808320949094556006546007548551636901b25360e01b8152600481019190915260248101889052604481019490945293516001600160a01b0390941693636901b25393606480820194918390030190829087803b1580156110b757600080fd5b505af11580156110cb573d6000803e3d6000fd5b505050506040513d60208110156110e157600080fd5b506110ee905033826120f4565b600f54611101908363ffffffff611e7c16565b600f5560065460075460408051629ff11560e81b8152600481019290925260248201859052516001600160a01b0390921691639ff115009160448082019260009290919082900301818387803b15801561115a57600080fd5b505af115801561116e573d6000803e3d6000fd5b50506005546007546040805163c69d057360e01b815260048101929092523360248301526044820187905260648201869052516001600160a01b03909216935063c69d0573925060848082019260009290919082900301818387803b1580156111d657600080fd5b505af11580156111ea573d6000803e3d6000fd5b50506005546007546040805163532e19a960e01b81526004810192909252516001600160a01b03909216935063532e19a9925060248082019260009290919082900301818387803b15801561123e57600080fd5b505af1158015611252573d6000803e3d6000fd5b505050505050565b6003546001600160a01b031681565b60115481565b60075481565b60085481565b60095481565b60008061128d836115c8565b90506000611299610ebf565b9050600082116112df576040805162461bcd60e51b815260206004820152600c60248201526b5a65726f2062616c616e636560a01b604482015290519081900360640190fd5b60006112f66064610a3f848663ffffffff61200416565b6001600160a01b03861660009081526013602052604090205490915061132390829063ffffffff611fef16565b95945050505050565b33600090815260146020908152604091829020600654835163900cf0cf60e01b8152935191936001600160a01b039091169263900cf0cf92600480840193829003018186803b15801561137e57600080fd5b505afa158015611392573d6000803e3d6000fd5b505050506040513d60208110156113a857600080fd5b50516001820154118015906113bd5750805415155b61140e576040805162461bcd60e51b815260206004820152601c60248201527f496e636f6d706c657465207769746864726177616c20706572696f6400000000604482015290519081900360640190fd5b60006114256064610a3f8460000154610a33611908565b825460125491925061143d919063ffffffff611fef16565b50601154611451908263ffffffff611fef16565b50600d54611465908263ffffffff611fef16565b600d556006546007546040805163bc8756a960e01b8152600481019290925260248201849052336044830152516001600160a01b039092169163bc8756a9916064808201926020929091908290030181600087803b1580156114c657600080fd5b505af11580156114da573d6000803e3d6000fd5b505050506040513d60208110156114f057600080fd5b5051611539576040805162461bcd60e51b8152602060048201526013602482015272496e737566666963656e74207265776172647360681b604482015290519081900360640190fd5b60055460075460408051636fe003d760e11b8152600481019290925233602483015260448201849052516001600160a01b039092169163dfc007ae9160648082019260009290919082900301818387803b15801561159657600080fd5b505af11580156115aa573d6000803e3d6000fd5b50503360009081526014602052604081208181556001015550505050565b6001600160a01b031660009081526020819052604090205490565b6115eb6116ae565b6115f457600080fd5b6004546040516000916001600160a01b0316907f8be0079c531659141344cd1fd0a4f28419497f9722a3daafe3b4186f6b6457e0908390a3600480546001600160a01b0319169055565b60006116486116ae565b61165157600080fd5b506003805460ff60a01b1916600160a01b179055600f5490565b6006546001600160a01b031681565b600d5481565b60125481565b6014602052600090815260409020805460019091015482565b6004546001600160a01b031690565b6004546001600160a01b0316331490565b60006116c96116ae565b6116d257600080fd5b6006546007546040805163eceec1d360e01b81526004810192909252516000926001600160a01b03169163eceec1d3916024808301926020929190829003018186803b15801561172157600080fd5b505afa158015611735573d6000803e3d6000fd5b505050506040513d602081101561174b57600080fd5b5051600f5490915060009061176790839063ffffffff611e7c16565b9050600061177f85610a3f848963ffffffff61200416565b905061178c818484611f1d565b50949350505050565b600c5481565b600e5481565b60006117ab6116ae565b6117b457600080fd5b60006117cd601154600f54611e7c90919063ffffffff16565b9050806117de576000915050610905565b60006118036117f3868463ffffffff611e7c16565b610a3f848763ffffffff61200416565b9050600061182083610a3f8460115461200490919063ffffffff16565b601154909150611836908263ffffffff611fef16565b60115561185b61184c838363ffffffff611fef16565b600f549063ffffffff611fef16565b600f5550949350505050565b3360008181526001602090815260408083206001600160a01b038716845290915281205490916109019185906109c0908663ffffffff611fef16565b6003546001600160a01b031633146118ec5760405162461bcd60e51b815260040180806020018281038252602681526020018061225d6026913960400191505060405180910390fd5b6003805460ff60a01b19169055565b6000610901338484611fb7565b6000601254600014610efa57610ef5601254610a3f606460115461200490919063ffffffff16565b600061193b33611281565b9050600c54811015611994576040805162461bcd60e51b815260206004820152601860248201527f546f6f20736d616c6c207265776172647320616d6f756e740000000000000000604482015290519081900360640190fd5b60006119a1610c0a610ebf565b90506119ad338261204d565b600e546119c0908363ffffffff611fef16565b600e556006546007546040805163bc8756a960e01b8152600481019290925260248201859052336044830152516001600160a01b039092169163bc8756a9916064808201926020929091908290030181600087803b158015611a2157600080fd5b505af1158015611a35573d6000803e3d6000fd5b505050506040513d6020811015611a4b57600080fd5b5051611a94576040805162461bcd60e51b8152602060048201526013602482015272496e737566666963656e74207265776172647360681b604482015290519081900360640190fd5b6005546007546040805163af4cdabf60e01b815260048101929092523360248301526044820185905260648201849052516001600160a01b039092169163af4cdabf9160848082019260009290919082900301818387803b15801561123e57600080fd5b600354600160a01b900460ff1681565b6001600160a01b03918216600090815260016020908152604080832093909416825291909152205490565b60105460ff1681565b6000611b4733611281565b33600090815260136020526040902054909150611b6a908263ffffffff611e7c16565b33600090815260136020526040902055600d54611b8d908263ffffffff611e7c16565b600d55600f54611ba3908263ffffffff611e7c16565b600f556006546007546040805163bc8756a960e01b8152600481019290925260248201849052306044830152516001600160a01b039092169163bc8756a9916064808201926020929091908290030181600087803b158015611c0457600080fd5b505af1158015611c18573d6000803e3d6000fd5b505050506040513d6020811015611c2e57600080fd5b5051611c77576040805162461bcd60e51b8152602060048201526013602482015272496e737566666963656e74207265776172647360681b604482015290519081900360640190fd5b60065460075460408051629ff11560e81b8152600481019290925260248201849052516001600160a01b0390921691639ff115009160448082019260009290919082900301818387803b158015611ccd57600080fd5b505af1158015611ce1573d6000803e3d6000fd5b5050600e54611cf9925090508263ffffffff611fef16565b600e556005546007546040805163532e19a960e01b81526004810192909252516001600160a01b039092169163532e19a99160248082019260009290919082900301818387803b158015611d4c57600080fd5b505af1158015611d60573d6000803e3d6000fd5b5050600554600754336000818152601360205260408082205481516201a5a760e71b815260048101959095526024850193909352604484019290925290516001600160a01b03909316945062d2d3809350606480830193919282900301818387803b158015611dce57600080fd5b505af1158015611de2573d6000803e3d6000fd5b5050505050565b60136020526000908152604090205481565b611e036116ae565b611e0c57600080fd5b611e158161219c565b50565b600b5481565b6003546001600160a01b03163314611e675760405162461bcd60e51b815260040180806020018281038252602681526020018061225d6026913960400191505060405180910390fd5b6003805460ff60a01b1916600160a01b179055565b600082820183811015611e8e57600080fd5b9392505050565b6001600160a01b038216611ea857600080fd5b6001600160a01b038316611ebb57600080fd5b6001600160a01b03808416600081815260016020908152604080832094871680845294825291829020859055815185815291517f8c5be1e5ebec7d5bd14f71427d1e84f3dd0314c0f7b2291e5b200ac8c7c3b9259281900390910190a3505050565b6000611f3382610a3f858763ffffffff61200416565b60095490915015611f6f57611f6c611f5f6064610a3f600954610a33868a611fef90919063ffffffff16565b829063ffffffff611e7c16565b90505b600854611f82908263ffffffff611e7c16565b6008556000611f97858363ffffffff611fef16565b600e54909150611fad908263ffffffff611e7c16565b600e555050505050565b6040805162461bcd60e51b8152602060048201526008602482015267111a5cd8589b195960c21b604482015290519081900360640190fd5b600082821115611ffe57600080fd5b50900390565b60008261201357506000610905565b8282028284828161202057fe5b0414611e8e57600080fd5b600080821161203957600080fd5b600082848161204457fe5b04949350505050565b6001600160a01b03821661206057600080fd5b600254612073908263ffffffff611fef16565b6002556001600160a01b03821660009081526020819052604090205461209f908263ffffffff611fef16565b6001600160a01b038316600081815260208181526040808320949094558351858152935191937fddf252ad1be2c89b69c2b068fc378daa952ba7f163c4a11628f55a4df523b3ef929081900390910190a35050565b6001600160a01b03821661210757600080fd5b60025461211a908263ffffffff611e7c16565b6002556001600160a01b038216600090815260208190526040902054612146908263ffffffff611e7c16565b6001600160a01b0383166000818152602081815260408083209490945583518581529351929391927fddf252ad1be2c89b69c2b068fc378daa952ba7f163c4a11628f55a4df523b3ef9281900390910190a35050565b6001600160a01b0381166121af57600080fd5b6004546040516001600160a01b038084169216907f8be0079c531659141344cd1fd0a4f28419497f9722a3daafe3b4186f6b6457e090600090a3600480546001600160a01b0319166001600160a01b039290921691909117905556fe436f6d6d697373696f6e20726174652073686f756c6420626520696e2072616e6765206f6620302d313030436f6d6d697373696f6e20726174652075706461746520636f6f6c646f776e20706572696f644f6e6c7920676f7665726e616e636520636f6e747261637420697320617574686f72697a6564a265627a7a72315820928c9405039cf4d965c336dfd14c29c23250d46d027f2583f26fe0680f61a1a464736f6c634300050b00328be0079c531659141344cd1fd0a4f28419497f9722a3daafe3b4186f6b6457e0a265627a7a7231582028f352bd31dbd0031cfbfc16b0980b32983bc4d6ee213c2e1b5c19bc6b84c4ad64736f6c634300050b0032",
  "source": "pragma solidity ^0.5.2;\n\nimport {ValidatorShare} from \"./ValidatorShare.sol\";\n\ncontract ValidatorShareFactory {\n    /**\n    - factory to create new validatorShare contracts\n   */\n\n    function create(uint256 validatorId, address loggerAddress)\n        public\n        returns (address)\n    {\n        ValidatorShare validatorShare = new ValidatorShare(\n            validatorId,\n            loggerAddress,\n            msg.sender\n        );\n        return address(validatorShare);\n    }\n\n}\n",
  "sourcePath": "/Users/arth/Documents/Projects/contracts/contracts/staking/validatorShare/ValidatorShareFactory.sol",
  "compiler": {
    "name": "solc",
    "version": "0.5.11+commit.c082d0b4.Emscripten.clang"
  },
  "schemaVersion": "3.0.14",
  "updatedAt": "2020-05-16T09:22:50.641Z",
  "devdoc": {
    "methods": {}
  },
  "userdoc": {
    "methods": {
      "create(uint256,address)": {
        "notice": "- factory to create new validatorShare contracts"
      }
    }
  }
}