{
  "contractName": "StakeManagerTest",
  "abi": [
    {
      "constant": false,
      "inputs": [
        {
          "internalType": "uint256",
          "name": "amount",
          "type": "uint256"
        },
        {
          "internalType": "uint256",
          "name": "heimdallFee",
          "type": "uint256"
        },
        {
          "internalType": "bool",
          "name": "acceptDelegation",
          "type": "bool"
        },
        {
          "internalType": "bytes",
          "name": "signerPubkey",
          "type": "bytes"
        }
      ],
      "name": "stake",
      "outputs": [],
      "payable": false,
      "stateMutability": "nonpayable",
      "type": "function"
    },
    {
      "constant": false,
      "inputs": [
        {
          "internalType": "uint256",
          "name": "_limit",
          "type": "uint256"
        }
      ],
      "name": "updateSignerUpdateLimit",
      "outputs": [],
      "payable": false,
      "stateMutability": "nonpayable",
      "type": "function"
    },
    {
      "constant": true,
      "inputs": [],
      "name": "auctionPeriod",
      "outputs": [
        {
          "internalType": "uint256",
          "name": "",
          "type": "uint256"
        }
      ],
      "payable": false,
      "stateMutability": "view",
      "type": "function"
    },
    {
      "constant": true,
      "inputs": [],
      "name": "totalRewards",
      "outputs": [
        {
          "internalType": "uint256",
          "name": "",
          "type": "uint256"
        }
      ],
      "payable": false,
      "stateMutability": "view",
      "type": "function"
    },
    {
      "constant": true,
      "inputs": [],
      "name": "WITHDRAWAL_DELAY",
      "outputs": [
        {
          "internalType": "uint256",
          "name": "",
          "type": "uint256"
        }
      ],
      "payable": false,
      "stateMutability": "view",
      "type": "function"
    },
    {
      "constant": false,
      "inputs": [
        {
          "internalType": "address",
          "name": "_token",
          "type": "address"
        }
      ],
      "name": "setToken",
      "outputs": [],
      "payable": false,
      "stateMutability": "nonpayable",
      "type": "function"
    },
    {
      "constant": false,
      "inputs": [
        {
          "internalType": "uint256",
          "name": "newThreshold",
          "type": "uint256"
        }
      ],
      "name": "updateValidatorThreshold",
      "outputs": [],
      "payable": false,
      "stateMutability": "nonpayable",
      "type": "function"
    },
    {
      "constant": true,
      "inputs": [
        {
          "internalType": "address",
          "name": "user",
          "type": "address"
        }
      ],
      "name": "getValidatorId",
      "outputs": [
        {
          "internalType": "uint256",
          "name": "",
          "type": "uint256"
        }
      ],
      "payable": false,
      "stateMutability": "view",
      "type": "function"
    },
    {
      "constant": false,
      "inputs": [
        {
          "internalType": "uint256",
          "name": "validatorId",
          "type": "uint256"
        }
      ],
      "name": "unjail",
      "outputs": [],
      "payable": false,
      "stateMutability": "nonpayable",
      "type": "function"
    },
    {
      "constant": true,
      "inputs": [],
      "name": "accountStateRoot",
      "outputs": [
        {
          "internalType": "bytes32",
          "name": "",
          "type": "bytes32"
        }
      ],
      "payable": false,
      "stateMutability": "view",
      "type": "function"
    },
    {
      "constant": true,
      "inputs": [],
      "name": "checkPointBlockInterval",
      "outputs": [
        {
          "internalType": "uint256",
          "name": "",
          "type": "uint256"
        }
      ],
      "payable": false,
      "stateMutability": "view",
      "type": "function"
    },
    {
      "constant": true,
      "inputs": [
        {
          "internalType": "uint256",
          "name": "validatorId",
          "type": "uint256"
        }
      ],
      "name": "isValidator",
      "outputs": [
        {
          "internalType": "bool",
          "name": "",
          "type": "bool"
        }
      ],
      "payable": false,
      "stateMutability": "view",
      "type": "function"
    },
    {
      "constant": false,
      "inputs": [
        {
          "internalType": "uint256",
          "name": "validatorId",
          "type": "uint256"
        },
        {
          "internalType": "uint256",
          "name": "amount",
          "type": "uint256"
        },
        {
          "internalType": "bool",
          "name": "stakeRewards",
          "type": "bool"
        }
      ],
      "name": "restake",
      "outputs": [],
      "payable": false,
      "stateMutability": "nonpayable",
      "type": "function"
    },
    {
      "constant": false,
      "inputs": [
        {
          "internalType": "uint256",
          "name": "validatorId",
          "type": "uint256"
        }
      ],
      "name": "unstake",
      "outputs": [],
      "payable": false,
      "stateMutability": "nonpayable",
      "type": "function"
    },
    {
      "constant": true,
      "inputs": [],
      "name": "NFTContract",
      "outputs": [
        {
          "internalType": "contract StakingNFT",
          "name": "",
          "type": "address"
        }
      ],
      "payable": false,
      "stateMutability": "view",
      "type": "function"
    },
    {
      "constant": true,
      "inputs": [],
      "name": "proposerBonus",
      "outputs": [
        {
          "internalType": "uint256",
          "name": "",
          "type": "uint256"
        }
      ],
      "payable": false,
      "stateMutability": "view",
      "type": "function"
    },
    {
      "constant": true,
      "inputs": [
        {
          "internalType": "uint256",
          "name": "",
          "type": "uint256"
        }
      ],
      "name": "validators",
      "outputs": [
        {
          "internalType": "uint256",
          "name": "amount",
          "type": "uint256"
        },
        {
          "internalType": "uint256",
          "name": "reward",
          "type": "uint256"
        },
        {
          "internalType": "uint256",
          "name": "activationEpoch",
          "type": "uint256"
        },
        {
          "internalType": "uint256",
          "name": "deactivationEpoch",
          "type": "uint256"
        },
        {
          "internalType": "uint256",
          "name": "jailTime",
          "type": "uint256"
        },
        {
          "internalType": "address",
          "name": "signer",
          "type": "address"
        },
        {
          "internalType": "address",
          "name": "contractAddress",
          "type": "address"
        },
        {
          "internalType": "enum StakeManagerStorage.Status",
          "name": "status",
          "type": "uint8"
        }
      ],
      "payable": false,
      "stateMutability": "view",
      "type": "function"
    },
    {
      "constant": true,
      "inputs": [
        {
          "internalType": "address",
          "name": "",
          "type": "address"
        }
      ],
      "name": "signerToValidator",
      "outputs": [
        {
          "internalType": "uint256",
          "name": "",
          "type": "uint256"
        }
      ],
      "payable": false,
      "stateMutability": "view",
      "type": "function"
    },
    {
      "constant": true,
      "inputs": [],
      "name": "minDeposit",
      "outputs": [
        {
          "internalType": "uint256",
          "name": "",
          "type": "uint256"
        }
      ],
      "payable": false,
      "stateMutability": "view",
      "type": "function"
    },
    {
      "constant": false,
      "inputs": [
        {
          "internalType": "uint256",
          "name": "validatorId",
          "type": "uint256"
        },
        {
          "internalType": "address",
          "name": "_token",
          "type": "address"
        },
        {
          "internalType": "address payable",
          "name": "destination",
          "type": "address"
        },
        {
          "internalType": "uint256",
          "name": "amount",
          "type": "uint256"
        }
      ],
      "name": "drainValidatorShares",
      "outputs": [],
      "payable": false,
      "stateMutability": "nonpayable",
      "type": "function"
    },
    {
      "constant": true,
      "inputs": [
        {
          "internalType": "address",
          "name": "user",
          "type": "address"
        }
      ],
      "name": "totalStakedFor",
      "outputs": [
        {
          "internalType": "uint256",
          "name": "",
          "type": "uint256"
        }
      ],
      "payable": false,
      "stateMutability": "view",
      "type": "function"
    },
    {
      "constant": true,
      "inputs": [],
      "name": "signerUpdateLimit",
      "outputs": [
        {
          "internalType": "uint256",
          "name": "",
          "type": "uint256"
        }
      ],
      "payable": false,
      "stateMutability": "view",
      "type": "function"
    },
    {
      "constant": true,
      "inputs": [],
      "name": "validatorThreshold",
      "outputs": [
        {
          "internalType": "uint256",
          "name": "",
          "type": "uint256"
        }
      ],
      "payable": false,
      "stateMutability": "view",
      "type": "function"
    },
    {
      "constant": false,
      "inputs": [
        {
          "internalType": "address",
          "name": "user",
          "type": "address"
        },
        {
          "internalType": "uint256",
          "name": "amount",
          "type": "uint256"
        },
        {
          "internalType": "uint256",
          "name": "heimdallFee",
          "type": "uint256"
        },
        {
          "internalType": "bool",
          "name": "acceptDelegation",
          "type": "bool"
        },
        {
          "internalType": "bytes",
          "name": "signerPubkey",
          "type": "bytes"
        }
      ],
      "name": "stakeFor",
      "outputs": [],
      "payable": false,
      "stateMutability": "nonpayable",
      "type": "function"
    },
    {
      "constant": false,
      "inputs": [
        {
          "internalType": "uint256",
          "name": "validatorId",
          "type": "uint256"
        },
        {
          "internalType": "uint256",
          "name": "amount",
          "type": "uint256"
        }
      ],
      "name": "startAuction",
      "outputs": [],
      "payable": false,
      "stateMutability": "nonpayable",
      "type": "function"
    },
    {
      "constant": true,
      "inputs": [
        {
          "internalType": "uint256",
          "name": "",
          "type": "uint256"
        }
      ],
      "name": "validatorAuction",
      "outputs": [
        {
          "internalType": "uint256",
          "name": "amount",
          "type": "uint256"
        },
        {
          "internalType": "uint256",
          "name": "startEpoch",
          "type": "uint256"
        },
        {
          "internalType": "address",
          "name": "user",
          "type": "address"
        }
      ],
      "payable": false,
      "stateMutability": "view",
      "type": "function"
    },
    {
      "constant": true,
      "inputs": [],
      "name": "delegationEnabled",
      "outputs": [
        {
          "internalType": "bool",
          "name": "",
          "type": "bool"
        }
      ],
      "payable": false,
      "stateMutability": "view",
      "type": "function"
    },
    {
      "constant": true,
      "inputs": [],
      "name": "NFTCounter",
      "outputs": [
        {
          "internalType": "uint256",
          "name": "",
          "type": "uint256"
        }
      ],
      "payable": false,
      "stateMutability": "view",
      "type": "function"
    },
    {
      "constant": true,
      "inputs": [
        {
          "internalType": "uint256",
          "name": "validatorId",
          "type": "uint256"
        }
      ],
      "name": "getValidatorContract",
      "outputs": [
        {
          "internalType": "address",
          "name": "",
          "type": "address"
        }
      ],
      "payable": false,
      "stateMutability": "view",
      "type": "function"
    },
    {
      "constant": true,
      "inputs": [],
      "name": "governance",
      "outputs": [
        {
          "internalType": "contract IGovernance",
          "name": "",
          "type": "address"
        }
      ],
      "payable": false,
      "stateMutability": "view",
      "type": "function"
    },
    {
      "constant": true,
      "inputs": [
        {
          "internalType": "uint256",
          "name": "",
          "type": "uint256"
        }
      ],
      "name": "validatorState",
      "outputs": [
        {
          "internalType": "int256",
          "name": "amount",
          "type": "int256"
        },
        {
          "internalType": "int256",
          "name": "stakerCount",
          "type": "int256"
        }
      ],
      "payable": false,
      "stateMutability": "view",
      "type": "function"
    },
    {
      "constant": false,
      "inputs": [
        {
          "internalType": "bytes",
          "name": "_slashingInfoList",
          "type": "bytes"
        }
      ],
      "name": "slash",
      "outputs": [
        {
          "internalType": "uint256",
          "name": "",
          "type": "uint256"
        }
      ],
      "payable": false,
      "stateMutability": "nonpayable",
      "type": "function"
    },
    {
      "constant": true,
      "inputs": [
        {
          "internalType": "uint256",
          "name": "tokenId",
          "type": "uint256"
        }
      ],
      "name": "ownerOf",
      "outputs": [
        {
          "internalType": "address",
          "name": "",
          "type": "address"
        }
      ],
      "payable": false,
      "stateMutability": "view",
      "type": "function"
    },
    {
      "constant": false,
      "inputs": [
        {
          "internalType": "address",
          "name": "user",
          "type": "address"
        },
        {
          "internalType": "uint256",
          "name": "heimdallFee",
          "type": "uint256"
        }
      ],
      "name": "topUpForFee",
      "outputs": [],
      "payable": false,
      "stateMutability": "nonpayable",
      "type": "function"
    },
    {
      "constant": false,
      "inputs": [
        {
          "internalType": "address",
          "name": "_NFTContract",
          "type": "address"
        },
        {
          "internalType": "address",
          "name": "_stakingLogger",
          "type": "address"
        },
        {
          "internalType": "address",
          "name": "_validatorShareFactory",
          "type": "address"
        }
      ],
      "name": "reinitialize",
      "outputs": [],
      "payable": false,
      "stateMutability": "nonpayable",
      "type": "function"
    },
    {
      "constant": false,
      "inputs": [
        {
          "internalType": "uint256",
          "name": "accumFeeAmount",
          "type": "uint256"
        },
        {
          "internalType": "uint256",
          "name": "index",
          "type": "uint256"
        },
        {
          "internalType": "bytes",
          "name": "proof",
          "type": "bytes"
        }
      ],
      "name": "claimFee",
      "outputs": [],
      "payable": false,
      "stateMutability": "nonpayable",
      "type": "function"
    },
    {
      "constant": false,
      "inputs": [
        {
          "internalType": "uint256",
          "name": "validatorId",
          "type": "uint256"
        },
        {
          "internalType": "uint256",
          "name": "amount",
          "type": "uint256"
        },
        {
          "internalType": "address",
          "name": "delegator",
          "type": "address"
        }
      ],
      "name": "delegationDeposit",
      "outputs": [
        {
          "internalType": "bool",
          "name": "",
          "type": "bool"
        }
      ],
      "payable": false,
      "stateMutability": "nonpayable",
      "type": "function"
    },
    {
      "constant": true,
      "inputs": [],
      "name": "supportsHistory",
      "outputs": [
        {
          "internalType": "bool",
          "name": "",
          "type": "bool"
        }
      ],
      "payable": false,
      "stateMutability": "pure",
      "type": "function"
    },
    {
      "constant": true,
      "inputs": [],
      "name": "dynasty",
      "outputs": [
        {
          "internalType": "uint256",
          "name": "",
          "type": "uint256"
        }
      ],
      "payable": false,
      "stateMutability": "view",
      "type": "function"
    },
    {
      "constant": false,
      "inputs": [],
      "name": "renounceOwnership",
      "outputs": [],
      "payable": false,
      "stateMutability": "nonpayable",
      "type": "function"
    },
    {
      "constant": true,
      "inputs": [],
      "name": "currentEpoch",
      "outputs": [
        {
          "internalType": "uint256",
          "name": "",
          "type": "uint256"
        }
      ],
      "payable": false,
      "stateMutability": "view",
      "type": "function"
    },
    {
      "constant": true,
      "inputs": [],
      "name": "replacementCoolDown",
      "outputs": [
        {
          "internalType": "uint256",
          "name": "",
          "type": "uint256"
        }
      ],
      "payable": false,
      "stateMutability": "view",
      "type": "function"
    },
    {
      "constant": true,
      "inputs": [
        {
          "internalType": "address",
          "name": "",
          "type": "address"
        }
      ],
      "name": "userFeeExit",
      "outputs": [
        {
          "internalType": "uint256",
          "name": "",
          "type": "uint256"
        }
      ],
      "payable": false,
      "stateMutability": "view",
      "type": "function"
    },
    {
      "constant": true,
      "inputs": [],
      "name": "registry",
      "outputs": [
        {
          "internalType": "address",
          "name": "",
          "type": "address"
        }
      ],
      "payable": false,
      "stateMutability": "view",
      "type": "function"
    },
    {
      "constant": true,
      "inputs": [],
      "name": "CHECKPOINT_REWARD",
      "outputs": [
        {
          "internalType": "uint256",
          "name": "",
          "type": "uint256"
        }
      ],
      "payable": false,
      "stateMutability": "view",
      "type": "function"
    },
    {
      "constant": true,
      "inputs": [],
      "name": "currentValidatorSetSize",
      "outputs": [
        {
          "internalType": "uint256",
          "name": "",
          "type": "uint256"
        }
      ],
      "payable": false,
      "stateMutability": "view",
      "type": "function"
    },
    {
      "constant": true,
      "inputs": [],
      "name": "totalStaked",
      "outputs": [
        {
          "internalType": "uint256",
          "name": "",
          "type": "uint256"
        }
      ],
      "payable": false,
      "stateMutability": "view",
      "type": "function"
    },
    {
      "constant": true,
      "inputs": [],
      "name": "owner",
      "outputs": [
        {
          "internalType": "address",
          "name": "",
          "type": "address"
        }
      ],
      "payable": false,
      "stateMutability": "view",
      "type": "function"
    },
    {
      "constant": true,
      "inputs": [],
      "name": "isOwner",
      "outputs": [
        {
          "internalType": "bool",
          "name": "",
          "type": "bool"
        }
      ],
      "payable": false,
      "stateMutability": "view",
      "type": "function"
    },
    {
      "constant": true,
      "inputs": [],
      "name": "epoch",
      "outputs": [
        {
          "internalType": "uint256",
          "name": "",
          "type": "uint256"
        }
      ],
      "payable": false,
      "stateMutability": "view",
      "type": "function"
    },
    {
      "constant": false,
      "inputs": [
        {
          "internalType": "uint256",
          "name": "validatorId",
          "type": "uint256"
        }
      ],
      "name": "forceUnstake",
      "outputs": [],
      "payable": false,
      "stateMutability": "nonpayable",
      "type": "function"
    },
    {
      "constant": false,
      "inputs": [
        {
          "internalType": "uint256",
          "name": "validatorId",
          "type": "uint256"
        }
      ],
      "name": "withdrawRewards",
      "outputs": [],
      "payable": false,
      "stateMutability": "nonpayable",
      "type": "function"
    },
    {
      "constant": true,
      "inputs": [],
      "name": "rootChain",
      "outputs": [
        {
          "internalType": "address",
          "name": "",
          "type": "address"
        }
      ],
      "payable": false,
      "stateMutability": "view",
      "type": "function"
    },
    {
      "constant": true,
      "inputs": [],
      "name": "totalHeimdallFee",
      "outputs": [
        {
          "internalType": "uint256",
          "name": "",
          "type": "uint256"
        }
      ],
      "payable": false,
      "stateMutability": "view",
      "type": "function"
    },
    {
      "constant": false,
      "inputs": [
        {
          "internalType": "uint256",
          "name": "newProposerBonus",
          "type": "uint256"
        }
      ],
      "name": "updateProposerBonus",
      "outputs": [],
      "payable": false,
      "stateMutability": "nonpayable",
      "type": "function"
    },
    {
      "constant": false,
      "inputs": [
        {
          "internalType": "uint256",
          "name": "validatorId",
          "type": "uint256"
        },
        {
          "internalType": "int256",
          "name": "amount",
          "type": "int256"
        }
      ],
      "name": "updateValidatorState",
      "outputs": [],
      "payable": false,
      "stateMutability": "nonpayable",
      "type": "function"
    },
    {
      "constant": false,
      "inputs": [
        {
          "internalType": "uint256",
          "name": "_blocks",
          "type": "uint256"
        }
      ],
      "name": "updateCheckPointBlockInterval",
      "outputs": [],
      "payable": false,
      "stateMutability": "nonpayable",
      "type": "function"
    },
    {
      "constant": true,
      "inputs": [],
      "name": "currentValidatorSetTotalStake",
      "outputs": [
        {
          "internalType": "uint256",
          "name": "",
          "type": "uint256"
        }
      ],
      "payable": false,
      "stateMutability": "view",
      "type": "function"
    },
    {
      "constant": false,
      "inputs": [],
      "name": "unlock",
      "outputs": [],
      "payable": false,
      "stateMutability": "nonpayable",
      "type": "function"
    },
    {
      "constant": true,
      "inputs": [],
      "name": "withdrawalDelay",
      "outputs": [
        {
          "internalType": "uint256",
          "name": "",
          "type": "uint256"
        }
      ],
      "payable": false,
      "stateMutability": "view",
      "type": "function"
    },
    {
      "constant": false,
      "inputs": [
        {
          "internalType": "address",
          "name": "destination",
          "type": "address"
        },
        {
          "internalType": "uint256",
          "name": "amount",
          "type": "uint256"
        }
      ],
      "name": "drain",
      "outputs": [],
      "payable": false,
      "stateMutability": "nonpayable",
      "type": "function"
    },
    {
      "constant": false,
      "inputs": [
        {
          "internalType": "uint256",
          "name": "_minDeposit",
          "type": "uint256"
        },
        {
          "internalType": "uint256",
          "name": "_minHeimdallFee",
          "type": "uint256"
        }
      ],
      "name": "updateMinAmounts",
      "outputs": [],
      "payable": false,
      "stateMutability": "nonpayable",
      "type": "function"
    },
    {
      "constant": false,
      "inputs": [
        {
          "internalType": "uint256",
          "name": "validatorId",
          "type": "uint256"
        },
        {
          "internalType": "uint256",
          "name": "amount",
          "type": "uint256"
        },
        {
          "internalType": "address",
          "name": "delegator",
          "type": "address"
        }
      ],
      "name": "transferFunds",
      "outputs": [
        {
          "internalType": "bool",
          "name": "",
          "type": "bool"
        }
      ],
      "payable": false,
      "stateMutability": "nonpayable",
      "type": "function"
    },
    {
      "constant": true,
      "inputs": [],
      "name": "factory",
      "outputs": [
        {
          "internalType": "contract ValidatorShareFactory",
          "name": "",
          "type": "address"
        }
      ],
      "payable": false,
      "stateMutability": "view",
      "type": "function"
    },
    {
      "constant": false,
      "inputs": [
        {
          "internalType": "uint256",
          "name": "validatorId",
          "type": "uint256"
        },
        {
          "internalType": "uint256",
          "name": "heimdallFee",
          "type": "uint256"
        },
        {
          "internalType": "bool",
          "name": "acceptDelegation",
          "type": "bool"
        },
        {
          "internalType": "bytes",
          "name": "signerPubkey",
          "type": "bytes"
        }
      ],
      "name": "confirmAuctionBid",
      "outputs": [],
      "payable": false,
      "stateMutability": "nonpayable",
      "type": "function"
    },
    {
      "constant": false,
      "inputs": [
        {
          "internalType": "uint256",
          "name": "newReward",
          "type": "uint256"
        }
      ],
      "name": "updateCheckpointReward",
      "outputs": [],
      "payable": false,
      "stateMutability": "nonpayable",
      "type": "function"
    },
    {
      "constant": true,
      "inputs": [],
      "name": "totalRewardsLiquidated",
      "outputs": [
        {
          "internalType": "uint256",
          "name": "",
          "type": "uint256"
        }
      ],
      "payable": false,
      "stateMutability": "view",
      "type": "function"
    },
    {
      "constant": true,
      "inputs": [],
      "name": "locked",
      "outputs": [
        {
          "internalType": "bool",
          "name": "",
          "type": "bool"
        }
      ],
      "payable": false,
      "stateMutability": "view",
      "type": "function"
    },
    {
      "constant": true,
      "inputs": [
        {
          "internalType": "bytes",
          "name": "pub",
          "type": "bytes"
        }
      ],
      "name": "pubToAddress",
      "outputs": [
        {
          "internalType": "address",
          "name": "",
          "type": "address"
        }
      ],
      "payable": false,
      "stateMutability": "pure",
      "type": "function"
    },
    {
      "constant": true,
      "inputs": [
        {
          "internalType": "uint256",
          "name": "",
          "type": "uint256"
        }
      ],
      "name": "latestSignerUpdateEpoch",
      "outputs": [
        {
          "internalType": "uint256",
          "name": "",
          "type": "uint256"
        }
      ],
      "payable": false,
      "stateMutability": "view",
      "type": "function"
    },
    {
      "constant": false,
      "inputs": [
        {
          "internalType": "uint256",
          "name": "validatorId",
          "type": "uint256"
        }
      ],
      "name": "unstakeClaim",
      "outputs": [],
      "payable": false,
      "stateMutability": "nonpayable",
      "type": "function"
    },
    {
      "constant": false,
      "inputs": [
        {
          "internalType": "address",
          "name": "newFactory",
          "type": "address"
        }
      ],
      "name": "updateContractFactory",
      "outputs": [],
      "payable": false,
      "stateMutability": "nonpayable",
      "type": "function"
    },
    {
      "constant": false,
      "inputs": [
        {
          "internalType": "uint256",
          "name": "newDynasty",
          "type": "uint256"
        }
      ],
      "name": "updateDynastyValue",
      "outputs": [],
      "payable": false,
      "stateMutability": "nonpayable",
      "type": "function"
    },
    {
      "constant": false,
      "inputs": [
        {
          "internalType": "address",
          "name": "newRootChain",
          "type": "address"
        }
      ],
      "name": "changeRootChain",
      "outputs": [],
      "payable": false,
      "stateMutability": "nonpayable",
      "type": "function"
    },
    {
      "constant": true,
      "inputs": [
        {
          "internalType": "uint256",
          "name": "validatorId",
          "type": "uint256"
        }
      ],
      "name": "validatorStake",
      "outputs": [
        {
          "internalType": "uint256",
          "name": "",
          "type": "uint256"
        }
      ],
      "payable": false,
      "stateMutability": "view",
      "type": "function"
    },
    {
      "constant": true,
      "inputs": [],
      "name": "logger",
      "outputs": [
        {
          "internalType": "contract StakingInfo",
          "name": "",
          "type": "address"
        }
      ],
      "payable": false,
      "stateMutability": "view",
      "type": "function"
    },
    {
      "constant": false,
      "inputs": [
        {
          "internalType": "bool",
          "name": "enabled",
          "type": "bool"
        }
      ],
      "name": "setDelegationEnabled",
      "outputs": [],
      "payable": false,
      "stateMutability": "nonpayable",
      "type": "function"
    },
    {
      "constant": false,
      "inputs": [
        {
          "internalType": "address",
          "name": "newOwner",
          "type": "address"
        }
      ],
      "name": "transferOwnership",
      "outputs": [],
      "payable": false,
      "stateMutability": "nonpayable",
      "type": "function"
    },
    {
      "constant": false,
      "inputs": [
        {
          "internalType": "uint256",
          "name": "validatorId",
          "type": "uint256"
        },
        {
          "internalType": "bytes",
          "name": "signerPubkey",
          "type": "bytes"
        }
      ],
      "name": "updateSigner",
      "outputs": [],
      "payable": false,
      "stateMutability": "nonpayable",
      "type": "function"
    },
    {
      "constant": false,
      "inputs": [
        {
          "internalType": "uint256",
          "name": "validatorId",
          "type": "uint256"
        },
        {
          "internalType": "address",
          "name": "newContractAddress",
          "type": "address"
        }
      ],
      "name": "updateContractAddress",
      "outputs": [],
      "payable": false,
      "stateMutability": "nonpayable",
      "type": "function"
    },
    {
      "constant": false,
      "inputs": [
        {
          "internalType": "uint256",
          "name": "forNCheckpoints",
          "type": "uint256"
        }
      ],
      "name": "stopAuctions",
      "outputs": [],
      "payable": false,
      "stateMutability": "nonpayable",
      "type": "function"
    },
    {
      "constant": false,
      "inputs": [],
      "name": "lock",
      "outputs": [],
      "payable": false,
      "stateMutability": "nonpayable",
      "type": "function"
    },
    {
      "constant": true,
      "inputs": [],
      "name": "minHeimdallFee",
      "outputs": [
        {
          "internalType": "uint256",
          "name": "",
          "type": "uint256"
        }
      ],
      "payable": false,
      "stateMutability": "view",
      "type": "function"
    },
    {
      "constant": true,
      "inputs": [],
      "name": "token",
      "outputs": [
        {
          "internalType": "contract IERC20",
          "name": "",
          "type": "address"
        }
      ],
      "payable": false,
      "stateMutability": "view",
      "type": "function"
    },
    {
      "inputs": [
        {
          "internalType": "address",
          "name": "_registry",
          "type": "address"
        },
        {
          "internalType": "address",
          "name": "_rootChain",
          "type": "address"
        },
        {
          "internalType": "address",
          "name": "_token",
          "type": "address"
        },
        {
          "internalType": "address",
          "name": "_NFTContract",
          "type": "address"
        },
        {
          "internalType": "address",
          "name": "_stakingLogger",
          "type": "address"
        },
        {
          "internalType": "address",
          "name": "_validatorShareFactory",
          "type": "address"
        },
        {
          "internalType": "address",
          "name": "_governance",
          "type": "address"
        }
      ],
      "payable": false,
      "stateMutability": "nonpayable",
      "type": "constructor"
    },
    {
      "anonymous": false,
      "inputs": [
        {
          "indexed": true,
          "internalType": "address",
          "name": "previousRootChain",
          "type": "address"
        },
        {
          "indexed": true,
          "internalType": "address",
          "name": "newRootChain",
          "type": "address"
        }
      ],
      "name": "RootChainChanged",
      "type": "event"
    },
    {
      "anonymous": false,
      "inputs": [
        {
          "indexed": true,
          "internalType": "address",
          "name": "previousOwner",
          "type": "address"
        },
        {
          "indexed": true,
          "internalType": "address",
          "name": "newOwner",
          "type": "address"
        }
      ],
      "name": "OwnershipTransferred",
      "type": "event"
    },
    {
      "constant": false,
      "inputs": [
        {
          "internalType": "uint256",
          "name": "blockInterval",
          "type": "uint256"
        },
        {
          "internalType": "bytes32",
          "name": "voteHash",
          "type": "bytes32"
        },
        {
          "internalType": "bytes32",
          "name": "stateRoot",
          "type": "bytes32"
        },
        {
          "internalType": "address",
          "name": "proposer",
          "type": "address"
        },
        {
          "internalType": "bytes",
          "name": "sigs",
          "type": "bytes"
        }
      ],
      "name": "checkSignatures",
      "outputs": [
        {
          "internalType": "uint256",
          "name": "",
          "type": "uint256"
        }
      ],
      "payable": false,
      "stateMutability": "nonpayable",
      "type": "function"
    }
  ],
  "bytecode": "0x6080604052610dd86009556001600a55610dd8600b556901119931efd9147c0000600c55670de0b6b3a7640000600d55670de0b6b3a7640000600e55610100600f556064601055600b60115560016013556004600b54816200005d57fe5b04601655600a601755601a805460ff191660011790553480156200008057600080fd5b506040516200573738038062005737833981810160405260e0811015620000a657600080fd5b50805160208201516040808401516060850151608086015160a087015160c090970151600080546001600160a01b03191633178082559551979896979496939592949192909182916001600160a01b03169082907f8be0079c531659141344cd1fd0a4f28419497f9722a3daafe3b4186f6b6457e0908290a3600280546001600f55600580546001600160a01b03199081166001600160a01b039d8e16179091556003805482169b8d169b909b17909a55600480548b16998c1699909917909855600780548a16978b1697909717909655600680548916958a1695909517909455506008805487169288169290921790915592841690851617909216921691909117905561557d80620001ba6000396000f3fe608060405234801561001057600080fd5b50600436106104b75760003560e01c806377939d1011610278578063bc8756a91161015c578063e8afa8e8116100ce578063f41a964211610092578063f41a96421461108d578063f4547a4d14611138578063f771fc8714611164578063f83d08ba14611181578063fba58f3414611189578063fc0c546a14611191576104b7565b8063e8afa8e814610ffd578063eceec1d314611023578063f24ccbfe14611040578063f28699fa14611048578063f2fde38b14611067576104b7565b8063cf30901211610120578063cf30901214610ed4578063d011027414610edc578063d7f5549d14610f80578063d86d53e714610f9d578063e1edc93014610fba578063e6692f4914610fe0576104b7565b8063bc8756a914610df2578063c45a015514610e24578063c8b194a214610e2c578063cbf383d514610eaf578063cd6b838814610ecc576104b7565b80639342c8f4116101f5578063a440ab1e116101b9578063a440ab1e14610d6e578063a476907114610d8b578063a69df4b514610d93578063a7ab696114610d9b578063b184be8114610da3578063b1d23f0214610dcf576104b7565b80639342c8f414610d01578063987ab9db14610d1e5780639a8a624314610d265780639b33f43414610d2e5780639ff1150014610d4b576104b7565b8063817b1cd21161023c578063817b1cd214610cc45780638da5cb5b14610ccc5780638f32d59b14610cd4578063900cf0cf14610cdc5780639146014914610ce4576104b7565b806377939d1014610c7e57806378f84a4414610c865780637b10399914610cac5780637d66975214610cb45780637f952d9514610cbc576104b7565b80634b341aed1161039f5780635c2488551161031c57806368cb812a116102e057806368cb812a14610b7c5780636901b25314610c2c5780637033e4a614610c5e5780637060054d14610c66578063715018a614610c6e5780637667180814610c76576104b7565b80635c24885514610a215780635e47655f14610a575780636352211e14610afb5780636365679814610b185780636400e38514610b44576104b7565b80635325e144116103635780635325e144146109a857806354b8c601146109ec5780635508d8e1146109f457806356342d8c146109fc5780635aa6e67514610a19576104b7565b80634b341aed146108885780634e3c83f1146108ae5780634fd101d7146108b65780634fdd20f1146108be5780634fee13fc14610985576104b7565b806317c2b9101161043857806331c2273b116103fc57806331c2273b1461075c578063342745861461078057806335aa2e44146107885780633862da0b1461081e57806341b3d1851461084457806348ab8b2a1461084c576104b7565b806317c2b910146106d357806325316411146106db5780632649263a146106e357806328cc4e41146107145780632e17de781461073f576104b7565b80630ebb172a1161047f5780630ebb172a14610645578063144fa6d71461064d57806316827b1b14610673578063174e683214610690578063178c2c83146106b6576104b7565b8063028c4c67146104bc578063066647a01461054157806306cfb104146106185780630cccfc58146106355780630e15561a1461063d575b600080fd5b61053f600480360360808110156104d257600080fd5b813591602081013591604082013515159190810190608081016060820135600160201b81111561050157600080fd5b82018360208201111561051357600080fd5b803590602001918460018302840111600160201b8311171561053457600080fd5b509092509050611199565b005b610606600480360360a081101561055757600080fd5b8135916020810135916040820135916001600160a01b036060820135169181019060a081016080820135600160201b81111561059257600080fd5b8201836020820111156105a457600080fd5b803590602001918460018302840111600160201b831117156105c557600080fd5b91908080601f0160208091040260200160405190810160405280939291908181526020018383808284376000920191909152509295506111e3945050505050565b60408051918252519081900360200190f35b61053f6004803603602081101561062e57600080fd5b50356111ef565b610606611205565b61060661120b565b610606611211565b61053f6004803603602081101561066357600080fd5b50356001600160a01b0316611217565b61053f6004803603602081101561068957600080fd5b503561125d565b610606600480360360208110156106a657600080fd5b50356001600160a01b03166112f2565b61053f600480360360208110156106cc57600080fd5b503561137c565b6106066116be565b6106066116c4565b610700600480360360208110156106f957600080fd5b50356116ca565b604080519115158252519081900360200190f35b61053f6004803603606081101561072a57600080fd5b5080359060208101359060400135151561174b565b61053f6004803603602081101561075557600080fd5b5035611b7a565b610764611d2c565b604080516001600160a01b039092168252519081900360200190f35b610606611d3b565b6107a56004803603602081101561079e57600080fd5b5035611d41565b60405180898152602001888152602001878152602001868152602001858152602001846001600160a01b03166001600160a01b03168152602001836001600160a01b03166001600160a01b0316815260200182600381111561080357fe5b60ff1681526020019850505050505050505060405180910390f35b6106066004803603602081101561083457600080fd5b50356001600160a01b0316611d97565b610606611da9565b61053f6004803603608081101561086257600080fd5b508035906001600160a01b03602082013581169160408101359091169060600135611daf565b6106066004803603602081101561089e57600080fd5b50356001600160a01b0316611ea9565b610606611fe0565b610606611fe6565b61053f600480360360a08110156108d457600080fd5b6001600160a01b0382351691602081013591604082013591606081013515159181019060a081016080820135600160201b81111561091157600080fd5b82018360208201111561092357600080fd5b803590602001918460018302840111600160201b8311171561094457600080fd5b91908080601f016020809104026020016040519081016040528093929190818152602001838380828437600092019190915250929550611fec945050505050565b61053f6004803603604081101561099b57600080fd5b50803590602001356120f3565b6109c5600480360360208110156109be57600080fd5b50356126ab565b6040805193845260208401929092526001600160a01b031682820152519081900360600190f35b6107006126d5565b6106066126de565b61076460048036036020811015610a1257600080fd5b50356126e4565b610764612702565b610a3e60048036036020811015610a3757600080fd5b5035612711565b6040805192835260208301919091528051918290030190f35b61060660048036036020811015610a6d57600080fd5b810190602081018135600160201b811115610a8757600080fd5b820183602082011115610a9957600080fd5b803590602001918460018302840111600160201b83111715610aba57600080fd5b91908080601f01602080910402602001604051908101604052809392919081815260200183838082843760009201919091525092955061272a945050505050565b61076460048036036020811015610b1157600080fd5b5035612a0b565b61053f60048036036040811015610b2e57600080fd5b506001600160a01b038135169060200135612a57565b61053f60048036036060811015610b5a57600080fd5b506001600160a01b038135811691602081013582169160409091013516612ab2565b61053f60048036036060811015610b9257600080fd5b813591602081013591810190606081016040820135600160201b811115610bb857600080fd5b820183602082011115610bca57600080fd5b803590602001918460018302840111600160201b83111715610beb57600080fd5b91908080601f016020809104026020016040519081016040528093929190818152602001838380828437600092019190915250929550612b3a945050505050565b61070060048036036060811015610c4257600080fd5b50803590602081013590604001356001600160a01b0316612d78565b610700612ec8565b610606612ecd565b61053f612ed3565b610606612f2e565b610606612f34565b61060660048036036020811015610c9c57600080fd5b50356001600160a01b0316612f3a565b610764612f4c565b610606612f5b565b610606612f61565b610606612f79565b610764612f7f565b610700612f8e565b610606612f9f565b61053f60048036036020811015610cfa57600080fd5b5035612fa5565b61053f60048036036020811015610d1757600080fd5b5035612fc5565b610764613241565b610606613250565b61053f60048036036020811015610d4457600080fd5b5035613256565b61053f60048036036040811015610d6157600080fd5b508035906020013561331b565b61053f60048036036020811015610d8457600080fd5b503561339f565b61060661340a565b61053f61341f565b610606613477565b61053f60048036036040811015610db957600080fd5b506001600160a01b03813516906020013561347d565b61053f60048036036040811015610de557600080fd5b508035906020013561358c565b61070060048036036060811015610e0857600080fd5b50803590602081013590604001356001600160a01b03166135a8565b610764613702565b61053f60048036036080811015610e4257600080fd5b813591602081013591604082013515159190810190608081016060820135600160201b811115610e7157600080fd5b820183602082011115610e8357600080fd5b803590602001918460018302840111600160201b83111715610ea457600080fd5b509092509050613711565b61053f60048036036020811015610ec557600080fd5b5035613b69565b610606613bfe565b610700613c04565b61076460048036036020811015610ef257600080fd5b810190602081018135600160201b811115610f0c57600080fd5b820183602082011115610f1e57600080fd5b803590602001918460018302840111600160201b83111715610f3f57600080fd5b91908080601f016020809104026020016040519081016040528093929190818152602001838380828437600092019190915250929550613c14945050505050565b61060660048036036020811015610f9657600080fd5b5035613c69565b61053f60048036036020811015610fb357600080fd5b5035613c7a565b61053f60048036036020811015610fd057600080fd5b50356001600160a01b0316613f74565b61053f60048036036020811015610ff657600080fd5b5035613fa7565b61053f6004803603602081101561101357600080fd5b50356001600160a01b031661406c565b6106066004803603602081101561103957600080fd5b50356140ec565b6107646140fe565b61053f6004803603602081101561105e57600080fd5b5035151561410d565b61053f6004803603602081101561107d57600080fd5b50356001600160a01b0316614169565b61053f600480360360408110156110a357600080fd5b81359190810190604081016020820135600160201b8111156110c457600080fd5b8201836020820111156110d657600080fd5b803590602001918460018302840111600160201b831117156110f757600080fd5b91908080601f016020809104026020016040519081016040528093929190818152602001838380828437600092019190915250929550614183945050505050565b61053f6004803603604081101561114e57600080fd5b50803590602001356001600160a01b031661445d565b61053f6004803603602081101561117a57600080fd5b5035614553565b61053f614577565b6106066145d5565b6107646145db565b6111dc3386868686868080601f016020809104026020016040519081016040528093929190818152602001838380828437600092019190915250611fec92505050565b5050505050565b600c5495945050505050565b6111f7612f8e565b61120057600080fd5b601055565b60165481565b60145481565b60095481565b61121f612f8e565b61122857600080fd5b6001600160a01b03811661123b57600080fd5b600480546001600160a01b0319166001600160a01b0392909216919091179055565b611265612f8e565b61126e57600080fd5b6000811161127b57600080fd5b60065460115460408051630f1980a560e41b8152600481018590526024810192909252516001600160a01b039092169163f1980a509160448082019260009290919082900301818387803b1580156112d257600080fd5b505af11580156112e6573d6000803e3d6000fd5b50505060119190915550565b60075460408051632f745c5960e01b81526001600160a01b038481166004830152600060248301819052925192931691632f745c5991604480820192602092909190829003018186803b15801561134857600080fd5b505afa15801561135c573d6000803e3d6000fd5b505050506040513d602081101561137257600080fd5b505190505b919050565b600754604080516331a9108f60e11b8152600481018490529051839233926001600160a01b0390911691636352211e91602480820192602092909190829003018186803b1580156113cc57600080fd5b505afa1580156113e0573d6000803e3d6000fd5b505050506040513d60208110156113f657600080fd5b50516001600160a01b03161461140b57600080fd5b60026000838152601b6020526040902060060154600160a01b900460ff16600381111561143457fe5b14611486576040805162461bcd60e51b815260206004820152601760248201527f56616c696461746f72206973206e6f74206a61696c6564000000000000000000604482015290519081900360640190fd5b6000828152601b6020526040902060030154156114ea576040805162461bcd60e51b815260206004820152601b60248201527f56616c696461746f7220616c726561647920756e7374616b696e670000000000604482015290519081900360640190fd5b600a546000838152601b602052604090206004015481101561154c576040805162461bcd60e51b8152602060048201526016602482015275125b98dbdb5c1b195d19481a985a5b081c195c9a5bd960521b604482015290519081900360640190fd5b6000838152601b6020526040902054600d5481101561156a57600080fd5b6000848152601b60205260408120600601546001600160a01b03161561160e576000858152601b602090815260408083206006015481516322f0f2f960e01b815291516001600160a01b03909116936322f0f2f993600480850194919392918390030190829087803b1580156115df57600080fd5b505af11580156115f3573d6000803e3d6000fd5b505050506040513d602081101561160957600080fd5b505190505b61162983611622848463ffffffff6145ea16565b6001614603565b6000858152601b60205260408082206006808201805460ff60a01b1916600160a01b17905554600590910154825163f92ec5af60e01b8152600481018a90526001600160a01b039182166024820152925191169263f92ec5af926044808201939182900301818387803b15801561169f57600080fd5b505af11580156116b3573d6000803e3d6000fd5b505050505050505050565b60185481565b600f5481565b6000818152601b60205260408120600281015460038201548254600690930154600a5492939192600160a01b90910460ff16908215801590611716575084158015906117165750808511155b8015611729575083158061172957508084115b80156117405750600182600381111561173e57fe5b145b979650505050505050565b600254600160a01b900460ff1615611796576040805162461bcd60e51b8152602060048201526009602482015268125cc8131bd8dad95960ba1b604482015290519081900360640190fd5b600754604080516331a9108f60e11b8152600481018690529051859233926001600160a01b0390911691636352211e91602480820192602092909190829003018186803b1580156117e657600080fd5b505afa1580156117fa573d6000803e3d6000fd5b505050506040513d602081101561181057600080fd5b50516001600160a01b03161461182557600080fd5b6000848152601b60205260409020600301541561187f576040805162461bcd60e51b81526020600482015260136024820152724e6f20757365206f662072657374616b696e6760681b604482015290519081900360640190fd5b82156119555760048054604080516323b872dd60e01b8152339381019390935230602484015260448301869052516001600160a01b03909116916323b872dd9160648083019260209291908290030181600087803b1580156118e057600080fd5b505af11580156118f4573d6000803e3d6000fd5b505050506040513d602081101561190a57600080fd5b5051611955576040805162461bcd60e51b8152602060048201526015602482015274151c985b9cd9995c881cdd185ad94819985a5b1959605a1b604482015290519081900360640190fd5b8115611a30576000848152601b602052604090206001015461197e90849063ffffffff6145ea16565b6000858152601b60205260409020600601549093506001600160a01b03168015611a1c57611a19816001600160a01b03166332ba2e536040518163ffffffff1660e01b8152600401602060405180830381600087803b1580156119e057600080fd5b505af11580156119f4573d6000803e3d6000fd5b505050506040513d6020811015611a0a57600080fd5b5051859063ffffffff6145ea16565b93505b506000848152601b60205260408120600101555b601254600090611a46908563ffffffff6145ea16565b60128190556000868152601b6020526040902054909150611a6d908563ffffffff6145ea16565b6000868152601b6020908152604080832093909355600a54808352601d909152828220805488019055600654835163532e19a960e01b8152600481018a9052935191936001600160a01b039091169263532e19a99260248084019382900301818387803b158015611add57600080fd5b505af1158015611af1573d6000803e3d6000fd5b50506006546000898152601b6020526040808220548151631585a9f360e21b8152600481018d905260248101919091526044810188905290516001600160a01b039093169450635616a7cc93506064808201939182900301818387803b158015611b5a57600080fd5b505af1158015611b6e573d6000803e3d6000fd5b50505050505050505050565b600754604080516331a9108f60e11b8152600481018490529051839233926001600160a01b0390911691636352211e91602480820192602092909190829003018186803b158015611bca57600080fd5b505afa158015611bde573d6000803e3d6000fd5b505050506040513d6020811015611bf457600080fd5b50516001600160a01b031614611c0957600080fd5b6000828152601f602052604090205415611c6a576040805162461bcd60e51b815260206004820152601b60248201527f5761697420666f722061756374696f6e20636f6d706c6574696f6e0000000000604482015290519081900360640190fd5b6000828152601b602052604090206002015415801590611c9957506000828152601b6020526040902060030154155b8015611cfb575060016000838152601b6020526040902060060154600160a01b900460ff166003811115611cc957fe5b1480611cfb575060026000838152601b6020526040902060060154600160a01b900460ff166003811115611cf957fe5b145b611d0457600080fd5b600a54600090611d1b90600163ffffffff6145ea16565b9050611d278382614625565b505050565b6007546001600160a01b031681565b60175481565b601b602052600090815260409020805460018201546002830154600384015460048501546005860154600690960154949593949293919290916001600160a01b039081169190811690600160a01b900460ff1688565b601c6020526000908152604090205481565b600d5481565b6002546001600160a01b03163314611df85760405162461bcd60e51b81526004018080602001828103825260268152602001806154d36026913960400191505060405180910390fd5b6000848152601b60205260409020600601546001600160a01b031680611e4f5760405162461bcd60e51b815260040180806020018281038252602a8152602001806154f9602a913960400191505060405180910390fd5b6040805163abf59fc960e01b81526001600160a01b0386811660048301528581166024830152604482018590529151839283169163abf59fc991606480830192600092919082900301818387803b158015611b5a57600080fd5b60006001600160a01b0382161580611f375750600754604080516370a0823160e01b81526001600160a01b038581166004830152915191909216916370a08231916024808301926020929190829003018186803b158015611f0957600080fd5b505afa158015611f1d573d6000803e3d6000fd5b505050506040513d6020811015611f3357600080fd5b5051155b15611f4457506000611377565b60075460408051632f745c5960e01b81526001600160a01b0385811660048301526000602483018190529251601b949190911691632f745c59916044808301926020929190829003018186803b158015611f9d57600080fd5b505afa158015611fb1573d6000803e3d6000fd5b505050506040513d6020811015611fc757600080fd5b5051815260208101919091526040016000205492915050565b60105481565b60115481565b600254600160a01b900460ff1615612037576040805162461bcd60e51b8152602060048201526009602482015268125cc8131bd8dad95960ba1b604482015290519081900360640190fd5b601154612042612f61565b1061207e5760405162461bcd60e51b815260040180806020018281038252602181526020018061548e6021913960400191505060405180910390fd5b600d5484116120d4576040805162461bcd60e51b815260206004820152601960248201527f6d696e206465706f736974206c696d6974206661696c65642100000000000000604482015290519081900360640190fd5b6120df8584866148b4565b6120eb85858484614a91565b505050505050565b600254600160a01b900460ff161561213e576040805162461bcd60e51b8152602060048201526009602482015268125cc8131bd8dad95960ba1b604482015290519081900360640190fd5b6000828152601b60205260409020805460039091015415801561216057508015155b6121b1576040805162461bcd60e51b815260206004820181905260248201527f496e76616c69642076616c696461746f7220666f7220616e2061756374696f6e604482015290519081900360640190fd5b336000818152601c60209081526040918290205460075483516370a0823160e01b81526004810195909552925190936001600160a01b03909316926370a08231926024808301939192829003018186803b15801561220e57600080fd5b505afa158015612222573d6000803e3d6000fd5b505050506040513d602081101561223857600080fd5b505115801561224957506000198114155b612291576040805162461bcd60e51b8152602060048201526014602482015273416c72656164792075736564206164647265737360601b604482015290519081900360640190fd5b600a546019548015806122a45750818111155b6122e7576040805162461bcd60e51b815260206004820152600f60248201526e10dbdbdb191bdddb881c195c9a5bd9608a1b604482015290519081900360640190fd5b601654600b546122fd908263ffffffff6145ea16565b6000888152601b602052604090206002015461232090859063ffffffff614ea616565b8161232757fe5b061115612374576040805162461bcd60e51b8152602060048201526016602482015275125b9d985b1a5908185d58dd1a5bdb881c195c9a5bd960521b604482015290519081900360640190fd5b6000868152601b602052604090206006015484906001600160a01b0316801561240f5761240c816001600160a01b0316633a09bf446040518163ffffffff1660e01b815260040160206040518083038186803b1580156123d357600080fd5b505afa1580156123e7573d6000803e3d6000fd5b505050506040513d60208110156123fd57600080fd5b5051839063ffffffff6145ea16565b91505b6000888152601f6020526040902080546124298482614ebb565b9350888410612471576040805162461bcd60e51b815260206004820152600f60248201526e26bab9ba103134b2103434b3b432b960891b604482015290519081900360640190fd5b60048054604080516323b872dd60e01b81523393810193909352306024840152604483018c9052516001600160a01b03909116916323b872dd9160648083019260209291908290030181600087803b1580156124cc57600080fd5b505af11580156124e0573d6000803e3d6000fd5b505050506040513d60208110156124f657600080fd5b5051612542576040805162461bcd60e51b8152602060048201526016602482015275151c985b9cd9995c88185b5bdd5b9d0819985a5b195960521b604482015290519081900360640190fd5b8015612614576004805460028401546040805163a9059cbb60e01b81526001600160a01b0392831694810194909452602484018590525191169163a9059cbb9160448083019260209291908290030181600087803b1580156125a357600080fd5b505af11580156125b7573d6000803e3d6000fd5b505050506040513d60208110156125cd57600080fd5b5051612614576040805162461bcd60e51b8152602060048201526011602482015270109a59081c995d1d5c9b8819985a5b1959607a1b604482015290519081900360640190fd5b8882556002820180546001600160a01b0319163317905560065460408051630934a6df60e01b8152600481018d9052602481018b9052604481018c905290516001600160a01b039290921691630934a6df9160648082019260009290919082900301818387803b15801561268757600080fd5b505af115801561269b573d6000803e3d6000fd5b5050505050505050505050505050565b601f602052600090815260409020805460018201546002909201549091906001600160a01b031683565b601a5460ff1681565b60135481565b6000908152601b60205260409020600601546001600160a01b031690565b6002546001600160a01b031681565b601d602052600090815260409020805460019091015482565b6000336001600160a01b0316600560009054906101000a90046001600160a01b03166001600160a01b031663d580b4186040518163ffffffff1660e01b815260040160206040518083038186803b15801561278457600080fd5b505afa158015612798573d6000803e3d6000fd5b505050506040513d60208110156127ae57600080fd5b50516001600160a01b03161461280b576040805162461bcd60e51b815260206004820181905260248201527f53656e646572206d75737420626520736c617368696e67206d616e6167657221604482015290519081900360640190fd5b606061281e61281984614ed2565b614ef7565b905060008080805b84518110156129de57606061284d86838151811061284057fe5b6020026020010151614ef7565b9050600061286e8260008151811061286157fe5b6020026020010151614fc8565b905060006128828360018151811061286157fe5b9050612894858263ffffffff6145ea16565b6000838152601b60205260409020600601549095506001600160a01b03161561295c576000828152601b602090815260408083206006810154905482516314454c8560e31b815260048101919091526024810186905291516001600160a01b039091169263a22a6428926044808201939182900301818787803b15801561291a57600080fd5b505af115801561292e573d6000803e3d6000fd5b505050506040513d602081101561294457600080fd5b50519050612958828263ffffffff614ea616565b9150505b6000828152601b602052604090205461297b908263ffffffff614ea616565b6000838152601b602052604090205582516129aa908490600290811061299d57fe5b6020026020010151615028565b156129d3576129ca6129bd83600161505c565b879063ffffffff6145ea16565b60019097019695505b505050600101612826565b50600a54612a02906129f6838563ffffffff6145ea16565b60000385600003614603565b95945050505050565b600754604080516331a9108f60e11b81526004810184905290516000926001600160a01b031691636352211e916024808301926020929190829003018186803b15801561134857600080fd5b600254600160a01b900460ff1615612aa2576040805162461bcd60e51b8152602060048201526009602482015268125cc8131bd8dad95960ba1b604482015290519081900360640190fd5b612aae828260006148b4565b5050565b6002546001600160a01b03163314612afb5760405162461bcd60e51b81526004018080602001828103825260268152602001806154d36026913960400191505060405180910390fd5b600780546001600160a01b039485166001600160a01b031991821617909155600680549385169382169390931790925560088054919093169116179055565b604080513360208083018290528284018790528351808403850181526060840194859052805190820120601854631b23d15760e21b909552606484018181526084850188905260a48501869052608060c48601908152875160e48701528751949673__Merkle________________________________96636c8f455c9694958b9592948b9490939092610104019185019080838360005b83811015612be9578181015183820152602001612bd1565b50505050905090810190601f168015612c165780820380516001836020036101000a031916815260200191505b509550505050505060206040518083038186803b158015612c3657600080fd5b505af4158015612c4a573d6000803e3d6000fd5b505050506040513d6020811015612c6057600080fd5b5051612ca5576040805162461bcd60e51b815260206004820152600f60248201526e2bb937b7339030b1b190383937b7b360891b604482015290519081900360640190fd5b6001600160a01b0381166000908152601e6020526040812054612ccf90869063ffffffff614ea616565b9050612cdb82826151d2565b6001600160a01b038083166000818152601e602090815260408083208a905560048054825163a9059cbb60e01b815291820195909552602481018790529051939094169363a9059cbb9360448083019491928390030190829087803b158015612d4357600080fd5b505af1158015612d57573d6000803e3d6000fd5b505050506040513d6020811015612d6d57600080fd5b50516111dc57600080fd5b601a5460009060ff16612dcb576040805162461bcd60e51b815260206004820152601660248201527511195b1959d85d1a5bdb881a5cc8191a5cd8589b195960521b604482015290519081900360640190fd5b6000848152601b60205260409020600601546001600160a01b03163314612e34576040805162461bcd60e51b8152602060048201526018602482015277496e76616c696420636f6e7472616374206164647265737360401b604482015290519081900360640190fd5b60048054604080516323b872dd60e01b81526001600160a01b038681169482019490945230602482015260448101879052905192909116916323b872dd916064808201926020929091908290030181600087803b158015612e9457600080fd5b505af1158015612ea8573d6000803e3d6000fd5b505050506040513d6020811015612ebe57600080fd5b5051949350505050565b600090565b600b5481565b612edb612f8e565b612ee457600080fd5b600080546040516001600160a01b03909116907f8be0079c531659141344cd1fd0a4f28419497f9722a3daafe3b4186f6b6457e0908390a3600080546001600160a01b0319169055565b600a5481565b60195481565b601e6020526000908152604090205481565b6005546001600160a01b031681565b600c5481565b600a546000908152601d602052604090206001015490565b60125481565b6000546001600160a01b031690565b6000546001600160a01b0316331490565b600a5490565b612fad612f8e565b612fb657600080fd5b612fc281600a54614625565b50565b600754604080516331a9108f60e11b8152600481018490529051839233926001600160a01b0390911691636352211e91602480820192602092909190829003018186803b15801561301557600080fd5b505afa158015613029573d6000803e3d6000fd5b505050506040513d602081101561303f57600080fd5b50516001600160a01b03161461305457600080fd5b6000828152601b6020526040902060018101546006909101546001600160a01b031680156130d1576130ce816001600160a01b03166332ba2e536040518163ffffffff1660e01b8152600401602060405180830381600087803b1580156130ba57600080fd5b505af11580156123e7573d6000803e3d6000fd5b91505b6015546130e4908363ffffffff6145ea16565b6015556000848152601b6020908152604080832060010183905560048054825163a9059cbb60e01b815233928101929092526024820187905291516001600160a01b039092169363a9059cbb9360448084019491939192918390030190829087803b15801561315257600080fd5b505af1158015613166573d6000803e3d6000fd5b505050506040513d602081101561317c57600080fd5b50516131c5576040805162461bcd60e51b8152602060048201526013602482015272496e737566666963656e74207265776172647360681b604482015290519081900360640190fd5b60065460155460408051635b42d93560e11b815260048101889052602481018690526044810192909252516001600160a01b039092169163b685b26a9160648082019260009290919082900301818387803b15801561322357600080fd5b505af1158015613237573d6000803e3d6000fd5b5050505050505050565b6003546001600160a01b031681565b60215481565b61325e612f8e565b61326757600080fd5b6006546017546040805163a3b1d8cb60e01b8152600481018590526024810192909252516001600160a01b039092169163a3b1d8cb9160448082019260009290919082900301818387803b1580156132be57600080fd5b505af11580156132d2573d6000803e3d6000fd5b505050506064811115613316576040805162461bcd60e51b8152602060048201526007602482015266746f6f2062696760c81b604482015290519081900360640190fd5b601755565b6000828152601b60205260409020600601546001600160a01b03163314613384576040805162461bcd60e51b8152602060048201526018602482015277496e76616c696420636f6e7472616374206164647265737360401b604482015290519081900360640190fd5b600a546000908152601d602052604090208054909101905550565b6133a7612f8e565b6133b057600080fd5b60008111613405576040805162461bcd60e51b815260206004820181905260248201527f426c6f636b7320696e74657276616c206d757374206265206e6f6e2d7a65726f604482015290519081900360640190fd5b600f55565b600a546000908152601d602052604090205490565b6002546001600160a01b031633146134685760405162461bcd60e51b81526004018080602001828103825260268152602001806154d36026913960400191505060405180910390fd5b6002805460ff60a01b19169055565b60095490565b6002546001600160a01b031633146134c65760405162461bcd60e51b81526004018080602001828103825260268152602001806154d36026913960400191505060405180910390fd5b600480546040805163a9059cbb60e01b81526001600160a01b0386811694820194909452602481018590529051929091169163a9059cbb916044808201926020929091908290030181600087803b15801561352057600080fd5b505af1158015613534573d6000803e3d6000fd5b505050506040513d602081101561354a57600080fd5b5051612aae576040805162461bcd60e51b815260206004820152600c60248201526b111c985a5b8819985a5b195960a21b604482015290519081900360640190fd5b613594612f8e565b61359d57600080fd5b600d91909155600e55565b6000336001600160a01b0316600560009054906101000a90046001600160a01b03166001600160a01b031663d580b4186040518163ffffffff1660e01b815260040160206040518083038186803b15801561360257600080fd5b505afa158015613616573d6000803e3d6000fd5b505050506040513d602081101561362c57600080fd5b50516001600160a01b0316148061365c57506000848152601b60205260409020600601546001600160a01b031633145b6136a8576040805162461bcd60e51b8152602060048201526018602482015277496e76616c696420636f6e7472616374206164647265737360401b604482015290519081900360640190fd5b600480546040805163a9059cbb60e01b81526001600160a01b0386811694820194909452602481018790529051929091169163a9059cbb916044808201926020929091908290030181600087803b158015612e9457600080fd5b6008546001600160a01b031681565b600254600160a01b900460ff161561375c576040805162461bcd60e51b8152602060048201526009602482015268125cc8131bd8dad95960ba1b604482015290519081900360640190fd5b6000858152601f6020526040902060028101546001600160a01b03163381148061378d57508661378b336112f2565b145b6137c85760405162461bcd60e51b81526004018080602001828103825260248152602001806154af6024913960400191505060405180910390fd5b600a54601654600b546137e290829063ffffffff6145ea16565b60018501546137f890849063ffffffff614ea616565b816137ff57fe5b061015613853576040805162461bcd60e51b815260206004820181905260248201527f4e6f7420616c6c6f776564206265666f72652061756374696f6e506572696f64604482015290519081900360640190fd5b6000888152601b6020526040902080548454600690920154909182916001600160a01b031680156138f6576138f3816001600160a01b0316633a09bf446040518163ffffffff1660e01b815260040160206040518083038186803b1580156138ba57600080fd5b505afa1580156138ce573d6000803e3d6000fd5b505050506040513d60208110156138e457600080fd5b5051849063ffffffff6145ea16565b92505b818310158015613915575060008c8152601b6020526040902060030154155b15613a6457600480546040805163a9059cbb60e01b81526001600160a01b038a811694820194909452602481018690529051929091169163a9059cbb916044808201926020929091908290030181600087803b15801561397457600080fd5b505af1158015613988573d6000803e3d6000fd5b505050506040513d602081101561399e57600080fd5b50516139e5576040805162461bcd60e51b8152602060048201526011602482015270109a59081c995d1d5c9b8819985a5b1959607a1b604482015290519081900360640190fd5b600187018590556006546040805163e12ab1af60e01b8152600481018f9052602481018f90526044810187905290516001600160a01b039092169163e12ab1af9160648082019260009290919082900301818387803b158015613a4757600080fd5b505af1158015613a5b573d6000803e3d6000fd5b50505050613b45565b613a70868c60006148b4565b613a7a8c86614625565b6000613abe87848d8d8d8080601f016020809104026020016040519081016040528093929190818152602001838380828437600092019190915250614a9192505050565b9050600660009054906101000a90046001600160a01b03166001600160a01b031663e12ab1af828f866040518463ffffffff1660e01b8152600401808481526020018381526020018281526020019350505050600060405180830381600087803b158015613b2b57600080fd5b505af1158015613b3f573d6000803e3d6000fd5b50505050505b505060008555505050600290910180546001600160a01b0319169055505050505050565b613b71612f8e565b613b7a57600080fd5b60008111613b8757600080fd5b600654600c5460408051632dbe9d3160e21b8152600481018590526024810192909252516001600160a01b039092169163b6fa74c49160448082019260009290919082900301818387803b158015613bde57600080fd5b505af1158015613bf2573d6000803e3d6000fd5b505050600c9190915550565b60155481565b600254600160a01b900460ff1681565b60008151604014613c5d576040805162461bcd60e51b815260206004820152600e60248201526d496e76616c6964207075626b657960901b604482015290519081900360640190fd5b50805160209091012090565b602080526000908152604090205481565b600754604080516331a9108f60e11b8152600481018490529051839233926001600160a01b0390911691636352211e91602480820192602092909190829003018186803b158015613cca57600080fd5b505afa158015613cde573d6000803e3d6000fd5b505050506040513d6020811015613cf457600080fd5b50516001600160a01b031614613d0957600080fd5b6000828152601b60205260409020600301548015801590613d3f5750600a54600954613d3c90839063ffffffff6145ea16565b11155b8015613d72575060036000848152601b6020526040902060060154600160a01b900460ff166003811115613d6f57fe5b14155b613d7b57600080fd5b6000838152601b6020526040812054601254909190613da0908363ffffffff614ea616565b601281905560075460408051630852cd8d60e31b81526004810189905290519293506001600160a01b03909116916342966c689160248082019260009290919082900301818387803b158015613df557600080fd5b505af1158015613e09573d6000803e3d6000fd5b5050506000868152601b6020818152604080842060058101546001600160a01b039081168652601c845282862060001990558b8652938352600601805460ff60a01b1916600360a01b17905560048054825163a9059cbb60e01b8152339281019290925260248201899052915191909316945063a9059cbb936044808501948390030190829087803b158015613e9e57600080fd5b505af1158015613eb2573d6000803e3d6000fd5b505050506040513d6020811015613ec857600080fd5b5051613f13576040805162461bcd60e51b8152602060048201526015602482015274151c985b9cd9995c881cdd185ad94819985a5b1959605a1b604482015290519081900360640190fd5b6006546040805163ae2e26b160e01b815233600482015260248101889052604481018590526064810184905290516001600160a01b039092169163ae2e26b19160848082019260009290919082900301818387803b15801561169f57600080fd5b613f7c612f8e565b613f8557600080fd5b600880546001600160a01b0319166001600160a01b0392909216919091179055565b613faf612f8e565b613fb857600080fd5b60008111613fc557600080fd5b600654600b5460408051635071805360e11b8152600481018590526024810192909252516001600160a01b039092169163a0e300a69160448082019260009290919082900301818387803b15801561401c57600080fd5b505af1158015614030573d6000803e3d6000fd5b505050600b82905550600981905561404f81600463ffffffff61525116565b6016819055600a546140669163ffffffff6145ea16565b60195550565b614074612f8e565b61407d57600080fd5b6001600160a01b03811661409057600080fd5b6003546040516001600160a01b038084169216907f211c9015fc81c0dbd45bd99f0f29fc1c143bfd53442d5ffd722bbbef7a887fe990600090a3600380546001600160a01b0319166001600160a01b0392909216919091179055565b6000908152601b602052604090205490565b6006546001600160a01b031681565b6002546001600160a01b031633146141565760405162461bcd60e51b81526004018080602001828103825260268152602001806154d36026913960400191505060405180910390fd5b601a805460ff1916911515919091179055565b614171612f8e565b61417a57600080fd5b612fc281615273565b600754604080516331a9108f60e11b8152600481018590529051849233926001600160a01b0390911691636352211e91602480820192602092909190829003018186803b1580156141d357600080fd5b505afa1580156141e7573d6000803e3d6000fd5b505050506040513d60208110156141fd57600080fd5b50516001600160a01b03161461421257600080fd5b600061421d83613c14565b90506001600160a01b0381161580159061424d57506001600160a01b0381166000908152601c6020526040902054155b61428f576040805162461bcd60e51b815260206004820152600e60248201526d24b73b30b634b21039b4b3b732b960911b604482015290519081900360640190fd5b600a5460105460008681526020805260409020546142b29163ffffffff6145ea16565b811015614306576040805162461bcd60e51b815260206004820152601a60248201527f496e76616c696420636865636b706f696e74206e756d62657221000000000000604482015290519081900360640190fd5b6000858152601b6020908152604080832060050154600654915163b80fbce560e01b8152600481018a81526001600160a01b039283166024830181905288841660448401526080606484019081528b5160848501528b519197949095169563b80fbce5958d9589958c958f95909460a490920192918601918190849084905b8381101561439d578181015183820152602001614385565b50505050905090810190601f1680156143ca5780820380516001836020036101000a031916815260200191505b5095505050505050600060405180830381600087803b1580156143ec57600080fd5b505af1158015614400573d6000803e3d6000fd5b5050506001600160a01b039182166000908152601c60209081526040808320600019905595909316808252858220899055978152601b835284812060050180546001600160a01b0319169098179097555080529320929092555050565b614465612f8e565b61446e57600080fd5b306001600160a01b0316816001600160a01b0316638da5cb5b6040518163ffffffff1660e01b815260040160206040518083038186803b1580156144b157600080fd5b505afa1580156144c5573d6000803e3d6000fd5b505050506040513d60208110156144db57600080fd5b50516001600160a01b0316146145225760405162461bcd60e51b81526004018080602001828103825260268152602001806155236026913960400191505060405180910390fd5b6000918252601b602052604090912060060180546001600160a01b0319166001600160a01b03909216919091179055565b61455b612f8e565b61456457600080fd5b600a54614066908263ffffffff6145ea16565b6002546001600160a01b031633146145c05760405162461bcd60e51b81526004018080602001828103825260268152602001806154d36026913960400191505060405180910390fd5b6002805460ff60a01b1916600160a01b179055565b600e5481565b6004546001600160a01b031681565b6000828201838110156145fc57600080fd5b9392505050565b6000928352601d60205260409092208054909101815560010180549091019055565b6000828152601b60205260408120549061463e84612a0b565b6000858152601b6020526040812060038101869055600181015460069091015492935090916001600160a01b031680156147365760008190506146c9816001600160a01b03166332ba2e536040518163ffffffff1660e01b8152600401602060405180830381600087803b1580156146b557600080fd5b505af11580156138ce573d6000803e3d6000fd5b9250806001600160a01b031663753868e36040518163ffffffff1660e01b8152600401602060405180830381600087803b15801561470657600080fd5b505af115801561471a573d6000803e3d6000fd5b505050506040513d602081101561473057600080fd5b50519350505b6000878152601b6020908152604080832060010183905560048054825163a9059cbb60e01b81526001600160a01b038a81169382019390935260248101889052925191169363a9059cbb93604480850194919392918390030190829087803b1580156147a157600080fd5b505af11580156147b5573d6000803e3d6000fd5b505050506040513d60208110156147cb57600080fd5b505161481e576040805162461bcd60e51b815260206004820152601760248201527f52657761726473207472616e73666572206661696c6564000000000000000000604482015290519081900360640190fd5b61483086848701600003600019614603565b60065460408051635e04d48360e01b81526001600160a01b038781166004830152602482018b9052604482018a90526064820189905291519190921691635e04d48391608480830192600092919082900301818387803b15801561489357600080fd5b505af11580156148a7573d6000803e3d6000fd5b5050505050505050505050565b600e5482101561490b576040805162461bcd60e51b815260206004820152601760248201527f4e6f7420656e6f756768206865696d64616c6c20666565000000000000000000604482015290519081900360640190fd5b6004546001600160a01b03166323b872dd333061492e868663ffffffff6145ea16565b6040518463ffffffff1660e01b815260040180846001600160a01b03166001600160a01b03168152602001836001600160a01b03166001600160a01b031681526020018281526020019350505050602060405180830381600087803b15801561499657600080fd5b505af11580156149aa573d6000803e3d6000fd5b505050506040513d60208110156149c057600080fd5b5051614a09576040805162461bcd60e51b8152602060048201526013602482015272119959481d1c985b9cd9995c8819985a5b1959606a1b604482015290519081900360640190fd5b602154614a1c908363ffffffff6145ea16565b6021556006546040805163a449d79560e01b81526001600160a01b038681166004830152602482018690529151919092169163a449d79591604480830192600092919082900301818387803b158015614a7457600080fd5b505af1158015614a88573d6000803e3d6000fd5b50505050505050565b600080614a9d83613c14565b90506001600160a01b03811615801590614acd57506001600160a01b0381166000908152601c6020526040902054155b614b0f576040805162461bcd60e51b815260206004820152600e60248201526d24b73b30b634b21039b4b3b732b960911b604482015290519081900360640190fd5b600a546013546006546012546001600160a01b0390911690600090614b3a908a63ffffffff6145ea16565b9050806012819055506040518061010001604052808a8152602001600081526020018581526020016000815260200160008152602001866001600160a01b0316815260200189614b8b576000614c19565b6008546005546040805163d4ad267360e01b8152600481018990526001600160a01b03888116602483015292831660448201529051919092169163d4ad26739160648083019260209291908290030181600087803b158015614bec57600080fd5b505af1158015614c00573d6000803e3d6000fd5b505050506040513d6020811015614c1657600080fd5b50515b6001600160a01b03168152602001600190526000848152601b60209081526040918290208351815590830151600182015590820151600282015560608201516003808301919091556080830151600483015560a08301516005830180546001600160a01b039283166001600160a01b03199182161790915560c08501516006850180549190931691161780825560e08501519260ff60a01b1990911690600160a01b908490811115614cc757fe5b02179055505050600083815260208052604080822086905560075481516340c10f1960e01b81526001600160a01b038e8116600483015260248201889052925192909116926340c10f199260448084019382900301818387803b158015614d2d57600080fd5b505af1158015614d41573d6000803e3d6000fd5b5050506001600160a01b0386166000908152601c6020526040902084905550614d6c848a6001614603565b83601f600085815260200190815260200160002060010181905550816001600160a01b03166333a8383c868986888e876040518763ffffffff1660e01b815260040180876001600160a01b03166001600160a01b0316815260200180602001868152602001858152602001848152602001838152602001828103825287818151815260200191508051906020019080838360005b83811015614e18578181015183820152602001614e00565b50505050905090810190601f168015614e455780820380516001836020036101000a031916815260200191505b50975050505050505050600060405180830381600087803b158015614e6957600080fd5b505af1158015614e7d573d6000803e3d6000fd5b50505050614e956001846145ea90919063ffffffff16565b601355509098975050505050505050565b600082821115614eb557600080fd5b50900390565b600081831015614ecb57816145fc565b5090919050565b614eda615473565b506040805180820190915281518152602082810190820152919050565b6060614f02826152e1565b614f0b57600080fd5b6000614f168361531b565b9050606081604051908082528060200260200182016040528015614f5457816020015b614f41615473565b815260200190600190039081614f395790505b5090506000614f668560200151615377565b60208601510190506000805b84811015614fbd57614f83836153da565b9150604051806040016040528083815260200184815250848281518110614fa657fe5b602090810291909101015291810191600101614f72565b509195945050505050565b805160009015801590614fdd57508151602110155b614fe657600080fd5b6000614ff58360200151615377565b8351602080860151830180519394509184900392919083101561501f57826020036101000a820491505b50949350505050565b805160009060011461503957600080fd5b6020820151805160001a908115615051576001615054565b60005b949350505050565b6000828152601b602052604081206006015481906001600160a01b031615615102576000848152601b6020908152604080832060060154815163753868e360e01b815291516001600160a01b039091169363753868e393600480850194919392918390030190829087803b1580156150d357600080fd5b505af11580156150e7573d6000803e3d6000fd5b505050506040513d60208110156150fd57600080fd5b505190505b600a54615115818563ffffffff6145ea16565b6000868152601b60205260408082206004808201949094556006808201805460ff60a01b1916600160a11b1790555460059091015482516381dc101b60e01b81529485018a9052602485018690526001600160a01b03908116604486015291519116926381dc101b92606480830193919282900301818387803b15801561519b57600080fd5b505af11580156151af573d6000803e3d6000fd5b5050506000868152601b6020526040902054612a0291508363ffffffff6145ea16565b6021546151e5908263ffffffff614ea616565b6021556006546040805163122b648160e01b81526001600160a01b038581166004830152602482018590529151919092169163122b648191604480830192600092919082900301818387803b15801561523d57600080fd5b505af11580156120eb573d6000803e3d6000fd5b600080821161525f57600080fd5b600082848161526a57fe5b04949350505050565b6001600160a01b03811661528657600080fd5b600080546040516001600160a01b03808516939216917f8be0079c531659141344cd1fd0a4f28419497f9722a3daafe3b4186f6b6457e091a3600080546001600160a01b0319166001600160a01b0392909216919091179055565b80516000906152f257506000611377565b6020820151805160001a9060c082101561531157600092505050611377565b5060019392505050565b805160009061532c57506000611377565b600080905060006153408460200151615377565b602085015185519181019250015b8082101561536e5761535f826153da565b6001909301929091019061534e565b50909392505050565b8051600090811a6080811015615391576000915050611377565b60b88110806153ac575060c081108015906153ac575060f881105b156153bb576001915050611377565b60c08110156153cf5760b519019050611377565b60f519019050611377565b80516000908190811a60808110156153f5576001915061546c565b60b881101561540a57607e198101915061546c565b60c08110156154375760b78103600185019450806020036101000a8551046001820181019350505061546c565b60f881101561544c5760be198101915061546c565b60f78103600185019450806020036101000a855104600182018101935050505b5092915050565b60405180604001604052806000815260200160008152509056fe56616c696461746f7220736574205468726573686f6c64206578636565646564214f6e6c7920626964646572206f722076616c696461746f722063616e20636f6e6669726d4f6e6c7920676f7665726e616e636520636f6e747261637420697320617574686f72697a6564756e6b6e6f776e2076616c696461746f72206f72206e6f2064656c65676174696f6e20656e61626c65644f776e6572206f6620636f6e7472616374206d757374206265207374616b654d616e61676572a265627a7a72315820a38602d5609fdb3ef7f156c3f45dcdd62c4fcf246ec256bc3f9239ef14e9f97d64736f6c634300050b0032",
  "source": "pragma solidity ^0.5.2;\n\nimport {IERC20} from \"openzeppelin-solidity/contracts/token/ERC20/IERC20.sol\";\n\nimport {IGovernance} from \"../common/governance/IGovernance.sol\";\nimport {StakeManager} from \"../staking/stakeManager/StakeManager.sol\";\nimport {StakingInfo} from \"../staking/StakingInfo.sol\";\nimport {StakingNFT} from \"../staking/stakeManager/StakingNFT.sol\";\nimport \"../staking/validatorShare/ValidatorShareFactory.sol\";\n\n\ncontract StakeManagerTest is StakeManager {\n    modifier onlyRootChain() {\n        _;\n    }\n\n    constructor(\n        address _registry,\n        address _rootChain,\n        address _token,\n        address _NFTContract,\n        address _stakingLogger,\n        address _validatorShareFactory,\n        address _governance\n    ) public {\n        checkPointBlockInterval = 1;\n        registry = _registry;\n        rootChain = _rootChain;\n        token = IERC20(_token);\n        NFTContract = StakingNFT(_NFTContract);\n        logger = StakingInfo(_stakingLogger);\n        factory = ValidatorShareFactory(_validatorShareFactory);\n        governance = IGovernance(_governance);\n    }\n\n    function checkSignatures(\n        uint256 blockInterval,\n        bytes32 voteHash,\n        bytes32 stateRoot,\n        address proposer,\n        bytes memory sigs\n    ) public onlyRootChain returns (uint256) {\n        return CHECKPOINT_REWARD; // for dummy tests return full reward\n    }\n}\n",
  "sourcePath": "/Users/arth/Documents/Projects/contracts/contracts/test/StakeManagerTest.sol",
  "compiler": {
    "name": "solc",
    "version": "0.5.11+commit.c082d0b4.Emscripten.clang"
  },
  "schemaVersion": "3.0.14",
  "updatedAt": "2020-05-30T17:05:45.998Z",
  "devdoc": {
    "methods": {
      "changeRootChain(address)": {
        "details": "Allows the current owner to change root chain address.",
        "params": {
          "newRootChain": "The address to new rootchain."
        }
      },
      "isOwner()": {
        "return": "true if `msg.sender` is the owner of the contract."
      },
      "owner()": {
        "return": "the address of the owner."
      },
      "renounceOwnership()": {
        "details": "Allows the current owner to relinquish control of the contract. It will not be possible to call the functions with the `onlyOwner` modifier anymore."
      },
      "transferOwnership(address)": {
        "details": "Allows the current owner to transfer control of the contract to a newOwner.",
        "params": {
          "newOwner": "The address to transfer ownership to."
        }
      }
    }
  },
  "userdoc": {
    "methods": {
      "renounceOwnership()": {
        "notice": "Renouncing ownership will leave the contract without an owner, thereby removing any functionality that is only available to the owner."
      }
    }
  }
}