{
  "contractName": "RootChain",
  "abi": [
    {
      "constant": true,
      "inputs": [
        {
          "internalType": "uint256",
          "name": "",
          "type": "uint256"
        }
      ],
      "name": "headerBlocks",
      "outputs": [
        {
          "internalType": "bytes32",
          "name": "root",
          "type": "bytes32"
        },
        {
          "internalType": "uint256",
          "name": "start",
          "type": "uint256"
        },
        {
          "internalType": "uint256",
          "name": "end",
          "type": "uint256"
        },
        {
          "internalType": "uint256",
          "name": "createdAt",
          "type": "uint256"
        },
        {
          "internalType": "address",
          "name": "proposer",
          "type": "address"
        }
      ],
      "payable": false,
      "stateMutability": "view",
      "type": "function"
    },
    {
      "constant": false,
      "inputs": [],
      "name": "renounceOwnership",
      "outputs": [],
      "payable": false,
      "stateMutability": "nonpayable",
      "type": "function"
    },
    {
      "constant": true,
      "inputs": [],
      "name": "_nextHeaderBlock",
      "outputs": [
        {
          "internalType": "uint256",
          "name": "",
          "type": "uint256"
        }
      ],
      "payable": false,
      "stateMutability": "view",
      "type": "function"
    },
    {
      "constant": true,
      "inputs": [],
      "name": "owner",
      "outputs": [
        {
          "internalType": "address",
          "name": "",
          "type": "address"
        }
      ],
      "payable": false,
      "stateMutability": "view",
      "type": "function"
    },
    {
      "constant": true,
      "inputs": [],
      "name": "isOwner",
      "outputs": [
        {
          "internalType": "bool",
          "name": "",
          "type": "bool"
        }
      ],
      "payable": false,
      "stateMutability": "view",
      "type": "function"
    },
    {
      "constant": true,
      "inputs": [],
      "name": "VOTE_TYPE",
      "outputs": [
        {
          "internalType": "uint8",
          "name": "",
          "type": "uint8"
        }
      ],
      "payable": false,
      "stateMutability": "view",
      "type": "function"
    },
    {
      "constant": false,
      "inputs": [
        {
          "internalType": "address",
          "name": "newOwner",
          "type": "address"
        }
      ],
      "name": "transferOwnership",
      "outputs": [],
      "payable": false,
      "stateMutability": "nonpayable",
      "type": "function"
    },
    {
      "constant": true,
      "inputs": [],
      "name": "heimdallId",
      "outputs": [
        {
          "internalType": "bytes32",
          "name": "",
          "type": "bytes32"
        }
      ],
      "payable": false,
      "stateMutability": "view",
      "type": "function"
    },
    {
      "anonymous": false,
      "inputs": [
        {
          "indexed": true,
          "internalType": "address",
          "name": "proposer",
          "type": "address"
        },
        {
          "indexed": true,
          "internalType": "uint256",
          "name": "headerBlockId",
          "type": "uint256"
        },
        {
          "indexed": true,
          "internalType": "uint256",
          "name": "reward",
          "type": "uint256"
        },
        {
          "indexed": false,
          "internalType": "uint256",
          "name": "start",
          "type": "uint256"
        },
        {
          "indexed": false,
          "internalType": "uint256",
          "name": "end",
          "type": "uint256"
        },
        {
          "indexed": false,
          "internalType": "bytes32",
          "name": "root",
          "type": "bytes32"
        }
      ],
      "name": "NewHeaderBlock",
      "type": "event"
    },
    {
      "anonymous": false,
      "inputs": [
        {
          "indexed": true,
          "internalType": "address",
          "name": "previousOwner",
          "type": "address"
        },
        {
          "indexed": true,
          "internalType": "address",
          "name": "newOwner",
          "type": "address"
        }
      ],
      "name": "OwnershipTransferred",
      "type": "event"
    },
    {
      "constant": false,
      "inputs": [
        {
          "internalType": "bytes",
          "name": "vote",
          "type": "bytes"
        },
        {
          "internalType": "bytes",
          "name": "sigs",
          "type": "bytes"
        },
        {
          "internalType": "bytes",
          "name": "txData",
          "type": "bytes"
        }
      ],
      "name": "submitHeaderBlock",
      "outputs": [],
      "payable": false,
      "stateMutability": "nonpayable",
      "type": "function"
    },
    {
      "constant": false,
      "inputs": [
        {
          "internalType": "uint256",
          "name": "numDeposits",
          "type": "uint256"
        }
      ],
      "name": "updateDepositId",
      "outputs": [
        {
          "internalType": "uint256",
          "name": "depositId",
          "type": "uint256"
        }
      ],
      "payable": false,
      "stateMutability": "nonpayable",
      "type": "function"
    },
    {
      "constant": true,
      "inputs": [],
      "name": "getLastChildBlock",
      "outputs": [
        {
          "internalType": "uint256",
          "name": "",
          "type": "uint256"
        }
      ],
      "payable": false,
      "stateMutability": "view",
      "type": "function"
    },
    {
      "constant": false,
      "inputs": [],
      "name": "slash",
      "outputs": [],
      "payable": false,
      "stateMutability": "nonpayable",
      "type": "function"
    },
    {
      "constant": true,
      "inputs": [],
      "name": "currentHeaderBlock",
      "outputs": [
        {
          "internalType": "uint256",
          "name": "",
          "type": "uint256"
        }
      ],
      "payable": false,
      "stateMutability": "view",
      "type": "function"
    },
    {
      "constant": false,
      "inputs": [
        {
          "internalType": "uint256",
          "name": "_value",
          "type": "uint256"
        }
      ],
      "name": "setNextHeaderBlock",
      "outputs": [],
      "payable": false,
      "stateMutability": "nonpayable",
      "type": "function"
    },
    {
      "constant": false,
      "inputs": [
        {
          "internalType": "string",
          "name": "_heimdallId",
          "type": "string"
        }
      ],
      "name": "setHeimdallId",
      "outputs": [],
      "payable": false,
      "stateMutability": "nonpayable",
      "type": "function"
    }
  ],
  "bytecode": "0x608060408190526127106003556001600455600080546001600160a01b03191633178082556001600160a01b0316917f8be0079c531659141344cd1fd0a4f28419497f9722a3daafe3b4186f6b6457e0908290a36112de806100626000396000f3fe608060405234801561001057600080fd5b50600436106100f55760003560e01c8063b87e1b6611610097578063ec7e485511610066578063ec7e4855146102bb578063ec83d3ba146102c3578063f2fde38b146103d1578063fbc3dd36146103f7576100f5565b8063b87e1b66146101d4578063cf24a0ea146101dc578063d5b844eb146101f9578063ea0688b314610217576100f5565b8063715018a6116100d3578063715018a6146101845780638d978d881461018c5780638da5cb5b146101945780638f32d59b146101b8576100f5565b80632da25de3146100fa57806341539d4a146101045780635391f48314610155575b600080fd5b6101026103ff565b005b6101216004803603602081101561011a57600080fd5b5035610401565b6040805195865260208601949094528484019290925260608401526001600160a01b03166080830152519081900360a00190f35b6101726004803603602081101561016b57600080fd5b5035610439565b60408051918252519081900360200190f35b610102610573565b6101726105ce565b61019c6105d4565b604080516001600160a01b039092168252519081900360200190f35b6101c06105e3565b604080519115158252519081900360200190f35b6101726105f4565b610102600480360360208110156101f257600080fd5b5035610619565b6102016106c9565b6040805160ff9092168252519081900360200190f35b6101026004803603602081101561022d57600080fd5b810190602081018135600160201b81111561024757600080fd5b82018360208201111561025957600080fd5b803590602001918460018302840111600160201b8311171561027a57600080fd5b91908080601f0160208091040260200160405190810160405280939291908181526020018383808284376000920191909152509295506106ce945050505050565b610172610756565b610102600480360360608110156102d957600080fd5b810190602081018135600160201b8111156102f357600080fd5b82018360208201111561030557600080fd5b803590602001918460018302840111600160201b8311171561032657600080fd5b919390929091602081019035600160201b81111561034357600080fd5b82018360208201111561035557600080fd5b803590602001918460018302840111600160201b8311171561037657600080fd5b919390929091602081019035600160201b81111561039357600080fd5b8201836020820111156103a557600080fd5b803590602001918460018302840111600160201b831117156103c657600080fd5b509092509050610773565b610102600480360360208110156103e757600080fd5b50356001600160a01b0316610c7f565b610172610c9c565b565b60056020526000908152604090208054600182015460028301546003840154600490940154929391929091906001600160a01b031685565b6006546040805162c9effd60e41b815290516000926001600160a01b031691630c9effd0916004808301926020929190829003018186803b15801561047d57600080fd5b505afa158015610491573d6000803e3d6000fd5b505050506040513d60208110156104a757600080fd5b50516001600160a01b031633146104ef5760405162461bcd60e51b81526004018080602001828103825260218152602001806112896021913960400191505060405180910390fd5b6105096004546104fd610756565b9063ffffffff610ca216565b60045490915061051f908363ffffffff610ca216565b6004819055612710101561056e576040805162461bcd60e51b8152602060048201526011602482015270544f4f5f4d414e595f4445504f5349545360781b604482015290519081900360640190fd5b919050565b61057b6105e3565b61058457600080fd5b600080546040516001600160a01b03909116907f8be0079c531659141344cd1fd0a4f28419497f9722a3daafe3b4186f6b6457e0908390a3600080546001600160a01b0319169055565b60035481565b6000546001600160a01b031690565b6000546001600160a01b0316331490565b600060056000610602610756565b815260200190815260200160002060020154905090565b6106216105e3565b61062a57600080fd5b612710810615610671576040805162461bcd60e51b815260206004820152600d60248201526c496e76616c69642076616c756560981b604482015290519081900360640190fd5b805b6003548110156106be5760008181526005602052604081208181556001810182905560028101829055600381019190915560040180546001600160a01b031916905561271001610673565b506003556001600455565b600281565b6106d66105e3565b6106df57600080fd5b806040516020018082805190602001908083835b602083106107125780518252601f1990920191602091820191016106f3565b6001836020036101000a0380198251168184511680821785525050505050509050019150506040516020818303038152906040528051906020012060028190555050565b60035460009061076e9061271063ffffffff610cbb16565b905090565b60606107bc6107b788888080601f016020809104026020016040519081016040528093929190818152602001838380828437600092019190915250610cd092505050565b610cf5565b90506002546107de826000815181106107d157fe5b6020026020010151610dc6565b805190602001201461082d576040805162461bcd60e51b815260206004820152601360248201527210da185a5b881251081a5cc81a5b9d985b1a59606a1b604482015290519081900360640190fd5b600260ff1661084f8260018151811061084257fe5b6020026020010151610e3f565b14610898576040805162461bcd60e51b8152602060048201526014602482015273159bdd19481d1e5c19481a5cc81a5b9d985b1a5960621b604482015290519081900360640190fd5b600283836040518083838082843760405192019450602093509091505080830381855afa1580156108cd573d6000803e3d6000fd5b5050506040513d60208110156108e257600080fd5b5051604080516020818101939093528151808203840181529082019091528051910120815161091890839060049081106107d157fe5b8051906020012014610969576040805162461bcd60e51b8152602060048201526015602482015274115e1d1c984819185d18481a5cc81a5b9d985b1a59605a1b604482015290519081900360640190fd5b60606109ad6107b785858080601f016020809104026020016040519081016040528093929190818152602001838380828437600092019190915250610cd092505050565b90506109cc816000815181106109bf57fe5b6020026020010151610cf5565b90506109d6611233565b6109df82610e9d565b600380546000908152600560209081526040808320855181558583015160018201558582015160028201556060860151948101949094556080850151600494850180546001600160a01b0319166001600160a01b039283161790556006548251630a1ef8f960e21b81529251969750939593169363287be3e4938282019392909190829003018186803b158015610a7557600080fd5b505afa158015610a89573d6000803e3d6000fd5b505050506040513d6020811015610a9f57600080fd5b5051602083015160408401519192506000916001600160a01b03841691635aac52f591610ad19163ffffffff610cbb16565b8d8d6040518083838082843780830192505050925050506040518091039020610b008860048151811061084257fe5b60001b8d8d6040518663ffffffff1660e01b815260040180868152602001858152602001848152602001806020018281038252848482818152602001925080828437600081840152601f19601f8201169050808301925050509650505050505050602060405180830381600087803b158015610b7b57600080fd5b505af1158015610b8f573d6000803e3d6000fd5b505050506040513d6020811015610ba557600080fd5b5051905080610bf0576040805162461bcd60e51b8152602060048201526012602482015271125b9d985b1a590818da1958dadc1bda5b9d60721b604482015290519081900360640190fd5b8060035484608001516001600160a01b03167fba5de06d22af2685c6c7765f60067f7d2b08c2d29f53cdf14d67f6d1c9bfb52786602001518760400151886000015160405180848152602001838152602001828152602001935050505060405180910390a4600354610c6a9061271063ffffffff610ca216565b60035550506001600455505050505050505050565b610c876105e3565b610c9057600080fd5b610c9981610fab565b50565b60025481565b600082820183811015610cb457600080fd5b9392505050565b600082821115610cca57600080fd5b50900390565b610cd861126e565b506040805180820190915281518152602082810190820152919050565b6060610d0082611019565b610d0957600080fd5b6000610d1483611053565b9050606081604051908082528060200260200182016040528015610d5257816020015b610d3f61126e565b815260200190600190039081610d375790505b5090506000610d6485602001516110af565b60208601510190506000805b84811015610dbb57610d8183611112565b9150604051806040016040528083815260200184815250848281518110610da457fe5b602090810291909101015291810191600101610d70565b509195945050505050565b8051606090610dd457600080fd5b6000610de383602001516110af565b83516040805191839003808352601f19601f8201168301602001909152919250606090828015610e1a576020820181803883390190505b5090506000816020019050610e368487602001510182856111ab565b50949350505050565b805160009015801590610e5457508151602110155b610e5d57600080fd5b6000610e6c83602001516110af565b83516020808601518301805193945091849003929190831015610e3657506020919091036101000a90049392505050565b610ea5611233565b610ec282600081518110610eb557fe5b60200260200101516111f6565b6001600160a01b031660808201526003546000906127101015610f035760056000610eeb610756565b81526020019081526020016000206002015460010190505b610f138360018151811061084257fe5b8114610f5e576040805162461bcd60e51b8152602060048201526015602482015274494e434f52524543545f53544152545f424c4f434b60581b604482015290519081900360640190fd5b80826020018181525050610f788360028151811061084257fe5b60408301528251610f9d9084906003908110610f9057fe5b6020026020010151611216565b825250426060820152919050565b6001600160a01b038116610fbe57600080fd5b600080546040516001600160a01b03808516939216917f8be0079c531659141344cd1fd0a4f28419497f9722a3daafe3b4186f6b6457e091a3600080546001600160a01b0319166001600160a01b0392909216919091179055565b805160009061102a5750600061056e565b6020820151805160001a9060c08210156110495760009250505061056e565b5060019392505050565b80516000906110645750600061056e565b6000809050600061107884602001516110af565b602085015185519181019250015b808210156110a65761109782611112565b60019093019290910190611086565b50909392505050565b8051600090811a60808110156110c957600091505061056e565b60b88110806110e4575060c081108015906110e4575060f881105b156110f357600191505061056e565b60c08110156111075760b51901905061056e565b60f51901905061056e565b80516000908190811a608081101561112d57600191506111a4565b60b881101561114257607e19810191506111a4565b60c081101561116f5760b78103600185019450806020036101000a855104600182018101935050506111a4565b60f88110156111845760be19810191506111a4565b60f78103600185019450806020036101000a855104600182018101935050505b5092915050565b806111b5576111f1565b5b602081106111d5578251825260209283019290910190601f19016111b6565b8251825160208390036101000a60001901801990921691161782525b505050565b805160009060151461120757600080fd5b61121082610e3f565b92915050565b805160009060211461122757600080fd5b50602001516001015190565b6040518060a001604052806000801916815260200160008152602001600081526020016000815260200160006001600160a01b031681525090565b60405180604001604052806000815260200160008152509056fe554e415554484f52495a45445f4445504f5349545f4d414e414745525f4f4e4c59a265627a7a723158208ad4b73d236795c31f261d4d8c8380d2c15506890174752aaa91af5d21ac86de64736f6c634300050b0032",
  "source": "pragma solidity ^0.5.2;\n\nimport {RLPReader} from \"solidity-rlp/contracts/RLPReader.sol\";\nimport {SafeMath} from \"openzeppelin-solidity/contracts/math/SafeMath.sol\";\n\nimport {RootChainHeader, RootChainStorage} from \"./RootChainStorage.sol\";\n\nimport {IStakeManager} from \"../staking/stakeManager/IStakeManager.sol\";\nimport {IRootChain} from \"./IRootChain.sol\";\nimport {Registry} from \"../common/Registry.sol\";\n\ncontract RootChain is RootChainStorage, IRootChain {\n    using SafeMath for uint256;\n    using RLPReader for bytes;\n    using RLPReader for RLPReader.RLPItem;\n\n    modifier onlyDepositManager() {\n        require(\n            msg.sender == registry.getDepositManagerAddress(),\n            \"UNAUTHORIZED_DEPOSIT_MANAGER_ONLY\"\n        );\n        _;\n    }\n\n    function submitHeaderBlock(\n        bytes calldata vote,\n        bytes calldata sigs,\n        bytes calldata txData\n    ) external {\n        RLPReader.RLPItem[] memory dataList = vote.toRlpItem().toList();\n        require(\n            keccak256(dataList[0].toBytes()) == heimdallId,\n            \"Chain ID is invalid\"\n        );\n        require(dataList[1].toUint() == VOTE_TYPE, \"Vote type is invalid\");\n\n        // validate hash of txData was signed as part of the vote\n        require(\n            keccak256(dataList[4].toBytes()) ==\n                keccak256(abi.encodePacked(sha256(txData))),\n            \"Extra data is invalid\"\n        );\n\n        RLPReader.RLPItem[] memory extraData = txData.toRlpItem().toList();\n        extraData = extraData[0].toList();\n        RootChainHeader.HeaderBlock memory headerBlock = _buildHeaderBlock(\n            extraData\n        );\n        headerBlocks[_nextHeaderBlock] = headerBlock;\n        // check if it is better to keep it in local storage instead\n        IStakeManager stakeManager = IStakeManager(\n            registry.getStakeManagerAddress()\n        );\n        // blockInterval, voteHash, stateRoot, sigs\n        uint256 _reward = stakeManager.checkSignatures(\n            headerBlock.end.sub(headerBlock.start),\n            keccak256(vote),\n            bytes32(extraData[4].toUint()),\n            sigs\n        );\n        require(_reward != 0, \"Invalid checkpoint\");\n        emit NewHeaderBlock(\n            headerBlock.proposer,\n            _nextHeaderBlock,\n            _reward,\n            headerBlock.start,\n            headerBlock.end,\n            headerBlock.root\n        );\n        _nextHeaderBlock = _nextHeaderBlock.add(MAX_DEPOSITS);\n        _blockDepositId = 1;\n    }\n\n    function updateDepositId(uint256 numDeposits)\n        external\n        onlyDepositManager\n        returns (uint256 depositId)\n    {\n        depositId = currentHeaderBlock().add(_blockDepositId);\n        // deposit ids will be (_blockDepositId, _blockDepositId + 1, .... _blockDepositId + numDeposits - 1)\n        _blockDepositId = _blockDepositId.add(numDeposits);\n        require(\n            // Since _blockDepositId is initialized to 1; only (MAX_DEPOSITS - 1) deposits per header block are allowed\n            _blockDepositId <= MAX_DEPOSITS,\n            \"TOO_MANY_DEPOSITS\"\n        );\n    }\n\n    function getLastChildBlock() external view returns (uint256) {\n        return headerBlocks[currentHeaderBlock()].end;\n    }\n\n    function slash() external {\n        //TODO: future implementation\n    }\n\n    function currentHeaderBlock() public view returns (uint256) {\n        return _nextHeaderBlock.sub(MAX_DEPOSITS);\n    }\n\n    function _buildHeaderBlock(RLPReader.RLPItem[] memory dataList)\n        private\n        view\n        returns (HeaderBlock memory headerBlock)\n    {\n        headerBlock.proposer = dataList[0].toAddress();\n        // Is this required? Why does a proposer need to be the sender? Think validator relay networks\n        // require(msg.sender == dataList[0].toAddress(), \"Invalid proposer\");\n\n        uint256 nextChildBlock;\n        /*\n    The ID of the 1st header block is MAX_DEPOSITS.\n    if _nextHeaderBlock == MAX_DEPOSITS, then the first header block is yet to be submitted, hence nextChildBlock = 0\n    */\n        if (_nextHeaderBlock > MAX_DEPOSITS) {\n            nextChildBlock = headerBlocks[currentHeaderBlock()].end + 1;\n        }\n        require(\n            nextChildBlock == dataList[1].toUint(),\n            \"INCORRECT_START_BLOCK\"\n        );\n        headerBlock.start = nextChildBlock;\n        headerBlock.end = dataList[2].toUint();\n\n        // toUintStrict returns the encoded uint. Encoded data must be padded to 32 bytes.\n        headerBlock.root = bytes32(dataList[3].toUintStrict());\n        headerBlock.createdAt = now;\n    }\n\n    // Housekeeping function. @todo remove later\n    function setNextHeaderBlock(uint256 _value) public onlyOwner {\n        require(_value % MAX_DEPOSITS == 0, \"Invalid value\");\n        for (uint256 i = _value; i < _nextHeaderBlock; i += MAX_DEPOSITS) {\n            delete headerBlocks[i];\n        }\n        _nextHeaderBlock = _value;\n        _blockDepositId = 1;\n    }\n\n    // Housekeeping function. @todo remove later\n    function setHeimdallId(string memory _heimdallId) public onlyOwner {\n        heimdallId = keccak256(abi.encodePacked(_heimdallId));\n    }\n}\n",
  "sourcePath": "/Users/arth/Documents/Projects/contracts/contracts/root/RootChain.sol",
  "compiler": {
    "name": "solc",
    "version": "0.5.11+commit.c082d0b4.Emscripten.clang"
  },
  "schemaVersion": "3.0.14",
  "updatedAt": "2020-03-02T16:43:43.460Z",
  "devdoc": {
    "methods": {
      "isOwner()": {
        "return": "true if `msg.sender` is the owner of the contract."
      },
      "owner()": {
        "return": "the address of the owner."
      },
      "renounceOwnership()": {
        "details": "Allows the current owner to relinquish control of the contract. It will not be possible to call the functions with the `onlyOwner` modifier anymore."
      },
      "transferOwnership(address)": {
        "details": "Allows the current owner to transfer control of the contract to a newOwner.",
        "params": {
          "newOwner": "The address to transfer ownership to."
        }
      }
    }
  },
  "userdoc": {
    "methods": {
      "renounceOwnership()": {
        "notice": "Renouncing ownership will leave the contract without an owner, thereby removing any functionality that is only available to the owner."
      }
    }
  }
}