{
  "contractName": "StakingInfo",
  "abi": [
    {
      "constant": true,
      "inputs": [],
      "name": "registry",
      "outputs": [
        {
          "internalType": "contract Registry",
          "name": "",
          "type": "address"
        }
      ],
      "payable": false,
      "stateMutability": "view",
      "type": "function"
    },
    {
      "inputs": [
        {
          "internalType": "address",
          "name": "_registry",
          "type": "address"
        }
      ],
      "payable": false,
      "stateMutability": "nonpayable",
      "type": "constructor"
    },
    {
      "anonymous": false,
      "inputs": [
        {
          "indexed": true,
          "internalType": "address",
          "name": "signer",
          "type": "address"
        },
        {
          "indexed": true,
          "internalType": "uint256",
          "name": "validatorId",
          "type": "uint256"
        },
        {
          "indexed": true,
          "internalType": "uint256",
          "name": "activationEpoch",
          "type": "uint256"
        },
        {
          "indexed": false,
          "internalType": "uint256",
          "name": "amount",
          "type": "uint256"
        },
        {
          "indexed": false,
          "internalType": "uint256",
          "name": "total",
          "type": "uint256"
        }
      ],
      "name": "Staked",
      "type": "event"
    },
    {
      "anonymous": false,
      "inputs": [
        {
          "indexed": true,
          "internalType": "address",
          "name": "user",
          "type": "address"
        },
        {
          "indexed": true,
          "internalType": "uint256",
          "name": "validatorId",
          "type": "uint256"
        },
        {
          "indexed": false,
          "internalType": "uint256",
          "name": "amount",
          "type": "uint256"
        },
        {
          "indexed": false,
          "internalType": "uint256",
          "name": "total",
          "type": "uint256"
        }
      ],
      "name": "Unstaked",
      "type": "event"
    },
    {
      "anonymous": false,
      "inputs": [
        {
          "indexed": true,
          "internalType": "address",
          "name": "user",
          "type": "address"
        },
        {
          "indexed": true,
          "internalType": "uint256",
          "name": "validatorId",
          "type": "uint256"
        },
        {
          "indexed": false,
          "internalType": "uint256",
          "name": "deactivationEpoch",
          "type": "uint256"
        },
        {
          "indexed": true,
          "internalType": "uint256",
          "name": "amount",
          "type": "uint256"
        }
      ],
      "name": "UnstakeInit",
      "type": "event"
    },
    {
      "anonymous": false,
      "inputs": [
        {
          "indexed": true,
          "internalType": "uint256",
          "name": "validatorId",
          "type": "uint256"
        },
        {
          "indexed": true,
          "internalType": "address",
          "name": "oldSigner",
          "type": "address"
        },
        {
          "indexed": true,
          "internalType": "address",
          "name": "newSigner",
          "type": "address"
        }
      ],
      "name": "SignerChange",
      "type": "event"
    },
    {
      "anonymous": false,
      "inputs": [
        {
          "indexed": true,
          "internalType": "uint256",
          "name": "validatorId",
          "type": "uint256"
        },
        {
          "indexed": false,
          "internalType": "uint256",
          "name": "amount",
          "type": "uint256"
        },
        {
          "indexed": false,
          "internalType": "uint256",
          "name": "total",
          "type": "uint256"
        }
      ],
      "name": "ReStaked",
      "type": "event"
    },
    {
      "anonymous": false,
      "inputs": [
        {
          "indexed": true,
          "internalType": "uint256",
          "name": "validatorId",
          "type": "uint256"
        },
        {
          "indexed": true,
          "internalType": "uint256",
          "name": "exitEpoch",
          "type": "uint256"
        }
      ],
      "name": "Jailed",
      "type": "event"
    },
    {
      "anonymous": false,
      "inputs": [
        {
          "indexed": false,
          "internalType": "uint256",
          "name": "newThreshold",
          "type": "uint256"
        },
        {
          "indexed": false,
          "internalType": "uint256",
          "name": "oldThreshold",
          "type": "uint256"
        }
      ],
      "name": "ThresholdChange",
      "type": "event"
    },
    {
      "anonymous": false,
      "inputs": [
        {
          "indexed": false,
          "internalType": "uint256",
          "name": "newDynasty",
          "type": "uint256"
        },
        {
          "indexed": false,
          "internalType": "uint256",
          "name": "oldDynasty",
          "type": "uint256"
        }
      ],
      "name": "DynastyValueChange",
      "type": "event"
    },
    {
      "anonymous": false,
      "inputs": [
        {
          "indexed": false,
          "internalType": "uint256",
          "name": "newReward",
          "type": "uint256"
        },
        {
          "indexed": false,
          "internalType": "uint256",
          "name": "oldReward",
          "type": "uint256"
        }
      ],
      "name": "RewardUpdate",
      "type": "event"
    },
    {
      "anonymous": false,
      "inputs": [
        {
          "indexed": true,
          "internalType": "uint256",
          "name": "validatorId",
          "type": "uint256"
        },
        {
          "indexed": true,
          "internalType": "uint256",
          "name": "newAmount",
          "type": "uint256"
        }
      ],
      "name": "StakeUpdate",
      "type": "event"
    },
    {
      "anonymous": false,
      "inputs": [
        {
          "indexed": true,
          "internalType": "uint256",
          "name": "validatorId",
          "type": "uint256"
        },
        {
          "indexed": true,
          "internalType": "uint256",
          "name": "amount",
          "type": "uint256"
        },
        {
          "indexed": true,
          "internalType": "uint256",
          "name": "totalAmount",
          "type": "uint256"
        }
      ],
      "name": "ClaimRewards",
      "type": "event"
    },
    {
      "anonymous": false,
      "inputs": [
        {
          "indexed": true,
          "internalType": "uint256",
          "name": "validatorId",
          "type": "uint256"
        },
        {
          "indexed": true,
          "internalType": "uint256",
          "name": "amount",
          "type": "uint256"
        },
        {
          "indexed": true,
          "internalType": "uint256",
          "name": "auctionAmount",
          "type": "uint256"
        }
      ],
      "name": "StartAuction",
      "type": "event"
    },
    {
      "anonymous": false,
      "inputs": [
        {
          "indexed": true,
          "internalType": "uint256",
          "name": "newValidatorId",
          "type": "uint256"
        },
        {
          "indexed": true,
          "internalType": "uint256",
          "name": "oldValidatorId",
          "type": "uint256"
        },
        {
          "indexed": true,
          "internalType": "uint256",
          "name": "amount",
          "type": "uint256"
        }
      ],
      "name": "ConfirmAuction",
      "type": "event"
    },
    {
      "anonymous": false,
      "inputs": [
        {
          "indexed": true,
          "internalType": "uint256",
          "name": "validatorId",
          "type": "uint256"
        },
        {
          "indexed": true,
          "internalType": "address",
          "name": "signer",
          "type": "address"
        },
        {
          "indexed": true,
          "internalType": "uint256",
          "name": "fee",
          "type": "uint256"
        }
      ],
      "name": "TopUpFee",
      "type": "event"
    },
    {
      "anonymous": false,
      "inputs": [
        {
          "indexed": true,
          "internalType": "uint256",
          "name": "validatorId",
          "type": "uint256"
        },
        {
          "indexed": true,
          "internalType": "address",
          "name": "signer",
          "type": "address"
        },
        {
          "indexed": true,
          "internalType": "uint256",
          "name": "fee",
          "type": "uint256"
        }
      ],
      "name": "ClaimFee",
      "type": "event"
    },
    {
      "anonymous": false,
      "inputs": [
        {
          "indexed": true,
          "internalType": "uint256",
          "name": "validatorId",
          "type": "uint256"
        },
        {
          "indexed": true,
          "internalType": "address",
          "name": "user",
          "type": "address"
        },
        {
          "indexed": true,
          "internalType": "uint256",
          "name": "amount",
          "type": "uint256"
        },
        {
          "indexed": false,
          "internalType": "uint256",
          "name": "tokens",
          "type": "uint256"
        }
      ],
      "name": "ShareMinted",
      "type": "event"
    },
    {
      "anonymous": false,
      "inputs": [
        {
          "indexed": true,
          "internalType": "uint256",
          "name": "validatorId",
          "type": "uint256"
        },
        {
          "indexed": true,
          "internalType": "address",
          "name": "user",
          "type": "address"
        },
        {
          "indexed": true,
          "internalType": "uint256",
          "name": "amount",
          "type": "uint256"
        },
        {
          "indexed": false,
          "internalType": "uint256",
          "name": "tokens",
          "type": "uint256"
        }
      ],
      "name": "ShareBurned",
      "type": "event"
    },
    {
      "anonymous": false,
      "inputs": [
        {
          "indexed": true,
          "internalType": "uint256",
          "name": "validatorId",
          "type": "uint256"
        },
        {
          "indexed": true,
          "internalType": "address",
          "name": "user",
          "type": "address"
        },
        {
          "indexed": true,
          "internalType": "uint256",
          "name": "rewards",
          "type": "uint256"
        },
        {
          "indexed": false,
          "internalType": "uint256",
          "name": "tokens",
          "type": "uint256"
        }
      ],
      "name": "DelClaimRewards",
      "type": "event"
    },
    {
      "anonymous": false,
      "inputs": [
        {
          "indexed": true,
          "internalType": "uint256",
          "name": "validatorId",
          "type": "uint256"
        },
        {
          "indexed": true,
          "internalType": "uint256",
          "name": "newCommissionRate",
          "type": "uint256"
        },
        {
          "indexed": true,
          "internalType": "uint256",
          "name": "oldCommissionRate",
          "type": "uint256"
        }
      ],
      "name": "UpdateCommissionRate",
      "type": "event"
    },
    {
      "constant": false,
      "inputs": [
        {
          "internalType": "address",
          "name": "signer",
          "type": "address"
        },
        {
          "internalType": "uint256",
          "name": "validatorId",
          "type": "uint256"
        },
        {
          "internalType": "uint256",
          "name": "activationEpoch",
          "type": "uint256"
        },
        {
          "internalType": "uint256",
          "name": "amount",
          "type": "uint256"
        },
        {
          "internalType": "uint256",
          "name": "total",
          "type": "uint256"
        }
      ],
      "name": "logStaked",
      "outputs": [],
      "payable": false,
      "stateMutability": "nonpayable",
      "type": "function"
    },
    {
      "constant": false,
      "inputs": [
        {
          "internalType": "address",
          "name": "user",
          "type": "address"
        },
        {
          "internalType": "uint256",
          "name": "validatorId",
          "type": "uint256"
        },
        {
          "internalType": "uint256",
          "name": "amount",
          "type": "uint256"
        },
        {
          "internalType": "uint256",
          "name": "total",
          "type": "uint256"
        }
      ],
      "name": "logUnstaked",
      "outputs": [],
      "payable": false,
      "stateMutability": "nonpayable",
      "type": "function"
    },
    {
      "constant": false,
      "inputs": [
        {
          "internalType": "address",
          "name": "user",
          "type": "address"
        },
        {
          "internalType": "uint256",
          "name": "validatorId",
          "type": "uint256"
        },
        {
          "internalType": "uint256",
          "name": "deactivationEpoch",
          "type": "uint256"
        },
        {
          "internalType": "uint256",
          "name": "amount",
          "type": "uint256"
        }
      ],
      "name": "logUnstakeInit",
      "outputs": [],
      "payable": false,
      "stateMutability": "nonpayable",
      "type": "function"
    },
    {
      "constant": false,
      "inputs": [
        {
          "internalType": "uint256",
          "name": "validatorId",
          "type": "uint256"
        },
        {
          "internalType": "address",
          "name": "oldSigner",
          "type": "address"
        },
        {
          "internalType": "address",
          "name": "newSigner",
          "type": "address"
        }
      ],
      "name": "logSignerChange",
      "outputs": [],
      "payable": false,
      "stateMutability": "nonpayable",
      "type": "function"
    },
    {
      "constant": false,
      "inputs": [
        {
          "internalType": "uint256",
          "name": "validatorId",
          "type": "uint256"
        },
        {
          "internalType": "uint256",
          "name": "amount",
          "type": "uint256"
        },
        {
          "internalType": "uint256",
          "name": "total",
          "type": "uint256"
        }
      ],
      "name": "logReStaked",
      "outputs": [],
      "payable": false,
      "stateMutability": "nonpayable",
      "type": "function"
    },
    {
      "constant": false,
      "inputs": [
        {
          "internalType": "uint256",
          "name": "validatorId",
          "type": "uint256"
        },
        {
          "internalType": "uint256",
          "name": "exitEpoch",
          "type": "uint256"
        }
      ],
      "name": "logJailed",
      "outputs": [],
      "payable": false,
      "stateMutability": "nonpayable",
      "type": "function"
    },
    {
      "constant": false,
      "inputs": [
        {
          "internalType": "uint256",
          "name": "newThreshold",
          "type": "uint256"
        },
        {
          "internalType": "uint256",
          "name": "oldThreshold",
          "type": "uint256"
        }
      ],
      "name": "logThresholdChange",
      "outputs": [],
      "payable": false,
      "stateMutability": "nonpayable",
      "type": "function"
    },
    {
      "constant": false,
      "inputs": [
        {
          "internalType": "uint256",
          "name": "newDynasty",
          "type": "uint256"
        },
        {
          "internalType": "uint256",
          "name": "oldDynasty",
          "type": "uint256"
        }
      ],
      "name": "logDynastyValueChange",
      "outputs": [],
      "payable": false,
      "stateMutability": "nonpayable",
      "type": "function"
    },
    {
      "constant": false,
      "inputs": [
        {
          "internalType": "uint256",
          "name": "newReward",
          "type": "uint256"
        },
        {
          "internalType": "uint256",
          "name": "oldReward",
          "type": "uint256"
        }
      ],
      "name": "logRewardUpdate",
      "outputs": [],
      "payable": false,
      "stateMutability": "nonpayable",
      "type": "function"
    },
    {
      "constant": false,
      "inputs": [
        {
          "internalType": "uint256",
          "name": "validatorId",
          "type": "uint256"
        }
      ],
      "name": "logStakeUpdate",
      "outputs": [],
      "payable": false,
      "stateMutability": "nonpayable",
      "type": "function"
    },
    {
      "constant": false,
      "inputs": [
        {
          "internalType": "uint256",
          "name": "validatorId",
          "type": "uint256"
        },
        {
          "internalType": "uint256",
          "name": "amount",
          "type": "uint256"
        },
        {
          "internalType": "uint256",
          "name": "totalAmount",
          "type": "uint256"
        }
      ],
      "name": "logClaimRewards",
      "outputs": [],
      "payable": false,
      "stateMutability": "nonpayable",
      "type": "function"
    },
    {
      "constant": false,
      "inputs": [
        {
          "internalType": "uint256",
          "name": "validatorId",
          "type": "uint256"
        },
        {
          "internalType": "uint256",
          "name": "amount",
          "type": "uint256"
        },
        {
          "internalType": "uint256",
          "name": "auctionAmount",
          "type": "uint256"
        }
      ],
      "name": "logStartAuction",
      "outputs": [],
      "payable": false,
      "stateMutability": "nonpayable",
      "type": "function"
    },
    {
      "constant": false,
      "inputs": [
        {
          "internalType": "uint256",
          "name": "newValidatorId",
          "type": "uint256"
        },
        {
          "internalType": "uint256",
          "name": "oldValidatorId",
          "type": "uint256"
        },
        {
          "internalType": "uint256",
          "name": "amount",
          "type": "uint256"
        }
      ],
      "name": "logConfirmAuction",
      "outputs": [],
      "payable": false,
      "stateMutability": "nonpayable",
      "type": "function"
    },
    {
      "constant": false,
      "inputs": [
        {
          "internalType": "uint256",
          "name": "validatorId",
          "type": "uint256"
        },
        {
          "internalType": "address",
          "name": "signer",
          "type": "address"
        },
        {
          "internalType": "uint256",
          "name": "fee",
          "type": "uint256"
        }
      ],
      "name": "logTopUpFee",
      "outputs": [],
      "payable": false,
      "stateMutability": "nonpayable",
      "type": "function"
    },
    {
      "constant": false,
      "inputs": [
        {
          "internalType": "uint256",
          "name": "validatorId",
          "type": "uint256"
        },
        {
          "internalType": "address",
          "name": "signer",
          "type": "address"
        },
        {
          "internalType": "uint256",
          "name": "fee",
          "type": "uint256"
        }
      ],
      "name": "logClaimFee",
      "outputs": [],
      "payable": false,
      "stateMutability": "nonpayable",
      "type": "function"
    },
    {
      "constant": true,
      "inputs": [
        {
          "internalType": "uint256",
          "name": "validatorId",
          "type": "uint256"
        }
      ],
      "name": "getStakerDetails",
      "outputs": [
        {
          "internalType": "uint256",
          "name": "amount",
          "type": "uint256"
        },
        {
          "internalType": "uint256",
          "name": "activationEpoch",
          "type": "uint256"
        },
        {
          "internalType": "uint256",
          "name": "deactivationEpoch",
          "type": "uint256"
        },
        {
          "internalType": "address",
          "name": "signer",
          "type": "address"
        },
        {
          "internalType": "uint256",
          "name": "_status",
          "type": "uint256"
        }
      ],
      "payable": false,
      "stateMutability": "view",
      "type": "function"
    },
    {
      "constant": true,
      "inputs": [
        {
          "internalType": "uint256",
          "name": "validatorId",
          "type": "uint256"
        }
      ],
      "name": "totalValidatorStake",
      "outputs": [
        {
          "internalType": "uint256",
          "name": "validatorStake",
          "type": "uint256"
        }
      ],
      "payable": false,
      "stateMutability": "view",
      "type": "function"
    },
    {
      "constant": true,
      "inputs": [],
      "name": "getAccountStateRoot",
      "outputs": [
        {
          "internalType": "bytes32",
          "name": "accountStateRoot",
          "type": "bytes32"
        }
      ],
      "payable": false,
      "stateMutability": "view",
      "type": "function"
    },
    {
      "constant": true,
      "inputs": [
        {
          "internalType": "uint256",
          "name": "validatorId",
          "type": "uint256"
        }
      ],
      "name": "getValidatorContractAddress",
      "outputs": [
        {
          "internalType": "address",
          "name": "ValidatorContract",
          "type": "address"
        }
      ],
      "payable": false,
      "stateMutability": "view",
      "type": "function"
    },
    {
      "constant": false,
      "inputs": [
        {
          "internalType": "uint256",
          "name": "validatorId",
          "type": "uint256"
        },
        {
          "internalType": "address",
          "name": "user",
          "type": "address"
        },
        {
          "internalType": "uint256",
          "name": "amount",
          "type": "uint256"
        },
        {
          "internalType": "uint256",
          "name": "tokens",
          "type": "uint256"
        }
      ],
      "name": "logShareMinted",
      "outputs": [],
      "payable": false,
      "stateMutability": "nonpayable",
      "type": "function"
    },
    {
      "constant": false,
      "inputs": [
        {
          "internalType": "uint256",
          "name": "validatorId",
          "type": "uint256"
        },
        {
          "internalType": "address",
          "name": "user",
          "type": "address"
        },
        {
          "internalType": "uint256",
          "name": "amount",
          "type": "uint256"
        },
        {
          "internalType": "uint256",
          "name": "tokens",
          "type": "uint256"
        }
      ],
      "name": "logShareBurned",
      "outputs": [],
      "payable": false,
      "stateMutability": "nonpayable",
      "type": "function"
    },
    {
      "constant": false,
      "inputs": [
        {
          "internalType": "uint256",
          "name": "validatorId",
          "type": "uint256"
        },
        {
          "internalType": "address",
          "name": "user",
          "type": "address"
        },
        {
          "internalType": "uint256",
          "name": "rewards",
          "type": "uint256"
        },
        {
          "internalType": "uint256",
          "name": "tokens",
          "type": "uint256"
        }
      ],
      "name": "logDelClaimRewards",
      "outputs": [],
      "payable": false,
      "stateMutability": "nonpayable",
      "type": "function"
    },
    {
      "constant": false,
      "inputs": [
        {
          "internalType": "uint256",
          "name": "validatorId",
          "type": "uint256"
        },
        {
          "internalType": "uint256",
          "name": "newCommissionRate",
          "type": "uint256"
        },
        {
          "internalType": "uint256",
          "name": "oldCommissionRate",
          "type": "uint256"
        }
      ],
      "name": "logUpdateCommissionRate",
      "outputs": [],
      "payable": false,
      "stateMutability": "nonpayable",
      "type": "function"
    }
  ],
  "bytecode": "0x608060405234801561001057600080fd5b50604051611be9380380611be98339818101604052602081101561003357600080fd5b5051600080546001600160a01b039092166001600160a01b0319909216919091179055611b84806100656000396000f3fe608060405234801561001057600080fd5b50600436106101585760003560e01c8063a0e300a6116100c3578063c69d05731161007c578063c69d05731461048a578063c98cc002146104c2578063ca7d34b6146104eb578063e12ab1af14610508578063f1382b5314610531578063f1980a501461056957610158565b8063a0e300a61461036d578063a970c3b814610390578063ae2e26b1146103ce578063af4cdabf14610406578063b685b26a1461043e578063b6fa74c41461046757610158565b80634b6b87ce116101155780634b6b87ce14610271578063532e19a91461028b5780635e04d483146102a857806378daaf69146102e05780637b103999146103315780639a0808e41461033957610158565b80630934a6df1461015d5780630974955a14610188578063178d46aa146101ab5780631ace9d8b146101e4578063242c1b99146102165780632f7e08611461023f575b600080fd5b6101866004803603606081101561017357600080fd5b508035906020810135906040013561058c565b005b6101866004803603604081101561019e57600080fd5b5080359060200135610643565b6101c8600480360360208110156101c157600080fd5b50356106f7565b604080516001600160a01b039092168252519081900360200190f35b610186600480360360608110156101fa57600080fd5b508035906001600160a01b0360208201351690604001356107f2565b6101866004803603606081101561022c57600080fd5b50803590602081013590604001356108b2565b6101866004803603606081101561025557600080fd5b508035906001600160a01b036020820135169060400135610974565b610279610a34565b60408051918252519081900360200190f35b610186600480360360208110156102a157600080fd5b5035610b22565b610186600480360360808110156102be57600080fd5b506001600160a01b038135169060208101359060408101359060600135610c7f565b6102fd600480360360208110156102f657600080fd5b5035610d4b565b604080519586526020860194909452848401929092526001600160a01b031660608401526080830152519081900360a00190f35b6101c8610e84565b6101866004803603606081101561034f57600080fd5b508035906001600160a01b0360208201358116916040013516610e93565b6101866004803603604081101561038357600080fd5b5080359060200135610f5c565b610186600480360360a08110156103a657600080fd5b506001600160a01b03813516906020810135906040810135906060810135906080013561101e565b610186600480360360808110156103e457600080fd5b506001600160a01b0381351690602081013590604081013590606001356110f3565b6101866004803603608081101561041c57600080fd5b508035906001600160a01b0360208201351690604081013590606001356111c6565b6101866004803603606081101561045457600080fd5b5080359060208101359060400135611314565b6101866004803603604081101561047d57600080fd5b50803590602001356113cb565b610186600480360360808110156104a057600080fd5b508035906001600160a01b03602082013516906040810135906060013561148d565b610186600480360360608110156104d857600080fd5b50803590602081013590604001356115db565b6102796004803603602081101561050157600080fd5b5035611714565b6101866004803603606081101561051e57600080fd5b5080359060208101359060400135611888565b6101866004803603608081101561054757600080fd5b508035906001600160a01b03602082013516906040810135906060013561193f565b6101866004803603604081101561057f57600080fd5b5080359060200135611a8d565b60005460408051630a1ef8f960e21b8152905133926001600160a01b03169163287be3e4916004808301926020929190829003018186803b1580156105d057600080fd5b505afa1580156105e4573d6000803e3d6000fd5b505050506040513d60208110156105fa57600080fd5b50516001600160a01b03161461060f57600080fd5b8082847f683d0f47c7fa11331f4e9563b3f5a7fdc3d3c5b75c600357a91d991f5a13a43760405160405180910390a4505050565b60005460408051630a1ef8f960e21b8152905133926001600160a01b03169163287be3e4916004808301926020929190829003018186803b15801561068757600080fd5b505afa15801561069b573d6000803e3d6000fd5b505050506040513d60208110156106b157600080fd5b50516001600160a01b0316146106c657600080fd5b604051819083907fa1735a3843d9467dd849a217582720a8af66b9d034712e0b21b0f5ece80670cd90600090a35050565b60008060009054906101000a90046001600160a01b03166001600160a01b031663287be3e46040518163ffffffff1660e01b815260040160206040518083038186803b15801561074657600080fd5b505afa15801561075a573d6000803e3d6000fd5b505050506040513d602081101561077057600080fd5b505160408051630d6a8b9160e21b81526004810185905290516001600160a01b03909216916335aa2e449160248082019261010092909190829003018186803b1580156107bc57600080fd5b505afa1580156107d0573d6000803e3d6000fd5b505050506040513d6101008110156107e757600080fd5b5060c0015192915050565b60005460408051630a1ef8f960e21b8152905133926001600160a01b03169163287be3e4916004808301926020929190829003018186803b15801561083657600080fd5b505afa15801561084a573d6000803e3d6000fd5b505050506040513d602081101561086057600080fd5b50516001600160a01b03161461087557600080fd5b80826001600160a01b0316847fc970ee1564cdc7a9beeae09b65b33aeb17b67d0e4a620e62e6b9b82a6430927d60405160405180910390a4505050565b60005460408051630a1ef8f960e21b8152905133926001600160a01b03169163287be3e4916004808301926020929190829003018186803b1580156108f657600080fd5b505afa15801561090a573d6000803e3d6000fd5b505050506040513d602081101561092057600080fd5b50516001600160a01b03161461093557600080fd5b6040805183815260208101839052815185927f9cc0e589f20d3310eb2ad571b23529003bd46048d0d1af29277dcf0aa3c398ce928290030190a2505050565b60005460408051630a1ef8f960e21b8152905133926001600160a01b03169163287be3e4916004808301926020929190829003018186803b1580156109b857600080fd5b505afa1580156109cc573d6000803e3d6000fd5b505050506040513d60208110156109e257600080fd5b50516001600160a01b0316146109f757600080fd5b80826001600160a01b0316847f4a83a8cc14c510291ef5a72ae016304a3132c29fad2238eaa29d5b959136f32f60405160405180910390a4505050565b60008060009054906101000a90046001600160a01b03166001600160a01b031663287be3e46040518163ffffffff1660e01b815260040160206040518083038186803b158015610a8357600080fd5b505afa158015610a97573d6000803e3d6000fd5b505050506040513d6020811015610aad57600080fd5b50516040805163017c2b9160e41b815290516001600160a01b03909216916317c2b91091600480820192602092909190829003018186803b158015610af157600080fd5b505afa158015610b05573d6000803e3d6000fd5b505050506040513d6020811015610b1b57600080fd5b5051919050565b806000806000809054906101000a90046001600160a01b03166001600160a01b031663287be3e46040518163ffffffff1660e01b815260040160206040518083038186803b158015610b7357600080fd5b505afa158015610b87573d6000803e3d6000fd5b505050506040513d6020811015610b9d57600080fd5b505160408051630d6a8b9160e21b81526004810186905290519192506001600160a01b038316916335aa2e449160248082019261010092909190829003018186803b158015610beb57600080fd5b505afa158015610bff573d6000803e3d6000fd5b505050506040513d610100811015610c1657600080fd5b5060c0015191506001600160a01b038216331480610c3c57506001600160a01b03811633145b610c4557600080fd5b610c4e84611714565b60405185907f8a9fd81e4de0eb5b1f4055c5b30b562c02c95613ea0c5259c23033a90d1de4b490600090a350505050565b60005460408051630a1ef8f960e21b8152905133926001600160a01b03169163287be3e4916004808301926020929190829003018186803b158015610cc357600080fd5b505afa158015610cd7573d6000803e3d6000fd5b505050506040513d6020811015610ced57600080fd5b50516001600160a01b031614610d0257600080fd5b8083856001600160a01b03167f51ff6d8ad000896362d1a3c9de9ad835adb6da92ec3ddee44018ef64f3c8b561856040518082815260200191505060405180910390a450505050565b6000806000806000806000809054906101000a90046001600160a01b03166001600160a01b031663287be3e46040518163ffffffff1660e01b815260040160206040518083038186803b158015610da157600080fd5b505afa158015610db5573d6000803e3d6000fd5b505050506040513d6020811015610dcb57600080fd5b505160408051630d6a8b9160e21b8152600481018a905290519192506000916001600160a01b038416916335aa2e4491602480830192610100929190829003018186803b158015610e1b57600080fd5b505afa158015610e2f573d6000803e3d6000fd5b505050506040513d610100811015610e4657600080fd5b5080516040820151606083015160a084015160e090940151929a5090985096509094509050806003811115610e7757fe5b9250505091939590929450565b6000546001600160a01b031681565b60005460408051630a1ef8f960e21b8152905133926001600160a01b03169163287be3e4916004808301926020929190829003018186803b158015610ed757600080fd5b505afa158015610eeb573d6000803e3d6000fd5b505050506040513d6020811015610f0157600080fd5b50516001600160a01b031614610f1657600080fd5b806001600160a01b0316826001600160a01b0316847f7dfd3bad1e3cac97d3b89ff06d78394523c4f08fdee4daa71a59160003240c8960405160405180910390a4505050565b60005460408051630a1ef8f960e21b8152905133926001600160a01b03169163287be3e4916004808301926020929190829003018186803b158015610fa057600080fd5b505afa158015610fb4573d6000803e3d6000fd5b505050506040513d6020811015610fca57600080fd5b50516001600160a01b031614610fdf57600080fd5b604080518381526020810183905281517f9444bfcfa6aed72a15da73de1220dcc07d7864119c44abfec0037bbcacefda98929181900390910190a15050565b60005460408051630a1ef8f960e21b8152905133926001600160a01b03169163287be3e4916004808301926020929190829003018186803b15801561106257600080fd5b505afa158015611076573d6000803e3d6000fd5b505050506040513d602081101561108c57600080fd5b50516001600160a01b0316146110a157600080fd5b8284866001600160a01b03167f9cfd25589d1eb8ad71e342a86a8524e83522e3936c0803048c08f6d9ad974f408585604051808381526020018281526020019250505060405180910390a45050505050565b60005460408051630a1ef8f960e21b8152905133926001600160a01b03169163287be3e4916004808301926020929190829003018186803b15801561113757600080fd5b505afa15801561114b573d6000803e3d6000fd5b505050506040513d602081101561116157600080fd5b50516001600160a01b03161461117657600080fd5b82846001600160a01b03167f204fccf0d92ed8d48f204adb39b2e81e92bad0dedb93f5716ca9478cfb57de008484604051808381526020018281526020019250505060405180910390a350505050565b6000805460408051630a1ef8f960e21b815290518793926001600160a01b03169163287be3e4916004808301926020929190829003018186803b15801561120c57600080fd5b505afa158015611220573d6000803e3d6000fd5b505050506040513d602081101561123657600080fd5b505160408051630d6a8b9160e21b81526004810185905290516001600160a01b03909216916335aa2e449160248082019261010092909190829003018186803b15801561128257600080fd5b505afa158015611296573d6000803e3d6000fd5b505050506040513d6101008110156112ad57600080fd5b5060c0015190506001600160a01b03811633146112c957600080fd5b83856001600160a01b0316877f8df3db2462011d9f79ea35850218e22b9fc11eca880b4b674d6a2e36e52faf90866040518082815260200191505060405180910390a4505050505050565b60005460408051630a1ef8f960e21b8152905133926001600160a01b03169163287be3e4916004808301926020929190829003018186803b15801561135857600080fd5b505afa15801561136c573d6000803e3d6000fd5b505050506040513d602081101561138257600080fd5b50516001600160a01b03161461139757600080fd5b8082847f41e5e4590cfcde2f03ee9281c54d03acad8adffb83f8310d66b894532470ba3560405160405180910390a4505050565b60005460408051630a1ef8f960e21b8152905133926001600160a01b03169163287be3e4916004808301926020929190829003018186803b15801561140f57600080fd5b505afa158015611423573d6000803e3d6000fd5b505050506040513d602081101561143957600080fd5b50516001600160a01b03161461144e57600080fd5b604080518381526020810183905281517ff67f33e8589d3ea0356303c0f9a8e764873692159f777ff79e4fc523d389dfcd929181900390910190a15050565b6000805460408051630a1ef8f960e21b815290518793926001600160a01b03169163287be3e4916004808301926020929190829003018186803b1580156114d357600080fd5b505afa1580156114e7573d6000803e3d6000fd5b505050506040513d60208110156114fd57600080fd5b505160408051630d6a8b9160e21b81526004810185905290516001600160a01b03909216916335aa2e449160248082019261010092909190829003018186803b15801561154957600080fd5b505afa15801561155d573d6000803e3d6000fd5b505050506040513d61010081101561157457600080fd5b5060c0015190506001600160a01b038116331461159057600080fd5b83856001600160a01b0316877fc9afff0972d33d68c8d330fe0ebd0e9f54491ad8c59ae17330a9206f280f0865866040518082815260200191505060405180910390a4505050505050565b6000805460408051630a1ef8f960e21b815290518693926001600160a01b03169163287be3e4916004808301926020929190829003018186803b15801561162157600080fd5b505afa158015611635573d6000803e3d6000fd5b505050506040513d602081101561164b57600080fd5b505160408051630d6a8b9160e21b81526004810185905290516001600160a01b03909216916335aa2e449160248082019261010092909190829003018186803b15801561169757600080fd5b505afa1580156116ab573d6000803e3d6000fd5b505050506040513d6101008110156116c257600080fd5b5060c0015190506001600160a01b03811633146116de57600080fd5b8284867f7d5da5ece9d43013d62ab966f4704ca376b92be29ca6fbb958154baf1c0dc17e60405160405180910390a45050505050565b6000805460408051630a1ef8f960e21b8152905183926001600160a01b03169163287be3e4916004808301926020929190829003018186803b15801561175957600080fd5b505afa15801561176d573d6000803e3d6000fd5b505050506040513d602081101561178357600080fd5b505160408051630d6a8b9160e21b81526004810186905290516001600160a01b03909216916335aa2e449160248082019261010092909190829003018186803b1580156117cf57600080fd5b505afa1580156117e3573d6000803e3d6000fd5b505050506040513d6101008110156117fa57600080fd5b50805160c09091015190925090506001600160a01b0381161561188257806001600160a01b0316633a09bf446040518163ffffffff1660e01b815260040160206040518083038186803b15801561185057600080fd5b505afa158015611864573d6000803e3d6000fd5b505050506040513d602081101561187a57600080fd5b505191909101905b50919050565b60005460408051630a1ef8f960e21b8152905133926001600160a01b03169163287be3e4916004808301926020929190829003018186803b1580156118cc57600080fd5b505afa1580156118e0573d6000803e3d6000fd5b505050506040513d60208110156118f657600080fd5b50516001600160a01b03161461190b57600080fd5b8082847f1002381ecf76700f6f0ab4c90b9f523e39df7b0482b71ec63cf62cf85412047060405160405180910390a4505050565b6000805460408051630a1ef8f960e21b815290518793926001600160a01b03169163287be3e4916004808301926020929190829003018186803b15801561198557600080fd5b505afa158015611999573d6000803e3d6000fd5b505050506040513d60208110156119af57600080fd5b505160408051630d6a8b9160e21b81526004810185905290516001600160a01b03909216916335aa2e449160248082019261010092909190829003018186803b1580156119fb57600080fd5b505afa158015611a0f573d6000803e3d6000fd5b505050506040513d610100811015611a2657600080fd5b5060c0015190506001600160a01b0381163314611a4257600080fd5b83856001600160a01b0316877f7e86625aa6e668407f095af342e0cc237809c4c5086b4d665a0067de122980a9866040518082815260200191505060405180910390a4505050505050565b60005460408051630a1ef8f960e21b8152905133926001600160a01b03169163287be3e4916004808301926020929190829003018186803b158015611ad157600080fd5b505afa158015611ae5573d6000803e3d6000fd5b505050506040513d6020811015611afb57600080fd5b50516001600160a01b031614611b1057600080fd5b604080518381526020810183905281517f5d16a900896e1160c2033bc940e6b072d3dc3b6a996fefb9b3b9b9678841824c929181900390910190a1505056fea265627a7a7231582074fc37fb48eccc885f265be7e5e4c9af8f5f9e45d81cbf0fe9c82da9741d091364736f6c634300050b0032",
  "source": "pragma solidity ^0.5.2;\n\nimport {Registry} from \"../common/Registry.sol\";\n\n// dummy interface to avoid cyclic dependency\ncontract IStakeManager {\n    enum Status {Inactive, Active, Locked, Unstaked}\n\n    struct Validator {\n        uint256 amount;\n        uint256 reward;\n        uint256 activationEpoch;\n        uint256 deactivationEpoch;\n        uint256 jailTime;\n        address signer;\n        address contractAddress;\n        Status status;\n    }\n\n    mapping(uint256 => Validator) public validators;\n    bytes32 public accountStateRoot;\n    uint256 public activeAmount; // delegation amount from validator contract\n}\n\ncontract StakingInfo {\n    event Staked(\n        address indexed signer,\n        uint256 indexed validatorId,\n        uint256 indexed activationEpoch,\n        uint256 amount,\n        uint256 total\n    );\n    event Unstaked(\n        address indexed user,\n        uint256 indexed validatorId,\n        uint256 amount,\n        uint256 total\n    );\n    // event to ack unstaking which will start at deactivationEpoch\n    event UnstakeInit(\n        address indexed user,\n        uint256 indexed validatorId,\n        uint256 deactivationEpoch,\n        uint256 indexed amount\n    );\n\n    event SignerChange(\n        uint256 indexed validatorId,\n        address indexed oldSigner,\n        address indexed newSigner\n    );\n    event ReStaked(uint256 indexed validatorId, uint256 amount, uint256 total);\n    event Jailed(uint256 indexed validatorId, uint256 indexed exitEpoch);\n    event ThresholdChange(uint256 newThreshold, uint256 oldThreshold);\n    event DynastyValueChange(uint256 newDynasty, uint256 oldDynasty);\n    event RewardUpdate(uint256 newReward, uint256 oldReward);\n    event StakeUpdate(uint256 indexed validatorId, uint256 indexed newAmount);\n    event ClaimRewards(\n        uint256 indexed validatorId,\n        uint256 indexed amount,\n        uint256 indexed totalAmount\n    );\n    event StartAuction(\n        uint256 indexed validatorId,\n        uint256 indexed amount,\n        uint256 indexed auctionAmount\n    );\n    event ConfirmAuction(\n        uint256 indexed newValidatorId,\n        uint256 indexed oldValidatorId,\n        uint256 indexed amount\n    );\n    event TopUpFee(\n        uint256 indexed validatorId,\n        address indexed signer,\n        uint256 indexed fee\n    );\n    event ClaimFee(\n        uint256 indexed validatorId,\n        address indexed signer,\n        uint256 indexed fee\n    );\n    // Delegator events\n    event ShareMinted(\n        uint256 indexed validatorId,\n        address indexed user,\n        uint256 indexed amount,\n        uint256 tokens\n    );\n    event ShareBurned(\n        uint256 indexed validatorId,\n        address indexed user,\n        uint256 indexed amount,\n        uint256 tokens\n    );\n    event DelClaimRewards(\n        uint256 indexed validatorId,\n        address indexed user,\n        uint256 indexed rewards,\n        uint256 tokens\n    );\n    event UpdateCommissionRate(\n        uint256 indexed validatorId,\n        uint256 indexed newCommissionRate,\n        uint256 indexed oldCommissionRate\n    );\n\n    Registry public registry;\n\n    modifier onlyValidatorContract(uint256 validatorId) {\n        address _contract;\n        (, , , , , , _contract, ) = IStakeManager(\n            registry.getStakeManagerAddress()\n        )\n            .validators(validatorId);\n        require(_contract == msg.sender);\n        _;\n    }\n\n    modifier StakeManagerOrValidatorContract(uint256 validatorId) {\n        address _contract;\n        address _stakeManager = registry.getStakeManagerAddress();\n        (, , , , , , _contract, ) = IStakeManager(_stakeManager).validators(\n            validatorId\n        );\n        require(_contract == msg.sender || _stakeManager == msg.sender);\n        _;\n    }\n\n    modifier onlyStakeManager() {\n        require(registry.getStakeManagerAddress() == msg.sender);\n        _;\n    }\n\n    constructor(address _registry) public {\n        registry = Registry(_registry);\n    }\n\n    function logStaked(\n        address signer,\n        uint256 validatorId,\n        uint256 activationEpoch,\n        uint256 amount,\n        uint256 total\n    ) public onlyStakeManager {\n        emit Staked(signer, validatorId, activationEpoch, amount, total);\n    }\n\n    function logUnstaked(\n        address user,\n        uint256 validatorId,\n        uint256 amount,\n        uint256 total\n    ) public onlyStakeManager {\n        emit Unstaked(user, validatorId, amount, total);\n    }\n\n    function logUnstakeInit(\n        address user,\n        uint256 validatorId,\n        uint256 deactivationEpoch,\n        uint256 amount\n    ) public onlyStakeManager {\n        emit UnstakeInit(user, validatorId, deactivationEpoch, amount);\n    }\n\n    function logSignerChange(\n        uint256 validatorId,\n        address oldSigner,\n        address newSigner\n    ) public onlyStakeManager {\n        emit SignerChange(validatorId, oldSigner, newSigner);\n    }\n\n    function logReStaked(uint256 validatorId, uint256 amount, uint256 total)\n        public\n        onlyStakeManager\n    {\n        emit ReStaked(validatorId, amount, total);\n    }\n\n    function logJailed(uint256 validatorId, uint256 exitEpoch)\n        public\n        onlyStakeManager\n    {\n        emit Jailed(validatorId, exitEpoch);\n    }\n\n    function logThresholdChange(uint256 newThreshold, uint256 oldThreshold)\n        public\n        onlyStakeManager\n    {\n        emit ThresholdChange(newThreshold, oldThreshold);\n    }\n\n    function logDynastyValueChange(uint256 newDynasty, uint256 oldDynasty)\n        public\n        onlyStakeManager\n    {\n        emit DynastyValueChange(newDynasty, oldDynasty);\n    }\n\n    function logRewardUpdate(uint256 newReward, uint256 oldReward)\n        public\n        onlyStakeManager\n    {\n        emit RewardUpdate(newReward, oldReward);\n    }\n\n    function logStakeUpdate(uint256 validatorId)\n        public\n        StakeManagerOrValidatorContract(validatorId)\n    {\n        emit StakeUpdate(validatorId, totalValidatorStake(validatorId));\n    }\n\n    function logClaimRewards(\n        uint256 validatorId,\n        uint256 amount,\n        uint256 totalAmount\n    ) public onlyStakeManager {\n        emit ClaimRewards(validatorId, amount, totalAmount);\n    }\n\n    function logStartAuction(\n        uint256 validatorId,\n        uint256 amount,\n        uint256 auctionAmount\n    ) public onlyStakeManager {\n        emit StartAuction(validatorId, amount, auctionAmount);\n    }\n\n    function logConfirmAuction(\n        uint256 newValidatorId,\n        uint256 oldValidatorId,\n        uint256 amount\n    ) public onlyStakeManager {\n        emit ConfirmAuction(newValidatorId, oldValidatorId, amount);\n    }\n\n    function logTopUpFee(uint256 validatorId, address signer, uint256 fee)\n        public\n        onlyStakeManager\n    {\n        emit TopUpFee(validatorId, signer, fee);\n    }\n\n    function logClaimFee(uint256 validatorId, address signer, uint256 fee)\n        public\n        onlyStakeManager\n    {\n        emit ClaimFee(validatorId, signer, fee);\n    }\n\n    function getStakerDetails(uint256 validatorId)\n        public\n        view\n        returns (\n            uint256 amount,\n            uint256 activationEpoch,\n            uint256 deactivationEpoch,\n            address signer,\n            uint256 _status\n        )\n    {\n        IStakeManager stakeManager = IStakeManager(\n            registry.getStakeManagerAddress()\n        );\n        IStakeManager.Status status;\n        (\n            amount,\n            ,\n            activationEpoch,\n            deactivationEpoch,\n            ,\n            signer,\n            ,\n            status\n        ) = stakeManager.validators(validatorId);\n        _status = uint256(status);\n    }\n\n    function totalValidatorStake(uint256 validatorId)\n        public\n        view\n        returns (uint256 validatorStake)\n    {\n        address contractAddress;\n        (validatorStake, , , , , , contractAddress, ) = IStakeManager(\n            registry.getStakeManagerAddress()\n        )\n            .validators(validatorId);\n        if (contractAddress != address(0x0)) {\n            validatorStake += IStakeManager(contractAddress).activeAmount();\n        }\n    }\n\n    function getAccountStateRoot()\n        public\n        view\n        returns (bytes32 accountStateRoot)\n    {\n        accountStateRoot = IStakeManager(registry.getStakeManagerAddress())\n            .accountStateRoot();\n    }\n\n    function getValidatorContractAddress(uint256 validatorId)\n        public\n        view\n        returns (address ValidatorContract)\n    {\n        (, , , , , , ValidatorContract, ) = IStakeManager(\n            registry.getStakeManagerAddress()\n        )\n            .validators(validatorId);\n    }\n\n    // validator Share contract logging func\n    function logShareMinted(\n        uint256 validatorId,\n        address user,\n        uint256 amount,\n        uint256 tokens\n    ) public onlyValidatorContract(validatorId) {\n        emit ShareMinted(validatorId, user, amount, tokens);\n    }\n\n    function logShareBurned(\n        uint256 validatorId,\n        address user,\n        uint256 amount,\n        uint256 tokens\n    ) public onlyValidatorContract(validatorId) {\n        emit ShareBurned(validatorId, user, amount, tokens);\n    }\n\n    function logDelClaimRewards(\n        uint256 validatorId,\n        address user,\n        uint256 rewards,\n        uint256 tokens\n    ) public onlyValidatorContract(validatorId) {\n        emit DelClaimRewards(validatorId, user, rewards, tokens);\n    }\n\n    function logUpdateCommissionRate(\n        uint256 validatorId,\n        uint256 newCommissionRate,\n        uint256 oldCommissionRate\n    ) public onlyValidatorContract(validatorId) {\n        emit UpdateCommissionRate(\n            validatorId,\n            newCommissionRate,\n            oldCommissionRate\n        );\n    }\n\n}\n",
  "sourcePath": "/Users/arth/Documents/Projects/contracts/contracts/staking/StakingInfo.sol",
  "compiler": {
    "name": "solc",
    "version": "0.5.11+commit.c082d0b4.Emscripten.clang"
  },
  "schemaVersion": "3.0.14",
  "updatedAt": "2020-03-02T16:43:43.581Z",
  "devdoc": {
    "methods": {}
  },
  "userdoc": {
    "methods": {}
  }
}