{
  "contractName": "StakeManager",
  "abi": [
    {
      "constant": true,
      "inputs": [],
      "name": "auctionPeriod",
      "outputs": [
        {
          "internalType": "uint256",
          "name": "",
          "type": "uint256"
        }
      ],
      "payable": false,
      "stateMutability": "view",
      "type": "function"
    },
    {
      "constant": true,
      "inputs": [],
      "name": "totalRewards",
      "outputs": [
        {
          "internalType": "uint256",
          "name": "",
          "type": "uint256"
        }
      ],
      "payable": false,
      "stateMutability": "view",
      "type": "function"
    },
    {
      "constant": true,
      "inputs": [],
      "name": "WITHDRAWAL_DELAY",
      "outputs": [
        {
          "internalType": "uint256",
          "name": "",
          "type": "uint256"
        }
      ],
      "payable": false,
      "stateMutability": "view",
      "type": "function"
    },
    {
      "constant": true,
      "inputs": [],
      "name": "accountStateRoot",
      "outputs": [
        {
          "internalType": "bytes32",
          "name": "",
          "type": "bytes32"
        }
      ],
      "payable": false,
      "stateMutability": "view",
      "type": "function"
    },
    {
      "constant": true,
      "inputs": [],
      "name": "checkPointBlockInterval",
      "outputs": [
        {
          "internalType": "uint256",
          "name": "",
          "type": "uint256"
        }
      ],
      "payable": false,
      "stateMutability": "view",
      "type": "function"
    },
    {
      "constant": true,
      "inputs": [],
      "name": "NFTContract",
      "outputs": [
        {
          "internalType": "contract StakingNFT",
          "name": "",
          "type": "address"
        }
      ],
      "payable": false,
      "stateMutability": "view",
      "type": "function"
    },
    {
      "constant": true,
      "inputs": [
        {
          "internalType": "uint256",
          "name": "",
          "type": "uint256"
        }
      ],
      "name": "validators",
      "outputs": [
        {
          "internalType": "uint256",
          "name": "amount",
          "type": "uint256"
        },
        {
          "internalType": "uint256",
          "name": "reward",
          "type": "uint256"
        },
        {
          "internalType": "uint256",
          "name": "activationEpoch",
          "type": "uint256"
        },
        {
          "internalType": "uint256",
          "name": "deactivationEpoch",
          "type": "uint256"
        },
        {
          "internalType": "uint256",
          "name": "jailTime",
          "type": "uint256"
        },
        {
          "internalType": "address",
          "name": "signer",
          "type": "address"
        },
        {
          "internalType": "address",
          "name": "contractAddress",
          "type": "address"
        },
        {
          "internalType": "enum StakeManagerStorage.Status",
          "name": "status",
          "type": "uint8"
        }
      ],
      "payable": false,
      "stateMutability": "view",
      "type": "function"
    },
    {
      "constant": true,
      "inputs": [
        {
          "internalType": "address",
          "name": "",
          "type": "address"
        }
      ],
      "name": "signerToValidator",
      "outputs": [
        {
          "internalType": "uint256",
          "name": "",
          "type": "uint256"
        }
      ],
      "payable": false,
      "stateMutability": "view",
      "type": "function"
    },
    {
      "constant": true,
      "inputs": [],
      "name": "minDeposit",
      "outputs": [
        {
          "internalType": "uint256",
          "name": "",
          "type": "uint256"
        }
      ],
      "payable": false,
      "stateMutability": "view",
      "type": "function"
    },
    {
      "constant": true,
      "inputs": [],
      "name": "validatorThreshold",
      "outputs": [
        {
          "internalType": "uint256",
          "name": "",
          "type": "uint256"
        }
      ],
      "payable": false,
      "stateMutability": "view",
      "type": "function"
    },
    {
      "constant": true,
      "inputs": [
        {
          "internalType": "uint256",
          "name": "",
          "type": "uint256"
        }
      ],
      "name": "validatorAuction",
      "outputs": [
        {
          "internalType": "uint256",
          "name": "amount",
          "type": "uint256"
        },
        {
          "internalType": "uint256",
          "name": "startEpoch",
          "type": "uint256"
        },
        {
          "internalType": "address",
          "name": "user",
          "type": "address"
        }
      ],
      "payable": false,
      "stateMutability": "view",
      "type": "function"
    },
    {
      "constant": true,
      "inputs": [],
      "name": "NFTCounter",
      "outputs": [
        {
          "internalType": "uint256",
          "name": "",
          "type": "uint256"
        }
      ],
      "payable": false,
      "stateMutability": "view",
      "type": "function"
    },
    {
      "constant": true,
      "inputs": [],
      "name": "governance",
      "outputs": [
        {
          "internalType": "contract IGovernance",
          "name": "",
          "type": "address"
        }
      ],
      "payable": false,
      "stateMutability": "view",
      "type": "function"
    },
    {
      "constant": true,
      "inputs": [
        {
          "internalType": "uint256",
          "name": "",
          "type": "uint256"
        }
      ],
      "name": "validatorState",
      "outputs": [
        {
          "internalType": "int256",
          "name": "amount",
          "type": "int256"
        },
        {
          "internalType": "int256",
          "name": "stakerCount",
          "type": "int256"
        }
      ],
      "payable": false,
      "stateMutability": "view",
      "type": "function"
    },
    {
      "constant": true,
      "inputs": [],
      "name": "dynasty",
      "outputs": [
        {
          "internalType": "uint256",
          "name": "",
          "type": "uint256"
        }
      ],
      "payable": false,
      "stateMutability": "view",
      "type": "function"
    },
    {
      "constant": false,
      "inputs": [],
      "name": "renounceOwnership",
      "outputs": [],
      "payable": false,
      "stateMutability": "nonpayable",
      "type": "function"
    },
    {
      "constant": true,
      "inputs": [],
      "name": "currentEpoch",
      "outputs": [
        {
          "internalType": "uint256",
          "name": "",
          "type": "uint256"
        }
      ],
      "payable": false,
      "stateMutability": "view",
      "type": "function"
    },
    {
      "constant": true,
      "inputs": [],
      "name": "registry",
      "outputs": [
        {
          "internalType": "address",
          "name": "",
          "type": "address"
        }
      ],
      "payable": false,
      "stateMutability": "view",
      "type": "function"
    },
    {
      "constant": true,
      "inputs": [],
      "name": "CHECKPOINT_REWARD",
      "outputs": [
        {
          "internalType": "uint256",
          "name": "",
          "type": "uint256"
        }
      ],
      "payable": false,
      "stateMutability": "view",
      "type": "function"
    },
    {
      "constant": true,
      "inputs": [],
      "name": "totalStaked",
      "outputs": [
        {
          "internalType": "uint256",
          "name": "",
          "type": "uint256"
        }
      ],
      "payable": false,
      "stateMutability": "view",
      "type": "function"
    },
    {
      "constant": true,
      "inputs": [],
      "name": "owner",
      "outputs": [
        {
          "internalType": "address",
          "name": "",
          "type": "address"
        }
      ],
      "payable": false,
      "stateMutability": "view",
      "type": "function"
    },
    {
      "constant": true,
      "inputs": [],
      "name": "isOwner",
      "outputs": [
        {
          "internalType": "bool",
          "name": "",
          "type": "bool"
        }
      ],
      "payable": false,
      "stateMutability": "view",
      "type": "function"
    },
    {
      "constant": true,
      "inputs": [],
      "name": "rootChain",
      "outputs": [
        {
          "internalType": "address",
          "name": "",
          "type": "address"
        }
      ],
      "payable": false,
      "stateMutability": "view",
      "type": "function"
    },
    {
      "constant": true,
      "inputs": [],
      "name": "totalHeimdallFee",
      "outputs": [
        {
          "internalType": "uint256",
          "name": "",
          "type": "uint256"
        }
      ],
      "payable": false,
      "stateMutability": "view",
      "type": "function"
    },
    {
      "constant": false,
      "inputs": [],
      "name": "unlock",
      "outputs": [],
      "payable": false,
      "stateMutability": "nonpayable",
      "type": "function"
    },
    {
      "constant": true,
      "inputs": [],
      "name": "factory",
      "outputs": [
        {
          "internalType": "contract ValidatorShareFactory",
          "name": "",
          "type": "address"
        }
      ],
      "payable": false,
      "stateMutability": "view",
      "type": "function"
    },
    {
      "constant": true,
      "inputs": [],
      "name": "totalRewardsLiquidated",
      "outputs": [
        {
          "internalType": "uint256",
          "name": "",
          "type": "uint256"
        }
      ],
      "payable": false,
      "stateMutability": "view",
      "type": "function"
    },
    {
      "constant": true,
      "inputs": [],
      "name": "locked",
      "outputs": [
        {
          "internalType": "bool",
          "name": "",
          "type": "bool"
        }
      ],
      "payable": false,
      "stateMutability": "view",
      "type": "function"
    },
    {
      "constant": false,
      "inputs": [
        {
          "internalType": "address",
          "name": "newRootChain",
          "type": "address"
        }
      ],
      "name": "changeRootChain",
      "outputs": [],
      "payable": false,
      "stateMutability": "nonpayable",
      "type": "function"
    },
    {
      "constant": true,
      "inputs": [],
      "name": "logger",
      "outputs": [
        {
          "internalType": "contract StakingInfo",
          "name": "",
          "type": "address"
        }
      ],
      "payable": false,
      "stateMutability": "view",
      "type": "function"
    },
    {
      "constant": false,
      "inputs": [
        {
          "internalType": "address",
          "name": "newOwner",
          "type": "address"
        }
      ],
      "name": "transferOwnership",
      "outputs": [],
      "payable": false,
      "stateMutability": "nonpayable",
      "type": "function"
    },
    {
      "constant": false,
      "inputs": [],
      "name": "lock",
      "outputs": [],
      "payable": false,
      "stateMutability": "nonpayable",
      "type": "function"
    },
    {
      "constant": true,
      "inputs": [],
      "name": "minHeimdallFee",
      "outputs": [
        {
          "internalType": "uint256",
          "name": "",
          "type": "uint256"
        }
      ],
      "payable": false,
      "stateMutability": "view",
      "type": "function"
    },
    {
      "constant": true,
      "inputs": [],
      "name": "token",
      "outputs": [
        {
          "internalType": "contract IERC20",
          "name": "",
          "type": "address"
        }
      ],
      "payable": false,
      "stateMutability": "view",
      "type": "function"
    },
    {
      "inputs": [],
      "payable": false,
      "stateMutability": "nonpayable",
      "type": "constructor"
    },
    {
      "anonymous": false,
      "inputs": [
        {
          "indexed": true,
          "internalType": "address",
          "name": "previousRootChain",
          "type": "address"
        },
        {
          "indexed": true,
          "internalType": "address",
          "name": "newRootChain",
          "type": "address"
        }
      ],
      "name": "RootChainChanged",
      "type": "event"
    },
    {
      "anonymous": false,
      "inputs": [
        {
          "indexed": true,
          "internalType": "address",
          "name": "previousOwner",
          "type": "address"
        },
        {
          "indexed": true,
          "internalType": "address",
          "name": "newOwner",
          "type": "address"
        }
      ],
      "name": "OwnershipTransferred",
      "type": "event"
    },
    {
      "constant": false,
      "inputs": [
        {
          "internalType": "uint256",
          "name": "validatorId",
          "type": "uint256"
        },
        {
          "internalType": "uint256",
          "name": "heimdallFee",
          "type": "uint256"
        }
      ],
      "name": "topUpForFee",
      "outputs": [],
      "payable": false,
      "stateMutability": "nonpayable",
      "type": "function"
    },
    {
      "constant": true,
      "inputs": [
        {
          "internalType": "uint256",
          "name": "tokenId",
          "type": "uint256"
        }
      ],
      "name": "ownerOf",
      "outputs": [
        {
          "internalType": "address",
          "name": "",
          "type": "address"
        }
      ],
      "payable": false,
      "stateMutability": "view",
      "type": "function"
    },
    {
      "constant": false,
      "inputs": [
        {
          "internalType": "uint256",
          "name": "validatorId",
          "type": "uint256"
        },
        {
          "internalType": "uint256",
          "name": "accumSlashedAmount",
          "type": "uint256"
        },
        {
          "internalType": "uint256",
          "name": "amount",
          "type": "uint256"
        },
        {
          "internalType": "uint256",
          "name": "index",
          "type": "uint256"
        },
        {
          "internalType": "bytes",
          "name": "proof",
          "type": "bytes"
        }
      ],
      "name": "claimFee",
      "outputs": [],
      "payable": false,
      "stateMutability": "nonpayable",
      "type": "function"
    },
    {
      "constant": false,
      "inputs": [
        {
          "internalType": "uint256",
          "name": "amount",
          "type": "uint256"
        },
        {
          "internalType": "uint256",
          "name": "heimdallFee",
          "type": "uint256"
        },
        {
          "internalType": "address",
          "name": "signer",
          "type": "address"
        },
        {
          "internalType": "bool",
          "name": "acceptDelegation",
          "type": "bool"
        }
      ],
      "name": "stake",
      "outputs": [],
      "payable": false,
      "stateMutability": "nonpayable",
      "type": "function"
    },
    {
      "constant": true,
      "inputs": [
        {
          "internalType": "address",
          "name": "user",
          "type": "address"
        }
      ],
      "name": "totalStakedFor",
      "outputs": [
        {
          "internalType": "uint256",
          "name": "",
          "type": "uint256"
        }
      ],
      "payable": false,
      "stateMutability": "view",
      "type": "function"
    },
    {
      "constant": true,
      "inputs": [],
      "name": "supportsHistory",
      "outputs": [
        {
          "internalType": "bool",
          "name": "",
          "type": "bool"
        }
      ],
      "payable": false,
      "stateMutability": "pure",
      "type": "function"
    },
    {
      "constant": false,
      "inputs": [
        {
          "internalType": "uint256",
          "name": "validatorId",
          "type": "uint256"
        },
        {
          "internalType": "uint256",
          "name": "amount",
          "type": "uint256"
        }
      ],
      "name": "startAuction",
      "outputs": [],
      "payable": false,
      "stateMutability": "nonpayable",
      "type": "function"
    },
    {
      "constant": false,
      "inputs": [
        {
          "internalType": "uint256",
          "name": "validatorId",
          "type": "uint256"
        },
        {
          "internalType": "uint256",
          "name": "heimdallFee",
          "type": "uint256"
        },
        {
          "internalType": "address",
          "name": "signer",
          "type": "address"
        },
        {
          "internalType": "bool",
          "name": "acceptDelegation",
          "type": "bool"
        }
      ],
      "name": "confirmAuctionBid",
      "outputs": [],
      "payable": false,
      "stateMutability": "nonpayable",
      "type": "function"
    },
    {
      "constant": false,
      "inputs": [
        {
          "internalType": "uint256",
          "name": "validatorId",
          "type": "uint256"
        }
      ],
      "name": "unstake",
      "outputs": [],
      "payable": false,
      "stateMutability": "nonpayable",
      "type": "function"
    },
    {
      "constant": false,
      "inputs": [
        {
          "internalType": "uint256",
          "name": "validatorId",
          "type": "uint256"
        }
      ],
      "name": "forceUnstake",
      "outputs": [],
      "payable": false,
      "stateMutability": "nonpayable",
      "type": "function"
    },
    {
      "constant": false,
      "inputs": [
        {
          "internalType": "address",
          "name": "_registry",
          "type": "address"
        },
        {
          "internalType": "address",
          "name": "_rootchain",
          "type": "address"
        },
        {
          "internalType": "address",
          "name": "_NFTContract",
          "type": "address"
        },
        {
          "internalType": "address",
          "name": "_stakingLogger",
          "type": "address"
        },
        {
          "internalType": "address",
          "name": "_ValidatorShareFactory",
          "type": "address"
        }
      ],
      "name": "updateConstructor",
      "outputs": [],
      "payable": false,
      "stateMutability": "nonpayable",
      "type": "function"
    },
    {
      "constant": false,
      "inputs": [
        {
          "internalType": "uint256",
          "name": "validatorId",
          "type": "uint256"
        },
        {
          "internalType": "uint256",
          "name": "amount",
          "type": "uint256"
        },
        {
          "internalType": "address",
          "name": "delegator",
          "type": "address"
        }
      ],
      "name": "delegationTransfer",
      "outputs": [
        {
          "internalType": "bool",
          "name": "",
          "type": "bool"
        }
      ],
      "payable": false,
      "stateMutability": "nonpayable",
      "type": "function"
    },
    {
      "constant": false,
      "inputs": [
        {
          "internalType": "uint256",
          "name": "validatorId",
          "type": "uint256"
        },
        {
          "internalType": "uint256",
          "name": "amount",
          "type": "uint256"
        },
        {
          "internalType": "address",
          "name": "delegator",
          "type": "address"
        }
      ],
      "name": "delegationDeposit",
      "outputs": [
        {
          "internalType": "bool",
          "name": "",
          "type": "bool"
        }
      ],
      "payable": false,
      "stateMutability": "nonpayable",
      "type": "function"
    },
    {
      "constant": false,
      "inputs": [
        {
          "internalType": "address",
          "name": "user",
          "type": "address"
        },
        {
          "internalType": "uint256",
          "name": "amount",
          "type": "uint256"
        },
        {
          "internalType": "uint256",
          "name": "heimdallFee",
          "type": "uint256"
        },
        {
          "internalType": "address",
          "name": "signer",
          "type": "address"
        },
        {
          "internalType": "bool",
          "name": "acceptDelegation",
          "type": "bool"
        }
      ],
      "name": "stakeFor",
      "outputs": [],
      "payable": false,
      "stateMutability": "nonpayable",
      "type": "function"
    },
    {
      "constant": true,
      "inputs": [
        {
          "internalType": "uint256",
          "name": "validatorId",
          "type": "uint256"
        }
      ],
      "name": "perceivedStakeFactor",
      "outputs": [
        {
          "internalType": "uint256",
          "name": "",
          "type": "uint256"
        }
      ],
      "payable": false,
      "stateMutability": "view",
      "type": "function"
    },
    {
      "constant": false,
      "inputs": [
        {
          "internalType": "uint256",
          "name": "validatorId",
          "type": "uint256"
        }
      ],
      "name": "unstakeClaim",
      "outputs": [],
      "payable": false,
      "stateMutability": "nonpayable",
      "type": "function"
    },
    {
      "constant": false,
      "inputs": [
        {
          "internalType": "uint256",
          "name": "validatorId",
          "type": "uint256"
        },
        {
          "internalType": "uint256",
          "name": "amount",
          "type": "uint256"
        },
        {
          "internalType": "bool",
          "name": "stakeRewards",
          "type": "bool"
        }
      ],
      "name": "restake",
      "outputs": [],
      "payable": false,
      "stateMutability": "nonpayable",
      "type": "function"
    },
    {
      "constant": false,
      "inputs": [
        {
          "internalType": "uint256",
          "name": "validatorId",
          "type": "uint256"
        }
      ],
      "name": "withdrawRewards",
      "outputs": [],
      "payable": false,
      "stateMutability": "nonpayable",
      "type": "function"
    },
    {
      "constant": false,
      "inputs": [
        {
          "internalType": "uint256",
          "name": "validatorId",
          "type": "uint256"
        },
        {
          "internalType": "uint256",
          "name": "slashingRate",
          "type": "uint256"
        },
        {
          "internalType": "uint256",
          "name": "jailCheckpoints",
          "type": "uint256"
        }
      ],
      "name": "slash",
      "outputs": [],
      "payable": false,
      "stateMutability": "nonpayable",
      "type": "function"
    },
    {
      "constant": false,
      "inputs": [
        {
          "internalType": "uint256",
          "name": "validatorId",
          "type": "uint256"
        }
      ],
      "name": "unJail",
      "outputs": [],
      "payable": false,
      "stateMutability": "nonpayable",
      "type": "function"
    },
    {
      "constant": false,
      "inputs": [
        {
          "internalType": "uint256",
          "name": "validatorId",
          "type": "uint256"
        },
        {
          "internalType": "uint256",
          "name": "jailCheckpoints",
          "type": "uint256"
        }
      ],
      "name": "jail",
      "outputs": [],
      "payable": false,
      "stateMutability": "nonpayable",
      "type": "function"
    },
    {
      "constant": true,
      "inputs": [],
      "name": "getCurrentValidatorSet",
      "outputs": [
        {
          "internalType": "uint256[]",
          "name": "",
          "type": "uint256[]"
        }
      ],
      "payable": false,
      "stateMutability": "view",
      "type": "function"
    },
    {
      "constant": true,
      "inputs": [
        {
          "internalType": "address",
          "name": "user",
          "type": "address"
        }
      ],
      "name": "getValidatorId",
      "outputs": [
        {
          "internalType": "uint256",
          "name": "",
          "type": "uint256"
        }
      ],
      "payable": false,
      "stateMutability": "view",
      "type": "function"
    },
    {
      "constant": false,
      "inputs": [
        {
          "internalType": "address",
          "name": "_token",
          "type": "address"
        }
      ],
      "name": "setToken",
      "outputs": [],
      "payable": false,
      "stateMutability": "nonpayable",
      "type": "function"
    },
    {
      "constant": false,
      "inputs": [
        {
          "internalType": "uint256",
          "name": "newThreshold",
          "type": "uint256"
        }
      ],
      "name": "updateValidatorThreshold",
      "outputs": [],
      "payable": false,
      "stateMutability": "nonpayable",
      "type": "function"
    },
    {
      "constant": false,
      "inputs": [
        {
          "internalType": "uint256",
          "name": "_blocks",
          "type": "uint256"
        }
      ],
      "name": "updateCheckPointBlockInterval",
      "outputs": [],
      "payable": false,
      "stateMutability": "nonpayable",
      "type": "function"
    },
    {
      "constant": false,
      "inputs": [
        {
          "internalType": "uint256",
          "name": "newReward",
          "type": "uint256"
        }
      ],
      "name": "updateCheckpointReward",
      "outputs": [],
      "payable": false,
      "stateMutability": "nonpayable",
      "type": "function"
    },
    {
      "constant": false,
      "inputs": [
        {
          "internalType": "uint256",
          "name": "validatorId",
          "type": "uint256"
        },
        {
          "internalType": "int256",
          "name": "amount",
          "type": "int256"
        }
      ],
      "name": "updateValidatorState",
      "outputs": [],
      "payable": false,
      "stateMutability": "nonpayable",
      "type": "function"
    },
    {
      "constant": false,
      "inputs": [
        {
          "internalType": "uint256",
          "name": "newDynasty",
          "type": "uint256"
        }
      ],
      "name": "updateDynastyValue",
      "outputs": [],
      "payable": false,
      "stateMutability": "nonpayable",
      "type": "function"
    },
    {
      "constant": false,
      "inputs": [
        {
          "internalType": "uint256",
          "name": "_minDeposit",
          "type": "uint256"
        },
        {
          "internalType": "uint256",
          "name": "_minHeimdallFee",
          "type": "uint256"
        }
      ],
      "name": "updateMinAmounts",
      "outputs": [],
      "payable": false,
      "stateMutability": "nonpayable",
      "type": "function"
    },
    {
      "constant": false,
      "inputs": [
        {
          "internalType": "uint256",
          "name": "validatorId",
          "type": "uint256"
        },
        {
          "internalType": "address",
          "name": "_signer",
          "type": "address"
        }
      ],
      "name": "updateSigner",
      "outputs": [],
      "payable": false,
      "stateMutability": "nonpayable",
      "type": "function"
    },
    {
      "constant": true,
      "inputs": [],
      "name": "currentValidatorSetSize",
      "outputs": [
        {
          "internalType": "uint256",
          "name": "",
          "type": "uint256"
        }
      ],
      "payable": false,
      "stateMutability": "view",
      "type": "function"
    },
    {
      "constant": true,
      "inputs": [],
      "name": "currentValidatorSetTotalStake",
      "outputs": [
        {
          "internalType": "uint256",
          "name": "",
          "type": "uint256"
        }
      ],
      "payable": false,
      "stateMutability": "view",
      "type": "function"
    },
    {
      "constant": true,
      "inputs": [
        {
          "internalType": "uint256",
          "name": "validatorId",
          "type": "uint256"
        }
      ],
      "name": "getValidatorContract",
      "outputs": [
        {
          "internalType": "address",
          "name": "",
          "type": "address"
        }
      ],
      "payable": false,
      "stateMutability": "view",
      "type": "function"
    },
    {
      "constant": true,
      "inputs": [
        {
          "internalType": "uint256",
          "name": "validatorId",
          "type": "uint256"
        }
      ],
      "name": "isValidator",
      "outputs": [
        {
          "internalType": "bool",
          "name": "",
          "type": "bool"
        }
      ],
      "payable": false,
      "stateMutability": "view",
      "type": "function"
    },
    {
      "constant": false,
      "inputs": [
        {
          "internalType": "uint256",
          "name": "blockInterval",
          "type": "uint256"
        },
        {
          "internalType": "bytes32",
          "name": "voteHash",
          "type": "bytes32"
        },
        {
          "internalType": "bytes32",
          "name": "stateRoot",
          "type": "bytes32"
        },
        {
          "internalType": "bytes",
          "name": "sigs",
          "type": "bytes"
        }
      ],
      "name": "checkSignatures",
      "outputs": [
        {
          "internalType": "uint256",
          "name": "",
          "type": "uint256"
        }
      ],
      "payable": false,
      "stateMutability": "nonpayable",
      "type": "function"
    },
    {
      "constant": false,
      "inputs": [
        {
          "internalType": "bytes",
          "name": "checkpointTx",
          "type": "bytes"
        }
      ],
      "name": "challangeStateRootUpdate",
      "outputs": [],
      "payable": false,
      "stateMutability": "nonpayable",
      "type": "function"
    }
  ],
  "bytecode": "0x60806040526120006004556001600555612000600c5569021e19e0c9bab2400000600d55670de0b6b3a7640000600e55670de0b6b3a7640000600f5560ff601055600a60115560016013556004600c548161005657fe5b0460165534801561006657600080fd5b50600080546001600160a01b031916331780825560405182916001600160a01b03169082907f8be0079c531659141344cd1fd0a4f28419497f9722a3daafe3b4186f6b6457e0908290a3600280546001600160a01b0319166001600160a01b0392909216919091179055506145a080620000e16000396000f3fe608060405234801561001057600080fd5b506004361061041d5760003560e01c8063715018a61161022b578063a476907111610130578063d2203766116100b8578063f24ccbfe11610087578063f24ccbfe14610d8d578063f2fde38b14610d95578063f83d08ba14610dbb578063fba58f3414610dc3578063fc0c546a14610dcb5761041d565b8063d220376614610d0a578063d86d53e714610d2d578063e6692f4914610d4a578063e8afa8e814610d675761041d565b8063c344e766116100ff578063c344e76614610c17578063c45a015514610cd5578063cbf383d514610cdd578063cd6b838814610cfa578063cf30901214610d025761041d565b8063a476907114610bc1578063a69df4b514610bc9578063ac58629214610bd1578063b1d23f0214610bf45761041d565b80638da5cb5b116101b35780639342c8f4116101825780639342c8f414610b54578063987ab9db14610b715780639a8a624314610b795780639ff1150014610b81578063a440ab1e14610ba45761041d565b80638da5cb5b14610afb5780638f283a8614610b035780638f32d59b14610b2f5780639146014914610b375761041d565b80637d4bd608116101fa5780637d4bd60814610a035780637d66975214610a3d5780637f5da71814610a455780637f952d9514610aeb578063817b1cd214610af35761041d565b8063715018a6146109a757806376324ea5146109af57806376671808146109f35780637b103999146109fb5761041d565b80633862da0b1161033157806356342d8c116102b95780636352211e116102885780636352211e1461091f5780636901b2531461093c5780636cbb60501461096e5780637033e4a6146109975780637060054d1461099f5761041d565b806356342d8c1461080b5780635aa6e675146108285780635aac52f5146108305780635c248855146108e95761041d565b80634b341aed116103005780634b341aed1461076e5780634fd101d7146107945780634fee13fc1461079c5780635325e144146107bf5780635508d8e1146108035761041d565b80633862da0b146106f15780633d02455b1461071757806341b3d185146107345780634777fb421461073c5761041d565b8063174e6832116103b457806328cc4e411161038357806328cc4e41146105d25780632e17de78146105fd57806331c2273b1461061a578063357e6ff81461063e57806335aa2e441461065b5761041d565b8063174e68321461056b57806317c2b9101461059157806325316411146105995780632649263a146105a15761041d565b80630ebb172a116103f05780630ebb172a146104d8578063118bdec9146104e0578063144fa6d71461052857806316827b1b1461054e5761041d565b80630209fdd01461042257806306254a9c1461047a5780630cccfc58146104b65780630e15561a146104d0575b600080fd5b61042a610dd3565b60408051602080825283518183015283519192839290830191858101910280838360005b8381101561046657818101518382015260200161044e565b505050509050019250505060405180910390f35b6104b46004803603608081101561049057600080fd5b508035906020810135906001600160a01b0360408201351690606001351515610f49565b005b6104be610f5c565b60408051918252519081900360200190f35b6104be610f62565b6104be610f68565b6104b4600480360360a08110156104f657600080fd5b506001600160a01b03813581169160208101358216916040820135811691606081013582169160809091013516610f6e565b6104b46004803603602081101561053e57600080fd5b50356001600160a01b0316610fde565b6104b46004803603602081101561056457600080fd5b5035611024565b6104be6004803603602081101561058157600080fd5b50356001600160a01b03166110b9565b6104be611143565b6104be611149565b6105be600480360360208110156105b757600080fd5b503561114f565b604080519115158252519081900360200190f35b6104b4600480360360608110156105e857600080fd5b5080359060208101359060400135151561120a565b6104b46004803603602081101561061357600080fd5b5035611508565b61062261168c565b604080516001600160a01b039092168252519081900360200190f35b6104be6004803603602081101561065457600080fd5b503561169b565b6106786004803603602081101561067157600080fd5b50356116a1565b60405180898152602001888152602001878152602001868152602001858152602001846001600160a01b03166001600160a01b03168152602001836001600160a01b03166001600160a01b031681526020018260038111156106d657fe5b60ff1681526020019850505050505050505060405180910390f35b6104be6004803603602081101561070757600080fd5b50356001600160a01b03166116f8565b6104b46004803603602081101561072d57600080fd5b503561170a565b6104be61197f565b6105be6004803603606081101561075257600080fd5b50803590602081013590604001356001600160a01b0316611985565b6104be6004803603602081101561078457600080fd5b50356001600160a01b0316611a35565b6104be611b6c565b6104b4600480360360408110156107b257600080fd5b5080359060200135611b72565b6107dc600480360360208110156107d557600080fd5b5035611efc565b6040805193845260208401929092526001600160a01b031682820152519081900360600190f35b6104be611f26565b6106226004803603602081101561082157600080fd5b5035611f2c565b610622611f4b565b6104be6004803603608081101561084657600080fd5b8135916020810135916040820135919081019060808101606082013564010000000081111561087457600080fd5b82018360208201111561088657600080fd5b803590602001918460018302840111640100000000831117156108a857600080fd5b91908080601f016020809104026020016040519081016040528093929190818152602001838380828437600092019190915250929550611f5a945050505050565b610906600480360360208110156108ff57600080fd5b5035611fdd565b6040805192835260208301919091528051918290030190f35b6106226004803603602081101561093557600080fd5b5035611ff6565b6105be6004803603606081101561095257600080fd5b50803590602081013590604001356001600160a01b0316612042565b6104b46004803603606081101561098457600080fd5b50803590602081013590604001356120c4565b6105be61220b565b6104be612210565b6104b4612216565b6104b4600480360360a08110156109c557600080fd5b506001600160a01b038135811691602081013591604082013591606081013590911690608001351515612271565b6104be612421565b610622612427565b6104b460048036036080811015610a1957600080fd5b508035906020810135906001600160a01b0360408201351690606001351515612436565b6104be612908565b6104b460048036036020811015610a5b57600080fd5b810190602081018135640100000000811115610a7657600080fd5b820183602082011115610a8857600080fd5b80359060200191846001830284011164010000000083111715610aaa57600080fd5b91908080601f01602080910402602001604051908101604052809392919081815260200183838082843760009201919091525092955061290e945050505050565b6104be612911565b6104be612929565b61062261292f565b6104b460048036036040811015610b1957600080fd5b50803590602001356001600160a01b031661293e565b6105be612ada565b6104b460048036036020811015610b4d57600080fd5b5035612aeb565b6104b460048036036020811015610b6a57600080fd5b5035612b08565b610622612d87565b6104be612d96565b6104b460048036036040811015610b9757600080fd5b5080359060200135612d9c565b6104b460048036036020811015610bba57600080fd5b5035612dde565b6104be612e49565b6104b4612e5e565b6104b460048036036040811015610be757600080fd5b5080359060200135612eb6565b6104b460048036036040811015610c0a57600080fd5b5080359060200135612fea565b6104b4600480360360a0811015610c2d57600080fd5b81359160208101359160408201359160608101359181019060a081016080820135640100000000811115610c6057600080fd5b820183602082011115610c7257600080fd5b80359060200191846001830284011164010000000083111715610c9457600080fd5b91908080601f016020809104026020016040519081016040528093929190818152602001838380828437600092019190915250929550613006945050505050565b61062261329a565b6104b460048036036020811015610cf357600080fd5b50356132a9565b6104be61333e565b6105be613344565b6104b460048036036040811015610d2057600080fd5b5080359060200135613354565b6104b460048036036020811015610d4357600080fd5b503561353b565b6104b460048036036020811015610d6057600080fd5b5035613883565b6104b460048036036020811015610d7d57600080fd5b50356001600160a01b0316613948565b6106226139c8565b6104b460048036036020811015610dab57600080fd5b50356001600160a01b03166139d7565b6104b46139f1565b6104be613a4f565b610622613a55565b606080610dde612911565b604051908082528060200260200182016040528015610e07578160200160208202803883390190505b509050600080805b600a60009054906101000a90046001600160a01b03166001600160a01b03166318160ddd6040518163ffffffff1660e01b815260040160206040518083038186803b158015610e5d57600080fd5b505afa158015610e71573d6000803e3d6000fd5b505050506040513d6020811015610e8757600080fd5b5051811015610f4057600a5460408051634f6ccce760e01b81526004810184905290516001600160a01b0390921691634f6ccce791602480820192602092909190829003018186803b158015610edc57600080fd5b505afa158015610ef0573d6000803e3d6000fd5b505050506040513d6020811015610f0657600080fd5b50519250610f138361114f565b15610f385782848380600101945081518110610f2b57fe5b6020026020010181815250505b600101610e0f565b50919250505090565b610f563385858585612271565b50505050565b60165481565b60145481565b60045481565b610f76612ada565b610f7f57600080fd5b600880546001600160a01b03199081166001600160a01b039788161790915560038054821695871695909517909455600a8054851693861693909317909255600980548416918516919091179055600b80549092169216919091179055565b610fe6612ada565b610fef57600080fd5b6001600160a01b03811661100257600080fd5b600780546001600160a01b0319166001600160a01b0392909216919091179055565b61102c612ada565b61103557600080fd5b6000811161104257600080fd5b60095460115460408051630f1980a560e41b8152600481018590526024810192909252516001600160a01b039092169163f1980a509160448082019260009290919082900301818387803b15801561109957600080fd5b505af11580156110ad573d6000803e3d6000fd5b50505060119190915550565b600a5460408051632f745c5960e01b81526001600160a01b038481166004830152600060248301819052925192931691632f745c5991604480820192602092909190829003018186803b15801561110f57600080fd5b505afa158015611123573d6000803e3d6000fd5b505050506040513d602081101561113957600080fd5b505190505b919050565b60175481565b60105481565b6000818152600660205260408120541580159061119a57506000828152600660205260409020600201541580159061119a575060055460008381526006602052604090206002015411155b80156111d1575060008281526006602052604090206003015415806111d15750600554600083815260066020526040902060030154115b80156112045750600160008381526006602081905260409091200154600160a01b900460ff16600381111561120257fe5b145b92915050565b600a54604080516331a9108f60e11b8152600481018690529051859233926001600160a01b0390911691636352211e91602480820192602092909190829003018186803b15801561125a57600080fd5b505afa15801561126e573d6000803e3d6000fd5b505050506040513d602081101561128457600080fd5b50516001600160a01b03161461129957600080fd5b600554600085815260066020526040902060030154106112f6576040805162461bcd60e51b81526020600482015260136024820152724e6f20757365206f662072657374616b696e6760681b604482015290519081900360640190fd5b82156113c457600754604080516323b872dd60e01b81523360048201523060248201526044810186905290516001600160a01b03909216916323b872dd916064808201926020929091908290030181600087803b15801561135657600080fd5b505af115801561136a573d6000803e3d6000fd5b505050506040513d602081101561138057600080fd5b50516113c4576040805162461bcd60e51b815260206004820152600e60248201526d5472616e73666572207374616b6560901b604482015290519081900360640190fd5b81156113e6576000848152600660205260408120600101805491905592909201915b6012546113f9908463ffffffff613a6416565b60125560008481526006602090815260408083208054870190556005548352601a909152808220805486019055600954815163532e19a960e01b81526004810188905291516001600160a01b039091169263532e19a9926024808201939182900301818387803b15801561146c57600080fd5b505af1158015611480573d6000803e3d6000fd5b505060095460008781526006602052604080822054601254825163242c1b9960e01b8152600481018c90526024810192909252604482015290516001600160a01b03909316945063242c1b9993506064808201939182900301818387803b1580156114ea57600080fd5b505af11580156114fe573d6000803e3d6000fd5b5050505050505050565b600a54604080516331a9108f60e11b8152600481018490529051839233926001600160a01b0390911691636352211e91602480820192602092909190829003018186803b15801561155857600080fd5b505afa15801561156c573d6000803e3d6000fd5b505050506040513d602081101561158257600080fd5b50516001600160a01b03161461159757600080fd5b6000828152601b6020526040902054156115f8576040805162461bcd60e51b815260206004820152601b60248201527f5761697420666f722061756374696f6e20636f6d706c6574696f6e0000000000604482015290519081900360640190fd5b60055460009061160f90600163ffffffff613a6416565b600084815260066020526040902060020154909150158015906116415750600083815260066020526040902060030154155b80156116745750600160008481526006602081905260409091200154600160a01b900460ff16600381111561167257fe5b145b61167d57600080fd5b6116878382613a7d565b505050565b600a546001600160a01b031681565b50600190565b600660208190526000918252604090912080546001820154600283015460038401546004850154600586015495909601549395929491939092916001600160a01b039081169190811690600160a01b900460ff1688565b60196020526000908152604090205481565b600a54604080516331a9108f60e11b8152600481018490529051839233926001600160a01b0390911691636352211e91602480820192602092909190829003018186803b15801561175a57600080fd5b505afa15801561176e573d6000803e3d6000fd5b505050506040513d602081101561178457600080fd5b50516001600160a01b03161461179957600080fd5b6005546000838152600660205260409020600301541180156117ce575060055460008381526006602052604090206004015411155b80156118015750600260008381526006602081905260409091200154600160a01b900460ff1660038111156117ff57fe5b145b61180a57600080fd5b600082815260066020526040902054600e5481101561182857600080fd5b6000838152600660208190526040822060038101549101549091906001600160a01b03161561193c57600085815260066020818152604092839020909101548251630e826fd160e21b815292516001600160a01b0390911692633a09bf44926004808301939192829003018186803b1580156118a357600080fd5b505afa1580156118b7573d6000803e3d6000fd5b505050506040513d60208110156118cd57600080fd5b5051600086815260066020819052604080832090910154815163a69df4b560e01b815291519394506001600160a01b03169263a69df4b59260048084019391929182900301818387803b15801561192357600080fd5b505af1158015611937573d6000803e3d6000fd5b505050505b61194a828285016001613c08565b505050600091825250600660208190526040822060038101839055908101805460ff60a01b1916600160a01b17905560040155565b600e5481565b6000838152600660208190526040822001546001600160a01b031633146119ab57600080fd5b6007546040805163a9059cbb60e01b81526001600160a01b038581166004830152602482018790529151919092169163a9059cbb9160448083019260209291908290030181600087803b158015611a0157600080fd5b505af1158015611a15573d6000803e3d6000fd5b505050506040513d6020811015611a2b57600080fd5b5051949350505050565b60006001600160a01b0382161580611ac35750600a54604080516370a0823160e01b81526001600160a01b038581166004830152915191909216916370a08231916024808301926020929190829003018186803b158015611a9557600080fd5b505afa158015611aa9573d6000803e3d6000fd5b505050506040513d6020811015611abf57600080fd5b5051155b15611ad05750600061113e565b600a5460408051632f745c5960e01b81526001600160a01b03858116600483015260006024830181905292516006949190911691632f745c59916044808301926020929190829003018186803b158015611b2957600080fd5b505afa158015611b3d573d6000803e3d6000fd5b505050506040513d6020811015611b5357600080fd5b5051815260208101919091526040016000205492915050565b60115481565b611b7b8261114f565b611b8457600080fd5b6018541580611b97575060055460185411155b611bdb576040805162461bcd60e51b815260206004820152601060248201526f10dbdbdb08191bdddb881c195c9a5bd960821b604482015290519081900360640190fd5b601654600c54611bf1908263ffffffff613a6416565b600084815260066020526040902060020154600554611c159163ffffffff613c2a16565b81611c1c57fe5b061115611c69576040805162461bcd60e51b8152602060048201526016602482015275125b9d985b1a5908185d58dd1a5bdb881c195c9a5bd960521b604482015290519081900360640190fd5b6000611c92611c778461169b565b6000858152600660205260409020549063ffffffff613c3f16565b6000848152601b6020526040902054909150611caf908290613c66565b9050818110611cfe576040805162461bcd60e51b8152602060048201526016602482015275135d5cdd08189a59081a1a59da195c88185b5bdd5b9d60521b604482015290519081900360640190fd5b600754604080516323b872dd60e01b81523360048201523060248201526044810185905290516001600160a01b03909216916323b872dd916064808201926020929091908290030181600087803b158015611d5857600080fd5b505af1158015611d6c573d6000803e3d6000fd5b505050506040513d6020811015611d8257600080fd5b5051611dce576040805162461bcd60e51b8152602060048201526016602482015275151c985b9cd9995c88185b5bdd5b9d0819985a5b195960521b604482015290519081900360640190fd5b6000838152601b60205260409020805415611e7557600754600282015482546040805163a9059cbb60e01b81526001600160a01b039384166004820152602481019290925251919092169163a9059cbb9160448083019260209291908290030181600087803b158015611e4057600080fd5b505af1158015611e54573d6000803e3d6000fd5b505050506040513d6020811015611e6a57600080fd5b5051611e7557600080fd5b8281556002810180546001600160a01b03191633179055600954600085815260066020908152604080832054601b909252808320548151630934a6df60e01b8152600481018a905260248101939093526044830152516001600160a01b039390931692630934a6df9260648084019391929182900301818387803b1580156114ea57600080fd5b601b602052600090815260409020805460018201546002909201549091906001600160a01b031683565b60135481565b600090815260066020819052604090912001546001600160a01b031690565b6002546001600160a01b031681565b6003546000906001600160a01b03163314611f7457600080fd5b6000611f9d601054611f91600d5489613c3f90919063ffffffff16565b9063ffffffff613c7d16565b9050611fab600d5482613c9f565b90506000611fb7612e49565b60178690559050611fc6613cae565b611fd281838887613d0c565b979650505050505050565b601a602052600090815260409020805460019091015482565b600a54604080516331a9108f60e11b81526004810184905290516000926001600160a01b031691636352211e916024808301926020929190829003018186803b15801561110f57600080fd5b6000838152600660208190526040822001546001600160a01b0316331461206857600080fd5b600754604080516323b872dd60e01b81526001600160a01b03858116600483015230602483015260448201879052915191909216916323b872dd9160648083019260209291908290030181600087803b158015611a0157600080fd5b60085460408051631ab0168360e31b8152905133926001600160a01b03169163d580b418916004808301926020929190829003018186803b15801561210857600080fd5b505afa15801561211c573d6000803e3d6000fd5b505050506040513d602081101561213257600080fd5b50516001600160a01b03161461214757600080fd5b60008381526006602052604081205461216d90606490611f91908663ffffffff613c3f16565b60008581526006602052604090205490915061218f908263ffffffff613c2a16565b6000858152600660205260409020819055600e5411806121af5750600082115b156121be576121be8483613354565b6009546040805163532e19a960e01b81526004810187905290516001600160a01b039092169163532e19a99160248082019260009290919082900301818387803b1580156114ea57600080fd5b600090565b600c5481565b61221e612ada565b61222757600080fd5b600080546040516001600160a01b03909116907f8be0079c531659141344cd1fd0a4f28419497f9722a3daafe3b4186f6b6457e0908390a3600080546001600160a01b0319169055565b600254600160a01b900460ff16156122bc576040805162461bcd60e51b8152602060048201526009602482015268125cc8131bd8dad95960ba1b604482015290519081900360640190fd5b6011546122c7612911565b106122d157600080fd5b600e5484116122df57600080fd5b6001600160a01b0382166000908152601960205260409020541561230257600080fd5b6007546001600160a01b03166323b872dd3330612325888863ffffffff613a6416565b6040518463ffffffff1660e01b815260040180846001600160a01b03166001600160a01b03168152602001836001600160a01b03166001600160a01b031681526020018281526020019350505050602060405180830381600087803b15801561238d57600080fd5b505af11580156123a1573d6000803e3d6000fd5b505050506040513d60208110156123b757600080fd5b5051612402576040805162461bcd60e51b8152602060048201526015602482015274151c985b9cd9995c881cdd185ad94819985a5b1959605a1b604482015290519081900360640190fd5b61240e60135484614019565b61241a858584846140ac565b5050505050565b60055481565b6008546001600160a01b031681565b600254600160a01b900460ff1615612481576040805162461bcd60e51b8152602060048201526009602482015268125cc8131bd8dad95960ba1b604482015290519081900360640190fd5b6000848152601b602090815260408083206006909252909120600554600c5460018401546124c8916124b9919063ffffffff613a6416565b6016549063ffffffff613a6416565b11156125055760405162461bcd60e51b81526004018080602001828103825260308152602001806145166030913960400191505060405180910390fd5b600a54604080516331a9108f60e11b81526004810189905290516001600160a01b0390921691636352211e91602480820192602092909190829003018186803b15801561255157600080fd5b505afa158015612565573d6000803e3d6000fd5b505050506040513d602081101561257b57600080fd5b505160028301546001600160a01b039081169116141561275157805460075460028401546040805163a9059cbb60e01b81526001600160a01b039283166004820152602481018590529051919092169163a9059cbb9160448083019260209291908290030181600087803b1580156125f257600080fd5b505af1158015612606573d6000803e3d6000fd5b505050506040513d602081101561261c57600080fd5b505161262757600080fd5b82548255600083556002830180546001600160a01b03191690556005546001840155815461266e9061265f908363ffffffff613c2a16565b6012549063ffffffff613a6416565b6012556009546040805163532e19a960e01b8152600481018a905290516001600160a01b039092169163532e19a99160248082019260009290919082900301818387803b1580156126be57600080fd5b505af11580156126d2573d6000803e3d6000fd5b505060095484546040805163e12ab1af60e01b8152600481018d9052602481018d90526044810192909252516001600160a01b03909216935063e12ab1af925060648082019260009290919082900301818387803b15801561273357600080fd5b505af1158015612747573d6000803e3d6000fd5b5050505050612900565b61275d86600554613a7d565b600754604080516323b872dd60e01b81523360048201523060248201526044810188905290516001600160a01b03909216916323b872dd916064808201926020929091908290030181600087803b1580156127b757600080fd5b505af11580156127cb573d6000803e3d6000fd5b505050506040513d60208110156127e157600080fd5b505161282a576040805162461bcd60e51b8152602060048201526013602482015272151c985b9cd9995c881999594819985a5b1959606a1b604482015290519081900360640190fd5b61283660135486614019565b60028201548254612852916001600160a01b03169086866140ac565b6009546013546001600160a01b039091169063e12ab1af9061287b90600163ffffffff613c2a16565b8885600001546040518463ffffffff1660e01b8152600401808481526020018381526020018281526020019350505050600060405180830381600087803b1580156128c557600080fd5b505af11580156128d9573d6000803e3d6000fd5b5050506000878152601b6020526040812090815560020180546001600160a01b0319169055505b505050505050565b600d5481565b50565b6005546000908152601a602052604090206001015490565b60125481565b6000546001600160a01b031690565b600a54604080516331a9108f60e11b8152600481018590529051849233926001600160a01b0390911691636352211e91602480820192602092909190829003018186803b15801561298e57600080fd5b505afa1580156129a2573d6000803e3d6000fd5b505050506040513d60208110156129b857600080fd5b50516001600160a01b0316146129cd57600080fd5b6001600160a01b038216158015906129fb57506001600160a01b038216600090815260196020526040902054155b612a0457600080fd5b600954600084815260066020526040808220600501548151632682023960e21b8152600481018890526001600160a01b03918216602482015286821660448201529151931692639a0808e49260648084019391929182900301818387803b158015612a6e57600080fd5b505af1158015612a82573d6000803e3d6000fd5b505050600084815260066020818152604080842060050180546001600160a01b0390811686526019845282862086905597909716808552908420889055969092529052505080546001600160a01b0319169091179055565b6000546001600160a01b0316331490565b612af3612ada565b612afc57600080fd5b61290e81600554613a7d565b600a54604080516331a9108f60e11b8152600481018490529051839233926001600160a01b0390911691636352211e91602480820192602092909190829003018186803b158015612b5857600080fd5b505afa158015612b6c573d6000803e3d6000fd5b505050506040513d6020811015612b8257600080fd5b50516001600160a01b031614612b9757600080fd5b600082815260066020819052604090912060018101549101546001600160a01b03168015612c3957612c36816001600160a01b03166332ba2e536040518163ffffffff1660e01b8152600401602060405180830381600087803b158015612bfd57600080fd5b505af1158015612c11573d6000803e3d6000fd5b505050506040513d6020811015612c2757600080fd5b5051839063ffffffff613a6416565b91505b601554612c4c908363ffffffff613a6416565b6015556000848152600660209081526040808320600101839055600754815163a9059cbb60e01b81523360048201526024810187905291516001600160a01b039091169363a9059cbb93604480850194919392918390030190829087803b158015612cb657600080fd5b505af1158015612cca573d6000803e3d6000fd5b505050506040513d6020811015612ce057600080fd5b5051612d29576040805162461bcd60e51b8152602060048201526013602482015272496e737566666963656e74207265776172647360681b604482015290519081900360640190fd5b60095460155460408051635b42d93560e11b815260048101889052602481018690526044810192909252516001600160a01b039092169163b685b26a9160648082019260009290919082900301818387803b1580156114ea57600080fd5b6003546001600160a01b031681565b601c5481565b600082815260066020819052604090912001546001600160a01b03163314612dc357600080fd5b6005546000908152601a602052604090208054909101905550565b612de6612ada565b612def57600080fd5b60008111612e44576040805162461bcd60e51b815260206004820181905260248201527f426c6f636b7320696e74657276616c206d757374206265206e6f6e2d7a65726f604482015290519081900360640190fd5b601055565b6005546000908152601a602052604090205490565b6002546001600160a01b03163314612ea75760405162461bcd60e51b81526004018080602001828103825260268152602001806145466026913960400191505060405180910390fd5b6002805460ff60a01b19169055565b600f54811015612f0d576040805162461bcd60e51b815260206004820152601960248201527f4d696e696d756d20616d6f756e742069732031204d6174696300000000000000604482015290519081900360640190fd5b600754604080516323b872dd60e01b81523360048201523060248201526044810184905290516001600160a01b03909216916323b872dd916064808201926020929091908290030181600087803b158015612f6757600080fd5b505af1158015612f7b573d6000803e3d6000fd5b505050506040513d6020811015612f9157600080fd5b5051612fdc576040805162461bcd60e51b8152602060048201526015602482015274151c985b9cd9995c881cdd185ad94819985a5b1959605a1b604482015290519081900360640190fd5b612fe68282614019565b5050565b612ff2612ada565b612ffb57600080fd5b600e91909155600f55565b600a54604080516331a9108f60e11b8152600481018890529051879233926001600160a01b0390911691636352211e91602480820192602092909190829003018186803b15801561305657600080fd5b505afa15801561306a573d6000803e3d6000fd5b505050506040513d602081101561308057600080fd5b50516001600160a01b03161461309557600080fd5b8584866040516020018084815260200183815260200182815260200193505050506040516020818303038152906040528051906020012073__Merkle________________________________636c8f455c909185601754866040518563ffffffff1660e01b81526004018085815260200184815260200183815260200180602001828103825283818151815260200191508051906020019080838360005b8381101561314b578181015183820152602001613133565b50505050905090810190601f1680156131785780820380516001836020036101000a031916815260200191505b509550505050505060206040518083038186803b15801561319857600080fd5b505af41580156131ac573d6000803e3d6000fd5b505050506040513d60208110156131c257600080fd5b5051613207576040805162461bcd60e51b815260206004820152600f60248201526e2bb937b7339030b1b190383937b7b360891b604482015290519081900360640190fd5b6007546040805163a9059cbb60e01b81523360048201526024810187905290516001600160a01b039092169163a9059cbb916044808201926020929091908290030181600087803b15801561325b57600080fd5b505af115801561326f573d6000803e3d6000fd5b505050506040513d602081101561328557600080fd5b505161329057600080fd5b61290086856143a8565b600b546001600160a01b031681565b6132b1612ada565b6132ba57600080fd5b600081116132c757600080fd5b600954600d5460408051632dbe9d3160e21b8152600481018590526024810192909252516001600160a01b039092169163b6fa74c49160448082019260009290919082900301818387803b15801561331e57600080fd5b505af1158015613332573d6000803e3d6000fd5b505050600d9190915550565b60155481565b600254600160a01b900460ff1681565b60008281526006602052604081205460045460055491929161337b9163ffffffff613a6416565b60008581526006602081905260408220600481018790550154919250906001600160a01b03161561349157600085815260066020818152604092839020909101548251630e826fd160e21b815292516001600160a01b0390911692633a09bf44926004808301939192829003018186803b1580156133f857600080fd5b505afa15801561340c573d6000803e3d6000fd5b505050506040513d602081101561342257600080fd5b50516000868152600660208190526040808320909101548151637c1e845d60e11b815291519394506001600160a01b03169263f83d08ba9260048084019391929182900301818387803b15801561347857600080fd5b505af115801561348c573d6000803e3d6000fd5b505050505b6134a382828501600003600019613c08565b600085815260066020819052604080832060038101869055909101805460ff60a01b1916600160a11b17905560095481516304ba4aad60e11b8152600481018990526024810186905291516001600160a01b0390911692630974955a926044808201939182900301818387803b15801561351c57600080fd5b505af1158015613530573d6000803e3d6000fd5b505050505050505050565b600a54604080516331a9108f60e11b8152600481018490529051839233926001600160a01b0390911691636352211e91602480820192602092909190829003018186803b15801561358b57600080fd5b505afa15801561359f573d6000803e3d6000fd5b505050506040513d60208110156135b557600080fd5b50516001600160a01b0316146135ca57600080fd5b6000828152600660205260409020600301541580159061360f575060055460045460008481526006602052604090206003015461360c9163ffffffff613a6416565b11155b80156136435750600360008381526006602081905260409091200154600160a01b900460ff16600381111561364057fe5b14155b61364c57600080fd5b60008281526006602052604090205460125461366e908263ffffffff613c2a16565b601255600a5460408051630852cd8d60e31b81526004810186905290516001600160a01b03909216916342966c689160248082019260009290919082900301818387803b1580156136be57600080fd5b505af11580156136d2573d6000803e3d6000fd5b505050600084815260066020818152604080842060058101546001600160a01b039081168652601984529185208590559388905290829052908201805460ff60a01b1916600360a01b1790556007546001909201549116915063a9059cbb90339061373e908590613a64565b6040518363ffffffff1660e01b815260040180836001600160a01b03166001600160a01b0316815260200182815260200192505050602060405180830381600087803b15801561378d57600080fd5b505af11580156137a1573d6000803e3d6000fd5b505050506040513d60208110156137b757600080fd5b5051613802576040805162461bcd60e51b8152602060048201526015602482015274151c985b9cd9995c881cdd185ad94819985a5b1959605a1b604482015290519081900360640190fd5b6009546012546040805163ae2e26b160e01b815233600482015260248101879052604481018590526064810192909252516001600160a01b039092169163ae2e26b19160848082019260009290919082900301818387803b15801561386657600080fd5b505af115801561387a573d6000803e3d6000fd5b50505050505050565b61388b612ada565b61389457600080fd5b600081116138a157600080fd5b600954600c5460408051635071805360e11b8152600481018590526024810192909252516001600160a01b039092169163a0e300a69160448082019260009290919082900301818387803b1580156138f857600080fd5b505af115801561390c573d6000803e3d6000fd5b505050600c82905550600481815561392b90829063ffffffff613c7d16565b60168190556005546139429163ffffffff613a6416565b60185550565b613950612ada565b61395957600080fd5b6001600160a01b03811661396c57600080fd5b6003546040516001600160a01b038084169216907f211c9015fc81c0dbd45bd99f0f29fc1c143bfd53442d5ffd722bbbef7a887fe990600090a3600380546001600160a01b0319166001600160a01b0392909216919091179055565b6009546001600160a01b031681565b6139df612ada565b6139e857600080fd5b61290e81614427565b6002546001600160a01b03163314613a3a5760405162461bcd60e51b81526004018080602001828103825260268152602001806145466026913960400191505060405180910390fd5b6002805460ff60a01b1916600160a01b179055565b600f5481565b6007546001600160a01b031681565b600082820183811015613a7657600080fd5b9392505050565b600082815260066020819052604082208054600382018590559101549091906001600160a01b031615613b9557600084815260066020818152604092839020909101548251630e826fd160e21b815292516001600160a01b0390911692633a09bf44926004808301939192829003018186803b158015613afc57600080fd5b505afa158015613b10573d6000803e3d6000fd5b505050506040513d6020811015613b2657600080fd5b50516000858152600660208190526040808320909101548151637c1e845d60e11b815291519394506001600160a01b03169263f83d08ba9260048084019391929182900301818387803b158015613b7c57600080fd5b505af1158015613b90573d6000803e3d6000fd5b505050505b613ba783828401600003600019613c08565b60095460408051635e04d48360e01b815233600482015260248101879052604481018690526064810185905290516001600160a01b0390921691635e04d4839160848082019260009290919082900301818387803b1580156114ea57600080fd5b6000928352601a60205260409092208054909101815560010180549091019055565b600082821115613c3957600080fd5b50900390565b600082613c4e57506000611204565b82820282848281613c5b57fe5b0414613a7657600080fd5b600081831015613c765781613a76565b5090919050565b6000808211613c8b57600080fd5b6000828481613c9657fe5b04949350505050565b6000818310613c765781613a76565b600554600090613cc590600163ffffffff613a6416565b6000818152601a6020526040808220805460058054855283852054909101825560019182018054825486528486208401540190558054845291832083815501919091555550565b60008080805b84518167ffffffffffffffff161015613f9b576060613d3d868367ffffffffffffffff166041614495565b60408051631df4cba560e21b8152600481018a81526024820192835283516044830152835193945060009373__ECVerify______________________________936377d32e94938d9388939092916064019060208501908083838c5b83811015613db1578181015183820152602001613d99565b50505050905090810190601f168015613dde5780820380516001836020036101000a031916815260200191505b50935050505060206040518083038186803b158015613dfc57600080fd5b505af4158015613e10573d6000803e3d6000fd5b505050506040513d6020811015613e2657600080fd5b50516001600160a01b038082166000818152601960205260409020549293509086161415613e5657505050613f9b565b613e5f8161114f565b8015613e7c5750846001600160a01b0316826001600160a01b0316115b15613f9057600081815260066020819052604082209081015493965086939091906001600160a01b031615613f43578160060160009054906101000a90046001600160a01b03166001600160a01b031663eebfa4b78d8f6040518363ffffffff1660e01b81526004018083815260200182815260200192505050602060405180830381600087803b158015613f1057600080fd5b505af1158015613f24573d6000803e3d6000fd5b505050506040513d6020811015613f3a57600080fd5b50519050613f7b565b81600001549050613f75613f648e611f918f85613c3f90919063ffffffff16565b60018401549063ffffffff613a6416565b60018301555b613f8b888263ffffffff613a6416565b975050505b505050604101613d12565b50613fba613fa7612e49565b600d54611f91908563ffffffff613c3f16565b601454909650613fd0908763ffffffff613a6416565b6014556140026001613ff66003611f916002613fea612e49565b9063ffffffff613c3f16565b9063ffffffff613a6416565b82101561400e57600080fd5b509395945050505050565b601c5461402c908263ffffffff613a6416565b601c55600954600083815260066020526040808220600501548151631ace9d8b60e01b8152600481018790526001600160a01b039182166024820152604481018690529151931692631ace9d8b9260648084019391929182900301818387803b15801561409857600080fd5b505af1158015612900573d6000803e3d6000fd5b6012546140bf908463ffffffff613a6416565b6012819055506040518061010001604052808481526020016000815260200160055481526020016000815260200160008152602001836001600160a01b031681526020018261410f576000614197565b600b546013546009546040805163780ff34960e11b815260048101939093526001600160a01b0391821660248401525192169163f01fe692916044808201926020929091908290030181600087803b15801561416a57600080fd5b505af115801561417e573d6000803e3d6000fd5b505050506040513d602081101561419457600080fd5b50515b6001600160a01b03168152602001600190526013546000908152600660208181526040928390208451815590840151600182015591830151600283015560608301516003808401919091556080840151600484015560a08401516005840180546001600160a01b039283166001600160a01b03199182161790915560c086015193850180549490921693169290921780835560e0850151929160ff60a01b1990911690600160a01b90849081111561424b57fe5b021790555050600a54601354604080516340c10f1960e01b81526001600160a01b038981166004830152602482019390935290519190921692506340c10f199160448082019260009290919082900301818387803b1580156142ac57600080fd5b505af11580156142c0573d6000803e3d6000fd5b50506013546001600160a01b03851660009081526019602052604090205550506005546142ef90846001613c08565b600554601380546000908152601b60205260408082206001018490556009549254601254825163152e187760e31b81526001600160a01b03898116600483015260248201939093526044810196909652606486018990526084860152905192169263a970c3b89260a4808301939282900301818387803b15801561437257600080fd5b505af1158015614386573d6000803e3d6000fd5b505060135461439f92509050600163ffffffff613a6416565b60135550505050565b601c546143bb908263ffffffff613c2a16565b601c55600954600083815260066020526040808220600501548151632f7e086160e01b8152600481018790526001600160a01b039182166024820152604481018690529151931692632f7e08619260648084019391929182900301818387803b15801561409857600080fd5b6001600160a01b03811661443a57600080fd5b600080546040516001600160a01b03808516939216917f8be0079c531659141344cd1fd0a4f28419497f9722a3daafe3b4186f6b6457e091a3600080546001600160a01b0319166001600160a01b0392909216919091179055565b6060818301845110156144a757600080fd5b6060821580156144c25760405191506020820160405261450c565b6040519150601f8416801560200281840101858101878315602002848b0101015b818310156144fb5780518352602092830192016144e3565b5050858452601f01601f1916604052505b5094935050505056fe436f6e6669726d6174696f6e206973206e6f7420616c6c6f776564206265666f72652061756374696f6e506572696f644f6e6c7920676f7665726e616e636520636f6e747261637420697320617574686f72697a6564a265627a7a72315820f892e68041ec6d7d12836a264bc465c8709ad3e14bbc1033d385ad5551526d6f64736f6c634300050b0032",
  "source": "pragma solidity ^0.5.2;\n\nimport {IERC20} from \"openzeppelin-solidity/contracts/token/ERC20/IERC20.sol\";\nimport {Math} from \"openzeppelin-solidity/contracts/math/Math.sol\";\nimport {SafeMath} from \"openzeppelin-solidity/contracts/math/SafeMath.sol\";\nimport {Ownable} from \"openzeppelin-solidity/contracts/ownership/Ownable.sol\";\n\nimport {BytesLib} from \"../../common/lib/BytesLib.sol\";\nimport {ECVerify} from \"../../common/lib/ECVerify.sol\";\nimport {Merkle} from \"../../common/lib/Merkle.sol\";\nimport {Lockable} from \"../../common/mixin/Lockable.sol\";\nimport {RootChainable} from \"../../common/mixin/RootChainable.sol\";\nimport {Registry} from \"../../common/Registry.sol\";\nimport {IStakeManager} from \"./IStakeManager.sol\";\nimport {ValidatorShare} from \"../validatorShare/ValidatorShare.sol\";\nimport {StakingInfo} from \"../StakingInfo.sol\";\nimport {StakingNFT} from \"./StakingNFT.sol\";\nimport \"../validatorShare/ValidatorShareFactory.sol\";\n\ncontract StakeManager is IStakeManager {\n    using SafeMath for uint256;\n    using ECVerify for bytes32;\n    using Merkle for bytes32;\n\n    modifier onlyStaker(uint256 validatorId) {\n        require(NFTContract.ownerOf(validatorId) == msg.sender);\n        _;\n    }\n\n    modifier onlySlashingMananger() {\n        require(Registry(registry).getSlashingManagerAddress() == msg.sender);\n        _;\n    }\n\n    constructor() public Lockable(address(0x0)) {}\n\n    // TopUp heimdall fee\n    function topUpForFee(uint256 validatorId, uint256 heimdallFee) public {\n        require(heimdallFee >= minHeimdallFee, \"Minimum amount is 1 Matic\");\n        require(\n            token.transferFrom(msg.sender, address(this), heimdallFee),\n            \"Transfer stake failed\"\n        );\n        _topUpForFee(validatorId, heimdallFee);\n    }\n\n    function ownerOf(uint256 tokenId) public view returns (address) {\n        return NFTContract.ownerOf(tokenId);\n    }\n\n    function _topUpForFee(uint256 validatorId, uint256 amount) private {\n        totalHeimdallFee = totalHeimdallFee.add(amount);\n        logger.logTopUpFee(validatorId, validators[validatorId].signer, amount);\n    }\n\n    function _claimFee(uint256 validatorId, uint256 amount) private {\n        totalHeimdallFee = totalHeimdallFee.sub(amount);\n        logger.logClaimFee(validatorId, validators[validatorId].signer, amount);\n    }\n\n    function claimFee(\n        uint256 validatorId,\n        uint256 accumSlashedAmount,\n        uint256 amount,\n        uint256 index,\n        bytes memory proof\n    ) public onlyStaker(validatorId) {\n        //Ignoring other params becuase rewards distribution is on chain\n        require(\n            keccak256(abi.encodePacked(validatorId, amount, accumSlashedAmount))\n                .checkMembership(index, accountStateRoot, proof),\n            \"Wrong acc proof\"\n        );\n        require(token.transfer(msg.sender, amount));\n        _claimFee(validatorId, amount);\n    }\n\n    function stake(\n        uint256 amount,\n        uint256 heimdallFee,\n        address signer,\n        bool acceptDelegation\n    ) external {\n        stakeFor(msg.sender, amount, heimdallFee, signer, acceptDelegation);\n    }\n\n    function totalStakedFor(address user) external view returns (uint256) {\n        if (user == address(0x0) || NFTContract.balanceOf(user) == 0) {\n            return 0;\n        }\n        return validators[NFTContract.tokenOfOwnerByIndex(user, 0)].amount;\n    }\n\n    function supportsHistory() external pure returns (bool) {\n        return false;\n    }\n\n    function startAuction(uint256 validatorId, uint256 amount) external {\n        require(isValidator(validatorId));\n        // when dynasty period is updated validators are in cool down period\n        require(\n            replacementCoolDown == 0 || replacementCoolDown <= currentEpoch,\n            \"Cool down period\"\n        );\n        // (auctionPeriod--dynasty)--(auctionPeriod--dynasty)--(auctionPeriod--dynasty)\n        // if it's auctionPeriod then will get residue smaller then auctionPeriod\n        // from (CurrentPeriod of validator )%(auctionPeriod--dynasty)\n        // make sure that its `auctionPeriod` window\n        // dynasty = 30, auctionPeriod = 7, activationEpoch = 1, currentEpoch = 39\n        // residue 1 = (39-1)% (7+30), if residue <= auctionPeriod it's `auctionPeriod`\n\n        require(\n            (currentEpoch.sub(validators[validatorId].activationEpoch) %\n                dynasty.add(auctionPeriod)) <=\n                auctionPeriod,\n            \"Invalid auction period\"\n        );\n\n        uint256 perceivedStake = validators[validatorId].amount.mul(\n            perceivedStakeFactor(validatorId)\n        );\n        perceivedStake = Math.max(\n            perceivedStake,\n            validatorAuction[validatorId].amount\n        );\n\n        require(perceivedStake < amount, \"Must bid higher amount\");\n        require(\n            token.transferFrom(msg.sender, address(this), amount),\n            \"Transfer amount failed\"\n        );\n\n        Auction storage auction = validatorAuction[validatorId];\n        // create new auction\n        if (validatorAuction[validatorId].amount != 0) {\n            //replace prev auction\n            require(token.transfer(auction.user, auction.amount));\n        }\n        auction.amount = amount;\n        auction.user = msg.sender;\n\n        logger.logStartAuction(\n            validatorId,\n            validators[validatorId].amount,\n            validatorAuction[validatorId].amount\n        );\n    }\n\n    function confirmAuctionBid(\n        uint256 validatorId,\n        uint256 heimdallFee, /** for new validator */\n        address signer,\n        bool acceptDelegation\n    ) external onlyWhenUnlocked {\n        Auction storage auction = validatorAuction[validatorId];\n        Validator storage validator = validators[validatorId];\n        // require(auction.user == msg.sender);// any one can call confrimAuction\n        require(\n            auctionPeriod.add(auction.startEpoch.add(dynasty)) <= currentEpoch,\n            \"Confirmation is not allowed before auctionPeriod\"\n        );\n\n        // validator is last auctioner\n        if (auction.user == NFTContract.ownerOf(validatorId)) {\n            uint256 refund = validator.amount;\n            require(token.transfer(auction.user, refund));\n            validator.amount = auction.amount;\n\n            //cleanup auction data\n            auction.amount = 0;\n            auction.user = address(0x0);\n            auction.startEpoch = currentEpoch;\n            //update total stake amount\n            totalStaked = totalStaked.add(validator.amount.sub(refund));\n            logger.logStakeUpdate(validatorId);\n            logger.logConfirmAuction(\n                validatorId,\n                validatorId,\n                validator.amount\n            );\n        } else {\n            // dethrone\n            _unstake(validatorId, currentEpoch);\n            require(\n                token.transferFrom(msg.sender, address(this), heimdallFee),\n                \"Transfer fee failed\"\n            );\n            _topUpForFee(NFTCounter, heimdallFee);\n            _stakeFor(auction.user, auction.amount, signer, acceptDelegation);\n\n            logger.logConfirmAuction(\n                NFTCounter.sub(1),\n                validatorId,\n                auction.amount\n            );\n            validatorAuction[validatorId].amount = 0;\n            validatorAuction[validatorId].user = address(0x0);\n        }\n    }\n\n    function unstake(uint256 validatorId) external onlyStaker(validatorId) {\n        require(\n            validatorAuction[validatorId].amount == 0,\n            \"Wait for auction completion\"\n        );\n        uint256 exitEpoch = currentEpoch.add(1); // notice period\n        require(\n            validators[validatorId].activationEpoch > 0 &&\n                validators[validatorId].deactivationEpoch == 0 &&\n                validators[validatorId].status == Status.Active\n        );\n        _unstake(validatorId, exitEpoch);\n    }\n\n    // Housekeeping function. @todo remove later\n    function forceUnstake(uint256 validatorId) external onlyOwner {\n        _unstake(validatorId, currentEpoch);\n    }\n\n    // Housekeeping function. @todo remove later\n    // other than varibale you want to update give same values\n    function updateConstructor(\n        address _registry,\n        address _rootchain,\n        address _NFTContract,\n        address _stakingLogger,\n        address _ValidatorShareFactory\n    ) external onlyOwner {\n        registry = _registry;\n        rootChain = _rootchain;\n        NFTContract = StakingNFT(_NFTContract);\n        logger = StakingInfo(_stakingLogger);\n        factory = ValidatorShareFactory(_ValidatorShareFactory);\n    }\n\n    function delegationTransfer(\n        uint256 validatorId,\n        uint256 amount,\n        address delegator\n    ) external returns (bool) {\n        require(validators[validatorId].contractAddress == msg.sender);\n        return token.transfer(delegator, amount);\n    }\n\n    function delegationDeposit(\n        uint256 validatorId,\n        uint256 amount,\n        address delegator\n    ) external returns (bool) {\n        require(validators[validatorId].contractAddress == msg.sender);\n        return token.transferFrom(delegator, address(this), amount);\n    }\n\n    function stakeFor(\n        address user,\n        uint256 amount,\n        uint256 heimdallFee,\n        address signer,\n        bool acceptDelegation\n    ) public onlyWhenUnlocked {\n        require(currentValidatorSetSize() < validatorThreshold);\n        require(amount > minDeposit);\n        require(signerToValidator[signer] == 0);\n\n        require(\n            token.transferFrom(\n                msg.sender,\n                address(this),\n                amount.add(heimdallFee)\n            ),\n            \"Transfer stake failed\"\n        );\n        // _topup\n        _topUpForFee(\n            NFTCounter, /** validatorId*/\n            heimdallFee\n        );\n        _stakeFor(user, amount, signer, acceptDelegation);\n    }\n\n    function perceivedStakeFactor(uint256 validatorId)\n        public\n        view\n        returns (uint256)\n    {\n        // TODO: use age, rewardRatio, and slashing/reward rate\n        return 1;\n    }\n\n    function unstakeClaim(uint256 validatorId) public onlyStaker(validatorId) {\n        // can only claim stake back after WITHDRAWAL_DELAY\n        require(\n            validators[validatorId].deactivationEpoch > 0 &&\n                validators[validatorId].deactivationEpoch.add(\n                    WITHDRAWAL_DELAY\n                ) <=\n                currentEpoch &&\n                validators[validatorId].status != Status.Unstaked\n        );\n        uint256 amount = validators[validatorId].amount;\n        totalStaked = totalStaked.sub(amount);\n\n        // TODO :add slashing here use soft slashing in slash amt variable\n        NFTContract.burn(validatorId);\n        delete signerToValidator[validators[validatorId].signer];\n        // delete validators[validatorId];\n        validators[validatorId].status = Status.Unstaked;\n        require(\n            token.transfer(\n                msg.sender,\n                amount.add(validators[validatorId].reward)\n            ),\n            \"Transfer stake failed\"\n        );\n        logger.logUnstaked(msg.sender, validatorId, amount, totalStaked);\n    }\n\n    // slashing and jail interface\n    function restake(uint256 validatorId, uint256 amount, bool stakeRewards)\n        public\n        onlyStaker(validatorId)\n    {\n        require(\n            validators[validatorId].deactivationEpoch < currentEpoch,\n            \"No use of restaking\"\n        );\n\n        if (amount > 0) {\n            require(\n                token.transferFrom(msg.sender, address(this), amount),\n                \"Transfer stake\"\n            );\n        }\n        if (stakeRewards) {\n            amount += validators[validatorId].reward;\n            validators[validatorId].reward = 0;\n        }\n        totalStaked = totalStaked.add(amount);\n        validators[validatorId].amount += amount;\n        validatorState[currentEpoch].amount = (validatorState[currentEpoch]\n            .amount +\n            int256(amount));\n\n        logger.logStakeUpdate(validatorId);\n        logger.logReStaked(\n            validatorId,\n            validators[validatorId].amount,\n            totalStaked\n        );\n    }\n\n    function withdrawRewards(uint256 validatorId)\n        public\n        onlyStaker(validatorId)\n    {\n        uint256 amount = validators[validatorId].reward;\n        address _contract = validators[validatorId].contractAddress;\n        if (_contract != address(0x0)) {\n            amount = amount.add(\n                ValidatorShare(_contract).withdrawRewardsValidator()\n            );\n        }\n        totalRewardsLiquidated = totalRewardsLiquidated.add(amount);\n        validators[validatorId].reward = 0;\n        require(token.transfer(msg.sender, amount), \"Insufficent rewards\");\n        logger.logClaimRewards(validatorId, amount, totalRewardsLiquidated);\n    }\n\n    // if not jailed then in state of warning, else will be unstaking after x epoch\n    function slash(\n        uint256 validatorId,\n        uint256 slashingRate,\n        uint256 jailCheckpoints\n    ) public onlySlashingMananger {\n        // if contract call contract.slash\n        // if (validators[validatorId].contractAddress != address(0x0)) {\n        //   // ValidatorShare(validators[validatorId].contractAddress).slash(slashingRate, currentEpoch, currentEpoch);\n        // }\n        uint256 amount = validators[validatorId].amount.mul(slashingRate).div(\n            100\n        );\n        validators[validatorId].amount = validators[validatorId].amount.sub(\n            amount\n        );\n        if (\n            validators[validatorId].amount < minDeposit || jailCheckpoints > 0\n        ) {\n            jail(validatorId, jailCheckpoints);\n        }\n        // todo: slash event\n        logger.logStakeUpdate(validatorId);\n    }\n\n    function unJail(uint256 validatorId) public onlyStaker(validatorId) {\n        require(\n            validators[validatorId].deactivationEpoch > currentEpoch &&\n                validators[validatorId].jailTime <= currentEpoch &&\n                validators[validatorId].status == Status.Locked\n        );\n\n        uint256 amount = validators[validatorId].amount;\n        require(amount >= minDeposit);\n        uint256 exitEpoch = validators[validatorId].deactivationEpoch;\n\n        int256 delegationAmount = 0;\n        if (validators[validatorId].contractAddress != address(0x0)) {\n            delegationAmount = int256(\n                ValidatorShare(validators[validatorId].contractAddress)\n                    .activeAmount()\n            );\n            ValidatorShare(validators[validatorId].contractAddress).unlock();\n        }\n\n        // undo timline so that validator is normal validator\n        updateTimeLine(exitEpoch, (int256(amount) + delegationAmount), 1);\n\n        validators[validatorId].deactivationEpoch = 0;\n        validators[validatorId].status = Status.Active;\n        validators[validatorId].jailTime = 0;\n    }\n\n    // in context of slashing\n    function jail(uint256 validatorId, uint256 jailCheckpoints)\n        public\n    /** only*/\n    {\n        // Todo: requires and more conditions\n        uint256 amount = validators[validatorId].amount;\n        // should unbond instantly\n        uint256 exitEpoch = currentEpoch.add(WITHDRAWAL_DELAY); // jail period\n\n        int256 delegationAmount = 0;\n        validators[validatorId].jailTime = jailCheckpoints;\n        if (validators[validatorId].contractAddress != address(0x0)) {\n            delegationAmount = int256(\n                ValidatorShare(validators[validatorId].contractAddress)\n                    .activeAmount()\n            );\n            ValidatorShare(validators[validatorId].contractAddress).lock();\n        }\n        // update future in case of no `unJail`\n        updateTimeLine(exitEpoch, -(int256(amount) + delegationAmount), -1);\n        validators[validatorId].deactivationEpoch = exitEpoch;\n        validators[validatorId].status = Status.Locked;\n        logger.logJailed(validatorId, exitEpoch);\n    }\n\n    // returns valid validator for current epoch\n    function getCurrentValidatorSet() public view returns (uint256[] memory) {\n        uint256[] memory _validators = new uint256[](currentValidatorSetSize());\n        uint256 validator;\n        uint256 k = 0;\n        for (uint256 i = 0; i < NFTContract.totalSupply(); i++) {\n            validator = NFTContract.tokenByIndex(i);\n            if (isValidator(validator)) {\n                _validators[k++] = validator;\n            }\n        }\n        return _validators;\n    }\n\n    function getValidatorId(address user) public view returns (uint256) {\n        return NFTContract.tokenOfOwnerByIndex(user, 0);\n    }\n\n    // set staking Token\n    function setToken(address _token) public onlyOwner {\n        require(_token != address(0x0));\n        token = IERC20(_token);\n    }\n\n    // Change the number of validators required to allow a passed header root\n    function updateValidatorThreshold(uint256 newThreshold) public onlyOwner {\n        require(newThreshold > 0);\n        logger.logThresholdChange(newThreshold, validatorThreshold);\n        validatorThreshold = newThreshold;\n    }\n\n    function updateCheckPointBlockInterval(uint256 _blocks) public onlyOwner {\n        require(_blocks > 0, \"Blocks interval must be non-zero\");\n        checkPointBlockInterval = _blocks;\n    }\n\n    // Change reward for each checkpoint\n    function updateCheckpointReward(uint256 newReward) public onlyOwner {\n        require(newReward > 0);\n        logger.logRewardUpdate(newReward, CHECKPOINT_REWARD);\n        CHECKPOINT_REWARD = newReward;\n    }\n\n    function updateValidatorState(uint256 validatorId, int256 amount) public {\n        require(validators[validatorId].contractAddress == msg.sender);\n        // require(epoch >= currentEpoch, \"Can't change past\");\n        validatorState[currentEpoch].amount = (validatorState[currentEpoch]\n            .amount +\n            amount);\n    }\n\n    function updateDynastyValue(uint256 newDynasty) public onlyOwner {\n        require(newDynasty > 0);\n        logger.logDynastyValueChange(newDynasty, dynasty);\n        dynasty = newDynasty;\n        WITHDRAWAL_DELAY = dynasty;\n        auctionPeriod = dynasty.div(4);\n        // set cool down period\n        replacementCoolDown = currentEpoch.add(auctionPeriod);\n    }\n\n    function updateMinAmounts(uint256 _minDeposit, uint256 _minHeimdallFee)\n        public\n        onlyOwner\n    {\n        minDeposit = _minDeposit;\n        minHeimdallFee = _minHeimdallFee;\n    }\n\n    function updateSigner(uint256 validatorId, address _signer)\n        public\n        onlyStaker(validatorId)\n    {\n        require(_signer != address(0x0) && signerToValidator[_signer] == 0);\n\n        // update signer event\n        logger.logSignerChange(\n            validatorId,\n            validators[validatorId].signer,\n            _signer\n        );\n\n        delete signerToValidator[validators[validatorId].signer];\n        signerToValidator[_signer] = validatorId;\n        validators[validatorId].signer = _signer;\n    }\n\n    function currentValidatorSetSize() public view returns (uint256) {\n        return uint256(validatorState[currentEpoch].stakerCount);\n    }\n\n    function currentValidatorSetTotalStake() public view returns (uint256) {\n        return uint256(validatorState[currentEpoch].amount);\n    }\n\n    function getValidatorContract(uint256 validatorId)\n        public\n        view\n        returns (address)\n    {\n        return validators[validatorId].contractAddress;\n    }\n\n    function isValidator(uint256 validatorId) public view returns (bool) {\n        return (validators[validatorId].amount > 0 &&\n            (validators[validatorId].activationEpoch != 0 &&\n                validators[validatorId].activationEpoch <= currentEpoch) &&\n            (validators[validatorId].deactivationEpoch == 0 ||\n                validators[validatorId].deactivationEpoch > currentEpoch) &&\n            validators[validatorId].status == Status.Active); // Todo: reduce logic\n    }\n\n    function checkSignatures(\n        uint256 blockInterval,\n        bytes32 voteHash,\n        bytes32 stateRoot,\n        bytes memory sigs\n    ) public onlyRootChain returns (uint256) {\n        // checkpoint rewards are based on BlockInterval multiplied on `CHECKPOINT_REWARD`\n        // for bigger checkpoints reward is capped at `CHECKPOINT_REWARD`\n        // if interval is 50% of checkPointBlockInterval then reward R is half of `CHECKPOINT_REWARD`\n        // and then stakePower is 90% of currentValidatorSetTotalStake then final reward is 90% of R\n        uint256 _reward = blockInterval.mul(CHECKPOINT_REWARD).div(\n            checkPointBlockInterval\n        );\n        _reward = Math.min(CHECKPOINT_REWARD, _reward);\n\n        uint256 stakePower = currentValidatorSetTotalStake();\n        // update stateMerkleTree root for accounts balance on heimdall chain\n        accountStateRoot = stateRoot;\n        _finalizeCommit();\n        return checkSignature(stakePower, _reward, voteHash, sigs);\n    }\n\n    function checkSignature(\n        uint256 stakePower,\n        uint256 _reward,\n        bytes32 voteHash,\n        bytes memory sigs\n    ) internal returns (uint256) {\n        // total voting power\n        uint256 _stakePower;\n        //TODO: add proposer bonus\n        address lastAdd; // cannot have address(0x0) as an owner\n        for (uint64 i = 0; i < sigs.length; i += 65) {\n            bytes memory sigElement = BytesLib.slice(sigs, i, 65);\n            address signer = voteHash.ecrecovery(sigElement);\n\n            uint256 validatorId = signerToValidator[signer];\n            // check if signer is staker and not proposer\n            if (signer == lastAdd) {\n                break;\n            } else if (isValidator(validatorId) && signer > lastAdd) {\n                lastAdd = signer;\n                Validator storage validator = validators[validatorId];\n                uint256 valPow;\n                // add delegation power\n                if (validator.contractAddress != address(0x0)) {\n                    valPow = ValidatorShare(validator.contractAddress)\n                        .udpateRewards(_reward, stakePower);\n                } else {\n                    //TODO: check for div leaks in rewards amount\n                    valPow = validator.amount;\n                    validator.reward = validator.reward.add(\n                        valPow.mul(_reward).div(stakePower)\n                    );\n                }\n                _stakePower = _stakePower.add(valPow);\n            }\n        }\n\n        _reward = CHECKPOINT_REWARD.mul(_stakePower).div(\n            currentValidatorSetTotalStake()\n        );\n        totalRewards = totalRewards.add(_reward);\n        require(\n            _stakePower >= currentValidatorSetTotalStake().mul(2).div(3).add(1)\n        );\n        return _reward;\n    }\n\n    function challangeStateRootUpdate(\n        bytes memory checkpointTx /* txData from submitCheckpoint */\n    ) public {\n        // TODO: check for 2/3+1 sig and validate non-inclusion in newStateUpdate\n        // UPDATE: since we've moved rewards to on chain there is no urgent need for this function\n        // becuase heimdall fee can be trusted on 2/3+1 security\n    }\n\n    function _stakeFor(\n        address user,\n        uint256 amount,\n        address signer,\n        bool acceptDelegation\n    ) internal {\n        totalStaked = totalStaked.add(amount);\n\n        validators[NFTCounter] = Validator({\n            reward: 0,\n            amount: amount,\n            activationEpoch: currentEpoch,\n            deactivationEpoch: 0,\n            jailTime: 0,\n            signer: signer,\n            contractAddress: acceptDelegation\n                ? factory.create(NFTCounter, address(logger))\n                : address(0x0),\n            status: Status.Active\n        });\n\n        NFTContract.mint(user, NFTCounter);\n\n        signerToValidator[signer] = NFTCounter;\n        updateTimeLine(currentEpoch, int256(amount), 1);\n        // no Auctions for 1 dynasty\n        validatorAuction[NFTCounter].startEpoch = currentEpoch;\n        logger.logStaked(signer, NFTCounter, currentEpoch, amount, totalStaked);\n        NFTCounter = NFTCounter.add(1);\n    }\n\n    function _unstake(uint256 validatorId, uint256 exitEpoch) internal {\n        //Todo: add state here consider jail\n        uint256 amount = validators[validatorId].amount;\n\n        validators[validatorId].deactivationEpoch = exitEpoch;\n\n        // unbond all delegators in future\n        int256 delegationAmount = 0;\n        if (validators[validatorId].contractAddress != address(0x0)) {\n            delegationAmount = int256(\n                ValidatorShare(validators[validatorId].contractAddress)\n                    .activeAmount()\n            );\n            ValidatorShare(validators[validatorId].contractAddress).lock();\n        }\n\n        //  update future\n        updateTimeLine(exitEpoch, -(int256(amount) + delegationAmount), -1);\n\n        logger.logUnstakeInit(msg.sender, validatorId, exitEpoch, amount);\n    }\n\n    function _finalizeCommit() internal {\n        uint256 nextEpoch = currentEpoch.add(1);\n        // update totalstake and validator count\n        validatorState[nextEpoch].amount = (validatorState[currentEpoch]\n            .amount +\n            validatorState[nextEpoch].amount);\n        validatorState[nextEpoch].stakerCount = (validatorState[currentEpoch]\n            .stakerCount +\n            validatorState[nextEpoch].stakerCount);\n\n        // erase old data/history\n        delete validatorState[currentEpoch];\n        currentEpoch = nextEpoch;\n    }\n\n    function updateTimeLine(uint256 epoch, int256 amount, int256 stakerCount)\n        private\n    {\n        validatorState[epoch].amount += amount;\n        validatorState[epoch].stakerCount += stakerCount;\n    }\n\n}\n",
  "sourcePath": "/Users/arth/Documents/Projects/contracts/contracts/staking/stakeManager/StakeManager.sol",
  "compiler": {
    "name": "solc",
    "version": "0.5.11+commit.c082d0b4.Emscripten.clang"
  },
  "schemaVersion": "3.0.14",
  "updatedAt": "2020-03-02T16:43:43.588Z",
  "devdoc": {
    "methods": {
      "changeRootChain(address)": {
        "details": "Allows the current owner to change root chain address.",
        "params": {
          "newRootChain": "The address to new rootchain."
        }
      },
      "isOwner()": {
        "return": "true if `msg.sender` is the owner of the contract."
      },
      "owner()": {
        "return": "the address of the owner."
      },
      "renounceOwnership()": {
        "details": "Allows the current owner to relinquish control of the contract. It will not be possible to call the functions with the `onlyOwner` modifier anymore."
      },
      "transferOwnership(address)": {
        "details": "Allows the current owner to transfer control of the contract to a newOwner.",
        "params": {
          "newOwner": "The address to transfer ownership to."
        }
      }
    }
  },
  "userdoc": {
    "methods": {
      "renounceOwnership()": {
        "notice": "Renouncing ownership will leave the contract without an owner, thereby removing any functionality that is only available to the owner."
      }
    }
  }
}