{
  "contractName": "WithdrawManagerStorage",
  "abi": [
    {
      "constant": true,
      "inputs": [],
      "name": "exitWindow",
      "outputs": [
        {
          "internalType": "uint256",
          "name": "",
          "type": "uint256"
        }
      ],
      "payable": false,
      "stateMutability": "view",
      "type": "function"
    },
    {
      "constant": true,
      "inputs": [
        {
          "internalType": "uint256",
          "name": "",
          "type": "uint256"
        }
      ],
      "name": "exits",
      "outputs": [
        {
          "internalType": "uint256",
          "name": "receiptAmountOrNFTId",
          "type": "uint256"
        },
        {
          "internalType": "bytes32",
          "name": "txHash",
          "type": "bytes32"
        },
        {
          "internalType": "address",
          "name": "owner",
          "type": "address"
        },
        {
          "internalType": "address",
          "name": "token",
          "type": "address"
        },
        {
          "internalType": "bool",
          "name": "isRegularExit",
          "type": "bool"
        },
        {
          "internalType": "address",
          "name": "predicate",
          "type": "address"
        }
      ],
      "payable": false,
      "stateMutability": "view",
      "type": "function"
    },
    {
      "constant": true,
      "inputs": [
        {
          "internalType": "bytes32",
          "name": "",
          "type": "bytes32"
        }
      ],
      "name": "ownerExits",
      "outputs": [
        {
          "internalType": "uint256",
          "name": "",
          "type": "uint256"
        }
      ],
      "payable": false,
      "stateMutability": "view",
      "type": "function"
    },
    {
      "constant": false,
      "inputs": [],
      "name": "renounceOwnership",
      "outputs": [],
      "payable": false,
      "stateMutability": "nonpayable",
      "type": "function"
    },
    {
      "constant": true,
      "inputs": [],
      "name": "owner",
      "outputs": [
        {
          "internalType": "address",
          "name": "",
          "type": "address"
        }
      ],
      "payable": false,
      "stateMutability": "view",
      "type": "function"
    },
    {
      "constant": true,
      "inputs": [],
      "name": "isOwner",
      "outputs": [
        {
          "internalType": "bool",
          "name": "",
          "type": "bool"
        }
      ],
      "payable": false,
      "stateMutability": "view",
      "type": "function"
    },
    {
      "constant": true,
      "inputs": [
        {
          "internalType": "address",
          "name": "",
          "type": "address"
        }
      ],
      "name": "exitsQueues",
      "outputs": [
        {
          "internalType": "address",
          "name": "",
          "type": "address"
        }
      ],
      "payable": false,
      "stateMutability": "view",
      "type": "function"
    },
    {
      "constant": true,
      "inputs": [],
      "name": "HALF_EXIT_PERIOD",
      "outputs": [
        {
          "internalType": "uint256",
          "name": "",
          "type": "uint256"
        }
      ],
      "payable": false,
      "stateMutability": "view",
      "type": "function"
    },
    {
      "constant": true,
      "inputs": [],
      "name": "exitNft",
      "outputs": [
        {
          "internalType": "contract ExitNFT",
          "name": "",
          "type": "address"
        }
      ],
      "payable": false,
      "stateMutability": "view",
      "type": "function"
    },
    {
      "constant": false,
      "inputs": [
        {
          "internalType": "address",
          "name": "newOwner",
          "type": "address"
        }
      ],
      "name": "transferOwnership",
      "outputs": [],
      "payable": false,
      "stateMutability": "nonpayable",
      "type": "function"
    },
    {
      "anonymous": false,
      "inputs": [
        {
          "indexed": true,
          "internalType": "uint256",
          "name": "exitId",
          "type": "uint256"
        },
        {
          "indexed": true,
          "internalType": "address",
          "name": "user",
          "type": "address"
        },
        {
          "indexed": true,
          "internalType": "address",
          "name": "token",
          "type": "address"
        },
        {
          "indexed": false,
          "internalType": "uint256",
          "name": "amount",
          "type": "uint256"
        }
      ],
      "name": "Withdraw",
      "type": "event"
    },
    {
      "anonymous": false,
      "inputs": [
        {
          "indexed": true,
          "internalType": "address",
          "name": "exitor",
          "type": "address"
        },
        {
          "indexed": true,
          "internalType": "uint256",
          "name": "exitId",
          "type": "uint256"
        },
        {
          "indexed": true,
          "internalType": "address",
          "name": "token",
          "type": "address"
        },
        {
          "indexed": false,
          "internalType": "uint256",
          "name": "amount",
          "type": "uint256"
        },
        {
          "indexed": false,
          "internalType": "bool",
          "name": "isRegularExit",
          "type": "bool"
        }
      ],
      "name": "ExitStarted",
      "type": "event"
    },
    {
      "anonymous": false,
      "inputs": [
        {
          "indexed": true,
          "internalType": "uint256",
          "name": "exitId",
          "type": "uint256"
        },
        {
          "indexed": true,
          "internalType": "uint256",
          "name": "age",
          "type": "uint256"
        },
        {
          "indexed": false,
          "internalType": "address",
          "name": "signer",
          "type": "address"
        }
      ],
      "name": "ExitUpdated",
      "type": "event"
    },
    {
      "anonymous": false,
      "inputs": [
        {
          "indexed": true,
          "internalType": "uint256",
          "name": "exitId",
          "type": "uint256"
        }
      ],
      "name": "ExitCancelled",
      "type": "event"
    },
    {
      "anonymous": false,
      "inputs": [
        {
          "indexed": true,
          "internalType": "address",
          "name": "previousOwner",
          "type": "address"
        },
        {
          "indexed": true,
          "internalType": "address",
          "name": "newOwner",
          "type": "address"
        }
      ],
      "name": "OwnershipTransferred",
      "type": "event"
    }
  ],
  "bytecode": "0x6080604081905262093a80600255600080546001600160a01b03191633178082556001600160a01b0316917f8be0079c531659141344cd1fd0a4f28419497f9722a3daafe3b4186f6b6457e0908290a36103a78061005e6000396000f3fe608060405234801561001057600080fd5b506004361061009e5760003560e01c80638f32d59b116100665780638f32d59b14610163578063d11f045c1461017f578063ed4a0be8146101a5578063edeca09b146101ad578063f2fde38b146101b55761009e565b80631e29848b146100a3578063342de179146100bd578063661429c814610118578063715018a6146101355780638da5cb5b1461013f575b600080fd5b6100ab6101db565b60408051918252519081900360200190f35b6100da600480360360208110156100d357600080fd5b50356101e1565b6040805196875260208701959095526001600160a01b03938416868601529183166060860152151560808501521660a0830152519081900360c00190f35b6100ab6004803603602081101561012e57600080fd5b503561022a565b61013d61023c565b005b610147610297565b604080516001600160a01b039092168252519081900360200190f35b61016b6102a6565b604080519115158252519081900360200190f35b6101476004803603602081101561019557600080fd5b50356001600160a01b03166102b7565b6100ab6102d2565b6101476102d8565b61013d600480360360208110156101cb57600080fd5b50356001600160a01b03166102e7565b60095481565b60056020526000908152604090208054600182015460028301546003840154600490940154929391926001600160a01b039182169282811692600160a01b90910460ff16911686565b60066020526000908152604090205481565b6102446102a6565b61024d57600080fd5b600080546040516001600160a01b03909116907f8be0079c531659141344cd1fd0a4f28419497f9722a3daafe3b4186f6b6457e0908390a3600080546001600160a01b0319169055565b6000546001600160a01b031690565b6000546001600160a01b0316331490565b6007602052600090815260409020546001600160a01b031681565b60025481565b6008546001600160a01b031681565b6102ef6102a6565b6102f857600080fd5b61030181610304565b50565b6001600160a01b03811661031757600080fd5b600080546040516001600160a01b03808516939216917f8be0079c531659141344cd1fd0a4f28419497f9722a3daafe3b4186f6b6457e091a3600080546001600160a01b0319166001600160a01b039290921691909117905556fea265627a7a72315820ae089a19b64288289efd1e2c58b39c8d9b9982faf75641e3f4eeee9426ad1aec64736f6c634300050b0032",
  "source": "pragma solidity ^0.5.2;\n\nimport {ProxyStorage} from \"../../common/misc/ProxyStorage.sol\";\nimport {Registry} from \"../../common/Registry.sol\";\nimport {RootChain} from \"../RootChain.sol\";\nimport {ExitNFT} from \"./ExitNFT.sol\";\n\ncontract ExitsDataStructure {\n    struct Input {\n        address utxoOwner;\n        address predicate;\n        address token;\n    }\n\n    struct PlasmaExit {\n        uint256 receiptAmountOrNFTId;\n        bytes32 txHash;\n        address owner;\n        address token;\n        bool isRegularExit;\n        address predicate;\n        // Mapping from age of input to Input\n        mapping(uint256 => Input) inputs;\n    }\n}\n\ncontract WithdrawManagerHeader is ExitsDataStructure {\n    event Withdraw(\n        uint256 indexed exitId,\n        address indexed user,\n        address indexed token,\n        uint256 amount\n    );\n\n    event ExitStarted(\n        address indexed exitor,\n        uint256 indexed exitId,\n        address indexed token,\n        uint256 amount,\n        bool isRegularExit\n    );\n\n    event ExitUpdated(\n        uint256 indexed exitId,\n        uint256 indexed age,\n        address signer\n    );\n\n    event ExitCancelled(uint256 indexed exitId);\n}\n\ncontract WithdrawManagerStorage is ProxyStorage, WithdrawManagerHeader {\n    uint256 public HALF_EXIT_PERIOD = 1 weeks;\n\n    // Bonded exits collaterized at 0.1 ETH\n    uint256 internal constant BOND_AMOUNT = 10**17;\n\n    Registry internal registry;\n    RootChain internal rootChain;\n\n    mapping(uint256 => PlasmaExit) public exits;\n    // mapping with token => (owner => exitId) keccak(token+owner) keccak(token+owner+tokenId)\n    mapping(bytes32 => uint256) public ownerExits;\n    mapping(address => address) public exitsQueues;\n    ExitNFT public exitNft;\n\n    // ERC721, ERC20 and Weth transfers require 155000, 100000, 52000 gas respectively\n    // Processing each exit in a while loop iteration requires ~52000 gas (@todo check if this changed)\n    // uint32 constant internal ITERATION_GAS = 52000;\n\n    // So putting an upper limit of 155000 + 52000 + leeway\n    uint32 internal constant ON_FINALIZE_GAS_LIMIT = 210000;\n\n    uint256 public exitWindow;\n}\n",
  "sourcePath": "/Users/arth/Documents/Projects/contracts/contracts/root/withdrawManager/WithdrawManagerStorage.sol",
  "compiler": {
    "name": "solc",
    "version": "0.5.11+commit.c082d0b4.Emscripten.clang"
  },
  "schemaVersion": "3.0.14",
  "updatedAt": "2020-03-02T16:43:43.575Z",
  "devdoc": {
    "methods": {
      "isOwner()": {
        "return": "true if `msg.sender` is the owner of the contract."
      },
      "owner()": {
        "return": "the address of the owner."
      },
      "renounceOwnership()": {
        "details": "Allows the current owner to relinquish control of the contract. It will not be possible to call the functions with the `onlyOwner` modifier anymore."
      },
      "transferOwnership(address)": {
        "details": "Allows the current owner to transfer control of the contract to a newOwner.",
        "params": {
          "newOwner": "The address to transfer ownership to."
        }
      }
    }
  },
  "userdoc": {
    "methods": {
      "renounceOwnership()": {
        "notice": "Renouncing ownership will leave the contract without an owner, thereby removing any functionality that is only available to the owner."
      }
    }
  }
}