{
  "contractName": "WithdrawManagerProxy",
  "abi": [
    {
      "constant": false,
      "inputs": [
        {
          "internalType": "address",
          "name": "_newProxyTo",
          "type": "address"
        }
      ],
      "name": "updateImplementation",
      "outputs": [],
      "payable": false,
      "stateMutability": "nonpayable",
      "type": "function"
    },
    {
      "constant": true,
      "inputs": [],
      "name": "exitWindow",
      "outputs": [
        {
          "internalType": "uint256",
          "name": "",
          "type": "uint256"
        }
      ],
      "payable": false,
      "stateMutability": "view",
      "type": "function"
    },
    {
      "constant": true,
      "inputs": [
        {
          "internalType": "uint256",
          "name": "",
          "type": "uint256"
        }
      ],
      "name": "exits",
      "outputs": [
        {
          "internalType": "uint256",
          "name": "receiptAmountOrNFTId",
          "type": "uint256"
        },
        {
          "internalType": "bytes32",
          "name": "txHash",
          "type": "bytes32"
        },
        {
          "internalType": "address",
          "name": "owner",
          "type": "address"
        },
        {
          "internalType": "address",
          "name": "token",
          "type": "address"
        },
        {
          "internalType": "bool",
          "name": "isRegularExit",
          "type": "bool"
        },
        {
          "internalType": "address",
          "name": "predicate",
          "type": "address"
        }
      ],
      "payable": false,
      "stateMutability": "view",
      "type": "function"
    },
    {
      "constant": true,
      "inputs": [],
      "name": "proxyType",
      "outputs": [
        {
          "internalType": "uint256",
          "name": "proxyTypeId",
          "type": "uint256"
        }
      ],
      "payable": false,
      "stateMutability": "pure",
      "type": "function"
    },
    {
      "constant": true,
      "inputs": [],
      "name": "implementation",
      "outputs": [
        {
          "internalType": "address",
          "name": "",
          "type": "address"
        }
      ],
      "payable": false,
      "stateMutability": "view",
      "type": "function"
    },
    {
      "constant": true,
      "inputs": [
        {
          "internalType": "bytes32",
          "name": "",
          "type": "bytes32"
        }
      ],
      "name": "ownerExits",
      "outputs": [
        {
          "internalType": "uint256",
          "name": "",
          "type": "uint256"
        }
      ],
      "payable": false,
      "stateMutability": "view",
      "type": "function"
    },
    {
      "constant": false,
      "inputs": [],
      "name": "renounceOwnership",
      "outputs": [],
      "payable": false,
      "stateMutability": "nonpayable",
      "type": "function"
    },
    {
      "constant": true,
      "inputs": [],
      "name": "owner",
      "outputs": [
        {
          "internalType": "address",
          "name": "",
          "type": "address"
        }
      ],
      "payable": false,
      "stateMutability": "view",
      "type": "function"
    },
    {
      "constant": true,
      "inputs": [],
      "name": "isOwner",
      "outputs": [
        {
          "internalType": "bool",
          "name": "",
          "type": "bool"
        }
      ],
      "payable": false,
      "stateMutability": "view",
      "type": "function"
    },
    {
      "constant": true,
      "inputs": [
        {
          "internalType": "address",
          "name": "",
          "type": "address"
        }
      ],
      "name": "exitsQueues",
      "outputs": [
        {
          "internalType": "address",
          "name": "",
          "type": "address"
        }
      ],
      "payable": false,
      "stateMutability": "view",
      "type": "function"
    },
    {
      "constant": true,
      "inputs": [],
      "name": "HALF_EXIT_PERIOD",
      "outputs": [
        {
          "internalType": "uint256",
          "name": "",
          "type": "uint256"
        }
      ],
      "payable": false,
      "stateMutability": "view",
      "type": "function"
    },
    {
      "constant": true,
      "inputs": [],
      "name": "exitNft",
      "outputs": [
        {
          "internalType": "contract ExitNFT",
          "name": "",
          "type": "address"
        }
      ],
      "payable": false,
      "stateMutability": "view",
      "type": "function"
    },
    {
      "constant": false,
      "inputs": [
        {
          "internalType": "address",
          "name": "newOwner",
          "type": "address"
        }
      ],
      "name": "transferOwnership",
      "outputs": [],
      "payable": false,
      "stateMutability": "nonpayable",
      "type": "function"
    },
    {
      "inputs": [
        {
          "internalType": "address",
          "name": "_proxyTo",
          "type": "address"
        },
        {
          "internalType": "address",
          "name": "_registry",
          "type": "address"
        },
        {
          "internalType": "address",
          "name": "_rootChain",
          "type": "address"
        },
        {
          "internalType": "address",
          "name": "_exitNft",
          "type": "address"
        }
      ],
      "payable": false,
      "stateMutability": "nonpayable",
      "type": "constructor"
    },
    {
      "payable": true,
      "stateMutability": "payable",
      "type": "fallback"
    },
    {
      "anonymous": false,
      "inputs": [
        {
          "indexed": true,
          "internalType": "uint256",
          "name": "exitId",
          "type": "uint256"
        },
        {
          "indexed": true,
          "internalType": "address",
          "name": "user",
          "type": "address"
        },
        {
          "indexed": true,
          "internalType": "address",
          "name": "token",
          "type": "address"
        },
        {
          "indexed": false,
          "internalType": "uint256",
          "name": "amount",
          "type": "uint256"
        }
      ],
      "name": "Withdraw",
      "type": "event"
    },
    {
      "anonymous": false,
      "inputs": [
        {
          "indexed": true,
          "internalType": "address",
          "name": "exitor",
          "type": "address"
        },
        {
          "indexed": true,
          "internalType": "uint256",
          "name": "exitId",
          "type": "uint256"
        },
        {
          "indexed": true,
          "internalType": "address",
          "name": "token",
          "type": "address"
        },
        {
          "indexed": false,
          "internalType": "uint256",
          "name": "amount",
          "type": "uint256"
        },
        {
          "indexed": false,
          "internalType": "bool",
          "name": "isRegularExit",
          "type": "bool"
        }
      ],
      "name": "ExitStarted",
      "type": "event"
    },
    {
      "anonymous": false,
      "inputs": [
        {
          "indexed": true,
          "internalType": "uint256",
          "name": "exitId",
          "type": "uint256"
        },
        {
          "indexed": true,
          "internalType": "uint256",
          "name": "age",
          "type": "uint256"
        },
        {
          "indexed": false,
          "internalType": "address",
          "name": "signer",
          "type": "address"
        }
      ],
      "name": "ExitUpdated",
      "type": "event"
    },
    {
      "anonymous": false,
      "inputs": [
        {
          "indexed": true,
          "internalType": "uint256",
          "name": "exitId",
          "type": "uint256"
        }
      ],
      "name": "ExitCancelled",
      "type": "event"
    },
    {
      "anonymous": false,
      "inputs": [
        {
          "indexed": true,
          "internalType": "address",
          "name": "_new",
          "type": "address"
        },
        {
          "indexed": true,
          "internalType": "address",
          "name": "_old",
          "type": "address"
        }
      ],
      "name": "ProxyUpdated",
      "type": "event"
    },
    {
      "anonymous": false,
      "inputs": [
        {
          "indexed": false,
          "internalType": "address",
          "name": "_prevOwner",
          "type": "address"
        },
        {
          "indexed": false,
          "internalType": "address",
          "name": "_newOwner",
          "type": "address"
        }
      ],
      "name": "OwnerUpdate",
      "type": "event"
    },
    {
      "anonymous": false,
      "inputs": [
        {
          "indexed": true,
          "internalType": "address",
          "name": "previousOwner",
          "type": "address"
        },
        {
          "indexed": true,
          "internalType": "address",
          "name": "newOwner",
          "type": "address"
        }
      ],
      "name": "OwnershipTransferred",
      "type": "event"
    }
  ],
  "bytecode": "0x608060405262093a8060025534801561001757600080fd5b506040516109273803806109278339818101604052608081101561003a57600080fd5b5080516020820151604080840151606090940151600080546001600160a01b0319163317808255925194959394919286926001600160a01b039190911691907f8be0079c531659141344cd1fd0a4f28419497f9722a3daafe3b4186f6b6457e0908290a36100b0816001600160e01b036100f416565b50600380546001600160a01b039485166001600160a01b0319918216179091556004805493851693821693909317909255600880549190931691161790555061027b565b6101056001600160e01b0361024716565b61010e57600080fd5b6001600160a01b03811661018357604080517f08c379a000000000000000000000000000000000000000000000000000000000815260206004820152601560248201527f494e56414c49445f50524f58595f414444524553530000000000000000000000604482015290519081900360640190fd5b610195816001600160e01b0361025816565b6101ea576040517f08c379a00000000000000000000000000000000000000000000000000000000081526004018080602001828103825260258152602001806109026025913960400191505060405180910390fd5b6001546040516001600160a01b03918216918316907fd32d24edea94f55e932d9a008afc425a8561462d1b1f57bc6e508e9a6b9509e190600090a3600180546001600160a01b0319166001600160a01b0392909216919091179055565b6000546001600160a01b0316331490565b60006001600160a01b03821661027057506000610276565b50803b15155b919050565b6106788061028a6000396000f3fe6080604052600436106100c25760003560e01c8063715018a61161007f578063d11f045c11610059578063d11f045c14610293578063ed4a0be8146102c6578063edeca09b146102db578063f2fde38b146102f0576100c2565b8063715018a6146102405780638da5cb5b146102555780638f32d59b1461026a576100c2565b8063025b22bc1461010e5780631e29848b14610141578063342de179146101685780634555d5c9146101d05780635c60da1b146101e5578063661429c814610216575b60015460408051602036601f810182900482028301820190935282825261010c936001600160a01b0316926000918190840183828082843760009201919091525061032392505050565b005b34801561011a57600080fd5b5061010c6004803603602081101561013157600080fd5b50356001600160a01b031661034b565b34801561014d57600080fd5b50610156610450565b60408051918252519081900360200190f35b34801561017457600080fd5b506101926004803603602081101561018b57600080fd5b5035610456565b6040805196875260208701959095526001600160a01b03938416868601529183166060860152151560808501521660a0830152519081900360c00190f35b3480156101dc57600080fd5b5061015661049f565b3480156101f157600080fd5b506101fa6104a4565b604080516001600160a01b039092168252519081900360200190f35b34801561022257600080fd5b506101566004803603602081101561023957600080fd5b50356104b3565b34801561024c57600080fd5b5061010c6104c5565b34801561026157600080fd5b506101fa610520565b34801561027657600080fd5b5061027f61052f565b604080519115158252519081900360200190f35b34801561029f57600080fd5b506101fa600480360360208110156102b657600080fd5b50356001600160a01b0316610540565b3480156102d257600080fd5b5061015661055b565b3480156102e757600080fd5b506101fa610561565b3480156102fc57600080fd5b5061010c6004803603602081101561031357600080fd5b50356001600160a01b0316610570565b600080825160208401856127105a03f43d604051816000823e828015610347578282f35b8282fd5b61035361052f565b61035c57600080fd5b6001600160a01b0381166103af576040805162461bcd60e51b8152602060048201526015602482015274494e56414c49445f50524f58595f4144445245535360581b604482015290519081900360640190fd5b6103b88161058d565b6103f35760405162461bcd60e51b815260040180806020018281038252602581526020018061061f6025913960400191505060405180910390fd5b6001546040516001600160a01b03918216918316907fd32d24edea94f55e932d9a008afc425a8561462d1b1f57bc6e508e9a6b9509e190600090a3600180546001600160a01b0319166001600160a01b0392909216919091179055565b60095481565b60056020526000908152604090208054600182015460028301546003840154600490940154929391926001600160a01b039182169282811692600160a01b90910460ff16911686565b600290565b6001546001600160a01b031690565b60066020526000908152604090205481565b6104cd61052f565b6104d657600080fd5b600080546040516001600160a01b03909116907f8be0079c531659141344cd1fd0a4f28419497f9722a3daafe3b4186f6b6457e0908390a3600080546001600160a01b0319169055565b6000546001600160a01b031690565b6000546001600160a01b0316331490565b6007602052600090815260409020546001600160a01b031681565b60025481565b6008546001600160a01b031681565b61057861052f565b61058157600080fd5b61058a816105b0565b50565b60006001600160a01b0382166105a5575060006105ab565b50803b15155b919050565b6001600160a01b0381166105c357600080fd5b600080546040516001600160a01b03808516939216917f8be0079c531659141344cd1fd0a4f28419497f9722a3daafe3b4186f6b6457e091a3600080546001600160a01b0319166001600160a01b039290921691909117905556fe44455354494e4154494f4e5f414444524553535f49535f4e4f545f415f434f4e5452414354a265627a7a723158207ab98ff6c46ca373babfff3764c15d11fb9161221e876e5337a479f06eec4ed964736f6c634300050b003244455354494e4154494f4e5f414444524553535f49535f4e4f545f415f434f4e5452414354",
  "source": "pragma solidity ^0.5.2;\n\nimport {Registry} from \"../../common/Registry.sol\";\nimport {Proxy} from \"../../common/misc/Proxy.sol\";\nimport {WithdrawManagerStorage} from \"./WithdrawManagerStorage.sol\";\nimport {RootChain} from \"../RootChain.sol\";\nimport {ExitNFT} from \"./ExitNFT.sol\";\n\ncontract WithdrawManagerProxy is Proxy, WithdrawManagerStorage {\n    constructor(\n        address _proxyTo,\n        address _registry,\n        address _rootChain,\n        address _exitNft\n    ) public Proxy(_proxyTo) {\n        registry = Registry(_registry);\n        rootChain = RootChain(_rootChain);\n        exitNft = ExitNFT(_exitNft);\n    }\n}\n",
  "sourcePath": "/Users/arth/Documents/Projects/contracts/contracts/root/withdrawManager/WithdrawManagerProxy.sol",
  "compiler": {
    "name": "solc",
    "version": "0.5.11+commit.c082d0b4.Emscripten.clang"
  },
  "schemaVersion": "3.0.14",
  "updatedAt": "2020-03-02T16:43:43.573Z",
  "devdoc": {
    "methods": {
      "isOwner()": {
        "return": "true if `msg.sender` is the owner of the contract."
      },
      "owner()": {
        "return": "the address of the owner."
      },
      "renounceOwnership()": {
        "details": "Allows the current owner to relinquish control of the contract. It will not be possible to call the functions with the `onlyOwner` modifier anymore."
      },
      "transferOwnership(address)": {
        "details": "Allows the current owner to transfer control of the contract to a newOwner.",
        "params": {
          "newOwner": "The address to transfer ownership to."
        }
      }
    }
  },
  "userdoc": {
    "methods": {
      "renounceOwnership()": {
        "notice": "Renouncing ownership will leave the contract without an owner, thereby removing any functionality that is only available to the owner."
      }
    }
  }
}