{
  "contractName": "ChildChain",
  "abi": [
    {
      "constant": true,
      "inputs": [
        {
          "internalType": "uint256",
          "name": "",
          "type": "uint256"
        }
      ],
      "name": "withdraws",
      "outputs": [
        {
          "internalType": "bool",
          "name": "",
          "type": "bool"
        }
      ],
      "payable": false,
      "stateMutability": "view",
      "type": "function"
    },
    {
      "constant": true,
      "inputs": [],
      "name": "isOnlyStateSyncerContract",
      "outputs": [
        {
          "internalType": "bool",
          "name": "",
          "type": "bool"
        }
      ],
      "payable": false,
      "stateMutability": "view",
      "type": "function"
    },
    {
      "constant": false,
      "inputs": [],
      "name": "renounceOwnership",
      "outputs": [],
      "payable": false,
      "stateMutability": "nonpayable",
      "type": "function"
    },
    {
      "constant": true,
      "inputs": [],
      "name": "owner",
      "outputs": [
        {
          "internalType": "address",
          "name": "",
          "type": "address"
        }
      ],
      "payable": false,
      "stateMutability": "view",
      "type": "function"
    },
    {
      "constant": true,
      "inputs": [],
      "name": "isOwner",
      "outputs": [
        {
          "internalType": "bool",
          "name": "",
          "type": "bool"
        }
      ],
      "payable": false,
      "stateMutability": "view",
      "type": "function"
    },
    {
      "constant": true,
      "inputs": [
        {
          "internalType": "uint256",
          "name": "",
          "type": "uint256"
        }
      ],
      "name": "deposits",
      "outputs": [
        {
          "internalType": "bool",
          "name": "",
          "type": "bool"
        }
      ],
      "payable": false,
      "stateMutability": "view",
      "type": "function"
    },
    {
      "constant": true,
      "inputs": [
        {
          "internalType": "address",
          "name": "",
          "type": "address"
        }
      ],
      "name": "isERC721",
      "outputs": [
        {
          "internalType": "bool",
          "name": "",
          "type": "bool"
        }
      ],
      "payable": false,
      "stateMutability": "view",
      "type": "function"
    },
    {
      "constant": false,
      "inputs": [
        {
          "internalType": "address",
          "name": "newAddress",
          "type": "address"
        }
      ],
      "name": "changeStateSyncerAddress",
      "outputs": [],
      "payable": false,
      "stateMutability": "nonpayable",
      "type": "function"
    },
    {
      "constant": true,
      "inputs": [
        {
          "internalType": "address",
          "name": "",
          "type": "address"
        }
      ],
      "name": "tokens",
      "outputs": [
        {
          "internalType": "address",
          "name": "",
          "type": "address"
        }
      ],
      "payable": false,
      "stateMutability": "view",
      "type": "function"
    },
    {
      "constant": false,
      "inputs": [
        {
          "internalType": "address",
          "name": "newOwner",
          "type": "address"
        }
      ],
      "name": "transferOwnership",
      "outputs": [],
      "payable": false,
      "stateMutability": "nonpayable",
      "type": "function"
    },
    {
      "constant": true,
      "inputs": [],
      "name": "stateSyncer",
      "outputs": [
        {
          "internalType": "address",
          "name": "",
          "type": "address"
        }
      ],
      "payable": false,
      "stateMutability": "view",
      "type": "function"
    },
    {
      "inputs": [],
      "payable": false,
      "stateMutability": "nonpayable",
      "type": "constructor"
    },
    {
      "anonymous": false,
      "inputs": [
        {
          "indexed": true,
          "internalType": "address",
          "name": "rootToken",
          "type": "address"
        },
        {
          "indexed": true,
          "internalType": "address",
          "name": "token",
          "type": "address"
        },
        {
          "indexed": false,
          "internalType": "uint8",
          "name": "_decimals",
          "type": "uint8"
        }
      ],
      "name": "NewToken",
      "type": "event"
    },
    {
      "anonymous": false,
      "inputs": [
        {
          "indexed": true,
          "internalType": "address",
          "name": "rootToken",
          "type": "address"
        },
        {
          "indexed": true,
          "internalType": "address",
          "name": "childToken",
          "type": "address"
        },
        {
          "indexed": true,
          "internalType": "address",
          "name": "user",
          "type": "address"
        },
        {
          "indexed": false,
          "internalType": "uint256",
          "name": "amount",
          "type": "uint256"
        },
        {
          "indexed": false,
          "internalType": "uint256",
          "name": "depositCount",
          "type": "uint256"
        }
      ],
      "name": "TokenDeposited",
      "type": "event"
    },
    {
      "anonymous": false,
      "inputs": [
        {
          "indexed": true,
          "internalType": "address",
          "name": "rootToken",
          "type": "address"
        },
        {
          "indexed": true,
          "internalType": "address",
          "name": "childToken",
          "type": "address"
        },
        {
          "indexed": true,
          "internalType": "address",
          "name": "user",
          "type": "address"
        },
        {
          "indexed": false,
          "internalType": "uint256",
          "name": "amount",
          "type": "uint256"
        },
        {
          "indexed": false,
          "internalType": "uint256",
          "name": "withrawCount",
          "type": "uint256"
        }
      ],
      "name": "TokenWithdrawn",
      "type": "event"
    },
    {
      "anonymous": false,
      "inputs": [
        {
          "indexed": true,
          "internalType": "address",
          "name": "previousAddress",
          "type": "address"
        },
        {
          "indexed": true,
          "internalType": "address",
          "name": "newAddress",
          "type": "address"
        }
      ],
      "name": "StateSyncerAddressChanged",
      "type": "event"
    },
    {
      "anonymous": false,
      "inputs": [
        {
          "indexed": true,
          "internalType": "address",
          "name": "previousOwner",
          "type": "address"
        },
        {
          "indexed": true,
          "internalType": "address",
          "name": "newOwner",
          "type": "address"
        }
      ],
      "name": "OwnershipTransferred",
      "type": "event"
    },
    {
      "constant": false,
      "inputs": [
        {
          "internalType": "uint256",
          "name": "",
          "type": "uint256"
        },
        {
          "internalType": "bytes",
          "name": "data",
          "type": "bytes"
        }
      ],
      "name": "onStateReceive",
      "outputs": [],
      "payable": false,
      "stateMutability": "nonpayable",
      "type": "function"
    },
    {
      "constant": false,
      "inputs": [
        {
          "internalType": "address",
          "name": "_owner",
          "type": "address"
        },
        {
          "internalType": "address",
          "name": "_rootToken",
          "type": "address"
        },
        {
          "internalType": "string",
          "name": "_name",
          "type": "string"
        },
        {
          "internalType": "string",
          "name": "_symbol",
          "type": "string"
        },
        {
          "internalType": "uint8",
          "name": "_decimals",
          "type": "uint8"
        },
        {
          "internalType": "bool",
          "name": "_isERC721",
          "type": "bool"
        }
      ],
      "name": "addToken",
      "outputs": [
        {
          "internalType": "address",
          "name": "token",
          "type": "address"
        }
      ],
      "payable": false,
      "stateMutability": "nonpayable",
      "type": "function"
    },
    {
      "constant": false,
      "inputs": [
        {
          "internalType": "address",
          "name": "rootToken",
          "type": "address"
        },
        {
          "internalType": "address",
          "name": "token",
          "type": "address"
        },
        {
          "internalType": "bool",
          "name": "isErc721",
          "type": "bool"
        }
      ],
      "name": "mapToken",
      "outputs": [],
      "payable": false,
      "stateMutability": "nonpayable",
      "type": "function"
    },
    {
      "constant": false,
      "inputs": [
        {
          "internalType": "address",
          "name": "rootToken",
          "type": "address"
        },
        {
          "internalType": "address",
          "name": "user",
          "type": "address"
        },
        {
          "internalType": "uint256",
          "name": "amountOrTokenId",
          "type": "uint256"
        },
        {
          "internalType": "uint256",
          "name": "withdrawCount",
          "type": "uint256"
        }
      ],
      "name": "withdrawTokens",
      "outputs": [],
      "payable": false,
      "stateMutability": "nonpayable",
      "type": "function"
    }
  ],
  "bytecode": "0x608060405234801561001057600080fd5b50600080546001600160a01b03191633178082556040516001600160a01b039190911691907f8be0079c531659141344cd1fd0a4f28419497f9722a3daafe3b4186f6b6457e0908290a3600180546001600160a01b03191661100117908190556040516001600160a01b0391909116906000907f98e6a46aa139a033b9c7f3ae4ad1c103ffdce3e7cf509326808ba8c4b5af11c0908290a3737d1afa7b718fb893db30a3abc0cfc608aacfebb060005260026020527fa6b538c9a0f90a58a2d51d8b41372745652182421068cf734937a5df014e586980546001600160a01b031916611010179055614f7a806101076000396000f3fe60806040523480156200001157600080fd5b50600436106200010c5760003560e01c8063b02c43d011620000a5578063e117694b116200006f578063e117694b1462000412578063e4860339146200044d578063f2fde38b1462000476578063f4ef4d69146200049f576200010c565b8063b02c43d01462000247578063bb9b9fa21462000267578063daa09e5414620003c0578063df55500714620003e9576200010c565b806355651f7111620000e757806355651f711462000203578063715018a6146200020d5780638da5cb5b14620002175780638f32d59b146200023d576200010c565b806307a06d37146200011157806326c53bea146200015257806355466c3714620001cf575b600080fd5b62000150600480360360808110156200012957600080fd5b506001600160a01b03813581169160208101359091169060408101359060600135620004a9565b005b62000150600480360360408110156200016a57600080fd5b813591908101906040810160208201356401000000008111156200018d57600080fd5b820183602082011115620001a057600080fd5b80359060200191846001830284011164010000000083111715620001c357600080fd5b50909250905062000640565b620001ef60048036036020811015620001e757600080fd5b5035620006d9565b604080519115158252519081900360200190f35b620001ef620006ee565b62000150620006ff565b620002216200075d565b604080516001600160a01b039092168252519081900360200190f35b620001ef6200076c565b620001ef600480360360208110156200025f57600080fd5b50356200077d565b62000221600480360360c08110156200027f57600080fd5b6001600160a01b038235811692602081013590911691810190606081016040820135640100000000811115620002b457600080fd5b820183602082011115620002c757600080fd5b80359060200191846001830284011164010000000083111715620002ea57600080fd5b91908080601f01602080910402602001604051908101604052809392919081815260200183838082843760009201919091525092959493602081019350359150506401000000008111156200033e57600080fd5b8201836020820111156200035157600080fd5b803590602001918460018302840111640100000000831117156200037457600080fd5b91908080601f0160208091040260200160405190810160405280939291908181526020018383808284376000920191909152509295505060ff8335169350505060200135151562000792565b620001ef60048036036020811015620003d857600080fd5b50356001600160a01b031662000b1b565b62000150600480360360208110156200040157600080fd5b50356001600160a01b031662000b30565b62000150600480360360608110156200042a57600080fd5b506001600160a01b03813581169160208101359091169060400135151562000be7565b62000221600480360360208110156200046557600080fd5b50356001600160a01b031662000c46565b62000150600480360360208110156200048e57600080fd5b50356001600160a01b031662000c61565b6200022162000c83565b620004b36200076c565b620004bd57600080fd5b60008181526005602052604090205460ff1615620004da57600080fd5b6000818152600560209081526040808320805460ff191660011790556001600160a01b038088168452600290925290912054168062000560576040805162461bcd60e51b815260206004820152601960248201527f6368696c6420746f6b656e206973206e6f74206d617070656400000000000000604482015290519081900360640190fd5b6001600160a01b03851660009081526003602052604081205460ff16156200058a5750806200058d565b50805b806001600160a01b0316632e1a7d4d856040518263ffffffff1660e01b815260040180828152602001915050600060405180830381600087803b158015620005d457600080fd5b505af1158015620005e9573d6000803e3d6000fd5b5050604080518781526020810187905281516001600160a01b03808b16955087811694508b16927f7ec90ada0dee6c6d3ea251a8236eb33077411c39b9c26fc24045ae009599def3928290030190a4505050505050565b6200064a620006ee565b620006875760405162461bcd60e51b815260040180806020018281038252603581526020018062004ed76035913960400191505060405180910390fd5b600080600080858560808110156200069e57600080fd5b506001600160a01b03813581169550602082013516935060408101359250606001359050620006d08385848462000c92565b50505050505050565b60056020526000908152604090205460ff1681565b6001546001600160a01b0316331490565b620007096200076c565b6200071357600080fd5b600080546040516001600160a01b03909116907f8be0079c531659141344cd1fd0a4f28419497f9722a3daafe3b4186f6b6457e0908390a3600080546001600160a01b0319169055565b6000546001600160a01b031690565b6000546001600160a01b0316331490565b60046020526000908152604090205460ff1681565b60006200079e6200076c565b620007a857600080fd5b6001600160a01b0386811660009081526002602052604090205416156200080d576040805162461bcd60e51b8152602060048201526014602482015273151bdad95b88185b1c9958591e481b585c1c195960621b604482015290519081900360640190fd5b8115620009795786868686604051620008269062000e56565b80856001600160a01b03166001600160a01b03168152602001846001600160a01b03166001600160a01b031681526020018060200180602001838103835285818151815260200191508051906020019080838360005b83811015620008965781810151838201526020016200087c565b50505050905090810190601f168015620008c45780820380516001836020036101000a031916815260200191505b50838103825284518152845160209182019186019080838360005b83811015620008f9578181015183820152602001620008df565b50505050905090810190601f168015620009275780820380516001836020036101000a031916815260200191505b509650505050505050604051809103906000f0801580156200094d573d6000803e3d6000fd5b506001600160a01b0387166000908152600360205260409020805460ff19166001179055905062000aac565b86868686866040516200098c9062000e64565b6001600160a01b038087168252851660208083019190915260ff8316608083015260a06040830181815286519184019190915285519091606084019160c085019188019080838360005b83811015620009f0578181015183820152602001620009d6565b50505050905090810190601f16801562000a1e5780820380516001836020036101000a031916815260200191505b50838103825285518152855160209182019187019080838360005b8381101562000a5357818101518382015260200162000a39565b50505050905090810190601f16801562000a815780820380516001836020036101000a031916815260200191505b50975050505050505050604051809103906000f08015801562000aa8573d6000803e3d6000fd5b5090505b6001600160a01b0386811660008181526002602090815260409182902080546001600160a01b0319169486169485179055815160ff8816815291517f9894b680cecb28f00988b0d91ed301a55bba06a8befd7fdb0b1ff36d0d3950ff9281900390910190a39695505050505050565b60036020526000908152604090205460ff1681565b62000b3a6200076c565b62000b4457600080fd5b6001600160a01b03811662000b8b5760405162461bcd60e51b815260040180806020018281038252603a81526020018062004f0c603a913960400191505060405180910390fd5b6001546040516001600160a01b038084169216907f98e6a46aa139a033b9c7f3ae4ad1c103ffdce3e7cf509326808ba8c4b5af11c090600090a3600180546001600160a01b0319166001600160a01b0392909216919091179055565b62000bf16200076c565b62000bfb57600080fd5b6001600160a01b03928316600090815260026020908152604080832080546001600160a01b031916959096169490941790945560039093529120805460ff1916911515919091179055565b6002602052600090815260409020546001600160a01b031681565b62000c6b6200076c565b62000c7557600080fd5b62000c808162000de7565b50565b6001546001600160a01b031681565b60008181526004602052604090205460ff161562000caf57600080fd5b6000818152600460209081526040808320805460ff191660011790556001600160a01b038088168452600290925290912054168062000ced57600080fd5b6001600160a01b03851660009081526003602052604081205460ff161562000d1757508062000d1a565b50805b806001600160a01b03166347e7ef2486866040518363ffffffff1660e01b815260040180836001600160a01b03166001600160a01b0316815260200182815260200192505050600060405180830381600087803b15801562000d7b57600080fd5b505af115801562000d90573d6000803e3d6000fd5b5050604080518781526020810187905281516001600160a01b03808b16955087811694508b16927fec3afb067bce33c5a294470ec5b29e6759301cd3928550490c6d48816cdc2f5d928290030190a4505050505050565b6001600160a01b03811662000dfb57600080fd5b600080546040516001600160a01b03808516939216917f8be0079c531659141344cd1fd0a4f28419497f9722a3daafe3b4186f6b6457e091a3600080546001600160a01b0319166001600160a01b0392909216919091179055565b6123b38062000e7383390190565b611cb180620032268339019056fe60806040523480156200001157600080fd5b50604051620023b3380380620023b3833981810160405260808110156200003757600080fd5b815160208301516040808501805191519395929483019291846401000000008211156200006357600080fd5b9083019060208201858111156200007957600080fd5b82516401000000008111828201881017156200009457600080fd5b82525081516020918201929091019080838360005b83811015620000c3578181015183820152602001620000a9565b50505050905090810190601f168015620000f15780820380516001836020036101000a031916815260200191505b50604052602001805160405193929190846401000000008211156200011557600080fd5b9083019060208201858111156200012b57600080fd5b82516401000000008111828201881017156200014657600080fd5b82525081516020918201929091019080838360005b83811015620001755781810151838201526020016200015b565b50505050905090810190601f168015620001a35780820380516001836020036101000a031916815260200191505b506040819052600080546001600160a01b031916331780825587955086945085935084926001600160a01b039190911691907f8be0079c531659141344cd1fd0a4f28419497f9722a3daafe3b4186f6b6457e0908290a360405180608001604052806052815260200162002361605291396040516020018082805190602001908083835b60208310620002485780518252601f19909201916020918201910162000227565b51815160209384036101000a60001901801990921691161790526040805192909401828103601f190183528085528251928201929092208285018552600d83527f4d61746963204e6574776f726b00000000000000000000000000000000000000928201929092528351808501855260018082527f3100000000000000000000000000000000000000000000000000000000000000918301919091528451808301939093527fd26430275d0d30693378daeb558f6ed30c3a48ba5d665f52c16608e1c41b5cd7838601527fc89efdaa54c0f20c7adf612882df0950f5a951637e0307cdcb4c672f298b8bc660608401526107d460808401523060a0808501919091528551808503909101815260c09093019094528151910120909155506200039491507f01ffc9a7000000000000000000000000000000000000000000000000000000009050620004bf565b620003c87f80ac58cd000000000000000000000000000000000000000000000000000000006001600160e01b03620004bf16565b620003fc7f780e9d63000000000000000000000000000000000000000000000000000000006001600160e01b03620004bf16565b81516200041190600f9060208501906200052c565b508051620004279060109060208401906200052c565b506200045c7f5b5e139f000000000000000000000000000000000000000000000000000000006001600160e01b03620004bf16565b505050506001600160a01b038316158015906200048157506001600160a01b03841615155b6200048b57600080fd5b5050600480546001600160a01b039384166001600160a01b03199182161790915560028054929093169116179055620005d1565b7fffffffff000000000000000000000000000000000000000000000000000000008082161415620004ef57600080fd5b7fffffffff00000000000000000000000000000000000000000000000000000000166000908152600660205260409020805460ff19166001179055565b828054600181600116156101000203166002900490600052602060002090601f016020900481019282601f106200056f57805160ff19168380011785556200059f565b828001600101855582156200059f579182015b828111156200059f57825182559160200191906001019062000582565b50620005ad929150620005b1565b5090565b620005ce91905b80821115620005ad5760008155600101620005b8565b90565b611d8080620005e16000396000f3fe6080604052600436106102045760003560e01c8063715018a611610118578063b789543c116100a0578063e306f7791161006f578063e306f77914610908578063e614d0d61461091d578063e985e9c514610932578063f2fde38b1461096d578063fc0c546a146109a057610204565b8063b789543c146107b1578063b88d4fde146107f6578063c87b56dd146108c9578063cc79f97b146108f357610204565b80639025e64c116100e75780639025e64c1461070d57806395d89b4114610722578063a22cb46514610737578063abceeba214610772578063acd06cb31461078757610204565b8063715018a61461061457806377d32e94146106295780638da5cb5b146106e35780638f32d59b146106f857610204565b80632e1a7d4d1161019b5780634f6ccce71161016a5780634f6ccce71461056357806360f96a8f1461058d5780636352211e146105a25780637019d41a146105cc57806370a08231146105e157610204565b80632e1a7d4d146104915780632f745c59146104ae57806342842e0e146104e757806347e7ef241461052a57610204565b80631499c592116101d75780631499c5921461035c57806318160ddd1461038f57806319d27d9c146103b657806323b872dd1461044e57610204565b806301ffc9a71461020957806306fdde0314610251578063081812fc146102db578063095ea7b314610321575b600080fd5b34801561021557600080fd5b5061023d6004803603602081101561022c57600080fd5b50356001600160e01b0319166109b5565b604080519115158252519081900360200190f35b34801561025d57600080fd5b506102666109d4565b6040805160208082528351818301528351919283929083019185019080838360005b838110156102a0578181015183820152602001610288565b50505050905090810190601f1680156102cd5780820380516001836020036101000a031916815260200191505b509250505060405180910390f35b3480156102e757600080fd5b50610305600480360360208110156102fe57600080fd5b5035610a6b565b604080516001600160a01b039092168252519081900360200190f35b34801561032d57600080fd5b5061035a6004803603604081101561034457600080fd5b506001600160a01b038135169060200135610aad565b005b34801561036857600080fd5b5061035a6004803603602081101561037f57600080fd5b50356001600160a01b0316610aed565b34801561039b57600080fd5b506103a4610b39565b60408051918252519081900360200190f35b3480156103c257600080fd5b50610305600480360360a08110156103d957600080fd5b8101906020810181356401000000008111156103f457600080fd5b82018360208201111561040657600080fd5b8035906020019184600183028401116401000000008311171561042857600080fd5b9193509150803590602081013590604081013590606001356001600160a01b0316610b3f565b34801561045a57600080fd5b5061035a6004803603606081101561047157600080fd5b506001600160a01b03813581169160208101359091169060400135610cda565b61035a600480360360208110156104a757600080fd5b5035610d93565b3480156104ba57600080fd5b506103a4600480360360408110156104d157600080fd5b506001600160a01b038135169060200135610e00565b3480156104f357600080fd5b5061035a6004803603606081101561050a57600080fd5b506001600160a01b03813581169160208101359091169060400135610e4e565b34801561053657600080fd5b5061035a6004803603604081101561054d57600080fd5b506001600160a01b038135169060200135610e69565b34801561056f57600080fd5b506103a46004803603602081101561058657600080fd5b5035610ee0565b34801561059957600080fd5b50610305610f14565b3480156105ae57600080fd5b50610305600480360360208110156105c557600080fd5b5035610f23565b3480156105d857600080fd5b50610305610f45565b3480156105ed57600080fd5b506103a46004803603602081101561060457600080fd5b50356001600160a01b0316610f54565b34801561062057600080fd5b5061035a610f8a565b34801561063557600080fd5b506103056004803603604081101561064c57600080fd5b8135919081019060408101602082013564010000000081111561066e57600080fd5b82018360208201111561068057600080fd5b803590602001918460018302840111640100000000831117156106a257600080fd5b91908080601f016020809104026020016040519081016040528093929190818152602001838380828437600092019190915250929550610fe5945050505050565b3480156106ef57600080fd5b50610305611108565b34801561070457600080fd5b5061023d611117565b34801561071957600080fd5b50610266611128565b34801561072e57600080fd5b50610266611146565b34801561074357600080fd5b5061035a6004803603604081101561075a57600080fd5b506001600160a01b0381351690602001351515610aad565b34801561077e57600080fd5b506103a46111a7565b34801561079357600080fd5b5061023d600480360360208110156107aa57600080fd5b5035611230565b3480156107bd57600080fd5b506103a4600480360360808110156107d457600080fd5b506001600160a01b038135169060208101359060408101359060600135611245565b34801561080257600080fd5b5061035a6004803603608081101561081957600080fd5b6001600160a01b0382358116926020810135909116916040820135919081019060808101606082013564010000000081111561085457600080fd5b82018360208201111561086657600080fd5b8035906020019184600183028401116401000000008311171561088857600080fd5b91908080601f016020809104026020016040519081016040528093929190818152602001838380828437600092019190915250929550611264945050505050565b3480156108d557600080fd5b50610266600480360360208110156108ec57600080fd5b503561128a565b3480156108ff57600080fd5b506103a461133d565b34801561091457600080fd5b506103a4611343565b34801561092957600080fd5b506103a4611349565b34801561093e57600080fd5b5061023d6004803603604081101561095557600080fd5b506001600160a01b0381358116916020013516610a6b565b34801561097957600080fd5b5061035a6004803603602081101561099057600080fd5b50356001600160a01b0316611393565b3480156109ac57600080fd5b506103056113b0565b6001600160e01b03191660009081526006602052604090205460ff1690565b600f8054604080516020601f6002600019610100600188161502019095169490940493840181900481028201810190925282815260609390929091830182828015610a605780601f10610a3557610100808354040283529160200191610a60565b820191906000526020600020905b815481529060010190602001808311610a4357829003601f168201915b505050505090505b90565b6040805162461bcd60e51b815260206004820152601060248201526f44697361626c6564206665617475726560801b6044820152905160009181900360640190fd5b6040805162461bcd60e51b815260206004820152601060248201526f44697361626c6564206665617475726560801b604482015290519081900360640190fd5b6004546001600160a01b03163314610b0457600080fd5b6001600160a01b038116610b1757600080fd5b600380546001600160a01b0319166001600160a01b0392909216919091179055565b600d5490565b6000821580610b4e5750824311155b610b96576040805162461bcd60e51b815260206004820152601460248201527314da59db985d1d5c99481a5cc8195e1c1a5c995960621b604482015290519081900360640190fd5b6000610ba433878787611245565b60008181526005602052604090205490915060ff1615610bfd576040805162461bcd60e51b815260206004820152600f60248201526e14da59c819195858dd1a5d985d1959608a1b604482015290519081900360640190fd5b6000818152600560209081526040808320805460ff191660011790558051601f8b01839004830281018301909152898152610c55918491908c908c9081908401838280828437600092019190915250610fe592505050565b9050610c628185896113bf565b610c7d81858960405180602001604052806000815250611418565b610cce576040805162461bcd60e51b815260206004820152601d60248201527f5f636865636b4f6e4552433732315265636569766564206661696c6564000000604482015290519081900360640190fd5b98975050505050505050565b6003546001600160a01b031615801590610d79575060035460408051631ffb811f60e01b81523360048201526001600160a01b0385811660248301526044820185905291519190921691631ffb811f9160648083019260209291908290030181600087803b158015610d4b57600080fd5b505af1158015610d5f573d6000803e3d6000fd5b505050506040513d6020811015610d7557600080fd5b5051155b15610d8357610d8e565b610d8e8383836113bf565b505050565b33610d9d82610f23565b6001600160a01b031614610db057600080fd5b610dba338261154c565b60025460408051838152905133926001600160a01b0316917f9b1bfa7fa9ee420a16e124f794c35ac9f90472acc99140eb2f6447c714cad8eb919081900360200190a350565b6000610e0b83610f54565b8210610e1657600080fd5b6001600160a01b0383166000908152600b60205260409020805483908110610e3a57fe5b906000526020600020015490505b92915050565b610d8e83838360405180602001604052806000815250611264565b610e71611117565b610e7a57600080fd5b6001600160a01b038216610e8d57600080fd5b610e978282611598565b6002546040805183815290516001600160a01b038086169316917f5548c837ab068cf56a2c2479df0882a4922fd203edb7517321831d95078c5f62919081900360200190a35050565b6000610eea610b39565b8210610ef557600080fd5b600d8281548110610f0257fe5b90600052602060002001549050919050565b6003546001600160a01b031681565b6000818152600760205260408120546001600160a01b031680610e4857600080fd5b6004546001600160a01b031681565b60006001600160a01b038216610f6957600080fd5b6001600160a01b0382166000908152600960205260409020610e48906115b5565b610f92611117565b610f9b57600080fd5b600080546040516001600160a01b03909116907f8be0079c531659141344cd1fd0a4f28419497f9722a3daafe3b4186f6b6457e0908390a3600080546001600160a01b0319169055565b60008060008084516041146110005760009350505050610e48565b50505060208201516040830151604184015160ff16601b81101561102257601b015b8060ff16601b1415801561103a57508060ff16601c14155b1561104b5760009350505050610e48565b6040805160008152602080820180845289905260ff8416828401526060820186905260808201859052915160019260a0808401939192601f1981019281900390910190855afa1580156110a2573d6000803e3d6000fd5b5050604051601f1901519450506001600160a01b0384166110ff576040805162461bcd60e51b815260206004820152601260248201527122b93937b91034b71032b1b932b1b7bb32b960711b604482015290519081900360640190fd5b50505092915050565b6000546001600160a01b031690565b6000546001600160a01b0316331490565b6040518060400160405280600281526020016101f560f21b81525081565b60108054604080516020601f6002600019610100600188161502019095169490940493840181900481028201810190925282815260609390929091830182828015610a605780601f10610a3557610100808354040283529160200191610a60565b6040518060800160405280605b8152602001611cf1605b91396040516020018082805190602001908083835b602083106111f25780518252601f1990920191602091820191016111d3565b6001836020036101000a0380198251168184511680821785525050505050509050019150506040516020818303038152906040528051906020012081565b60056020526000908152604090205460ff1681565b600061125b611256868686866115b9565b611672565b95945050505050565b61126f848484610cda565b61127b84848484611418565b61128457600080fd5b50505050565b606061129582611697565b61129e57600080fd5b60008281526011602090815260409182902080548351601f6002600019610100600186161502019093169290920491820184900484028101840190945280845290918301828280156113315780601f1061130657610100808354040283529160200191611331565b820191906000526020600020905b81548152906001019060200180831161131457829003601f168201915b50505050509050919050565b6107d481565b60015481565b604051806080016040528060528152602001611c9f60529139604051602001808280519060200190808383602083106111f25780518252601f1990920191602091820191016111d3565b61139b611117565b6113a457600080fd5b6113ad816116b4565b50565b6002546001600160a01b031681565b6113ca838383611722565b6002546040805183815290516001600160a01b0380861693878216939116917f6eabe333476233fd382224f233210cb808a7bc4c4de64f9d76628bf63c677b1a9181900360200190a4505050565b600061142c846001600160a01b0316611741565b61143857506001611544565b604051630a85bd0160e11b815233600482018181526001600160a01b03888116602485015260448401879052608060648501908152865160848601528651600095928a169463150b7a029490938c938b938b939260a4019060208501908083838e5b838110156114b257818101518382015260200161149a565b50505050905090810190601f1680156114df5780820380516001836020036101000a031916815260200191505b5095505050505050602060405180830381600087803b15801561150157600080fd5b505af1158015611515573d6000803e3d6000fd5b505050506040513d602081101561152b57600080fd5b50516001600160e01b031916630a85bd0160e11b149150505b949350505050565b6115568282611747565b600081815260116020526040902054600260001961010060018416150201909116041561159457600081815260116020526040812061159491611c1c565b5050565b6115a28282611773565b6115ac8282611814565b61159481611852565b5490565b6000806040518060800160405280605b8152602001611cf1605b91396040516020018082805190602001908083835b602083106116075780518252601f1990920191602091820191016115e8565b51815160209384036101000a60001901801990921691161790526040805192909401828103601f1901835280855282519282019290922082526001600160a01b039b909b169a81019a909a5250880196909652505050606084019190915260808301525060a0902090565b60015460405161190160f01b8152600281019190915260228101919091526042902090565b6000908152600760205260409020546001600160a01b0316151590565b6001600160a01b0381166116c757600080fd5b600080546040516001600160a01b03808516939216917f8be0079c531659141344cd1fd0a4f28419497f9722a3daafe3b4186f6b6457e091a3600080546001600160a01b0319166001600160a01b0392909216919091179055565b61172d838383611896565b6117378382611976565b610d8e8282611814565b3b151590565b6117518282611a6b565b61175b8282611976565b6000818152600c602052604081205561159481611b10565b6001600160a01b03821661178657600080fd5b61178f81611697565b1561179957600080fd5b600081815260076020908152604080832080546001600160a01b0319166001600160a01b0387169081179091558352600990915290206117d890611bac565b60405181906001600160a01b038416906000907fddf252ad1be2c89b69c2b068fc378daa952ba7f163c4a11628f55a4df523b3ef908290a45050565b6001600160a01b039091166000908152600b602081815260408084208054868652600c84529185208290559282526001810183559183529091200155565b600d80546000838152600e60205260408120829055600182018355919091527fd7b6990105719101dabeb77144f2a3385c8033acd3af97e9423a695e81ad1eb50155565b826001600160a01b03166118a982610f23565b6001600160a01b0316146118bc57600080fd5b6001600160a01b0382166118cf57600080fd5b6118d881611bb5565b6001600160a01b03831660009081526009602052604090206118f990611bf0565b6001600160a01b038216600090815260096020526040902061191a90611bac565b60008181526007602052604080822080546001600160a01b0319166001600160a01b0386811691821790925591518493918716917fddf252ad1be2c89b69c2b068fc378daa952ba7f163c4a11628f55a4df523b3ef91a4505050565b6001600160a01b0382166000908152600b60205260408120546119a090600163ffffffff611c0716565b6000838152600c6020526040902054909150808214611a3b576001600160a01b0384166000908152600b602052604081208054849081106119dd57fe5b9060005260206000200154905080600b6000876001600160a01b03166001600160a01b031681526020019081526020016000208381548110611a1b57fe5b6000918252602080832090910192909255918252600c9052604090208190555b6001600160a01b0384166000908152600b60205260409020805490611a64906000198301611c60565b5050505050565b816001600160a01b0316611a7e82610f23565b6001600160a01b031614611a9157600080fd5b611a9a81611bb5565b6001600160a01b0382166000908152600960205260409020611abb90611bf0565b60008181526007602052604080822080546001600160a01b0319169055518291906001600160a01b038516907fddf252ad1be2c89b69c2b068fc378daa952ba7f163c4a11628f55a4df523b3ef908390a45050565b600d54600090611b2790600163ffffffff611c0716565b6000838152600e6020526040812054600d8054939450909284908110611b4957fe5b9060005260206000200154905080600d8381548110611b6457fe5b6000918252602080832090910192909255828152600e90915260409020829055600d805490611b97906000198301611c60565b505050600091825250600e6020526040812055565b80546001019055565b6000818152600860205260409020546001600160a01b0316156113ad57600090815260086020526040902080546001600160a01b0319169055565b8054611c0390600163ffffffff611c0716565b9055565b600082821115611c1657600080fd5b50900390565b50805460018160011615610100020316600290046000825580601f10611c4257506113ad565b601f0160209004906000526020600020908101906113ad9190611c80565b815481835581811115610d8e57600083815260209020610d8e9181019083015b610a6891905b80821115611c9a5760008155600101611c86565b509056fe454950373132446f6d61696e28737472696e67206e616d652c737472696e672076657273696f6e2c75696e7432353620636861696e49642c6164647265737320766572696679696e67436f6e747261637429546f6b656e5472616e736665724f726465722861646472657373207370656e6465722c75696e7432353620746f6b656e49644f72416d6f756e742c6279746573333220646174612c75696e743235362065787069726174696f6e29a265627a7a723158209e619e20f4b2a8dc58db1111d21843a5767ed530419633f244322674b3ebd70664736f6c634300050b0032454950373132446f6d61696e28737472696e67206e616d652c737472696e672076657273696f6e2c75696e7432353620636861696e49642c6164647265737320766572696679696e67436f6e74726163742960806040523480156200001157600080fd5b5060405162001cb138038062001cb1833981810160405260a08110156200003757600080fd5b815160208301516040808501805191519395929483019291846401000000008211156200006357600080fd5b9083019060208201858111156200007957600080fd5b82516401000000008111828201881017156200009457600080fd5b82525081516020918201929091019080838360005b83811015620000c3578181015183820152602001620000a9565b50505050905090810190601f168015620000f15780820380516001836020036101000a031916815260200191505b50604052602001805160405193929190846401000000008211156200011557600080fd5b9083019060208201858111156200012b57600080fd5b82516401000000008111828201881017156200014657600080fd5b82525081516020918201929091019080838360005b83811015620001755781810151838201526020016200015b565b50505050905090810190601f168015620001a35780820380516001836020036101000a031916815260200191505b50604081905260209190910151600080546001600160a01b0319163317808255919450869350859285926001600160a01b031691907f8be0079c531659141344cd1fd0a4f28419497f9722a3daafe3b4186f6b6457e0908290a360405180608001604052806052815260200162001c5f605291396040516020018082805190602001908083835b602083106200024b5780518252601f1990920191602091820191016200022a565b51815160209384036101000a60001901801990921691161790526040805192909401828103601f190183528085528251928201929092208285018552600d83527f4d61746963204e6574776f726b00000000000000000000000000000000000000928201929092528351808501855260018082527f3100000000000000000000000000000000000000000000000000000000000000918301919091528451808301939093527fd26430275d0d30693378daeb558f6ed30c3a48ba5d665f52c16608e1c41b5cd7838601527fc89efdaa54c0f20c7adf612882df0950f5a951637e0307cdcb4c672f298b8bc660608401526107d460808401523060a0808501919091528551808503909101815260c0909301909452815191810191909120909255508551620003829350600992509086019062000413565b5081516200039890600a90602085019062000413565b50600b805460ff191660ff9290921691909117905550506001600160a01b03841615801590620003d057506001600160a01b03851615155b620003da57600080fd5b5050600480546001600160a01b039485166001600160a01b031991821617909155600280549390941692169190911790915550620004b8565b828054600181600116156101000203166002900490600052602060002090601f016020900481019282601f106200045657805160ff191683800117855562000486565b8280016001018555821562000486579182015b828111156200048657825182559160200191906001019062000469565b506200049492915062000498565b5090565b620004b591905b808211156200049457600081556001016200049f565b90565b61179780620004c86000396000f3fe6080604052600436106101cd5760003560e01c80638da5cb5b116100f7578063acd06cb311610095578063e306f77911610064578063e306f7791461077c578063e614d0d614610791578063f2fde38b146107a6578063fc0c546a146107d9576101cd565b8063acd06cb3146106bd578063b789543c146106e7578063cc79f97b1461072c578063dd62ed3e14610741576101cd565b806395d89b41116100d157806395d89b4114610621578063a457c2d714610636578063a9059cbb1461066f578063abceeba2146106a8576101cd565b80638da5cb5b146105e25780638f32d59b146105f75780639025e64c1461060c576101cd565b8063313ce5671161016f5780637019d41a1161013e5780637019d41a146104cb57806370a08231146104e0578063715018a61461051357806377d32e9414610528576101cd565b8063313ce56714610419578063395093511461044457806347e7ef241461047d57806360f96a8f146104b6576101cd565b806318160ddd116101ab57806318160ddd146102de57806319d27d9c1461030557806323b872dd146103b95780632e1a7d4d146103fc576101cd565b806306fdde03146101d2578063095ea7b31461025c5780631499c592146102a9575b600080fd5b3480156101de57600080fd5b506101e76107ee565b6040805160208082528351818301528351919283929083019185019080838360005b83811015610221578181015183820152602001610209565b50505050905090810190601f16801561024e5780820380516001836020036101000a031916815260200191505b509250505060405180910390f35b34801561026857600080fd5b506102956004803603604081101561027f57600080fd5b506001600160a01b038135169060200135610884565b604080519115158252519081900360200190f35b3480156102b557600080fd5b506102dc600480360360208110156102cc57600080fd5b50356001600160a01b03166108c6565b005b3480156102ea57600080fd5b506102f3610912565b60408051918252519081900360200190f35b34801561031157600080fd5b5061039d600480360360a081101561032857600080fd5b81019060208101813564010000000081111561034357600080fd5b82018360208201111561035557600080fd5b8035906020019184600183028401116401000000008311171561037757600080fd5b9193509150803590602081013590604081013590606001356001600160a01b0316610918565b604080516001600160a01b039092168252519081900360200190f35b3480156103c557600080fd5b50610295600480360360608110156103dc57600080fd5b506001600160a01b03813581169160208101359091169060400135610884565b6102dc6004803603602081101561041257600080fd5b5035610a53565b34801561042557600080fd5b5061042e610ae2565b6040805160ff9092168252519081900360200190f35b34801561045057600080fd5b506102956004803603604081101561046757600080fd5b506001600160a01b038135169060200135610aeb565b34801561048957600080fd5b506102dc600480360360408110156104a057600080fd5b506001600160a01b038135169060200135610b36565b3480156104c257600080fd5b5061039d610bbb565b3480156104d757600080fd5b5061039d610bca565b3480156104ec57600080fd5b506102f36004803603602081101561050357600080fd5b50356001600160a01b0316610bd9565b34801561051f57600080fd5b506102dc610bf4565b34801561053457600080fd5b5061039d6004803603604081101561054b57600080fd5b8135919081019060408101602082013564010000000081111561056d57600080fd5b82018360208201111561057f57600080fd5b803590602001918460018302840111640100000000831117156105a157600080fd5b91908080601f016020809104026020016040519081016040528093929190818152602001838380828437600092019190915250929550610c4f945050505050565b3480156105ee57600080fd5b5061039d610d72565b34801561060357600080fd5b50610295610d81565b34801561061857600080fd5b506101e7610d92565b34801561062d57600080fd5b506101e7610db0565b34801561064257600080fd5b506102956004803603604081101561065957600080fd5b506001600160a01b038135169060200135610e11565b34801561067b57600080fd5b506102956004803603604081101561069257600080fd5b506001600160a01b038135169060200135610e4d565b3480156106b457600080fd5b506102f3610f0e565b3480156106c957600080fd5b50610295600480360360208110156106e057600080fd5b5035610f97565b3480156106f357600080fd5b506102f36004803603608081101561070a57600080fd5b506001600160a01b038135169060208101359060408101359060600135610fac565b34801561073857600080fd5b506102f3610fcb565b34801561074d57600080fd5b506102f36004803603604081101561076457600080fd5b506001600160a01b0381358116916020013516610884565b34801561078857600080fd5b506102f3610fd1565b34801561079d57600080fd5b506102f3610fd7565b3480156107b257600080fd5b506102dc600480360360208110156107c957600080fd5b50356001600160a01b0316611021565b3480156107e557600080fd5b5061039d61103e565b60098054604080516020601f600260001961010060018816150201909516949094049384018190048102820181019092528281526060939092909183018282801561087a5780601f1061084f5761010080835404028352916020019161087a565b820191906000526020600020905b81548152906001019060200180831161085d57829003601f168201915b5050505050905090565b6040805162461bcd60e51b815260206004820152601060248201526f44697361626c6564206665617475726560801b6044820152905160009181900360640190fd5b6004546001600160a01b031633146108dd57600080fd5b6001600160a01b0381166108f057600080fd5b600380546001600160a01b0319166001600160a01b0392909216919091179055565b60085490565b600080851161092657600080fd5b8215806109335750824311155b61097b576040805162461bcd60e51b815260206004820152601460248201527314da59db985d1d5c99481a5cc8195e1c1a5c995960621b604482015290519081900360640190fd5b600061098933878787610fac565b60008181526005602052604090205490915060ff16156109e2576040805162461bcd60e51b815260206004820152600f60248201526e14da59c819195858dd1a5d985d1959608a1b604482015290519081900360640190fd5b600081815260056020908152604091829020805460ff191660011790558151601f8a01829004820281018201909252888252610a3a9183918b908b9081908401838280828437600092019190915250610c4f92505050565b9150610a4782848861104d565b50509695505050505050565b336000610a5f82610bd9565b9050600083118015610a715750828110155b610a7a57600080fd5b610a84828461129a565b6002546001600160a01b0380841691167febff2602b3f468259e1e99f613fed6691f3a6526effe6ef3e768ba7ae7a36c4f8584610ac087610bd9565b60408051938452602084019290925282820152519081900360600190a3505050565b600b5460ff1690565b3360008181526007602090815260408083206001600160a01b03871684529091528120549091610b2c918590610b27908663ffffffff61134316565b611355565b5060015b92915050565b610b3e610d81565b610b4757600080fd5b600081118015610b5f57506001600160a01b03821615155b610b6857600080fd5b6000610b7383610bd9565b9050610b7f83836113dd565b6002546001600160a01b0380851691167f4e2ca0515ed1aef1395f66b5303bb5d6f1bf9d61a353fa53f73f8ac9973fa9f68484610ac088610bd9565b6003546001600160a01b031681565b6004546001600160a01b031681565b6001600160a01b031660009081526006602052604090205490565b610bfc610d81565b610c0557600080fd5b600080546040516001600160a01b03909116907f8be0079c531659141344cd1fd0a4f28419497f9722a3daafe3b4186f6b6457e0908390a3600080546001600160a01b0319169055565b6000806000808451604114610c6a5760009350505050610b30565b50505060208201516040830151604184015160ff16601b811015610c8c57601b015b8060ff16601b14158015610ca457508060ff16601c14155b15610cb55760009350505050610b30565b6040805160008152602080820180845289905260ff8416828401526060820186905260808201859052915160019260a0808401939192601f1981019281900390910190855afa158015610d0c573d6000803e3d6000fd5b5050604051601f1901519450506001600160a01b038416610d69576040805162461bcd60e51b815260206004820152601260248201527122b93937b91034b71032b1b932b1b7bb32b960711b604482015290519081900360640190fd5b50505092915050565b6000546001600160a01b031690565b6000546001600160a01b0316331490565b6040518060400160405280600281526020016101f560f21b81525081565b600a8054604080516020601f600260001961010060018816150201909516949094049384018190048102820181019092528281526060939092909183018282801561087a5780601f1061084f5761010080835404028352916020019161087a565b3360008181526007602090815260408083206001600160a01b03871684529091528120549091610b2c918590610b27908663ffffffff61148716565b6003546000906001600160a01b031615801590610eef575060035460408051631ffb811f60e01b81523360048201526001600160a01b0386811660248301526044820186905291519190921691631ffb811f9160648083019260209291908290030181600087803b158015610ec157600080fd5b505af1158015610ed5573d6000803e3d6000fd5b505050506040513d6020811015610eeb57600080fd5b5051155b15610efc57506000610b30565b610f0733848461104d565b9392505050565b6040518060800160405280605b8152602001611708605b91396040516020018082805190602001908083835b60208310610f595780518252601f199092019160209182019101610f3a565b6001836020036101000a0380198251168184511680821785525050505050509050019150506040516020818303038152906040528051906020012081565b60056020526000908152604090205460ff1681565b6000610fc2610fbd8686868661149c565b611555565b95945050505050565b6107d481565b60015481565b6040518060800160405280605281526020016116b66052913960405160200180828051906020019080838360208310610f595780518252601f199092019160209182019101610f3a565b611029610d81565b61103257600080fd5b61103b8161157a565b50565b6002546001600160a01b031681565b604080516370a0823160e01b81526001600160a01b03851660048201529051600091829130916370a08231916024808301926020929190829003018186803b15801561109857600080fd5b505afa1580156110ac573d6000803e3d6000fd5b505050506040513d60208110156110c257600080fd5b5051604080516370a0823160e01b81526001600160a01b0387166004820152905191925060009130916370a08231916024808301926020929190829003018186803b15801561111057600080fd5b505afa158015611124573d6000803e3d6000fd5b505050506040513d602081101561113a57600080fd5b505190506111498686866115e8565b600254604080516370a0823160e01b81526001600160a01b03898116600483018190529251818a1694909116917fe6497e3ee548a3372136af2fcb0696db31fc6cf20260707645068bd3fe97f3c49189918891889130916370a0823191602480820192602092909190829003018186803b1580156111c657600080fd5b505afa1580156111da573d6000803e3d6000fd5b505050506040513d60208110156111f057600080fd5b5051604080516370a0823160e01b81526001600160a01b038f166004820152905130916370a08231916024808301926020929190829003018186803b15801561123857600080fd5b505afa15801561124c573d6000803e3d6000fd5b505050506040513d602081101561126257600080fd5b50516040805195865260208601949094528484019290925260608401526080830152519081900360a00190a450600195945050505050565b6001600160a01b0382166112ad57600080fd5b6008546112c0908263ffffffff61148716565b6008556001600160a01b0382166000908152600660205260409020546112ec908263ffffffff61148716565b6001600160a01b0383166000818152600660209081526040808320949094558351858152935191937fddf252ad1be2c89b69c2b068fc378daa952ba7f163c4a11628f55a4df523b3ef929081900390910190a35050565b600082820183811015610f0757600080fd5b6001600160a01b03821661136857600080fd5b6001600160a01b03831661137b57600080fd5b6001600160a01b03808416600081815260076020908152604080832094871680845294825291829020859055815185815291517f8c5be1e5ebec7d5bd14f71427d1e84f3dd0314c0f7b2291e5b200ac8c7c3b9259281900390910190a3505050565b6001600160a01b0382166113f057600080fd5b600854611403908263ffffffff61134316565b6008556001600160a01b03821660009081526006602052604090205461142f908263ffffffff61134316565b6001600160a01b03831660008181526006602090815260408083209490945583518581529351929391927fddf252ad1be2c89b69c2b068fc378daa952ba7f163c4a11628f55a4df523b3ef9281900390910190a35050565b60008282111561149657600080fd5b50900390565b6000806040518060800160405280605b8152602001611708605b91396040516020018082805190602001908083835b602083106114ea5780518252601f1990920191602091820191016114cb565b51815160209384036101000a60001901801990921691161790526040805192909401828103601f1901835280855282519282019290922082526001600160a01b039b909b169a81019a909a5250880196909652505050606084019190915260808301525060a0902090565b60015460405161190160f01b8152600281019190915260228101919091526042902090565b6001600160a01b03811661158d57600080fd5b600080546040516001600160a01b03808516939216917f8be0079c531659141344cd1fd0a4f28419497f9722a3daafe3b4186f6b6457e091a3600080546001600160a01b0319166001600160a01b0392909216919091179055565b6001600160a01b0382166115fb57600080fd5b6001600160a01b038316600090815260066020526040902054611624908263ffffffff61148716565b6001600160a01b038085166000908152600660205260408082209390935590841681522054611659908263ffffffff61134316565b6001600160a01b0380841660008181526006602090815260409182902094909455805185815290519193928716927fddf252ad1be2c89b69c2b068fc378daa952ba7f163c4a11628f55a4df523b3ef92918290030190a350505056fe454950373132446f6d61696e28737472696e67206e616d652c737472696e672076657273696f6e2c75696e7432353620636861696e49642c6164647265737320766572696679696e67436f6e747261637429546f6b656e5472616e736665724f726465722861646472657373207370656e6465722c75696e7432353620746f6b656e49644f72416d6f756e742c6279746573333220646174612c75696e743235362065787069726174696f6e29a265627a7a7231582055338193ae05beb2bb09f7ae2d8cea44cb52d80930910f8c753c43684158d48164736f6c634300050b0032454950373132446f6d61696e28737472696e67206e616d652c737472696e672076657273696f6e2c75696e7432353620636861696e49642c6164647265737320766572696679696e67436f6e74726163742953746174652073796e6365723a2063616c6c6572206973206e6f74207468652073746174652073796e63657220636f6e747261637453746174652073796e6365723a206e65772073746174652073796e636572206164647265737320697320746865207a65726f2061646472657373a265627a7a72315820093a6b80ef1c4ff619cd9273aa66013651641761335e6787283a38b4df35537064736f6c634300050b0032",
  "source": "pragma solidity ^0.5.2;\n\nimport {Ownable} from \"openzeppelin-solidity/contracts/ownership/Ownable.sol\";\n\nimport {StateSyncerVerifier} from \"./bor/StateSyncerVerifier.sol\";\nimport {StateReceiver} from \"./bor/StateReceiver.sol\";\n\nimport \"./ChildToken.sol\";\nimport \"./ChildERC20.sol\";\nimport \"./ChildERC721.sol\";\n\ncontract ChildChain is Ownable, StateSyncerVerifier, StateReceiver {\n    // mapping for (root token => child token)\n    mapping(address => address) public tokens;\n    mapping(address => bool) public isERC721;\n    mapping(uint256 => bool) public deposits;\n    mapping(uint256 => bool) public withdraws;\n\n    event NewToken(\n        address indexed rootToken,\n        address indexed token,\n        uint8 _decimals\n    );\n\n    event TokenDeposited(\n        address indexed rootToken,\n        address indexed childToken,\n        address indexed user,\n        uint256 amount,\n        uint256 depositCount\n    );\n\n    event TokenWithdrawn(\n        address indexed rootToken,\n        address indexed childToken,\n        address indexed user,\n        uint256 amount,\n        uint256 withrawCount\n    );\n\n    constructor() public {\n        //Mapping matic Token\n        tokens[0x7D1AfA7B718fb893dB30A3aBc0Cfc608AaCfeBB0] = 0x0000000000000000000000000000000000001010;\n    }\n\n    function onStateReceive(\n        uint256, /* id */\n        bytes calldata data\n    ) external onlyStateSyncer {\n        (address user, address rootToken, uint256 amountOrTokenId, uint256 depositId) = abi\n            .decode(data, (address, address, uint256, uint256));\n        depositTokens(rootToken, user, amountOrTokenId, depositId);\n    }\n\n    function addToken(\n        address _owner,\n        address _rootToken,\n        string memory _name,\n        string memory _symbol,\n        uint8 _decimals,\n        bool _isERC721\n    ) public onlyOwner returns (address token) {\n        // check if root token already exists\n        require(tokens[_rootToken] == address(0x0), \"Token already mapped\");\n\n        // create new token contract\n        if (_isERC721) {\n            token = address(\n                new ChildERC721(_owner, _rootToken, _name, _symbol)\n            );\n            isERC721[_rootToken] = true;\n        } else {\n            token = address(\n                new ChildERC20(_owner, _rootToken, _name, _symbol, _decimals)\n            );\n        }\n\n        // add mapping with root token\n        tokens[_rootToken] = token;\n\n        // broadcast new token's event\n        emit NewToken(_rootToken, token, _decimals);\n    }\n\n    // for testnet updates remove for mainnet\n    function mapToken(address rootToken, address token, bool isErc721)\n        public\n        onlyOwner\n    {\n        tokens[rootToken] = token;\n        isERC721[rootToken] = isErc721;\n    }\n\n    function withdrawTokens(\n        address rootToken,\n        address user,\n        uint256 amountOrTokenId,\n        uint256 withdrawCount\n    ) public onlyOwner {\n        // check if withdrawal happens only once\n        require(withdraws[withdrawCount] == false);\n\n        // set withdrawal flag\n        withdraws[withdrawCount] = true;\n\n        // retrieve child tokens\n        address childToken = tokens[rootToken];\n\n        // check if child token is mapped\n        require(childToken != address(0x0), \"child token is not mapped\");\n\n        ChildToken obj;\n\n        if (isERC721[rootToken]) {\n            obj = ChildERC721(childToken);\n        } else {\n            obj = ChildERC20(childToken);\n        }\n        // withdraw tokens\n        obj.withdraw(amountOrTokenId);\n\n        // Emit TokenWithdrawn event\n        emit TokenWithdrawn(\n            rootToken,\n            childToken,\n            user,\n            amountOrTokenId,\n            withdrawCount\n        );\n    }\n\n    function depositTokens(\n        address rootToken,\n        address user,\n        uint256 amountOrTokenId,\n        uint256 depositId\n    ) internal {\n        // check if deposit happens only once\n        require(deposits[depositId] == false);\n\n        // set deposit flag\n        deposits[depositId] = true;\n\n        // retrieve child tokens\n        address childToken = tokens[rootToken];\n\n        // check if child token is mapped\n        require(childToken != address(0x0));\n\n        ChildToken obj;\n\n        if (isERC721[rootToken]) {\n            obj = ChildERC721(childToken);\n        } else {\n            obj = ChildERC20(childToken);\n        }\n\n        // deposit tokens\n        obj.deposit(user, amountOrTokenId);\n\n        // Emit TokenDeposited event\n        emit TokenDeposited(\n            rootToken,\n            childToken,\n            user,\n            amountOrTokenId,\n            depositId\n        );\n    }\n\n}\n",
  "sourcePath": "/Users/arth/Documents/Projects/contracts/contracts/child/ChildChain.sol",
  "compiler": {
    "name": "solc",
    "version": "0.5.11+commit.c082d0b4.Emscripten.clang"
  },
  "schemaVersion": "3.0.14",
  "updatedAt": "2020-03-16T07:46:21.284Z",
  "devdoc": {
    "methods": {
      "isOnlyStateSyncerContract()": {
        "details": "Returns true if the caller is the state syncer contract TODO: replace onlyOwner ownership with 0x1000 for validator majority"
      },
      "isOwner()": {
        "return": "true if `msg.sender` is the owner of the contract."
      },
      "owner()": {
        "return": "the address of the owner."
      },
      "renounceOwnership()": {
        "details": "Allows the current owner to relinquish control of the contract. It will not be possible to call the functions with the `onlyOwner` modifier anymore."
      },
      "transferOwnership(address)": {
        "details": "Allows the current owner to transfer control of the contract to a newOwner.",
        "params": {
          "newOwner": "The address to transfer ownership to."
        }
      }
    }
  },
  "userdoc": {
    "methods": {
      "renounceOwnership()": {
        "notice": "Renouncing ownership will leave the contract without an owner, thereby removing any functionality that is only available to the owner."
      }
    }
  }
}