{
  "contractName": "DepositManager",
  "abi": [
    {
      "constant": true,
      "inputs": [],
      "name": "childChain",
      "outputs": [
        {
          "internalType": "address",
          "name": "",
          "type": "address"
        }
      ],
      "payable": false,
      "stateMutability": "view",
      "type": "function"
    },
    {
      "constant": false,
      "inputs": [],
      "name": "renounceOwnership",
      "outputs": [],
      "payable": false,
      "stateMutability": "nonpayable",
      "type": "function"
    },
    {
      "constant": true,
      "inputs": [],
      "name": "owner",
      "outputs": [
        {
          "internalType": "address",
          "name": "",
          "type": "address"
        }
      ],
      "payable": false,
      "stateMutability": "view",
      "type": "function"
    },
    {
      "constant": true,
      "inputs": [],
      "name": "isOwner",
      "outputs": [
        {
          "internalType": "bool",
          "name": "",
          "type": "bool"
        }
      ],
      "payable": false,
      "stateMutability": "view",
      "type": "function"
    },
    {
      "constant": true,
      "inputs": [
        {
          "internalType": "uint256",
          "name": "",
          "type": "uint256"
        }
      ],
      "name": "deposits",
      "outputs": [
        {
          "internalType": "bytes32",
          "name": "depositHash",
          "type": "bytes32"
        },
        {
          "internalType": "uint256",
          "name": "createdAt",
          "type": "uint256"
        }
      ],
      "payable": false,
      "stateMutability": "view",
      "type": "function"
    },
    {
      "constant": true,
      "inputs": [],
      "name": "stateSender",
      "outputs": [
        {
          "internalType": "contract StateSender",
          "name": "",
          "type": "address"
        }
      ],
      "payable": false,
      "stateMutability": "view",
      "type": "function"
    },
    {
      "constant": false,
      "inputs": [
        {
          "internalType": "address",
          "name": "newOwner",
          "type": "address"
        }
      ],
      "name": "transferOwnership",
      "outputs": [],
      "payable": false,
      "stateMutability": "nonpayable",
      "type": "function"
    },
    {
      "payable": true,
      "stateMutability": "payable",
      "type": "fallback"
    },
    {
      "anonymous": false,
      "inputs": [
        {
          "indexed": true,
          "internalType": "address",
          "name": "owner",
          "type": "address"
        },
        {
          "indexed": true,
          "internalType": "address",
          "name": "token",
          "type": "address"
        },
        {
          "indexed": false,
          "internalType": "uint256",
          "name": "amountOrNFTId",
          "type": "uint256"
        },
        {
          "indexed": false,
          "internalType": "uint256",
          "name": "depositBlockId",
          "type": "uint256"
        }
      ],
      "name": "NewDepositBlock",
      "type": "event"
    },
    {
      "anonymous": false,
      "inputs": [
        {
          "indexed": true,
          "internalType": "address",
          "name": "previousOwner",
          "type": "address"
        },
        {
          "indexed": true,
          "internalType": "address",
          "name": "newOwner",
          "type": "address"
        }
      ],
      "name": "OwnershipTransferred",
      "type": "event"
    },
    {
      "constant": false,
      "inputs": [],
      "name": "updateChildChainAndStateSender",
      "outputs": [],
      "payable": false,
      "stateMutability": "nonpayable",
      "type": "function"
    },
    {
      "constant": false,
      "inputs": [
        {
          "internalType": "address",
          "name": "_token",
          "type": "address"
        },
        {
          "internalType": "address",
          "name": "_user",
          "type": "address"
        },
        {
          "internalType": "uint256",
          "name": "_amountOrNFTId",
          "type": "uint256"
        }
      ],
      "name": "transferAssets",
      "outputs": [],
      "payable": false,
      "stateMutability": "nonpayable",
      "type": "function"
    },
    {
      "constant": false,
      "inputs": [
        {
          "internalType": "address",
          "name": "_token",
          "type": "address"
        },
        {
          "internalType": "uint256",
          "name": "_amount",
          "type": "uint256"
        }
      ],
      "name": "depositERC20",
      "outputs": [],
      "payable": false,
      "stateMutability": "nonpayable",
      "type": "function"
    },
    {
      "constant": false,
      "inputs": [
        {
          "internalType": "address",
          "name": "_token",
          "type": "address"
        },
        {
          "internalType": "uint256",
          "name": "_tokenId",
          "type": "uint256"
        }
      ],
      "name": "depositERC721",
      "outputs": [],
      "payable": false,
      "stateMutability": "nonpayable",
      "type": "function"
    },
    {
      "constant": false,
      "inputs": [
        {
          "internalType": "address[]",
          "name": "_tokens",
          "type": "address[]"
        },
        {
          "internalType": "uint256[]",
          "name": "_amountOrTokens",
          "type": "uint256[]"
        },
        {
          "internalType": "address",
          "name": "_user",
          "type": "address"
        }
      ],
      "name": "depositBulk",
      "outputs": [],
      "payable": false,
      "stateMutability": "nonpayable",
      "type": "function"
    },
    {
      "constant": false,
      "inputs": [
        {
          "internalType": "address",
          "name": "_token",
          "type": "address"
        },
        {
          "internalType": "address",
          "name": "_user",
          "type": "address"
        },
        {
          "internalType": "uint256",
          "name": "_amount",
          "type": "uint256"
        }
      ],
      "name": "depositERC20ForUser",
      "outputs": [],
      "payable": false,
      "stateMutability": "nonpayable",
      "type": "function"
    },
    {
      "constant": false,
      "inputs": [
        {
          "internalType": "address",
          "name": "_token",
          "type": "address"
        },
        {
          "internalType": "address",
          "name": "_user",
          "type": "address"
        },
        {
          "internalType": "uint256",
          "name": "_tokenId",
          "type": "uint256"
        }
      ],
      "name": "depositERC721ForUser",
      "outputs": [],
      "payable": false,
      "stateMutability": "nonpayable",
      "type": "function"
    },
    {
      "constant": false,
      "inputs": [],
      "name": "depositEther",
      "outputs": [],
      "payable": true,
      "stateMutability": "payable",
      "type": "function"
    },
    {
      "constant": false,
      "inputs": [
        {
          "internalType": "address",
          "name": "",
          "type": "address"
        },
        {
          "internalType": "address",
          "name": "_user",
          "type": "address"
        },
        {
          "internalType": "uint256",
          "name": "_tokenId",
          "type": "uint256"
        },
        {
          "internalType": "bytes",
          "name": "",
          "type": "bytes"
        }
      ],
      "name": "onERC721Received",
      "outputs": [
        {
          "internalType": "bytes4",
          "name": "",
          "type": "bytes4"
        }
      ],
      "payable": false,
      "stateMutability": "nonpayable",
      "type": "function"
    },
    {
      "constant": false,
      "inputs": [
        {
          "internalType": "address",
          "name": "_user",
          "type": "address"
        },
        {
          "internalType": "uint256",
          "name": "_amount",
          "type": "uint256"
        },
        {
          "internalType": "bytes",
          "name": "",
          "type": "bytes"
        }
      ],
      "name": "tokenFallback",
      "outputs": [],
      "payable": false,
      "stateMutability": "nonpayable",
      "type": "function"
    }
  ],
  "bytecode": "0x60806040819052600080546001600160a01b03191633178082556001600160a01b0316917f8be0079c531659141344cd1fd0a4f28419497f9722a3daafe3b4186f6b6457e0908290a3611586806100576000396000f3fe6080604052600436106100fe5760003560e01c80638da5cb5b11610095578063b02c43d011610064578063b02c43d014610465578063c0ee0b8a146104a8578063cb10f94c1461056e578063d29a4bf614610583578063f2fde38b146105bc576100fe565b80638da5cb5b146103ee5780638f32d59b1461040357806397feb9261461042c57806398ea5fca146100fe576100fe565b806349f4cc17116100d157806349f4cc171461027f578063715018a6146102c25780637b1f7117146102d75780638b9e4f93146103ab576100fe565b8063072b153514610108578063150b7a021461014b57806342be83791461023957806342fc47fb1461024e575b6101066105ef565b005b34801561011457600080fd5b506101066004803603606081101561012b57600080fd5b506001600160a01b038135811691602081013590911690604001356106d1565b34801561015757600080fd5b5061021c6004803603608081101561016e57600080fd5b6001600160a01b03823581169260208101359091169160408201359190810190608081016060820135600160201b8111156101a857600080fd5b8201836020820111156101ba57600080fd5b803590602001918460018302840111600160201b831117156101db57600080fd5b91908080601f01602080910402602001604051908101604052809392919081815260200183838082843760009201919091525092955061074d945050505050565b604080516001600160e01b03199092168252519081900360200190f35b34801561024557600080fd5b5061010661076b565b34801561025a57600080fd5b5061026361087c565b604080516001600160a01b039092168252519081900360200190f35b34801561028b57600080fd5b50610106600480360360608110156102a257600080fd5b506001600160a01b0381358116916020810135909116906040013561088b565b3480156102ce57600080fd5b50610106610c1c565b3480156102e357600080fd5b50610106600480360360608110156102fa57600080fd5b810190602081018135600160201b81111561031457600080fd5b82018360208201111561032657600080fd5b803590602001918460208302840111600160201b8311171561034757600080fd5b919390929091602081019035600160201b81111561036457600080fd5b82018360208201111561037657600080fd5b803590602001918460208302840111600160201b8311171561039757600080fd5b9193509150356001600160a01b0316610c77565b3480156103b757600080fd5b50610106600480360360608110156103ce57600080fd5b506001600160a01b03813581169160208101359091169060400135611022565b3480156103fa57600080fd5b506102636110f7565b34801561040f57600080fd5b50610418611106565b604080519115158252519081900360200190f35b34801561043857600080fd5b506101066004803603604081101561044f57600080fd5b506001600160a01b038135169060200135611117565b34801561047157600080fd5b5061048f6004803603602081101561048857600080fd5b5035611122565b6040805192835260208301919091528051918290030190f35b3480156104b457600080fd5b50610106600480360360608110156104cb57600080fd5b6001600160a01b0382351691602081013591810190606081016040820135600160201b8111156104fa57600080fd5b82018360208201111561050c57600080fd5b803590602001918460018302840111600160201b8311171561052d57600080fd5b91908080601f01602080910402602001604051908101604052809392919081815260200183838082843760009201919091525092955061113b945050505050565b34801561057a57600080fd5b50610263611146565b34801561058f57600080fd5b50610106600480360360408110156105a657600080fd5b506001600160a01b038135169060200135611155565b3480156105c857600080fd5b50610106600480360360208110156105df57600080fd5b50356001600160a01b0316611160565b60025460408051638b9c948960e01b815290516000926001600160a01b031691638b9c9489916004808301926020929190829003018186803b15801561063457600080fd5b505afa158015610648573d6000803e3d6000fd5b505050506040513d602081101561065e57600080fd5b505160408051630d0e30db60e41b8152905191925082916001600160a01b0383169163d0e30db091349160048082019260009290919082900301818588803b1580156106a957600080fd5b505af11580156106bd573d6000803e3d6000fd5b50505050506106cd33833461117d565b5050565b604080516323b872dd60e01b81523360048201523060248201526044810183905290516001600160a01b038516916323b872dd91606480830192600092919082900301818387803b15801561072557600080fd5b505af1158015610739573d6000803e3d6000fd5b5050505061074882848361117d565b505050565b600061075a84338561117d565b50630a85bd0160e11b949350505050565b60025460408051630c91702f60e31b8152815160009384936001600160a01b039091169263648b81789260048083019392829003018186803b1580156107b057600080fd5b505afa1580156107c4573d6000803e3d6000fd5b505050506040513d60408110156107da57600080fd5b50805160209091015160045491935091506001600160a01b03808316911614158061081357506006546001600160a01b03838116911614155b61084e5760405162461bcd60e51b815260040180806020018281038252603e815260200180611514603e913960400191505060405180910390fd5b600680546001600160a01b039384166001600160a01b03199182161790915560048054929093169116179055565b6006546001600160a01b031681565b600254604080516337b1d58560e01b815233600482015290516001600160a01b03909216916337b1d58591602480820192602092909190829003018186803b1580156108d657600080fd5b505afa1580156108ea573d6000803e3d6000fd5b505050506040513d602081101561090057600080fd5b5051600381111561090d57fe5b60ff16610959576040805162461bcd60e51b81526020600482015260156024820152744e6f7420612076616c69642070726564696361746560581b604482015290519081900360640190fd5b60025460408051638b9c948960e01b815290516000926001600160a01b031691638b9c9489916004808301926020929190829003018186803b15801561099e57600080fd5b505afa1580156109b2573d6000803e3d6000fd5b505050506040513d60208110156109c857600080fd5b5051600254604080516336a8279560e21b81526001600160a01b038881166004830152915193945091169163daa09e5491602480820192602092909190829003018186803b158015610a1957600080fd5b505afa158015610a2d573d6000803e3d6000fd5b505050506040513d6020811015610a4357600080fd5b505115610abf57604080516323b872dd60e01b81523060048201526001600160a01b038581166024830152604482018590529151918616916323b872dd9160648082019260009290919082900301818387803b158015610aa257600080fd5b505af1158015610ab6573d6000803e3d6000fd5b50505050610c16565b806001600160a01b0316846001600160a01b03161415610b475760408051627b8a6760e11b8152600481018490526001600160a01b0385811660248301529151869283169162f714ce91604480830192600092919082900301818387803b158015610b2957600080fd5b505af1158015610b3d573d6000803e3d6000fd5b5050505050610c16565b836001600160a01b031663a9059cbb84846040518363ffffffff1660e01b815260040180836001600160a01b03166001600160a01b0316815260200182815260200192505050602060405180830381600087803b158015610ba757600080fd5b505af1158015610bbb573d6000803e3d6000fd5b505050506040513d6020811015610bd157600080fd5b5051610c16576040805162461bcd60e51b815260206004820152600f60248201526e1514905394d1915497d19052531151608a1b604482015290519081900360640190fd5b50505050565b610c24611106565b610c2d57600080fd5b600080546040516001600160a01b03909116907f8be0079c531659141344cd1fd0a4f28419497f9722a3daafe3b4186f6b6457e0908390a3600080546001600160a01b0319169055565b838214610cbb576040805162461bcd60e51b815260206004820152600d60248201526c125b9d985b1a5908125b9c1d5d609a1b604482015290519081900360640190fd5b60035460408051635391f48360e01b81526004810187905290516000926001600160a01b031691635391f48391602480830192602092919082900301818787803b158015610d0857600080fd5b505af1158015610d1c573d6000803e3d6000fd5b505050506040513d6020811015610d3257600080fd5b5051905060005b85811015611019576002546001600160a01b03166301f07db5888884818110610d5e57fe5b905060200201356001600160a01b03166040518263ffffffff1660e01b815260040180826001600160a01b03166001600160a01b0316815260200191505060206040518083038186803b158015610db457600080fd5b505afa158015610dc8573d6000803e3d6000fd5b505050506040513d6020811015610dde57600080fd5b505115610ea957868682818110610df157fe5b905060200201356001600160a01b03166001600160a01b03166323b872dd3330888886818110610e1d57fe5b905060200201356040518463ffffffff1660e01b815260040180846001600160a01b03166001600160a01b03168152602001836001600160a01b03166001600160a01b031681526020018281526020019350505050600060405180830381600087803b158015610e8c57600080fd5b505af1158015610ea0573d6000803e3d6000fd5b50505050610fc5565b868682818110610eb557fe5b905060200201356001600160a01b03166001600160a01b03166323b872dd3330888886818110610ee157fe5b905060200201356040518463ffffffff1660e01b815260040180846001600160a01b03166001600160a01b03168152602001836001600160a01b03166001600160a01b031681526020018281526020019350505050602060405180830381600087803b158015610f5057600080fd5b505af1158015610f64573d6000803e3d6000fd5b505050506040513d6020811015610f7a57600080fd5b5051610fc5576040805162461bcd60e51b81526020600482015260156024820152741513d2d15397d514905394d1915497d19052531151605a1b604482015290519081900360640190fd5b610ffe83888884818110610fd557fe5b905060200201356001600160a01b0316878785818110610ff157fe5b90506020020135856112c2565b61100f82600163ffffffff61148c16565b9150600101610d39565b50505050505050565b604080516323b872dd60e01b81523360048201523060248201526044810183905290516001600160a01b038516916323b872dd9160648083019260209291908290030181600087803b15801561107757600080fd5b505af115801561108b573d6000803e3d6000fd5b505050506040513d60208110156110a157600080fd5b50516110ec576040805162461bcd60e51b81526020600482015260156024820152741513d2d15397d514905394d1915497d19052531151605a1b604482015290519081900360640190fd5b61074882848361117d565b6000546001600160a01b031690565b6000546001600160a01b0316331490565b6106cd823383611022565b6005602052600090815260409020805460019091015482565b61074883338461117d565b6004546001600160a01b031681565b6106cd8233836106d1565b611168611106565b61117157600080fd5b61117a816114a5565b50565b60025460408051636416c18360e01b81526001600160a01b038086166004830152915185939290921691636416c18391602480820192602092909190829003018186803b1580156111cd57600080fd5b505afa1580156111e1573d6000803e3d6000fd5b505050506040513d60208110156111f757600080fd5b5051611240576040805162461bcd60e51b81526020600482015260136024820152721513d2d15397d393d517d4d5541413d4951151606a1b604482015290519081900360640190fd5b60035460408051635391f48360e01b8152600160048201529051610c16928792879287926001600160a01b031691635391f4839160248083019260209291908290030181600087803b15801561129557600080fd5b505af11580156112a9573d6000803e3d6000fd5b505050506040513d60208110156112bf57600080fd5b50515b604080518082018252606086811b6bffffffffffffffffffffffff199081168284015286821b16607483015260888083018690528351808403909101815260a883018452805160209182012083524281840190815260008681526005835285812094518555905160019094019390935560045460065485516001600160a01b03808c1682860152808b168289015294810189905260808082018990528751808303909101815260a082018089526316f1983160e01b905291851660a4820181815260c48301988952835160e4840152835196909416976316f198319791969395909361010490930192908601918190849084905b838110156113ce5781810151838201526020016113b6565b50505050905090810190601f1680156113fb5780820380516001836020036101000a031916815260200191505b509350505050600060405180830381600087803b15801561141b57600080fd5b505af115801561142f573d6000803e3d6000fd5b50505050826001600160a01b0316846001600160a01b03167f1dadc8d0683c6f9824e885935c1bec6f76816730dcec148dda8cf25a7b9f797b8484604051808381526020018281526020019250505060405180910390a350505050565b60008282018381101561149e57600080fd5b9392505050565b6001600160a01b0381166114b857600080fd5b600080546040516001600160a01b03808516939216917f8be0079c531659141344cd1fd0a4f28419497f9722a3daafe3b4186f6b6457e091a3600080546001600160a01b0319166001600160a01b039290921691909117905556fe41746c65617374206f6e65206f6620737461746553656e646572206f72206368696c64436861696e20616464726573732073686f756c64206368616e6765a265627a7a723158203cbd53ead5712a534d3670f139eea62788350c5cd36f9891da4cb04e9e32872a64736f6c634300050b0032",
  "source": "pragma solidity ^0.5.2;\n\nimport { IERC721Receiver } from \"openzeppelin-solidity/contracts/token/ERC721/IERC721Receiver.sol\";\nimport { IERC20 } from \"openzeppelin-solidity/contracts/token/ERC20/IERC20.sol\";\nimport { IERC721 } from \"openzeppelin-solidity/contracts/token/ERC721/IERC721.sol\";\nimport { SafeMath } from \"openzeppelin-solidity/contracts/math/SafeMath.sol\";\n\nimport { ContractReceiver } from \"../../common/misc/ContractReceiver.sol\";\nimport { Registry } from \"../../common/Registry.sol\";\nimport { WETH } from \"../../common/tokens/WETH.sol\";\nimport { IDepositManager } from \"./IDepositManager.sol\";\nimport { DepositManagerStorage } from \"./DepositManagerStorage.sol\";\nimport { StateSender } from \"../stateSyncer/StateSender.sol\";\n\n\ncontract DepositManager is DepositManagerStorage, IDepositManager, IERC721Receiver, ContractReceiver {\n  using SafeMath for uint256;\n\n  modifier isTokenMapped(address _token) {\n    require(registry.isTokenMapped(_token), \"TOKEN_NOT_SUPPORTED\");\n    _;\n  }\n\n  modifier isPredicateAuthorized() {\n    require(\n      uint8(registry.predicates(msg.sender)) != 0,\n      \"Not a valid predicate\"\n    );\n    _;\n  }\n\n  // deposit ETH by sending to this contract\n  function () external payable {\n    depositEther();\n  }\n\n  /**\n   * @dev Caches childChain and stateSender (frequently used variables) from registry\n   */\n  function updateChildChainAndStateSender() public {\n    (address _childChain, address _stateSender) = registry.getChildChainAndStateSender();\n    require(\n      _stateSender != address(stateSender) || _childChain != childChain,\n      \"Atleast one of stateSender or childChain address should change\"\n    );\n    childChain = _childChain;\n    stateSender = StateSender(_stateSender);\n  }\n\n  function transferAssets(address _token, address _user, uint256 _amountOrNFTId)\n    external\n    isPredicateAuthorized\n  {\n    address wethToken = registry.getWethTokenAddress();\n    if (registry.isERC721(_token)) {\n      IERC721(_token).transferFrom(address(this), _user, _amountOrNFTId);\n    } else if (_token == wethToken) {\n      WETH t = WETH(_token);\n      t.withdraw(_amountOrNFTId, _user);\n    } else {\n      require(\n        IERC20(_token).transfer(_user, _amountOrNFTId),\n        \"TRANSFER_FAILED\"\n      );\n    }\n  }\n\n  function depositERC20(address _token, uint256 _amount)\n    external\n  {\n    depositERC20ForUser(_token, msg.sender, _amount);\n  }\n\n  function depositERC721(address _token, uint256 _tokenId)\n    external\n  {\n    depositERC721ForUser(_token, msg.sender, _tokenId);\n  }\n\n  function depositBulk(address[] calldata _tokens, uint256[] calldata _amountOrTokens, address _user)\n    external\n  {\n    require(\n      _tokens.length == _amountOrTokens.length,\n      \"Invalid Input\"\n    );\n    uint256 depositId = rootChain.updateDepositId(_tokens.length);\n\n    for (uint256 i = 0; i < _tokens.length; i++) {\n      // will revert if token is not mapped\n      if (registry.isTokenMappedAndIsErc721(_tokens[i])) {\n        IERC721(_tokens[i]).transferFrom(msg.sender, address(this), _amountOrTokens[i]);\n      } else {\n        require(\n          IERC20(_tokens[i]).transferFrom(msg.sender, address(this), _amountOrTokens[i]),\n          \"TOKEN_TRANSFER_FAILED\"\n        );\n      }\n      _createDepositBlock(_user, _tokens[i], _amountOrTokens[i], depositId);\n      depositId = depositId.add(1);\n    }\n  }\n\n  function depositERC20ForUser(address _token, address _user, uint256 _amount)\n    public\n  {\n    require(\n      IERC20(_token).transferFrom(msg.sender, address(this), _amount),\n      \"TOKEN_TRANSFER_FAILED\"\n    );\n    _safeCreateDepositBlock(_user, _token, _amount);\n  }\n\n  function depositERC721ForUser(address _token, address _user, uint256 _tokenId)\n    public\n  {\n    IERC721(_token).transferFrom(msg.sender, address(this), _tokenId);\n    _safeCreateDepositBlock(_user, _token, _tokenId);\n  }\n\n  // @todo: write depositEtherForUser\n  function depositEther()\n    public\n    payable\n  {\n    address wethToken = registry.getWethTokenAddress();\n    WETH t = WETH(wethToken);\n    t.deposit.value(msg.value)();\n    _safeCreateDepositBlock(msg.sender, wethToken, msg.value);\n  }\n\n  /**\n   * @notice This will be invoked when safeTransferFrom is called on the token contract to deposit tokens to this contract\n     without directly interacting with it\n   * @dev msg.sender is the token contract\n   * _operator The address which called `safeTransferFrom` function on the token contract\n   * @param _user The address which previously owned the token\n   * @param _tokenId The NFT identifier which is being transferred\n   * _data Additional data with no specified format\n   * @return `bytes4(keccak256(\"onERC721Received(address,address,uint256,bytes)\"))`\n   */\n  function onERC721Received(address /* _operator */, address _user, uint256 _tokenId, bytes memory /* _data */)\n    public\n    returns (bytes4)\n  {\n    // the ERC721 contract address is the message sender\n    _safeCreateDepositBlock(_user, msg.sender /* token */, _tokenId);\n    return 0x150b7a02;\n  }\n\n  // See https://github.com/ethereum/EIPs/issues/223\n  function tokenFallback(address _user, uint256 _amount, bytes memory /* _data */)\n  public\n  {\n    _safeCreateDepositBlock(_user, msg.sender /* token */, _amount);\n  }\n\n  function _safeCreateDepositBlock(address _user, address _token, uint256 _amountOrToken)\n    internal\n    isTokenMapped(_token)\n  {\n    _createDepositBlock(_user, _token, _amountOrToken, rootChain.updateDepositId(1) /* returns _depositId */);\n  }\n\n  function _createDepositBlock(address _user, address _token, uint256 _amountOrToken, uint256 _depositId)\n    internal\n  {\n    deposits[_depositId] = DepositBlock(keccak256(abi.encodePacked(_user, _token, _amountOrToken)), now);\n    stateSender.syncState(childChain, abi.encode(_user, _token, _amountOrToken, _depositId));\n    emit NewDepositBlock(_user, _token, _amountOrToken, _depositId);\n  }\n}\n"
}