{
  "contractName": "WithdrawManager",
  "abi": [
    {
      "constant": true,
      "inputs": [],
      "name": "exitWindow",
      "outputs": [
        {
          "internalType": "uint256",
          "name": "",
          "type": "uint256"
        }
      ],
      "payable": false,
      "stateMutability": "view",
      "type": "function"
    },
    {
      "constant": true,
      "inputs": [
        {
          "internalType": "uint256",
          "name": "",
          "type": "uint256"
        }
      ],
      "name": "exits",
      "outputs": [
        {
          "internalType": "uint256",
          "name": "receiptAmountOrNFTId",
          "type": "uint256"
        },
        {
          "internalType": "bytes32",
          "name": "txHash",
          "type": "bytes32"
        },
        {
          "internalType": "address",
          "name": "owner",
          "type": "address"
        },
        {
          "internalType": "address",
          "name": "token",
          "type": "address"
        },
        {
          "internalType": "bool",
          "name": "isRegularExit",
          "type": "bool"
        },
        {
          "internalType": "address",
          "name": "predicate",
          "type": "address"
        }
      ],
      "payable": false,
      "stateMutability": "view",
      "type": "function"
    },
    {
      "constant": true,
      "inputs": [
        {
          "internalType": "bytes32",
          "name": "",
          "type": "bytes32"
        }
      ],
      "name": "ownerExits",
      "outputs": [
        {
          "internalType": "uint256",
          "name": "",
          "type": "uint256"
        }
      ],
      "payable": false,
      "stateMutability": "view",
      "type": "function"
    },
    {
      "constant": false,
      "inputs": [],
      "name": "renounceOwnership",
      "outputs": [],
      "payable": false,
      "stateMutability": "nonpayable",
      "type": "function"
    },
    {
      "constant": true,
      "inputs": [],
      "name": "owner",
      "outputs": [
        {
          "internalType": "address",
          "name": "",
          "type": "address"
        }
      ],
      "payable": false,
      "stateMutability": "view",
      "type": "function"
    },
    {
      "constant": true,
      "inputs": [],
      "name": "isOwner",
      "outputs": [
        {
          "internalType": "bool",
          "name": "",
          "type": "bool"
        }
      ],
      "payable": false,
      "stateMutability": "view",
      "type": "function"
    },
    {
      "constant": true,
      "inputs": [
        {
          "internalType": "address",
          "name": "",
          "type": "address"
        }
      ],
      "name": "exitsQueues",
      "outputs": [
        {
          "internalType": "address",
          "name": "",
          "type": "address"
        }
      ],
      "payable": false,
      "stateMutability": "view",
      "type": "function"
    },
    {
      "constant": true,
      "inputs": [],
      "name": "exitNft",
      "outputs": [
        {
          "internalType": "contract ExitNFT",
          "name": "",
          "type": "address"
        }
      ],
      "payable": false,
      "stateMutability": "view",
      "type": "function"
    },
    {
      "constant": false,
      "inputs": [
        {
          "internalType": "address",
          "name": "newOwner",
          "type": "address"
        }
      ],
      "name": "transferOwnership",
      "outputs": [],
      "payable": false,
      "stateMutability": "nonpayable",
      "type": "function"
    },
    {
      "payable": true,
      "stateMutability": "payable",
      "type": "fallback"
    },
    {
      "anonymous": false,
      "inputs": [
        {
          "indexed": true,
          "internalType": "uint256",
          "name": "exitId",
          "type": "uint256"
        },
        {
          "indexed": true,
          "internalType": "address",
          "name": "user",
          "type": "address"
        },
        {
          "indexed": true,
          "internalType": "address",
          "name": "token",
          "type": "address"
        },
        {
          "indexed": false,
          "internalType": "uint256",
          "name": "amount",
          "type": "uint256"
        }
      ],
      "name": "Withdraw",
      "type": "event"
    },
    {
      "anonymous": false,
      "inputs": [
        {
          "indexed": true,
          "internalType": "address",
          "name": "exitor",
          "type": "address"
        },
        {
          "indexed": true,
          "internalType": "uint256",
          "name": "exitId",
          "type": "uint256"
        },
        {
          "indexed": true,
          "internalType": "address",
          "name": "token",
          "type": "address"
        },
        {
          "indexed": false,
          "internalType": "uint256",
          "name": "amount",
          "type": "uint256"
        },
        {
          "indexed": false,
          "internalType": "bool",
          "name": "isRegularExit",
          "type": "bool"
        }
      ],
      "name": "ExitStarted",
      "type": "event"
    },
    {
      "anonymous": false,
      "inputs": [
        {
          "indexed": true,
          "internalType": "uint256",
          "name": "exitId",
          "type": "uint256"
        },
        {
          "indexed": true,
          "internalType": "uint256",
          "name": "age",
          "type": "uint256"
        },
        {
          "indexed": false,
          "internalType": "address",
          "name": "signer",
          "type": "address"
        }
      ],
      "name": "ExitUpdated",
      "type": "event"
    },
    {
      "anonymous": false,
      "inputs": [
        {
          "indexed": true,
          "internalType": "uint256",
          "name": "exitId",
          "type": "uint256"
        }
      ],
      "name": "ExitCancelled",
      "type": "event"
    },
    {
      "anonymous": false,
      "inputs": [
        {
          "indexed": true,
          "internalType": "address",
          "name": "previousOwner",
          "type": "address"
        },
        {
          "indexed": true,
          "internalType": "address",
          "name": "newOwner",
          "type": "address"
        }
      ],
      "name": "OwnershipTransferred",
      "type": "event"
    },
    {
      "constant": false,
      "inputs": [
        {
          "internalType": "address",
          "name": "token",
          "type": "address"
        }
      ],
      "name": "createExitQueue",
      "outputs": [],
      "payable": false,
      "stateMutability": "nonpayable",
      "type": "function"
    },
    {
      "constant": true,
      "inputs": [
        {
          "internalType": "bytes",
          "name": "data",
          "type": "bytes"
        },
        {
          "internalType": "uint8",
          "name": "offset",
          "type": "uint8"
        },
        {
          "internalType": "bool",
          "name": "verifyTxInclusion",
          "type": "bool"
        }
      ],
      "name": "verifyInclusion",
      "outputs": [
        {
          "internalType": "uint256",
          "name": "",
          "type": "uint256"
        }
      ],
      "payable": false,
      "stateMutability": "view",
      "type": "function"
    },
    {
      "constant": false,
      "inputs": [
        {
          "internalType": "uint256",
          "name": "depositId",
          "type": "uint256"
        },
        {
          "internalType": "address",
          "name": "token",
          "type": "address"
        },
        {
          "internalType": "uint256",
          "name": "amountOrToken",
          "type": "uint256"
        }
      ],
      "name": "startExitWithDepositedTokens",
      "outputs": [],
      "payable": true,
      "stateMutability": "payable",
      "type": "function"
    },
    {
      "constant": false,
      "inputs": [
        {
          "internalType": "address",
          "name": "exitor",
          "type": "address"
        },
        {
          "internalType": "address",
          "name": "childToken",
          "type": "address"
        },
        {
          "internalType": "address",
          "name": "rootToken",
          "type": "address"
        },
        {
          "internalType": "uint256",
          "name": "exitAmountOrTokenId",
          "type": "uint256"
        },
        {
          "internalType": "bytes32",
          "name": "txHash",
          "type": "bytes32"
        },
        {
          "internalType": "bool",
          "name": "isRegularExit",
          "type": "bool"
        },
        {
          "internalType": "uint256",
          "name": "priority",
          "type": "uint256"
        }
      ],
      "name": "addExitToQueue",
      "outputs": [],
      "payable": false,
      "stateMutability": "nonpayable",
      "type": "function"
    },
    {
      "constant": false,
      "inputs": [
        {
          "internalType": "uint256",
          "name": "exitId",
          "type": "uint256"
        },
        {
          "internalType": "uint256",
          "name": "age",
          "type": "uint256"
        },
        {
          "internalType": "address",
          "name": "utxoOwner",
          "type": "address"
        },
        {
          "internalType": "address",
          "name": "token",
          "type": "address"
        }
      ],
      "name": "addInput",
      "outputs": [],
      "payable": false,
      "stateMutability": "nonpayable",
      "type": "function"
    },
    {
      "constant": false,
      "inputs": [
        {
          "internalType": "uint256",
          "name": "exitId",
          "type": "uint256"
        },
        {
          "internalType": "uint256",
          "name": "inputId",
          "type": "uint256"
        },
        {
          "internalType": "bytes",
          "name": "challengeData",
          "type": "bytes"
        },
        {
          "internalType": "address",
          "name": "adjudicatorPredicate",
          "type": "address"
        }
      ],
      "name": "challengeExit",
      "outputs": [],
      "payable": false,
      "stateMutability": "nonpayable",
      "type": "function"
    },
    {
      "constant": false,
      "inputs": [
        {
          "internalType": "address",
          "name": "_token",
          "type": "address"
        }
      ],
      "name": "processExits",
      "outputs": [],
      "payable": false,
      "stateMutability": "nonpayable",
      "type": "function"
    },
    {
      "constant": false,
      "inputs": [
        {
          "internalType": "address",
          "name": "_nftContract",
          "type": "address"
        }
      ],
      "name": "setExitNFTContract",
      "outputs": [],
      "payable": false,
      "stateMutability": "nonpayable",
      "type": "function"
    }
  ],
  "bytecode": "0x60806040819052600080546001600160a01b03191633178082556001600160a01b0316917f8be0079c531659141344cd1fd0a4f28419497f9722a3daafe3b4186f6b6457e0908290a3613810806100576000396000f3fe608060405260043610620001165760003560e01c80638da5cb5b11620000a3578063ad1d8069116200006d578063ad1d80691462000412578063d11f045c14620004a1578063d931a86914620004d8578063edeca09b1462000539578063f2fde38b14620005515762000116565b80638da5cb5b14620002e25780638f32d59b14620003165780639145e6df14620003425780639492b0b814620003795762000116565b8063342de17911620000e5578063342de17914620001f957806346e11a8d1462000265578063661429c8146200029c578063715018a614620002ca5762000116565b80630f6795f21462000118578063144a03b3146200014f5780631e29848b146200018457806322f192af14620001ae575b005b3480156200012557600080fd5b5062000116600480360360208110156200013e57600080fd5b50356001600160a01b031662000588565b62000116600480360360608110156200016757600080fd5b508035906001600160a01b036020820135169060400135620009f4565b3480156200019157600080fd5b506200019c62000c22565b60408051918252519081900360200190f35b348015620001bb57600080fd5b506200011660048036036080811015620001d457600080fd5b508035906020810135906001600160a01b036040820135811691606001351662000c28565b3480156200020657600080fd5b5062000227600480360360208110156200021f57600080fd5b503562000d73565b6040805196875260208701959095526001600160a01b03938416868601529183166060860152151560808501521660a0830152519081900360c00190f35b3480156200027257600080fd5b5062000116600480360360208110156200028b57600080fd5b50356001600160a01b031662000dbe565b348015620002a957600080fd5b506200019c60048036036020811015620002c257600080fd5b503562000e08565b348015620002d757600080fd5b506200011662000e1a565b348015620002ef57600080fd5b50620002fa62000e78565b604080516001600160a01b039092168252519081900360200190f35b3480156200032357600080fd5b506200032e62000e87565b604080519115158252519081900360200190f35b3480156200034f57600080fd5b5062000116600480360360208110156200036857600080fd5b50356001600160a01b031662000e98565b3480156200038657600080fd5b5062000116600480360360808110156200039f57600080fd5b813591602081013591810190606081016040820135640100000000811115620003c757600080fd5b820183602082011115620003da57600080fd5b80359060200191846001830284011164010000000083111715620003fd57600080fd5b9193509150356001600160a01b031662000f52565b3480156200041f57600080fd5b506200019c600480360360608110156200043857600080fd5b8101906020810181356401000000008111156200045457600080fd5b8201836020820111156200046757600080fd5b803590602001918460018302840111640100000000831117156200048a57600080fd5b919350915060ff8135169060200135151562001356565b348015620004ae57600080fd5b50620002fa60048036036020811015620004c757600080fd5b50356001600160a01b031662001603565b348015620004e557600080fd5b5062000116600480360360e0811015620004fe57600080fd5b506001600160a01b03813581169160208101358216916040820135169060608101359060808101359060a081013515159060c001356200161e565b3480156200054657600080fd5b50620002fa62001a6c565b3480156200055e57600080fd5b5062000116600480360360208110156200057757600080fd5b50356001600160a01b031662001a7b565b6001600160a01b0380821660009081526006602052604081205490918291165b6000816001600160a01b031663bda1504b6040518163ffffffff1660e01b815260040160206040518083038186803b158015620005e457600080fd5b505afa158015620005f9573d6000803e3d6000fd5b505050506040513d60208110156200061057600080fd5b5051118015620006225750620334505a115b15620009ed57806001600160a01b031663d6362e976040518163ffffffff1660e01b8152600401604080518083038186803b1580156200066157600080fd5b505afa15801562000676573d6000803e3d6000fd5b505050506040513d60408110156200068d57600080fd5b508051602090910151909350608084901b179150620006ab62002e96565b50600082815260046020818152604092839020835160c0810185528154815260018201549281019290925260028101546001600160a01b039081169483019490945260038101548085166060840152600160a01b900460ff16151560808301529091015490911660a0820152428411156200072a5750505050620009f1565b816001600160a01b031663b07576ac6040518163ffffffff1660e01b81526004016040805180830381600087803b1580156200076557600080fd5b505af11580156200077a573d6000803e3d6000fd5b505050506040513d60408110156200079157600080fd5b505060075460408051634f558e7960e01b81526004810186905290516001600160a01b0390921691634f558e7991602480820192602092909190829003018186803b158015620007e057600080fd5b505afa158015620007f5573d6000803e3d6000fd5b505050506040513d60208110156200080c57600080fd5b50516200081a5750620005a8565b60075460408051630852cd8d60e31b81526004810186905290516001600160a01b03909216916342966c689160248082019260009290919082900301818387803b1580156200086857600080fd5b505af11580156200087d573d6000803e3d6000fd5b50505050604081015160a08201516001600160a01b0316637bd94e03620008a48662001a9a565b6040518263ffffffff1660e01b81526004018080602001828103825283818151815260200191508051906020019080838360005b83811015620008f2578181015183820152602001620008d8565b50505050905090810190601f168015620009205780820380516001836020036101000a031916815260200191505b5092505050600060405180830381600087803b1580156200094057600080fd5b505af115801562000955573d6000803e3d6000fd5b5050835160408051918252516001600160a01b03808b1694508516925087917ffeb2000dca3e617cd6f3a8bbb63014bb54a124aac6ccbf73ee7229b4cd01f120919081900360200190a48160800151620009e5576040516001600160a01b0382169060009067016345785d8a00009082818181858883f19350505050158015620009e3573d6000803e3d6000fd5b505b5050620005a8565b5050505b50565b67016345785d8a0000341462000a47576040805162461bcd60e51b8152602060048201526013602482015272125b9d985b1a5908109bdb9908185b5bdd5b9d606a1b604482015290519081900360640190fd5b60008062000a5462001af7565b6001600160a01b031663b02c43d0866040518263ffffffff1660e01b815260040180828152602001915050604080518083038186803b15801562000a9757600080fd5b505afa15801562000aac573d6000803e3d6000fd5b505050506040513d604081101562000ac357600080fd5b5080516020918201516040805133606090811b8287015289901b6001600160601b031916603482015260488082018990528251808303909101815260689091019091528051930192909220909350909150821462000b5c576040805162461bcd60e51b815260206004820152601160248201527015539055551213d49256915117d1561255607a1b604482015290519081900360640190fd5b6000607f62000b6b8362001b6f565b6002546040805163313ca16d60e11b81526001600160a01b038a8116600483015291519390941b9450600185901b93600093919092169163627942da916024808301926020929190829003018186803b15801562000bc857600080fd5b505afa15801562000bdd573d6000803e3d6000fd5b505050506040513d602081101562000bf457600080fd5b5051905062000c093388886000808762001b8d565b62000c18828433848b62001e96565b5050505050505050565b60085481565b600254604080516337b1d58560e01b815233600482015290516000926001600160a01b0316916337b1d585916024808301926020929190829003018186803b15801562000c7457600080fd5b505afa15801562000c89573d6000803e3d6000fd5b505050506040513d602081101562000ca057600080fd5b5051600381111562000cae57fe5b141562000cfd576040805162461bcd60e51b8152602060048201526018602482015277141491511250d0551157d393d517d055551213d49256915160421b604482015290519081900360640190fd5b600084815260046020526040902060028101546001600160a01b031662000d5d576040805162461bcd60e51b815260206004820152600f60248201526e1253959053125117d156125517d251608a1b604482015290519081900360640190fd5b62000d6c858585338662001e96565b5050505050565b600460208190526000918252604090912080546001820154600283015460038401549390940154919390926001600160a01b039182169282821692600160a01b90920460ff16911686565b62000dc862000e87565b62000dd257600080fd5b6001600160a01b03811662000de657600080fd5b600780546001600160a01b0319166001600160a01b0392909216919091179055565b60056020526000908152604090205481565b62000e2462000e87565b62000e2e57600080fd5b600080546040516001600160a01b03909116907f8be0079c531659141344cd1fd0a4f28419497f9722a3daafe3b4186f6b6457e0908390a3600080546001600160a01b0319169055565b6000546001600160a01b031690565b6000546001600160a01b0316331490565b6002546001600160a01b0316331462000ef8576040805162461bcd60e51b815260206004820152601a60248201527f554e415554484f52495a45445f52454749535452595f4f4e4c59000000000000604482015290519081900360640190fd5b60405162000f069062002ecb565b604051809103906000f08015801562000f23573d6000803e3d6000fd5b506001600160a01b03918216600090815260066020526040902080546001600160a01b03191691909216179055565b60008581526004602090815260408083208784526005810190925290912060028201546001600160a01b03161580159062000f96575080546001600160a01b031615155b62000fe8576040805162461bcd60e51b815260206004820152601860248201527f496e76616c69642065786974206f7220696e7075742069640000000000000000604482015290519081900360640190fd5b6000600254604080516337b1d58560e01b81526001600160a01b038781166004830152915191909216916337b1d585916024808301926020929190829003018186803b1580156200103857600080fd5b505afa1580156200104d573d6000803e3d6000fd5b505050506040513d60208110156200106457600080fd5b505160038111156200107257fe5b1415620010ba576040805162461bcd60e51b8152602060048201526011602482015270494e56414c49445f50524544494341544560781b604482015290519081900360640190fd5b826001600160a01b031663ec58410c620010d48462001f55565b620010e0898562002044565b88886040518563ffffffff1660e01b815260040180806020018060200180602001848103845288818151815260200191508051906020019080838360005b83811015620011385781810151838201526020016200111e565b50505050905090810190601f168015620011665780820380516001836020036101000a031916815260200191505b50848103835287518152875160209182019189019080838360005b838110156200119b57818101518382015260200162001181565b50505050905090810190601f168015620011c95780820380516001836020036101000a031916815260200191505b508481038252858152602001868680828437600081840152601f19601f820116905080830192505050975050505050505050602060405180830381600087803b1580156200121657600080fd5b505af11580156200122b573d6000803e3d6000fd5b505050506040513d60208110156200124257600080fd5b505162001289576040805162461bcd60e51b815260206004820152601060248201526f10da185b1b195b99d94819985a5b195960821b604482015290519081900360640190fd5b60075460408051630852cd8d60e31b8152600481018a905290516001600160a01b03909216916342966c689160248082019260009290919082900301818387803b158015620012d757600080fd5b505af1158015620012ec573d6000803e3d6000fd5b50506040513392506000915067016345785d8a00009082818181858883f1935050505015801562001321573d6000803e3d6000fd5b5060405187907f93a8052a01c184f88312af177ab8fae2e56a9973b6aa4bdc62dfcf744e09d04190600090a250505050505050565b60006060620013a56200139f87878080601f0160208091040260200160405190810160405280939291908181526020018383808284376000920191909152506200211e92505050565b62002145565b90506000620013cb828660ff1681518110620013bd57fe5b602002602001015162002226565b90506060620013f4838760080160ff1681518110620013e657fe5b60200260200101516200228b565b90506200144662001411848860060160ff1681518110620013e657fe5b8262001429868a60070160ff1681518110620013e657fe5b62001440878b60050160ff1681518110620013bd57fe5b62002301565b62001498576040805162461bcd60e51b815260206004820152601c60248201527f494e56414c49445f524543454950545f4d45524b4c455f50524f4f4600000000604482015290519081900360640190fd5b84156200153b57620014e9620014ba8488600a0160ff1681518110620013e657fe5b82620014d2868a600b0160ff1681518110620013e657fe5b62001440878b60040160ff1681518110620013bd57fe5b6200153b576040805162461bcd60e51b815260206004820152601760248201527f494e56414c49445f54585f4d45524b4c455f50524f4f46000000000000000000604482015290519081900360640190fd5b600062001554848860020160ff1681518110620013bd57fe5b90506000620015c68262001574878b60030160ff1681518110620013bd57fe5b6200158b888c60040160ff1681518110620013bd57fe5b60001b620015a5898d60050160ff1681518110620013bd57fe5b60001b88620015c08b8f60010160ff1681518110620013e657fe5b62002559565b9050620015dd620015d7846200211e565b62002226565b602083901b607f620015ef8462001b6f565b901b1717955050505050505b949350505050565b6006602052600090815260409020546001600160a01b031681565b600254604080516337b1d58560e01b8152336004820152905187926000926001600160a01b03909116916337b1d58591602480820192602092909190829003018186803b1580156200166f57600080fd5b505afa15801562001684573d6000803e3d6000fd5b505050506040513d60208110156200169b57600080fd5b505160025460408051633a9831f160e21b81526001600160a01b0386811660048301529151939450600093919092169163ea60c7c4916024808301926020929190829003018186803b158015620016f157600080fd5b505afa15801562001706573d6000803e3d6000fd5b505050506040513d60208110156200171d57600080fd5b50516001600160a01b031614156200177c576040805162461bcd60e51b815260206004820152601760248201527f726f6f74546f6b656e206e6f7420737570706f72746564000000000000000000604482015290519081900360640190fd5b60018160038111156200178b57fe5b14156200185257600254604080516336a8279560e21b81526001600160a01b0385811660048301529151919092169163daa09e54916024808301926020929190829003018186803b158015620017e057600080fd5b505afa158015620017f5573d6000803e3d6000fd5b505050506040513d60208110156200180c57600080fd5b5051156200184c5760405162461bcd60e51b8152600401808060200182810382526024815260200180620037956024913960400191505060405180910390fd5b6200198a565b60028160038111156200186157fe5b14156200192657600254604080516336a8279560e21b81526001600160a01b0385811660048301529151919092169163daa09e54916024808301926020929190829003018186803b158015620018b657600080fd5b505afa158015620018cb573d6000803e3d6000fd5b505050506040513d6020811015620018e257600080fd5b505115156001146200184c5760405162461bcd60e51b8152600401808060200182810382526025815260200180620037436025913960400191505060405180910390fd5b60038160038111156200193557fe5b141562001942576200198a565b6040805162461bcd60e51b8152602060048201526018602482015277141491511250d0551157d393d517d055551213d49256915160421b604482015290519081900360640190fd5b60025460408051633a9831f160e21b81526001600160a01b038a811660048301529151828c16939092169163ea60c7c491602480820192602092909190829003018186803b158015620019dc57600080fd5b505afa158015620019f1573d6000803e3d6000fd5b505050506040513d602081101562001a0857600080fd5b50516001600160a01b03161462001a515760405162461bcd60e51b8152600401808060200182810382526023815260200180620037b96023913960400191505060405180910390fd5b62001a6189888888888862001b8d565b505050505050505050565b6007546001600160a01b031681565b62001a8562000e87565b62001a8f57600080fd5b620009f181620027a0565b60008181526004602090815260409182902060038101546002820154915484519384018690526001600160a01b0391821684860152911660608301526080808301919091528251808303909101815260a09091019091525b919050565b6002546040805162c9effd60e41b815290516000926001600160a01b031691630c9effd0916004808301926020929190829003018186803b15801562001b3c57600080fd5b505afa15801562001b51573d6000803e3d6000fd5b505050506040513d602081101562001b6857600080fd5b5051905090565b600062001b876212750083014262093a80016200280f565b92915050565b6000818152600460205260409020600301546001600160a01b03161562001bf1576040805162461bcd60e51b8152602060048201526013602482015272455849545f414c52454144595f45584953545360681b604482015290519081900360640190fd5b6040805160c08101825285815260208082018681526001600160a01b03808b168486019081528a821660608601908152881515608087019081523360a0880190815260008a815260049788905298892097518089559551600189015592516002880180549186166001600160a01b03199283161790819055925160038901805493511515600160a01b0260ff60a01b199288169484169490941791909116929092179182905592519587018054968516969093169590951790915593949362001cc0938216929116906200282a565b90508362001d3c576000818152600560205260409020541562001d2a576040805162461bcd60e51b815260206004820152601860248201527f455849545f414c52454144595f494e5f50524f47524553530000000000000000604482015290519081900360640190fd5b60008181526005602052604090208390555b60038201546001600160a01b03908116600090815260066020526040808220548151631d834a1b60e01b8152608088901c60048201526fffffffffffffffffffffffffffffffff8816602482015291519316928392631d834a1b926044808201939182900301818387803b15801562001db457600080fd5b505af115801562001dc9573d6000803e3d6000fd5b50506007546002860154604080516340c10f1960e01b81526001600160a01b039283166004820152602481018a905290519190921693506340c10f199250604480830192600092919082900301818387803b15801562001e2857600080fd5b505af115801562001e3d573d6000803e3d6000fd5b5050604080518a8152881515602082015281516001600160a01b03808e1695508994508e16927faa5303fdad123ab5ecaefaf69137bf8632257839546d43a3b3dd148cc2879d6f928290030190a4505050505050505050565b604080516060810182526001600160a01b03808616808352858216602080850191825286841685870190815260008c8152600483528781208c82526005018352879020955186549086166001600160a01b03199182161787559251600187018054918716918516919091179055516002909501805495909416949091169390931790915582519081529151869288927f87d2daa6e85f166015ebbcf09f5ee4bc50f93677579339fe128e3561a6807cb692918290030190a35050505050565b6002808201549054600383015460408051633a9831f160e21b81526001600160a01b03928316600482015290516060948316939092169163ea60c7c491602480820192602092909190829003018186803b15801562001fb357600080fd5b505afa15801562001fc8573d6000803e3d6000fd5b505050506040513d602081101562001fdf57600080fd5b5051835460018501546003860154604080516001600160a01b03968716602082015295909416858501526060850192909252608084015260ff600160a01b90910416151560a0808401919091528151808403909101815260c090920190529050919050565b80546001820154600280549084015460408051633a9831f160e21b81526001600160a01b039283166004820152905160609588959084169490841693169163ea60c7c4916024808301926020929190829003018186803b158015620020a857600080fd5b505afa158015620020bd573d6000803e3d6000fd5b505050506040513d6020811015620020d457600080fd5b50516040805160208101959095526001600160a01b03938416858201529183166060850152919091166080808401919091528151808403909101815260a090920190529392505050565b6200212862002ed9565b506040805180820190915281518152602082810190820152919050565b6060620021528262002998565b6200215c57600080fd5b60006200216983620029d6565b9050606081604051908082528060200260200182016040528015620021ab57816020015b6200219762002ed9565b8152602001906001900390816200218d5790505b5090506000620021bf856020015162002a3a565b60208601510190506000805b848110156200221b57620021df8362002aa6565b91506040518060400160405280838152602001848152508482815181106200220357fe5b602090810291909101015291810191600101620021cb565b509195945050505050565b8051600090158015906200223c57508151602110155b6200224657600080fd5b600062002257836020015162002a3a565b835160208086015183018051939450918490039291908310156200228257826020036101000a820491505b50949350505050565b80516060906200229a57600080fd5b6000620022ab836020015162002a3a565b83516040805191839003808352601f19601f8201168301602001909152919250606090828015620022e3576020820181803883390190505b50905060008160200190506200228284876020015101828562002b47565b60006200230d62002ed9565b62002318846200211e565b90506060620023278262002145565b9050606080856000826200233b8b62002b96565b905080516000141562002359576000975050505050505050620015fb565b60005b8651811015620025495781518311156200238257600098505050505050505050620015fb565b620023a18782815181106200239357fe5b602002602001015162002cde565b955085805190602001208414620023c457600098505050505050505050620015fb565b620023e3878281518110620023d557fe5b602002602001015162002145565b9450845160111415620024ae57815183141562002446578c805190602001206200241486601081518110620013e657fe5b8051906020012014156200243457600198505050505050505050620015fb565b600098505050505050505050620015fb565b60008284815181106200245557fe5b016020015160f81c905060108111156200247c5760009950505050505050505050620015fb565b6200249e868260ff16815181106200249057fe5b602002602001015162002d44565b9450506001929092019162002540565b8451600214156200243457620024d7620024cf86600081518110620013e657fe5b838562002d62565b8251930192831415620024fe578c805190602001206200241486600181518110620013e657fe5b62002514620024cf86600081518110620013e657fe5b6200252b57600098505050505050505050620015fb565b6200253d856001815181106200249057fe5b93505b6001016200235c565b5050505050505050949350505050565b600354604080516320a9cea560e11b81526004810185905290516000928392839283926001600160a01b0316916341539d4a9160248083019260a0929190829003018186803b158015620025ac57600080fd5b505afa158015620025c1573d6000803e3d6000fd5b505050506040513d60a0811015620025d857600080fd5b810190808051906020019092919080519060200190929190805190602001909291908051906020019092919080519060200190929190505050509350509250925089898989604051602001808581526020018481526020018381526020018281526020019450505050506040516020818303038152906040528051906020012073__Merkle________________________________636c8f455c9091848d0386896040518563ffffffff1660e01b81526004018085815260200184815260200183815260200180602001828103825283818151815260200191508051906020019080838360005b83811015620026d9578181015183820152602001620026bf565b50505050905090810190601f168015620027075780820380516001836020036101000a031916815260200191505b509550505050505060206040518083038186803b1580156200272857600080fd5b505af41580156200273d573d6000803e3d6000fd5b505050506040513d60208110156200275457600080fd5b5051620027935760405162461bcd60e51b815260040180806020018281038252602d81526020018062003768602d913960400191505060405180910390fd5b9998505050505050505050565b6001600160a01b038116620027b457600080fd5b600080546040516001600160a01b03808516939216917f8be0079c531659141344cd1fd0a4f28419497f9722a3daafe3b4186f6b6457e091a3600080546001600160a01b0319166001600160a01b0392909216919091179055565b60008183101562002821578162002823565b825b9392505050565b600254604080516336a8279560e21b81526001600160a01b0386811660048301529151600093929092169163daa09e5491602480820192602092909190829003018186803b1580156200287c57600080fd5b505afa15801562002891573d6000803e3d6000fd5b505050506040513d6020811015620028a857600080fd5b505115620028fe575060408051606085811b6001600160601b03199081166020808501919091529186901b1660348301526048808301859052835180840390910181526068909201909252805191012062002823565b6000821162002954576040805162461bcd60e51b815260206004820152601860248201527f43414e4e4f545f455849545f5a45524f5f414d4f554e54530000000000000000604482015290519081900360640190fd5b5050604080516001600160601b0319606094851b81166020808401919091529390941b90931660348401528051602881850301815260489093019052815191012090565b8051600090620029ab5750600062001af2565b6020820151805160001a9060c0821015620029cc5760009250505062001af2565b5060019392505050565b8051600090620029e95750600062001af2565b60008090506000620029ff846020015162002a3a565b602085015185519181019250015b8082101562002a315762002a218262002aa6565b6001909301929091019062002a0d565b50909392505050565b8051600090811a608081101562002a5657600091505062001af2565b60b881108062002a73575060c0811080159062002a73575060f881105b1562002a8457600191505062001af2565b60c081101562002a9a5760b51901905062001af2565b60f51901905062001af2565b80516000908190811a608081101562002ac3576001915062002b40565b60b881101562002ada57607e198101915062002b40565b60c081101562002b095760b78103600185019450806020036101000a8551046001820181019350505062002b40565b60f881101562002b205760be198101915062002b40565b60f78103600185019450806020036101000a855104600182018101935050505b5092915050565b8062002b535762002b91565b5b6020811062002b75578251825260209283019290910190601f190162002b54565b8251825160208390036101000a60001901801990921691161782525b505050565b60608060008351111562001b875760008062002bb460008662002e33565b60f81c9050600181148062002bcc57508060ff166003145b1562002c4a5760018551600202036040519080825280601f01601f19166020018201604052801562002c05576020820181803883390190505b509250600062002c1760018762002e33565b9050808460008151811062002c2857fe5b60200101906001600160f81b031916908160001a905350600192505062002c85565b60028551600202036040519080825280601f01601f19166020018201604052801562002c7d576020820181803883390190505b509250600091505b60ff82165b835181101562002cd55762002ca88360ff1682036002018762002e33565b84828151811062002cb557fe5b60200101906001600160f81b031916908160001a90535060010162002c8a565b50505092915050565b60608082600001516040519080825280601f01601f19166020018201604052801562002d11576020820181803883390190505b50905080516000141562002d2757905062001af2565b600081602001905062002b40846020015182866000015162002b47565b805160009060211462002d5657600080fd5b50602001516001015190565b600080606062002d728662002b96565b9050606081516040519080825280601f01601f19166020018201604052801562002da3576020820181803883390190505b509050845b8251860181101562002e0157600087828151811062002dc357fe5b602001015160f81c60f81b905080838884038151811062002de057fe5b60200101906001600160f81b031916908160001a9053505060010162002da8565b5080805190602001208280519060200120141562002e23578151925062002e28565b600092505b509095945050505050565b6000600283061562002e6857601082600285048151811062002e5157fe5b016020015160f81c8162002e6157fe5b0662002e8c565b601082600285048151811062002e7a57fe5b016020015160f81c8162002e8a57fe5b045b60f81b9392505050565b6040805160c081018252600080825260208201819052918101829052606081018290526080810182905260a081019190915290565b61084f8062002ef483390190565b60405180604001604052806000815260200160008152509056fe608060405234801561001057600080fd5b50600080546001600160a01b03191633178082556040516001600160a01b039190911691907f8be0079c531659141344cd1fd0a4f28419497f9722a3daafe3b4186f6b6457e0908290a3604080516020810190915260008152610076906001908161007c565b506100e9565b8280548282559060005260206000209081019282156100bc579160200282015b828111156100bc578251829060ff1690559160200191906001019061009c565b506100c89291506100cc565b5090565b6100e691905b808211156100c857600081556001016100d2565b90565b610757806100f86000396000f3fe608060405234801561001057600080fd5b50600436106100885760003560e01c8063b07576ac1161005b578063b07576ac146100fa578063bda1504b1461011b578063d6362e9714610135578063f2fde38b1461013d57610088565b80631d834a1b1461008d578063715018a6146100b25780638da5cb5b146100ba5780638f32d59b146100de575b600080fd5b6100b0600480360360408110156100a357600080fd5b5080359060200135610163565b005b6100b06101d8565b6100c2610233565b604080516001600160a01b039092168252519081900360200190f35b6100e6610243565b604080519115158252519081900360200190f35b610102610254565b6040805192835260208301919091528051918290030190f35b610123610325565b60408051918252519081900360200190f35b61010261032b565b6100b06004803603602081101561015357600080fd5b50356001600160a01b0316610356565b61016b610243565b61017457600080fd5b6001805480820182556000829052608084901b83177fb10e2d527612073b26eecdfd717e6a320cf44b4afac2b0732d9fcbe2b7fa0cf690910181905560025490916101c5919063ffffffff61037316565b60028190556101d39061038e565b505050565b6101e0610243565b6101e957600080fd5b600080546040516001600160a01b03909116907f8be0079c531659141344cd1fd0a4f28419497f9722a3daafe3b4186f6b6457e0908390a3600080546001600160a01b0319169055565b6000546001600160a01b03165b90565b6000546001600160a01b0316331490565b60008061025f610243565b61026857600080fd5b60006001808154811061027757fe5b9060005260206000200154905060016002548154811061029357fe5b9060005260206000200154600180815481106102ab57fe5b90600052602060002001819055506001600254815481106102c857fe5b60009182526020822001556002546102e790600163ffffffff61046216565b6002556102f46001610477565b600180546103079163ffffffff61046216565b6103126001826106e5565b5061031c81610542565b92509250509091565b60025481565b60008061034e6001808154811061033e57fe5b9060005260206000200154610542565b915091509091565b61035e610243565b61036757600080fd5b6103708161055f565b50565b60008282018381101561038557600080fd5b90505b92915050565b600180548291829160009190839081106103a457fe5b906000526020600020015490505b60016103c584600263ffffffff6105cd16565b815481106103cf57fe5b906000526020600020015481101561043a5760016103f484600263ffffffff6105cd16565b815481106103fe57fe5b90600052602060002001546001848154811061041657fe5b60009182526020909120015561043383600263ffffffff6105cd16565b92506103b2565b81831461045c57806001848154811061044f57fe5b6000918252602090912001555b50505050565b60008282111561047157600080fd5b50900390565b6001805482918291600091908390811061048d57fe5b9060005260206000200154905060006104a5846105ef565b90505b60025481111580156104d05750600181815481106104c257fe5b906000526020600020015482115b1561051957600181815481106104e257fe5b9060005260206000200154600185815481106104fa57fe5b600091825260209091200155925082610512816105ef565b90506104a8565b82841461053b57816001858154811061052e57fe5b6000918252602090912001555b5050505050565b608081901c6fffffffffffffffffffffffffffffffff8216915091565b6001600160a01b03811661057257600080fd5b600080546040516001600160a01b03808516939216917f8be0079c531659141344cd1fd0a4f28419497f9722a3daafe3b4186f6b6457e091a3600080546001600160a01b0319166001600160a01b0392909216919091179055565b60008082116105db57600080fd5b60008284816105e657fe5b04949350505050565b6000600254610619600161060d6002866106be90919063ffffffff16565b9063ffffffff61037316565b11156106375761063082600263ffffffff6106be16565b90506106b9565b600161064e8161060d85600263ffffffff6106be16565b8154811061065857fe5b600091825260209091200154600161067784600263ffffffff6106be16565b8154811061068157fe5b906000526020600020015410156106a35761063082600263ffffffff6106be16565b610630600161060d84600263ffffffff6106be16565b919050565b6000826106cd57506000610388565b828202828482816106da57fe5b041461038557600080fd5b8154818355818111156101d3576000838152602090206101d391810190830161024091905b8082111561071e576000815560010161070a565b509056fea265627a7a72315820f33810d665386a85357e7ee879fa4889bb4533be5f638f2ad5210ccabee1a51e64736f6c634300050b003250726564696361746520737570706f727473206f6e6c792045524337323120746f6b656e7357495448445241575f424c4f434b5f4e4f545f415f504152545f4f465f5355424d49545445445f48454144455250726564696361746520737570706f727473206f6e6c7920455243323020746f6b656e73494e56414c49445f524f4f545f544f5f4348494c445f544f4b454e5f4d415050494e47a265627a7a72315820e8504758ef623a2869865ddc3e6641913a35fea11e6d43b0d705594f7777348464736f6c634300050b0032",
  "source": "pragma solidity ^0.5.2;\n\nimport { ERC20 } from \"openzeppelin-solidity/contracts/token/ERC20/ERC20.sol\";\nimport { ERC721 } from \"openzeppelin-solidity/contracts/token/ERC721/ERC721.sol\";\nimport { Math } from \"openzeppelin-solidity/contracts/math/Math.sol\";\nimport { RLPReader } from \"solidity-rlp/contracts/RLPReader.sol\";\n\nimport { Merkle } from \"../../common/lib/Merkle.sol\";\nimport { MerklePatriciaProof } from \"../../common/lib/MerklePatriciaProof.sol\";\nimport { PriorityQueue } from \"../../common/lib/PriorityQueue.sol\";\n\nimport { ExitNFT } from \"./ExitNFT.sol\";\nimport { DepositManager } from \"../depositManager/DepositManager.sol\";\nimport { IPredicate } from \"../predicates/IPredicate.sol\";\nimport { IWithdrawManager } from \"./IWithdrawManager.sol\";\nimport { RootChainHeader } from \"../RootChainStorage.sol\";\nimport { Registry } from \"../../common/Registry.sol\";\nimport { WithdrawManagerStorage } from \"./WithdrawManagerStorage.sol\";\n\ncontract WithdrawManager is WithdrawManagerStorage, IWithdrawManager {\n  using RLPReader for bytes;\n  using RLPReader for RLPReader.RLPItem;\n  using Merkle for bytes32;\n\n  modifier isBondProvided() {\n    require(msg.value == BOND_AMOUNT, \"Invalid Bond amount\");\n    _;\n  }\n\n  function createExitQueue(address token)\n    external\n  {\n    require(msg.sender == address(registry), \"UNAUTHORIZED_REGISTRY_ONLY\");\n    exitsQueues[token] = address(new PriorityQueue());\n  }\n\n  /**\n   * @dev Verify the inclusion of the receipt in the checkpoint\n   * @param data RLP encoded data of the reference tx(s) that encodes the following fields for each tx\n   * headerNumber Header block number of which the reference tx was a part of\n   * blockProof Proof that the block header (in the child chain) is a leaf in the submitted merkle root\n   * blockNumber Block number of which the reference tx is a part of\n   * blockTime Reference tx block time\n   * blocktxRoot Transactions root of block\n   * blockReceiptsRoot Receipts root of block\n   * receipt Receipt of the reference transaction\n   * receiptProof Merkle proof of the reference receipt\n   * branchMask Merkle proof branchMask for the receipt\n   * logIndex Log Index to read from the receipt\n   * @param offset offset in the data array\n   * @param verifyTxInclusion Whether to also verify the inclusion of the raw tx in the txRoot\n   * @return ageOfInput Measure of the position of the receipt and the log in the child chain\n   */\n  function verifyInclusion(bytes calldata data, uint8 offset, bool verifyTxInclusion)\n    external\n    view\n    returns (uint256 /* ageOfInput */)\n  {\n    RLPReader.RLPItem[] memory referenceTxData = data.toRlpItem().toList();\n    uint256 headerNumber = referenceTxData[offset].toUint();\n    bytes memory branchMask = referenceTxData[offset + 8].toBytes();\n    require(\n      MerklePatriciaProof.verify(\n        referenceTxData[offset + 6].toBytes(), // receipt\n        branchMask,\n        referenceTxData[offset + 7].toBytes(), // receiptProof\n        bytes32(referenceTxData[offset + 5].toUint()) // receiptsRoot\n      ),\n      \"INVALID_RECEIPT_MERKLE_PROOF\"\n    );\n\n    if(verifyTxInclusion) {\n      require(\n        MerklePatriciaProof.verify(\n          referenceTxData[offset + 10].toBytes(), // tx\n          branchMask,\n          referenceTxData[offset + 11].toBytes(), // txProof\n          bytes32(referenceTxData[offset + 4].toUint()) // txRoot\n        ),\n        \"INVALID_TX_MERKLE_PROOF\"\n      );\n    }\n\n    uint256 blockNumber = referenceTxData[offset + 2].toUint();\n    uint256 createdAt = checkBlockMembershipInCheckpoint(\n      blockNumber,\n      referenceTxData[offset + 3].toUint(), // blockTime\n      bytes32(referenceTxData[offset + 4].toUint()), // txRoot\n      bytes32(referenceTxData[offset + 5].toUint()), // receiptRoot\n      headerNumber,\n      referenceTxData[offset + 1].toBytes() // blockProof\n    );\n\n    // ageOfInput is denoted as\n    // 1 reserve bit (see last 2 lines in comment)\n    // 128 bits for exitableAt timestamp\n    // 95 bits for child block number\n    // 32 bits for receiptPos + logIndex * MAX_LOGS + oIndex\n    // In predicates, the exitId will be evaluated by shifting the ageOfInput left by 1 bit\n    // (Only in erc20Predicate) Last bit is to differentiate whether the sender or receiver of the in-flight tx is starting an exit\n    return (getExitableAt(createdAt) << 127) | (blockNumber << 32) | branchMask.toRlpItem().toUint();\n  }\n\n  modifier isPredicateAuthorized() {\n    require(\n      registry.predicates(msg.sender) != Registry.Type.Invalid,\n      \"PREDICATE_NOT_AUTHORIZED\"\n    );\n    _;\n  }\n\n  modifier checkPredicateAndTokenMapping(address rootToken) {\n    (Registry.Type _type) = registry.predicates(msg.sender);\n    require(\n      registry.rootToChildToken(rootToken) != address(0x0),\n      \"rootToken not supported\"\n    );\n    if (_type == Registry.Type.ERC20) {\n      require(\n        registry.isERC721(rootToken) == false,\n        \"Predicate supports only ERC20 tokens\"\n      );\n    } else if (_type == Registry.Type.ERC721) {\n      require(\n        registry.isERC721(rootToken) == true,\n        \"Predicate supports only ERC721 tokens\"\n      );\n    } else if (_type == Registry.Type.Custom) {\n    } else {\n      revert(\"PREDICATE_NOT_AUTHORIZED\");\n    }\n    _;\n  }\n\n  function startExitWithDepositedTokens(uint256 depositId, address token, uint256 amountOrToken)\n    external\n    payable\n    isBondProvided\n  {\n    (bytes32 depositHash, uint256 createdAt) = getDepositManager().deposits(depositId);\n    require(\n      keccak256(abi.encodePacked(msg.sender, token, amountOrToken)) == depositHash,\n      \"UNAUTHORIZED_EXIT\"\n    );\n    uint256 ageOfInput = getExitableAt(createdAt) << 127;\n    uint256 exitId = ageOfInput << 1;\n    address predicate = registry.isTokenMappedAndGetPredicate(token);\n    _addExitToQueue(msg.sender, token, amountOrToken, bytes32(0) /* txHash */, false /* isRegularExit */, exitId);\n    _addInput(exitId, ageOfInput, msg.sender /* utxoOwner */, predicate, token);\n  }\n\n  function getDepositManager() internal view returns (DepositManager) {\n    return DepositManager(address(uint160(registry.getDepositManagerAddress())));\n  }\n\n  function addExitToQueue(\n    address exitor,\n    address childToken,\n    address rootToken,\n    uint256 exitAmountOrTokenId,\n    bytes32 txHash,\n    bool isRegularExit,\n    uint256 priority)\n    external\n    checkPredicateAndTokenMapping(rootToken)\n  {\n    require(\n      registry.rootToChildToken(rootToken) == childToken,\n      \"INVALID_ROOT_TO_CHILD_TOKEN_MAPPING\"\n    );\n    _addExitToQueue(exitor, rootToken, exitAmountOrTokenId, txHash, isRegularExit, priority);\n  }\n\n  function _addExitToQueue(\n    address exitor,\n    address rootToken,\n    uint256 exitAmountOrTokenId,\n    bytes32 txHash,\n    bool isRegularExit,\n    uint256 exitId)\n    internal\n  {\n    require(\n      exits[exitId].token == address(0x0),\n      \"EXIT_ALREADY_EXISTS\"\n    );\n    exits[exitId] = PlasmaExit(exitAmountOrTokenId, txHash, exitor, rootToken, isRegularExit, msg.sender /* predicate */);\n    PlasmaExit storage _exitObject = exits[exitId];\n\n    bytes32 key = getKey(_exitObject.token, _exitObject.owner, _exitObject.receiptAmountOrNFTId);\n\n    if (!isRegularExit) {\n      // a user cannot start 2 MoreVP exits for the same erc20 token or nft\n      require(ownerExits[key] == 0, \"EXIT_ALREADY_IN_PROGRESS\");\n      ownerExits[key] = exitId;\n    }\n\n    PriorityQueue queue = PriorityQueue(exitsQueues[_exitObject.token]);\n\n    // Way priority queue is implemented is such that it expects 2 uint256 params with most significant 128 bits masked out\n    // This is a workaround to split exitId, which otherwise is conclusive in itself\n    // exitId >> 128 gives 128 most significant bits\n    // uint256(uint128(exitId)) gives 128 least significant bits\n    // @todo Fix this mess\n    queue.insert(exitId >> 128, uint256(uint128(exitId)));\n\n    // create exit nft\n    exitNft.mint(_exitObject.owner, exitId);\n    emit ExitStarted(exitor, exitId, rootToken, exitAmountOrTokenId, isRegularExit);\n  }\n\n  /**\n   * @dev Add a state update (UTXO style input) to an exit\n   * @param exitId Exit ID\n   * @param age age of the UTXO style input\n   * @param utxoOwner User for whom the input acts as a proof-of-funds\n      * (alternate expression) User who could have potentially spent this UTXO\n   * @param token Token (Think of it like Utxo color)\n   */\n  function addInput(uint256 exitId, uint256 age, address utxoOwner, address token)\n    external\n    isPredicateAuthorized\n  {\n    PlasmaExit storage exitObject = exits[exitId];\n    require(\n      exitObject.owner != address(0x0),\n      \"INVALID_EXIT_ID\"\n    );\n    _addInput(exitId, age, utxoOwner, msg.sender /* predicate */, token);\n  }\n\n  function _addInput(uint256 exitId, uint256 age, address utxoOwner, address predicate, address token)\n    internal\n  {\n    exits[exitId].inputs[age] = Input(utxoOwner, predicate, token);\n    emit ExitUpdated(exitId, age, utxoOwner);\n  }\n\n  function challengeExit(\n    uint256 exitId,\n    uint256 inputId,\n    bytes calldata challengeData,\n    address adjudicatorPredicate)\n    external\n  {\n    PlasmaExit storage exit = exits[exitId];\n    Input storage input = exit.inputs[inputId];\n    require(\n      exit.owner != address(0x0) && input.utxoOwner != address(0x0),\n      \"Invalid exit or input id\"\n    );\n    require(\n      registry.predicates(adjudicatorPredicate) != Registry.Type.Invalid,\n      \"INVALID_PREDICATE\"\n    );\n    require(\n      IPredicate(adjudicatorPredicate).verifyDeprecation(\n        encodeExit(exit),\n        encodeInputUtxo(inputId, input),\n        challengeData\n      ),\n      \"Challenge failed\"\n    );\n    // In the call to burn(exitId), there is an implicit check that prevents challenging the same exit twice\n    ExitNFT(exitNft).burn(exitId);\n\n    // Send bond amount to challenger\n    msg.sender.transfer(BOND_AMOUNT);\n\n    // delete exits[exitId];\n    emit ExitCancelled(exitId);\n  }\n\n  function encodeExit(PlasmaExit storage exit)\n    internal\n    view\n    returns (bytes memory)\n  {\n    return abi.encode(exit.owner, registry.rootToChildToken(exit.token), exit.receiptAmountOrNFTId, exit.txHash, exit.isRegularExit);\n  }\n\n  function encodeExitForProcessExit(uint256 exitId)\n    internal\n    view\n    returns (bytes memory)\n  {\n    PlasmaExit storage exit = exits[exitId];\n    return abi.encode(exitId, exit.token, exit.owner, exit.receiptAmountOrNFTId);\n  }\n\n  function encodeInputUtxo(uint256 age, Input storage input)\n    internal\n    view\n    returns (bytes memory)\n  {\n    return abi.encode(age, input.utxoOwner, input.predicate, registry.rootToChildToken(input.token));\n  }\n\n  function processExits(address _token)\n    external\n  {\n    uint256 exitableAt;\n    uint256 exitId;\n\n    PriorityQueue exitQueue = PriorityQueue(exitsQueues[_token]);\n\n    while(exitQueue.currentSize() > 0 && gasleft() > ON_FINALIZE_GAS_LIMIT) {\n      (exitableAt, exitId) = exitQueue.getMin();\n      exitId = exitableAt << 128 | exitId;\n      PlasmaExit memory currentExit = exits[exitId];\n\n      // Stop processing exits if the exit that is next is queue is still in its challenge period\n      if (exitableAt > block.timestamp) return;\n\n      exitQueue.delMin();\n      // If the exitNft was deleted as a result of a challenge, skip processing this exit\n      if (!exitNft.exists(exitId)) continue;\n\n      exitNft.burn(exitId);\n\n      // limit the gas amount that predicate.onFinalizeExit() can use, to be able to make gas estimations for bulk process exits\n      address exitor = currentExit.owner;\n      IPredicate(currentExit.predicate).onFinalizeExit(encodeExitForProcessExit(exitId));\n      emit Withdraw(exitId, exitor, _token, currentExit.receiptAmountOrNFTId);\n\n      if (!currentExit.isRegularExit) {\n        // return the bond amount if this was a MoreVp style exit\n        address(uint160(exitor)).transfer(BOND_AMOUNT);\n      }\n    }\n  }\n\n  function getKey(address token, address exitor, uint256 amountOrToken)\n    internal\n    view\n    returns (bytes32 key)\n  {\n    if (registry.isERC721(token)) {\n      key = keccak256(abi.encodePacked(token, exitor, amountOrToken));\n    } else {\n      // validate amount\n      require(amountOrToken > 0, \"CANNOT_EXIT_ZERO_AMOUNTS\");\n      key = keccak256(abi.encodePacked(token, exitor));\n    }\n  }\n\n  /**\n   * @dev Receive bond for bonded exits\n   */\n  function () external payable {}\n\n  function setExitNFTContract(address _nftContract)\n    external\n    onlyOwner\n  {\n    require(_nftContract != address(0));\n    exitNft = ExitNFT(_nftContract);\n  }\n\n  function checkBlockMembershipInCheckpoint(\n    uint256 blockNumber,\n    uint256 blockTime,\n    bytes32 txRoot,\n    bytes32 receiptRoot,\n    uint256 headerNumber,\n    bytes memory blockProof)\n    internal view returns(uint256 /* createdAt */)\n  {\n    (bytes32 headerRoot, uint256 startBlock,,uint256 createdAt,) = rootChain.headerBlocks(headerNumber);\n    require(\n      keccak256(abi.encodePacked(blockNumber, blockTime, txRoot, receiptRoot))\n        .checkMembership(blockNumber - startBlock, headerRoot, blockProof),\n      \"WITHDRAW_BLOCK_NOT_A_PART_OF_SUBMITTED_HEADER\"\n    );\n    return createdAt;\n  }\n\n  function getExitableAt(uint256 createdAt) internal view returns (uint256) {\n    return Math.max(createdAt + 2 * HALF_EXIT_PERIOD, now + HALF_EXIT_PERIOD);\n  }\n}\n"
}