{
  "contractName": "DepositManagerProxy",
  "abi": [
    {
      "constant": false,
      "inputs": [
        {
          "internalType": "address",
          "name": "_newProxyTo",
          "type": "address"
        }
      ],
      "name": "updateImplementation",
      "outputs": [],
      "payable": false,
      "stateMutability": "nonpayable",
      "type": "function"
    },
    {
      "constant": true,
      "inputs": [],
      "name": "childChain",
      "outputs": [
        {
          "internalType": "address",
          "name": "",
          "type": "address"
        }
      ],
      "payable": false,
      "stateMutability": "view",
      "type": "function"
    },
    {
      "constant": true,
      "inputs": [],
      "name": "proxyType",
      "outputs": [
        {
          "internalType": "uint256",
          "name": "proxyTypeId",
          "type": "uint256"
        }
      ],
      "payable": false,
      "stateMutability": "pure",
      "type": "function"
    },
    {
      "constant": true,
      "inputs": [],
      "name": "governance",
      "outputs": [
        {
          "internalType": "contract IGovernance",
          "name": "",
          "type": "address"
        }
      ],
      "payable": false,
      "stateMutability": "view",
      "type": "function"
    },
    {
      "constant": true,
      "inputs": [],
      "name": "implementation",
      "outputs": [
        {
          "internalType": "address",
          "name": "",
          "type": "address"
        }
      ],
      "payable": false,
      "stateMutability": "view",
      "type": "function"
    },
    {
      "constant": false,
      "inputs": [],
      "name": "renounceOwnership",
      "outputs": [],
      "payable": false,
      "stateMutability": "nonpayable",
      "type": "function"
    },
    {
      "constant": true,
      "inputs": [],
      "name": "owner",
      "outputs": [
        {
          "internalType": "address",
          "name": "",
          "type": "address"
        }
      ],
      "payable": false,
      "stateMutability": "view",
      "type": "function"
    },
    {
      "constant": true,
      "inputs": [],
      "name": "isOwner",
      "outputs": [
        {
          "internalType": "bool",
          "name": "",
          "type": "bool"
        }
      ],
      "payable": false,
      "stateMutability": "view",
      "type": "function"
    },
    {
      "constant": false,
      "inputs": [],
      "name": "unlock",
      "outputs": [],
      "payable": false,
      "stateMutability": "nonpayable",
      "type": "function"
    },
    {
      "constant": true,
      "inputs": [
        {
          "internalType": "uint256",
          "name": "",
          "type": "uint256"
        }
      ],
      "name": "deposits",
      "outputs": [
        {
          "internalType": "bytes32",
          "name": "depositHash",
          "type": "bytes32"
        },
        {
          "internalType": "uint256",
          "name": "createdAt",
          "type": "uint256"
        }
      ],
      "payable": false,
      "stateMutability": "view",
      "type": "function"
    },
    {
      "constant": true,
      "inputs": [],
      "name": "stateSender",
      "outputs": [
        {
          "internalType": "contract StateSender",
          "name": "",
          "type": "address"
        }
      ],
      "payable": false,
      "stateMutability": "view",
      "type": "function"
    },
    {
      "constant": true,
      "inputs": [],
      "name": "locked",
      "outputs": [
        {
          "internalType": "bool",
          "name": "",
          "type": "bool"
        }
      ],
      "payable": false,
      "stateMutability": "view",
      "type": "function"
    },
    {
      "constant": false,
      "inputs": [
        {
          "internalType": "address",
          "name": "newOwner",
          "type": "address"
        }
      ],
      "name": "transferOwnership",
      "outputs": [],
      "payable": false,
      "stateMutability": "nonpayable",
      "type": "function"
    },
    {
      "constant": false,
      "inputs": [],
      "name": "lock",
      "outputs": [],
      "payable": false,
      "stateMutability": "nonpayable",
      "type": "function"
    },
    {
      "inputs": [
        {
          "internalType": "address",
          "name": "_proxyTo",
          "type": "address"
        },
        {
          "internalType": "address",
          "name": "_registry",
          "type": "address"
        },
        {
          "internalType": "address",
          "name": "_rootChain",
          "type": "address"
        },
        {
          "internalType": "address",
          "name": "_governance",
          "type": "address"
        }
      ],
      "payable": false,
      "stateMutability": "nonpayable",
      "type": "constructor"
    },
    {
      "payable": true,
      "stateMutability": "payable",
      "type": "fallback"
    },
    {
      "anonymous": false,
      "inputs": [
        {
          "indexed": true,
          "internalType": "address",
          "name": "owner",
          "type": "address"
        },
        {
          "indexed": true,
          "internalType": "address",
          "name": "token",
          "type": "address"
        },
        {
          "indexed": false,
          "internalType": "uint256",
          "name": "amountOrNFTId",
          "type": "uint256"
        },
        {
          "indexed": false,
          "internalType": "uint256",
          "name": "depositBlockId",
          "type": "uint256"
        }
      ],
      "name": "NewDepositBlock",
      "type": "event"
    },
    {
      "anonymous": false,
      "inputs": [
        {
          "indexed": true,
          "internalType": "address",
          "name": "_new",
          "type": "address"
        },
        {
          "indexed": true,
          "internalType": "address",
          "name": "_old",
          "type": "address"
        }
      ],
      "name": "ProxyUpdated",
      "type": "event"
    },
    {
      "anonymous": false,
      "inputs": [
        {
          "indexed": false,
          "internalType": "address",
          "name": "_prevOwner",
          "type": "address"
        },
        {
          "indexed": false,
          "internalType": "address",
          "name": "_newOwner",
          "type": "address"
        }
      ],
      "name": "OwnerUpdate",
      "type": "event"
    },
    {
      "anonymous": false,
      "inputs": [
        {
          "indexed": true,
          "internalType": "address",
          "name": "previousOwner",
          "type": "address"
        },
        {
          "indexed": true,
          "internalType": "address",
          "name": "newOwner",
          "type": "address"
        }
      ],
      "name": "OwnershipTransferred",
      "type": "event"
    }
  ],
  "bytecode": "0x608060405234801561001057600080fd5b5060405161099e38038061099e8339818101604052608081101561003357600080fd5b5080516020820151604080840151606090940151600080546001600160a01b031916331780825592519495939491928392839288926001600160a01b0316917f8be0079c531659141344cd1fd0a4f28419497f9722a3daafe3b4186f6b6457e0908290a36100a9816001600160e01b036100f216565b50600280546001600160a01b03199081166001600160a01b0393841617909155600380548216968316969096179095556004805490951693169290921790925550610279915050565b6101036001600160e01b0361024516565b61010c57600080fd5b6001600160a01b03811661018157604080517f08c379a000000000000000000000000000000000000000000000000000000000815260206004820152601560248201527f494e56414c49445f50524f58595f414444524553530000000000000000000000604482015290519081900360640190fd5b610193816001600160e01b0361025616565b6101e8576040517f08c379a00000000000000000000000000000000000000000000000000000000081526004018080602001828103825260258152602001806109796025913960400191505060405180910390fd5b6001546040516001600160a01b03918216918316907fd32d24edea94f55e932d9a008afc425a8561462d1b1f57bc6e508e9a6b9509e190600090a3600180546001600160a01b0319166001600160a01b0392909216919091179055565b6000546001600160a01b0316331490565b60006001600160a01b03821661026e57506000610274565b50803b15155b919050565b6106f1806102886000396000f3fe6080604052600436106100dd5760003560e01c80638f32d59b1161007f578063cb10f94c11610059578063cb10f94c14610289578063cf3090121461029e578063f2fde38b146102b3578063f83d08ba146102e6576100dd565b80638f32d59b14610208578063a69df4b514610231578063b02c43d014610246576100dd565b80635aa6e675116100bb5780635aa6e675146101b45780635c60da1b146101c9578063715018a6146101de5780638da5cb5b146101f3576100dd565b8063025b22bc1461012957806342fc47fb1461015c5780634555d5c91461018d575b60015460408051602036601f8101829004820283018201909352828252610127936001600160a01b031692600091819084018382808284376000920191909152506102fb92505050565b005b34801561013557600080fd5b506101276004803603602081101561014c57600080fd5b50356001600160a01b0316610323565b34801561016857600080fd5b50610171610428565b604080516001600160a01b039092168252519081900360200190f35b34801561019957600080fd5b506101a2610437565b60408051918252519081900360200190f35b3480156101c057600080fd5b5061017161043c565b3480156101d557600080fd5b5061017161044b565b3480156101ea57600080fd5b5061012761045a565b3480156101ff57600080fd5b506101716104b5565b34801561021457600080fd5b5061021d6104c4565b604080519115158252519081900360200190f35b34801561023d57600080fd5b506101276104d5565b34801561025257600080fd5b506102706004803603602081101561026957600080fd5b503561052d565b6040805192835260208301919091528051918290030190f35b34801561029557600080fd5b50610171610546565b3480156102aa57600080fd5b5061021d610555565b3480156102bf57600080fd5b50610127600480360360208110156102d657600080fd5b50356001600160a01b0316610565565b3480156102f257600080fd5b50610127610582565b600080825160208401856127105a03f43d604051816000823e82801561031f578282f35b8282fd5b61032b6104c4565b61033457600080fd5b6001600160a01b038116610387576040805162461bcd60e51b8152602060048201526015602482015274494e56414c49445f50524f58595f4144445245535360581b604482015290519081900360640190fd5b610390816105e0565b6103cb5760405162461bcd60e51b81526004018080602001828103825260258152602001806106726025913960400191505060405180910390fd5b6001546040516001600160a01b03918216918316907fd32d24edea94f55e932d9a008afc425a8561462d1b1f57bc6e508e9a6b9509e190600090a3600180546001600160a01b0319166001600160a01b0392909216919091179055565b6007546001600160a01b031681565b600290565b6002546001600160a01b031681565b6001546001600160a01b031690565b6104626104c4565b61046b57600080fd5b600080546040516001600160a01b03909116907f8be0079c531659141344cd1fd0a4f28419497f9722a3daafe3b4186f6b6457e0908390a3600080546001600160a01b0319169055565b6000546001600160a01b031690565b6000546001600160a01b0316331490565b6002546001600160a01b0316331461051e5760405162461bcd60e51b81526004018080602001828103825260268152602001806106976026913960400191505060405180910390fd5b6002805460ff60a01b19169055565b6006602052600090815260409020805460019091015482565b6005546001600160a01b031681565b600254600160a01b900460ff1681565b61056d6104c4565b61057657600080fd5b61057f81610603565b50565b6002546001600160a01b031633146105cb5760405162461bcd60e51b81526004018080602001828103825260268152602001806106976026913960400191505060405180910390fd5b6002805460ff60a01b1916600160a01b179055565b60006001600160a01b0382166105f8575060006105fe565b50803b15155b919050565b6001600160a01b03811661061657600080fd5b600080546040516001600160a01b03808516939216917f8be0079c531659141344cd1fd0a4f28419497f9722a3daafe3b4186f6b6457e091a3600080546001600160a01b0319166001600160a01b039290921691909117905556fe44455354494e4154494f4e5f414444524553535f49535f4e4f545f415f434f4e54524143544f6e6c7920676f7665726e616e636520636f6e747261637420697320617574686f72697a6564a265627a7a72315820c1ff63540a5f405ff5008169e0fdf2ff38b5aa96dde00d8f14e254b296e4b37264736f6c634300050b003244455354494e4154494f4e5f414444524553535f49535f4e4f545f415f434f4e5452414354",
  "source": "pragma solidity ^0.5.2;\n\nimport {DepositManagerStorage} from \"./DepositManagerStorage.sol\";\nimport {Proxy} from \"../../common/misc/Proxy.sol\";\nimport {Registry} from \"../../common/Registry.sol\";\nimport {RootChain} from \"../RootChain.sol\";\nimport {Lockable} from \"../../common/mixin/Lockable.sol\";\n\ncontract DepositManagerProxy is Proxy, DepositManagerStorage {\n    constructor(\n        address _proxyTo,\n        address _registry,\n        address _rootChain,\n        address _governance\n    ) public Proxy(_proxyTo) Lockable(_governance) {\n        registry = Registry(_registry);\n        rootChain = RootChain(_rootChain);\n    }\n}\n",
  "sourcePath": "/Users/arth/Documents/Projects/contracts/contracts/root/depositManager/DepositManagerProxy.sol",
  "compiler": {
    "name": "solc",
    "version": "0.5.11+commit.c082d0b4.Emscripten.clang"
  },
  "schemaVersion": "3.0.14",
  "updatedAt": "2020-02-20T10:11:00.330Z",
  "devdoc": {
    "methods": {
      "isOwner()": {
        "return": "true if `msg.sender` is the owner of the contract."
      },
      "owner()": {
        "return": "the address of the owner."
      },
      "renounceOwnership()": {
        "details": "Allows the current owner to relinquish control of the contract. It will not be possible to call the functions with the `onlyOwner` modifier anymore."
      },
      "transferOwnership(address)": {
        "details": "Allows the current owner to transfer control of the contract to a newOwner.",
        "params": {
          "newOwner": "The address to transfer ownership to."
        }
      }
    }
  },
  "userdoc": {
    "methods": {
      "renounceOwnership()": {
        "notice": "Renouncing ownership will leave the contract without an owner, thereby removing any functionality that is only available to the owner."
      }
    }
  }
}