{
  "contractName": "DepositManager",
  "abi": [
    {
      "constant": true,
      "inputs": [],
      "name": "childChain",
      "outputs": [
        {
          "internalType": "address",
          "name": "",
          "type": "address"
        }
      ],
      "payable": false,
      "stateMutability": "view",
      "type": "function"
    },
    {
      "constant": true,
      "inputs": [],
      "name": "governance",
      "outputs": [
        {
          "internalType": "contract IGovernance",
          "name": "",
          "type": "address"
        }
      ],
      "payable": false,
      "stateMutability": "view",
      "type": "function"
    },
    {
      "constant": false,
      "inputs": [],
      "name": "renounceOwnership",
      "outputs": [],
      "payable": false,
      "stateMutability": "nonpayable",
      "type": "function"
    },
    {
      "constant": true,
      "inputs": [],
      "name": "owner",
      "outputs": [
        {
          "internalType": "address",
          "name": "",
          "type": "address"
        }
      ],
      "payable": false,
      "stateMutability": "view",
      "type": "function"
    },
    {
      "constant": true,
      "inputs": [],
      "name": "isOwner",
      "outputs": [
        {
          "internalType": "bool",
          "name": "",
          "type": "bool"
        }
      ],
      "payable": false,
      "stateMutability": "view",
      "type": "function"
    },
    {
      "constant": false,
      "inputs": [],
      "name": "unlock",
      "outputs": [],
      "payable": false,
      "stateMutability": "nonpayable",
      "type": "function"
    },
    {
      "constant": true,
      "inputs": [
        {
          "internalType": "uint256",
          "name": "",
          "type": "uint256"
        }
      ],
      "name": "deposits",
      "outputs": [
        {
          "internalType": "bytes32",
          "name": "depositHash",
          "type": "bytes32"
        },
        {
          "internalType": "uint256",
          "name": "createdAt",
          "type": "uint256"
        }
      ],
      "payable": false,
      "stateMutability": "view",
      "type": "function"
    },
    {
      "constant": true,
      "inputs": [],
      "name": "stateSender",
      "outputs": [
        {
          "internalType": "contract StateSender",
          "name": "",
          "type": "address"
        }
      ],
      "payable": false,
      "stateMutability": "view",
      "type": "function"
    },
    {
      "constant": true,
      "inputs": [],
      "name": "locked",
      "outputs": [
        {
          "internalType": "bool",
          "name": "",
          "type": "bool"
        }
      ],
      "payable": false,
      "stateMutability": "view",
      "type": "function"
    },
    {
      "constant": false,
      "inputs": [
        {
          "internalType": "address",
          "name": "newOwner",
          "type": "address"
        }
      ],
      "name": "transferOwnership",
      "outputs": [],
      "payable": false,
      "stateMutability": "nonpayable",
      "type": "function"
    },
    {
      "constant": false,
      "inputs": [],
      "name": "lock",
      "outputs": [],
      "payable": false,
      "stateMutability": "nonpayable",
      "type": "function"
    },
    {
      "inputs": [],
      "payable": false,
      "stateMutability": "nonpayable",
      "type": "constructor"
    },
    {
      "payable": true,
      "stateMutability": "payable",
      "type": "fallback"
    },
    {
      "anonymous": false,
      "inputs": [
        {
          "indexed": true,
          "internalType": "address",
          "name": "owner",
          "type": "address"
        },
        {
          "indexed": true,
          "internalType": "address",
          "name": "token",
          "type": "address"
        },
        {
          "indexed": false,
          "internalType": "uint256",
          "name": "amountOrNFTId",
          "type": "uint256"
        },
        {
          "indexed": false,
          "internalType": "uint256",
          "name": "depositBlockId",
          "type": "uint256"
        }
      ],
      "name": "NewDepositBlock",
      "type": "event"
    },
    {
      "anonymous": false,
      "inputs": [
        {
          "indexed": true,
          "internalType": "address",
          "name": "previousOwner",
          "type": "address"
        },
        {
          "indexed": true,
          "internalType": "address",
          "name": "newOwner",
          "type": "address"
        }
      ],
      "name": "OwnershipTransferred",
      "type": "event"
    },
    {
      "constant": false,
      "inputs": [
        {
          "internalType": "address",
          "name": "_token",
          "type": "address"
        },
        {
          "internalType": "address",
          "name": "_user",
          "type": "address"
        },
        {
          "internalType": "uint256",
          "name": "_amountOrNFTId",
          "type": "uint256"
        }
      ],
      "name": "transferAssets",
      "outputs": [],
      "payable": false,
      "stateMutability": "nonpayable",
      "type": "function"
    },
    {
      "constant": false,
      "inputs": [
        {
          "internalType": "address",
          "name": "_token",
          "type": "address"
        },
        {
          "internalType": "uint256",
          "name": "_amount",
          "type": "uint256"
        }
      ],
      "name": "depositERC20",
      "outputs": [],
      "payable": false,
      "stateMutability": "nonpayable",
      "type": "function"
    },
    {
      "constant": false,
      "inputs": [
        {
          "internalType": "address",
          "name": "_token",
          "type": "address"
        },
        {
          "internalType": "uint256",
          "name": "_tokenId",
          "type": "uint256"
        }
      ],
      "name": "depositERC721",
      "outputs": [],
      "payable": false,
      "stateMutability": "nonpayable",
      "type": "function"
    },
    {
      "constant": false,
      "inputs": [
        {
          "internalType": "address[]",
          "name": "_tokens",
          "type": "address[]"
        },
        {
          "internalType": "uint256[]",
          "name": "_amountOrTokens",
          "type": "uint256[]"
        },
        {
          "internalType": "address",
          "name": "_user",
          "type": "address"
        }
      ],
      "name": "depositBulk",
      "outputs": [],
      "payable": false,
      "stateMutability": "nonpayable",
      "type": "function"
    },
    {
      "constant": false,
      "inputs": [],
      "name": "updateChildChainAndStateSender",
      "outputs": [],
      "payable": false,
      "stateMutability": "nonpayable",
      "type": "function"
    },
    {
      "constant": false,
      "inputs": [
        {
          "internalType": "address",
          "name": "_token",
          "type": "address"
        },
        {
          "internalType": "address",
          "name": "_user",
          "type": "address"
        },
        {
          "internalType": "uint256",
          "name": "_amount",
          "type": "uint256"
        }
      ],
      "name": "depositERC20ForUser",
      "outputs": [],
      "payable": false,
      "stateMutability": "nonpayable",
      "type": "function"
    },
    {
      "constant": false,
      "inputs": [
        {
          "internalType": "address",
          "name": "_token",
          "type": "address"
        },
        {
          "internalType": "address",
          "name": "_user",
          "type": "address"
        },
        {
          "internalType": "uint256",
          "name": "_tokenId",
          "type": "uint256"
        }
      ],
      "name": "depositERC721ForUser",
      "outputs": [],
      "payable": false,
      "stateMutability": "nonpayable",
      "type": "function"
    },
    {
      "constant": false,
      "inputs": [],
      "name": "depositEther",
      "outputs": [],
      "payable": true,
      "stateMutability": "payable",
      "type": "function"
    },
    {
      "constant": false,
      "inputs": [
        {
          "internalType": "address",
          "name": "",
          "type": "address"
        },
        {
          "internalType": "address",
          "name": "_user",
          "type": "address"
        },
        {
          "internalType": "uint256",
          "name": "_tokenId",
          "type": "uint256"
        },
        {
          "internalType": "bytes",
          "name": "",
          "type": "bytes"
        }
      ],
      "name": "onERC721Received",
      "outputs": [
        {
          "internalType": "bytes4",
          "name": "",
          "type": "bytes4"
        }
      ],
      "payable": false,
      "stateMutability": "nonpayable",
      "type": "function"
    },
    {
      "constant": false,
      "inputs": [
        {
          "internalType": "address",
          "name": "_user",
          "type": "address"
        },
        {
          "internalType": "uint256",
          "name": "_amount",
          "type": "uint256"
        },
        {
          "internalType": "bytes",
          "name": "",
          "type": "bytes"
        }
      ],
      "name": "tokenFallback",
      "outputs": [],
      "payable": false,
      "stateMutability": "nonpayable",
      "type": "function"
    },
    {
      "constant": false,
      "inputs": [
        {
          "internalType": "address",
          "name": "_rootChain",
          "type": "address"
        }
      ],
      "name": "updateRootChain",
      "outputs": [],
      "payable": false,
      "stateMutability": "nonpayable",
      "type": "function"
    },
    {
      "constant": true,
      "inputs": [],
      "name": "getRootChain",
      "outputs": [
        {
          "internalType": "address",
          "name": "",
          "type": "address"
        }
      ],
      "payable": false,
      "stateMutability": "view",
      "type": "function"
    }
  ],
  "bytecode": "0x608060405234801561001057600080fd5b50600080546001600160a01b031916331780825560405182916001600160a01b03169082907f8be0079c531659141344cd1fd0a4f28419497f9722a3daafe3b4186f6b6457e0908290a3600280546001600160a01b0319166001600160a01b0392909216919091179055506118458061008a6000396000f3fe6080604052600436106101405760003560e01c806397feb926116100b6578063cb10f94c1161006f578063cb10f94c146105ef578063cf30901214610604578063d29a4bf614610619578063f220371114610652578063f2fde38b14610685578063f83d08ba146106b857610140565b806397feb9261461048357806398ea5fca14610140578063a69df4b5146104bc578063b02c43d0146104d1578063bf6bf2e114610514578063c0ee0b8a1461052957610140565b80635aa6e675116101085780635aa6e67514610304578063715018a6146103195780637b1f71171461032e5780638b9e4f93146104025780638da5cb5b146104455780638f32d59b1461045a57610140565b8063072b15351461014a578063150b7a021461018d57806342be83791461027b57806342fc47fb1461029057806349f4cc17146102c1575b6101486106cd565b005b34801561015657600080fd5b506101486004803603606081101561016d57600080fd5b506001600160a01b038135811691602081013590911690604001356107af565b34801561019957600080fd5b5061025e600480360360808110156101b057600080fd5b6001600160a01b03823581169260208101359091169160408201359190810190608081016060820135600160201b8111156101ea57600080fd5b8201836020820111156101fc57600080fd5b803590602001918460018302840111600160201b8311171561021d57600080fd5b91908080601f01602080910402602001604051908101604052809392919081815260200183838082843760009201919091525092955061082b945050505050565b604080516001600160e01b03199092168252519081900360200190f35b34801561028757600080fd5b50610148610849565b34801561029c57600080fd5b506102a561095a565b604080516001600160a01b039092168252519081900360200190f35b3480156102cd57600080fd5b50610148600480360360608110156102e457600080fd5b506001600160a01b03813581169160208101359091169060400135610969565b34801561031057600080fd5b506102a5610cfa565b34801561032557600080fd5b50610148610d09565b34801561033a57600080fd5b506101486004803603606081101561035157600080fd5b810190602081018135600160201b81111561036b57600080fd5b82018360208201111561037d57600080fd5b803590602001918460208302840111600160201b8311171561039e57600080fd5b919390929091602081019035600160201b8111156103bb57600080fd5b8201836020820111156103cd57600080fd5b803590602001918460208302840111600160201b831117156103ee57600080fd5b9193509150356001600160a01b0316610d64565b34801561040e57600080fd5b506101486004803603606081101561042557600080fd5b506001600160a01b0381358116916020810135909116906040013561115b565b34801561045157600080fd5b506102a5611230565b34801561046657600080fd5b5061046f61123f565b604080519115158252519081900360200190f35b34801561048f57600080fd5b50610148600480360360408110156104a657600080fd5b506001600160a01b038135169060200135611250565b3480156104c857600080fd5b5061014861125b565b3480156104dd57600080fd5b506104fb600480360360208110156104f457600080fd5b50356112b3565b6040805192835260208301919091528051918290030190f35b34801561052057600080fd5b506102a56112cc565b34801561053557600080fd5b506101486004803603606081101561054c57600080fd5b6001600160a01b0382351691602081013591810190606081016040820135600160201b81111561057b57600080fd5b82018360208201111561058d57600080fd5b803590602001918460018302840111600160201b831117156105ae57600080fd5b91908080601f0160208091040260200160405190810160405280939291908181526020018383808284376000920191909152509295506112db945050505050565b3480156105fb57600080fd5b506102a56112e6565b34801561061057600080fd5b5061046f6112f5565b34801561062557600080fd5b506101486004803603604081101561063c57600080fd5b506001600160a01b038135169060200135611305565b34801561065e57600080fd5b506101486004803603602081101561067557600080fd5b50356001600160a01b0316611310565b34801561069157600080fd5b50610148600480360360208110156106a857600080fd5b50356001600160a01b0316611343565b3480156106c457600080fd5b50610148611360565b60035460408051638b9c948960e01b815290516000926001600160a01b031691638b9c9489916004808301926020929190829003018186803b15801561071257600080fd5b505afa158015610726573d6000803e3d6000fd5b505050506040513d602081101561073c57600080fd5b505160408051630d0e30db60e41b8152905191925082916001600160a01b0383169163d0e30db091349160048082019260009290919082900301818588803b15801561078757600080fd5b505af115801561079b573d6000803e3d6000fd5b50505050506107ab3383346113be565b5050565b604080516323b872dd60e01b81523360048201523060248201526044810183905290516001600160a01b038516916323b872dd91606480830192600092919082900301818387803b15801561080357600080fd5b505af1158015610817573d6000803e3d6000fd5b505050506108268284836113be565b505050565b60006108388433856113be565b50630a85bd0160e11b949350505050565b60035460408051630c91702f60e31b8152815160009384936001600160a01b039091169263648b81789260048083019392829003018186803b15801561088e57600080fd5b505afa1580156108a2573d6000803e3d6000fd5b505050506040513d60408110156108b857600080fd5b50805160209091015160055491935091506001600160a01b0380831691161415806108f157506007546001600160a01b03838116911614155b61092c5760405162461bcd60e51b815260040180806020018281038252603e8152602001806117ad603e913960400191505060405180910390fd5b600780546001600160a01b039384166001600160a01b03199182161790915560058054929093169116179055565b6007546001600160a01b031681565b600354604080516337b1d58560e01b815233600482015290516001600160a01b03909216916337b1d58591602480820192602092909190829003018186803b1580156109b457600080fd5b505afa1580156109c8573d6000803e3d6000fd5b505050506040513d60208110156109de57600080fd5b505160038111156109eb57fe5b60ff16610a37576040805162461bcd60e51b81526020600482015260156024820152744e6f7420612076616c69642070726564696361746560581b604482015290519081900360640190fd5b60035460408051638b9c948960e01b815290516000926001600160a01b031691638b9c9489916004808301926020929190829003018186803b158015610a7c57600080fd5b505afa158015610a90573d6000803e3d6000fd5b505050506040513d6020811015610aa657600080fd5b5051600354604080516336a8279560e21b81526001600160a01b038881166004830152915193945091169163daa09e5491602480820192602092909190829003018186803b158015610af757600080fd5b505afa158015610b0b573d6000803e3d6000fd5b505050506040513d6020811015610b2157600080fd5b505115610b9d57604080516323b872dd60e01b81523060048201526001600160a01b038581166024830152604482018590529151918616916323b872dd9160648082019260009290919082900301818387803b158015610b8057600080fd5b505af1158015610b94573d6000803e3d6000fd5b50505050610cf4565b806001600160a01b0316846001600160a01b03161415610c255760408051627b8a6760e11b8152600481018490526001600160a01b0385811660248301529151869283169162f714ce91604480830192600092919082900301818387803b158015610c0757600080fd5b505af1158015610c1b573d6000803e3d6000fd5b5050505050610cf4565b836001600160a01b031663a9059cbb84846040518363ffffffff1660e01b815260040180836001600160a01b03166001600160a01b0316815260200182815260200192505050602060405180830381600087803b158015610c8557600080fd5b505af1158015610c99573d6000803e3d6000fd5b505050506040513d6020811015610caf57600080fd5b5051610cf4576040805162461bcd60e51b815260206004820152600f60248201526e1514905394d1915497d19052531151608a1b604482015290519081900360640190fd5b50505050565b6002546001600160a01b031681565b610d1161123f565b610d1a57600080fd5b600080546040516001600160a01b03909116907f8be0079c531659141344cd1fd0a4f28419497f9722a3daafe3b4186f6b6457e0908390a3600080546001600160a01b0319169055565b600254600160a01b900460ff1615610daf576040805162461bcd60e51b8152602060048201526009602482015268125cc8131bd8dad95960ba1b604482015290519081900360640190fd5b838214610df3576040805162461bcd60e51b815260206004820152600d60248201526c125b9d985b1a5908125b9c1d5d609a1b604482015290519081900360640190fd5b6004805460408051635391f48360e01b8152928301879052516000926001600160a01b0390921691635391f48391602480830192602092919082900301818787803b158015610e4157600080fd5b505af1158015610e55573d6000803e3d6000fd5b505050506040513d6020811015610e6b57600080fd5b5051905060005b85811015611152576003546001600160a01b03166301f07db5888884818110610e9757fe5b905060200201356001600160a01b03166040518263ffffffff1660e01b815260040180826001600160a01b03166001600160a01b0316815260200191505060206040518083038186803b158015610eed57600080fd5b505afa158015610f01573d6000803e3d6000fd5b505050506040513d6020811015610f1757600080fd5b505115610fe257868682818110610f2a57fe5b905060200201356001600160a01b03166001600160a01b03166323b872dd3330888886818110610f5657fe5b905060200201356040518463ffffffff1660e01b815260040180846001600160a01b03166001600160a01b03168152602001836001600160a01b03166001600160a01b031681526020018281526020019350505050600060405180830381600087803b158015610fc557600080fd5b505af1158015610fd9573d6000803e3d6000fd5b505050506110fe565b868682818110610fee57fe5b905060200201356001600160a01b03166001600160a01b03166323b872dd333088888681811061101a57fe5b905060200201356040518463ffffffff1660e01b815260040180846001600160a01b03166001600160a01b03168152602001836001600160a01b03166001600160a01b031681526020018281526020019350505050602060405180830381600087803b15801561108957600080fd5b505af115801561109d573d6000803e3d6000fd5b505050506040513d60208110156110b357600080fd5b50516110fe576040805162461bcd60e51b81526020600482015260156024820152741513d2d15397d514905394d1915497d19052531151605a1b604482015290519081900360640190fd5b6111378388888481811061110e57fe5b905060200201356001600160a01b031687878581811061112a57fe5b905060200201358561155b565b61114882600163ffffffff61172516565b9150600101610e72565b50505050505050565b604080516323b872dd60e01b81523360048201523060248201526044810183905290516001600160a01b038516916323b872dd9160648083019260209291908290030181600087803b1580156111b057600080fd5b505af11580156111c4573d6000803e3d6000fd5b505050506040513d60208110156111da57600080fd5b5051611225576040805162461bcd60e51b81526020600482015260156024820152741513d2d15397d514905394d1915497d19052531151605a1b604482015290519081900360640190fd5b6108268284836113be565b6000546001600160a01b031690565b6000546001600160a01b0316331490565b6107ab82338361115b565b6002546001600160a01b031633146112a45760405162461bcd60e51b81526004018080602001828103825260268152602001806117eb6026913960400191505060405180910390fd5b6002805460ff60a01b19169055565b6006602052600090815260409020805460019091015482565b6004546001600160a01b031690565b6108268333846113be565b6005546001600160a01b031681565b600254600160a01b900460ff1681565b6107ab8233836107af565b61131861123f565b61132157600080fd5b600480546001600160a01b0319166001600160a01b0392909216919091179055565b61134b61123f565b61135457600080fd5b61135d8161173e565b50565b6002546001600160a01b031633146113a95760405162461bcd60e51b81526004018080602001828103825260268152602001806117eb6026913960400191505060405180910390fd5b6002805460ff60a01b1916600160a01b179055565b600254600160a01b900460ff1615611409576040805162461bcd60e51b8152602060048201526009602482015268125cc8131bd8dad95960ba1b604482015290519081900360640190fd5b60035460408051636416c18360e01b81526001600160a01b038086166004830152915185939290921691636416c18391602480820192602092909190829003018186803b15801561145957600080fd5b505afa15801561146d573d6000803e3d6000fd5b505050506040513d602081101561148357600080fd5b50516114cc576040805162461bcd60e51b81526020600482015260136024820152721513d2d15397d393d517d4d5541413d4951151606a1b604482015290519081900360640190fd5b610cf4848484600460009054906101000a90046001600160a01b03166001600160a01b0316635391f48360016040518263ffffffff1660e01b815260040180828152602001915050602060405180830381600087803b15801561152e57600080fd5b505af1158015611542573d6000803e3d6000fd5b505050506040513d602081101561155857600080fd5b50515b604080518082018252606086811b6bffffffffffffffffffffffff199081168284015286821b16607483015260888083018690528351808403909101815260a883018452805160209182012083524281840190815260008681526006835285812094518555905160019094019390935560055460075485516001600160a01b03808c1682860152808b168289015294810189905260808082018990528751808303909101815260a082018089526316f1983160e01b905291851660a4820181815260c48301988952835160e4840152835196909416976316f198319791969395909361010490930192908601918190849084905b8381101561166757818101518382015260200161164f565b50505050905090810190601f1680156116945780820380516001836020036101000a031916815260200191505b509350505050600060405180830381600087803b1580156116b457600080fd5b505af11580156116c8573d6000803e3d6000fd5b50505050826001600160a01b0316846001600160a01b03167f1dadc8d0683c6f9824e885935c1bec6f76816730dcec148dda8cf25a7b9f797b8484604051808381526020018281526020019250505060405180910390a350505050565b60008282018381101561173757600080fd5b9392505050565b6001600160a01b03811661175157600080fd5b600080546040516001600160a01b03808516939216917f8be0079c531659141344cd1fd0a4f28419497f9722a3daafe3b4186f6b6457e091a3600080546001600160a01b0319166001600160a01b039290921691909117905556fe41746c65617374206f6e65206f6620737461746553656e646572206f72206368696c64436861696e20616464726573732073686f756c64206368616e67654f6e6c7920676f7665726e616e636520636f6e747261637420697320617574686f72697a6564a265627a7a723158205412d2abdb6a65cc4dc235390f42511cbe848b80299fc48026dcb333a58d03bc64736f6c634300050b0032",
  "source": "pragma solidity ^0.5.2;\n\nimport {\n    IERC721Receiver\n} from \"openzeppelin-solidity/contracts/token/ERC721/IERC721Receiver.sol\";\nimport {IERC20} from \"openzeppelin-solidity/contracts/token/ERC20/IERC20.sol\";\nimport {\n    IERC721\n} from \"openzeppelin-solidity/contracts/token/ERC721/IERC721.sol\";\nimport {SafeMath} from \"openzeppelin-solidity/contracts/math/SafeMath.sol\";\n\nimport {ContractReceiver} from \"../../common/misc/ContractReceiver.sol\";\nimport {Registry} from \"../../common/Registry.sol\";\nimport {WETH} from \"../../common/tokens/WETH.sol\";\nimport {IDepositManager} from \"./IDepositManager.sol\";\nimport {DepositManagerStorage} from \"./DepositManagerStorage.sol\";\nimport {StateSender} from \"../stateSyncer/StateSender.sol\";\nimport {Lockable} from \"../../common/mixin/Lockable.sol\";\nimport {RootChain} from \"../RootChain.sol\";\n\ncontract DepositManager is\n    DepositManagerStorage,\n    IDepositManager,\n    IERC721Receiver,\n    ContractReceiver\n{\n    using SafeMath for uint256;\n\n    modifier isTokenMapped(address _token) {\n        require(registry.isTokenMapped(_token), \"TOKEN_NOT_SUPPORTED\");\n        _;\n    }\n\n    modifier isPredicateAuthorized() {\n        require(\n            uint8(registry.predicates(msg.sender)) != 0,\n            \"Not a valid predicate\"\n        );\n        _;\n    }\n\n    constructor() public Lockable(address(0x0)) {}\n\n    // deposit ETH by sending to this contract\n    function() external payable {\n        depositEther();\n    }\n\n    function transferAssets(\n        address _token,\n        address _user,\n        uint256 _amountOrNFTId\n    ) external isPredicateAuthorized {\n        address wethToken = registry.getWethTokenAddress();\n        if (registry.isERC721(_token)) {\n            IERC721(_token).transferFrom(address(this), _user, _amountOrNFTId);\n        } else if (_token == wethToken) {\n            WETH t = WETH(_token);\n            t.withdraw(_amountOrNFTId, _user);\n        } else {\n            require(\n                IERC20(_token).transfer(_user, _amountOrNFTId),\n                \"TRANSFER_FAILED\"\n            );\n        }\n    }\n\n    function depositERC20(address _token, uint256 _amount) external {\n        depositERC20ForUser(_token, msg.sender, _amount);\n    }\n\n    function depositERC721(address _token, uint256 _tokenId) external {\n        depositERC721ForUser(_token, msg.sender, _tokenId);\n    }\n\n    function depositBulk(\n        address[] calldata _tokens,\n        uint256[] calldata _amountOrTokens,\n        address _user\n    )\n        external\n        onlyWhenUnlocked // unlike other deposit functions, depositBulk doesn't invoke _safeCreateDepositBlock\n    {\n        require(_tokens.length == _amountOrTokens.length, \"Invalid Input\");\n        uint256 depositId = rootChain.updateDepositId(_tokens.length);\n\n        for (uint256 i = 0; i < _tokens.length; i++) {\n            // will revert if token is not mapped\n            if (registry.isTokenMappedAndIsErc721(_tokens[i])) {\n                IERC721(_tokens[i]).transferFrom(\n                    msg.sender,\n                    address(this),\n                    _amountOrTokens[i]\n                );\n            } else {\n                require(\n                    IERC20(_tokens[i]).transferFrom(\n                        msg.sender,\n                        address(this),\n                        _amountOrTokens[i]\n                    ),\n                    \"TOKEN_TRANSFER_FAILED\"\n                );\n            }\n            _createDepositBlock(\n                _user,\n                _tokens[i],\n                _amountOrTokens[i],\n                depositId\n            );\n            depositId = depositId.add(1);\n        }\n    }\n\n    /**\n   * @dev Caches childChain and stateSender (frequently used variables) from registry\n   */\n    function updateChildChainAndStateSender() public {\n        (address _childChain, address _stateSender) = registry\n            .getChildChainAndStateSender();\n        require(\n            _stateSender != address(stateSender) || _childChain != childChain,\n            \"Atleast one of stateSender or childChain address should change\"\n        );\n        childChain = _childChain;\n        stateSender = StateSender(_stateSender);\n    }\n\n    function depositERC20ForUser(address _token, address _user, uint256 _amount)\n        public\n    {\n        require(\n            IERC20(_token).transferFrom(msg.sender, address(this), _amount),\n            \"TOKEN_TRANSFER_FAILED\"\n        );\n        _safeCreateDepositBlock(_user, _token, _amount);\n    }\n\n    function depositERC721ForUser(\n        address _token,\n        address _user,\n        uint256 _tokenId\n    ) public {\n        IERC721(_token).transferFrom(msg.sender, address(this), _tokenId);\n        _safeCreateDepositBlock(_user, _token, _tokenId);\n    }\n\n    // @todo: write depositEtherForUser\n    function depositEther() public payable {\n        address wethToken = registry.getWethTokenAddress();\n        WETH t = WETH(wethToken);\n        t.deposit.value(msg.value)();\n        _safeCreateDepositBlock(msg.sender, wethToken, msg.value);\n    }\n\n    /**\n   * @notice This will be invoked when safeTransferFrom is called on the token contract to deposit tokens to this contract\n     without directly interacting with it\n   * @dev msg.sender is the token contract\n   * _operator The address which called `safeTransferFrom` function on the token contract\n   * @param _user The address which previously owned the token\n   * @param _tokenId The NFT identifier which is being transferred\n   * _data Additional data with no specified format\n   * @return `bytes4(keccak256(\"onERC721Received(address,address,uint256,bytes)\"))`\n   */\n    function onERC721Received(\n        address, /* _operator */\n        address _user,\n        uint256 _tokenId,\n        bytes memory /* _data */\n    ) public returns (bytes4) {\n        // the ERC721 contract address is the message sender\n        _safeCreateDepositBlock(\n            _user,\n            msg.sender,\n            /* token */\n            _tokenId\n        );\n        return 0x150b7a02;\n    }\n\n    // See https://github.com/ethereum/EIPs/issues/223\n    function tokenFallback(\n        address _user,\n        uint256 _amount,\n        bytes memory /* _data */\n    ) public {\n        _safeCreateDepositBlock(\n            _user,\n            msg.sender,\n            /* token */\n            _amount\n        );\n    }\n\n    function _safeCreateDepositBlock(\n        address _user,\n        address _token,\n        uint256 _amountOrToken\n    ) internal onlyWhenUnlocked isTokenMapped(_token) {\n        _createDepositBlock(\n            _user,\n            _token,\n            _amountOrToken,\n            rootChain.updateDepositId(1) /* returns _depositId */\n        );\n    }\n\n    function _createDepositBlock(\n        address _user,\n        address _token,\n        uint256 _amountOrToken,\n        uint256 _depositId\n    ) internal {\n        deposits[_depositId] = DepositBlock(\n            keccak256(abi.encodePacked(_user, _token, _amountOrToken)),\n            now\n        );\n        stateSender.syncState(\n            childChain,\n            abi.encode(_user, _token, _amountOrToken, _depositId)\n        );\n        emit NewDepositBlock(_user, _token, _amountOrToken, _depositId);\n    }\n\n    function updateRootChain(address _rootChain) public onlyOwner {\n        rootChain = RootChain(_rootChain);\n    }\n\n    function getRootChain() public view returns(address) {\n        return address(rootChain);\n    }\n}\n",
  "sourcePath": "/Users/arth/Documents/Projects/contracts/contracts/root/depositManager/DepositManager.sol",
  "compiler": {
    "name": "solc",
    "version": "0.5.11+commit.c082d0b4.Emscripten.clang"
  },
  "schemaVersion": "3.0.14",
  "updatedAt": "2020-02-20T10:11:00.323Z",
  "devdoc": {
    "methods": {
      "isOwner()": {
        "return": "true if `msg.sender` is the owner of the contract."
      },
      "onERC721Received(address,address,uint256,bytes)": {
        "details": "msg.sender is the token contract _operator The address which called `safeTransferFrom` function on the token contract",
        "params": {
          "_tokenId": "The NFT identifier which is being transferred _data Additional data with no specified format",
          "_user": "The address which previously owned the token"
        },
        "return": "`bytes4(keccak256(\"onERC721Received(address,address,uint256,bytes)\"))`"
      },
      "owner()": {
        "return": "the address of the owner."
      },
      "renounceOwnership()": {
        "details": "Allows the current owner to relinquish control of the contract. It will not be possible to call the functions with the `onlyOwner` modifier anymore."
      },
      "transferOwnership(address)": {
        "details": "Allows the current owner to transfer control of the contract to a newOwner.",
        "params": {
          "newOwner": "The address to transfer ownership to."
        }
      },
      "updateChildChainAndStateSender()": {
        "details": "Caches childChain and stateSender (frequently used variables) from registry"
      }
    }
  },
  "userdoc": {
    "methods": {
      "onERC721Received(address,address,uint256,bytes)": {
        "notice": "This will be invoked when safeTransferFrom is called on the token contract to deposit tokens to this contract without directly interacting with it"
      },
      "renounceOwnership()": {
        "notice": "Renouncing ownership will leave the contract without an owner, thereby removing any functionality that is only available to the owner."
      }
    }
  }
}