{
  "contractName": "StakingInfo",
  "abi": [
    {
      "constant": true,
      "inputs": [],
      "name": "registry",
      "outputs": [
        {
          "internalType": "contract Registry",
          "name": "",
          "type": "address"
        }
      ],
      "payable": false,
      "stateMutability": "view",
      "type": "function"
    },
    {
      "inputs": [
        {
          "internalType": "address",
          "name": "_registry",
          "type": "address"
        }
      ],
      "payable": false,
      "stateMutability": "nonpayable",
      "type": "constructor"
    },
    {
      "anonymous": false,
      "inputs": [
        {
          "indexed": true,
          "internalType": "address",
          "name": "signer",
          "type": "address"
        },
        {
          "indexed": true,
          "internalType": "uint256",
          "name": "validatorId",
          "type": "uint256"
        },
        {
          "indexed": true,
          "internalType": "uint256",
          "name": "activationEpoch",
          "type": "uint256"
        },
        {
          "indexed": false,
          "internalType": "uint256",
          "name": "amount",
          "type": "uint256"
        },
        {
          "indexed": false,
          "internalType": "uint256",
          "name": "total",
          "type": "uint256"
        }
      ],
      "name": "Staked",
      "type": "event"
    },
    {
      "anonymous": false,
      "inputs": [
        {
          "indexed": true,
          "internalType": "address",
          "name": "user",
          "type": "address"
        },
        {
          "indexed": true,
          "internalType": "uint256",
          "name": "validatorId",
          "type": "uint256"
        },
        {
          "indexed": false,
          "internalType": "uint256",
          "name": "amount",
          "type": "uint256"
        },
        {
          "indexed": false,
          "internalType": "uint256",
          "name": "total",
          "type": "uint256"
        }
      ],
      "name": "Unstaked",
      "type": "event"
    },
    {
      "anonymous": false,
      "inputs": [
        {
          "indexed": true,
          "internalType": "address",
          "name": "user",
          "type": "address"
        },
        {
          "indexed": true,
          "internalType": "uint256",
          "name": "validatorId",
          "type": "uint256"
        },
        {
          "indexed": false,
          "internalType": "uint256",
          "name": "deactivationEpoch",
          "type": "uint256"
        },
        {
          "indexed": true,
          "internalType": "uint256",
          "name": "amount",
          "type": "uint256"
        }
      ],
      "name": "UnstakeInit",
      "type": "event"
    },
    {
      "anonymous": false,
      "inputs": [
        {
          "indexed": true,
          "internalType": "uint256",
          "name": "validatorId",
          "type": "uint256"
        },
        {
          "indexed": true,
          "internalType": "address",
          "name": "oldSigner",
          "type": "address"
        },
        {
          "indexed": true,
          "internalType": "address",
          "name": "newSigner",
          "type": "address"
        }
      ],
      "name": "SignerChange",
      "type": "event"
    },
    {
      "anonymous": false,
      "inputs": [
        {
          "indexed": true,
          "internalType": "uint256",
          "name": "validatorId",
          "type": "uint256"
        },
        {
          "indexed": false,
          "internalType": "uint256",
          "name": "amount",
          "type": "uint256"
        },
        {
          "indexed": false,
          "internalType": "uint256",
          "name": "total",
          "type": "uint256"
        }
      ],
      "name": "ReStaked",
      "type": "event"
    },
    {
      "anonymous": false,
      "inputs": [
        {
          "indexed": true,
          "internalType": "uint256",
          "name": "validatorId",
          "type": "uint256"
        },
        {
          "indexed": true,
          "internalType": "uint256",
          "name": "exitEpoch",
          "type": "uint256"
        }
      ],
      "name": "Jailed",
      "type": "event"
    },
    {
      "anonymous": false,
      "inputs": [
        {
          "indexed": false,
          "internalType": "uint256",
          "name": "newThreshold",
          "type": "uint256"
        },
        {
          "indexed": false,
          "internalType": "uint256",
          "name": "oldThreshold",
          "type": "uint256"
        }
      ],
      "name": "ThresholdChange",
      "type": "event"
    },
    {
      "anonymous": false,
      "inputs": [
        {
          "indexed": false,
          "internalType": "uint256",
          "name": "newDynasty",
          "type": "uint256"
        },
        {
          "indexed": false,
          "internalType": "uint256",
          "name": "oldDynasty",
          "type": "uint256"
        }
      ],
      "name": "DynastyValueChange",
      "type": "event"
    },
    {
      "anonymous": false,
      "inputs": [
        {
          "indexed": false,
          "internalType": "uint256",
          "name": "newReward",
          "type": "uint256"
        },
        {
          "indexed": false,
          "internalType": "uint256",
          "name": "oldReward",
          "type": "uint256"
        }
      ],
      "name": "RewardUpdate",
      "type": "event"
    },
    {
      "anonymous": false,
      "inputs": [
        {
          "indexed": true,
          "internalType": "uint256",
          "name": "validatorId",
          "type": "uint256"
        },
        {
          "indexed": true,
          "internalType": "uint256",
          "name": "newAmount",
          "type": "uint256"
        }
      ],
      "name": "StakeUpdate",
      "type": "event"
    },
    {
      "anonymous": false,
      "inputs": [
        {
          "indexed": true,
          "internalType": "uint256",
          "name": "validatorId",
          "type": "uint256"
        },
        {
          "indexed": true,
          "internalType": "uint256",
          "name": "amount",
          "type": "uint256"
        },
        {
          "indexed": true,
          "internalType": "uint256",
          "name": "totalAmount",
          "type": "uint256"
        }
      ],
      "name": "ClaimRewards",
      "type": "event"
    },
    {
      "anonymous": false,
      "inputs": [
        {
          "indexed": true,
          "internalType": "uint256",
          "name": "validatorId",
          "type": "uint256"
        },
        {
          "indexed": true,
          "internalType": "uint256",
          "name": "amount",
          "type": "uint256"
        },
        {
          "indexed": true,
          "internalType": "uint256",
          "name": "auctionAmount",
          "type": "uint256"
        }
      ],
      "name": "StartAuction",
      "type": "event"
    },
    {
      "anonymous": false,
      "inputs": [
        {
          "indexed": true,
          "internalType": "uint256",
          "name": "newValidatorId",
          "type": "uint256"
        },
        {
          "indexed": true,
          "internalType": "uint256",
          "name": "oldValidatorId",
          "type": "uint256"
        },
        {
          "indexed": true,
          "internalType": "uint256",
          "name": "amount",
          "type": "uint256"
        }
      ],
      "name": "ConfirmAuction",
      "type": "event"
    },
    {
      "anonymous": false,
      "inputs": [
        {
          "indexed": true,
          "internalType": "uint256",
          "name": "validatorId",
          "type": "uint256"
        },
        {
          "indexed": true,
          "internalType": "uint256",
          "name": "fee",
          "type": "uint256"
        }
      ],
      "name": "TopUpFee",
      "type": "event"
    },
    {
      "anonymous": false,
      "inputs": [
        {
          "indexed": true,
          "internalType": "uint256",
          "name": "validatorId",
          "type": "uint256"
        },
        {
          "indexed": true,
          "internalType": "uint256",
          "name": "fee",
          "type": "uint256"
        }
      ],
      "name": "ClaimFee",
      "type": "event"
    },
    {
      "anonymous": false,
      "inputs": [
        {
          "indexed": true,
          "internalType": "uint256",
          "name": "validatorId",
          "type": "uint256"
        },
        {
          "indexed": true,
          "internalType": "address",
          "name": "user",
          "type": "address"
        },
        {
          "indexed": true,
          "internalType": "uint256",
          "name": "amount",
          "type": "uint256"
        },
        {
          "indexed": false,
          "internalType": "uint256",
          "name": "tokens",
          "type": "uint256"
        }
      ],
      "name": "ShareMinted",
      "type": "event"
    },
    {
      "anonymous": false,
      "inputs": [
        {
          "indexed": true,
          "internalType": "uint256",
          "name": "validatorId",
          "type": "uint256"
        },
        {
          "indexed": true,
          "internalType": "address",
          "name": "user",
          "type": "address"
        },
        {
          "indexed": true,
          "internalType": "uint256",
          "name": "amount",
          "type": "uint256"
        },
        {
          "indexed": false,
          "internalType": "uint256",
          "name": "tokens",
          "type": "uint256"
        }
      ],
      "name": "ShareBurned",
      "type": "event"
    },
    {
      "anonymous": false,
      "inputs": [
        {
          "indexed": true,
          "internalType": "uint256",
          "name": "validatorId",
          "type": "uint256"
        },
        {
          "indexed": true,
          "internalType": "address",
          "name": "user",
          "type": "address"
        },
        {
          "indexed": true,
          "internalType": "uint256",
          "name": "rewards",
          "type": "uint256"
        },
        {
          "indexed": false,
          "internalType": "uint256",
          "name": "tokens",
          "type": "uint256"
        }
      ],
      "name": "DelClaimRewards",
      "type": "event"
    },
    {
      "anonymous": false,
      "inputs": [
        {
          "indexed": true,
          "internalType": "uint256",
          "name": "validatorId",
          "type": "uint256"
        },
        {
          "indexed": true,
          "internalType": "uint256",
          "name": "newCommissionRate",
          "type": "uint256"
        },
        {
          "indexed": true,
          "internalType": "uint256",
          "name": "oldCommissionRate",
          "type": "uint256"
        }
      ],
      "name": "UpdateCommissionRate",
      "type": "event"
    },
    {
      "constant": false,
      "inputs": [
        {
          "internalType": "address",
          "name": "signer",
          "type": "address"
        },
        {
          "internalType": "uint256",
          "name": "validatorId",
          "type": "uint256"
        },
        {
          "internalType": "uint256",
          "name": "activationEpoch",
          "type": "uint256"
        },
        {
          "internalType": "uint256",
          "name": "amount",
          "type": "uint256"
        },
        {
          "internalType": "uint256",
          "name": "total",
          "type": "uint256"
        }
      ],
      "name": "logStaked",
      "outputs": [],
      "payable": false,
      "stateMutability": "nonpayable",
      "type": "function"
    },
    {
      "constant": false,
      "inputs": [
        {
          "internalType": "address",
          "name": "user",
          "type": "address"
        },
        {
          "internalType": "uint256",
          "name": "validatorId",
          "type": "uint256"
        },
        {
          "internalType": "uint256",
          "name": "amount",
          "type": "uint256"
        },
        {
          "internalType": "uint256",
          "name": "total",
          "type": "uint256"
        }
      ],
      "name": "logUnstaked",
      "outputs": [],
      "payable": false,
      "stateMutability": "nonpayable",
      "type": "function"
    },
    {
      "constant": false,
      "inputs": [
        {
          "internalType": "address",
          "name": "user",
          "type": "address"
        },
        {
          "internalType": "uint256",
          "name": "validatorId",
          "type": "uint256"
        },
        {
          "internalType": "uint256",
          "name": "deactivationEpoch",
          "type": "uint256"
        },
        {
          "internalType": "uint256",
          "name": "amount",
          "type": "uint256"
        }
      ],
      "name": "logUnstakeInit",
      "outputs": [],
      "payable": false,
      "stateMutability": "nonpayable",
      "type": "function"
    },
    {
      "constant": false,
      "inputs": [
        {
          "internalType": "uint256",
          "name": "validatorId",
          "type": "uint256"
        },
        {
          "internalType": "address",
          "name": "oldSigner",
          "type": "address"
        },
        {
          "internalType": "address",
          "name": "newSigner",
          "type": "address"
        }
      ],
      "name": "logSignerChange",
      "outputs": [],
      "payable": false,
      "stateMutability": "nonpayable",
      "type": "function"
    },
    {
      "constant": false,
      "inputs": [
        {
          "internalType": "uint256",
          "name": "validatorId",
          "type": "uint256"
        },
        {
          "internalType": "uint256",
          "name": "amount",
          "type": "uint256"
        },
        {
          "internalType": "uint256",
          "name": "total",
          "type": "uint256"
        }
      ],
      "name": "logReStaked",
      "outputs": [],
      "payable": false,
      "stateMutability": "nonpayable",
      "type": "function"
    },
    {
      "constant": false,
      "inputs": [
        {
          "internalType": "uint256",
          "name": "validatorId",
          "type": "uint256"
        },
        {
          "internalType": "uint256",
          "name": "exitEpoch",
          "type": "uint256"
        }
      ],
      "name": "logJailed",
      "outputs": [],
      "payable": false,
      "stateMutability": "nonpayable",
      "type": "function"
    },
    {
      "constant": false,
      "inputs": [
        {
          "internalType": "uint256",
          "name": "newThreshold",
          "type": "uint256"
        },
        {
          "internalType": "uint256",
          "name": "oldThreshold",
          "type": "uint256"
        }
      ],
      "name": "logThresholdChange",
      "outputs": [],
      "payable": false,
      "stateMutability": "nonpayable",
      "type": "function"
    },
    {
      "constant": false,
      "inputs": [
        {
          "internalType": "uint256",
          "name": "newDynasty",
          "type": "uint256"
        },
        {
          "internalType": "uint256",
          "name": "oldDynasty",
          "type": "uint256"
        }
      ],
      "name": "logDynastyValueChange",
      "outputs": [],
      "payable": false,
      "stateMutability": "nonpayable",
      "type": "function"
    },
    {
      "constant": false,
      "inputs": [
        {
          "internalType": "uint256",
          "name": "newReward",
          "type": "uint256"
        },
        {
          "internalType": "uint256",
          "name": "oldReward",
          "type": "uint256"
        }
      ],
      "name": "logRewardUpdate",
      "outputs": [],
      "payable": false,
      "stateMutability": "nonpayable",
      "type": "function"
    },
    {
      "constant": false,
      "inputs": [
        {
          "internalType": "uint256",
          "name": "validatorId",
          "type": "uint256"
        }
      ],
      "name": "logStakeUpdate",
      "outputs": [],
      "payable": false,
      "stateMutability": "nonpayable",
      "type": "function"
    },
    {
      "constant": false,
      "inputs": [
        {
          "internalType": "uint256",
          "name": "validatorId",
          "type": "uint256"
        },
        {
          "internalType": "uint256",
          "name": "amount",
          "type": "uint256"
        },
        {
          "internalType": "uint256",
          "name": "totalAmount",
          "type": "uint256"
        }
      ],
      "name": "logClaimRewards",
      "outputs": [],
      "payable": false,
      "stateMutability": "nonpayable",
      "type": "function"
    },
    {
      "constant": false,
      "inputs": [
        {
          "internalType": "uint256",
          "name": "validatorId",
          "type": "uint256"
        },
        {
          "internalType": "uint256",
          "name": "amount",
          "type": "uint256"
        },
        {
          "internalType": "uint256",
          "name": "auctionAmount",
          "type": "uint256"
        }
      ],
      "name": "logStartAuction",
      "outputs": [],
      "payable": false,
      "stateMutability": "nonpayable",
      "type": "function"
    },
    {
      "constant": false,
      "inputs": [
        {
          "internalType": "uint256",
          "name": "newValidatorId",
          "type": "uint256"
        },
        {
          "internalType": "uint256",
          "name": "oldValidatorId",
          "type": "uint256"
        },
        {
          "internalType": "uint256",
          "name": "amount",
          "type": "uint256"
        }
      ],
      "name": "logConfirmAuction",
      "outputs": [],
      "payable": false,
      "stateMutability": "nonpayable",
      "type": "function"
    },
    {
      "constant": false,
      "inputs": [
        {
          "internalType": "uint256",
          "name": "validatorId",
          "type": "uint256"
        },
        {
          "internalType": "uint256",
          "name": "fee",
          "type": "uint256"
        }
      ],
      "name": "logTopUpFee",
      "outputs": [],
      "payable": false,
      "stateMutability": "nonpayable",
      "type": "function"
    },
    {
      "constant": false,
      "inputs": [
        {
          "internalType": "uint256",
          "name": "validatorId",
          "type": "uint256"
        },
        {
          "internalType": "uint256",
          "name": "fee",
          "type": "uint256"
        }
      ],
      "name": "logClaimFee",
      "outputs": [],
      "payable": false,
      "stateMutability": "nonpayable",
      "type": "function"
    },
    {
      "constant": true,
      "inputs": [
        {
          "internalType": "uint256",
          "name": "validatorId",
          "type": "uint256"
        }
      ],
      "name": "getStakerDetails",
      "outputs": [
        {
          "internalType": "uint256",
          "name": "amount",
          "type": "uint256"
        },
        {
          "internalType": "uint256",
          "name": "activationEpoch",
          "type": "uint256"
        },
        {
          "internalType": "uint256",
          "name": "deactivationEpoch",
          "type": "uint256"
        },
        {
          "internalType": "address",
          "name": "signer",
          "type": "address"
        },
        {
          "internalType": "uint256",
          "name": "_status",
          "type": "uint256"
        }
      ],
      "payable": false,
      "stateMutability": "view",
      "type": "function"
    },
    {
      "constant": true,
      "inputs": [
        {
          "internalType": "uint256",
          "name": "validatorId",
          "type": "uint256"
        }
      ],
      "name": "totalValidatorStake",
      "outputs": [
        {
          "internalType": "uint256",
          "name": "validatorStake",
          "type": "uint256"
        }
      ],
      "payable": false,
      "stateMutability": "view",
      "type": "function"
    },
    {
      "constant": true,
      "inputs": [],
      "name": "getAccountStateRoot",
      "outputs": [
        {
          "internalType": "bytes32",
          "name": "accountStateRoot",
          "type": "bytes32"
        }
      ],
      "payable": false,
      "stateMutability": "view",
      "type": "function"
    },
    {
      "constant": true,
      "inputs": [
        {
          "internalType": "uint256",
          "name": "validatorId",
          "type": "uint256"
        }
      ],
      "name": "getValidatorContractAddress",
      "outputs": [
        {
          "internalType": "address",
          "name": "ValidatorContract",
          "type": "address"
        }
      ],
      "payable": false,
      "stateMutability": "view",
      "type": "function"
    },
    {
      "constant": false,
      "inputs": [
        {
          "internalType": "uint256",
          "name": "validatorId",
          "type": "uint256"
        },
        {
          "internalType": "address",
          "name": "user",
          "type": "address"
        },
        {
          "internalType": "uint256",
          "name": "amount",
          "type": "uint256"
        },
        {
          "internalType": "uint256",
          "name": "tokens",
          "type": "uint256"
        }
      ],
      "name": "logShareMinted",
      "outputs": [],
      "payable": false,
      "stateMutability": "nonpayable",
      "type": "function"
    },
    {
      "constant": false,
      "inputs": [
        {
          "internalType": "uint256",
          "name": "validatorId",
          "type": "uint256"
        },
        {
          "internalType": "address",
          "name": "user",
          "type": "address"
        },
        {
          "internalType": "uint256",
          "name": "amount",
          "type": "uint256"
        },
        {
          "internalType": "uint256",
          "name": "tokens",
          "type": "uint256"
        }
      ],
      "name": "logShareBurned",
      "outputs": [],
      "payable": false,
      "stateMutability": "nonpayable",
      "type": "function"
    },
    {
      "constant": false,
      "inputs": [
        {
          "internalType": "uint256",
          "name": "validatorId",
          "type": "uint256"
        },
        {
          "internalType": "address",
          "name": "user",
          "type": "address"
        },
        {
          "internalType": "uint256",
          "name": "rewards",
          "type": "uint256"
        },
        {
          "internalType": "uint256",
          "name": "tokens",
          "type": "uint256"
        }
      ],
      "name": "logDelClaimRewards",
      "outputs": [],
      "payable": false,
      "stateMutability": "nonpayable",
      "type": "function"
    },
    {
      "constant": false,
      "inputs": [
        {
          "internalType": "uint256",
          "name": "validatorId",
          "type": "uint256"
        },
        {
          "internalType": "uint256",
          "name": "newCommissionRate",
          "type": "uint256"
        },
        {
          "internalType": "uint256",
          "name": "oldCommissionRate",
          "type": "uint256"
        }
      ],
      "name": "logUpdateCommissionRate",
      "outputs": [],
      "payable": false,
      "stateMutability": "nonpayable",
      "type": "function"
    }
  ],
  "bytecode": "0x608060405234801561001057600080fd5b50604051611bb3380380611bb38339818101604052602081101561003357600080fd5b5051600080546001600160a01b039092166001600160a01b0319909216919091179055611b4e806100656000396000f3fe608060405234801561001057600080fd5b50600436106101585760003560e01c8063a970c3b8116100c3578063c98cc0021161007c578063c98cc00214610481578063ca7d34b6146104aa578063cf572fe3146104c7578063e12ab1af146104ea578063f1382b5314610513578063f1980a501461054b57610158565b8063a970c3b81461034f578063ae2e26b11461038d578063af4cdabf146103c5578063b685b26a146103fd578063b6fa74c414610426578063c69d05731461044957610158565b8063532e19a911610115578063532e19a91461024a5780635e04d4831461026757806378daaf691461029f5780637b103999146102f05780639a0808e4146102f8578063a0e300a61461032c57610158565b80630934a6df1461015d5780630974955a14610188578063178d46aa146101ab578063242c1b99146101e45780634760c00a1461020d5780634b6b87ce14610230575b600080fd5b6101866004803603606081101561017357600080fd5b508035906020810135906040013561056e565b005b6101866004803603604081101561019e57600080fd5b5080359060200135610625565b6101c8600480360360208110156101c157600080fd5b50356106d9565b604080516001600160a01b039092168252519081900360200190f35b610186600480360360608110156101fa57600080fd5b50803590602081013590604001356107d4565b6101866004803603604081101561022357600080fd5b5080359060200135610896565b61023861094a565b60408051918252519081900360200190f35b6101866004803603602081101561026057600080fd5b5035610a38565b6101866004803603608081101561027d57600080fd5b506001600160a01b038135169060208101359060408101359060600135610b95565b6102bc600480360360208110156102b557600080fd5b5035610c61565b604080519586526020860194909452848401929092526001600160a01b031660608401526080830152519081900360a00190f35b6101c8610d9a565b6101866004803603606081101561030e57600080fd5b508035906001600160a01b0360208201358116916040013516610da9565b6101866004803603604081101561034257600080fd5b5080359060200135610e72565b610186600480360360a081101561036557600080fd5b506001600160a01b038135169060208101359060408101359060608101359060800135610f34565b610186600480360360808110156103a357600080fd5b506001600160a01b038135169060208101359060408101359060600135611009565b610186600480360360808110156103db57600080fd5b508035906001600160a01b0360208201351690604081013590606001356110dc565b6101866004803603606081101561041357600080fd5b508035906020810135906040013561122a565b6101866004803603604081101561043c57600080fd5b50803590602001356112e1565b6101866004803603608081101561045f57600080fd5b508035906001600160a01b0360208201351690604081013590606001356113a3565b6101866004803603606081101561049757600080fd5b50803590602081013590604001356114f1565b610238600480360360208110156104c057600080fd5b503561162a565b610186600480360360408110156104dd57600080fd5b508035906020013561179e565b6101866004803603606081101561050057600080fd5b5080359060208101359060400135611852565b6101866004803603608081101561052957600080fd5b508035906001600160a01b036020820135169060408101359060600135611909565b6101866004803603604081101561056157600080fd5b5080359060200135611a57565b60005460408051630a1ef8f960e21b8152905133926001600160a01b03169163287be3e4916004808301926020929190829003018186803b1580156105b257600080fd5b505afa1580156105c6573d6000803e3d6000fd5b505050506040513d60208110156105dc57600080fd5b50516001600160a01b0316146105f157600080fd5b8082847f683d0f47c7fa11331f4e9563b3f5a7fdc3d3c5b75c600357a91d991f5a13a43760405160405180910390a4505050565b60005460408051630a1ef8f960e21b8152905133926001600160a01b03169163287be3e4916004808301926020929190829003018186803b15801561066957600080fd5b505afa15801561067d573d6000803e3d6000fd5b505050506040513d602081101561069357600080fd5b50516001600160a01b0316146106a857600080fd5b604051819083907fa1735a3843d9467dd849a217582720a8af66b9d034712e0b21b0f5ece80670cd90600090a35050565b60008060009054906101000a90046001600160a01b03166001600160a01b031663287be3e46040518163ffffffff1660e01b815260040160206040518083038186803b15801561072857600080fd5b505afa15801561073c573d6000803e3d6000fd5b505050506040513d602081101561075257600080fd5b505160408051630d6a8b9160e21b81526004810185905290516001600160a01b03909216916335aa2e449160248082019261010092909190829003018186803b15801561079e57600080fd5b505afa1580156107b2573d6000803e3d6000fd5b505050506040513d6101008110156107c957600080fd5b5060c0015192915050565b60005460408051630a1ef8f960e21b8152905133926001600160a01b03169163287be3e4916004808301926020929190829003018186803b15801561081857600080fd5b505afa15801561082c573d6000803e3d6000fd5b505050506040513d602081101561084257600080fd5b50516001600160a01b03161461085757600080fd5b6040805183815260208101839052815185927f9cc0e589f20d3310eb2ad571b23529003bd46048d0d1af29277dcf0aa3c398ce928290030190a2505050565b60005460408051630a1ef8f960e21b8152905133926001600160a01b03169163287be3e4916004808301926020929190829003018186803b1580156108da57600080fd5b505afa1580156108ee573d6000803e3d6000fd5b505050506040513d602081101561090457600080fd5b50516001600160a01b03161461091957600080fd5b604051819083907faa00896a0cd7a8e4baccfe087fc5c9edc14be99df96ae50aa2e4b427c132e2c390600090a35050565b60008060009054906101000a90046001600160a01b03166001600160a01b031663287be3e46040518163ffffffff1660e01b815260040160206040518083038186803b15801561099957600080fd5b505afa1580156109ad573d6000803e3d6000fd5b505050506040513d60208110156109c357600080fd5b50516040805163017c2b9160e41b815290516001600160a01b03909216916317c2b91091600480820192602092909190829003018186803b158015610a0757600080fd5b505afa158015610a1b573d6000803e3d6000fd5b505050506040513d6020811015610a3157600080fd5b5051919050565b806000806000809054906101000a90046001600160a01b03166001600160a01b031663287be3e46040518163ffffffff1660e01b815260040160206040518083038186803b158015610a8957600080fd5b505afa158015610a9d573d6000803e3d6000fd5b505050506040513d6020811015610ab357600080fd5b505160408051630d6a8b9160e21b81526004810186905290519192506001600160a01b038316916335aa2e449160248082019261010092909190829003018186803b158015610b0157600080fd5b505afa158015610b15573d6000803e3d6000fd5b505050506040513d610100811015610b2c57600080fd5b5060c0015191506001600160a01b038216331480610b5257506001600160a01b03811633145b610b5b57600080fd5b610b648461162a565b60405185907f8a9fd81e4de0eb5b1f4055c5b30b562c02c95613ea0c5259c23033a90d1de4b490600090a350505050565b60005460408051630a1ef8f960e21b8152905133926001600160a01b03169163287be3e4916004808301926020929190829003018186803b158015610bd957600080fd5b505afa158015610bed573d6000803e3d6000fd5b505050506040513d6020811015610c0357600080fd5b50516001600160a01b031614610c1857600080fd5b8083856001600160a01b03167f51ff6d8ad000896362d1a3c9de9ad835adb6da92ec3ddee44018ef64f3c8b561856040518082815260200191505060405180910390a450505050565b6000806000806000806000809054906101000a90046001600160a01b03166001600160a01b031663287be3e46040518163ffffffff1660e01b815260040160206040518083038186803b158015610cb757600080fd5b505afa158015610ccb573d6000803e3d6000fd5b505050506040513d6020811015610ce157600080fd5b505160408051630d6a8b9160e21b8152600481018a905290519192506000916001600160a01b038416916335aa2e4491602480830192610100929190829003018186803b158015610d3157600080fd5b505afa158015610d45573d6000803e3d6000fd5b505050506040513d610100811015610d5c57600080fd5b5080516040820151606083015160a084015160e090940151929a5090985096509094509050806003811115610d8d57fe5b9250505091939590929450565b6000546001600160a01b031681565b60005460408051630a1ef8f960e21b8152905133926001600160a01b03169163287be3e4916004808301926020929190829003018186803b158015610ded57600080fd5b505afa158015610e01573d6000803e3d6000fd5b505050506040513d6020811015610e1757600080fd5b50516001600160a01b031614610e2c57600080fd5b806001600160a01b0316826001600160a01b0316847f7dfd3bad1e3cac97d3b89ff06d78394523c4f08fdee4daa71a59160003240c8960405160405180910390a4505050565b60005460408051630a1ef8f960e21b8152905133926001600160a01b03169163287be3e4916004808301926020929190829003018186803b158015610eb657600080fd5b505afa158015610eca573d6000803e3d6000fd5b505050506040513d6020811015610ee057600080fd5b50516001600160a01b031614610ef557600080fd5b604080518381526020810183905281517f9444bfcfa6aed72a15da73de1220dcc07d7864119c44abfec0037bbcacefda98929181900390910190a15050565b60005460408051630a1ef8f960e21b8152905133926001600160a01b03169163287be3e4916004808301926020929190829003018186803b158015610f7857600080fd5b505afa158015610f8c573d6000803e3d6000fd5b505050506040513d6020811015610fa257600080fd5b50516001600160a01b031614610fb757600080fd5b8284866001600160a01b03167f9cfd25589d1eb8ad71e342a86a8524e83522e3936c0803048c08f6d9ad974f408585604051808381526020018281526020019250505060405180910390a45050505050565b60005460408051630a1ef8f960e21b8152905133926001600160a01b03169163287be3e4916004808301926020929190829003018186803b15801561104d57600080fd5b505afa158015611061573d6000803e3d6000fd5b505050506040513d602081101561107757600080fd5b50516001600160a01b03161461108c57600080fd5b82846001600160a01b03167f204fccf0d92ed8d48f204adb39b2e81e92bad0dedb93f5716ca9478cfb57de008484604051808381526020018281526020019250505060405180910390a350505050565b6000805460408051630a1ef8f960e21b815290518793926001600160a01b03169163287be3e4916004808301926020929190829003018186803b15801561112257600080fd5b505afa158015611136573d6000803e3d6000fd5b505050506040513d602081101561114c57600080fd5b505160408051630d6a8b9160e21b81526004810185905290516001600160a01b03909216916335aa2e449160248082019261010092909190829003018186803b15801561119857600080fd5b505afa1580156111ac573d6000803e3d6000fd5b505050506040513d6101008110156111c357600080fd5b5060c0015190506001600160a01b03811633146111df57600080fd5b83856001600160a01b0316877f8df3db2462011d9f79ea35850218e22b9fc11eca880b4b674d6a2e36e52faf90866040518082815260200191505060405180910390a4505050505050565b60005460408051630a1ef8f960e21b8152905133926001600160a01b03169163287be3e4916004808301926020929190829003018186803b15801561126e57600080fd5b505afa158015611282573d6000803e3d6000fd5b505050506040513d602081101561129857600080fd5b50516001600160a01b0316146112ad57600080fd5b8082847f41e5e4590cfcde2f03ee9281c54d03acad8adffb83f8310d66b894532470ba3560405160405180910390a4505050565b60005460408051630a1ef8f960e21b8152905133926001600160a01b03169163287be3e4916004808301926020929190829003018186803b15801561132557600080fd5b505afa158015611339573d6000803e3d6000fd5b505050506040513d602081101561134f57600080fd5b50516001600160a01b03161461136457600080fd5b604080518381526020810183905281517ff67f33e8589d3ea0356303c0f9a8e764873692159f777ff79e4fc523d389dfcd929181900390910190a15050565b6000805460408051630a1ef8f960e21b815290518793926001600160a01b03169163287be3e4916004808301926020929190829003018186803b1580156113e957600080fd5b505afa1580156113fd573d6000803e3d6000fd5b505050506040513d602081101561141357600080fd5b505160408051630d6a8b9160e21b81526004810185905290516001600160a01b03909216916335aa2e449160248082019261010092909190829003018186803b15801561145f57600080fd5b505afa158015611473573d6000803e3d6000fd5b505050506040513d61010081101561148a57600080fd5b5060c0015190506001600160a01b03811633146114a657600080fd5b83856001600160a01b0316877fc9afff0972d33d68c8d330fe0ebd0e9f54491ad8c59ae17330a9206f280f0865866040518082815260200191505060405180910390a4505050505050565b6000805460408051630a1ef8f960e21b815290518693926001600160a01b03169163287be3e4916004808301926020929190829003018186803b15801561153757600080fd5b505afa15801561154b573d6000803e3d6000fd5b505050506040513d602081101561156157600080fd5b505160408051630d6a8b9160e21b81526004810185905290516001600160a01b03909216916335aa2e449160248082019261010092909190829003018186803b1580156115ad57600080fd5b505afa1580156115c1573d6000803e3d6000fd5b505050506040513d6101008110156115d857600080fd5b5060c0015190506001600160a01b03811633146115f457600080fd5b8284867f7d5da5ece9d43013d62ab966f4704ca376b92be29ca6fbb958154baf1c0dc17e60405160405180910390a45050505050565b6000805460408051630a1ef8f960e21b8152905183926001600160a01b03169163287be3e4916004808301926020929190829003018186803b15801561166f57600080fd5b505afa158015611683573d6000803e3d6000fd5b505050506040513d602081101561169957600080fd5b505160408051630d6a8b9160e21b81526004810186905290516001600160a01b03909216916335aa2e449160248082019261010092909190829003018186803b1580156116e557600080fd5b505afa1580156116f9573d6000803e3d6000fd5b505050506040513d61010081101561171057600080fd5b50805160c09091015190925090506001600160a01b0381161561179857806001600160a01b0316633a09bf446040518163ffffffff1660e01b815260040160206040518083038186803b15801561176657600080fd5b505afa15801561177a573d6000803e3d6000fd5b505050506040513d602081101561179057600080fd5b505191909101905b50919050565b60005460408051630a1ef8f960e21b8152905133926001600160a01b03169163287be3e4916004808301926020929190829003018186803b1580156117e257600080fd5b505afa1580156117f6573d6000803e3d6000fd5b505050506040513d602081101561180c57600080fd5b50516001600160a01b03161461182157600080fd5b604051819083907f48b06b1a71c95ebd2ca58625da601bd9103a72670daa6d769054365cd81d5e3990600090a35050565b60005460408051630a1ef8f960e21b8152905133926001600160a01b03169163287be3e4916004808301926020929190829003018186803b15801561189657600080fd5b505afa1580156118aa573d6000803e3d6000fd5b505050506040513d60208110156118c057600080fd5b50516001600160a01b0316146118d557600080fd5b8082847f1002381ecf76700f6f0ab4c90b9f523e39df7b0482b71ec63cf62cf85412047060405160405180910390a4505050565b6000805460408051630a1ef8f960e21b815290518793926001600160a01b03169163287be3e4916004808301926020929190829003018186803b15801561194f57600080fd5b505afa158015611963573d6000803e3d6000fd5b505050506040513d602081101561197957600080fd5b505160408051630d6a8b9160e21b81526004810185905290516001600160a01b03909216916335aa2e449160248082019261010092909190829003018186803b1580156119c557600080fd5b505afa1580156119d9573d6000803e3d6000fd5b505050506040513d6101008110156119f057600080fd5b5060c0015190506001600160a01b0381163314611a0c57600080fd5b83856001600160a01b0316877f7e86625aa6e668407f095af342e0cc237809c4c5086b4d665a0067de122980a9866040518082815260200191505060405180910390a4505050505050565b60005460408051630a1ef8f960e21b8152905133926001600160a01b03169163287be3e4916004808301926020929190829003018186803b158015611a9b57600080fd5b505afa158015611aaf573d6000803e3d6000fd5b505050506040513d6020811015611ac557600080fd5b50516001600160a01b031614611ada57600080fd5b604080518381526020810183905281517f5d16a900896e1160c2033bc940e6b072d3dc3b6a996fefb9b3b9b9678841824c929181900390910190a1505056fea265627a7a723158208d3cfc9aa8346f88be87e627d989d0afb20a8b88dfa74fb8068fc26302eb1b2264736f6c634300050b0032",
  "source": "pragma solidity ^0.5.2;\n\nimport {Registry} from \"../common/Registry.sol\";\n\n// dummy interface to avoid cyclic dependency\ncontract IStakeManager {\n    enum Status {Inactive, Active, Locked, Unstaked}\n\n    struct Validator {\n        uint256 amount;\n        uint256 reward;\n        uint256 activationEpoch;\n        uint256 deactivationEpoch;\n        uint256 jailTime;\n        address signer;\n        address contractAddress;\n        Status status;\n    }\n\n    mapping(uint256 => Validator) public validators;\n    bytes32 public accountStateRoot;\n    uint256 public activeAmount; // delegation amount from validator contract\n}\n\ncontract StakingInfo {\n    event Staked(\n        address indexed signer,\n        uint256 indexed validatorId,\n        uint256 indexed activationEpoch,\n        uint256 amount,\n        uint256 total\n    );\n    event Unstaked(\n        address indexed user,\n        uint256 indexed validatorId,\n        uint256 amount,\n        uint256 total\n    );\n    // event to ack unstaking which will start at deactivationEpoch\n    event UnstakeInit(\n        address indexed user,\n        uint256 indexed validatorId,\n        uint256 deactivationEpoch,\n        uint256 indexed amount\n    );\n\n    event SignerChange(\n        uint256 indexed validatorId,\n        address indexed oldSigner,\n        address indexed newSigner\n    );\n    event ReStaked(uint256 indexed validatorId, uint256 amount, uint256 total);\n    event Jailed(uint256 indexed validatorId, uint256 indexed exitEpoch);\n    event ThresholdChange(uint256 newThreshold, uint256 oldThreshold);\n    event DynastyValueChange(uint256 newDynasty, uint256 oldDynasty);\n    event RewardUpdate(uint256 newReward, uint256 oldReward);\n    event StakeUpdate(uint256 indexed validatorId, uint256 indexed newAmount);\n    event ClaimRewards(\n        uint256 indexed validatorId,\n        uint256 indexed amount,\n        uint256 indexed totalAmount\n    );\n    event StartAuction(\n        uint256 indexed validatorId,\n        uint256 indexed amount,\n        uint256 indexed auctionAmount\n    );\n    event ConfirmAuction(\n        uint256 indexed newValidatorId,\n        uint256 indexed oldValidatorId,\n        uint256 indexed amount\n    );\n    event TopUpFee(uint256 indexed validatorId, uint256 indexed fee);\n    event ClaimFee(uint256 indexed validatorId, uint256 indexed fee);\n    // Delegator events\n    event ShareMinted(\n        uint256 indexed validatorId,\n        address indexed user,\n        uint256 indexed amount,\n        uint256 tokens\n    );\n    event ShareBurned(\n        uint256 indexed validatorId,\n        address indexed user,\n        uint256 indexed amount,\n        uint256 tokens\n    );\n    event DelClaimRewards(\n        uint256 indexed validatorId,\n        address indexed user,\n        uint256 indexed rewards,\n        uint256 tokens\n    );\n    event UpdateCommissionRate(\n        uint256 indexed validatorId,\n        uint256 indexed newCommissionRate,\n        uint256 indexed oldCommissionRate\n    );\n\n    Registry public registry;\n\n    modifier onlyValidatorContract(uint256 validatorId) {\n        address _contract;\n        (, , , , , , _contract, ) = IStakeManager(\n            registry.getStakeManagerAddress()\n        )\n            .validators(validatorId);\n        require(_contract == msg.sender);\n        _;\n    }\n\n    modifier StakeManagerOrValidatorContract(uint256 validatorId) {\n        address _contract;\n        address _stakeManager = registry.getStakeManagerAddress();\n        (, , , , , , _contract, ) = IStakeManager(_stakeManager).validators(\n            validatorId\n        );\n        require(_contract == msg.sender || _stakeManager == msg.sender);\n        _;\n    }\n\n    modifier onlyStakeManager() {\n        require(registry.getStakeManagerAddress() == msg.sender);\n        _;\n    }\n\n    constructor(address _registry) public {\n        registry = Registry(_registry);\n    }\n\n    function logStaked(\n        address signer,\n        uint256 validatorId,\n        uint256 activationEpoch,\n        uint256 amount,\n        uint256 total\n    ) public onlyStakeManager {\n        emit Staked(signer, validatorId, activationEpoch, amount, total);\n    }\n\n    function logUnstaked(\n        address user,\n        uint256 validatorId,\n        uint256 amount,\n        uint256 total\n    ) public onlyStakeManager {\n        emit Unstaked(user, validatorId, amount, total);\n    }\n\n    function logUnstakeInit(\n        address user,\n        uint256 validatorId,\n        uint256 deactivationEpoch,\n        uint256 amount\n    ) public onlyStakeManager {\n        emit UnstakeInit(user, validatorId, deactivationEpoch, amount);\n    }\n\n    function logSignerChange(\n        uint256 validatorId,\n        address oldSigner,\n        address newSigner\n    ) public onlyStakeManager {\n        emit SignerChange(validatorId, oldSigner, newSigner);\n    }\n\n    function logReStaked(uint256 validatorId, uint256 amount, uint256 total)\n        public\n        onlyStakeManager\n    {\n        emit ReStaked(validatorId, amount, total);\n    }\n\n    function logJailed(uint256 validatorId, uint256 exitEpoch)\n        public\n        onlyStakeManager\n    {\n        emit Jailed(validatorId, exitEpoch);\n    }\n\n    function logThresholdChange(uint256 newThreshold, uint256 oldThreshold)\n        public\n        onlyStakeManager\n    {\n        emit ThresholdChange(newThreshold, oldThreshold);\n    }\n\n    function logDynastyValueChange(uint256 newDynasty, uint256 oldDynasty)\n        public\n        onlyStakeManager\n    {\n        emit DynastyValueChange(newDynasty, oldDynasty);\n    }\n\n    function logRewardUpdate(uint256 newReward, uint256 oldReward)\n        public\n        onlyStakeManager\n    {\n        emit RewardUpdate(newReward, oldReward);\n    }\n\n    function logStakeUpdate(uint256 validatorId)\n        public\n        StakeManagerOrValidatorContract(validatorId)\n    {\n        emit StakeUpdate(validatorId, totalValidatorStake(validatorId));\n    }\n\n    function logClaimRewards(\n        uint256 validatorId,\n        uint256 amount,\n        uint256 totalAmount\n    ) public onlyStakeManager {\n        emit ClaimRewards(validatorId, amount, totalAmount);\n    }\n\n    function logStartAuction(\n        uint256 validatorId,\n        uint256 amount,\n        uint256 auctionAmount\n    ) public onlyStakeManager {\n        emit StartAuction(validatorId, amount, auctionAmount);\n    }\n\n    function logConfirmAuction(\n        uint256 newValidatorId,\n        uint256 oldValidatorId,\n        uint256 amount\n    ) public onlyStakeManager {\n        emit ConfirmAuction(newValidatorId, oldValidatorId, amount);\n    }\n\n    function logTopUpFee(uint256 validatorId, uint256 fee)\n        public\n        onlyStakeManager\n    {\n        emit TopUpFee(validatorId, fee);\n    }\n\n    function logClaimFee(uint256 validatorId, uint256 fee)\n        public\n        onlyStakeManager\n    {\n        emit ClaimFee(validatorId, fee);\n    }\n\n    function getStakerDetails(uint256 validatorId)\n        public\n        view\n        returns (\n            uint256 amount,\n            uint256 activationEpoch,\n            uint256 deactivationEpoch,\n            address signer,\n            uint256 _status\n        )\n    {\n        IStakeManager stakeManager = IStakeManager(\n            registry.getStakeManagerAddress()\n        );\n        IStakeManager.Status status;\n        (\n            amount,\n            ,\n            activationEpoch,\n            deactivationEpoch,\n            ,\n            signer,\n            ,\n            status\n        ) = stakeManager.validators(validatorId);\n        _status = uint256(status);\n    }\n\n    function totalValidatorStake(uint256 validatorId)\n        public\n        view\n        returns (uint256 validatorStake)\n    {\n        address contractAddress;\n        (validatorStake, , , , , , contractAddress, ) = IStakeManager(\n            registry.getStakeManagerAddress()\n        )\n            .validators(validatorId);\n        if (contractAddress != address(0x0)) {\n            validatorStake += IStakeManager(contractAddress).activeAmount();\n        }\n    }\n\n    function getAccountStateRoot()\n        public\n        view\n        returns (bytes32 accountStateRoot)\n    {\n        accountStateRoot = IStakeManager(registry.getStakeManagerAddress())\n            .accountStateRoot();\n    }\n\n    function getValidatorContractAddress(uint256 validatorId)\n        public\n        view\n        returns (address ValidatorContract)\n    {\n        (, , , , , , ValidatorContract, ) = IStakeManager(\n            registry.getStakeManagerAddress()\n        )\n            .validators(validatorId);\n    }\n\n    // validator Share contract logging func\n    function logShareMinted(\n        uint256 validatorId,\n        address user,\n        uint256 amount,\n        uint256 tokens\n    ) public onlyValidatorContract(validatorId) {\n        emit ShareMinted(validatorId, user, amount, tokens);\n    }\n\n    function logShareBurned(\n        uint256 validatorId,\n        address user,\n        uint256 amount,\n        uint256 tokens\n    ) public onlyValidatorContract(validatorId) {\n        emit ShareBurned(validatorId, user, amount, tokens);\n    }\n\n    function logDelClaimRewards(\n        uint256 validatorId,\n        address user,\n        uint256 rewards,\n        uint256 tokens\n    ) public onlyValidatorContract(validatorId) {\n        emit DelClaimRewards(validatorId, user, rewards, tokens);\n    }\n\n    function logUpdateCommissionRate(\n        uint256 validatorId,\n        uint256 newCommissionRate,\n        uint256 oldCommissionRate\n    ) public onlyValidatorContract(validatorId) {\n        emit UpdateCommissionRate(\n            validatorId,\n            newCommissionRate,\n            oldCommissionRate\n        );\n    }\n\n}\n",
  "sourcePath": "/Users/arth/Documents/Projects/contracts/contracts/staking/StakingInfo.sol",
  "compiler": {
    "name": "solc",
    "version": "0.5.11+commit.c082d0b4.Emscripten.clang"
  },
  "schemaVersion": "3.0.14",
  "updatedAt": "2020-02-20T10:11:00.463Z",
  "devdoc": {
    "methods": {}
  },
  "userdoc": {
    "methods": {}
  }
}