{
  "contractName": "StakeManagerTest",
  "abi": [
    {
      "constant": true,
      "inputs": [],
      "name": "getCurrentValidatorSet",
      "outputs": [
        {
          "internalType": "uint256[]",
          "name": "",
          "type": "uint256[]"
        }
      ],
      "payable": false,
      "stateMutability": "view",
      "type": "function"
    },
    {
      "constant": false,
      "inputs": [
        {
          "internalType": "uint256",
          "name": "amount",
          "type": "uint256"
        },
        {
          "internalType": "uint256",
          "name": "heimdallFee",
          "type": "uint256"
        },
        {
          "internalType": "address",
          "name": "signer",
          "type": "address"
        },
        {
          "internalType": "bool",
          "name": "acceptDelegation",
          "type": "bool"
        }
      ],
      "name": "stake",
      "outputs": [],
      "payable": false,
      "stateMutability": "nonpayable",
      "type": "function"
    },
    {
      "constant": true,
      "inputs": [],
      "name": "auctionPeriod",
      "outputs": [
        {
          "internalType": "uint256",
          "name": "",
          "type": "uint256"
        }
      ],
      "payable": false,
      "stateMutability": "view",
      "type": "function"
    },
    {
      "constant": true,
      "inputs": [],
      "name": "totalRewards",
      "outputs": [
        {
          "internalType": "uint256",
          "name": "",
          "type": "uint256"
        }
      ],
      "payable": false,
      "stateMutability": "view",
      "type": "function"
    },
    {
      "constant": true,
      "inputs": [],
      "name": "WITHDRAWAL_DELAY",
      "outputs": [
        {
          "internalType": "uint256",
          "name": "",
          "type": "uint256"
        }
      ],
      "payable": false,
      "stateMutability": "view",
      "type": "function"
    },
    {
      "constant": false,
      "inputs": [
        {
          "internalType": "address",
          "name": "_registry",
          "type": "address"
        },
        {
          "internalType": "address",
          "name": "_rootchain",
          "type": "address"
        },
        {
          "internalType": "address",
          "name": "_NFTContract",
          "type": "address"
        },
        {
          "internalType": "address",
          "name": "_stakingLogger",
          "type": "address"
        },
        {
          "internalType": "address",
          "name": "_ValidatorShareFactory",
          "type": "address"
        }
      ],
      "name": "updateConstructor",
      "outputs": [],
      "payable": false,
      "stateMutability": "nonpayable",
      "type": "function"
    },
    {
      "constant": false,
      "inputs": [
        {
          "internalType": "address",
          "name": "_token",
          "type": "address"
        }
      ],
      "name": "setToken",
      "outputs": [],
      "payable": false,
      "stateMutability": "nonpayable",
      "type": "function"
    },
    {
      "constant": false,
      "inputs": [
        {
          "internalType": "uint256",
          "name": "newThreshold",
          "type": "uint256"
        }
      ],
      "name": "updateValidatorThreshold",
      "outputs": [],
      "payable": false,
      "stateMutability": "nonpayable",
      "type": "function"
    },
    {
      "constant": true,
      "inputs": [
        {
          "internalType": "address",
          "name": "user",
          "type": "address"
        }
      ],
      "name": "getValidatorId",
      "outputs": [
        {
          "internalType": "uint256",
          "name": "",
          "type": "uint256"
        }
      ],
      "payable": false,
      "stateMutability": "view",
      "type": "function"
    },
    {
      "constant": true,
      "inputs": [],
      "name": "accountStateRoot",
      "outputs": [
        {
          "internalType": "bytes32",
          "name": "",
          "type": "bytes32"
        }
      ],
      "payable": false,
      "stateMutability": "view",
      "type": "function"
    },
    {
      "constant": true,
      "inputs": [],
      "name": "checkPointBlockInterval",
      "outputs": [
        {
          "internalType": "uint256",
          "name": "",
          "type": "uint256"
        }
      ],
      "payable": false,
      "stateMutability": "view",
      "type": "function"
    },
    {
      "constant": true,
      "inputs": [
        {
          "internalType": "uint256",
          "name": "validatorId",
          "type": "uint256"
        }
      ],
      "name": "isValidator",
      "outputs": [
        {
          "internalType": "bool",
          "name": "",
          "type": "bool"
        }
      ],
      "payable": false,
      "stateMutability": "view",
      "type": "function"
    },
    {
      "constant": false,
      "inputs": [
        {
          "internalType": "uint256",
          "name": "validatorId",
          "type": "uint256"
        },
        {
          "internalType": "uint256",
          "name": "amount",
          "type": "uint256"
        },
        {
          "internalType": "bool",
          "name": "stakeRewards",
          "type": "bool"
        }
      ],
      "name": "restake",
      "outputs": [],
      "payable": false,
      "stateMutability": "nonpayable",
      "type": "function"
    },
    {
      "constant": false,
      "inputs": [
        {
          "internalType": "uint256",
          "name": "validatorId",
          "type": "uint256"
        }
      ],
      "name": "unstake",
      "outputs": [],
      "payable": false,
      "stateMutability": "nonpayable",
      "type": "function"
    },
    {
      "constant": true,
      "inputs": [],
      "name": "NFTContract",
      "outputs": [
        {
          "internalType": "contract StakingNFT",
          "name": "",
          "type": "address"
        }
      ],
      "payable": false,
      "stateMutability": "view",
      "type": "function"
    },
    {
      "constant": true,
      "inputs": [
        {
          "internalType": "uint256",
          "name": "validatorId",
          "type": "uint256"
        }
      ],
      "name": "perceivedStakeFactor",
      "outputs": [
        {
          "internalType": "uint256",
          "name": "",
          "type": "uint256"
        }
      ],
      "payable": false,
      "stateMutability": "view",
      "type": "function"
    },
    {
      "constant": true,
      "inputs": [
        {
          "internalType": "uint256",
          "name": "",
          "type": "uint256"
        }
      ],
      "name": "validators",
      "outputs": [
        {
          "internalType": "uint256",
          "name": "amount",
          "type": "uint256"
        },
        {
          "internalType": "uint256",
          "name": "reward",
          "type": "uint256"
        },
        {
          "internalType": "uint256",
          "name": "activationEpoch",
          "type": "uint256"
        },
        {
          "internalType": "uint256",
          "name": "deactivationEpoch",
          "type": "uint256"
        },
        {
          "internalType": "uint256",
          "name": "jailTime",
          "type": "uint256"
        },
        {
          "internalType": "address",
          "name": "signer",
          "type": "address"
        },
        {
          "internalType": "address",
          "name": "contractAddress",
          "type": "address"
        },
        {
          "internalType": "enum StakeManagerStorage.Status",
          "name": "status",
          "type": "uint8"
        }
      ],
      "payable": false,
      "stateMutability": "view",
      "type": "function"
    },
    {
      "constant": true,
      "inputs": [
        {
          "internalType": "address",
          "name": "",
          "type": "address"
        }
      ],
      "name": "signerToValidator",
      "outputs": [
        {
          "internalType": "uint256",
          "name": "",
          "type": "uint256"
        }
      ],
      "payable": false,
      "stateMutability": "view",
      "type": "function"
    },
    {
      "constant": false,
      "inputs": [
        {
          "internalType": "uint256",
          "name": "validatorId",
          "type": "uint256"
        }
      ],
      "name": "unJail",
      "outputs": [],
      "payable": false,
      "stateMutability": "nonpayable",
      "type": "function"
    },
    {
      "constant": true,
      "inputs": [],
      "name": "minDeposit",
      "outputs": [
        {
          "internalType": "uint256",
          "name": "",
          "type": "uint256"
        }
      ],
      "payable": false,
      "stateMutability": "view",
      "type": "function"
    },
    {
      "constant": false,
      "inputs": [
        {
          "internalType": "uint256",
          "name": "validatorId",
          "type": "uint256"
        },
        {
          "internalType": "uint256",
          "name": "amount",
          "type": "uint256"
        },
        {
          "internalType": "address",
          "name": "delegator",
          "type": "address"
        }
      ],
      "name": "delegationTransfer",
      "outputs": [
        {
          "internalType": "bool",
          "name": "",
          "type": "bool"
        }
      ],
      "payable": false,
      "stateMutability": "nonpayable",
      "type": "function"
    },
    {
      "constant": true,
      "inputs": [
        {
          "internalType": "address",
          "name": "user",
          "type": "address"
        }
      ],
      "name": "totalStakedFor",
      "outputs": [
        {
          "internalType": "uint256",
          "name": "",
          "type": "uint256"
        }
      ],
      "payable": false,
      "stateMutability": "view",
      "type": "function"
    },
    {
      "constant": true,
      "inputs": [],
      "name": "validatorThreshold",
      "outputs": [
        {
          "internalType": "uint256",
          "name": "",
          "type": "uint256"
        }
      ],
      "payable": false,
      "stateMutability": "view",
      "type": "function"
    },
    {
      "constant": false,
      "inputs": [
        {
          "internalType": "uint256",
          "name": "validatorId",
          "type": "uint256"
        },
        {
          "internalType": "uint256",
          "name": "amount",
          "type": "uint256"
        }
      ],
      "name": "startAuction",
      "outputs": [],
      "payable": false,
      "stateMutability": "nonpayable",
      "type": "function"
    },
    {
      "constant": true,
      "inputs": [
        {
          "internalType": "uint256",
          "name": "",
          "type": "uint256"
        }
      ],
      "name": "validatorAuction",
      "outputs": [
        {
          "internalType": "uint256",
          "name": "amount",
          "type": "uint256"
        },
        {
          "internalType": "uint256",
          "name": "startEpoch",
          "type": "uint256"
        },
        {
          "internalType": "address",
          "name": "user",
          "type": "address"
        }
      ],
      "payable": false,
      "stateMutability": "view",
      "type": "function"
    },
    {
      "constant": true,
      "inputs": [],
      "name": "NFTCounter",
      "outputs": [
        {
          "internalType": "uint256",
          "name": "",
          "type": "uint256"
        }
      ],
      "payable": false,
      "stateMutability": "view",
      "type": "function"
    },
    {
      "constant": true,
      "inputs": [
        {
          "internalType": "uint256",
          "name": "validatorId",
          "type": "uint256"
        }
      ],
      "name": "getValidatorContract",
      "outputs": [
        {
          "internalType": "address",
          "name": "",
          "type": "address"
        }
      ],
      "payable": false,
      "stateMutability": "view",
      "type": "function"
    },
    {
      "constant": true,
      "inputs": [],
      "name": "governance",
      "outputs": [
        {
          "internalType": "contract IGovernance",
          "name": "",
          "type": "address"
        }
      ],
      "payable": false,
      "stateMutability": "view",
      "type": "function"
    },
    {
      "constant": true,
      "inputs": [
        {
          "internalType": "uint256",
          "name": "",
          "type": "uint256"
        }
      ],
      "name": "validatorState",
      "outputs": [
        {
          "internalType": "int256",
          "name": "amount",
          "type": "int256"
        },
        {
          "internalType": "int256",
          "name": "stakerCount",
          "type": "int256"
        }
      ],
      "payable": false,
      "stateMutability": "view",
      "type": "function"
    },
    {
      "constant": true,
      "inputs": [
        {
          "internalType": "uint256",
          "name": "tokenId",
          "type": "uint256"
        }
      ],
      "name": "ownerOf",
      "outputs": [
        {
          "internalType": "address",
          "name": "",
          "type": "address"
        }
      ],
      "payable": false,
      "stateMutability": "view",
      "type": "function"
    },
    {
      "constant": false,
      "inputs": [
        {
          "internalType": "uint256",
          "name": "validatorId",
          "type": "uint256"
        },
        {
          "internalType": "uint256",
          "name": "amount",
          "type": "uint256"
        },
        {
          "internalType": "address",
          "name": "delegator",
          "type": "address"
        }
      ],
      "name": "delegationDeposit",
      "outputs": [
        {
          "internalType": "bool",
          "name": "",
          "type": "bool"
        }
      ],
      "payable": false,
      "stateMutability": "nonpayable",
      "type": "function"
    },
    {
      "constant": false,
      "inputs": [
        {
          "internalType": "uint256",
          "name": "validatorId",
          "type": "uint256"
        },
        {
          "internalType": "uint256",
          "name": "slashingRate",
          "type": "uint256"
        },
        {
          "internalType": "uint256",
          "name": "jailCheckpoints",
          "type": "uint256"
        }
      ],
      "name": "slash",
      "outputs": [],
      "payable": false,
      "stateMutability": "nonpayable",
      "type": "function"
    },
    {
      "constant": true,
      "inputs": [],
      "name": "supportsHistory",
      "outputs": [
        {
          "internalType": "bool",
          "name": "",
          "type": "bool"
        }
      ],
      "payable": false,
      "stateMutability": "pure",
      "type": "function"
    },
    {
      "constant": true,
      "inputs": [],
      "name": "dynasty",
      "outputs": [
        {
          "internalType": "uint256",
          "name": "",
          "type": "uint256"
        }
      ],
      "payable": false,
      "stateMutability": "view",
      "type": "function"
    },
    {
      "constant": false,
      "inputs": [],
      "name": "renounceOwnership",
      "outputs": [],
      "payable": false,
      "stateMutability": "nonpayable",
      "type": "function"
    },
    {
      "constant": false,
      "inputs": [
        {
          "internalType": "address",
          "name": "user",
          "type": "address"
        },
        {
          "internalType": "uint256",
          "name": "amount",
          "type": "uint256"
        },
        {
          "internalType": "uint256",
          "name": "heimdallFee",
          "type": "uint256"
        },
        {
          "internalType": "address",
          "name": "signer",
          "type": "address"
        },
        {
          "internalType": "bool",
          "name": "acceptDelegation",
          "type": "bool"
        }
      ],
      "name": "stakeFor",
      "outputs": [],
      "payable": false,
      "stateMutability": "nonpayable",
      "type": "function"
    },
    {
      "constant": true,
      "inputs": [],
      "name": "currentEpoch",
      "outputs": [
        {
          "internalType": "uint256",
          "name": "",
          "type": "uint256"
        }
      ],
      "payable": false,
      "stateMutability": "view",
      "type": "function"
    },
    {
      "constant": true,
      "inputs": [],
      "name": "registry",
      "outputs": [
        {
          "internalType": "address",
          "name": "",
          "type": "address"
        }
      ],
      "payable": false,
      "stateMutability": "view",
      "type": "function"
    },
    {
      "constant": false,
      "inputs": [
        {
          "internalType": "uint256",
          "name": "validatorId",
          "type": "uint256"
        },
        {
          "internalType": "uint256",
          "name": "heimdallFee",
          "type": "uint256"
        },
        {
          "internalType": "address",
          "name": "signer",
          "type": "address"
        },
        {
          "internalType": "bool",
          "name": "acceptDelegation",
          "type": "bool"
        }
      ],
      "name": "confirmAuctionBid",
      "outputs": [],
      "payable": false,
      "stateMutability": "nonpayable",
      "type": "function"
    },
    {
      "constant": true,
      "inputs": [],
      "name": "CHECKPOINT_REWARD",
      "outputs": [
        {
          "internalType": "uint256",
          "name": "",
          "type": "uint256"
        }
      ],
      "payable": false,
      "stateMutability": "view",
      "type": "function"
    },
    {
      "constant": false,
      "inputs": [
        {
          "internalType": "bytes",
          "name": "checkpointTx",
          "type": "bytes"
        }
      ],
      "name": "challangeStateRootUpdate",
      "outputs": [],
      "payable": false,
      "stateMutability": "nonpayable",
      "type": "function"
    },
    {
      "constant": true,
      "inputs": [],
      "name": "currentValidatorSetSize",
      "outputs": [
        {
          "internalType": "uint256",
          "name": "",
          "type": "uint256"
        }
      ],
      "payable": false,
      "stateMutability": "view",
      "type": "function"
    },
    {
      "constant": true,
      "inputs": [],
      "name": "totalStaked",
      "outputs": [
        {
          "internalType": "uint256",
          "name": "",
          "type": "uint256"
        }
      ],
      "payable": false,
      "stateMutability": "view",
      "type": "function"
    },
    {
      "constant": true,
      "inputs": [],
      "name": "owner",
      "outputs": [
        {
          "internalType": "address",
          "name": "",
          "type": "address"
        }
      ],
      "payable": false,
      "stateMutability": "view",
      "type": "function"
    },
    {
      "constant": false,
      "inputs": [
        {
          "internalType": "uint256",
          "name": "validatorId",
          "type": "uint256"
        },
        {
          "internalType": "address",
          "name": "_signer",
          "type": "address"
        }
      ],
      "name": "updateSigner",
      "outputs": [],
      "payable": false,
      "stateMutability": "nonpayable",
      "type": "function"
    },
    {
      "constant": true,
      "inputs": [],
      "name": "isOwner",
      "outputs": [
        {
          "internalType": "bool",
          "name": "",
          "type": "bool"
        }
      ],
      "payable": false,
      "stateMutability": "view",
      "type": "function"
    },
    {
      "constant": false,
      "inputs": [
        {
          "internalType": "uint256",
          "name": "validatorId",
          "type": "uint256"
        }
      ],
      "name": "forceUnstake",
      "outputs": [],
      "payable": false,
      "stateMutability": "nonpayable",
      "type": "function"
    },
    {
      "constant": false,
      "inputs": [
        {
          "internalType": "uint256",
          "name": "validatorId",
          "type": "uint256"
        }
      ],
      "name": "withdrawRewards",
      "outputs": [],
      "payable": false,
      "stateMutability": "nonpayable",
      "type": "function"
    },
    {
      "constant": true,
      "inputs": [],
      "name": "rootChain",
      "outputs": [
        {
          "internalType": "address",
          "name": "",
          "type": "address"
        }
      ],
      "payable": false,
      "stateMutability": "view",
      "type": "function"
    },
    {
      "constant": true,
      "inputs": [],
      "name": "totalHeimdallFee",
      "outputs": [
        {
          "internalType": "uint256",
          "name": "",
          "type": "uint256"
        }
      ],
      "payable": false,
      "stateMutability": "view",
      "type": "function"
    },
    {
      "constant": false,
      "inputs": [
        {
          "internalType": "uint256",
          "name": "validatorId",
          "type": "uint256"
        },
        {
          "internalType": "int256",
          "name": "amount",
          "type": "int256"
        }
      ],
      "name": "updateValidatorState",
      "outputs": [],
      "payable": false,
      "stateMutability": "nonpayable",
      "type": "function"
    },
    {
      "constant": false,
      "inputs": [
        {
          "internalType": "uint256",
          "name": "_blocks",
          "type": "uint256"
        }
      ],
      "name": "updateCheckPointBlockInterval",
      "outputs": [],
      "payable": false,
      "stateMutability": "nonpayable",
      "type": "function"
    },
    {
      "constant": true,
      "inputs": [],
      "name": "currentValidatorSetTotalStake",
      "outputs": [
        {
          "internalType": "uint256",
          "name": "",
          "type": "uint256"
        }
      ],
      "payable": false,
      "stateMutability": "view",
      "type": "function"
    },
    {
      "constant": false,
      "inputs": [],
      "name": "unlock",
      "outputs": [],
      "payable": false,
      "stateMutability": "nonpayable",
      "type": "function"
    },
    {
      "constant": false,
      "inputs": [
        {
          "internalType": "uint256",
          "name": "validatorId",
          "type": "uint256"
        },
        {
          "internalType": "uint256",
          "name": "heimdallFee",
          "type": "uint256"
        }
      ],
      "name": "topUpForFee",
      "outputs": [],
      "payable": false,
      "stateMutability": "nonpayable",
      "type": "function"
    },
    {
      "constant": false,
      "inputs": [
        {
          "internalType": "uint256",
          "name": "_minDeposit",
          "type": "uint256"
        },
        {
          "internalType": "uint256",
          "name": "_minHeimdallFee",
          "type": "uint256"
        }
      ],
      "name": "updateMinAmounts",
      "outputs": [],
      "payable": false,
      "stateMutability": "nonpayable",
      "type": "function"
    },
    {
      "constant": false,
      "inputs": [
        {
          "internalType": "uint256",
          "name": "validatorId",
          "type": "uint256"
        },
        {
          "internalType": "uint256",
          "name": "accumSlashedAmount",
          "type": "uint256"
        },
        {
          "internalType": "uint256",
          "name": "amount",
          "type": "uint256"
        },
        {
          "internalType": "uint256",
          "name": "index",
          "type": "uint256"
        },
        {
          "internalType": "bytes",
          "name": "proof",
          "type": "bytes"
        }
      ],
      "name": "claimFee",
      "outputs": [],
      "payable": false,
      "stateMutability": "nonpayable",
      "type": "function"
    },
    {
      "constant": true,
      "inputs": [],
      "name": "factory",
      "outputs": [
        {
          "internalType": "contract ValidatorShareFactory",
          "name": "",
          "type": "address"
        }
      ],
      "payable": false,
      "stateMutability": "view",
      "type": "function"
    },
    {
      "constant": false,
      "inputs": [
        {
          "internalType": "uint256",
          "name": "newReward",
          "type": "uint256"
        }
      ],
      "name": "updateCheckpointReward",
      "outputs": [],
      "payable": false,
      "stateMutability": "nonpayable",
      "type": "function"
    },
    {
      "constant": true,
      "inputs": [],
      "name": "totalRewardsLiquidated",
      "outputs": [
        {
          "internalType": "uint256",
          "name": "",
          "type": "uint256"
        }
      ],
      "payable": false,
      "stateMutability": "view",
      "type": "function"
    },
    {
      "constant": true,
      "inputs": [],
      "name": "locked",
      "outputs": [
        {
          "internalType": "bool",
          "name": "",
          "type": "bool"
        }
      ],
      "payable": false,
      "stateMutability": "view",
      "type": "function"
    },
    {
      "constant": false,
      "inputs": [
        {
          "internalType": "uint256",
          "name": "validatorId",
          "type": "uint256"
        },
        {
          "internalType": "uint256",
          "name": "jailCheckpoints",
          "type": "uint256"
        }
      ],
      "name": "jail",
      "outputs": [],
      "payable": false,
      "stateMutability": "nonpayable",
      "type": "function"
    },
    {
      "constant": false,
      "inputs": [
        {
          "internalType": "uint256",
          "name": "validatorId",
          "type": "uint256"
        }
      ],
      "name": "unstakeClaim",
      "outputs": [],
      "payable": false,
      "stateMutability": "nonpayable",
      "type": "function"
    },
    {
      "constant": false,
      "inputs": [
        {
          "internalType": "uint256",
          "name": "newDynasty",
          "type": "uint256"
        }
      ],
      "name": "updateDynastyValue",
      "outputs": [],
      "payable": false,
      "stateMutability": "nonpayable",
      "type": "function"
    },
    {
      "constant": false,
      "inputs": [
        {
          "internalType": "address",
          "name": "newRootChain",
          "type": "address"
        }
      ],
      "name": "changeRootChain",
      "outputs": [],
      "payable": false,
      "stateMutability": "nonpayable",
      "type": "function"
    },
    {
      "constant": true,
      "inputs": [],
      "name": "logger",
      "outputs": [
        {
          "internalType": "contract StakingInfo",
          "name": "",
          "type": "address"
        }
      ],
      "payable": false,
      "stateMutability": "view",
      "type": "function"
    },
    {
      "constant": false,
      "inputs": [
        {
          "internalType": "address",
          "name": "newOwner",
          "type": "address"
        }
      ],
      "name": "transferOwnership",
      "outputs": [],
      "payable": false,
      "stateMutability": "nonpayable",
      "type": "function"
    },
    {
      "constant": false,
      "inputs": [],
      "name": "lock",
      "outputs": [],
      "payable": false,
      "stateMutability": "nonpayable",
      "type": "function"
    },
    {
      "constant": true,
      "inputs": [],
      "name": "minHeimdallFee",
      "outputs": [
        {
          "internalType": "uint256",
          "name": "",
          "type": "uint256"
        }
      ],
      "payable": false,
      "stateMutability": "view",
      "type": "function"
    },
    {
      "constant": true,
      "inputs": [],
      "name": "token",
      "outputs": [
        {
          "internalType": "contract IERC20",
          "name": "",
          "type": "address"
        }
      ],
      "payable": false,
      "stateMutability": "view",
      "type": "function"
    },
    {
      "inputs": [
        {
          "internalType": "address",
          "name": "_registry",
          "type": "address"
        },
        {
          "internalType": "address",
          "name": "_rootChain",
          "type": "address"
        },
        {
          "internalType": "address",
          "name": "_NFTContract",
          "type": "address"
        },
        {
          "internalType": "address",
          "name": "_stakingLogger",
          "type": "address"
        },
        {
          "internalType": "address",
          "name": "_validatorShareFactory",
          "type": "address"
        },
        {
          "internalType": "address",
          "name": "_governance",
          "type": "address"
        }
      ],
      "payable": false,
      "stateMutability": "nonpayable",
      "type": "constructor"
    },
    {
      "anonymous": false,
      "inputs": [
        {
          "indexed": true,
          "internalType": "address",
          "name": "previousRootChain",
          "type": "address"
        },
        {
          "indexed": true,
          "internalType": "address",
          "name": "newRootChain",
          "type": "address"
        }
      ],
      "name": "RootChainChanged",
      "type": "event"
    },
    {
      "anonymous": false,
      "inputs": [
        {
          "indexed": true,
          "internalType": "address",
          "name": "previousOwner",
          "type": "address"
        },
        {
          "indexed": true,
          "internalType": "address",
          "name": "newOwner",
          "type": "address"
        }
      ],
      "name": "OwnershipTransferred",
      "type": "event"
    },
    {
      "constant": false,
      "inputs": [
        {
          "internalType": "uint256",
          "name": "blockInterval",
          "type": "uint256"
        },
        {
          "internalType": "bytes32",
          "name": "voteHash",
          "type": "bytes32"
        },
        {
          "internalType": "bytes32",
          "name": "stateRoot",
          "type": "bytes32"
        },
        {
          "internalType": "bytes",
          "name": "sigs",
          "type": "bytes"
        }
      ],
      "name": "checkSignatures",
      "outputs": [
        {
          "internalType": "uint256",
          "name": "",
          "type": "uint256"
        }
      ],
      "payable": false,
      "stateMutability": "nonpayable",
      "type": "function"
    }
  ],
  "bytecode": "0x60806040526120006004556001600555612000600c5569021e19e0c9bab2400000600d55670de0b6b3a7640000600e55670de0b6b3a7640000600f5560ff601055600a60115560016013556004600c54816200005757fe5b046016553480156200006857600080fd5b506040516200432738038062004327833981810160405260c08110156200008e57600080fd5b50805160208201516040808401516060850151608086015160a090960151600080546001600160a01b03191633178082559451969795969395929492939192909182916001600160a01b03169082907f8be0079c531659141344cd1fd0a4f28419497f9722a3daafe3b4186f6b6457e0908290a3600280546001601055600880546001600160a01b03199081166001600160a01b039c8d16179091556003805482169a8c169a909a17909955600a80548a16988b1698909817909755600980548916968a1696909617909555600b80548816948916949094179093555092841690851617909216921691909117905561419a806200018d6000396000f3fe608060405234801561001057600080fd5b506004361061041d5760003560e01c8063715018a61161022b578063a476907111610130578063d2203766116100b8578063f24ccbfe11610087578063f24ccbfe14610d8d578063f2fde38b14610d95578063f83d08ba14610dbb578063fba58f3414610dc3578063fc0c546a14610dcb5761041d565b8063d220376614610d0a578063d86d53e714610d2d578063e6692f4914610d4a578063e8afa8e814610d675761041d565b8063c344e766116100ff578063c344e76614610c17578063c45a015514610cd5578063cbf383d514610cdd578063cd6b838814610cfa578063cf30901214610d025761041d565b8063a476907114610bc1578063a69df4b514610bc9578063ac58629214610bd1578063b1d23f0214610bf45761041d565b80638da5cb5b116101b35780639342c8f4116101825780639342c8f414610b54578063987ab9db14610b715780639a8a624314610b795780639ff1150014610b81578063a440ab1e14610ba45761041d565b80638da5cb5b14610afb5780638f283a8614610b035780638f32d59b14610b2f5780639146014914610b375761041d565b80637d4bd608116101fa5780637d4bd60814610a035780637d66975214610a3d5780637f5da71814610a455780637f952d9514610aeb578063817b1cd214610af35761041d565b8063715018a6146109a757806376324ea5146109af57806376671808146109f35780637b103999146109fb5761041d565b80633862da0b1161033157806356342d8c116102b95780636352211e116102885780636352211e1461091f5780636901b2531461093c5780636cbb60501461096e5780637033e4a6146109975780637060054d1461099f5761041d565b806356342d8c1461080b5780635aa6e675146108285780635aac52f5146108305780635c248855146108e95761041d565b80634b341aed116103005780634b341aed1461076e5780634fd101d7146107945780634fee13fc1461079c5780635325e144146107bf5780635508d8e1146108035761041d565b80633862da0b146106f15780633d02455b1461071757806341b3d185146107345780634777fb421461073c5761041d565b8063174e6832116103b457806328cc4e411161038357806328cc4e41146105d25780632e17de78146105fd57806331c2273b1461061a578063357e6ff81461063e57806335aa2e441461065b5761041d565b8063174e68321461056b57806317c2b9101461059157806325316411146105995780632649263a146105a15761041d565b80630ebb172a116103f05780630ebb172a146104d8578063118bdec9146104e0578063144fa6d71461052857806316827b1b1461054e5761041d565b80630209fdd01461042257806306254a9c1461047a5780630cccfc58146104b65780630e15561a146104d0575b600080fd5b61042a610dd3565b60408051602080825283518183015283519192839290830191858101910280838360005b8381101561046657818101518382015260200161044e565b505050509050019250505060405180910390f35b6104b46004803603608081101561049057600080fd5b508035906020810135906001600160a01b0360408201351690606001351515610f44565b005b6104be610f57565b60408051918252519081900360200190f35b6104be610f5d565b6104be610f63565b6104b4600480360360a08110156104f657600080fd5b506001600160a01b03813581169160208101358216916040820135811691606081013582169160809091013516610f69565b6104b46004803603602081101561053e57600080fd5b50356001600160a01b0316610fd9565b6104b46004803603602081101561056457600080fd5b503561101f565b6104be6004803603602081101561058157600080fd5b50356001600160a01b03166110b4565b6104be61113e565b6104be611144565b6105be600480360360208110156105b757600080fd5b503561114a565b604080519115158252519081900360200190f35b6104b4600480360360608110156105e857600080fd5b50803590602081013590604001351515611205565b6104b46004803603602081101561061357600080fd5b5035611503565b610622611687565b604080516001600160a01b039092168252519081900360200190f35b6104be6004803603602081101561065457600080fd5b5035611696565b6106786004803603602081101561067157600080fd5b503561169c565b60405180898152602001888152602001878152602001868152602001858152602001846001600160a01b03166001600160a01b03168152602001836001600160a01b03166001600160a01b031681526020018260038111156106d657fe5b60ff1681526020019850505050505050505060405180910390f35b6104be6004803603602081101561070757600080fd5b50356001600160a01b03166116f3565b6104b46004803603602081101561072d57600080fd5b5035611705565b6104be61197a565b6105be6004803603606081101561075257600080fd5b50803590602081013590604001356001600160a01b0316611980565b6104be6004803603602081101561078457600080fd5b50356001600160a01b0316611a30565b6104be611b67565b6104b4600480360360408110156107b257600080fd5b5080359060200135611b6d565b6107dc600480360360208110156107d557600080fd5b5035611f7b565b6040805193845260208401929092526001600160a01b031682820152519081900360600190f35b6104be611fa5565b6106226004803603602081101561082157600080fd5b5035611fab565b610622611fca565b6104be6004803603608081101561084657600080fd5b8135916020810135916040820135919081019060808101606082013564010000000081111561087457600080fd5b82018360208201111561088657600080fd5b803590602001918460018302840111640100000000831117156108a857600080fd5b91908080601f016020809104026020016040519081016040528093929190818152602001838380828437600092019190915250929550611fd9945050505050565b610906600480360360208110156108ff57600080fd5b5035611fe4565b6040805192835260208301919091528051918290030190f35b6106226004803603602081101561093557600080fd5b5035611ffd565b6105be6004803603606081101561095257600080fd5b50803590602081013590604001356001600160a01b0316612049565b6104b46004803603606081101561098457600080fd5b50803590602081013590604001356120cb565b6105be61221e565b6104be612223565b6104b4612229565b6104b4600480360360a08110156109c557600080fd5b506001600160a01b038135811691602081013591604082013591606081013590911690608001351515612284565b6104be612434565b61062261243a565b6104b460048036036080811015610a1957600080fd5b508035906020810135906001600160a01b0360408201351690606001351515612449565b6104be61291b565b6104b460048036036020811015610a5b57600080fd5b810190602081018135640100000000811115610a7657600080fd5b820183602082011115610a8857600080fd5b80359060200191846001830284011164010000000083111715610aaa57600080fd5b91908080601f016020809104026020016040519081016040528093929190818152602001838380828437600092019190915250929550612921945050505050565b6104be612924565b6104be61293c565b610622612942565b6104b460048036036040811015610b1957600080fd5b50803590602001356001600160a01b0316612951565b6105be612aed565b6104b460048036036020811015610b4d57600080fd5b5035612afe565b6104b460048036036020811015610b6a57600080fd5b5035612b1b565b610622612d9a565b6104be612da9565b6104b460048036036040811015610b9757600080fd5b5080359060200135612daf565b6104b460048036036020811015610bba57600080fd5b5035612df1565b6104be612e5c565b6104b4612e71565b6104b460048036036040811015610be757600080fd5b5080359060200135612ec9565b6104b460048036036040811015610c0a57600080fd5b5080359060200135612ffd565b6104b4600480360360a0811015610c2d57600080fd5b81359160208101359160408201359160608101359181019060a081016080820135640100000000811115610c6057600080fd5b820183602082011115610c7257600080fd5b80359060200191846001830284011164010000000083111715610c9457600080fd5b91908080601f016020809104026020016040519081016040528093929190818152602001838380828437600092019190915250929550613019945050505050565b6106226132ad565b6104b460048036036020811015610cf357600080fd5b50356132bc565b6104be613351565b6105be613357565b6104b460048036036040811015610d2057600080fd5b5080359060200135613367565b6104b460048036036020811015610d4357600080fd5b503561354e565b6104b460048036036020811015610d6057600080fd5b5035613896565b6104b460048036036020811015610d7d57600080fd5b50356001600160a01b031661395b565b6106226139db565b6104b460048036036020811015610dab57600080fd5b50356001600160a01b03166139ea565b6104b4613a04565b6104be613a62565b610622613a68565b606080601154604051908082528060200260200182016040528015610e02578160200160208202803883390190505b509050600080805b600a60009054906101000a90046001600160a01b03166001600160a01b03166318160ddd6040518163ffffffff1660e01b815260040160206040518083038186803b158015610e5857600080fd5b505afa158015610e6c573d6000803e3d6000fd5b505050506040513d6020811015610e8257600080fd5b5051811015610f3b57600a5460408051634f6ccce760e01b81526004810184905290516001600160a01b0390921691634f6ccce791602480820192602092909190829003018186803b158015610ed757600080fd5b505afa158015610eeb573d6000803e3d6000fd5b505050506040513d6020811015610f0157600080fd5b50519250610f0e8361114a565b15610f335782848380600101945081518110610f2657fe5b6020026020010181815250505b600101610e0a565b50919250505090565b610f513385858585612284565b50505050565b60165481565b60145481565b60045481565b610f71612aed565b610f7a57600080fd5b600880546001600160a01b03199081166001600160a01b039788161790915560038054821695871695909517909455600a8054851693861693909317909255600980548416918516919091179055600b80549092169216919091179055565b610fe1612aed565b610fea57600080fd5b6001600160a01b038116610ffd57600080fd5b600780546001600160a01b0319166001600160a01b0392909216919091179055565b611027612aed565b61103057600080fd5b6000811161103d57600080fd5b60095460115460408051630f1980a560e41b8152600481018590526024810192909252516001600160a01b039092169163f1980a509160448082019260009290919082900301818387803b15801561109457600080fd5b505af11580156110a8573d6000803e3d6000fd5b50505060119190915550565b600a5460408051632f745c5960e01b81526001600160a01b038481166004830152600060248301819052925192931691632f745c5991604480820192602092909190829003018186803b15801561110a57600080fd5b505afa15801561111e573d6000803e3d6000fd5b505050506040513d602081101561113457600080fd5b505190505b919050565b60175481565b60105481565b60008181526006602052604081205415801590611195575060008281526006602052604090206002015415801590611195575060055460008381526006602052604090206002015411155b80156111cc575060008281526006602052604090206003015415806111cc5750600554600083815260066020526040902060030154115b80156111ff5750600160008381526006602081905260409091200154600160a01b900460ff1660038111156111fd57fe5b145b92915050565b600a54604080516331a9108f60e11b8152600481018690529051859233926001600160a01b0390911691636352211e91602480820192602092909190829003018186803b15801561125557600080fd5b505afa158015611269573d6000803e3d6000fd5b505050506040513d602081101561127f57600080fd5b50516001600160a01b03161461129457600080fd5b600554600085815260066020526040902060030154106112f1576040805162461bcd60e51b81526020600482015260136024820152724e6f20757365206f662072657374616b696e6760681b604482015290519081900360640190fd5b82156113bf57600754604080516323b872dd60e01b81523360048201523060248201526044810186905290516001600160a01b03909216916323b872dd916064808201926020929091908290030181600087803b15801561135157600080fd5b505af1158015611365573d6000803e3d6000fd5b505050506040513d602081101561137b57600080fd5b50516113bf576040805162461bcd60e51b815260206004820152600e60248201526d5472616e73666572207374616b6560901b604482015290519081900360640190fd5b81156113e1576000848152600660205260408120600101805491905592909201915b6012546113f4908463ffffffff613a7716565b60125560008481526006602090815260408083208054870190556005548352601a909152808220805486019055600954815163532e19a960e01b81526004810188905291516001600160a01b039091169263532e19a9926024808201939182900301818387803b15801561146757600080fd5b505af115801561147b573d6000803e3d6000fd5b505060095460008781526006602052604080822054601254825163242c1b9960e01b8152600481018c90526024810192909252604482015290516001600160a01b03909316945063242c1b9993506064808201939182900301818387803b1580156114e557600080fd5b505af11580156114f9573d6000803e3d6000fd5b5050505050505050565b600a54604080516331a9108f60e11b8152600481018490529051839233926001600160a01b0390911691636352211e91602480820192602092909190829003018186803b15801561155357600080fd5b505afa158015611567573d6000803e3d6000fd5b505050506040513d602081101561157d57600080fd5b50516001600160a01b03161461159257600080fd5b6000828152601b6020526040902054156115f3576040805162461bcd60e51b815260206004820152601b60248201527f5761697420666f722061756374696f6e20636f6d706c6574696f6e0000000000604482015290519081900360640190fd5b60055460009061160a90600163ffffffff613a7716565b6000848152600660205260409020600201549091501580159061163c5750600083815260066020526040902060030154155b801561166f5750600160008481526006602081905260409091200154600160a01b900460ff16600381111561166d57fe5b145b61167857600080fd5b6116828382613a90565b505050565b600a546001600160a01b031681565b50600190565b600660208190526000918252604090912080546001820154600283015460038401546004850154600586015495909601549395929491939092916001600160a01b039081169190811690600160a01b900460ff1688565b60196020526000908152604090205481565b600a54604080516331a9108f60e11b8152600481018490529051839233926001600160a01b0390911691636352211e91602480820192602092909190829003018186803b15801561175557600080fd5b505afa158015611769573d6000803e3d6000fd5b505050506040513d602081101561177f57600080fd5b50516001600160a01b03161461179457600080fd5b6005546000838152600660205260409020600301541180156117c9575060055460008381526006602052604090206004015411155b80156117fc5750600260008381526006602081905260409091200154600160a01b900460ff1660038111156117fa57fe5b145b61180557600080fd5b600082815260066020526040902054600e5481101561182357600080fd5b6000838152600660208190526040822060038101549101549091906001600160a01b03161561193757600085815260066020818152604092839020909101548251630e826fd160e21b815292516001600160a01b0390911692633a09bf44926004808301939192829003018186803b15801561189e57600080fd5b505afa1580156118b2573d6000803e3d6000fd5b505050506040513d60208110156118c857600080fd5b5051600086815260066020819052604080832090910154815163a69df4b560e01b815291519394506001600160a01b03169263a69df4b59260048084019391929182900301818387803b15801561191e57600080fd5b505af1158015611932573d6000803e3d6000fd5b505050505b611945828285016001613c1b565b505050600091825250600660208190526040822060038101839055908101805460ff60a01b1916600160a01b17905560040155565b600e5481565b6000838152600660208190526040822001546001600160a01b031633146119a657600080fd5b6007546040805163a9059cbb60e01b81526001600160a01b038581166004830152602482018790529151919092169163a9059cbb9160448083019260209291908290030181600087803b1580156119fc57600080fd5b505af1158015611a10573d6000803e3d6000fd5b505050506040513d6020811015611a2657600080fd5b5051949350505050565b60006001600160a01b0382161580611abe5750600a54604080516370a0823160e01b81526001600160a01b038581166004830152915191909216916370a08231916024808301926020929190829003018186803b158015611a9057600080fd5b505afa158015611aa4573d6000803e3d6000fd5b505050506040513d6020811015611aba57600080fd5b5051155b15611acb57506000611139565b600a5460408051632f745c5960e01b81526001600160a01b03858116600483015260006024830181905292516006949190911691632f745c59916044808301926020929190829003018186803b158015611b2457600080fd5b505afa158015611b38573d6000803e3d6000fd5b505050506040513d6020811015611b4e57600080fd5b5051815260208101919091526040016000205492915050565b60115481565b611b768261114a565b611b7f57600080fd5b6018541580611b92575060055460185411155b611bd6576040805162461bcd60e51b815260206004820152601060248201526f10dbdbdb08191bdddb881c195c9a5bd960821b604482015290519081900360640190fd5b600c546000838152601b6020526040902060010154611c0e91611bff919063ffffffff613a7716565b6005549063ffffffff613c3d16565b6016541015611c5d576040805162461bcd60e51b8152602060048201526016602482015275125b9d985b1a5908185d58dd1a5bdb881c195c9a5bd960521b604482015290519081900360640190fd5b600c54601654611c7490829063ffffffff613a7716565b600084815260066020526040902060020154600554611c989163ffffffff613c3d16565b81611c9f57fe5b0611611ce8576040805162461bcd60e51b81526020600482015260136024820152724e6f7420616e2061756374696f6e2074696d6560681b604482015290519081900360640190fd5b600754604080516323b872dd60e01b81523360048201523060248201526044810184905290516001600160a01b03909216916323b872dd916064808201926020929091908290030181600087803b158015611d4257600080fd5b505af1158015611d56573d6000803e3d6000fd5b505050506040513d6020811015611d6c57600080fd5b5051611db8576040805162461bcd60e51b8152602060048201526016602482015275151c985b9cd9995c88185b5bdd5b9d0819985a5b195960521b604482015290519081900360640190fd5b6000611de1611dc684611696565b6000858152600660205260409020549063ffffffff613c5216565b6000848152601b6020526040902054909150611dfe908290613c79565b9050818110611e4d576040805162461bcd60e51b8152602060048201526016602482015275135d5cdd08189a59081a1a59da195c88185b5bdd5b9d60521b604482015290519081900360640190fd5b6000838152601b60205260409020805415611ef457600754600282015482546040805163a9059cbb60e01b81526001600160a01b039384166004820152602481019290925251919092169163a9059cbb9160448083019260209291908290030181600087803b158015611ebf57600080fd5b505af1158015611ed3573d6000803e3d6000fd5b505050506040513d6020811015611ee957600080fd5b5051611ef457600080fd5b8281556002810180546001600160a01b03191633179055600954600085815260066020908152604080832054601b909252808320548151630934a6df60e01b8152600481018a905260248101939093526044830152516001600160a01b039390931692630934a6df9260648084019391929182900301818387803b1580156114e557600080fd5b601b602052600090815260409020805460018201546002909201549091906001600160a01b031683565b60135481565b600090815260066020819052604090912001546001600160a01b031690565b6002546001600160a01b031681565b600d54949350505050565b601a602052600090815260409020805460019091015482565b600a54604080516331a9108f60e11b81526004810184905290516000926001600160a01b031691636352211e916024808301926020929190829003018186803b15801561110a57600080fd5b6000838152600660208190526040822001546001600160a01b0316331461206f57600080fd5b600754604080516323b872dd60e01b81526001600160a01b03858116600483015230602483015260448201879052915191909216916323b872dd9160648083019260209291908290030181600087803b1580156119fc57600080fd5b60085460408051631ab0168360e31b8152905133926001600160a01b03169163d580b418916004808301926020929190829003018186803b15801561210f57600080fd5b505afa158015612123573d6000803e3d6000fd5b505050506040513d602081101561213957600080fd5b50516001600160a01b03161461214e57600080fd5b60008381526006602052604081205461218090606490612174908663ffffffff613c5216565b9063ffffffff613c9016565b6000858152600660205260409020549091506121a2908263ffffffff613c3d16565b6000858152600660205260409020819055600e5411806121c25750600082115b156121d1576121d18483613367565b6009546040805163532e19a960e01b81526004810187905290516001600160a01b039092169163532e19a99160248082019260009290919082900301818387803b1580156114e557600080fd5b600090565b600c5481565b612231612aed565b61223a57600080fd5b600080546040516001600160a01b03909116907f8be0079c531659141344cd1fd0a4f28419497f9722a3daafe3b4186f6b6457e0908390a3600080546001600160a01b0319169055565b600254600160a01b900460ff16156122cf576040805162461bcd60e51b8152602060048201526009602482015268125cc8131bd8dad95960ba1b604482015290519081900360640190fd5b6011546122da612924565b106122e457600080fd5b600e5484116122f257600080fd5b6001600160a01b0382166000908152601960205260409020541561231557600080fd5b6007546001600160a01b03166323b872dd3330612338888863ffffffff613a7716565b6040518463ffffffff1660e01b815260040180846001600160a01b03166001600160a01b03168152602001836001600160a01b03166001600160a01b031681526020018281526020019350505050602060405180830381600087803b1580156123a057600080fd5b505af11580156123b4573d6000803e3d6000fd5b505050506040513d60208110156123ca57600080fd5b5051612415576040805162461bcd60e51b8152602060048201526015602482015274151c985b9cd9995c881cdd185ad94819985a5b1959605a1b604482015290519081900360640190fd5b61242160135484613cb2565b61242d85858484613d30565b5050505050565b60055481565b6008546001600160a01b031681565b600254600160a01b900460ff1615612494576040805162461bcd60e51b8152602060048201526009602482015268125cc8131bd8dad95960ba1b604482015290519081900360640190fd5b6000848152601b602090815260408083206006909252909120600554600c5460018401546124db916124cc919063ffffffff613a7716565b6016549063ffffffff613a7716565b11156125185760405162461bcd60e51b81526004018080602001828103825260308152602001806141106030913960400191505060405180910390fd5b600a54604080516331a9108f60e11b81526004810189905290516001600160a01b0390921691636352211e91602480820192602092909190829003018186803b15801561256457600080fd5b505afa158015612578573d6000803e3d6000fd5b505050506040513d602081101561258e57600080fd5b505160028301546001600160a01b039081169116141561276457805460075460028401546040805163a9059cbb60e01b81526001600160a01b039283166004820152602481018590529051919092169163a9059cbb9160448083019260209291908290030181600087803b15801561260557600080fd5b505af1158015612619573d6000803e3d6000fd5b505050506040513d602081101561262f57600080fd5b505161263a57600080fd5b82548255600083556002830180546001600160a01b03191690556005546001840155815461268190612672908363ffffffff613c3d16565b6012549063ffffffff613a7716565b6012556009546040805163532e19a960e01b8152600481018a905290516001600160a01b039092169163532e19a99160248082019260009290919082900301818387803b1580156126d157600080fd5b505af11580156126e5573d6000803e3d6000fd5b505060095484546040805163e12ab1af60e01b8152600481018d9052602481018d90526044810192909252516001600160a01b03909216935063e12ab1af925060648082019260009290919082900301818387803b15801561274657600080fd5b505af115801561275a573d6000803e3d6000fd5b5050505050612913565b61277086600554613a90565b600754604080516323b872dd60e01b81523360048201523060248201526044810188905290516001600160a01b03909216916323b872dd916064808201926020929091908290030181600087803b1580156127ca57600080fd5b505af11580156127de573d6000803e3d6000fd5b505050506040513d60208110156127f457600080fd5b505161283d576040805162461bcd60e51b8152602060048201526013602482015272151c985b9cd9995c881999594819985a5b1959606a1b604482015290519081900360640190fd5b61284960135486613cb2565b60028201548254612865916001600160a01b0316908686613d30565b6009546013546001600160a01b039091169063e12ab1af9061288e90600163ffffffff613c3d16565b8885600001546040518463ffffffff1660e01b8152600401808481526020018381526020018281526020019350505050600060405180830381600087803b1580156128d857600080fd5b505af11580156128ec573d6000803e3d6000fd5b5050506000878152601b6020526040812090815560020180546001600160a01b0319169055505b505050505050565b600d5481565b50565b6005546000908152601a602052604090206001015490565b60125481565b6000546001600160a01b031690565b600a54604080516331a9108f60e11b8152600481018590529051849233926001600160a01b0390911691636352211e91602480820192602092909190829003018186803b1580156129a157600080fd5b505afa1580156129b5573d6000803e3d6000fd5b505050506040513d60208110156129cb57600080fd5b50516001600160a01b0316146129e057600080fd5b6001600160a01b03821615801590612a0e57506001600160a01b038216600090815260196020526040902054155b612a1757600080fd5b600954600084815260066020526040808220600501548151632682023960e21b8152600481018890526001600160a01b03918216602482015286821660448201529151931692639a0808e49260648084019391929182900301818387803b158015612a8157600080fd5b505af1158015612a95573d6000803e3d6000fd5b505050600084815260066020818152604080842060050180546001600160a01b0390811686526019845282862086905597909716808552908420889055969092529052505080546001600160a01b0319169091179055565b6000546001600160a01b0316331490565b612b06612aed565b612b0f57600080fd5b61292181600554613a90565b600a54604080516331a9108f60e11b8152600481018490529051839233926001600160a01b0390911691636352211e91602480820192602092909190829003018186803b158015612b6b57600080fd5b505afa158015612b7f573d6000803e3d6000fd5b505050506040513d6020811015612b9557600080fd5b50516001600160a01b031614612baa57600080fd5b600082815260066020819052604090912060018101549101546001600160a01b03168015612c4c57612c49816001600160a01b03166332ba2e536040518163ffffffff1660e01b8152600401602060405180830381600087803b158015612c1057600080fd5b505af1158015612c24573d6000803e3d6000fd5b505050506040513d6020811015612c3a57600080fd5b5051839063ffffffff613a7716565b91505b601554612c5f908363ffffffff613a7716565b6015556000848152600660209081526040808320600101839055600754815163a9059cbb60e01b81523360048201526024810187905291516001600160a01b039091169363a9059cbb93604480850194919392918390030190829087803b158015612cc957600080fd5b505af1158015612cdd573d6000803e3d6000fd5b505050506040513d6020811015612cf357600080fd5b5051612d3c576040805162461bcd60e51b8152602060048201526013602482015272496e737566666963656e74207265776172647360681b604482015290519081900360640190fd5b60095460155460408051635b42d93560e11b815260048101889052602481018690526044810192909252516001600160a01b039092169163b685b26a9160648082019260009290919082900301818387803b1580156114e557600080fd5b6003546001600160a01b031681565b601c5481565b600082815260066020819052604090912001546001600160a01b03163314612dd657600080fd5b6005546000908152601a602052604090208054909101905550565b612df9612aed565b612e0257600080fd5b60008111612e57576040805162461bcd60e51b815260206004820181905260248201527f426c6f636b7320696e74657276616c206d757374206265206e6f6e2d7a65726f604482015290519081900360640190fd5b601055565b6005546000908152601a602052604090205490565b6002546001600160a01b03163314612eba5760405162461bcd60e51b81526004018080602001828103825260268152602001806141406026913960400191505060405180910390fd5b6002805460ff60a01b19169055565b600f54811015612f20576040805162461bcd60e51b815260206004820152601960248201527f4d696e696d756d20616d6f756e742069732031204d6174696300000000000000604482015290519081900360640190fd5b600754604080516323b872dd60e01b81523360048201523060248201526044810184905290516001600160a01b03909216916323b872dd916064808201926020929091908290030181600087803b158015612f7a57600080fd5b505af1158015612f8e573d6000803e3d6000fd5b505050506040513d6020811015612fa457600080fd5b5051612fef576040805162461bcd60e51b8152602060048201526015602482015274151c985b9cd9995c881cdd185ad94819985a5b1959605a1b604482015290519081900360640190fd5b612ff98282613cb2565b5050565b613005612aed565b61300e57600080fd5b600e91909155600f55565b600a54604080516331a9108f60e11b8152600481018890529051879233926001600160a01b0390911691636352211e91602480820192602092909190829003018186803b15801561306957600080fd5b505afa15801561307d573d6000803e3d6000fd5b505050506040513d602081101561309357600080fd5b50516001600160a01b0316146130a857600080fd5b8584866040516020018084815260200183815260200182815260200193505050506040516020818303038152906040528051906020012073__Merkle________________________________636c8f455c909185601754866040518563ffffffff1660e01b81526004018085815260200184815260200183815260200180602001828103825283818151815260200191508051906020019080838360005b8381101561315e578181015183820152602001613146565b50505050905090810190601f16801561318b5780820380516001836020036101000a031916815260200191505b509550505050505060206040518083038186803b1580156131ab57600080fd5b505af41580156131bf573d6000803e3d6000fd5b505050506040513d60208110156131d557600080fd5b505161321a576040805162461bcd60e51b815260206004820152600f60248201526e2bb937b7339030b1b190383937b7b360891b604482015290519081900360640190fd5b6007546040805163a9059cbb60e01b81523360048201526024810187905290516001600160a01b039092169163a9059cbb916044808201926020929091908290030181600087803b15801561326e57600080fd5b505af1158015613282573d6000803e3d6000fd5b505050506040513d602081101561329857600080fd5b50516132a357600080fd5b6129138685614037565b600b546001600160a01b031681565b6132c4612aed565b6132cd57600080fd5b600081116132da57600080fd5b600954600d5460408051632dbe9d3160e21b8152600481018590526024810192909252516001600160a01b039092169163b6fa74c49160448082019260009290919082900301818387803b15801561333157600080fd5b505af1158015613345573d6000803e3d6000fd5b505050600d9190915550565b60155481565b600254600160a01b900460ff1681565b60008281526006602052604081205460045460055491929161338e9163ffffffff613a7716565b60008581526006602081905260408220600481018790550154919250906001600160a01b0316156134a457600085815260066020818152604092839020909101548251630e826fd160e21b815292516001600160a01b0390911692633a09bf44926004808301939192829003018186803b15801561340b57600080fd5b505afa15801561341f573d6000803e3d6000fd5b505050506040513d602081101561343557600080fd5b50516000868152600660208190526040808320909101548151637c1e845d60e11b815291519394506001600160a01b03169263f83d08ba9260048084019391929182900301818387803b15801561348b57600080fd5b505af115801561349f573d6000803e3d6000fd5b505050505b6134b682828501600003600019613c1b565b600085815260066020819052604080832060038101869055909101805460ff60a01b1916600160a11b17905560095481516304ba4aad60e11b8152600481018990526024810186905291516001600160a01b0390911692630974955a926044808201939182900301818387803b15801561352f57600080fd5b505af1158015613543573d6000803e3d6000fd5b505050505050505050565b600a54604080516331a9108f60e11b8152600481018490529051839233926001600160a01b0390911691636352211e91602480820192602092909190829003018186803b15801561359e57600080fd5b505afa1580156135b2573d6000803e3d6000fd5b505050506040513d60208110156135c857600080fd5b50516001600160a01b0316146135dd57600080fd5b60008281526006602052604090206003015415801590613622575060055460045460008481526006602052604090206003015461361f9163ffffffff613a7716565b11155b80156136565750600360008381526006602081905260409091200154600160a01b900460ff16600381111561365357fe5b14155b61365f57600080fd5b600082815260066020526040902054601254613681908263ffffffff613c3d16565b601255600a5460408051630852cd8d60e31b81526004810186905290516001600160a01b03909216916342966c689160248082019260009290919082900301818387803b1580156136d157600080fd5b505af11580156136e5573d6000803e3d6000fd5b505050600084815260066020818152604080842060058101546001600160a01b039081168652601984529185208590559388905290829052908201805460ff60a01b1916600360a01b1790556007546001909201549116915063a9059cbb903390613751908590613a77565b6040518363ffffffff1660e01b815260040180836001600160a01b03166001600160a01b0316815260200182815260200192505050602060405180830381600087803b1580156137a057600080fd5b505af11580156137b4573d6000803e3d6000fd5b505050506040513d60208110156137ca57600080fd5b5051613815576040805162461bcd60e51b8152602060048201526015602482015274151c985b9cd9995c881cdd185ad94819985a5b1959605a1b604482015290519081900360640190fd5b6009546012546040805163ae2e26b160e01b815233600482015260248101879052604481018590526064810192909252516001600160a01b039092169163ae2e26b19160848082019260009290919082900301818387803b15801561387957600080fd5b505af115801561388d573d6000803e3d6000fd5b50505050505050565b61389e612aed565b6138a757600080fd5b600081116138b457600080fd5b600954600c5460408051635071805360e11b8152600481018590526024810192909252516001600160a01b039092169163a0e300a69160448082019260009290919082900301818387803b15801561390b57600080fd5b505af115801561391f573d6000803e3d6000fd5b505050600c82905550600481815561393e90829063ffffffff613c9016565b60168190556005546139559163ffffffff613a7716565b60185550565b613963612aed565b61396c57600080fd5b6001600160a01b03811661397f57600080fd5b6003546040516001600160a01b038084169216907f211c9015fc81c0dbd45bd99f0f29fc1c143bfd53442d5ffd722bbbef7a887fe990600090a3600380546001600160a01b0319166001600160a01b0392909216919091179055565b6009546001600160a01b031681565b6139f2612aed565b6139fb57600080fd5b612921816140a1565b6002546001600160a01b03163314613a4d5760405162461bcd60e51b81526004018080602001828103825260268152602001806141406026913960400191505060405180910390fd5b6002805460ff60a01b1916600160a01b179055565b600f5481565b6007546001600160a01b031681565b600082820183811015613a8957600080fd5b9392505050565b600082815260066020819052604082208054600382018590559101549091906001600160a01b031615613ba857600084815260066020818152604092839020909101548251630e826fd160e21b815292516001600160a01b0390911692633a09bf44926004808301939192829003018186803b158015613b0f57600080fd5b505afa158015613b23573d6000803e3d6000fd5b505050506040513d6020811015613b3957600080fd5b50516000858152600660208190526040808320909101548151637c1e845d60e11b815291519394506001600160a01b03169263f83d08ba9260048084019391929182900301818387803b158015613b8f57600080fd5b505af1158015613ba3573d6000803e3d6000fd5b505050505b613bba83828401600003600019613c1b565b60095460408051635e04d48360e01b815233600482015260248101879052604481018690526064810185905290516001600160a01b0390921691635e04d4839160848082019260009290919082900301818387803b1580156114e557600080fd5b6000928352601a60205260409092208054909101815560010180549091019055565b600082821115613c4c57600080fd5b50900390565b600082613c61575060006111ff565b82820282848281613c6e57fe5b0414613a8957600080fd5b600081831015613c895781613a89565b5090919050565b6000808211613c9e57600080fd5b6000828481613ca957fe5b04949350505050565b601c54613cc5908263ffffffff613a7716565b601c55600954604080516323b0600560e11b8152600481018590526024810184905290516001600160a01b0390921691634760c00a9160448082019260009290919082900301818387803b158015613d1c57600080fd5b505af1158015612913573d6000803e3d6000fd5b601254613d43908463ffffffff613a7716565b6012819055506040518061010001604052808481526020016000815260200160055481526020016000815260200160008152602001836001600160a01b0316815260200182613d93576000613e26565b600b546013546009546002546040805163d4ad267360e01b815260048101949094526001600160a01b03928316602485015290821660448401525192169163d4ad2673916064808201926020929091908290030181600087803b158015613df957600080fd5b505af1158015613e0d573d6000803e3d6000fd5b505050506040513d6020811015613e2357600080fd5b50515b6001600160a01b03168152602001600190526013546000908152600660208181526040928390208451815590840151600182015591830151600283015560608301516003808401919091556080840151600484015560a08401516005840180546001600160a01b039283166001600160a01b03199182161790915560c086015193850180549490921693169290921780835560e0850151929160ff60a01b1990911690600160a01b908490811115613eda57fe5b021790555050600a54601354604080516340c10f1960e01b81526001600160a01b038981166004830152602482019390935290519190921692506340c10f199160448082019260009290919082900301818387803b158015613f3b57600080fd5b505af1158015613f4f573d6000803e3d6000fd5b50506013546001600160a01b0385166000908152601960205260409020555050600554613f7e90846001613c1b565b600554601380546000908152601b60205260408082206001018490556009549254601254825163152e187760e31b81526001600160a01b03898116600483015260248201939093526044810196909652606486018990526084860152905192169263a970c3b89260a4808301939282900301818387803b15801561400157600080fd5b505af1158015614015573d6000803e3d6000fd5b505060135461402e92509050600163ffffffff613a7716565b60135550505050565b601c5461404a908263ffffffff613c3d16565b601c556009546040805163cf572fe360e01b8152600481018590526024810184905290516001600160a01b039092169163cf572fe39160448082019260009290919082900301818387803b158015613d1c57600080fd5b6001600160a01b0381166140b457600080fd5b600080546040516001600160a01b03808516939216917f8be0079c531659141344cd1fd0a4f28419497f9722a3daafe3b4186f6b6457e091a3600080546001600160a01b0319166001600160a01b039290921691909117905556fe436f6e6669726d6174696f6e206973206e6f7420616c6c6f776564206265666f72652061756374696f6e506572696f644f6e6c7920676f7665726e616e636520636f6e747261637420697320617574686f72697a6564a265627a7a723158204c7f04139189aae7ca96c8f007610d07ed8218ff5c7c5eb9ee9ae4cdddf3982464736f6c634300050b0032",
  "source": "pragma solidity ^0.5.2;\n\nimport {IGovernance} from \"../common/governance/IGovernance.sol\";\nimport {StakeManager} from \"../staking/stakeManager/StakeManager.sol\";\nimport {StakingInfo} from \"../staking/StakingInfo.sol\";\nimport {StakingNFT} from \"../staking/stakeManager/StakingNFT.sol\";\nimport \"../staking/validatorShare/ValidatorShareFactory.sol\";\n\ncontract StakeManagerTest is StakeManager {\n    modifier onlyRootChain() {\n        _;\n    }\n\n    constructor(\n        address _registry,\n        address _rootChain,\n        address _NFTContract,\n        address _stakingLogger,\n        address _validatorShareFactory,\n        address _governance\n    ) public {\n        checkPointBlockInterval = 1;\n        registry = _registry;\n        rootChain = _rootChain;\n        NFTContract = StakingNFT(_NFTContract);\n        logger = StakingInfo(_stakingLogger);\n        factory = ValidatorShareFactory(_validatorShareFactory);\n        governance = IGovernance(_governance);\n    }\n\n    function checkSignatures(\n        uint256 blockInterval,\n        bytes32 voteHash,\n        bytes32 stateRoot,\n        bytes memory sigs\n    ) public onlyRootChain returns (uint256) {\n        return CHECKPOINT_REWARD; // for dummy tests return full reward\n    }\n}\n",
  "sourcePath": "/Users/arth/Documents/Projects/contracts/contracts/test/StakeManagerTest.sol",
  "compiler": {
    "name": "solc",
    "version": "0.5.11+commit.c082d0b4.Emscripten.clang"
  },
  "schemaVersion": "3.0.14",
  "updatedAt": "2020-02-20T10:11:00.522Z",
  "devdoc": {
    "methods": {
      "changeRootChain(address)": {
        "details": "Allows the current owner to change root chain address.",
        "params": {
          "newRootChain": "The address to new rootchain."
        }
      },
      "isOwner()": {
        "return": "true if `msg.sender` is the owner of the contract."
      },
      "owner()": {
        "return": "the address of the owner."
      },
      "renounceOwnership()": {
        "details": "Allows the current owner to relinquish control of the contract. It will not be possible to call the functions with the `onlyOwner` modifier anymore."
      },
      "transferOwnership(address)": {
        "details": "Allows the current owner to transfer control of the contract to a newOwner.",
        "params": {
          "newOwner": "The address to transfer ownership to."
        }
      }
    }
  },
  "userdoc": {
    "methods": {
      "renounceOwnership()": {
        "notice": "Renouncing ownership will leave the contract without an owner, thereby removing any functionality that is only available to the owner."
      }
    }
  }
}