{
  "contractName": "ValidatorShareFactory",
  "abi": [
    {
      "constant": false,
      "inputs": [
        {
          "internalType": "uint256",
          "name": "validatorId",
          "type": "uint256"
        },
        {
          "internalType": "address",
          "name": "loggerAddress",
          "type": "address"
        },
        {
          "internalType": "address",
          "name": "governance",
          "type": "address"
        }
      ],
      "name": "create",
      "outputs": [
        {
          "internalType": "address",
          "name": "",
          "type": "address"
        }
      ],
      "payable": false,
      "stateMutability": "nonpayable",
      "type": "function"
    }
  ],
  "bytecode": "0x608060405234801561001057600080fd5b50611ea2806100206000396000f3fe608060405234801561001057600080fd5b506004361061002b5760003560e01c8063d4ad267314610030575b600080fd5b6100646004803603606081101561004657600080fd5b508035906001600160a01b0360208201358116916040013516610080565b604080516001600160a01b039092168252519081900360200190f35b6000808484338560405161009390610144565b9384526001600160a01b039283166020850152908216604080850191909152911660608301525190819003608001906000f0801580156100d7573d6000803e3d6000fd5b506040805163f2fde38b60e01b815233600482015290519192506001600160a01b0383169163f2fde38b9160248082019260009290919082900301818387803b15801561012357600080fd5b505af1158015610137573d6000803e3d6000fd5b5092979650505050505050565b611d1c806101528339019056fe6080604052600a8055600e805460ff1916600117905534801561002157600080fd5b50604051611d1c380380611d1c8339818101604052608081101561004457600080fd5b5080516020820151604080840151606090940151600380546001600160a01b038084166001600160a01b03199283161790925560048054909116331790819055925194959394919286928692869286929116906000907f8be0079c531659141344cd1fd0a4f28419497f9722a3daafe3b4186f6b6457e0908290a350600792909255600580546001600160a01b039283166001600160a01b0319918216179091556006805493909216921691909117905550505050611c14806101086000396000f3fe608060405234801561001057600080fd5b506004361061023c5760003560e01c8063715018a61161013b578063c7b8981c116100b8578063eebfa4b71161007c578063eebfa4b714610537578063ef40a6701461055a578063f2fde38b14610580578063f3c65e5f146105a6578063f83d08ba146105ae5761023c565b8063c7b8981c146104e9578063cf309012146104f1578063dd62ed3e146104f9578063df5cf72314610527578063eba8a2661461052f5761023c565b80638f32d59b116100ff5780638f32d59b146104795780639ec5a89414610481578063a457c2d714610489578063a69df4b5146104b5578063a9059cbb146104bd5761023c565b8063715018a61461041a5780637542ff95146104225780638b0e9f3f1461042a5780638d23fc61146104325780638da5cb5b146104715761023c565b80633d94eb05116101c95780635ea1d6f81161018d5780635ea1d6f814610395578063676e55501461039d5780636bd7ee4f146103c35780636cbb6050146103cb57806370a08231146103f45761023c565b80633d94eb051461033c5780634144574c146103605780635aa6e6751461037d5780635c5f7dae146103855780635d1e36161461038d5761023c565b806329ed2b341161021057806329ed2b34146102f057806332ba2e53146102f857806339509351146103005780633a09bf441461032c5780633ba0b9a9146103345761023c565b8062fa3d5014610241578063095ea7b31461026057806318160ddd146102a057806323b872dd146102ba575b600080fd5b61025e6004803603602081101561025757600080fd5b50356105b6565b005b61028c6004803603604081101561027657600080fd5b506001600160a01b038135169060200135610707565b604080519115158252519081900360200190f35b6102a861071e565b60408051918252519081900360200190f35b61028c600480360360608110156102d057600080fd5b506001600160a01b03813581169160208101359091169060400135610724565b61025e61077b565b6102a8610bc5565b61028c6004803603604081101561031657600080fd5b506001600160a01b038135169060200135610be5565b6102a8610c21565b6102a8610c27565b610344610c6a565b604080516001600160a01b039092168252519081900360200190f35b61025e6004803603602081101561037657600080fd5b5035610c79565b610344610eaa565b6102a8610eb9565b6102a8610ebf565b6102a8610ec5565b6102a8600480360360208110156103b357600080fd5b50356001600160a01b0316610ecb565b61025e610f76565b61025e600480360360608110156103e157600080fd5b508035906020810135906040013561115e565b6102a86004803603602081101561040a57600080fd5b50356001600160a01b0316611163565b61025e61117e565b6103446111d9565b6102a86111e8565b6104586004803603602081101561044857600080fd5b50356001600160a01b03166111ee565b6040805192835260208301919091528051918290030190f35b610344611207565b61028c611216565b6102a8611227565b61028c6004803603604081101561049f57600080fd5b506001600160a01b03813516906020013561122d565b61025e611269565b61028c600480360360408110156104d357600080fd5b506001600160a01b0381351690602001356112c1565b61025e6112ce565b61028c61143f565b6102a86004803603604081101561050f57600080fd5b506001600160a01b038135811691602001351661144f565b61028c61147a565b61025e611483565b6102a86004803603604081101561054d57600080fd5b50803590602001356116ae565b6102a86004803603602081101561057057600080fd5b50356001600160a01b0316611806565b61025e6004803603602081101561059657600080fd5b50356001600160a01b0316611818565b6102a8611835565b61025e61183b565b600654600754604080516331a9108f60e11b815260048101929092525133926001600160a01b031691636352211e916024808301926020929190829003018186803b15801561060457600080fd5b505afa158015610618573d6000803e3d6000fd5b505050506040513d602081101561062e57600080fd5b50516001600160a01b03161461064357600080fd5b606460095411156106855760405162461bcd60e51b815260040180806020018281038252602b815260200180611b8f602b913960400191505060405180910390fd5b600554600754600954604080516364c6600160e11b81526004810193909352602483018590526044830191909152516001600160a01b039092169163c98cc0029160648082019260009290919082900301818387803b1580156106e757600080fd5b505af11580156106fb573d6000803e3d6000fd5b50505060099190915550565b6000610714338484611899565b5060015b92915050565b60025490565b6000610731848484611921565b6001600160a01b03841660009081526001602090815260408083203380855292529091205461077191869161076c908663ffffffff61195916565b611899565b5060019392505050565b600061078633611163565b9050600081116107cc576040805162461bcd60e51b815260206004820152600c60248201526b5a65726f2062616c616e636560a01b604482015290519081900360640190fd5b60006107f760646107eb846107df610c27565b9063ffffffff61196e16565b9063ffffffff61199c16565b905061080333836119be565b60065460075460408051629ff11560e81b815260048101929092526000848103602484015290516001600160a01b0390931692639ff1150092604480820193929182900301818387803b15801561085957600080fd5b505af115801561086d573d6000803e3d6000fd5b5050600d54610885925090508263ffffffff61195916565b600d55336000908152600f60205260409020548111156109a857336000908152600f60205260408120546108c090839063ffffffff61195916565b600654600754604080516323bbfda160e11b8152600481019290925260248201849052336044830152519293506001600160a01b0390911691634777fb42916064808201926020929091908290030181600087803b15801561092157600080fd5b505af1158015610935573d6000803e3d6000fd5b505050506040513d602081101561094b57600080fd5b5051610994576040805162461bcd60e51b8152602060048201526013602482015272496e737566666963656e74207265776172647360681b604482015290519081900360640190fd5b6109a4828263ffffffff61195916565b9150505b336000908152600f602090815260408083209290925581518083018352838152600654835163075d8b9560e11b81529351919384840193610aba936001600160a01b0390931692630ebb172a926004808201939291829003018186803b158015610a1157600080fd5b505afa158015610a25573d6000803e3d6000fd5b505050506040513d6020811015610a3b57600080fd5b505160065460408051630ecce30160e31b815290516001600160a01b0390921691637667180891600480820192602092909190829003018186803b158015610a8257600080fd5b505afa158015610a96573d6000803e3d6000fd5b505050506040513d6020811015610aac57600080fd5b50519063ffffffff611a6516565b9052336000818152601060209081526040808320855181559490910151600190940193909355600554600754845163f1382b5360e01b815260048101919091526024810193909352604483018590526064830186905292516001600160a01b039093169263f1382b5392608480820193929182900301818387803b158015610b4157600080fd5b505af1158015610b55573d6000803e3d6000fd5b50506005546007546040805163532e19a960e01b81526004810192909252516001600160a01b03909216935063532e19a9925060248082019260009290919082900301818387803b158015610ba957600080fd5b505af1158015610bbd573d6000803e3d6000fd5b505050505050565b6000610bcf611216565b610bd857600080fd5b5060088054600090915590565b3360008181526001602090815260408083206001600160a01b0387168452909152812054909161071491859061076c908663ffffffff611a6516565b600d5481565b6000610c3161071e565b15610c6257610c5d610c4161071e565b6107eb60646107df600c54600d54611a6590919063ffffffff16565b610c65565b60645b905090565b6005546001600160a01b031681565b600354600160a01b900460ff1615610cc4576040805162461bcd60e51b8152602060048201526009602482015268125cc8131bd8dad95960ba1b604482015290519081900360640190fd5b6000610ce2610cd1610c27565b6107eb84606463ffffffff61196e16565b600b54909150610cf8908363ffffffff611a6516565b600b55336000908152600f6020526040902054610d1b908363ffffffff611a6516565b336000818152600f60209081526040808320949094556006546007548551636901b25360e01b8152600481019190915260248101889052604481019490945293516001600160a01b0390941693636901b25393606480820194918390030190829087803b158015610d8b57600080fd5b505af1158015610d9f573d6000803e3d6000fd5b505050506040513d6020811015610db557600080fd5b50610dc290503382611a77565b600d54610dd5908363ffffffff611a6516565b600d5560065460075460408051629ff11560e81b8152600481019290925260248201859052516001600160a01b0390921691639ff115009160448082019260009290919082900301818387803b158015610e2e57600080fd5b505af1158015610e42573d6000803e3d6000fd5b50506005546007546040805163c69d057360e01b815260048101929092523360248301526044820187905260648201869052516001600160a01b03909216935063c69d0573925060848082019260009290919082900301818387803b158015610b4157600080fd5b6003546001600160a01b031681565b60075481565b60085481565b60095481565b600080610ed783611163565b90506000610ee3610c27565b905060008211610f29576040805162461bcd60e51b815260206004820152600c60248201526b5a65726f2062616c616e636560a01b604482015290519081900360640190fd5b6000610f4060646107eb848663ffffffff61196e16565b6001600160a01b0386166000908152600f6020526040902054909150610f6d90829063ffffffff61195916565b95945050505050565b3360009081526010602052604090208054600b54610f999163ffffffff61195916565b600b5560065460408051630ecce30160e31b815290516001600160a01b0390921691637667180891600480820192602092909190829003018186803b158015610fe157600080fd5b505afa158015610ff5573d6000803e3d6000fd5b505050506040513d602081101561100b57600080fd5b50516001820154118015906110205750805415155b611071576040805162461bcd60e51b815260206004820152601c60248201527f496e636f6d706c657465207769746864726177616c20706572696f6400000000604482015290519081900360640190fd5b6006546007548254604080516323bbfda160e11b815260048101939093526024830191909152336044830152516001600160a01b0390921691634777fb42916064808201926020929091908290030181600087803b1580156110d257600080fd5b505af11580156110e6573d6000803e3d6000fd5b505050506040513d60208110156110fc57600080fd5b5051611145576040805162461bcd60e51b8152602060048201526013602482015272496e737566666963656e74207265776172647360681b604482015290519081900360640190fd5b5033600090815260106020526040812081815560010155565b505050565b6001600160a01b031660009081526020819052604090205490565b611186611216565b61118f57600080fd5b6004546040516000916001600160a01b0316907f8be0079c531659141344cd1fd0a4f28419497f9722a3daafe3b4186f6b6457e0908390a3600480546001600160a01b0319169055565b6006546001600160a01b031681565b600b5481565b6010602052600090815260409020805460019091015482565b6004546001600160a01b031690565b6004546001600160a01b0316331490565b600c5481565b3360008181526001602090815260408083206001600160a01b0387168452909152812054909161071491859061076c908663ffffffff61195916565b6003546001600160a01b031633146112b25760405162461bcd60e51b8152600401808060200182810382526026815260200180611bba6026913960400191505060405180910390fd5b6003805460ff60a01b19169055565b6000610714338484611921565b60006112d933610ecb565b905060006112e8610cd1610c27565b90506112f433826119be565b600c54611307908363ffffffff61195916565b600c55600654600754604080516323bbfda160e11b8152600481019290925260248201859052336044830152516001600160a01b0390921691634777fb42916064808201926020929091908290030181600087803b15801561136857600080fd5b505af115801561137c573d6000803e3d6000fd5b505050506040513d602081101561139257600080fd5b50516113db576040805162461bcd60e51b8152602060048201526013602482015272496e737566666963656e74207265776172647360681b604482015290519081900360640190fd5b6005546007546040805163af4cdabf60e01b815260048101929092523360248301526044820185905260648201849052516001600160a01b039092169163af4cdabf9160848082019260009290919082900301818387803b158015610ba957600080fd5b600354600160a01b900460ff1681565b6001600160a01b03918216600090815260016020908152604080832093909416825291909152205490565b600e5460ff1681565b600061148e33610ecb565b336000908152600f60205260409020549091506114b1908263ffffffff611a6516565b336000908152600f6020526040902055600b546114d4908263ffffffff611a6516565b600b55600d546114ea908263ffffffff611a6516565b600d55600654600754604080516323bbfda160e11b8152600481019290925260248201849052306044830152516001600160a01b0390921691634777fb42916064808201926020929091908290030181600087803b15801561154b57600080fd5b505af115801561155f573d6000803e3d6000fd5b505050506040513d602081101561157557600080fd5b50516115be576040805162461bcd60e51b8152602060048201526013602482015272496e737566666963656e74207265776172647360681b604482015290519081900360640190fd5b60065460075460408051629ff11560e81b8152600481019290925260248201849052516001600160a01b0390921691639ff115009160448082019260009290919082900301818387803b15801561161457600080fd5b505af1158015611628573d6000803e3d6000fd5b5050600c54611640925090508263ffffffff61195916565b600c556005546007546040805163532e19a960e01b81526004810192909252516001600160a01b039092169163532e19a99160248082019260009290919082900301818387803b15801561169357600080fd5b505af11580156116a7573d6000803e3d6000fd5b5050505050565b60006116b8611216565b6116c157600080fd5b60065460075460408051630d6a8b9160e21b815260048101929092525160009283926001600160a01b03909116916335aa2e449160248082019261010092909190829003018186803b15801561171657600080fd5b505afa15801561172a573d6000803e3d6000fd5b505050506040513d61010081101561174157600080fd5b5051600d5490915061175a90829063ffffffff611a6516565b91506000611772856107eb858963ffffffff61196e16565b9050600061178a846107eb858563ffffffff61196e16565b90506117ba6117ad60646107eb6009546107df868861195990919063ffffffff16565b829063ffffffff611a6516565b90506117cc828263ffffffff61195916565b6008549092506117e2908263ffffffff611a6516565b600855600c546117f8908363ffffffff611a6516565b600c55509195945050505050565b600f6020526000908152604090205481565b611820611216565b61182957600080fd5b61183281611b1f565b50565b600a5481565b6003546001600160a01b031633146118845760405162461bcd60e51b8152600401808060200182810382526026815260200180611bba6026913960400191505060405180910390fd5b6003805460ff60a01b1916600160a01b179055565b6001600160a01b0382166118ac57600080fd5b6001600160a01b0383166118bf57600080fd5b6001600160a01b03808416600081815260016020908152604080832094871680845294825291829020859055815185815291517f8c5be1e5ebec7d5bd14f71427d1e84f3dd0314c0f7b2291e5b200ac8c7c3b9259281900390910190a3505050565b6040805162461bcd60e51b8152602060048201526008602482015267111a5cd8589b195960c21b604482015290519081900360640190fd5b60008282111561196857600080fd5b50900390565b60008261197d57506000610718565b8282028284828161198a57fe5b041461199557600080fd5b9392505050565b60008082116119aa57600080fd5b60008284816119b557fe5b04949350505050565b6001600160a01b0382166119d157600080fd5b6002546119e4908263ffffffff61195916565b6002556001600160a01b038216600090815260208190526040902054611a10908263ffffffff61195916565b6001600160a01b038316600081815260208181526040808320949094558351858152935191937fddf252ad1be2c89b69c2b068fc378daa952ba7f163c4a11628f55a4df523b3ef929081900390910190a35050565b60008282018381101561199557600080fd5b6001600160a01b038216611a8a57600080fd5b600254611a9d908263ffffffff611a6516565b6002556001600160a01b038216600090815260208190526040902054611ac9908263ffffffff611a6516565b6001600160a01b0383166000818152602081815260408083209490945583518581529351929391927fddf252ad1be2c89b69c2b068fc378daa952ba7f163c4a11628f55a4df523b3ef9281900390910190a35050565b6001600160a01b038116611b3257600080fd5b6004546040516001600160a01b038084169216907f8be0079c531659141344cd1fd0a4f28419497f9722a3daafe3b4186f6b6457e090600090a3600480546001600160a01b0319166001600160a01b039290921691909117905556fe436f6d6d697373696f6e20726174652073686f756c6420626520696e2072616e6765206f6620302d3130304f6e6c7920676f7665726e616e636520636f6e747261637420697320617574686f72697a6564a265627a7a7231582099a348c5da22c1b8f43f6278b23cc48ad8ddcefc31ec3abccd1ab39aa21a972364736f6c634300050b0032a265627a7a72315820c2ad3f554d347ef5bbdb6f7be372a0f43c84d8b44de6b8f0bcdb7da7d8cf2c4264736f6c634300050b0032",
  "source": "pragma solidity ^0.5.2;\n\nimport {ValidatorShare} from \"./ValidatorShare.sol\";\n\ncontract ValidatorShareFactory {\n    /**\n    - factory to create new validatorShare contracts\n   */\n\n    function create(\n        uint256 validatorId,\n        address loggerAddress,\n        address governance\n    ) public returns (address) {\n        ValidatorShare validatorShare = new ValidatorShare(\n            validatorId,\n            loggerAddress,\n            msg.sender,\n            governance\n        );\n        validatorShare.transferOwnership(msg.sender);\n        return address(validatorShare);\n    }\n\n}\n",
  "sourcePath": "/Users/arth/Documents/Projects/contracts/contracts/staking/validatorShare/ValidatorShareFactory.sol",
  "compiler": {
    "name": "solc",
    "version": "0.5.11+commit.c082d0b4.Emscripten.clang"
  },
  "schemaVersion": "3.0.14",
  "updatedAt": "2020-02-20T10:11:00.518Z",
  "devdoc": {
    "methods": {}
  },
  "userdoc": {
    "methods": {
      "create(uint256,address,address)": {
        "notice": "- factory to create new validatorShare contracts"
      }
    }
  }
}